{
	"contracts/Cooperative.sol": {
		"Cooperative": {
			"abi": [
				{
					"inputs": [
						{
							"internalType": "address",
							"name": "vault",
							"type": "address"
						}
					],
					"stateMutability": "nonpayable",
					"type": "constructor"
				},
				{
					"anonymous": false,
					"inputs": [
						{
							"indexed": true,
							"internalType": "address",
							"name": "owner",
							"type": "address"
						},
						{
							"indexed": false,
							"internalType": "uint256",
							"name": "amount",
							"type": "uint256"
						},
						{
							"indexed": false,
							"internalType": "string",
							"name": "message",
							"type": "string"
						}
					],
					"name": "OwnerDeposit",
					"type": "event"
				},
				{
					"inputs": [
						{
							"internalType": "string",
							"name": "message",
							"type": "string"
						}
					],
					"name": "deposit",
					"outputs": [],
					"stateMutability": "payable",
					"type": "function"
				},
				{
					"stateMutability": "payable",
					"type": "receive"
				}
			],
			"devdoc": {
				"kind": "dev",
				"methods": {},
				"version": 1
			},
			"evm": {
				"assembly": "    /* \"contracts/Cooperative.sol\":83:910  contract Cooperative {... */\n  mstore(0x40, 0x80)\n    /* \"contracts/Cooperative.sol\":253:417  constructor(address vault) {... */\n  callvalue\n  dup1\n  iszero\n  tag_1\n  jumpi\n  revert(0x00, 0x00)\ntag_1:\n  pop\n  mload(0x40)\n  sub(codesize, bytecodeSize)\n  dup1\n  bytecodeSize\n  dup4\n  codecopy\n  dup2\n  dup2\n  add\n  0x40\n  mstore\n  dup2\n  add\n  swap1\n  tag_2\n  swap2\n  swap1\n  tag_3\n  jump\t// in\ntag_2:\n    /* \"contracts/Cooperative.sol\":315:316  0 */\n  0x00\n    /* \"contracts/Cooperative.sol\":298:317  vault != address(0) */\n  0xffffffffffffffffffffffffffffffffffffffff\n  and\n    /* \"contracts/Cooperative.sol\":298:303  vault */\n  dup2\n    /* \"contracts/Cooperative.sol\":298:317  vault != address(0) */\n  0xffffffffffffffffffffffffffffffffffffffff\n  and\n  sub\n    /* \"contracts/Cooperative.sol\":290:350  require(vault != address(0), \"Vault address cannot be zero\") */\n  tag_6\n  jumpi\n  mload(0x40)\n  0x08c379a000000000000000000000000000000000000000000000000000000000\n  dup2\n  mstore\n  0x04\n  add\n  tag_7\n  swap1\n  tag_8\n  jump\t// in\ntag_7:\n  mload(0x40)\n  dup1\n  swap2\n  sub\n  swap1\n  revert\ntag_6:\n    /* \"contracts/Cooperative.sol\":376:381  vault */\n  dup1\n    /* \"contracts/Cooperative.sol\":360:373  _vaultAddress */\n  0x00\n  0x00\n    /* \"contracts/Cooperative.sol\":360:381  _vaultAddress = vault */\n  0x0100\n  exp\n  dup2\n  sload\n  dup2\n  0xffffffffffffffffffffffffffffffffffffffff\n  mul\n  not\n  and\n  swap1\n  dup4\n  0xffffffffffffffffffffffffffffffffffffffff\n  and\n  mul\n  or\n  swap1\n  sstore\n  pop\n    /* \"contracts/Cooperative.sol\":400:410  msg.sender */\n  caller\n    /* \"contracts/Cooperative.sol\":391:397  _owner */\n  0x01\n  0x00\n    /* \"contracts/Cooperative.sol\":391:410  _owner = msg.sender */\n  0x0100\n  exp\n  dup2\n  sload\n  dup2\n  0xffffffffffffffffffffffffffffffffffffffff\n  mul\n  not\n  and\n  swap1\n  dup4\n  0xffffffffffffffffffffffffffffffffffffffff\n  and\n  mul\n  or\n  swap1\n  sstore\n  pop\n    /* \"contracts/Cooperative.sol\":253:417  constructor(address vault) {... */\n  pop\n    /* \"contracts/Cooperative.sol\":83:910  contract Cooperative {... */\n  jump(tag_9)\n    /* \"#utility.yul\":88:205   */\ntag_11:\n    /* \"#utility.yul\":197:198   */\n  0x00\n    /* \"#utility.yul\":194:195   */\n  0x00\n    /* \"#utility.yul\":187:199   */\n  revert\n    /* \"#utility.yul\":334:460   */\ntag_13:\n    /* \"#utility.yul\":371:378   */\n  0x00\n    /* \"#utility.yul\":411:453   */\n  0xffffffffffffffffffffffffffffffffffffffff\n    /* \"#utility.yul\":404:409   */\n  dup3\n    /* \"#utility.yul\":400:454   */\n  and\n    /* \"#utility.yul\":389:454   */\n  swap1\n  pop\n    /* \"#utility.yul\":334:460   */\n  swap2\n  swap1\n  pop\n  jump\t// out\n    /* \"#utility.yul\":466:562   */\ntag_14:\n    /* \"#utility.yul\":503:510   */\n  0x00\n    /* \"#utility.yul\":532:556   */\n  tag_26\n    /* \"#utility.yul\":550:555   */\n  dup3\n    /* \"#utility.yul\":532:556   */\n  tag_13\n  jump\t// in\ntag_26:\n    /* \"#utility.yul\":521:556   */\n  swap1\n  pop\n    /* \"#utility.yul\":466:562   */\n  swap2\n  swap1\n  pop\n  jump\t// out\n    /* \"#utility.yul\":568:690   */\ntag_15:\n    /* \"#utility.yul\":641:665   */\n  tag_28\n    /* \"#utility.yul\":659:664   */\n  dup2\n    /* \"#utility.yul\":641:665   */\n  tag_14\n  jump\t// in\ntag_28:\n    /* \"#utility.yul\":634:639   */\n  dup2\n    /* \"#utility.yul\":631:666   */\n  eq\n    /* \"#utility.yul\":621:684   */\n  tag_29\n  jumpi\n    /* \"#utility.yul\":680:681   */\n  0x00\n    /* \"#utility.yul\":677:678   */\n  0x00\n    /* \"#utility.yul\":670:682   */\n  revert\n    /* \"#utility.yul\":621:684   */\ntag_29:\n    /* \"#utility.yul\":568:690   */\n  pop\n  jump\t// out\n    /* \"#utility.yul\":696:839   */\ntag_16:\n    /* \"#utility.yul\":753:758   */\n  0x00\n    /* \"#utility.yul\":784:790   */\n  dup2\n    /* \"#utility.yul\":778:791   */\n  mload\n    /* \"#utility.yul\":769:791   */\n  swap1\n  pop\n    /* \"#utility.yul\":800:833   */\n  tag_31\n    /* \"#utility.yul\":827:832   */\n  dup2\n    /* \"#utility.yul\":800:833   */\n  tag_15\n  jump\t// in\ntag_31:\n    /* \"#utility.yul\":696:839   */\n  swap3\n  swap2\n  pop\n  pop\n  jump\t// out\n    /* \"#utility.yul\":845:1196   */\ntag_3:\n    /* \"#utility.yul\":915:921   */\n  0x00\n    /* \"#utility.yul\":964:966   */\n  0x20\n    /* \"#utility.yul\":952:961   */\n  dup3\n    /* \"#utility.yul\":943:950   */\n  dup5\n    /* \"#utility.yul\":939:962   */\n  sub\n    /* \"#utility.yul\":935:967   */\n  slt\n    /* \"#utility.yul\":932:1051   */\n  iszero\n  tag_33\n  jumpi\n    /* \"#utility.yul\":970:1049   */\n  tag_34\n  tag_11\n  jump\t// in\ntag_34:\n    /* \"#utility.yul\":932:1051   */\ntag_33:\n    /* \"#utility.yul\":1090:1091   */\n  0x00\n    /* \"#utility.yul\":1115:1179   */\n  tag_35\n    /* \"#utility.yul\":1171:1178   */\n  dup5\n    /* \"#utility.yul\":1162:1168   */\n  dup3\n    /* \"#utility.yul\":1151:1160   */\n  dup6\n    /* \"#utility.yul\":1147:1169   */\n  add\n    /* \"#utility.yul\":1115:1179   */\n  tag_16\n  jump\t// in\ntag_35:\n    /* \"#utility.yul\":1105:1179   */\n  swap2\n  pop\n    /* \"#utility.yul\":1061:1189   */\n  pop\n    /* \"#utility.yul\":845:1196   */\n  swap3\n  swap2\n  pop\n  pop\n  jump\t// out\n    /* \"#utility.yul\":1202:1371   */\ntag_17:\n    /* \"#utility.yul\":1286:1297   */\n  0x00\n    /* \"#utility.yul\":1320:1326   */\n  dup3\n    /* \"#utility.yul\":1315:1318   */\n  dup3\n    /* \"#utility.yul\":1308:1327   */\n  mstore\n    /* \"#utility.yul\":1360:1364   */\n  0x20\n    /* \"#utility.yul\":1355:1358   */\n  dup3\n    /* \"#utility.yul\":1351:1365   */\n  add\n    /* \"#utility.yul\":1336:1365   */\n  swap1\n  pop\n    /* \"#utility.yul\":1202:1371   */\n  swap3\n  swap2\n  pop\n  pop\n  jump\t// out\n    /* \"#utility.yul\":1377:1555   */\ntag_18:\n    /* \"#utility.yul\":1517:1547   */\n  0x5661756c7420616464726573732063616e6e6f74206265207a65726f00000000\n    /* \"#utility.yul\":1513:1514   */\n  0x00\n    /* \"#utility.yul\":1505:1511   */\n  dup3\n    /* \"#utility.yul\":1501:1515   */\n  add\n    /* \"#utility.yul\":1494:1548   */\n  mstore\n    /* \"#utility.yul\":1377:1555   */\n  pop\n  jump\t// out\n    /* \"#utility.yul\":1561:1927   */\ntag_19:\n    /* \"#utility.yul\":1703:1706   */\n  0x00\n    /* \"#utility.yul\":1724:1791   */\n  tag_39\n    /* \"#utility.yul\":1788:1790   */\n  0x1c\n    /* \"#utility.yul\":1783:1786   */\n  dup4\n    /* \"#utility.yul\":1724:1791   */\n  tag_17\n  jump\t// in\ntag_39:\n    /* \"#utility.yul\":1717:1791   */\n  swap2\n  pop\n    /* \"#utility.yul\":1800:1893   */\n  tag_40\n    /* \"#utility.yul\":1889:1892   */\n  dup3\n    /* \"#utility.yul\":1800:1893   */\n  tag_18\n  jump\t// in\ntag_40:\n    /* \"#utility.yul\":1918:1920   */\n  0x20\n    /* \"#utility.yul\":1913:1916   */\n  dup3\n    /* \"#utility.yul\":1909:1921   */\n  add\n    /* \"#utility.yul\":1902:1921   */\n  swap1\n  pop\n    /* \"#utility.yul\":1561:1927   */\n  swap2\n  swap1\n  pop\n  jump\t// out\n    /* \"#utility.yul\":1933:2352   */\ntag_8:\n    /* \"#utility.yul\":2099:2103   */\n  0x00\n    /* \"#utility.yul\":2137:2139   */\n  0x20\n    /* \"#utility.yul\":2126:2135   */\n  dup3\n    /* \"#utility.yul\":2122:2140   */\n  add\n    /* \"#utility.yul\":2114:2140   */\n  swap1\n  pop\n    /* \"#utility.yul\":2186:2195   */\n  dup2\n    /* \"#utility.yul\":2180:2184   */\n  dup2\n    /* \"#utility.yul\":2176:2196   */\n  sub\n    /* \"#utility.yul\":2172:2173   */\n  0x00\n    /* \"#utility.yul\":2161:2170   */\n  dup4\n    /* \"#utility.yul\":2157:2174   */\n  add\n    /* \"#utility.yul\":2150:2197   */\n  mstore\n    /* \"#utility.yul\":2214:2345   */\n  tag_42\n    /* \"#utility.yul\":2340:2344   */\n  dup2\n    /* \"#utility.yul\":2214:2345   */\n  tag_19\n  jump\t// in\ntag_42:\n    /* \"#utility.yul\":2206:2345   */\n  swap1\n  pop\n    /* \"#utility.yul\":1933:2352   */\n  swap2\n  swap1\n  pop\n  jump\t// out\n    /* \"contracts/Cooperative.sol\":83:910  contract Cooperative {... */\ntag_9:\n  dataSize(sub_0)\n  dup1\n  dataOffset(sub_0)\n  0x00\n  codecopy\n  0x00\n  return\nstop\n\nsub_0: assembly {\n        /* \"contracts/Cooperative.sol\":83:910  contract Cooperative {... */\n      mstore(0x40, 0x80)\n      jumpi(tag_1, lt(calldatasize, 0x04))\n      shr(0xe0, calldataload(0x00))\n      dup1\n      0xa26e1186\n      eq\n      tag_3\n      jumpi\n      jump(tag_2)\n    tag_1:\n      jumpi(tag_2, calldatasize)\n      stop\n    tag_2:\n      revert(0x00, 0x00)\n        /* \"contracts/Cooperative.sol\":641:908  function deposit(string calldata message) external payable onlyOwner {... */\n    tag_3:\n      tag_6\n      0x04\n      dup1\n      calldatasize\n      sub\n      dup2\n      add\n      swap1\n      tag_7\n      swap2\n      swap1\n      tag_8\n      jump\t// in\n    tag_7:\n      tag_9\n      jump\t// in\n    tag_6:\n      stop\n    tag_9:\n        /* \"contracts/Cooperative.sol\":489:495  _owner */\n      0x01\n      0x00\n      swap1\n      sload\n      swap1\n      0x0100\n      exp\n      swap1\n      div\n      0xffffffffffffffffffffffffffffffffffffffff\n      and\n        /* \"contracts/Cooperative.sol\":475:495  msg.sender == _owner */\n      0xffffffffffffffffffffffffffffffffffffffff\n      and\n        /* \"contracts/Cooperative.sol\":475:485  msg.sender */\n      caller\n        /* \"contracts/Cooperative.sol\":475:495  msg.sender == _owner */\n      0xffffffffffffffffffffffffffffffffffffffff\n      and\n      eq\n        /* \"contracts/Cooperative.sol\":454:582  require(... */\n      tag_11\n      jumpi\n      mload(0x40)\n      0x08c379a000000000000000000000000000000000000000000000000000000000\n      dup2\n      mstore\n      0x04\n      add\n      tag_12\n      swap1\n      tag_13\n      jump\t// in\n    tag_12:\n      mload(0x40)\n      dup1\n      swap2\n      sub\n      swap1\n      revert\n    tag_11:\n        /* \"contracts/Cooperative.sol\":740:741  0 */\n      0x00\n        /* \"contracts/Cooperative.sol\":728:737  msg.value */\n      callvalue\n        /* \"contracts/Cooperative.sol\":728:741  msg.value > 0 */\n      gt\n        /* \"contracts/Cooperative.sol\":720:766  require(msg.value > 0, \"Must send some Ether\") */\n      tag_15\n      jumpi\n      mload(0x40)\n      0x08c379a000000000000000000000000000000000000000000000000000000000\n      dup2\n      mstore\n      0x04\n      add\n      tag_16\n      swap1\n      tag_17\n      jump\t// in\n    tag_16:\n      mload(0x40)\n      dup1\n      swap2\n      sub\n      swap1\n      revert\n    tag_15:\n        /* \"contracts/Cooperative.sol\":785:798  _vaultAddress */\n      0x00\n      0x00\n      swap1\n      sload\n      swap1\n      0x0100\n      exp\n      swap1\n      div\n      0xffffffffffffffffffffffffffffffffffffffff\n      and\n        /* \"contracts/Cooperative.sol\":776:815  IControl(_vaultAddress).depositExternal */\n      0xffffffffffffffffffffffffffffffffffffffff\n      and\n      0x2e25211d\n        /* \"contracts/Cooperative.sol\":823:832  msg.value */\n      callvalue\n        /* \"contracts/Cooperative.sol\":834:841  message */\n      dup5\n      dup5\n        /* \"contracts/Cooperative.sol\":776:842  IControl(_vaultAddress).depositExternal{value: msg.value}(message) */\n      mload(0x40)\n      dup5\n      0xffffffff\n      and\n      0xe0\n      shl\n      dup2\n      mstore\n      0x04\n      add\n      tag_18\n      swap3\n      swap2\n      swap1\n      tag_19\n      jump\t// in\n    tag_18:\n      0x00\n      mload(0x40)\n      dup1\n      dup4\n      sub\n      dup2\n      dup6\n      dup9\n      dup1\n      extcodesize\n      iszero\n      dup1\n      iszero\n      tag_20\n      jumpi\n      revert(0x00, 0x00)\n    tag_20:\n      pop\n      gas\n      call\n      iszero\n      dup1\n      iszero\n      tag_22\n      jumpi\n      returndatacopy(0x00, 0x00, returndatasize)\n      revert(0x00, returndatasize)\n    tag_22:\n      pop\n      pop\n      pop\n      pop\n      pop\n        /* \"contracts/Cooperative.sol\":870:880  msg.sender */\n      caller\n        /* \"contracts/Cooperative.sol\":857:901  OwnerDeposit(msg.sender, msg.value, message) */\n      0xffffffffffffffffffffffffffffffffffffffff\n      and\n      0xdc559e34789c6351866bb164dc3bd177bc43842ff9fe42d8f1cef434ec71b965\n        /* \"contracts/Cooperative.sol\":882:891  msg.value */\n      callvalue\n        /* \"contracts/Cooperative.sol\":893:900  message */\n      dup5\n      dup5\n        /* \"contracts/Cooperative.sol\":857:901  OwnerDeposit(msg.sender, msg.value, message) */\n      mload(0x40)\n      tag_23\n      swap4\n      swap3\n      swap2\n      swap1\n      tag_24\n      jump\t// in\n    tag_23:\n      mload(0x40)\n      dup1\n      swap2\n      sub\n      swap1\n      log2\n        /* \"contracts/Cooperative.sol\":641:908  function deposit(string calldata message) external payable onlyOwner {... */\n      pop\n      pop\n      jump\t// out\n        /* \"#utility.yul\":88:205   */\n    tag_26:\n        /* \"#utility.yul\":197:198   */\n      0x00\n        /* \"#utility.yul\":194:195   */\n      0x00\n        /* \"#utility.yul\":187:199   */\n      revert\n        /* \"#utility.yul\":211:328   */\n    tag_27:\n        /* \"#utility.yul\":320:321   */\n      0x00\n        /* \"#utility.yul\":317:318   */\n      0x00\n        /* \"#utility.yul\":310:322   */\n      revert\n        /* \"#utility.yul\":334:451   */\n    tag_28:\n        /* \"#utility.yul\":443:444   */\n      0x00\n        /* \"#utility.yul\":440:441   */\n      0x00\n        /* \"#utility.yul\":433:445   */\n      revert\n        /* \"#utility.yul\":457:574   */\n    tag_29:\n        /* \"#utility.yul\":566:567   */\n      0x00\n        /* \"#utility.yul\":563:564   */\n      0x00\n        /* \"#utility.yul\":556:568   */\n      revert\n        /* \"#utility.yul\":580:697   */\n    tag_30:\n        /* \"#utility.yul\":689:690   */\n      0x00\n        /* \"#utility.yul\":686:687   */\n      0x00\n        /* \"#utility.yul\":679:691   */\n      revert\n        /* \"#utility.yul\":717:1270   */\n    tag_31:\n        /* \"#utility.yul\":775:783   */\n      0x00\n        /* \"#utility.yul\":785:791   */\n      0x00\n        /* \"#utility.yul\":835:838   */\n      dup4\n        /* \"#utility.yul\":828:832   */\n      0x1f\n        /* \"#utility.yul\":820:826   */\n      dup5\n        /* \"#utility.yul\":816:833   */\n      add\n        /* \"#utility.yul\":812:839   */\n      slt\n        /* \"#utility.yul\":802:924   */\n      tag_50\n      jumpi\n        /* \"#utility.yul\":843:922   */\n      tag_51\n      tag_28\n      jump\t// in\n    tag_51:\n        /* \"#utility.yul\":802:924   */\n    tag_50:\n        /* \"#utility.yul\":956:962   */\n      dup3\n        /* \"#utility.yul\":943:963   */\n      calldataload\n        /* \"#utility.yul\":933:963   */\n      swap1\n      pop\n        /* \"#utility.yul\":986:1004   */\n      0xffffffffffffffff\n        /* \"#utility.yul\":978:984   */\n      dup2\n        /* \"#utility.yul\":975:1005   */\n      gt\n        /* \"#utility.yul\":972:1089   */\n      iszero\n      tag_52\n      jumpi\n        /* \"#utility.yul\":1008:1087   */\n      tag_53\n      tag_29\n      jump\t// in\n    tag_53:\n        /* \"#utility.yul\":972:1089   */\n    tag_52:\n        /* \"#utility.yul\":1122:1126   */\n      0x20\n        /* \"#utility.yul\":1114:1120   */\n      dup4\n        /* \"#utility.yul\":1110:1127   */\n      add\n        /* \"#utility.yul\":1098:1127   */\n      swap2\n      pop\n        /* \"#utility.yul\":1176:1179   */\n      dup4\n        /* \"#utility.yul\":1168:1172   */\n      0x01\n        /* \"#utility.yul\":1160:1166   */\n      dup3\n        /* \"#utility.yul\":1156:1173   */\n      mul\n        /* \"#utility.yul\":1146:1154   */\n      dup4\n        /* \"#utility.yul\":1142:1174   */\n      add\n        /* \"#utility.yul\":1139:1180   */\n      gt\n        /* \"#utility.yul\":1136:1264   */\n      iszero\n      tag_54\n      jumpi\n        /* \"#utility.yul\":1183:1262   */\n      tag_55\n      tag_30\n      jump\t// in\n    tag_55:\n        /* \"#utility.yul\":1136:1264   */\n    tag_54:\n        /* \"#utility.yul\":717:1270   */\n      swap3\n      pop\n      swap3\n      swap1\n      pop\n      jump\t// out\n        /* \"#utility.yul\":1276:1805   */\n    tag_8:\n        /* \"#utility.yul\":1347:1353   */\n      0x00\n        /* \"#utility.yul\":1355:1361   */\n      0x00\n        /* \"#utility.yul\":1404:1406   */\n      0x20\n        /* \"#utility.yul\":1392:1401   */\n      dup4\n        /* \"#utility.yul\":1383:1390   */\n      dup6\n        /* \"#utility.yul\":1379:1402   */\n      sub\n        /* \"#utility.yul\":1375:1407   */\n      slt\n        /* \"#utility.yul\":1372:1491   */\n      iszero\n      tag_57\n      jumpi\n        /* \"#utility.yul\":1410:1489   */\n      tag_58\n      tag_26\n      jump\t// in\n    tag_58:\n        /* \"#utility.yul\":1372:1491   */\n    tag_57:\n        /* \"#utility.yul\":1558:1559   */\n      0x00\n        /* \"#utility.yul\":1547:1556   */\n      dup4\n        /* \"#utility.yul\":1543:1560   */\n      add\n        /* \"#utility.yul\":1530:1561   */\n      calldataload\n        /* \"#utility.yul\":1588:1606   */\n      0xffffffffffffffff\n        /* \"#utility.yul\":1580:1586   */\n      dup2\n        /* \"#utility.yul\":1577:1607   */\n      gt\n        /* \"#utility.yul\":1574:1691   */\n      iszero\n      tag_59\n      jumpi\n        /* \"#utility.yul\":1610:1689   */\n      tag_60\n      tag_27\n      jump\t// in\n    tag_60:\n        /* \"#utility.yul\":1574:1691   */\n    tag_59:\n        /* \"#utility.yul\":1723:1788   */\n      tag_61\n        /* \"#utility.yul\":1780:1787   */\n      dup6\n        /* \"#utility.yul\":1771:1777   */\n      dup3\n        /* \"#utility.yul\":1760:1769   */\n      dup7\n        /* \"#utility.yul\":1756:1778   */\n      add\n        /* \"#utility.yul\":1723:1788   */\n      tag_31\n      jump\t// in\n    tag_61:\n        /* \"#utility.yul\":1705:1788   */\n      swap3\n      pop\n      swap3\n      pop\n        /* \"#utility.yul\":1501:1798   */\n      pop\n        /* \"#utility.yul\":1276:1805   */\n      swap3\n      pop\n      swap3\n      swap1\n      pop\n      jump\t// out\n        /* \"#utility.yul\":1811:1980   */\n    tag_32:\n        /* \"#utility.yul\":1895:1906   */\n      0x00\n        /* \"#utility.yul\":1929:1935   */\n      dup3\n        /* \"#utility.yul\":1924:1927   */\n      dup3\n        /* \"#utility.yul\":1917:1936   */\n      mstore\n        /* \"#utility.yul\":1969:1973   */\n      0x20\n        /* \"#utility.yul\":1964:1967   */\n      dup3\n        /* \"#utility.yul\":1960:1974   */\n      add\n        /* \"#utility.yul\":1945:1974   */\n      swap1\n      pop\n        /* \"#utility.yul\":1811:1980   */\n      swap3\n      swap2\n      pop\n      pop\n      jump\t// out\n        /* \"#utility.yul\":1986:2234   */\n    tag_33:\n        /* \"#utility.yul\":2126:2160   */\n      0x4f6e6c7920746865206f776e6572206f66207468697320636c69656e7420636f\n        /* \"#utility.yul\":2122:2123   */\n      0x00\n        /* \"#utility.yul\":2114:2120   */\n      dup3\n        /* \"#utility.yul\":2110:2124   */\n      add\n        /* \"#utility.yul\":2103:2161   */\n      mstore\n        /* \"#utility.yul\":2195:2226   */\n      0x6e74726163742063616e2063616c6c20746869732066756e6374696f6e000000\n        /* \"#utility.yul\":2190:2192   */\n      0x20\n        /* \"#utility.yul\":2182:2188   */\n      dup3\n        /* \"#utility.yul\":2178:2193   */\n      add\n        /* \"#utility.yul\":2171:2227   */\n      mstore\n        /* \"#utility.yul\":1986:2234   */\n      pop\n      jump\t// out\n        /* \"#utility.yul\":2240:2606   */\n    tag_34:\n        /* \"#utility.yul\":2382:2385   */\n      0x00\n        /* \"#utility.yul\":2403:2470   */\n      tag_65\n        /* \"#utility.yul\":2467:2469   */\n      0x3d\n        /* \"#utility.yul\":2462:2465   */\n      dup4\n        /* \"#utility.yul\":2403:2470   */\n      tag_32\n      jump\t// in\n    tag_65:\n        /* \"#utility.yul\":2396:2470   */\n      swap2\n      pop\n        /* \"#utility.yul\":2479:2572   */\n      tag_66\n        /* \"#utility.yul\":2568:2571   */\n      dup3\n        /* \"#utility.yul\":2479:2572   */\n      tag_33\n      jump\t// in\n    tag_66:\n        /* \"#utility.yul\":2597:2599   */\n      0x40\n        /* \"#utility.yul\":2592:2595   */\n      dup3\n        /* \"#utility.yul\":2588:2600   */\n      add\n        /* \"#utility.yul\":2581:2600   */\n      swap1\n      pop\n        /* \"#utility.yul\":2240:2606   */\n      swap2\n      swap1\n      pop\n      jump\t// out\n        /* \"#utility.yul\":2612:3031   */\n    tag_13:\n        /* \"#utility.yul\":2778:2782   */\n      0x00\n        /* \"#utility.yul\":2816:2818   */\n      0x20\n        /* \"#utility.yul\":2805:2814   */\n      dup3\n        /* \"#utility.yul\":2801:2819   */\n      add\n        /* \"#utility.yul\":2793:2819   */\n      swap1\n      pop\n        /* \"#utility.yul\":2865:2874   */\n      dup2\n        /* \"#utility.yul\":2859:2863   */\n      dup2\n        /* \"#utility.yul\":2855:2875   */\n      sub\n        /* \"#utility.yul\":2851:2852   */\n      0x00\n        /* \"#utility.yul\":2840:2849   */\n      dup4\n        /* \"#utility.yul\":2836:2853   */\n      add\n        /* \"#utility.yul\":2829:2876   */\n      mstore\n        /* \"#utility.yul\":2893:3024   */\n      tag_68\n        /* \"#utility.yul\":3019:3023   */\n      dup2\n        /* \"#utility.yul\":2893:3024   */\n      tag_34\n      jump\t// in\n    tag_68:\n        /* \"#utility.yul\":2885:3024   */\n      swap1\n      pop\n        /* \"#utility.yul\":2612:3031   */\n      swap2\n      swap1\n      pop\n      jump\t// out\n        /* \"#utility.yul\":3037:3207   */\n    tag_35:\n        /* \"#utility.yul\":3177:3199   */\n      0x4d7573742073656e6420736f6d65204574686572000000000000000000000000\n        /* \"#utility.yul\":3173:3174   */\n      0x00\n        /* \"#utility.yul\":3165:3171   */\n      dup3\n        /* \"#utility.yul\":3161:3175   */\n      add\n        /* \"#utility.yul\":3154:3200   */\n      mstore\n        /* \"#utility.yul\":3037:3207   */\n      pop\n      jump\t// out\n        /* \"#utility.yul\":3213:3579   */\n    tag_36:\n        /* \"#utility.yul\":3355:3358   */\n      0x00\n        /* \"#utility.yul\":3376:3443   */\n      tag_71\n        /* \"#utility.yul\":3440:3442   */\n      0x14\n        /* \"#utility.yul\":3435:3438   */\n      dup4\n        /* \"#utility.yul\":3376:3443   */\n      tag_32\n      jump\t// in\n    tag_71:\n        /* \"#utility.yul\":3369:3443   */\n      swap2\n      pop\n        /* \"#utility.yul\":3452:3545   */\n      tag_72\n        /* \"#utility.yul\":3541:3544   */\n      dup3\n        /* \"#utility.yul\":3452:3545   */\n      tag_35\n      jump\t// in\n    tag_72:\n        /* \"#utility.yul\":3570:3572   */\n      0x20\n        /* \"#utility.yul\":3565:3568   */\n      dup3\n        /* \"#utility.yul\":3561:3573   */\n      add\n        /* \"#utility.yul\":3554:3573   */\n      swap1\n      pop\n        /* \"#utility.yul\":3213:3579   */\n      swap2\n      swap1\n      pop\n      jump\t// out\n        /* \"#utility.yul\":3585:4004   */\n    tag_17:\n        /* \"#utility.yul\":3751:3755   */\n      0x00\n        /* \"#utility.yul\":3789:3791   */\n      0x20\n        /* \"#utility.yul\":3778:3787   */\n      dup3\n        /* \"#utility.yul\":3774:3792   */\n      add\n        /* \"#utility.yul\":3766:3792   */\n      swap1\n      pop\n        /* \"#utility.yul\":3838:3847   */\n      dup2\n        /* \"#utility.yul\":3832:3836   */\n      dup2\n        /* \"#utility.yul\":3828:3848   */\n      sub\n        /* \"#utility.yul\":3824:3825   */\n      0x00\n        /* \"#utility.yul\":3813:3822   */\n      dup4\n        /* \"#utility.yul\":3809:3826   */\n      add\n        /* \"#utility.yul\":3802:3849   */\n      mstore\n        /* \"#utility.yul\":3866:3997   */\n      tag_74\n        /* \"#utility.yul\":3992:3996   */\n      dup2\n        /* \"#utility.yul\":3866:3997   */\n      tag_36\n      jump\t// in\n    tag_74:\n        /* \"#utility.yul\":3858:3997   */\n      swap1\n      pop\n        /* \"#utility.yul\":3585:4004   */\n      swap2\n      swap1\n      pop\n      jump\t// out\n        /* \"#utility.yul\":4010:4158   */\n    tag_37:\n        /* \"#utility.yul\":4108:4114   */\n      dup3\n        /* \"#utility.yul\":4103:4106   */\n      dup2\n        /* \"#utility.yul\":4098:4101   */\n      dup4\n        /* \"#utility.yul\":4085:4115   */\n      calldatacopy\n        /* \"#utility.yul\":4149:4150   */\n      0x00\n        /* \"#utility.yul\":4140:4146   */\n      dup4\n        /* \"#utility.yul\":4135:4138   */\n      dup4\n        /* \"#utility.yul\":4131:4147   */\n      add\n        /* \"#utility.yul\":4124:4151   */\n      mstore\n        /* \"#utility.yul\":4010:4158   */\n      pop\n      pop\n      pop\n      jump\t// out\n        /* \"#utility.yul\":4164:4266   */\n    tag_38:\n        /* \"#utility.yul\":4205:4211   */\n      0x00\n        /* \"#utility.yul\":4256:4258   */\n      0x1f\n        /* \"#utility.yul\":4252:4259   */\n      not\n        /* \"#utility.yul\":4247:4249   */\n      0x1f\n        /* \"#utility.yul\":4240:4245   */\n      dup4\n        /* \"#utility.yul\":4236:4250   */\n      add\n        /* \"#utility.yul\":4232:4260   */\n      and\n        /* \"#utility.yul\":4222:4260   */\n      swap1\n      pop\n        /* \"#utility.yul\":4164:4266   */\n      swap2\n      swap1\n      pop\n      jump\t// out\n        /* \"#utility.yul\":4296:4613   */\n    tag_39:\n        /* \"#utility.yul\":4394:4397   */\n      0x00\n        /* \"#utility.yul\":4415:4486   */\n      tag_78\n        /* \"#utility.yul\":4479:4485   */\n      dup4\n        /* \"#utility.yul\":4474:4477   */\n      dup6\n        /* \"#utility.yul\":4415:4486   */\n      tag_32\n      jump\t// in\n    tag_78:\n        /* \"#utility.yul\":4408:4486   */\n      swap4\n      pop\n        /* \"#utility.yul\":4496:4552   */\n      tag_79\n        /* \"#utility.yul\":4545:4551   */\n      dup4\n        /* \"#utility.yul\":4540:4543   */\n      dup6\n        /* \"#utility.yul\":4533:4538   */\n      dup5\n        /* \"#utility.yul\":4496:4552   */\n      tag_37\n      jump\t// in\n    tag_79:\n        /* \"#utility.yul\":4577:4606   */\n      tag_80\n        /* \"#utility.yul\":4599:4605   */\n      dup4\n        /* \"#utility.yul\":4577:4606   */\n      tag_38\n      jump\t// in\n    tag_80:\n        /* \"#utility.yul\":4572:4575   */\n      dup5\n        /* \"#utility.yul\":4568:4607   */\n      add\n        /* \"#utility.yul\":4561:4607   */\n      swap1\n      pop\n        /* \"#utility.yul\":4296:4613   */\n      swap4\n      swap3\n      pop\n      pop\n      pop\n      jump\t// out\n        /* \"#utility.yul\":4619:4952   */\n    tag_19:\n        /* \"#utility.yul\":4742:4746   */\n      0x00\n        /* \"#utility.yul\":4780:4782   */\n      0x20\n        /* \"#utility.yul\":4769:4778   */\n      dup3\n        /* \"#utility.yul\":4765:4783   */\n      add\n        /* \"#utility.yul\":4757:4783   */\n      swap1\n      pop\n        /* \"#utility.yul\":4829:4838   */\n      dup2\n        /* \"#utility.yul\":4823:4827   */\n      dup2\n        /* \"#utility.yul\":4819:4839   */\n      sub\n        /* \"#utility.yul\":4815:4816   */\n      0x00\n        /* \"#utility.yul\":4804:4813   */\n      dup4\n        /* \"#utility.yul\":4800:4817   */\n      add\n        /* \"#utility.yul\":4793:4840   */\n      mstore\n        /* \"#utility.yul\":4857:4945   */\n      tag_82\n        /* \"#utility.yul\":4940:4944   */\n      dup2\n        /* \"#utility.yul\":4931:4937   */\n      dup5\n        /* \"#utility.yul\":4923:4929   */\n      dup7\n        /* \"#utility.yul\":4857:4945   */\n      tag_39\n      jump\t// in\n    tag_82:\n        /* \"#utility.yul\":4849:4945   */\n      swap1\n      pop\n        /* \"#utility.yul\":4619:4952   */\n      swap4\n      swap3\n      pop\n      pop\n      pop\n      jump\t// out\n        /* \"#utility.yul\":4958:5035   */\n    tag_40:\n        /* \"#utility.yul\":4995:5002   */\n      0x00\n        /* \"#utility.yul\":5024:5029   */\n      dup2\n        /* \"#utility.yul\":5013:5029   */\n      swap1\n      pop\n        /* \"#utility.yul\":4958:5035   */\n      swap2\n      swap1\n      pop\n      jump\t// out\n        /* \"#utility.yul\":5041:5159   */\n    tag_41:\n        /* \"#utility.yul\":5128:5152   */\n      tag_85\n        /* \"#utility.yul\":5146:5151   */\n      dup2\n        /* \"#utility.yul\":5128:5152   */\n      tag_40\n      jump\t// in\n    tag_85:\n        /* \"#utility.yul\":5123:5126   */\n      dup3\n        /* \"#utility.yul\":5116:5153   */\n      mstore\n        /* \"#utility.yul\":5041:5159   */\n      pop\n      pop\n      jump\t// out\n        /* \"#utility.yul\":5165:5608   */\n    tag_24:\n        /* \"#utility.yul\":5316:5320   */\n      0x00\n        /* \"#utility.yul\":5354:5356   */\n      0x40\n        /* \"#utility.yul\":5343:5352   */\n      dup3\n        /* \"#utility.yul\":5339:5357   */\n      add\n        /* \"#utility.yul\":5331:5357   */\n      swap1\n      pop\n        /* \"#utility.yul\":5367:5438   */\n      tag_87\n        /* \"#utility.yul\":5435:5436   */\n      0x00\n        /* \"#utility.yul\":5424:5433   */\n      dup4\n        /* \"#utility.yul\":5420:5437   */\n      add\n        /* \"#utility.yul\":5411:5417   */\n      dup7\n        /* \"#utility.yul\":5367:5438   */\n      tag_41\n      jump\t// in\n    tag_87:\n        /* \"#utility.yul\":5485:5494   */\n      dup2\n        /* \"#utility.yul\":5479:5483   */\n      dup2\n        /* \"#utility.yul\":5475:5495   */\n      sub\n        /* \"#utility.yul\":5470:5472   */\n      0x20\n        /* \"#utility.yul\":5459:5468   */\n      dup4\n        /* \"#utility.yul\":5455:5473   */\n      add\n        /* \"#utility.yul\":5448:5496   */\n      mstore\n        /* \"#utility.yul\":5513:5601   */\n      tag_88\n        /* \"#utility.yul\":5596:5600   */\n      dup2\n        /* \"#utility.yul\":5587:5593   */\n      dup5\n        /* \"#utility.yul\":5579:5585   */\n      dup7\n        /* \"#utility.yul\":5513:5601   */\n      tag_39\n      jump\t// in\n    tag_88:\n        /* \"#utility.yul\":5505:5601   */\n      swap1\n      pop\n        /* \"#utility.yul\":5165:5608   */\n      swap5\n      swap4\n      pop\n      pop\n      pop\n      pop\n      jump\t// out\n\n    auxdata: 0xa26469706673582212204a6af192e0f4d339762943237efb214fc649044caa7c936acf1863533db2532b64736f6c634300081e0033\n}\n",
				"bytecode": {
					"linkReferences": {},
					"object": "608060405234801561000f575f5ffd5b506040516106cf3803806106cf83398181016040528101906100319190610182565b5f73ffffffffffffffffffffffffffffffffffffffff168173ffffffffffffffffffffffffffffffffffffffff160361009f576040517f08c379a000000000000000000000000000000000000000000000000000000000815260040161009690610207565b60405180910390fd5b805f5f6101000a81548173ffffffffffffffffffffffffffffffffffffffff021916908373ffffffffffffffffffffffffffffffffffffffff1602179055503360015f6101000a81548173ffffffffffffffffffffffffffffffffffffffff021916908373ffffffffffffffffffffffffffffffffffffffff16021790555050610225565b5f5ffd5b5f73ffffffffffffffffffffffffffffffffffffffff82169050919050565b5f61015182610128565b9050919050565b61016181610147565b811461016b575f5ffd5b50565b5f8151905061017c81610158565b92915050565b5f6020828403121561019757610196610124565b5b5f6101a48482850161016e565b91505092915050565b5f82825260208201905092915050565b7f5661756c7420616464726573732063616e6e6f74206265207a65726f000000005f82015250565b5f6101f1601c836101ad565b91506101fc826101bd565b602082019050919050565b5f6020820190508181035f83015261021e816101e5565b9050919050565b61049d806102325f395ff3fe608060405260043610610021575f3560e01c8063a26e11861461002c57610028565b3661002857005b5f5ffd5b61004660048036038101906100419190610262565b610048565b005b60015f9054906101000a900473ffffffffffffffffffffffffffffffffffffffff1673ffffffffffffffffffffffffffffffffffffffff163373ffffffffffffffffffffffffffffffffffffffff16146100d7576040517f08c379a00000000000000000000000000000000000000000000000000000000081526004016100ce9061032d565b60405180910390fd5b5f3411610119576040517f08c379a000000000000000000000000000000000000000000000000000000000815260040161011090610395565b60405180910390fd5b5f5f9054906101000a900473ffffffffffffffffffffffffffffffffffffffff1673ffffffffffffffffffffffffffffffffffffffff16632e25211d3484846040518463ffffffff1660e01b81526004016101759291906103fd565b5f604051808303818588803b15801561018c575f5ffd5b505af115801561019e573d5f5f3e3d5ffd5b50505050503373ffffffffffffffffffffffffffffffffffffffff167fdc559e34789c6351866bb164dc3bd177bc43842ff9fe42d8f1cef434ec71b9653484846040516101ed93929190610437565b60405180910390a25050565b5f5ffd5b5f5ffd5b5f5ffd5b5f5ffd5b5f5ffd5b5f5f83601f84011261022257610221610201565b5b8235905067ffffffffffffffff81111561023f5761023e610205565b5b60208301915083600182028301111561025b5761025a610209565b5b9250929050565b5f5f60208385031215610278576102776101f9565b5b5f83013567ffffffffffffffff811115610295576102946101fd565b5b6102a18582860161020d565b92509250509250929050565b5f82825260208201905092915050565b7f4f6e6c7920746865206f776e6572206f66207468697320636c69656e7420636f5f8201527f6e74726163742063616e2063616c6c20746869732066756e6374696f6e000000602082015250565b5f610317603d836102ad565b9150610322826102bd565b604082019050919050565b5f6020820190508181035f8301526103448161030b565b9050919050565b7f4d7573742073656e6420736f6d652045746865720000000000000000000000005f82015250565b5f61037f6014836102ad565b915061038a8261034b565b602082019050919050565b5f6020820190508181035f8301526103ac81610373565b9050919050565b828183375f83830152505050565b5f601f19601f8301169050919050565b5f6103dc83856102ad565b93506103e98385846103b3565b6103f2836103c1565b840190509392505050565b5f6020820190508181035f8301526104168184866103d1565b90509392505050565b5f819050919050565b6104318161041f565b82525050565b5f60408201905061044a5f830186610428565b818103602083015261045d8184866103d1565b905094935050505056fea26469706673582212204a6af192e0f4d339762943237efb214fc649044caa7c936acf1863533db2532b64736f6c634300081e0033",
					"opcodes": "PUSH1 0x80 PUSH1 0x40 MSTORE CALLVALUE DUP1 ISZERO PUSH2 0xF JUMPI PUSH0 PUSH0 REVERT JUMPDEST POP PUSH1 0x40 MLOAD PUSH2 0x6CF CODESIZE SUB DUP1 PUSH2 0x6CF DUP4 CODECOPY DUP2 DUP2 ADD PUSH1 0x40 MSTORE DUP2 ADD SWAP1 PUSH2 0x31 SWAP2 SWAP1 PUSH2 0x182 JUMP JUMPDEST PUSH0 PUSH20 0xFFFFFFFFFFFFFFFFFFFFFFFFFFFFFFFFFFFFFFFF AND DUP2 PUSH20 0xFFFFFFFFFFFFFFFFFFFFFFFFFFFFFFFFFFFFFFFF AND SUB PUSH2 0x9F JUMPI PUSH1 0x40 MLOAD PUSH32 0x8C379A000000000000000000000000000000000000000000000000000000000 DUP2 MSTORE PUSH1 0x4 ADD PUSH2 0x96 SWAP1 PUSH2 0x207 JUMP JUMPDEST PUSH1 0x40 MLOAD DUP1 SWAP2 SUB SWAP1 REVERT JUMPDEST DUP1 PUSH0 PUSH0 PUSH2 0x100 EXP DUP2 SLOAD DUP2 PUSH20 0xFFFFFFFFFFFFFFFFFFFFFFFFFFFFFFFFFFFFFFFF MUL NOT AND SWAP1 DUP4 PUSH20 0xFFFFFFFFFFFFFFFFFFFFFFFFFFFFFFFFFFFFFFFF AND MUL OR SWAP1 SSTORE POP CALLER PUSH1 0x1 PUSH0 PUSH2 0x100 EXP DUP2 SLOAD DUP2 PUSH20 0xFFFFFFFFFFFFFFFFFFFFFFFFFFFFFFFFFFFFFFFF MUL NOT AND SWAP1 DUP4 PUSH20 0xFFFFFFFFFFFFFFFFFFFFFFFFFFFFFFFFFFFFFFFF AND MUL OR SWAP1 SSTORE POP POP PUSH2 0x225 JUMP JUMPDEST PUSH0 PUSH0 REVERT JUMPDEST PUSH0 PUSH20 0xFFFFFFFFFFFFFFFFFFFFFFFFFFFFFFFFFFFFFFFF DUP3 AND SWAP1 POP SWAP2 SWAP1 POP JUMP JUMPDEST PUSH0 PUSH2 0x151 DUP3 PUSH2 0x128 JUMP JUMPDEST SWAP1 POP SWAP2 SWAP1 POP JUMP JUMPDEST PUSH2 0x161 DUP2 PUSH2 0x147 JUMP JUMPDEST DUP2 EQ PUSH2 0x16B JUMPI PUSH0 PUSH0 REVERT JUMPDEST POP JUMP JUMPDEST PUSH0 DUP2 MLOAD SWAP1 POP PUSH2 0x17C DUP2 PUSH2 0x158 JUMP JUMPDEST SWAP3 SWAP2 POP POP JUMP JUMPDEST PUSH0 PUSH1 0x20 DUP3 DUP5 SUB SLT ISZERO PUSH2 0x197 JUMPI PUSH2 0x196 PUSH2 0x124 JUMP JUMPDEST JUMPDEST PUSH0 PUSH2 0x1A4 DUP5 DUP3 DUP6 ADD PUSH2 0x16E JUMP JUMPDEST SWAP2 POP POP SWAP3 SWAP2 POP POP JUMP JUMPDEST PUSH0 DUP3 DUP3 MSTORE PUSH1 0x20 DUP3 ADD SWAP1 POP SWAP3 SWAP2 POP POP JUMP JUMPDEST PUSH32 0x5661756C7420616464726573732063616E6E6F74206265207A65726F00000000 PUSH0 DUP3 ADD MSTORE POP JUMP JUMPDEST PUSH0 PUSH2 0x1F1 PUSH1 0x1C DUP4 PUSH2 0x1AD JUMP JUMPDEST SWAP2 POP PUSH2 0x1FC DUP3 PUSH2 0x1BD JUMP JUMPDEST PUSH1 0x20 DUP3 ADD SWAP1 POP SWAP2 SWAP1 POP JUMP JUMPDEST PUSH0 PUSH1 0x20 DUP3 ADD SWAP1 POP DUP2 DUP2 SUB PUSH0 DUP4 ADD MSTORE PUSH2 0x21E DUP2 PUSH2 0x1E5 JUMP JUMPDEST SWAP1 POP SWAP2 SWAP1 POP JUMP JUMPDEST PUSH2 0x49D DUP1 PUSH2 0x232 PUSH0 CODECOPY PUSH0 RETURN INVALID PUSH1 0x80 PUSH1 0x40 MSTORE PUSH1 0x4 CALLDATASIZE LT PUSH2 0x21 JUMPI PUSH0 CALLDATALOAD PUSH1 0xE0 SHR DUP1 PUSH4 0xA26E1186 EQ PUSH2 0x2C JUMPI PUSH2 0x28 JUMP JUMPDEST CALLDATASIZE PUSH2 0x28 JUMPI STOP JUMPDEST PUSH0 PUSH0 REVERT JUMPDEST PUSH2 0x46 PUSH1 0x4 DUP1 CALLDATASIZE SUB DUP2 ADD SWAP1 PUSH2 0x41 SWAP2 SWAP1 PUSH2 0x262 JUMP JUMPDEST PUSH2 0x48 JUMP JUMPDEST STOP JUMPDEST PUSH1 0x1 PUSH0 SWAP1 SLOAD SWAP1 PUSH2 0x100 EXP SWAP1 DIV PUSH20 0xFFFFFFFFFFFFFFFFFFFFFFFFFFFFFFFFFFFFFFFF AND PUSH20 0xFFFFFFFFFFFFFFFFFFFFFFFFFFFFFFFFFFFFFFFF AND CALLER PUSH20 0xFFFFFFFFFFFFFFFFFFFFFFFFFFFFFFFFFFFFFFFF AND EQ PUSH2 0xD7 JUMPI PUSH1 0x40 MLOAD PUSH32 0x8C379A000000000000000000000000000000000000000000000000000000000 DUP2 MSTORE PUSH1 0x4 ADD PUSH2 0xCE SWAP1 PUSH2 0x32D JUMP JUMPDEST PUSH1 0x40 MLOAD DUP1 SWAP2 SUB SWAP1 REVERT JUMPDEST PUSH0 CALLVALUE GT PUSH2 0x119 JUMPI PUSH1 0x40 MLOAD PUSH32 0x8C379A000000000000000000000000000000000000000000000000000000000 DUP2 MSTORE PUSH1 0x4 ADD PUSH2 0x110 SWAP1 PUSH2 0x395 JUMP JUMPDEST PUSH1 0x40 MLOAD DUP1 SWAP2 SUB SWAP1 REVERT JUMPDEST PUSH0 PUSH0 SWAP1 SLOAD SWAP1 PUSH2 0x100 EXP SWAP1 DIV PUSH20 0xFFFFFFFFFFFFFFFFFFFFFFFFFFFFFFFFFFFFFFFF AND PUSH20 0xFFFFFFFFFFFFFFFFFFFFFFFFFFFFFFFFFFFFFFFF AND PUSH4 0x2E25211D CALLVALUE DUP5 DUP5 PUSH1 0x40 MLOAD DUP5 PUSH4 0xFFFFFFFF AND PUSH1 0xE0 SHL DUP2 MSTORE PUSH1 0x4 ADD PUSH2 0x175 SWAP3 SWAP2 SWAP1 PUSH2 0x3FD JUMP JUMPDEST PUSH0 PUSH1 0x40 MLOAD DUP1 DUP4 SUB DUP2 DUP6 DUP9 DUP1 EXTCODESIZE ISZERO DUP1 ISZERO PUSH2 0x18C JUMPI PUSH0 PUSH0 REVERT JUMPDEST POP GAS CALL ISZERO DUP1 ISZERO PUSH2 0x19E JUMPI RETURNDATASIZE PUSH0 PUSH0 RETURNDATACOPY RETURNDATASIZE PUSH0 REVERT JUMPDEST POP POP POP POP POP CALLER PUSH20 0xFFFFFFFFFFFFFFFFFFFFFFFFFFFFFFFFFFFFFFFF AND PUSH32 0xDC559E34789C6351866BB164DC3BD177BC43842FF9FE42D8F1CEF434EC71B965 CALLVALUE DUP5 DUP5 PUSH1 0x40 MLOAD PUSH2 0x1ED SWAP4 SWAP3 SWAP2 SWAP1 PUSH2 0x437 JUMP JUMPDEST PUSH1 0x40 MLOAD DUP1 SWAP2 SUB SWAP1 LOG2 POP POP JUMP JUMPDEST PUSH0 PUSH0 REVERT JUMPDEST PUSH0 PUSH0 REVERT JUMPDEST PUSH0 PUSH0 REVERT JUMPDEST PUSH0 PUSH0 REVERT JUMPDEST PUSH0 PUSH0 REVERT JUMPDEST PUSH0 PUSH0 DUP4 PUSH1 0x1F DUP5 ADD SLT PUSH2 0x222 JUMPI PUSH2 0x221 PUSH2 0x201 JUMP JUMPDEST JUMPDEST DUP3 CALLDATALOAD SWAP1 POP PUSH8 0xFFFFFFFFFFFFFFFF DUP2 GT ISZERO PUSH2 0x23F JUMPI PUSH2 0x23E PUSH2 0x205 JUMP JUMPDEST JUMPDEST PUSH1 0x20 DUP4 ADD SWAP2 POP DUP4 PUSH1 0x1 DUP3 MUL DUP4 ADD GT ISZERO PUSH2 0x25B JUMPI PUSH2 0x25A PUSH2 0x209 JUMP JUMPDEST JUMPDEST SWAP3 POP SWAP3 SWAP1 POP JUMP JUMPDEST PUSH0 PUSH0 PUSH1 0x20 DUP4 DUP6 SUB SLT ISZERO PUSH2 0x278 JUMPI PUSH2 0x277 PUSH2 0x1F9 JUMP JUMPDEST JUMPDEST PUSH0 DUP4 ADD CALLDATALOAD PUSH8 0xFFFFFFFFFFFFFFFF DUP2 GT ISZERO PUSH2 0x295 JUMPI PUSH2 0x294 PUSH2 0x1FD JUMP JUMPDEST JUMPDEST PUSH2 0x2A1 DUP6 DUP3 DUP7 ADD PUSH2 0x20D JUMP JUMPDEST SWAP3 POP SWAP3 POP POP SWAP3 POP SWAP3 SWAP1 POP JUMP JUMPDEST PUSH0 DUP3 DUP3 MSTORE PUSH1 0x20 DUP3 ADD SWAP1 POP SWAP3 SWAP2 POP POP JUMP JUMPDEST PUSH32 0x4F6E6C7920746865206F776E6572206F66207468697320636C69656E7420636F PUSH0 DUP3 ADD MSTORE PUSH32 0x6E74726163742063616E2063616C6C20746869732066756E6374696F6E000000 PUSH1 0x20 DUP3 ADD MSTORE POP JUMP JUMPDEST PUSH0 PUSH2 0x317 PUSH1 0x3D DUP4 PUSH2 0x2AD JUMP JUMPDEST SWAP2 POP PUSH2 0x322 DUP3 PUSH2 0x2BD JUMP JUMPDEST PUSH1 0x40 DUP3 ADD SWAP1 POP SWAP2 SWAP1 POP JUMP JUMPDEST PUSH0 PUSH1 0x20 DUP3 ADD SWAP1 POP DUP2 DUP2 SUB PUSH0 DUP4 ADD MSTORE PUSH2 0x344 DUP2 PUSH2 0x30B JUMP JUMPDEST SWAP1 POP SWAP2 SWAP1 POP JUMP JUMPDEST PUSH32 0x4D7573742073656E6420736F6D65204574686572000000000000000000000000 PUSH0 DUP3 ADD MSTORE POP JUMP JUMPDEST PUSH0 PUSH2 0x37F PUSH1 0x14 DUP4 PUSH2 0x2AD JUMP JUMPDEST SWAP2 POP PUSH2 0x38A DUP3 PUSH2 0x34B JUMP JUMPDEST PUSH1 0x20 DUP3 ADD SWAP1 POP SWAP2 SWAP1 POP JUMP JUMPDEST PUSH0 PUSH1 0x20 DUP3 ADD SWAP1 POP DUP2 DUP2 SUB PUSH0 DUP4 ADD MSTORE PUSH2 0x3AC DUP2 PUSH2 0x373 JUMP JUMPDEST SWAP1 POP SWAP2 SWAP1 POP JUMP JUMPDEST DUP3 DUP2 DUP4 CALLDATACOPY PUSH0 DUP4 DUP4 ADD MSTORE POP POP POP JUMP JUMPDEST PUSH0 PUSH1 0x1F NOT PUSH1 0x1F DUP4 ADD AND SWAP1 POP SWAP2 SWAP1 POP JUMP JUMPDEST PUSH0 PUSH2 0x3DC DUP4 DUP6 PUSH2 0x2AD JUMP JUMPDEST SWAP4 POP PUSH2 0x3E9 DUP4 DUP6 DUP5 PUSH2 0x3B3 JUMP JUMPDEST PUSH2 0x3F2 DUP4 PUSH2 0x3C1 JUMP JUMPDEST DUP5 ADD SWAP1 POP SWAP4 SWAP3 POP POP POP JUMP JUMPDEST PUSH0 PUSH1 0x20 DUP3 ADD SWAP1 POP DUP2 DUP2 SUB PUSH0 DUP4 ADD MSTORE PUSH2 0x416 DUP2 DUP5 DUP7 PUSH2 0x3D1 JUMP JUMPDEST SWAP1 POP SWAP4 SWAP3 POP POP POP JUMP JUMPDEST PUSH0 DUP2 SWAP1 POP SWAP2 SWAP1 POP JUMP JUMPDEST PUSH2 0x431 DUP2 PUSH2 0x41F JUMP JUMPDEST DUP3 MSTORE POP POP JUMP JUMPDEST PUSH0 PUSH1 0x40 DUP3 ADD SWAP1 POP PUSH2 0x44A PUSH0 DUP4 ADD DUP7 PUSH2 0x428 JUMP JUMPDEST DUP2 DUP2 SUB PUSH1 0x20 DUP4 ADD MSTORE PUSH2 0x45D DUP2 DUP5 DUP7 PUSH2 0x3D1 JUMP JUMPDEST SWAP1 POP SWAP5 SWAP4 POP POP POP POP JUMP INVALID LOG2 PUSH5 0x6970667358 0x22 SLT KECCAK256 BLOBBASEFEE PUSH11 0xF192E0F4D339762943237E EXTSTATICCALL 0x21 0x4F 0xC6 BLOBHASH DIV 0x4C 0xAA PUSH29 0x936ACF1863533DB2532B64736F6C634300081E00330000000000000000 "
				},
				"gasEstimates": {
					"creation": {
						"codeDepositCost": "236200",
						"executionCost": "infinite",
						"totalCost": "infinite"
					},
					"external": {
						"deposit(string)": "infinite"
					}
				},
				"methodIdentifiers": {
					"deposit(string)": "a26e1186"
				}
			},
			"storageLayout": {
				"storage": [
					{
						"astId": 247,
						"contract": "contracts/Cooperative.sol:Cooperative",
						"label": "_vaultAddress",
						"offset": 0,
						"slot": "0",
						"type": "t_address"
					},
					{
						"astId": 249,
						"contract": "contracts/Cooperative.sol:Cooperative",
						"label": "_owner",
						"offset": 0,
						"slot": "1",
						"type": "t_address"
					}
				],
				"types": {
					"t_address": {
						"encoding": "inplace",
						"label": "address",
						"numberOfBytes": "20"
					}
				}
			},
			"userdoc": {
				"kind": "user",
				"methods": {},
				"version": 1
			}
		}
	}
}