{
	"contractGen.sol": {
		"PrestacaoServicoSeguro": {
			"abi": [
				{
					"inputs": [
						{
							"internalType": "address",
							"name": "_contratante",
							"type": "address"
						},
						{
							"internalType": "address",
							"name": "_contratado",
							"type": "address"
						},
						{
							"internalType": "address",
							"name": "_intermediador",
							"type": "address"
						},
						{
							"internalType": "address",
							"name": "_advogado",
							"type": "address"
						},
						{
							"internalType": "string",
							"name": "_descricao",
							"type": "string"
						},
						{
							"internalType": "uint256",
							"name": "_valor",
							"type": "uint256"
						},
						{
							"internalType": "string",
							"name": "_ipfsLinkTermos",
							"type": "string"
						}
					],
					"stateMutability": "nonpayable",
					"type": "constructor"
				},
				{
					"anonymous": false,
					"inputs": [
						{
							"indexed": false,
							"internalType": "address",
							"name": "parte",
							"type": "address"
						}
					],
					"name": "ContratoAceito",
					"type": "event"
				},
				{
					"anonymous": false,
					"inputs": [
						{
							"indexed": false,
							"internalType": "address",
							"name": "parte",
							"type": "address"
						}
					],
					"name": "ContratoCancelado",
					"type": "event"
				},
				{
					"anonymous": false,
					"inputs": [
						{
							"indexed": false,
							"internalType": "address",
							"name": "pagador",
							"type": "address"
						},
						{
							"indexed": false,
							"internalType": "uint256",
							"name": "valor",
							"type": "uint256"
						}
					],
					"name": "PagamentoRealizado",
					"type": "event"
				},
				{
					"anonymous": false,
					"inputs": [
						{
							"indexed": false,
							"internalType": "address",
							"name": "advogado",
							"type": "address"
						}
					],
					"name": "ReconhecimentoJuridico",
					"type": "event"
				},
				{
					"anonymous": false,
					"inputs": [],
					"name": "ServicoConcluido",
					"type": "event"
				},
				{
					"anonymous": false,
					"inputs": [],
					"name": "ServicoIniciado",
					"type": "event"
				},
				{
					"inputs": [],
					"name": "aceitarContrato",
					"outputs": [],
					"stateMutability": "nonpayable",
					"type": "function"
				},
				{
					"inputs": [],
					"name": "cancelarContrato",
					"outputs": [],
					"stateMutability": "nonpayable",
					"type": "function"
				},
				{
					"inputs": [],
					"name": "concluirServico",
					"outputs": [],
					"stateMutability": "nonpayable",
					"type": "function"
				},
				{
					"inputs": [],
					"name": "getLinkTermos",
					"outputs": [
						{
							"internalType": "string",
							"name": "",
							"type": "string"
						}
					],
					"stateMutability": "view",
					"type": "function"
				},
				{
					"inputs": [],
					"name": "getStatus",
					"outputs": [
						{
							"internalType": "string",
							"name": "",
							"type": "string"
						}
					],
					"stateMutability": "view",
					"type": "function"
				},
				{
					"inputs": [],
					"name": "iniciarServico",
					"outputs": [],
					"stateMutability": "nonpayable",
					"type": "function"
				},
				{
					"inputs": [
						{
							"internalType": "uint256",
							"name": "",
							"type": "uint256"
						}
					],
					"name": "listaPartes",
					"outputs": [
						{
							"internalType": "address",
							"name": "",
							"type": "address"
						}
					],
					"stateMutability": "view",
					"type": "function"
				},
				{
					"inputs": [],
					"name": "pagarServico",
					"outputs": [],
					"stateMutability": "payable",
					"type": "function"
				},
				{
					"inputs": [
						{
							"internalType": "address",
							"name": "",
							"type": "address"
						}
					],
					"name": "partes",
					"outputs": [
						{
							"internalType": "address",
							"name": "carteira",
							"type": "address"
						},
						{
							"internalType": "string",
							"name": "nome",
							"type": "string"
						},
						{
							"internalType": "bool",
							"name": "aceitou",
							"type": "bool"
						}
					],
					"stateMutability": "view",
					"type": "function"
				},
				{
					"inputs": [],
					"name": "reconhecerJuridicamente",
					"outputs": [],
					"stateMutability": "nonpayable",
					"type": "function"
				},
				{
					"inputs": [],
					"name": "servico",
					"outputs": [
						{
							"internalType": "string",
							"name": "descricao",
							"type": "string"
						},
						{
							"internalType": "uint256",
							"name": "valor",
							"type": "uint256"
						},
						{
							"internalType": "enum PrestacaoServicoSeguro.Status",
							"name": "status",
							"type": "uint8"
						},
						{
							"internalType": "address",
							"name": "contratado",
							"type": "address"
						},
						{
							"internalType": "address",
							"name": "contratante",
							"type": "address"
						},
						{
							"internalType": "address",
							"name": "intermediador",
							"type": "address"
						},
						{
							"internalType": "address",
							"name": "advogado",
							"type": "address"
						},
						{
							"internalType": "bool",
							"name": "reconhecidoJuridicamente",
							"type": "bool"
						},
						{
							"internalType": "string",
							"name": "ipfsLinkTermos",
							"type": "string"
						}
					],
					"stateMutability": "view",
					"type": "function"
				}
			],
			"devdoc": {
				"kind": "dev",
				"methods": {},
				"version": 1
			},
			"evm": {
				"assembly": "    /* \"contractGen.sol\":228:6926  contract PrestacaoServicoSeguro is ReentrancyGuard {... */\n  mstore(0x40, 0x80)\n    /* \"contractGen.sol\":2067:3374  constructor(... */\n  callvalue\n  dup1\n  iszero\n  tag_1\n  jumpi\n  revert(0x00, 0x00)\ntag_1:\n  pop\n  mload(0x40)\n  sub(codesize, bytecodeSize)\n  dup1\n  bytecodeSize\n  dup4\n  codecopy\n  dup2\n  dup2\n  add\n  0x40\n  mstore\n  dup2\n  add\n  swap1\n  tag_2\n  swap2\n  swap1\n  tag_3\n  jump\t// in\ntag_2:\n    /* \"@openzeppelin/contracts/security/ReentrancyGuard.sol\":1716:1717  1 */\n  0x01\n    /* \"@openzeppelin/contracts/security/ReentrancyGuard.sol\":1821:1828  _status */\n  0x00\n    /* \"@openzeppelin/contracts/security/ReentrancyGuard.sol\":1821:1843  _status = _NOT_ENTERED */\n  dup2\n  swap1\n  sstore\n  pop\n    /* \"contractGen.sol\":2351:2352  0 */\n  0x00\n    /* \"contractGen.sol\":2327:2353  _contratante != address(0) */\n  0xffffffffffffffffffffffffffffffffffffffff\n  and\n    /* \"contractGen.sol\":2327:2339  _contratante */\n  dup8\n    /* \"contractGen.sol\":2327:2353  _contratante != address(0) */\n  0xffffffffffffffffffffffffffffffffffffffff\n  and\n  eq\n  iszero\n    /* \"contractGen.sol\":2327:2382  _contratante != address(0) && _contratado != address(0) */\n  dup1\n  iszero\n  tag_8\n  jumpi\n  pop\n    /* \"contractGen.sol\":2380:2381  0 */\n  0x00\n    /* \"contractGen.sol\":2357:2382  _contratado != address(0) */\n  0xffffffffffffffffffffffffffffffffffffffff\n  and\n    /* \"contractGen.sol\":2357:2368  _contratado */\n  dup7\n    /* \"contractGen.sol\":2357:2382  _contratado != address(0) */\n  0xffffffffffffffffffffffffffffffffffffffff\n  and\n  eq\n  iszero\n    /* \"contractGen.sol\":2327:2382  _contratante != address(0) && _contratado != address(0) */\ntag_8:\n    /* \"contractGen.sol\":2319:2406  require(_contratante != address(0) && _contratado != address(0), \"Enderecos invalidos\") */\n  tag_9\n  jumpi\n  mload(0x40)\n  0x08c379a000000000000000000000000000000000000000000000000000000000\n  dup2\n  mstore\n  0x04\n  add\n  tag_10\n  swap1\n  tag_11\n  jump\t// in\ntag_10:\n  mload(0x40)\n  dup1\n  swap2\n  sub\n  swap1\n  revert\ntag_9:\n    /* \"contractGen.sol\":2446:2447  0 */\n  0x00\n    /* \"contractGen.sol\":2425:2448  _advogado != address(0) */\n  0xffffffffffffffffffffffffffffffffffffffff\n  and\n    /* \"contractGen.sol\":2425:2434  _advogado */\n  dup5\n    /* \"contractGen.sol\":2425:2448  _advogado != address(0) */\n  0xffffffffffffffffffffffffffffffffffffffff\n  and\n  sub\n    /* \"contractGen.sol\":2417:2473  require(_advogado != address(0), \"Advogado obrigatorio\") */\n  tag_12\n  jumpi\n  mload(0x40)\n  0x08c379a000000000000000000000000000000000000000000000000000000000\n  dup2\n  mstore\n  0x04\n  add\n  tag_13\n  swap1\n  tag_14\n  jump\t// in\ntag_13:\n  mload(0x40)\n  dup1\n  swap2\n  sub\n  swap1\n  revert\ntag_12:\n    /* \"contractGen.sol\":2496:2864  Servico({... */\n  mload(0x40)\n  dup1\n  0x0120\n  add\n  0x40\n  mstore\n  dup1\n    /* \"contractGen.sol\":2530:2540  _descricao */\n  dup5\n    /* \"contractGen.sol\":2496:2864  Servico({... */\n  dup2\n  mstore\n  0x20\n  add\n    /* \"contractGen.sol\":2562:2568  _valor */\n  dup4\n    /* \"contractGen.sol\":2496:2864  Servico({... */\n  dup2\n  mstore\n  0x20\n  add\n    /* \"contractGen.sol\":2591:2604  Status.Criado */\n  0x00\n    /* \"contractGen.sol\":2496:2864  Servico({... */\n  0x04\n  dup2\n  gt\n  iszero\n  tag_15\n  jumpi\n  tag_16\n  tag_17\n  jump\t// in\ntag_16:\ntag_15:\n  dup2\n  mstore\n  0x20\n  add\n    /* \"contractGen.sol\":2631:2642  _contratado */\n  dup8\n    /* \"contractGen.sol\":2496:2864  Servico({... */\n  0xffffffffffffffffffffffffffffffffffffffff\n  and\n  dup2\n  mstore\n  0x20\n  add\n    /* \"contractGen.sol\":2670:2682  _contratante */\n  dup9\n    /* \"contractGen.sol\":2496:2864  Servico({... */\n  0xffffffffffffffffffffffffffffffffffffffff\n  and\n  dup2\n  mstore\n  0x20\n  add\n    /* \"contractGen.sol\":2712:2726  _intermediador */\n  dup7\n    /* \"contractGen.sol\":2496:2864  Servico({... */\n  0xffffffffffffffffffffffffffffffffffffffff\n  and\n  dup2\n  mstore\n  0x20\n  add\n    /* \"contractGen.sol\":2751:2760  _advogado */\n  dup6\n    /* \"contractGen.sol\":2496:2864  Servico({... */\n  0xffffffffffffffffffffffffffffffffffffffff\n  and\n  dup2\n  mstore\n  0x20\n  add\n    /* \"contractGen.sol\":2801:2806  false */\n  0x00\n    /* \"contractGen.sol\":2496:2864  Servico({... */\n  iszero\n  iszero\n  dup2\n  mstore\n  0x20\n  add\n    /* \"contractGen.sol\":2837:2852  _ipfsLinkTermos */\n  dup3\n    /* \"contractGen.sol\":2496:2864  Servico({... */\n  dup2\n  mstore\n  pop\n    /* \"contractGen.sol\":2486:2493  servico */\n  0x01\n    /* \"contractGen.sol\":2486:2864  servico = Servico({... */\n  0x00\n  dup3\n  add\n  mload\n  dup2\n  0x00\n  add\n  swap1\n  dup2\n  tag_18\n  swap2\n  swap1\n  tag_19\n  jump\t// in\ntag_18:\n  pop\n  0x20\n  dup3\n  add\n  mload\n  dup2\n  0x01\n  add\n  sstore\n  0x40\n  dup3\n  add\n  mload\n  dup2\n  0x02\n  add\n  exp(0x0100, 0x00)\n  dup2\n  sload\n  dup2\n  0xff\n  mul\n  not\n  and\n  swap1\n  dup4\n  0x04\n  dup2\n  gt\n  iszero\n  tag_20\n  jumpi\n  tag_21\n  tag_17\n  jump\t// in\ntag_21:\ntag_20:\n  mul\n  or\n  swap1\n  sstore\n  pop\n  0x60\n  dup3\n  add\n  mload\n  dup2\n  0x02\n  add\n  exp(0x0100, 0x01)\n  dup2\n  sload\n  dup2\n  0xffffffffffffffffffffffffffffffffffffffff\n  mul\n  not\n  and\n  swap1\n  dup4\n  0xffffffffffffffffffffffffffffffffffffffff\n  and\n  mul\n  or\n  swap1\n  sstore\n  pop\n  0x80\n  dup3\n  add\n  mload\n  dup2\n  0x03\n  add\n  exp(0x0100, 0x00)\n  dup2\n  sload\n  dup2\n  0xffffffffffffffffffffffffffffffffffffffff\n  mul\n  not\n  and\n  swap1\n  dup4\n  0xffffffffffffffffffffffffffffffffffffffff\n  and\n  mul\n  or\n  swap1\n  sstore\n  pop\n  0xa0\n  dup3\n  add\n  mload\n  dup2\n  0x04\n  add\n  exp(0x0100, 0x00)\n  dup2\n  sload\n  dup2\n  0xffffffffffffffffffffffffffffffffffffffff\n  mul\n  not\n  and\n  swap1\n  dup4\n  0xffffffffffffffffffffffffffffffffffffffff\n  and\n  mul\n  or\n  swap1\n  sstore\n  pop\n  0xc0\n  dup3\n  add\n  mload\n  dup2\n  0x05\n  add\n  exp(0x0100, 0x00)\n  dup2\n  sload\n  dup2\n  0xffffffffffffffffffffffffffffffffffffffff\n  mul\n  not\n  and\n  swap1\n  dup4\n  0xffffffffffffffffffffffffffffffffffffffff\n  and\n  mul\n  or\n  swap1\n  sstore\n  pop\n  0xe0\n  dup3\n  add\n  mload\n  dup2\n  0x05\n  add\n  exp(0x0100, 0x14)\n  dup2\n  sload\n  dup2\n  0xff\n  mul\n  not\n  and\n  swap1\n  dup4\n  iszero\n  iszero\n  mul\n  or\n  swap1\n  sstore\n  pop\n  0x0100\n  dup3\n  add\n  mload\n  dup2\n  0x06\n  add\n  swap1\n  dup2\n  tag_22\n  swap2\n  swap1\n  tag_19\n  jump\t// in\ntag_22:\n  pop\n  swap1\n  pop\n  pop\n    /* \"contractGen.sol\":2942:2983  Parte(_contratante, \"Contratante\", false) */\n  mload(0x40)\n  dup1\n  0x60\n  add\n  0x40\n  mstore\n  dup1\n    /* \"contractGen.sol\":2948:2960  _contratante */\n  dup9\n    /* \"contractGen.sol\":2942:2983  Parte(_contratante, \"Contratante\", false) */\n  0xffffffffffffffffffffffffffffffffffffffff\n  and\n  dup2\n  mstore\n  0x20\n  add\n  mload(0x40)\n  dup1\n  0x40\n  add\n  0x40\n  mstore\n  dup1\n  0x0b\n  dup2\n  mstore\n  0x20\n  add\n  0x436f6e74726174616e7465000000000000000000000000000000000000000000\n  dup2\n  mstore\n  pop\n  dup2\n  mstore\n  0x20\n  add\n    /* \"contractGen.sol\":2977:2982  false */\n  0x00\n    /* \"contractGen.sol\":2942:2983  Parte(_contratante, \"Contratante\", false) */\n  iszero\n  iszero\n  dup2\n  mstore\n  pop\n    /* \"contractGen.sol\":2919:2925  partes */\n  0x08\n    /* \"contractGen.sol\":2919:2939  partes[_contratante] */\n  0x00\n    /* \"contractGen.sol\":2926:2938  _contratante */\n  dup10\n    /* \"contractGen.sol\":2919:2939  partes[_contratante] */\n  0xffffffffffffffffffffffffffffffffffffffff\n  and\n  0xffffffffffffffffffffffffffffffffffffffff\n  and\n  dup2\n  mstore\n  0x20\n  add\n  swap1\n  dup2\n  mstore\n  0x20\n  add\n  0x00\n  keccak256\n    /* \"contractGen.sol\":2919:2983  partes[_contratante] = Parte(_contratante, \"Contratante\", false) */\n  0x00\n  dup3\n  add\n  mload\n  dup2\n  0x00\n  add\n  exp(0x0100, 0x00)\n  dup2\n  sload\n  dup2\n  0xffffffffffffffffffffffffffffffffffffffff\n  mul\n  not\n  and\n  swap1\n  dup4\n  0xffffffffffffffffffffffffffffffffffffffff\n  and\n  mul\n  or\n  swap1\n  sstore\n  pop\n  0x20\n  dup3\n  add\n  mload\n  dup2\n  0x01\n  add\n  swap1\n  dup2\n  tag_23\n  swap2\n  swap1\n  tag_19\n  jump\t// in\ntag_23:\n  pop\n  0x40\n  dup3\n  add\n  mload\n  dup2\n  0x02\n  add\n  exp(0x0100, 0x00)\n  dup2\n  sload\n  dup2\n  0xff\n  mul\n  not\n  and\n  swap1\n  dup4\n  iszero\n  iszero\n  mul\n  or\n  swap1\n  sstore\n  pop\n  swap1\n  pop\n  pop\n    /* \"contractGen.sol\":3016:3055  Parte(_contratado, \"Contratado\", false) */\n  mload(0x40)\n  dup1\n  0x60\n  add\n  0x40\n  mstore\n  dup1\n    /* \"contractGen.sol\":3022:3033  _contratado */\n  dup8\n    /* \"contractGen.sol\":3016:3055  Parte(_contratado, \"Contratado\", false) */\n  0xffffffffffffffffffffffffffffffffffffffff\n  and\n  dup2\n  mstore\n  0x20\n  add\n  mload(0x40)\n  dup1\n  0x40\n  add\n  0x40\n  mstore\n  dup1\n  0x0a\n  dup2\n  mstore\n  0x20\n  add\n  0x436f6e7472617461646f00000000000000000000000000000000000000000000\n  dup2\n  mstore\n  pop\n  dup2\n  mstore\n  0x20\n  add\n    /* \"contractGen.sol\":3049:3054  false */\n  0x00\n    /* \"contractGen.sol\":3016:3055  Parte(_contratado, \"Contratado\", false) */\n  iszero\n  iszero\n  dup2\n  mstore\n  pop\n    /* \"contractGen.sol\":2994:3000  partes */\n  0x08\n    /* \"contractGen.sol\":2994:3013  partes[_contratado] */\n  0x00\n    /* \"contractGen.sol\":3001:3012  _contratado */\n  dup9\n    /* \"contractGen.sol\":2994:3013  partes[_contratado] */\n  0xffffffffffffffffffffffffffffffffffffffff\n  and\n  0xffffffffffffffffffffffffffffffffffffffff\n  and\n  dup2\n  mstore\n  0x20\n  add\n  swap1\n  dup2\n  mstore\n  0x20\n  add\n  0x00\n  keccak256\n    /* \"contractGen.sol\":2994:3055  partes[_contratado] = Parte(_contratado, \"Contratado\", false) */\n  0x00\n  dup3\n  add\n  mload\n  dup2\n  0x00\n  add\n  exp(0x0100, 0x00)\n  dup2\n  sload\n  dup2\n  0xffffffffffffffffffffffffffffffffffffffff\n  mul\n  not\n  and\n  swap1\n  dup4\n  0xffffffffffffffffffffffffffffffffffffffff\n  and\n  mul\n  or\n  swap1\n  sstore\n  pop\n  0x20\n  dup3\n  add\n  mload\n  dup2\n  0x01\n  add\n  swap1\n  dup2\n  tag_24\n  swap2\n  swap1\n  tag_19\n  jump\t// in\ntag_24:\n  pop\n  0x40\n  dup3\n  add\n  mload\n  dup2\n  0x02\n  add\n  exp(0x0100, 0x00)\n  dup2\n  sload\n  dup2\n  0xff\n  mul\n  not\n  and\n  swap1\n  dup4\n  iszero\n  iszero\n  mul\n  or\n  swap1\n  sstore\n  pop\n  swap1\n  pop\n  pop\n    /* \"contractGen.sol\":3091:3136  Parte(_intermediador, \"Intermediador\", false) */\n  mload(0x40)\n  dup1\n  0x60\n  add\n  0x40\n  mstore\n  dup1\n    /* \"contractGen.sol\":3097:3111  _intermediador */\n  dup7\n    /* \"contractGen.sol\":3091:3136  Parte(_intermediador, \"Intermediador\", false) */\n  0xffffffffffffffffffffffffffffffffffffffff\n  and\n  dup2\n  mstore\n  0x20\n  add\n  mload(0x40)\n  dup1\n  0x40\n  add\n  0x40\n  mstore\n  dup1\n  0x0d\n  dup2\n  mstore\n  0x20\n  add\n  0x496e7465726d65646961646f7200000000000000000000000000000000000000\n  dup2\n  mstore\n  pop\n  dup2\n  mstore\n  0x20\n  add\n    /* \"contractGen.sol\":3130:3135  false */\n  0x00\n    /* \"contractGen.sol\":3091:3136  Parte(_intermediador, \"Intermediador\", false) */\n  iszero\n  iszero\n  dup2\n  mstore\n  pop\n    /* \"contractGen.sol\":3066:3072  partes */\n  0x08\n    /* \"contractGen.sol\":3066:3088  partes[_intermediador] */\n  0x00\n    /* \"contractGen.sol\":3073:3087  _intermediador */\n  dup8\n    /* \"contractGen.sol\":3066:3088  partes[_intermediador] */\n  0xffffffffffffffffffffffffffffffffffffffff\n  and\n  0xffffffffffffffffffffffffffffffffffffffff\n  and\n  dup2\n  mstore\n  0x20\n  add\n  swap1\n  dup2\n  mstore\n  0x20\n  add\n  0x00\n  keccak256\n    /* \"contractGen.sol\":3066:3136  partes[_intermediador] = Parte(_intermediador, \"Intermediador\", false) */\n  0x00\n  dup3\n  add\n  mload\n  dup2\n  0x00\n  add\n  exp(0x0100, 0x00)\n  dup2\n  sload\n  dup2\n  0xffffffffffffffffffffffffffffffffffffffff\n  mul\n  not\n  and\n  swap1\n  dup4\n  0xffffffffffffffffffffffffffffffffffffffff\n  and\n  mul\n  or\n  swap1\n  sstore\n  pop\n  0x20\n  dup3\n  add\n  mload\n  dup2\n  0x01\n  add\n  swap1\n  dup2\n  tag_25\n  swap2\n  swap1\n  tag_19\n  jump\t// in\ntag_25:\n  pop\n  0x40\n  dup3\n  add\n  mload\n  dup2\n  0x02\n  add\n  exp(0x0100, 0x00)\n  dup2\n  sload\n  dup2\n  0xff\n  mul\n  not\n  and\n  swap1\n  dup4\n  iszero\n  iszero\n  mul\n  or\n  swap1\n  sstore\n  pop\n  swap1\n  pop\n  pop\n    /* \"contractGen.sol\":3167:3202  Parte(_advogado, \"Advogado\", false) */\n  mload(0x40)\n  dup1\n  0x60\n  add\n  0x40\n  mstore\n  dup1\n    /* \"contractGen.sol\":3173:3182  _advogado */\n  dup6\n    /* \"contractGen.sol\":3167:3202  Parte(_advogado, \"Advogado\", false) */\n  0xffffffffffffffffffffffffffffffffffffffff\n  and\n  dup2\n  mstore\n  0x20\n  add\n  mload(0x40)\n  dup1\n  0x40\n  add\n  0x40\n  mstore\n  dup1\n  0x08\n  dup2\n  mstore\n  0x20\n  add\n  0x4164766f6761646f000000000000000000000000000000000000000000000000\n  dup2\n  mstore\n  pop\n  dup2\n  mstore\n  0x20\n  add\n    /* \"contractGen.sol\":3196:3201  false */\n  0x00\n    /* \"contractGen.sol\":3167:3202  Parte(_advogado, \"Advogado\", false) */\n  iszero\n  iszero\n  dup2\n  mstore\n  pop\n    /* \"contractGen.sol\":3147:3153  partes */\n  0x08\n    /* \"contractGen.sol\":3147:3164  partes[_advogado] */\n  0x00\n    /* \"contractGen.sol\":3154:3163  _advogado */\n  dup7\n    /* \"contractGen.sol\":3147:3164  partes[_advogado] */\n  0xffffffffffffffffffffffffffffffffffffffff\n  and\n  0xffffffffffffffffffffffffffffffffffffffff\n  and\n  dup2\n  mstore\n  0x20\n  add\n  swap1\n  dup2\n  mstore\n  0x20\n  add\n  0x00\n  keccak256\n    /* \"contractGen.sol\":3147:3202  partes[_advogado] = Parte(_advogado, \"Advogado\", false) */\n  0x00\n  dup3\n  add\n  mload\n  dup2\n  0x00\n  add\n  exp(0x0100, 0x00)\n  dup2\n  sload\n  dup2\n  0xffffffffffffffffffffffffffffffffffffffff\n  mul\n  not\n  and\n  swap1\n  dup4\n  0xffffffffffffffffffffffffffffffffffffffff\n  and\n  mul\n  or\n  swap1\n  sstore\n  pop\n  0x20\n  dup3\n  add\n  mload\n  dup2\n  0x01\n  add\n  swap1\n  dup2\n  tag_26\n  swap2\n  swap1\n  tag_19\n  jump\t// in\ntag_26:\n  pop\n  0x40\n  dup3\n  add\n  mload\n  dup2\n  0x02\n  add\n  exp(0x0100, 0x00)\n  dup2\n  sload\n  dup2\n  0xff\n  mul\n  not\n  and\n  swap1\n  dup4\n  iszero\n  iszero\n  mul\n  or\n  swap1\n  sstore\n  pop\n  swap1\n  pop\n  pop\n    /* \"contractGen.sol\":3215:3226  listaPartes */\n  0x09\n    /* \"contractGen.sol\":3232:3244  _contratante */\n  dup8\n    /* \"contractGen.sol\":3215:3245  listaPartes.push(_contratante) */\n  swap1\n  dup1\n  0x01\n  dup2\n  sload\n  add\n  dup1\n  dup3\n  sstore\n  dup1\n  swap2\n  pop\n  pop\n  0x01\n  swap1\n  sub\n  swap1\n  0x00\n  mstore\n  keccak256(0x00, 0x20)\n  add\n  0x00\n  swap1\n  swap2\n  swap1\n  swap2\n  swap1\n  swap2\n  0x0100\n  exp\n  dup2\n  sload\n  dup2\n  0xffffffffffffffffffffffffffffffffffffffff\n  mul\n  not\n  and\n  swap1\n  dup4\n  0xffffffffffffffffffffffffffffffffffffffff\n  and\n  mul\n  or\n  swap1\n  sstore\n  pop\n    /* \"contractGen.sol\":3256:3267  listaPartes */\n  0x09\n    /* \"contractGen.sol\":3273:3284  _contratado */\n  dup7\n    /* \"contractGen.sol\":3256:3285  listaPartes.push(_contratado) */\n  swap1\n  dup1\n  0x01\n  dup2\n  sload\n  add\n  dup1\n  dup3\n  sstore\n  dup1\n  swap2\n  pop\n  pop\n  0x01\n  swap1\n  sub\n  swap1\n  0x00\n  mstore\n  keccak256(0x00, 0x20)\n  add\n  0x00\n  swap1\n  swap2\n  swap1\n  swap2\n  swap1\n  swap2\n  0x0100\n  exp\n  dup2\n  sload\n  dup2\n  0xffffffffffffffffffffffffffffffffffffffff\n  mul\n  not\n  and\n  swap1\n  dup4\n  0xffffffffffffffffffffffffffffffffffffffff\n  and\n  mul\n  or\n  swap1\n  sstore\n  pop\n    /* \"contractGen.sol\":3296:3307  listaPartes */\n  0x09\n    /* \"contractGen.sol\":3313:3327  _intermediador */\n  dup6\n    /* \"contractGen.sol\":3296:3328  listaPartes.push(_intermediador) */\n  swap1\n  dup1\n  0x01\n  dup2\n  sload\n  add\n  dup1\n  dup3\n  sstore\n  dup1\n  swap2\n  pop\n  pop\n  0x01\n  swap1\n  sub\n  swap1\n  0x00\n  mstore\n  keccak256(0x00, 0x20)\n  add\n  0x00\n  swap1\n  swap2\n  swap1\n  swap2\n  swap1\n  swap2\n  0x0100\n  exp\n  dup2\n  sload\n  dup2\n  0xffffffffffffffffffffffffffffffffffffffff\n  mul\n  not\n  and\n  swap1\n  dup4\n  0xffffffffffffffffffffffffffffffffffffffff\n  and\n  mul\n  or\n  swap1\n  sstore\n  pop\n    /* \"contractGen.sol\":3339:3350  listaPartes */\n  0x09\n    /* \"contractGen.sol\":3356:3365  _advogado */\n  dup5\n    /* \"contractGen.sol\":3339:3366  listaPartes.push(_advogado) */\n  swap1\n  dup1\n  0x01\n  dup2\n  sload\n  add\n  dup1\n  dup3\n  sstore\n  dup1\n  swap2\n  pop\n  pop\n  0x01\n  swap1\n  sub\n  swap1\n  0x00\n  mstore\n  keccak256(0x00, 0x20)\n  add\n  0x00\n  swap1\n  swap2\n  swap1\n  swap2\n  swap1\n  swap2\n  0x0100\n  exp\n  dup2\n  sload\n  dup2\n  0xffffffffffffffffffffffffffffffffffffffff\n  mul\n  not\n  and\n  swap1\n  dup4\n  0xffffffffffffffffffffffffffffffffffffffff\n  and\n  mul\n  or\n  swap1\n  sstore\n  pop\n    /* \"contractGen.sol\":2067:3374  constructor(... */\n  pop\n  pop\n  pop\n  pop\n  pop\n  pop\n  pop\n    /* \"contractGen.sol\":228:6926  contract PrestacaoServicoSeguro is ReentrancyGuard {... */\n  jump(tag_31)\n    /* \"#utility.yul\":7:82   */\ntag_32:\n    /* \"#utility.yul\":40:46   */\n  0x00\n    /* \"#utility.yul\":73:75   */\n  0x40\n    /* \"#utility.yul\":67:76   */\n  mload\n    /* \"#utility.yul\":57:76   */\n  swap1\n  pop\n    /* \"#utility.yul\":7:82   */\n  swap1\n  jump\t// out\n    /* \"#utility.yul\":88:205   */\ntag_33:\n    /* \"#utility.yul\":197:198   */\n  0x00\n    /* \"#utility.yul\":194:195   */\n  0x00\n    /* \"#utility.yul\":187:199   */\n  revert\n    /* \"#utility.yul\":211:328   */\ntag_34:\n    /* \"#utility.yul\":320:321   */\n  0x00\n    /* \"#utility.yul\":317:318   */\n  0x00\n    /* \"#utility.yul\":310:322   */\n  revert\n    /* \"#utility.yul\":334:460   */\ntag_35:\n    /* \"#utility.yul\":371:378   */\n  0x00\n    /* \"#utility.yul\":411:453   */\n  0xffffffffffffffffffffffffffffffffffffffff\n    /* \"#utility.yul\":404:409   */\n  dup3\n    /* \"#utility.yul\":400:454   */\n  and\n    /* \"#utility.yul\":389:454   */\n  swap1\n  pop\n    /* \"#utility.yul\":334:460   */\n  swap2\n  swap1\n  pop\n  jump\t// out\n    /* \"#utility.yul\":466:562   */\ntag_36:\n    /* \"#utility.yul\":503:510   */\n  0x00\n    /* \"#utility.yul\":532:556   */\n  tag_81\n    /* \"#utility.yul\":550:555   */\n  dup3\n    /* \"#utility.yul\":532:556   */\n  tag_35\n  jump\t// in\ntag_81:\n    /* \"#utility.yul\":521:556   */\n  swap1\n  pop\n    /* \"#utility.yul\":466:562   */\n  swap2\n  swap1\n  pop\n  jump\t// out\n    /* \"#utility.yul\":568:690   */\ntag_37:\n    /* \"#utility.yul\":641:665   */\n  tag_83\n    /* \"#utility.yul\":659:664   */\n  dup2\n    /* \"#utility.yul\":641:665   */\n  tag_36\n  jump\t// in\ntag_83:\n    /* \"#utility.yul\":634:639   */\n  dup2\n    /* \"#utility.yul\":631:666   */\n  eq\n    /* \"#utility.yul\":621:684   */\n  tag_84\n  jumpi\n    /* \"#utility.yul\":680:681   */\n  0x00\n    /* \"#utility.yul\":677:678   */\n  0x00\n    /* \"#utility.yul\":670:682   */\n  revert\n    /* \"#utility.yul\":621:684   */\ntag_84:\n    /* \"#utility.yul\":568:690   */\n  pop\n  jump\t// out\n    /* \"#utility.yul\":696:839   */\ntag_38:\n    /* \"#utility.yul\":753:758   */\n  0x00\n    /* \"#utility.yul\":784:790   */\n  dup2\n    /* \"#utility.yul\":778:791   */\n  mload\n    /* \"#utility.yul\":769:791   */\n  swap1\n  pop\n    /* \"#utility.yul\":800:833   */\n  tag_86\n    /* \"#utility.yul\":827:832   */\n  dup2\n    /* \"#utility.yul\":800:833   */\n  tag_37\n  jump\t// in\ntag_86:\n    /* \"#utility.yul\":696:839   */\n  swap3\n  swap2\n  pop\n  pop\n  jump\t// out\n    /* \"#utility.yul\":845:962   */\ntag_39:\n    /* \"#utility.yul\":954:955   */\n  0x00\n    /* \"#utility.yul\":951:952   */\n  0x00\n    /* \"#utility.yul\":944:956   */\n  revert\n    /* \"#utility.yul\":968:1085   */\ntag_40:\n    /* \"#utility.yul\":1077:1078   */\n  0x00\n    /* \"#utility.yul\":1074:1075   */\n  0x00\n    /* \"#utility.yul\":1067:1079   */\n  revert\n    /* \"#utility.yul\":1091:1193   */\ntag_41:\n    /* \"#utility.yul\":1132:1138   */\n  0x00\n    /* \"#utility.yul\":1183:1185   */\n  0x1f\n    /* \"#utility.yul\":1179:1186   */\n  not\n    /* \"#utility.yul\":1174:1176   */\n  0x1f\n    /* \"#utility.yul\":1167:1172   */\n  dup4\n    /* \"#utility.yul\":1163:1177   */\n  add\n    /* \"#utility.yul\":1159:1187   */\n  and\n    /* \"#utility.yul\":1149:1187   */\n  swap1\n  pop\n    /* \"#utility.yul\":1091:1193   */\n  swap2\n  swap1\n  pop\n  jump\t// out\n    /* \"#utility.yul\":1199:1379   */\ntag_42:\n    /* \"#utility.yul\":1247:1324   */\n  0x4e487b7100000000000000000000000000000000000000000000000000000000\n    /* \"#utility.yul\":1244:1245   */\n  0x00\n    /* \"#utility.yul\":1237:1325   */\n  mstore\n    /* \"#utility.yul\":1344:1348   */\n  0x41\n    /* \"#utility.yul\":1341:1342   */\n  0x04\n    /* \"#utility.yul\":1334:1349   */\n  mstore\n    /* \"#utility.yul\":1368:1372   */\n  0x24\n    /* \"#utility.yul\":1365:1366   */\n  0x00\n    /* \"#utility.yul\":1358:1373   */\n  revert\n    /* \"#utility.yul\":1385:1666   */\ntag_43:\n    /* \"#utility.yul\":1468:1495   */\n  tag_92\n    /* \"#utility.yul\":1490:1494   */\n  dup3\n    /* \"#utility.yul\":1468:1495   */\n  tag_41\n  jump\t// in\ntag_92:\n    /* \"#utility.yul\":1460:1466   */\n  dup2\n    /* \"#utility.yul\":1456:1496   */\n  add\n    /* \"#utility.yul\":1598:1604   */\n  dup2\n    /* \"#utility.yul\":1586:1596   */\n  dup2\n    /* \"#utility.yul\":1583:1605   */\n  lt\n    /* \"#utility.yul\":1562:1580   */\n  0xffffffffffffffff\n    /* \"#utility.yul\":1550:1560   */\n  dup3\n    /* \"#utility.yul\":1547:1581   */\n  gt\n    /* \"#utility.yul\":1544:1606   */\n  or\n    /* \"#utility.yul\":1541:1629   */\n  iszero\n  tag_93\n  jumpi\n    /* \"#utility.yul\":1609:1627   */\n  tag_94\n  tag_42\n  jump\t// in\ntag_94:\n    /* \"#utility.yul\":1541:1629   */\ntag_93:\n    /* \"#utility.yul\":1649:1659   */\n  dup1\n    /* \"#utility.yul\":1645:1647   */\n  0x40\n    /* \"#utility.yul\":1638:1660   */\n  mstore\n    /* \"#utility.yul\":1428:1666   */\n  pop\n    /* \"#utility.yul\":1385:1666   */\n  pop\n  pop\n  jump\t// out\n    /* \"#utility.yul\":1672:1801   */\ntag_44:\n    /* \"#utility.yul\":1706:1712   */\n  0x00\n    /* \"#utility.yul\":1733:1753   */\n  tag_96\n  tag_32\n  jump\t// in\ntag_96:\n    /* \"#utility.yul\":1723:1753   */\n  swap1\n  pop\n    /* \"#utility.yul\":1762:1795   */\n  tag_97\n    /* \"#utility.yul\":1790:1794   */\n  dup3\n    /* \"#utility.yul\":1782:1788   */\n  dup3\n    /* \"#utility.yul\":1762:1795   */\n  tag_43\n  jump\t// in\ntag_97:\n    /* \"#utility.yul\":1672:1801   */\n  swap2\n  swap1\n  pop\n  jump\t// out\n    /* \"#utility.yul\":1807:2115   */\ntag_45:\n    /* \"#utility.yul\":1869:1873   */\n  0x00\n    /* \"#utility.yul\":1959:1977   */\n  0xffffffffffffffff\n    /* \"#utility.yul\":1951:1957   */\n  dup3\n    /* \"#utility.yul\":1948:1978   */\n  gt\n    /* \"#utility.yul\":1945:2001   */\n  iszero\n  tag_99\n  jumpi\n    /* \"#utility.yul\":1981:1999   */\n  tag_100\n  tag_42\n  jump\t// in\ntag_100:\n    /* \"#utility.yul\":1945:2001   */\ntag_99:\n    /* \"#utility.yul\":2019:2048   */\n  tag_101\n    /* \"#utility.yul\":2041:2047   */\n  dup3\n    /* \"#utility.yul\":2019:2048   */\n  tag_41\n  jump\t// in\ntag_101:\n    /* \"#utility.yul\":2011:2048   */\n  swap1\n  pop\n    /* \"#utility.yul\":2103:2107   */\n  0x20\n    /* \"#utility.yul\":2097:2101   */\n  dup2\n    /* \"#utility.yul\":2093:2108   */\n  add\n    /* \"#utility.yul\":2085:2108   */\n  swap1\n  pop\n    /* \"#utility.yul\":1807:2115   */\n  swap2\n  swap1\n  pop\n  jump\t// out\n    /* \"#utility.yul\":2121:2260   */\ntag_46:\n    /* \"#utility.yul\":2210:2216   */\n  dup3\n    /* \"#utility.yul\":2205:2208   */\n  dup2\n    /* \"#utility.yul\":2200:2203   */\n  dup4\n    /* \"#utility.yul\":2194:2217   */\n  mcopy\n    /* \"#utility.yul\":2251:2252   */\n  0x00\n    /* \"#utility.yul\":2242:2248   */\n  dup4\n    /* \"#utility.yul\":2237:2240   */\n  dup4\n    /* \"#utility.yul\":2233:2249   */\n  add\n    /* \"#utility.yul\":2226:2253   */\n  mstore\n    /* \"#utility.yul\":2121:2260   */\n  pop\n  pop\n  pop\n  jump\t// out\n    /* \"#utility.yul\":2266:2700   */\ntag_47:\n    /* \"#utility.yul\":2355:2360   */\n  0x00\n    /* \"#utility.yul\":2380:2446   */\n  tag_104\n    /* \"#utility.yul\":2396:2445   */\n  tag_105\n    /* \"#utility.yul\":2438:2444   */\n  dup5\n    /* \"#utility.yul\":2396:2445   */\n  tag_45\n  jump\t// in\ntag_105:\n    /* \"#utility.yul\":2380:2446   */\n  tag_44\n  jump\t// in\ntag_104:\n    /* \"#utility.yul\":2371:2446   */\n  swap1\n  pop\n    /* \"#utility.yul\":2469:2475   */\n  dup3\n    /* \"#utility.yul\":2462:2467   */\n  dup2\n    /* \"#utility.yul\":2455:2476   */\n  mstore\n    /* \"#utility.yul\":2507:2511   */\n  0x20\n    /* \"#utility.yul\":2500:2505   */\n  dup2\n    /* \"#utility.yul\":2496:2512   */\n  add\n    /* \"#utility.yul\":2545:2548   */\n  dup5\n    /* \"#utility.yul\":2536:2542   */\n  dup5\n    /* \"#utility.yul\":2531:2534   */\n  dup5\n    /* \"#utility.yul\":2527:2543   */\n  add\n    /* \"#utility.yul\":2524:2549   */\n  gt\n    /* \"#utility.yul\":2521:2633   */\n  iszero\n  tag_106\n  jumpi\n    /* \"#utility.yul\":2552:2631   */\n  tag_107\n  tag_40\n  jump\t// in\ntag_107:\n    /* \"#utility.yul\":2521:2633   */\ntag_106:\n    /* \"#utility.yul\":2642:2694   */\n  tag_108\n    /* \"#utility.yul\":2687:2693   */\n  dup5\n    /* \"#utility.yul\":2682:2685   */\n  dup3\n    /* \"#utility.yul\":2677:2680   */\n  dup6\n    /* \"#utility.yul\":2642:2694   */\n  tag_46\n  jump\t// in\ntag_108:\n    /* \"#utility.yul\":2361:2700   */\n  pop\n    /* \"#utility.yul\":2266:2700   */\n  swap4\n  swap3\n  pop\n  pop\n  pop\n  jump\t// out\n    /* \"#utility.yul\":2720:3075   */\ntag_48:\n    /* \"#utility.yul\":2787:2792   */\n  0x00\n    /* \"#utility.yul\":2836:2839   */\n  dup3\n    /* \"#utility.yul\":2829:2833   */\n  0x1f\n    /* \"#utility.yul\":2821:2827   */\n  dup4\n    /* \"#utility.yul\":2817:2834   */\n  add\n    /* \"#utility.yul\":2813:2840   */\n  slt\n    /* \"#utility.yul\":2803:2925   */\n  tag_110\n  jumpi\n    /* \"#utility.yul\":2844:2923   */\n  tag_111\n  tag_39\n  jump\t// in\ntag_111:\n    /* \"#utility.yul\":2803:2925   */\ntag_110:\n    /* \"#utility.yul\":2954:2960   */\n  dup2\n    /* \"#utility.yul\":2948:2961   */\n  mload\n    /* \"#utility.yul\":2979:3069   */\n  tag_112\n    /* \"#utility.yul\":3065:3068   */\n  dup5\n    /* \"#utility.yul\":3057:3063   */\n  dup3\n    /* \"#utility.yul\":3050:3054   */\n  0x20\n    /* \"#utility.yul\":3042:3048   */\n  dup7\n    /* \"#utility.yul\":3038:3055   */\n  add\n    /* \"#utility.yul\":2979:3069   */\n  tag_47\n  jump\t// in\ntag_112:\n    /* \"#utility.yul\":2970:3069   */\n  swap2\n  pop\n    /* \"#utility.yul\":2793:3075   */\n  pop\n    /* \"#utility.yul\":2720:3075   */\n  swap3\n  swap2\n  pop\n  pop\n  jump\t// out\n    /* \"#utility.yul\":3081:3158   */\ntag_49:\n    /* \"#utility.yul\":3118:3125   */\n  0x00\n    /* \"#utility.yul\":3147:3152   */\n  dup2\n    /* \"#utility.yul\":3136:3152   */\n  swap1\n  pop\n    /* \"#utility.yul\":3081:3158   */\n  swap2\n  swap1\n  pop\n  jump\t// out\n    /* \"#utility.yul\":3164:3286   */\ntag_50:\n    /* \"#utility.yul\":3237:3261   */\n  tag_115\n    /* \"#utility.yul\":3255:3260   */\n  dup2\n    /* \"#utility.yul\":3237:3261   */\n  tag_49\n  jump\t// in\ntag_115:\n    /* \"#utility.yul\":3230:3235   */\n  dup2\n    /* \"#utility.yul\":3227:3262   */\n  eq\n    /* \"#utility.yul\":3217:3280   */\n  tag_116\n  jumpi\n    /* \"#utility.yul\":3276:3277   */\n  0x00\n    /* \"#utility.yul\":3273:3274   */\n  0x00\n    /* \"#utility.yul\":3266:3278   */\n  revert\n    /* \"#utility.yul\":3217:3280   */\ntag_116:\n    /* \"#utility.yul\":3164:3286   */\n  pop\n  jump\t// out\n    /* \"#utility.yul\":3292:3435   */\ntag_51:\n    /* \"#utility.yul\":3349:3354   */\n  0x00\n    /* \"#utility.yul\":3380:3386   */\n  dup2\n    /* \"#utility.yul\":3374:3387   */\n  mload\n    /* \"#utility.yul\":3365:3387   */\n  swap1\n  pop\n    /* \"#utility.yul\":3396:3429   */\n  tag_118\n    /* \"#utility.yul\":3423:3428   */\n  dup2\n    /* \"#utility.yul\":3396:3429   */\n  tag_50\n  jump\t// in\ntag_118:\n    /* \"#utility.yul\":3292:3435   */\n  swap3\n  swap2\n  pop\n  pop\n  jump\t// out\n    /* \"#utility.yul\":3441:5078   */\ntag_3:\n    /* \"#utility.yul\":3585:3591   */\n  0x00\n    /* \"#utility.yul\":3593:3599   */\n  0x00\n    /* \"#utility.yul\":3601:3607   */\n  0x00\n    /* \"#utility.yul\":3609:3615   */\n  0x00\n    /* \"#utility.yul\":3617:3623   */\n  0x00\n    /* \"#utility.yul\":3625:3631   */\n  0x00\n    /* \"#utility.yul\":3633:3639   */\n  0x00\n    /* \"#utility.yul\":3682:3685   */\n  0xe0\n    /* \"#utility.yul\":3670:3679   */\n  dup9\n    /* \"#utility.yul\":3661:3668   */\n  dup11\n    /* \"#utility.yul\":3657:3680   */\n  sub\n    /* \"#utility.yul\":3653:3686   */\n  slt\n    /* \"#utility.yul\":3650:3770   */\n  iszero\n  tag_120\n  jumpi\n    /* \"#utility.yul\":3689:3768   */\n  tag_121\n  tag_33\n  jump\t// in\ntag_121:\n    /* \"#utility.yul\":3650:3770   */\ntag_120:\n    /* \"#utility.yul\":3809:3810   */\n  0x00\n    /* \"#utility.yul\":3834:3898   */\n  tag_122\n    /* \"#utility.yul\":3890:3897   */\n  dup11\n    /* \"#utility.yul\":3881:3887   */\n  dup3\n    /* \"#utility.yul\":3870:3879   */\n  dup12\n    /* \"#utility.yul\":3866:3888   */\n  add\n    /* \"#utility.yul\":3834:3898   */\n  tag_38\n  jump\t// in\ntag_122:\n    /* \"#utility.yul\":3824:3898   */\n  swap8\n  pop\n    /* \"#utility.yul\":3780:3908   */\n  pop\n    /* \"#utility.yul\":3947:3949   */\n  0x20\n    /* \"#utility.yul\":3973:4037   */\n  tag_123\n    /* \"#utility.yul\":4029:4036   */\n  dup11\n    /* \"#utility.yul\":4020:4026   */\n  dup3\n    /* \"#utility.yul\":4009:4018   */\n  dup12\n    /* \"#utility.yul\":4005:4027   */\n  add\n    /* \"#utility.yul\":3973:4037   */\n  tag_38\n  jump\t// in\ntag_123:\n    /* \"#utility.yul\":3963:4037   */\n  swap7\n  pop\n    /* \"#utility.yul\":3918:4047   */\n  pop\n    /* \"#utility.yul\":4086:4088   */\n  0x40\n    /* \"#utility.yul\":4112:4176   */\n  tag_124\n    /* \"#utility.yul\":4168:4175   */\n  dup11\n    /* \"#utility.yul\":4159:4165   */\n  dup3\n    /* \"#utility.yul\":4148:4157   */\n  dup12\n    /* \"#utility.yul\":4144:4166   */\n  add\n    /* \"#utility.yul\":4112:4176   */\n  tag_38\n  jump\t// in\ntag_124:\n    /* \"#utility.yul\":4102:4176   */\n  swap6\n  pop\n    /* \"#utility.yul\":4057:4186   */\n  pop\n    /* \"#utility.yul\":4225:4227   */\n  0x60\n    /* \"#utility.yul\":4251:4315   */\n  tag_125\n    /* \"#utility.yul\":4307:4314   */\n  dup11\n    /* \"#utility.yul\":4298:4304   */\n  dup3\n    /* \"#utility.yul\":4287:4296   */\n  dup12\n    /* \"#utility.yul\":4283:4305   */\n  add\n    /* \"#utility.yul\":4251:4315   */\n  tag_38\n  jump\t// in\ntag_125:\n    /* \"#utility.yul\":4241:4315   */\n  swap5\n  pop\n    /* \"#utility.yul\":4196:4325   */\n  pop\n    /* \"#utility.yul\":4385:4388   */\n  0x80\n    /* \"#utility.yul\":4374:4383   */\n  dup9\n    /* \"#utility.yul\":4370:4389   */\n  add\n    /* \"#utility.yul\":4364:4390   */\n  mload\n    /* \"#utility.yul\":4417:4435   */\n  0xffffffffffffffff\n    /* \"#utility.yul\":4409:4415   */\n  dup2\n    /* \"#utility.yul\":4406:4436   */\n  gt\n    /* \"#utility.yul\":4403:4520   */\n  iszero\n  tag_126\n  jumpi\n    /* \"#utility.yul\":4439:4518   */\n  tag_127\n  tag_34\n  jump\t// in\ntag_127:\n    /* \"#utility.yul\":4403:4520   */\ntag_126:\n    /* \"#utility.yul\":4544:4618   */\n  tag_128\n    /* \"#utility.yul\":4610:4617   */\n  dup11\n    /* \"#utility.yul\":4601:4607   */\n  dup3\n    /* \"#utility.yul\":4590:4599   */\n  dup12\n    /* \"#utility.yul\":4586:4608   */\n  add\n    /* \"#utility.yul\":4544:4618   */\n  tag_48\n  jump\t// in\ntag_128:\n    /* \"#utility.yul\":4534:4618   */\n  swap4\n  pop\n    /* \"#utility.yul\":4335:4628   */\n  pop\n    /* \"#utility.yul\":4667:4670   */\n  0xa0\n    /* \"#utility.yul\":4694:4758   */\n  tag_129\n    /* \"#utility.yul\":4750:4757   */\n  dup11\n    /* \"#utility.yul\":4741:4747   */\n  dup3\n    /* \"#utility.yul\":4730:4739   */\n  dup12\n    /* \"#utility.yul\":4726:4748   */\n  add\n    /* \"#utility.yul\":4694:4758   */\n  tag_51\n  jump\t// in\ntag_129:\n    /* \"#utility.yul\":4684:4758   */\n  swap3\n  pop\n    /* \"#utility.yul\":4638:4768   */\n  pop\n    /* \"#utility.yul\":4828:4831   */\n  0xc0\n    /* \"#utility.yul\":4817:4826   */\n  dup9\n    /* \"#utility.yul\":4813:4832   */\n  add\n    /* \"#utility.yul\":4807:4833   */\n  mload\n    /* \"#utility.yul\":4860:4878   */\n  0xffffffffffffffff\n    /* \"#utility.yul\":4852:4858   */\n  dup2\n    /* \"#utility.yul\":4849:4879   */\n  gt\n    /* \"#utility.yul\":4846:4963   */\n  iszero\n  tag_130\n  jumpi\n    /* \"#utility.yul\":4882:4961   */\n  tag_131\n  tag_34\n  jump\t// in\ntag_131:\n    /* \"#utility.yul\":4846:4963   */\ntag_130:\n    /* \"#utility.yul\":4987:5061   */\n  tag_132\n    /* \"#utility.yul\":5053:5060   */\n  dup11\n    /* \"#utility.yul\":5044:5050   */\n  dup3\n    /* \"#utility.yul\":5033:5042   */\n  dup12\n    /* \"#utility.yul\":5029:5051   */\n  add\n    /* \"#utility.yul\":4987:5061   */\n  tag_48\n  jump\t// in\ntag_132:\n    /* \"#utility.yul\":4977:5061   */\n  swap2\n  pop\n    /* \"#utility.yul\":4778:5071   */\n  pop\n    /* \"#utility.yul\":3441:5078   */\n  swap3\n  swap6\n  swap9\n  swap2\n  swap5\n  swap8\n  pop\n  swap3\n  swap6\n  pop\n  jump\t// out\n    /* \"#utility.yul\":5084:5253   */\ntag_52:\n    /* \"#utility.yul\":5168:5179   */\n  0x00\n    /* \"#utility.yul\":5202:5208   */\n  dup3\n    /* \"#utility.yul\":5197:5200   */\n  dup3\n    /* \"#utility.yul\":5190:5209   */\n  mstore\n    /* \"#utility.yul\":5242:5246   */\n  0x20\n    /* \"#utility.yul\":5237:5240   */\n  dup3\n    /* \"#utility.yul\":5233:5247   */\n  add\n    /* \"#utility.yul\":5218:5247   */\n  swap1\n  pop\n    /* \"#utility.yul\":5084:5253   */\n  swap3\n  swap2\n  pop\n  pop\n  jump\t// out\n    /* \"#utility.yul\":5259:5428   */\ntag_53:\n    /* \"#utility.yul\":5399:5420   */\n  0x456e64657265636f7320696e76616c69646f7300000000000000000000000000\n    /* \"#utility.yul\":5395:5396   */\n  0x00\n    /* \"#utility.yul\":5387:5393   */\n  dup3\n    /* \"#utility.yul\":5383:5397   */\n  add\n    /* \"#utility.yul\":5376:5421   */\n  mstore\n    /* \"#utility.yul\":5259:5428   */\n  pop\n  jump\t// out\n    /* \"#utility.yul\":5434:5800   */\ntag_54:\n    /* \"#utility.yul\":5576:5579   */\n  0x00\n    /* \"#utility.yul\":5597:5664   */\n  tag_136\n    /* \"#utility.yul\":5661:5663   */\n  0x13\n    /* \"#utility.yul\":5656:5659   */\n  dup4\n    /* \"#utility.yul\":5597:5664   */\n  tag_52\n  jump\t// in\ntag_136:\n    /* \"#utility.yul\":5590:5664   */\n  swap2\n  pop\n    /* \"#utility.yul\":5673:5766   */\n  tag_137\n    /* \"#utility.yul\":5762:5765   */\n  dup3\n    /* \"#utility.yul\":5673:5766   */\n  tag_53\n  jump\t// in\ntag_137:\n    /* \"#utility.yul\":5791:5793   */\n  0x20\n    /* \"#utility.yul\":5786:5789   */\n  dup3\n    /* \"#utility.yul\":5782:5794   */\n  add\n    /* \"#utility.yul\":5775:5794   */\n  swap1\n  pop\n    /* \"#utility.yul\":5434:5800   */\n  swap2\n  swap1\n  pop\n  jump\t// out\n    /* \"#utility.yul\":5806:6225   */\ntag_11:\n    /* \"#utility.yul\":5972:5976   */\n  0x00\n    /* \"#utility.yul\":6010:6012   */\n  0x20\n    /* \"#utility.yul\":5999:6008   */\n  dup3\n    /* \"#utility.yul\":5995:6013   */\n  add\n    /* \"#utility.yul\":5987:6013   */\n  swap1\n  pop\n    /* \"#utility.yul\":6059:6068   */\n  dup2\n    /* \"#utility.yul\":6053:6057   */\n  dup2\n    /* \"#utility.yul\":6049:6069   */\n  sub\n    /* \"#utility.yul\":6045:6046   */\n  0x00\n    /* \"#utility.yul\":6034:6043   */\n  dup4\n    /* \"#utility.yul\":6030:6047   */\n  add\n    /* \"#utility.yul\":6023:6070   */\n  mstore\n    /* \"#utility.yul\":6087:6218   */\n  tag_139\n    /* \"#utility.yul\":6213:6217   */\n  dup2\n    /* \"#utility.yul\":6087:6218   */\n  tag_54\n  jump\t// in\ntag_139:\n    /* \"#utility.yul\":6079:6218   */\n  swap1\n  pop\n    /* \"#utility.yul\":5806:6225   */\n  swap2\n  swap1\n  pop\n  jump\t// out\n    /* \"#utility.yul\":6231:6401   */\ntag_55:\n    /* \"#utility.yul\":6371:6393   */\n  0x4164766f6761646f206f6272696761746f72696f000000000000000000000000\n    /* \"#utility.yul\":6367:6368   */\n  0x00\n    /* \"#utility.yul\":6359:6365   */\n  dup3\n    /* \"#utility.yul\":6355:6369   */\n  add\n    /* \"#utility.yul\":6348:6394   */\n  mstore\n    /* \"#utility.yul\":6231:6401   */\n  pop\n  jump\t// out\n    /* \"#utility.yul\":6407:6773   */\ntag_56:\n    /* \"#utility.yul\":6549:6552   */\n  0x00\n    /* \"#utility.yul\":6570:6637   */\n  tag_142\n    /* \"#utility.yul\":6634:6636   */\n  0x14\n    /* \"#utility.yul\":6629:6632   */\n  dup4\n    /* \"#utility.yul\":6570:6637   */\n  tag_52\n  jump\t// in\ntag_142:\n    /* \"#utility.yul\":6563:6637   */\n  swap2\n  pop\n    /* \"#utility.yul\":6646:6739   */\n  tag_143\n    /* \"#utility.yul\":6735:6738   */\n  dup3\n    /* \"#utility.yul\":6646:6739   */\n  tag_55\n  jump\t// in\ntag_143:\n    /* \"#utility.yul\":6764:6766   */\n  0x20\n    /* \"#utility.yul\":6759:6762   */\n  dup3\n    /* \"#utility.yul\":6755:6767   */\n  add\n    /* \"#utility.yul\":6748:6767   */\n  swap1\n  pop\n    /* \"#utility.yul\":6407:6773   */\n  swap2\n  swap1\n  pop\n  jump\t// out\n    /* \"#utility.yul\":6779:7198   */\ntag_14:\n    /* \"#utility.yul\":6945:6949   */\n  0x00\n    /* \"#utility.yul\":6983:6985   */\n  0x20\n    /* \"#utility.yul\":6972:6981   */\n  dup3\n    /* \"#utility.yul\":6968:6986   */\n  add\n    /* \"#utility.yul\":6960:6986   */\n  swap1\n  pop\n    /* \"#utility.yul\":7032:7041   */\n  dup2\n    /* \"#utility.yul\":7026:7030   */\n  dup2\n    /* \"#utility.yul\":7022:7042   */\n  sub\n    /* \"#utility.yul\":7018:7019   */\n  0x00\n    /* \"#utility.yul\":7007:7016   */\n  dup4\n    /* \"#utility.yul\":7003:7020   */\n  add\n    /* \"#utility.yul\":6996:7043   */\n  mstore\n    /* \"#utility.yul\":7060:7191   */\n  tag_145\n    /* \"#utility.yul\":7186:7190   */\n  dup2\n    /* \"#utility.yul\":7060:7191   */\n  tag_56\n  jump\t// in\ntag_145:\n    /* \"#utility.yul\":7052:7191   */\n  swap1\n  pop\n    /* \"#utility.yul\":6779:7198   */\n  swap2\n  swap1\n  pop\n  jump\t// out\n    /* \"#utility.yul\":7204:7384   */\ntag_17:\n    /* \"#utility.yul\":7252:7329   */\n  0x4e487b7100000000000000000000000000000000000000000000000000000000\n    /* \"#utility.yul\":7249:7250   */\n  0x00\n    /* \"#utility.yul\":7242:7330   */\n  mstore\n    /* \"#utility.yul\":7349:7353   */\n  0x21\n    /* \"#utility.yul\":7346:7347   */\n  0x04\n    /* \"#utility.yul\":7339:7354   */\n  mstore\n    /* \"#utility.yul\":7373:7377   */\n  0x24\n    /* \"#utility.yul\":7370:7371   */\n  0x00\n    /* \"#utility.yul\":7363:7378   */\n  revert\n    /* \"#utility.yul\":7390:7489   */\ntag_57:\n    /* \"#utility.yul\":7442:7448   */\n  0x00\n    /* \"#utility.yul\":7476:7481   */\n  dup2\n    /* \"#utility.yul\":7470:7482   */\n  mload\n    /* \"#utility.yul\":7460:7482   */\n  swap1\n  pop\n    /* \"#utility.yul\":7390:7489   */\n  swap2\n  swap1\n  pop\n  jump\t// out\n    /* \"#utility.yul\":7495:7675   */\ntag_58:\n    /* \"#utility.yul\":7543:7620   */\n  0x4e487b7100000000000000000000000000000000000000000000000000000000\n    /* \"#utility.yul\":7540:7541   */\n  0x00\n    /* \"#utility.yul\":7533:7621   */\n  mstore\n    /* \"#utility.yul\":7640:7644   */\n  0x22\n    /* \"#utility.yul\":7637:7638   */\n  0x04\n    /* \"#utility.yul\":7630:7645   */\n  mstore\n    /* \"#utility.yul\":7664:7668   */\n  0x24\n    /* \"#utility.yul\":7661:7662   */\n  0x00\n    /* \"#utility.yul\":7654:7669   */\n  revert\n    /* \"#utility.yul\":7681:8001   */\ntag_59:\n    /* \"#utility.yul\":7725:7731   */\n  0x00\n    /* \"#utility.yul\":7762:7763   */\n  0x02\n    /* \"#utility.yul\":7756:7760   */\n  dup3\n    /* \"#utility.yul\":7752:7764   */\n  div\n    /* \"#utility.yul\":7742:7764   */\n  swap1\n  pop\n    /* \"#utility.yul\":7809:7810   */\n  0x01\n    /* \"#utility.yul\":7803:7807   */\n  dup3\n    /* \"#utility.yul\":7799:7811   */\n  and\n    /* \"#utility.yul\":7830:7848   */\n  dup1\n    /* \"#utility.yul\":7820:7901   */\n  tag_150\n  jumpi\n    /* \"#utility.yul\":7886:7890   */\n  0x7f\n    /* \"#utility.yul\":7878:7884   */\n  dup3\n    /* \"#utility.yul\":7874:7891   */\n  and\n    /* \"#utility.yul\":7864:7891   */\n  swap2\n  pop\n    /* \"#utility.yul\":7820:7901   */\ntag_150:\n    /* \"#utility.yul\":7948:7950   */\n  0x20\n    /* \"#utility.yul\":7940:7946   */\n  dup3\n    /* \"#utility.yul\":7937:7951   */\n  lt\n    /* \"#utility.yul\":7917:7935   */\n  dup2\n    /* \"#utility.yul\":7914:7952   */\n  sub\n    /* \"#utility.yul\":7911:7995   */\n  tag_151\n  jumpi\n    /* \"#utility.yul\":7967:7985   */\n  tag_152\n  tag_58\n  jump\t// in\ntag_152:\n    /* \"#utility.yul\":7911:7995   */\ntag_151:\n    /* \"#utility.yul\":7732:8001   */\n  pop\n    /* \"#utility.yul\":7681:8001   */\n  swap2\n  swap1\n  pop\n  jump\t// out\n    /* \"#utility.yul\":8007:8148   */\ntag_60:\n    /* \"#utility.yul\":8056:8060   */\n  0x00\n    /* \"#utility.yul\":8079:8082   */\n  dup2\n    /* \"#utility.yul\":8071:8082   */\n  swap1\n  pop\n    /* \"#utility.yul\":8102:8105   */\n  dup2\n    /* \"#utility.yul\":8099:8100   */\n  0x00\n    /* \"#utility.yul\":8092:8106   */\n  mstore\n    /* \"#utility.yul\":8136:8140   */\n  0x20\n    /* \"#utility.yul\":8133:8134   */\n  0x00\n    /* \"#utility.yul\":8123:8141   */\n  keccak256\n    /* \"#utility.yul\":8115:8141   */\n  swap1\n  pop\n    /* \"#utility.yul\":8007:8148   */\n  swap2\n  swap1\n  pop\n  jump\t// out\n    /* \"#utility.yul\":8154:8247   */\ntag_61:\n    /* \"#utility.yul\":8191:8197   */\n  0x00\n    /* \"#utility.yul\":8238:8240   */\n  0x20\n    /* \"#utility.yul\":8233:8235   */\n  0x1f\n    /* \"#utility.yul\":8226:8231   */\n  dup4\n    /* \"#utility.yul\":8222:8236   */\n  add\n    /* \"#utility.yul\":8218:8241   */\n  div\n    /* \"#utility.yul\":8208:8241   */\n  swap1\n  pop\n    /* \"#utility.yul\":8154:8247   */\n  swap2\n  swap1\n  pop\n  jump\t// out\n    /* \"#utility.yul\":8253:8360   */\ntag_62:\n    /* \"#utility.yul\":8297:8305   */\n  0x00\n    /* \"#utility.yul\":8347:8352   */\n  dup3\n    /* \"#utility.yul\":8341:8345   */\n  dup3\n    /* \"#utility.yul\":8337:8353   */\n  shl\n    /* \"#utility.yul\":8316:8353   */\n  swap1\n  pop\n    /* \"#utility.yul\":8253:8360   */\n  swap3\n  swap2\n  pop\n  pop\n  jump\t// out\n    /* \"#utility.yul\":8366:8759   */\ntag_63:\n    /* \"#utility.yul\":8435:8441   */\n  0x00\n    /* \"#utility.yul\":8485:8486   */\n  0x08\n    /* \"#utility.yul\":8473:8483   */\n  dup4\n    /* \"#utility.yul\":8469:8487   */\n  mul\n    /* \"#utility.yul\":8508:8605   */\n  tag_157\n    /* \"#utility.yul\":8538:8604   */\n  0xffffffffffffffffffffffffffffffffffffffffffffffffffffffffffffffff\n    /* \"#utility.yul\":8527:8536   */\n  dup3\n    /* \"#utility.yul\":8508:8605   */\n  tag_62\n  jump\t// in\ntag_157:\n    /* \"#utility.yul\":8626:8665   */\n  tag_158\n    /* \"#utility.yul\":8656:8664   */\n  dup7\n    /* \"#utility.yul\":8645:8654   */\n  dup4\n    /* \"#utility.yul\":8626:8665   */\n  tag_62\n  jump\t// in\ntag_158:\n    /* \"#utility.yul\":8614:8665   */\n  swap6\n  pop\n    /* \"#utility.yul\":8698:8702   */\n  dup1\n    /* \"#utility.yul\":8694:8703   */\n  not\n    /* \"#utility.yul\":8687:8692   */\n  dup5\n    /* \"#utility.yul\":8683:8704   */\n  and\n    /* \"#utility.yul\":8674:8704   */\n  swap4\n  pop\n    /* \"#utility.yul\":8747:8751   */\n  dup1\n    /* \"#utility.yul\":8737:8745   */\n  dup7\n    /* \"#utility.yul\":8733:8752   */\n  and\n    /* \"#utility.yul\":8726:8731   */\n  dup5\n    /* \"#utility.yul\":8723:8753   */\n  or\n    /* \"#utility.yul\":8713:8753   */\n  swap3\n  pop\n    /* \"#utility.yul\":8442:8759   */\n  pop\n  pop\n    /* \"#utility.yul\":8366:8759   */\n  swap4\n  swap3\n  pop\n  pop\n  pop\n  jump\t// out\n    /* \"#utility.yul\":8765:8825   */\ntag_64:\n    /* \"#utility.yul\":8793:8796   */\n  0x00\n    /* \"#utility.yul\":8814:8819   */\n  dup2\n    /* \"#utility.yul\":8807:8819   */\n  swap1\n  pop\n    /* \"#utility.yul\":8765:8825   */\n  swap2\n  swap1\n  pop\n  jump\t// out\n    /* \"#utility.yul\":8831:8973   */\ntag_65:\n    /* \"#utility.yul\":8881:8890   */\n  0x00\n    /* \"#utility.yul\":8914:8967   */\n  tag_161\n    /* \"#utility.yul\":8932:8966   */\n  tag_162\n    /* \"#utility.yul\":8941:8965   */\n  tag_163\n    /* \"#utility.yul\":8959:8964   */\n  dup5\n    /* \"#utility.yul\":8941:8965   */\n  tag_49\n  jump\t// in\ntag_163:\n    /* \"#utility.yul\":8932:8966   */\n  tag_64\n  jump\t// in\ntag_162:\n    /* \"#utility.yul\":8914:8967   */\n  tag_49\n  jump\t// in\ntag_161:\n    /* \"#utility.yul\":8901:8967   */\n  swap1\n  pop\n    /* \"#utility.yul\":8831:8973   */\n  swap2\n  swap1\n  pop\n  jump\t// out\n    /* \"#utility.yul\":8979:9054   */\ntag_66:\n    /* \"#utility.yul\":9022:9025   */\n  0x00\n    /* \"#utility.yul\":9043:9048   */\n  dup2\n    /* \"#utility.yul\":9036:9048   */\n  swap1\n  pop\n    /* \"#utility.yul\":8979:9054   */\n  swap2\n  swap1\n  pop\n  jump\t// out\n    /* \"#utility.yul\":9060:9329   */\ntag_67:\n    /* \"#utility.yul\":9170:9209   */\n  tag_166\n    /* \"#utility.yul\":9201:9208   */\n  dup4\n    /* \"#utility.yul\":9170:9209   */\n  tag_65\n  jump\t// in\ntag_166:\n    /* \"#utility.yul\":9231:9322   */\n  tag_167\n    /* \"#utility.yul\":9280:9321   */\n  tag_168\n    /* \"#utility.yul\":9304:9320   */\n  dup3\n    /* \"#utility.yul\":9280:9321   */\n  tag_66\n  jump\t// in\ntag_168:\n    /* \"#utility.yul\":9272:9278   */\n  dup5\n    /* \"#utility.yul\":9265:9269   */\n  dup5\n    /* \"#utility.yul\":9259:9270   */\n  sload\n    /* \"#utility.yul\":9231:9322   */\n  tag_63\n  jump\t// in\ntag_167:\n    /* \"#utility.yul\":9225:9229   */\n  dup3\n    /* \"#utility.yul\":9218:9323   */\n  sstore\n    /* \"#utility.yul\":9136:9329   */\n  pop\n    /* \"#utility.yul\":9060:9329   */\n  pop\n  pop\n  pop\n  jump\t// out\n    /* \"#utility.yul\":9335:9408   */\ntag_68:\n    /* \"#utility.yul\":9380:9383   */\n  0x00\n    /* \"#utility.yul\":9401:9402   */\n  0x00\n    /* \"#utility.yul\":9394:9402   */\n  swap1\n  pop\n    /* \"#utility.yul\":9335:9408   */\n  swap1\n  jump\t// out\n    /* \"#utility.yul\":9414:9603   */\ntag_69:\n    /* \"#utility.yul\":9491:9523   */\n  tag_171\n  tag_68\n  jump\t// in\ntag_171:\n    /* \"#utility.yul\":9532:9597   */\n  tag_172\n    /* \"#utility.yul\":9590:9596   */\n  dup2\n    /* \"#utility.yul\":9582:9588   */\n  dup5\n    /* \"#utility.yul\":9576:9580   */\n  dup5\n    /* \"#utility.yul\":9532:9597   */\n  tag_67\n  jump\t// in\ntag_172:\n    /* \"#utility.yul\":9467:9603   */\n  pop\n    /* \"#utility.yul\":9414:9603   */\n  pop\n  pop\n  jump\t// out\n    /* \"#utility.yul\":9609:9795   */\ntag_70:\n    /* \"#utility.yul\":9669:9789   */\ntag_174:\n    /* \"#utility.yul\":9686:9689   */\n  dup2\n    /* \"#utility.yul\":9679:9684   */\n  dup2\n    /* \"#utility.yul\":9676:9690   */\n  lt\n    /* \"#utility.yul\":9669:9789   */\n  iszero\n  tag_176\n  jumpi\n    /* \"#utility.yul\":9740:9779   */\n  tag_177\n    /* \"#utility.yul\":9777:9778   */\n  0x00\n    /* \"#utility.yul\":9770:9775   */\n  dup3\n    /* \"#utility.yul\":9740:9779   */\n  tag_69\n  jump\t// in\ntag_177:\n    /* \"#utility.yul\":9713:9714   */\n  0x01\n    /* \"#utility.yul\":9706:9711   */\n  dup2\n    /* \"#utility.yul\":9702:9715   */\n  add\n    /* \"#utility.yul\":9693:9715   */\n  swap1\n  pop\n    /* \"#utility.yul\":9669:9789   */\n  jump(tag_174)\ntag_176:\n    /* \"#utility.yul\":9609:9795   */\n  pop\n  pop\n  jump\t// out\n    /* \"#utility.yul\":9801:10344   */\ntag_71:\n    /* \"#utility.yul\":9902:9904   */\n  0x1f\n    /* \"#utility.yul\":9897:9900   */\n  dup3\n    /* \"#utility.yul\":9894:9905   */\n  gt\n    /* \"#utility.yul\":9891:10337   */\n  iszero\n  tag_179\n  jumpi\n    /* \"#utility.yul\":9936:9974   */\n  tag_180\n    /* \"#utility.yul\":9968:9973   */\n  dup2\n    /* \"#utility.yul\":9936:9974   */\n  tag_60\n  jump\t// in\ntag_180:\n    /* \"#utility.yul\":10020:10049   */\n  tag_181\n    /* \"#utility.yul\":10038:10048   */\n  dup5\n    /* \"#utility.yul\":10020:10049   */\n  tag_61\n  jump\t// in\ntag_181:\n    /* \"#utility.yul\":10010:10018   */\n  dup2\n    /* \"#utility.yul\":10006:10050   */\n  add\n    /* \"#utility.yul\":10203:10205   */\n  0x20\n    /* \"#utility.yul\":10191:10201   */\n  dup6\n    /* \"#utility.yul\":10188:10206   */\n  lt\n    /* \"#utility.yul\":10185:10234   */\n  iszero\n  tag_182\n  jumpi\n    /* \"#utility.yul\":10224:10232   */\n  dup2\n    /* \"#utility.yul\":10209:10232   */\n  swap1\n  pop\n    /* \"#utility.yul\":10185:10234   */\ntag_182:\n    /* \"#utility.yul\":10247:10327   */\n  tag_183\n    /* \"#utility.yul\":10303:10325   */\n  tag_184\n    /* \"#utility.yul\":10321:10324   */\n  dup6\n    /* \"#utility.yul\":10303:10325   */\n  tag_61\n  jump\t// in\ntag_184:\n    /* \"#utility.yul\":10293:10301   */\n  dup4\n    /* \"#utility.yul\":10289:10326   */\n  add\n    /* \"#utility.yul\":10276:10287   */\n  dup3\n    /* \"#utility.yul\":10247:10327   */\n  tag_70\n  jump\t// in\ntag_183:\n    /* \"#utility.yul\":9906:10337   */\n  pop\n  pop\n    /* \"#utility.yul\":9891:10337   */\ntag_179:\n    /* \"#utility.yul\":9801:10344   */\n  pop\n  pop\n  pop\n  jump\t// out\n    /* \"#utility.yul\":10350:10467   */\ntag_72:\n    /* \"#utility.yul\":10404:10412   */\n  0x00\n    /* \"#utility.yul\":10454:10459   */\n  dup3\n    /* \"#utility.yul\":10448:10452   */\n  dup3\n    /* \"#utility.yul\":10444:10460   */\n  shr\n    /* \"#utility.yul\":10423:10460   */\n  swap1\n  pop\n    /* \"#utility.yul\":10350:10467   */\n  swap3\n  swap2\n  pop\n  pop\n  jump\t// out\n    /* \"#utility.yul\":10473:10642   */\ntag_73:\n    /* \"#utility.yul\":10517:10523   */\n  0x00\n    /* \"#utility.yul\":10550:10601   */\n  tag_187\n    /* \"#utility.yul\":10598:10599   */\n  0x00\n    /* \"#utility.yul\":10594:10600   */\n  not\n    /* \"#utility.yul\":10586:10591   */\n  dup5\n    /* \"#utility.yul\":10583:10584   */\n  0x08\n    /* \"#utility.yul\":10579:10592   */\n  mul\n    /* \"#utility.yul\":10550:10601   */\n  tag_72\n  jump\t// in\ntag_187:\n    /* \"#utility.yul\":10546:10602   */\n  not\n    /* \"#utility.yul\":10631:10635   */\n  dup1\n    /* \"#utility.yul\":10625:10629   */\n  dup4\n    /* \"#utility.yul\":10621:10636   */\n  and\n    /* \"#utility.yul\":10611:10636   */\n  swap2\n  pop\n    /* \"#utility.yul\":10524:10642   */\n  pop\n    /* \"#utility.yul\":10473:10642   */\n  swap3\n  swap2\n  pop\n  pop\n  jump\t// out\n    /* \"#utility.yul\":10647:10942   */\ntag_74:\n    /* \"#utility.yul\":10723:10727   */\n  0x00\n    /* \"#utility.yul\":10869:10898   */\n  tag_189\n    /* \"#utility.yul\":10894:10897   */\n  dup4\n    /* \"#utility.yul\":10888:10892   */\n  dup4\n    /* \"#utility.yul\":10869:10898   */\n  tag_73\n  jump\t// in\ntag_189:\n    /* \"#utility.yul\":10861:10898   */\n  swap2\n  pop\n    /* \"#utility.yul\":10931:10934   */\n  dup3\n    /* \"#utility.yul\":10928:10929   */\n  0x02\n    /* \"#utility.yul\":10924:10935   */\n  mul\n    /* \"#utility.yul\":10918:10922   */\n  dup3\n    /* \"#utility.yul\":10915:10936   */\n  or\n    /* \"#utility.yul\":10907:10936   */\n  swap1\n  pop\n    /* \"#utility.yul\":10647:10942   */\n  swap3\n  swap2\n  pop\n  pop\n  jump\t// out\n    /* \"#utility.yul\":10947:12342   */\ntag_19:\n    /* \"#utility.yul\":11064:11101   */\n  tag_191\n    /* \"#utility.yul\":11097:11100   */\n  dup3\n    /* \"#utility.yul\":11064:11101   */\n  tag_57\n  jump\t// in\ntag_191:\n    /* \"#utility.yul\":11166:11184   */\n  0xffffffffffffffff\n    /* \"#utility.yul\":11158:11164   */\n  dup2\n    /* \"#utility.yul\":11155:11185   */\n  gt\n    /* \"#utility.yul\":11152:11208   */\n  iszero\n  tag_192\n  jumpi\n    /* \"#utility.yul\":11188:11206   */\n  tag_193\n  tag_42\n  jump\t// in\ntag_193:\n    /* \"#utility.yul\":11152:11208   */\ntag_192:\n    /* \"#utility.yul\":11232:11270   */\n  tag_194\n    /* \"#utility.yul\":11264:11268   */\n  dup3\n    /* \"#utility.yul\":11258:11269   */\n  sload\n    /* \"#utility.yul\":11232:11270   */\n  tag_59\n  jump\t// in\ntag_194:\n    /* \"#utility.yul\":11317:11384   */\n  tag_195\n    /* \"#utility.yul\":11377:11383   */\n  dup3\n    /* \"#utility.yul\":11369:11375   */\n  dup3\n    /* \"#utility.yul\":11363:11367   */\n  dup6\n    /* \"#utility.yul\":11317:11384   */\n  tag_71\n  jump\t// in\ntag_195:\n    /* \"#utility.yul\":11411:11412   */\n  0x00\n    /* \"#utility.yul\":11435:11439   */\n  0x20\n    /* \"#utility.yul\":11422:11439   */\n  swap1\n  pop\n    /* \"#utility.yul\":11467:11469   */\n  0x1f\n    /* \"#utility.yul\":11459:11465   */\n  dup4\n    /* \"#utility.yul\":11456:11470   */\n  gt\n    /* \"#utility.yul\":11484:11485   */\n  0x01\n    /* \"#utility.yul\":11479:12097   */\n  dup2\n  eq\n  tag_197\n  jumpi\n    /* \"#utility.yul\":12141:12142   */\n  0x00\n    /* \"#utility.yul\":12158:12164   */\n  dup5\n    /* \"#utility.yul\":12155:12232   */\n  iszero\n  tag_198\n  jumpi\n    /* \"#utility.yul\":12207:12216   */\n  dup3\n    /* \"#utility.yul\":12202:12205   */\n  dup8\n    /* \"#utility.yul\":12198:12217   */\n  add\n    /* \"#utility.yul\":12192:12218   */\n  mload\n    /* \"#utility.yul\":12183:12218   */\n  swap1\n  pop\n    /* \"#utility.yul\":12155:12232   */\ntag_198:\n    /* \"#utility.yul\":12258:12325   */\n  tag_199\n    /* \"#utility.yul\":12318:12324   */\n  dup6\n    /* \"#utility.yul\":12311:12316   */\n  dup3\n    /* \"#utility.yul\":12258:12325   */\n  tag_74\n  jump\t// in\ntag_199:\n    /* \"#utility.yul\":12252:12256   */\n  dup7\n    /* \"#utility.yul\":12245:12326   */\n  sstore\n    /* \"#utility.yul\":12114:12336   */\n  pop\n    /* \"#utility.yul\":11449:12336   */\n  jump(tag_196)\n    /* \"#utility.yul\":11479:12097   */\ntag_197:\n    /* \"#utility.yul\":11531:11535   */\n  0x1f\n    /* \"#utility.yul\":11527:11536   */\n  not\n    /* \"#utility.yul\":11519:11525   */\n  dup5\n    /* \"#utility.yul\":11515:11537   */\n  and\n    /* \"#utility.yul\":11565:11602   */\n  tag_200\n    /* \"#utility.yul\":11597:11601   */\n  dup7\n    /* \"#utility.yul\":11565:11602   */\n  tag_60\n  jump\t// in\ntag_200:\n    /* \"#utility.yul\":11624:11625   */\n  0x00\n    /* \"#utility.yul\":11638:11846   */\ntag_201:\n    /* \"#utility.yul\":11652:11659   */\n  dup3\n    /* \"#utility.yul\":11649:11650   */\n  dup2\n    /* \"#utility.yul\":11646:11660   */\n  lt\n    /* \"#utility.yul\":11638:11846   */\n  iszero\n  tag_203\n  jumpi\n    /* \"#utility.yul\":11731:11740   */\n  dup5\n    /* \"#utility.yul\":11726:11729   */\n  dup10\n    /* \"#utility.yul\":11722:11741   */\n  add\n    /* \"#utility.yul\":11716:11742   */\n  mload\n    /* \"#utility.yul\":11708:11714   */\n  dup3\n    /* \"#utility.yul\":11701:11743   */\n  sstore\n    /* \"#utility.yul\":11782:11783   */\n  0x01\n    /* \"#utility.yul\":11774:11780   */\n  dup3\n    /* \"#utility.yul\":11770:11784   */\n  add\n    /* \"#utility.yul\":11760:11784   */\n  swap2\n  pop\n    /* \"#utility.yul\":11829:11831   */\n  0x20\n    /* \"#utility.yul\":11818:11827   */\n  dup6\n    /* \"#utility.yul\":11814:11832   */\n  add\n    /* \"#utility.yul\":11801:11832   */\n  swap5\n  pop\n    /* \"#utility.yul\":11675:11679   */\n  0x20\n    /* \"#utility.yul\":11672:11673   */\n  dup2\n    /* \"#utility.yul\":11668:11680   */\n  add\n    /* \"#utility.yul\":11663:11680   */\n  swap1\n  pop\n    /* \"#utility.yul\":11638:11846   */\n  jump(tag_201)\ntag_203:\n    /* \"#utility.yul\":11874:11880   */\n  dup7\n    /* \"#utility.yul\":11865:11872   */\n  dup4\n    /* \"#utility.yul\":11862:11881   */\n  lt\n    /* \"#utility.yul\":11859:12038   */\n  iszero\n  tag_204\n  jumpi\n    /* \"#utility.yul\":11932:11941   */\n  dup5\n    /* \"#utility.yul\":11927:11930   */\n  dup10\n    /* \"#utility.yul\":11923:11942   */\n  add\n    /* \"#utility.yul\":11917:11943   */\n  mload\n    /* \"#utility.yul\":11975:12023   */\n  tag_205\n    /* \"#utility.yul\":12017:12021   */\n  0x1f\n    /* \"#utility.yul\":12009:12015   */\n  dup10\n    /* \"#utility.yul\":12005:12022   */\n  and\n    /* \"#utility.yul\":11994:12003   */\n  dup3\n    /* \"#utility.yul\":11975:12023   */\n  tag_73\n  jump\t// in\ntag_205:\n    /* \"#utility.yul\":11967:11973   */\n  dup4\n    /* \"#utility.yul\":11960:12024   */\n  sstore\n    /* \"#utility.yul\":11882:12038   */\n  pop\n    /* \"#utility.yul\":11859:12038   */\ntag_204:\n    /* \"#utility.yul\":12084:12085   */\n  0x01\n    /* \"#utility.yul\":12080:12081   */\n  0x02\n    /* \"#utility.yul\":12072:12078   */\n  dup9\n    /* \"#utility.yul\":12068:12082   */\n  mul\n    /* \"#utility.yul\":12064:12086   */\n  add\n    /* \"#utility.yul\":12058:12062   */\n  dup9\n    /* \"#utility.yul\":12051:12087   */\n  sstore\n    /* \"#utility.yul\":11486:12097   */\n  pop\n  pop\n  pop\n    /* \"#utility.yul\":11449:12336   */\ntag_196:\n  pop\n    /* \"#utility.yul\":11039:12342   */\n  pop\n  pop\n  pop\n    /* \"#utility.yul\":10947:12342   */\n  pop\n  pop\n  jump\t// out\n    /* \"contractGen.sol\":228:6926  contract PrestacaoServicoSeguro is ReentrancyGuard {... */\ntag_31:\n  dataSize(sub_0)\n  dup1\n  dataOffset(sub_0)\n  0x00\n  codecopy\n  0x00\n  return\nstop\n\nsub_0: assembly {\n        /* \"contractGen.sol\":228:6926  contract PrestacaoServicoSeguro is ReentrancyGuard {... */\n      mstore(0x40, 0x80)\n      jumpi(tag_1, lt(calldatasize, 0x04))\n      shr(0xe0, calldataload(0x00))\n      dup1\n      0x815085d9\n      gt\n      tag_13\n      jumpi\n      dup1\n      0x815085d9\n      eq\n      tag_7\n      jumpi\n      dup1\n      0x8bb5db74\n      eq\n      tag_8\n      jumpi\n      dup1\n      0xc598bddf\n      eq\n      tag_9\n      jumpi\n      dup1\n      0xd2fdb0ee\n      eq\n      tag_10\n      jumpi\n      dup1\n      0xe427938f\n      eq\n      tag_11\n      jumpi\n      dup1\n      0xfb3d968c\n      eq\n      tag_12\n      jumpi\n      jump(tag_1)\n    tag_13:\n      dup1\n      0x0d23ce1a\n      eq\n      tag_2\n      jumpi\n      dup1\n      0x1224addd\n      eq\n      tag_3\n      jumpi\n      dup1\n      0x2d22fd0b\n      eq\n      tag_4\n      jumpi\n      dup1\n      0x4e69d560\n      eq\n      tag_5\n      jumpi\n      dup1\n      0x57d46729\n      eq\n      tag_6\n      jumpi\n    tag_1:\n      revert(0x00, 0x00)\n        /* \"contractGen.sol\":4242:4443  function aceitarContrato() public apenasParte {... */\n    tag_2:\n      callvalue\n      dup1\n      iszero\n      tag_14\n      jumpi\n      revert(0x00, 0x00)\n    tag_14:\n      pop\n      tag_15\n      tag_16\n      jump\t// in\n    tag_15:\n      stop\n        /* \"contractGen.sol\":4518:4800  function iniciarServico() public {... */\n    tag_3:\n      callvalue\n      dup1\n      iszero\n      tag_17\n      jumpi\n      revert(0x00, 0x00)\n    tag_17:\n      pop\n      tag_18\n      tag_19\n      jump\t// in\n    tag_18:\n      stop\n        /* \"contractGen.sol\":5497:5935  function pagarServico() public payable nonReentrant apenasContratante {... */\n    tag_4:\n      tag_20\n      tag_21\n      jump\t// in\n    tag_20:\n      stop\n        /* \"contractGen.sol\":6323:6758  function getStatus() public view returns (string memory) {... */\n    tag_5:\n      callvalue\n      dup1\n      iszero\n      tag_22\n      jumpi\n      revert(0x00, 0x00)\n    tag_22:\n      pop\n      tag_23\n      tag_24\n      jump\t// in\n    tag_23:\n      mload(0x40)\n      tag_25\n      swap2\n      swap1\n      tag_26\n      jump\t// in\n    tag_25:\n      mload(0x40)\n      dup1\n      swap2\n      sub\n      swap1\n      return\n        /* \"contractGen.sol\":4872:5089  function concluirServico() public apenasContratado {... */\n    tag_6:\n      callvalue\n      dup1\n      iszero\n      tag_27\n      jumpi\n      revert(0x00, 0x00)\n    tag_27:\n      pop\n      tag_28\n      tag_29\n      jump\t// in\n    tag_28:\n      stop\n        /* \"contractGen.sol\":5177:5421  function reconhecerJuridicamente() public apenasAdvogado {... */\n    tag_7:\n      callvalue\n      dup1\n      iszero\n      tag_30\n      jumpi\n      revert(0x00, 0x00)\n    tag_30:\n      pop\n      tag_31\n      tag_32\n      jump\t// in\n    tag_31:\n      stop\n        /* \"contractGen.sol\":6027:6261  function cancelarContrato() public apenasParte {... */\n    tag_8:\n      callvalue\n      dup1\n      iszero\n      tag_33\n      jumpi\n      revert(0x00, 0x00)\n    tag_33:\n      pop\n      tag_34\n      tag_35\n      jump\t// in\n    tag_34:\n      stop\n        /* \"contractGen.sol\":1601:1629  address[] public listaPartes */\n    tag_9:\n      callvalue\n      dup1\n      iszero\n      tag_36\n      jumpi\n      revert(0x00, 0x00)\n    tag_36:\n      pop\n      tag_37\n      0x04\n      dup1\n      calldatasize\n      sub\n      dup2\n      add\n      swap1\n      tag_38\n      swap2\n      swap1\n      tag_39\n      jump\t// in\n    tag_38:\n      tag_40\n      jump\t// in\n    tag_37:\n      mload(0x40)\n      tag_41\n      swap2\n      swap1\n      tag_42\n      jump\t// in\n    tag_41:\n      mload(0x40)\n      dup1\n      swap2\n      sub\n      swap1\n      return\n        /* \"contractGen.sol\":1519:1558  mapping(address => Parte) public partes */\n    tag_10:\n      callvalue\n      dup1\n      iszero\n      tag_43\n      jumpi\n      revert(0x00, 0x00)\n    tag_43:\n      pop\n      tag_44\n      0x04\n      dup1\n      calldatasize\n      sub\n      dup2\n      add\n      swap1\n      tag_45\n      swap2\n      swap1\n      tag_46\n      jump\t// in\n    tag_45:\n      tag_47\n      jump\t// in\n    tag_44:\n      mload(0x40)\n      tag_48\n      swap4\n      swap3\n      swap2\n      swap1\n      tag_49\n      jump\t// in\n    tag_48:\n      mload(0x40)\n      dup1\n      swap2\n      sub\n      swap1\n      return\n        /* \"contractGen.sol\":6814:6923  function getLinkTermos() public view returns (string memory) {... */\n    tag_11:\n      callvalue\n      dup1\n      iszero\n      tag_50\n      jumpi\n      revert(0x00, 0x00)\n    tag_50:\n      pop\n      tag_51\n      tag_52\n      jump\t// in\n    tag_51:\n      mload(0x40)\n      tag_53\n      swap2\n      swap1\n      tag_26\n      jump\t// in\n    tag_53:\n      mload(0x40)\n      dup1\n      swap2\n      sub\n      swap1\n      return\n        /* \"contractGen.sol\":1457:1479  Servico public servico */\n    tag_12:\n      callvalue\n      dup1\n      iszero\n      tag_54\n      jumpi\n      revert(0x00, 0x00)\n    tag_54:\n      pop\n      tag_55\n      tag_56\n      jump\t// in\n    tag_55:\n      mload(0x40)\n      tag_57\n      swap10\n      swap9\n      swap8\n      swap7\n      swap6\n      swap5\n      swap4\n      swap3\n      swap2\n      swap1\n      tag_58\n      jump\t// in\n    tag_57:\n      mload(0x40)\n      dup1\n      swap2\n      sub\n      swap1\n      return\n        /* \"contractGen.sol\":4242:4443  function aceitarContrato() public apenasParte {... */\n    tag_16:\n        /* \"contractGen.sol\":3524:3525  0 */\n      0x00\n        /* \"contractGen.sol\":3485:3526  partes[msg.sender].carteira != address(0) */\n      0xffffffffffffffffffffffffffffffffffffffff\n      and\n        /* \"contractGen.sol\":3485:3491  partes */\n      0x08\n        /* \"contractGen.sol\":3485:3503  partes[msg.sender] */\n      0x00\n        /* \"contractGen.sol\":3492:3502  msg.sender */\n      caller\n        /* \"contractGen.sol\":3485:3503  partes[msg.sender] */\n      0xffffffffffffffffffffffffffffffffffffffff\n      and\n      0xffffffffffffffffffffffffffffffffffffffff\n      and\n      dup2\n      mstore\n      0x20\n      add\n      swap1\n      dup2\n      mstore\n      0x20\n      add\n      0x00\n      keccak256\n        /* \"contractGen.sol\":3485:3512  partes[msg.sender].carteira */\n      0x00\n      add\n      0x00\n      swap1\n      sload\n      swap1\n      0x0100\n      exp\n      swap1\n      div\n      0xffffffffffffffffffffffffffffffffffffffff\n      and\n        /* \"contractGen.sol\":3485:3526  partes[msg.sender].carteira != address(0) */\n      0xffffffffffffffffffffffffffffffffffffffff\n      and\n      sub\n        /* \"contractGen.sol\":3477:3545  require(partes[msg.sender].carteira != address(0), \"Nao autorizado\") */\n      tag_60\n      jumpi\n      mload(0x40)\n      0x08c379a000000000000000000000000000000000000000000000000000000000\n      dup2\n      mstore\n      0x04\n      add\n      tag_61\n      swap1\n      tag_62\n      jump\t// in\n    tag_61:\n      mload(0x40)\n      dup1\n      swap2\n      sub\n      swap1\n      revert\n    tag_60:\n        /* \"contractGen.sol\":4308:4314  partes */\n      0x08\n        /* \"contractGen.sol\":4308:4326  partes[msg.sender] */\n      0x00\n        /* \"contractGen.sol\":4315:4325  msg.sender */\n      caller\n        /* \"contractGen.sol\":4308:4326  partes[msg.sender] */\n      0xffffffffffffffffffffffffffffffffffffffff\n      and\n      0xffffffffffffffffffffffffffffffffffffffff\n      and\n      dup2\n      mstore\n      0x20\n      add\n      swap1\n      dup2\n      mstore\n      0x20\n      add\n      0x00\n      keccak256\n        /* \"contractGen.sol\":4308:4334  partes[msg.sender].aceitou */\n      0x02\n      add\n      0x00\n      swap1\n      sload\n      swap1\n      0x0100\n      exp\n      swap1\n      div\n      0xff\n      and\n        /* \"contractGen.sol\":4307:4334  !partes[msg.sender].aceitou */\n      iszero\n        /* \"contractGen.sol\":4299:4349  require(!partes[msg.sender].aceitou, \"Ja aceitou\") */\n      tag_64\n      jumpi\n      mload(0x40)\n      0x08c379a000000000000000000000000000000000000000000000000000000000\n      dup2\n      mstore\n      0x04\n      add\n      tag_65\n      swap1\n      tag_66\n      jump\t// in\n    tag_65:\n      mload(0x40)\n      dup1\n      swap2\n      sub\n      swap1\n      revert\n    tag_64:\n        /* \"contractGen.sol\":4389:4393  true */\n      0x01\n        /* \"contractGen.sol\":4360:4366  partes */\n      0x08\n        /* \"contractGen.sol\":4360:4378  partes[msg.sender] */\n      0x00\n        /* \"contractGen.sol\":4367:4377  msg.sender */\n      caller\n        /* \"contractGen.sol\":4360:4378  partes[msg.sender] */\n      0xffffffffffffffffffffffffffffffffffffffff\n      and\n      0xffffffffffffffffffffffffffffffffffffffff\n      and\n      dup2\n      mstore\n      0x20\n      add\n      swap1\n      dup2\n      mstore\n      0x20\n      add\n      0x00\n      keccak256\n        /* \"contractGen.sol\":4360:4386  partes[msg.sender].aceitou */\n      0x02\n      add\n      0x00\n        /* \"contractGen.sol\":4360:4393  partes[msg.sender].aceitou = true */\n      0x0100\n      exp\n      dup2\n      sload\n      dup2\n      0xff\n      mul\n      not\n      and\n      swap1\n      dup4\n      iszero\n      iszero\n      mul\n      or\n      swap1\n      sstore\n      pop\n        /* \"contractGen.sol\":4409:4435  ContratoAceito(msg.sender) */\n      0xc14e04b51f707eaeb882e09f0ae64950e76fd067c25d942f53011379c98158d8\n        /* \"contractGen.sol\":4424:4434  msg.sender */\n      caller\n        /* \"contractGen.sol\":4409:4435  ContratoAceito(msg.sender) */\n      mload(0x40)\n      tag_67\n      swap2\n      swap1\n      tag_42\n      jump\t// in\n    tag_67:\n      mload(0x40)\n      dup1\n      swap2\n      sub\n      swap1\n      log1\n        /* \"contractGen.sol\":4242:4443  function aceitarContrato() public apenasParte {... */\n      jump\t// out\n        /* \"contractGen.sol\":4518:4800  function iniciarServico() public {... */\n    tag_19:\n        /* \"contractGen.sol\":4570:4576  partes */\n      0x08\n        /* \"contractGen.sol\":4570:4597  partes[servico.contratante] */\n      0x00\n        /* \"contractGen.sol\":4577:4584  servico */\n      0x01\n        /* \"contractGen.sol\":4577:4596  servico.contratante */\n      0x03\n      add\n      0x00\n      swap1\n      sload\n      swap1\n      0x0100\n      exp\n      swap1\n      div\n      0xffffffffffffffffffffffffffffffffffffffff\n      and\n        /* \"contractGen.sol\":4570:4597  partes[servico.contratante] */\n      0xffffffffffffffffffffffffffffffffffffffff\n      and\n      0xffffffffffffffffffffffffffffffffffffffff\n      and\n      dup2\n      mstore\n      0x20\n      add\n      swap1\n      dup2\n      mstore\n      0x20\n      add\n      0x00\n      keccak256\n        /* \"contractGen.sol\":4570:4605  partes[servico.contratante].aceitou */\n      0x02\n      add\n      0x00\n      swap1\n      sload\n      swap1\n      0x0100\n      exp\n      swap1\n      div\n      0xff\n      and\n        /* \"contractGen.sol\":4562:4633  require(partes[servico.contratante].aceitou, \"Contratante nao aceitou\") */\n      tag_69\n      jumpi\n      mload(0x40)\n      0x08c379a000000000000000000000000000000000000000000000000000000000\n      dup2\n      mstore\n      0x04\n      add\n      tag_70\n      swap1\n      tag_71\n      jump\t// in\n    tag_70:\n      mload(0x40)\n      dup1\n      swap2\n      sub\n      swap1\n      revert\n    tag_69:\n        /* \"contractGen.sol\":4652:4658  partes */\n      0x08\n        /* \"contractGen.sol\":4652:4678  partes[servico.contratado] */\n      0x00\n        /* \"contractGen.sol\":4659:4666  servico */\n      0x01\n        /* \"contractGen.sol\":4659:4677  servico.contratado */\n      0x02\n      add\n      0x01\n      swap1\n      sload\n      swap1\n      0x0100\n      exp\n      swap1\n      div\n      0xffffffffffffffffffffffffffffffffffffffff\n      and\n        /* \"contractGen.sol\":4652:4678  partes[servico.contratado] */\n      0xffffffffffffffffffffffffffffffffffffffff\n      and\n      0xffffffffffffffffffffffffffffffffffffffff\n      and\n      dup2\n      mstore\n      0x20\n      add\n      swap1\n      dup2\n      mstore\n      0x20\n      add\n      0x00\n      keccak256\n        /* \"contractGen.sol\":4652:4686  partes[servico.contratado].aceitou */\n      0x02\n      add\n      0x00\n      swap1\n      sload\n      swap1\n      0x0100\n      exp\n      swap1\n      div\n      0xff\n      and\n        /* \"contractGen.sol\":4644:4713  require(partes[servico.contratado].aceitou, \"Contratado nao aceitou\") */\n      tag_72\n      jumpi\n      mload(0x40)\n      0x08c379a000000000000000000000000000000000000000000000000000000000\n      dup2\n      mstore\n      0x04\n      add\n      tag_73\n      swap1\n      tag_74\n      jump\t// in\n    tag_73:\n      mload(0x40)\n      dup1\n      swap2\n      sub\n      swap1\n      revert\n    tag_72:\n        /* \"contractGen.sol\":4741:4759  Status.EmAndamento */\n      0x02\n        /* \"contractGen.sol\":4724:4731  servico */\n      0x01\n        /* \"contractGen.sol\":4724:4738  servico.status */\n      0x02\n      add\n      0x00\n        /* \"contractGen.sol\":4724:4759  servico.status = Status.EmAndamento */\n      0x0100\n      exp\n      dup2\n      sload\n      dup2\n      0xff\n      mul\n      not\n      and\n      swap1\n      dup4\n      0x04\n      dup2\n      gt\n      iszero\n      tag_75\n      jumpi\n      tag_76\n      tag_77\n      jump\t// in\n    tag_76:\n    tag_75:\n      mul\n      or\n      swap1\n      sstore\n      pop\n        /* \"contractGen.sol\":4775:4792  ServicoIniciado() */\n      0x0671b112441f25ed92197fa8fa5573635a1cbcd9aa50582c4cf0f57527002db6\n      mload(0x40)\n      mload(0x40)\n      dup1\n      swap2\n      sub\n      swap1\n      log1\n        /* \"contractGen.sol\":4518:4800  function iniciarServico() public {... */\n      jump\t// out\n        /* \"contractGen.sol\":5497:5935  function pagarServico() public payable nonReentrant apenasContratante {... */\n    tag_21:\n        /* \"@openzeppelin/contracts/security/ReentrancyGuard.sol\":2261:2282  _nonReentrantBefore() */\n      tag_79\n        /* \"@openzeppelin/contracts/security/ReentrancyGuard.sol\":2261:2280  _nonReentrantBefore */\n      tag_80\n        /* \"@openzeppelin/contracts/security/ReentrancyGuard.sol\":2261:2282  _nonReentrantBefore() */\n      jump\t// in\n    tag_79:\n        /* \"contractGen.sol\":4085:4092  servico */\n      0x01\n        /* \"contractGen.sol\":4085:4104  servico.contratante */\n      0x03\n      add\n      0x00\n      swap1\n      sload\n      swap1\n      0x0100\n      exp\n      swap1\n      div\n      0xffffffffffffffffffffffffffffffffffffffff\n      and\n        /* \"contractGen.sol\":4071:4104  msg.sender == servico.contratante */\n      0xffffffffffffffffffffffffffffffffffffffff\n      and\n        /* \"contractGen.sol\":4071:4081  msg.sender */\n      caller\n        /* \"contractGen.sol\":4071:4104  msg.sender == servico.contratante */\n      0xffffffffffffffffffffffffffffffffffffffff\n      and\n      eq\n        /* \"contractGen.sol\":4063:4144  require(msg.sender == servico.contratante, \"Somente o contratante pode executar\") */\n      tag_82\n      jumpi\n      mload(0x40)\n      0x08c379a000000000000000000000000000000000000000000000000000000000\n      dup2\n      mstore\n      0x04\n      add\n      tag_83\n      swap1\n      tag_84\n      jump\t// in\n    tag_83:\n      mload(0x40)\n      dup1\n      swap2\n      sub\n      swap1\n      revert\n    tag_82:\n        /* \"contractGen.sol\":5604:5620  Status.Concluido */\n      0x03\n        /* \"contractGen.sol\":5586:5620  servico.status == Status.Concluido */\n      0x04\n      dup2\n      gt\n      iszero\n      tag_86\n      jumpi\n      tag_87\n      tag_77\n      jump\t// in\n    tag_87:\n    tag_86:\n        /* \"contractGen.sol\":5586:5593  servico */\n      0x01\n        /* \"contractGen.sol\":5586:5600  servico.status */\n      0x02\n      add\n      0x00\n      swap1\n      sload\n      swap1\n      0x0100\n      exp\n      swap1\n      div\n      0xff\n      and\n        /* \"contractGen.sol\":5586:5620  servico.status == Status.Concluido */\n      0x04\n      dup2\n      gt\n      iszero\n      tag_88\n      jumpi\n      tag_89\n      tag_77\n      jump\t// in\n    tag_89:\n    tag_88:\n      eq\n        /* \"contractGen.sol\":5578:5646  require(servico.status == Status.Concluido, \"Servico nao concluido\") */\n      tag_90\n      jumpi\n      mload(0x40)\n      0x08c379a000000000000000000000000000000000000000000000000000000000\n      dup2\n      mstore\n      0x04\n      add\n      tag_91\n      swap1\n      tag_92\n      jump\t// in\n    tag_91:\n      mload(0x40)\n      dup1\n      swap2\n      sub\n      swap1\n      revert\n    tag_90:\n        /* \"contractGen.sol\":5665:5672  servico */\n      0x01\n        /* \"contractGen.sol\":5665:5697  servico.reconhecidoJuridicamente */\n      0x05\n      add\n      0x14\n      swap1\n      sload\n      swap1\n      0x0100\n      exp\n      swap1\n      div\n      0xff\n      and\n        /* \"contractGen.sol\":5657:5740  require(servico.reconhecidoJuridicamente, \"Contrato nao reconhecido juridicamente\") */\n      tag_93\n      jumpi\n      mload(0x40)\n      0x08c379a000000000000000000000000000000000000000000000000000000000\n      dup2\n      mstore\n      0x04\n      add\n      tag_94\n      swap1\n      tag_95\n      jump\t// in\n    tag_94:\n      mload(0x40)\n      dup1\n      swap2\n      sub\n      swap1\n      revert\n    tag_93:\n        /* \"contractGen.sol\":5772:5779  servico */\n      0x01\n        /* \"contractGen.sol\":5772:5785  servico.valor */\n      dup1\n      add\n      sload\n        /* \"contractGen.sol\":5759:5768  msg.value */\n      callvalue\n        /* \"contractGen.sol\":5759:5785  msg.value >= servico.valor */\n      lt\n      iszero\n        /* \"contractGen.sol\":5751:5808  require(msg.value >= servico.valor, \"Valor insuficiente\") */\n      tag_96\n      jumpi\n      mload(0x40)\n      0x08c379a000000000000000000000000000000000000000000000000000000000\n      dup2\n      mstore\n      0x04\n      add\n      tag_97\n      swap1\n      tag_98\n      jump\t// in\n    tag_97:\n      mload(0x40)\n      dup1\n      swap2\n      sub\n      swap1\n      revert\n    tag_96:\n        /* \"contractGen.sol\":5827:5834  servico */\n      0x01\n        /* \"contractGen.sol\":5827:5845  servico.contratado */\n      0x02\n      add\n      0x01\n      swap1\n      sload\n      swap1\n      0x0100\n      exp\n      swap1\n      div\n      0xffffffffffffffffffffffffffffffffffffffff\n      and\n        /* \"contractGen.sol\":5819:5855  payable(servico.contratado).transfer */\n      0xffffffffffffffffffffffffffffffffffffffff\n      and\n        /* \"contractGen.sol\":5819:5870  payable(servico.contratado).transfer(servico.valor) */\n      0x08fc\n        /* \"contractGen.sol\":5856:5863  servico */\n      0x01\n        /* \"contractGen.sol\":5856:5869  servico.valor */\n      dup1\n      add\n      sload\n        /* \"contractGen.sol\":5819:5870  payable(servico.contratado).transfer(servico.valor) */\n      swap1\n      dup2\n      iszero\n      mul\n      swap1\n      mload(0x40)\n      0x00\n      mload(0x40)\n      dup1\n      dup4\n      sub\n      dup2\n      dup6\n      dup9\n      dup9\n      call\n      swap4\n      pop\n      pop\n      pop\n      pop\n      iszero\n      dup1\n      iszero\n      tag_100\n      jumpi\n      returndatacopy(0x00, 0x00, returndatasize)\n      revert(0x00, returndatasize)\n    tag_100:\n      pop\n        /* \"contractGen.sol\":5886:5927  PagamentoRealizado(msg.sender, msg.value) */\n      0x99429f2d8b060f26850fbd2b5743f78b567da9b1860829588eba1799c4388a24\n        /* \"contractGen.sol\":5905:5915  msg.sender */\n      caller\n        /* \"contractGen.sol\":5917:5926  msg.value */\n      callvalue\n        /* \"contractGen.sol\":5886:5927  PagamentoRealizado(msg.sender, msg.value) */\n      mload(0x40)\n      tag_101\n      swap3\n      swap2\n      swap1\n      tag_102\n      jump\t// in\n    tag_101:\n      mload(0x40)\n      dup1\n      swap2\n      sub\n      swap1\n      log1\n        /* \"@openzeppelin/contracts/security/ReentrancyGuard.sol\":2303:2323  _nonReentrantAfter() */\n      tag_103\n        /* \"@openzeppelin/contracts/security/ReentrancyGuard.sol\":2303:2321  _nonReentrantAfter */\n      tag_104\n        /* \"@openzeppelin/contracts/security/ReentrancyGuard.sol\":2303:2323  _nonReentrantAfter() */\n      jump\t// in\n    tag_103:\n        /* \"contractGen.sol\":5497:5935  function pagarServico() public payable nonReentrant apenasContratante {... */\n      jump\t// out\n        /* \"contractGen.sol\":6323:6758  function getStatus() public view returns (string memory) {... */\n    tag_24:\n        /* \"contractGen.sol\":6365:6378  string memory */\n      0x60\n        /* \"contractGen.sol\":6413:6426  Status.Criado */\n      0x00\n        /* \"contractGen.sol\":6395:6426  servico.status == Status.Criado */\n      0x04\n      dup2\n      gt\n      iszero\n      tag_106\n      jumpi\n      tag_107\n      tag_77\n      jump\t// in\n    tag_107:\n    tag_106:\n        /* \"contractGen.sol\":6395:6402  servico */\n      0x01\n        /* \"contractGen.sol\":6395:6409  servico.status */\n      0x02\n      add\n      0x00\n      swap1\n      sload\n      swap1\n      0x0100\n      exp\n      swap1\n      div\n      0xff\n      and\n        /* \"contractGen.sol\":6395:6426  servico.status == Status.Criado */\n      0x04\n      dup2\n      gt\n      iszero\n      tag_108\n      jumpi\n      tag_109\n      tag_77\n      jump\t// in\n    tag_109:\n    tag_108:\n      sub\n        /* \"contractGen.sol\":6391:6443  if (servico.status == Status.Criado) return \"Criado\" */\n      tag_110\n      jumpi\n        /* \"contractGen.sol\":6428:6443  return \"Criado\" */\n      mload(0x40)\n      dup1\n      0x40\n      add\n      0x40\n      mstore\n      dup1\n      0x06\n      dup2\n      mstore\n      0x20\n      add\n      0x43726961646f0000000000000000000000000000000000000000000000000000\n      dup2\n      mstore\n      pop\n      swap1\n      pop\n      jump(tag_105)\n        /* \"contractGen.sol\":6391:6443  if (servico.status == Status.Criado) return \"Criado\" */\n    tag_110:\n        /* \"contractGen.sol\":6476:6489  Status.Aceito */\n      0x01\n        /* \"contractGen.sol\":6458:6489  servico.status == Status.Aceito */\n      0x04\n      dup2\n      gt\n      iszero\n      tag_111\n      jumpi\n      tag_112\n      tag_77\n      jump\t// in\n    tag_112:\n    tag_111:\n        /* \"contractGen.sol\":6458:6465  servico */\n      0x01\n        /* \"contractGen.sol\":6458:6472  servico.status */\n      0x02\n      add\n      0x00\n      swap1\n      sload\n      swap1\n      0x0100\n      exp\n      swap1\n      div\n      0xff\n      and\n        /* \"contractGen.sol\":6458:6489  servico.status == Status.Aceito */\n      0x04\n      dup2\n      gt\n      iszero\n      tag_113\n      jumpi\n      tag_114\n      tag_77\n      jump\t// in\n    tag_114:\n    tag_113:\n      sub\n        /* \"contractGen.sol\":6454:6506  if (servico.status == Status.Aceito) return \"Aceito\" */\n      tag_115\n      jumpi\n        /* \"contractGen.sol\":6491:6506  return \"Aceito\" */\n      mload(0x40)\n      dup1\n      0x40\n      add\n      0x40\n      mstore\n      dup1\n      0x06\n      dup2\n      mstore\n      0x20\n      add\n      0x41636569746f0000000000000000000000000000000000000000000000000000\n      dup2\n      mstore\n      pop\n      swap1\n      pop\n      jump(tag_105)\n        /* \"contractGen.sol\":6454:6506  if (servico.status == Status.Aceito) return \"Aceito\" */\n    tag_115:\n        /* \"contractGen.sol\":6539:6557  Status.EmAndamento */\n      0x02\n        /* \"contractGen.sol\":6521:6557  servico.status == Status.EmAndamento */\n      0x04\n      dup2\n      gt\n      iszero\n      tag_116\n      jumpi\n      tag_117\n      tag_77\n      jump\t// in\n    tag_117:\n    tag_116:\n        /* \"contractGen.sol\":6521:6528  servico */\n      0x01\n        /* \"contractGen.sol\":6521:6535  servico.status */\n      0x02\n      add\n      0x00\n      swap1\n      sload\n      swap1\n      0x0100\n      exp\n      swap1\n      div\n      0xff\n      and\n        /* \"contractGen.sol\":6521:6557  servico.status == Status.EmAndamento */\n      0x04\n      dup2\n      gt\n      iszero\n      tag_118\n      jumpi\n      tag_119\n      tag_77\n      jump\t// in\n    tag_119:\n    tag_118:\n      sub\n        /* \"contractGen.sol\":6517:6580  if (servico.status == Status.EmAndamento) return \"Em andamento\" */\n      tag_120\n      jumpi\n        /* \"contractGen.sol\":6559:6580  return \"Em andamento\" */\n      mload(0x40)\n      dup1\n      0x40\n      add\n      0x40\n      mstore\n      dup1\n      0x0c\n      dup2\n      mstore\n      0x20\n      add\n      0x456d20616e64616d656e746f0000000000000000000000000000000000000000\n      dup2\n      mstore\n      pop\n      swap1\n      pop\n      jump(tag_105)\n        /* \"contractGen.sol\":6517:6580  if (servico.status == Status.EmAndamento) return \"Em andamento\" */\n    tag_120:\n        /* \"contractGen.sol\":6613:6629  Status.Concluido */\n      0x03\n        /* \"contractGen.sol\":6595:6629  servico.status == Status.Concluido */\n      0x04\n      dup2\n      gt\n      iszero\n      tag_121\n      jumpi\n      tag_122\n      tag_77\n      jump\t// in\n    tag_122:\n    tag_121:\n        /* \"contractGen.sol\":6595:6602  servico */\n      0x01\n        /* \"contractGen.sol\":6595:6609  servico.status */\n      0x02\n      add\n      0x00\n      swap1\n      sload\n      swap1\n      0x0100\n      exp\n      swap1\n      div\n      0xff\n      and\n        /* \"contractGen.sol\":6595:6629  servico.status == Status.Concluido */\n      0x04\n      dup2\n      gt\n      iszero\n      tag_123\n      jumpi\n      tag_124\n      tag_77\n      jump\t// in\n    tag_124:\n    tag_123:\n      sub\n        /* \"contractGen.sol\":6591:6649  if (servico.status == Status.Concluido) return \"Concluido\" */\n      tag_125\n      jumpi\n        /* \"contractGen.sol\":6631:6649  return \"Concluido\" */\n      mload(0x40)\n      dup1\n      0x40\n      add\n      0x40\n      mstore\n      dup1\n      0x09\n      dup2\n      mstore\n      0x20\n      add\n      0x436f6e636c7569646f0000000000000000000000000000000000000000000000\n      dup2\n      mstore\n      pop\n      swap1\n      pop\n      jump(tag_105)\n        /* \"contractGen.sol\":6591:6649  if (servico.status == Status.Concluido) return \"Concluido\" */\n    tag_125:\n        /* \"contractGen.sol\":6682:6698  Status.Cancelado */\n      0x04\n        /* \"contractGen.sol\":6664:6698  servico.status == Status.Cancelado */\n      dup1\n      dup2\n      gt\n      iszero\n      tag_126\n      jumpi\n      tag_127\n      tag_77\n      jump\t// in\n    tag_127:\n    tag_126:\n        /* \"contractGen.sol\":6664:6671  servico */\n      0x01\n        /* \"contractGen.sol\":6664:6678  servico.status */\n      0x02\n      add\n      0x00\n      swap1\n      sload\n      swap1\n      0x0100\n      exp\n      swap1\n      div\n      0xff\n      and\n        /* \"contractGen.sol\":6664:6698  servico.status == Status.Cancelado */\n      0x04\n      dup2\n      gt\n      iszero\n      tag_128\n      jumpi\n      tag_129\n      tag_77\n      jump\t// in\n    tag_129:\n    tag_128:\n      sub\n        /* \"contractGen.sol\":6660:6718  if (servico.status == Status.Cancelado) return \"Cancelado\" */\n      tag_130\n      jumpi\n        /* \"contractGen.sol\":6700:6718  return \"Cancelado\" */\n      mload(0x40)\n      dup1\n      0x40\n      add\n      0x40\n      mstore\n      dup1\n      0x09\n      dup2\n      mstore\n      0x20\n      add\n      0x43616e63656c61646f0000000000000000000000000000000000000000000000\n      dup2\n      mstore\n      pop\n      swap1\n      pop\n      jump(tag_105)\n        /* \"contractGen.sol\":6660:6718  if (servico.status == Status.Cancelado) return \"Cancelado\" */\n    tag_130:\n        /* \"contractGen.sol\":6729:6750  return \"Desconhecido\" */\n      mload(0x40)\n      dup1\n      0x40\n      add\n      0x40\n      mstore\n      dup1\n      0x0c\n      dup2\n      mstore\n      0x20\n      add\n      0x446573636f6e68656369646f0000000000000000000000000000000000000000\n      dup2\n      mstore\n      pop\n      swap1\n      pop\n        /* \"contractGen.sol\":6323:6758  function getStatus() public view returns (string memory) {... */\n    tag_105:\n      swap1\n      jump\t// out\n        /* \"contractGen.sol\":4872:5089  function concluirServico() public apenasContratado {... */\n    tag_29:\n        /* \"contractGen.sol\":3882:3889  servico */\n      0x01\n        /* \"contractGen.sol\":3882:3900  servico.contratado */\n      0x02\n      add\n      0x01\n      swap1\n      sload\n      swap1\n      0x0100\n      exp\n      swap1\n      div\n      0xffffffffffffffffffffffffffffffffffffffff\n      and\n        /* \"contractGen.sol\":3868:3900  msg.sender == servico.contratado */\n      0xffffffffffffffffffffffffffffffffffffffff\n      and\n        /* \"contractGen.sol\":3868:3878  msg.sender */\n      caller\n        /* \"contractGen.sol\":3868:3900  msg.sender == servico.contratado */\n      0xffffffffffffffffffffffffffffffffffffffff\n      and\n      eq\n        /* \"contractGen.sol\":3860:3939  require(msg.sender == servico.contratado, \"Somente o contratado pode executar\") */\n      tag_132\n      jumpi\n      mload(0x40)\n      0x08c379a000000000000000000000000000000000000000000000000000000000\n      dup2\n      mstore\n      0x04\n      add\n      tag_133\n      swap1\n      tag_134\n      jump\t// in\n    tag_133:\n      mload(0x40)\n      dup1\n      swap2\n      sub\n      swap1\n      revert\n    tag_132:\n        /* \"contractGen.sol\":4960:4978  Status.EmAndamento */\n      0x02\n        /* \"contractGen.sol\":4942:4978  servico.status == Status.EmAndamento */\n      0x04\n      dup2\n      gt\n      iszero\n      tag_136\n      jumpi\n      tag_137\n      tag_77\n      jump\t// in\n    tag_137:\n    tag_136:\n        /* \"contractGen.sol\":4942:4949  servico */\n      0x01\n        /* \"contractGen.sol\":4942:4956  servico.status */\n      0x02\n      add\n      0x00\n      swap1\n      sload\n      swap1\n      0x0100\n      exp\n      swap1\n      div\n      0xff\n      and\n        /* \"contractGen.sol\":4942:4978  servico.status == Status.EmAndamento */\n      0x04\n      dup2\n      gt\n      iszero\n      tag_138\n      jumpi\n      tag_139\n      tag_77\n      jump\t// in\n    tag_139:\n    tag_138:\n      eq\n        /* \"contractGen.sol\":4934:5003  require(servico.status == Status.EmAndamento, \"Servico nao iniciado\") */\n      tag_140\n      jumpi\n      mload(0x40)\n      0x08c379a000000000000000000000000000000000000000000000000000000000\n      dup2\n      mstore\n      0x04\n      add\n      tag_141\n      swap1\n      tag_142\n      jump\t// in\n    tag_141:\n      mload(0x40)\n      dup1\n      swap2\n      sub\n      swap1\n      revert\n    tag_140:\n        /* \"contractGen.sol\":5031:5047  Status.Concluido */\n      0x03\n        /* \"contractGen.sol\":5014:5021  servico */\n      0x01\n        /* \"contractGen.sol\":5014:5028  servico.status */\n      0x02\n      add\n      0x00\n        /* \"contractGen.sol\":5014:5047  servico.status = Status.Concluido */\n      0x0100\n      exp\n      dup2\n      sload\n      dup2\n      0xff\n      mul\n      not\n      and\n      swap1\n      dup4\n      0x04\n      dup2\n      gt\n      iszero\n      tag_143\n      jumpi\n      tag_144\n      tag_77\n      jump\t// in\n    tag_144:\n    tag_143:\n      mul\n      or\n      swap1\n      sstore\n      pop\n        /* \"contractGen.sol\":5063:5081  ServicoConcluido() */\n      0xc075506703249f4c1960aa7b24ab277718c285277dd6f0d0c19f5f668e92c451\n      mload(0x40)\n      mload(0x40)\n      dup1\n      swap2\n      sub\n      swap1\n      log1\n        /* \"contractGen.sol\":4872:5089  function concluirServico() public apenasContratado {... */\n      jump\t// out\n        /* \"contractGen.sol\":5177:5421  function reconhecerJuridicamente() public apenasAdvogado {... */\n    tag_32:\n        /* \"contractGen.sol\":3685:3692  servico */\n      0x01\n        /* \"contractGen.sol\":3685:3701  servico.advogado */\n      0x05\n      add\n      0x00\n      swap1\n      sload\n      swap1\n      0x0100\n      exp\n      swap1\n      div\n      0xffffffffffffffffffffffffffffffffffffffff\n      and\n        /* \"contractGen.sol\":3671:3701  msg.sender == servico.advogado */\n      0xffffffffffffffffffffffffffffffffffffffff\n      and\n        /* \"contractGen.sol\":3671:3681  msg.sender */\n      caller\n        /* \"contractGen.sol\":3671:3701  msg.sender == servico.advogado */\n      0xffffffffffffffffffffffffffffffffffffffff\n      and\n      eq\n        /* \"contractGen.sol\":3663:3738  require(msg.sender == servico.advogado, \"Somente o advogado pode executar\") */\n      tag_146\n      jumpi\n      mload(0x40)\n      0x08c379a000000000000000000000000000000000000000000000000000000000\n      dup2\n      mstore\n      0x04\n      add\n      tag_147\n      swap1\n      tag_148\n      jump\t// in\n    tag_147:\n      mload(0x40)\n      dup1\n      swap2\n      sub\n      swap1\n      revert\n    tag_146:\n        /* \"contractGen.sol\":5271:5287  Status.Concluido */\n      0x03\n        /* \"contractGen.sol\":5253:5287  servico.status == Status.Concluido */\n      0x04\n      dup2\n      gt\n      iszero\n      tag_150\n      jumpi\n      tag_151\n      tag_77\n      jump\t// in\n    tag_151:\n    tag_150:\n        /* \"contractGen.sol\":5253:5260  servico */\n      0x01\n        /* \"contractGen.sol\":5253:5267  servico.status */\n      0x02\n      add\n      0x00\n      swap1\n      sload\n      swap1\n      0x0100\n      exp\n      swap1\n      div\n      0xff\n      and\n        /* \"contractGen.sol\":5253:5287  servico.status == Status.Concluido */\n      0x04\n      dup2\n      gt\n      iszero\n      tag_152\n      jumpi\n      tag_153\n      tag_77\n      jump\t// in\n    tag_153:\n    tag_152:\n      eq\n        /* \"contractGen.sol\":5245:5313  require(servico.status == Status.Concluido, \"Servico nao concluido\") */\n      tag_154\n      jumpi\n      mload(0x40)\n      0x08c379a000000000000000000000000000000000000000000000000000000000\n      dup2\n      mstore\n      0x04\n      add\n      tag_155\n      swap1\n      tag_92\n      jump\t// in\n    tag_155:\n      mload(0x40)\n      dup1\n      swap2\n      sub\n      swap1\n      revert\n    tag_154:\n        /* \"contractGen.sol\":5359:5363  true */\n      0x01\n        /* \"contractGen.sol\":5324:5331  servico */\n      dup1\n        /* \"contractGen.sol\":5324:5356  servico.reconhecidoJuridicamente */\n      0x05\n      add\n      0x14\n        /* \"contractGen.sol\":5324:5363  servico.reconhecidoJuridicamente = true */\n      0x0100\n      exp\n      dup2\n      sload\n      dup2\n      0xff\n      mul\n      not\n      and\n      swap1\n      dup4\n      iszero\n      iszero\n      mul\n      or\n      swap1\n      sstore\n      pop\n        /* \"contractGen.sol\":5379:5413  ReconhecimentoJuridico(msg.sender) */\n      0xd07e77a7ae3d696b7904cab197b265c2e821d91ac12304afb6af66980e1adb79\n        /* \"contractGen.sol\":5402:5412  msg.sender */\n      caller\n        /* \"contractGen.sol\":5379:5413  ReconhecimentoJuridico(msg.sender) */\n      mload(0x40)\n      tag_156\n      swap2\n      swap1\n      tag_42\n      jump\t// in\n    tag_156:\n      mload(0x40)\n      dup1\n      swap2\n      sub\n      swap1\n      log1\n        /* \"contractGen.sol\":5177:5421  function reconhecerJuridicamente() public apenasAdvogado {... */\n      jump\t// out\n        /* \"contractGen.sol\":6027:6261  function cancelarContrato() public apenasParte {... */\n    tag_35:\n        /* \"contractGen.sol\":3524:3525  0 */\n      0x00\n        /* \"contractGen.sol\":3485:3526  partes[msg.sender].carteira != address(0) */\n      0xffffffffffffffffffffffffffffffffffffffff\n      and\n        /* \"contractGen.sol\":3485:3491  partes */\n      0x08\n        /* \"contractGen.sol\":3485:3503  partes[msg.sender] */\n      0x00\n        /* \"contractGen.sol\":3492:3502  msg.sender */\n      caller\n        /* \"contractGen.sol\":3485:3503  partes[msg.sender] */\n      0xffffffffffffffffffffffffffffffffffffffff\n      and\n      0xffffffffffffffffffffffffffffffffffffffff\n      and\n      dup2\n      mstore\n      0x20\n      add\n      swap1\n      dup2\n      mstore\n      0x20\n      add\n      0x00\n      keccak256\n        /* \"contractGen.sol\":3485:3512  partes[msg.sender].carteira */\n      0x00\n      add\n      0x00\n      swap1\n      sload\n      swap1\n      0x0100\n      exp\n      swap1\n      div\n      0xffffffffffffffffffffffffffffffffffffffff\n      and\n        /* \"contractGen.sol\":3485:3526  partes[msg.sender].carteira != address(0) */\n      0xffffffffffffffffffffffffffffffffffffffff\n      and\n      sub\n        /* \"contractGen.sol\":3477:3545  require(partes[msg.sender].carteira != address(0), \"Nao autorizado\") */\n      tag_158\n      jumpi\n      mload(0x40)\n      0x08c379a000000000000000000000000000000000000000000000000000000000\n      dup2\n      mstore\n      0x04\n      add\n      tag_159\n      swap1\n      tag_62\n      jump\t// in\n    tag_159:\n      mload(0x40)\n      dup1\n      swap2\n      sub\n      swap1\n      revert\n    tag_158:\n        /* \"contractGen.sol\":6111:6127  Status.Concluido */\n      0x03\n        /* \"contractGen.sol\":6093:6127  servico.status != Status.Concluido */\n      0x04\n      dup2\n      gt\n      iszero\n      tag_161\n      jumpi\n      tag_162\n      tag_77\n      jump\t// in\n    tag_162:\n    tag_161:\n        /* \"contractGen.sol\":6093:6100  servico */\n      0x01\n        /* \"contractGen.sol\":6093:6107  servico.status */\n      0x02\n      add\n      0x00\n      swap1\n      sload\n      swap1\n      0x0100\n      exp\n      swap1\n      div\n      0xff\n      and\n        /* \"contractGen.sol\":6093:6127  servico.status != Status.Concluido */\n      0x04\n      dup2\n      gt\n      iszero\n      tag_163\n      jumpi\n      tag_164\n      tag_77\n      jump\t// in\n    tag_164:\n    tag_163:\n      sub\n        /* \"contractGen.sol\":6085:6164  require(servico.status != Status.Concluido, \"Nao pode cancelar apos conclusao\") */\n      tag_165\n      jumpi\n      mload(0x40)\n      0x08c379a000000000000000000000000000000000000000000000000000000000\n      dup2\n      mstore\n      0x04\n      add\n      tag_166\n      swap1\n      tag_167\n      jump\t// in\n    tag_166:\n      mload(0x40)\n      dup1\n      swap2\n      sub\n      swap1\n      revert\n    tag_165:\n        /* \"contractGen.sol\":6192:6208  Status.Cancelado */\n      0x04\n        /* \"contractGen.sol\":6175:6182  servico */\n      0x01\n        /* \"contractGen.sol\":6175:6189  servico.status */\n      0x02\n      add\n      0x00\n        /* \"contractGen.sol\":6175:6208  servico.status = Status.Cancelado */\n      0x0100\n      exp\n      dup2\n      sload\n      dup2\n      0xff\n      mul\n      not\n      and\n      swap1\n      dup4\n      0x04\n      dup2\n      gt\n      iszero\n      tag_168\n      jumpi\n      tag_169\n      tag_77\n      jump\t// in\n    tag_169:\n    tag_168:\n      mul\n      or\n      swap1\n      sstore\n      pop\n        /* \"contractGen.sol\":6224:6253  ContratoCancelado(msg.sender) */\n      0xe2b6baa1bd028e2a7847dc983ffb1e68f690ca782eee054303faa93d679cdf02\n        /* \"contractGen.sol\":6242:6252  msg.sender */\n      caller\n        /* \"contractGen.sol\":6224:6253  ContratoCancelado(msg.sender) */\n      mload(0x40)\n      tag_170\n      swap2\n      swap1\n      tag_42\n      jump\t// in\n    tag_170:\n      mload(0x40)\n      dup1\n      swap2\n      sub\n      swap1\n      log1\n        /* \"contractGen.sol\":6027:6261  function cancelarContrato() public apenasParte {... */\n      jump\t// out\n        /* \"contractGen.sol\":1601:1629  address[] public listaPartes */\n    tag_40:\n      0x09\n      dup2\n      dup2\n      sload\n      dup2\n      lt\n      tag_171\n      jumpi\n      0x00\n      dup1\n      revert\n    tag_171:\n      swap1\n      0x00\n      mstore\n      keccak256(0x00, 0x20)\n      add\n      0x00\n      swap2\n      pop\n      sload\n      swap1\n      0x0100\n      exp\n      swap1\n      div\n      0xffffffffffffffffffffffffffffffffffffffff\n      and\n      dup2\n      jump\t// out\n        /* \"contractGen.sol\":1519:1558  mapping(address => Parte) public partes */\n    tag_47:\n      mstore(0x20, 0x08)\n      dup1\n      0x00\n      mstore\n      keccak256(0x00, 0x40)\n      0x00\n      swap2\n      pop\n      swap1\n      pop\n      dup1\n      0x00\n      add\n      0x00\n      swap1\n      sload\n      swap1\n      0x0100\n      exp\n      swap1\n      div\n      0xffffffffffffffffffffffffffffffffffffffff\n      and\n      swap1\n      dup1\n      0x01\n      add\n      dup1\n      sload\n      tag_173\n      swap1\n      tag_174\n      jump\t// in\n    tag_173:\n      dup1\n      0x1f\n      add\n      0x20\n      dup1\n      swap2\n      div\n      mul\n      0x20\n      add\n      mload(0x40)\n      swap1\n      dup2\n      add\n      0x40\n      mstore\n      dup1\n      swap3\n      swap2\n      swap1\n      dup2\n      dup2\n      mstore\n      0x20\n      add\n      dup3\n      dup1\n      sload\n      tag_175\n      swap1\n      tag_174\n      jump\t// in\n    tag_175:\n      dup1\n      iszero\n      tag_176\n      jumpi\n      dup1\n      0x1f\n      lt\n      tag_177\n      jumpi\n      0x0100\n      dup1\n      dup4\n      sload\n      div\n      mul\n      dup4\n      mstore\n      swap2\n      0x20\n      add\n      swap2\n      jump(tag_176)\n    tag_177:\n      dup3\n      add\n      swap2\n      swap1\n      0x00\n      mstore\n      keccak256(0x00, 0x20)\n      swap1\n    tag_178:\n      dup2\n      sload\n      dup2\n      mstore\n      swap1\n      0x01\n      add\n      swap1\n      0x20\n      add\n      dup1\n      dup4\n      gt\n      tag_178\n      jumpi\n      dup3\n      swap1\n      sub\n      0x1f\n      and\n      dup3\n      add\n      swap2\n    tag_176:\n      pop\n      pop\n      pop\n      pop\n      pop\n      swap1\n      dup1\n      0x02\n      add\n      0x00\n      swap1\n      sload\n      swap1\n      0x0100\n      exp\n      swap1\n      div\n      0xff\n      and\n      swap1\n      pop\n      dup4\n      jump\t// out\n        /* \"contractGen.sol\":6814:6923  function getLinkTermos() public view returns (string memory) {... */\n    tag_52:\n        /* \"contractGen.sol\":6860:6873  string memory */\n      0x60\n        /* \"contractGen.sol\":6893:6900  servico */\n      0x01\n        /* \"contractGen.sol\":6893:6915  servico.ipfsLinkTermos */\n      0x06\n      add\n        /* \"contractGen.sol\":6886:6915  return servico.ipfsLinkTermos */\n      dup1\n      sload\n      tag_180\n      swap1\n      tag_174\n      jump\t// in\n    tag_180:\n      dup1\n      0x1f\n      add\n      0x20\n      dup1\n      swap2\n      div\n      mul\n      0x20\n      add\n      mload(0x40)\n      swap1\n      dup2\n      add\n      0x40\n      mstore\n      dup1\n      swap3\n      swap2\n      swap1\n      dup2\n      dup2\n      mstore\n      0x20\n      add\n      dup3\n      dup1\n      sload\n      tag_181\n      swap1\n      tag_174\n      jump\t// in\n    tag_181:\n      dup1\n      iszero\n      tag_182\n      jumpi\n      dup1\n      0x1f\n      lt\n      tag_183\n      jumpi\n      0x0100\n      dup1\n      dup4\n      sload\n      div\n      mul\n      dup4\n      mstore\n      swap2\n      0x20\n      add\n      swap2\n      jump(tag_182)\n    tag_183:\n      dup3\n      add\n      swap2\n      swap1\n      0x00\n      mstore\n      keccak256(0x00, 0x20)\n      swap1\n    tag_184:\n      dup2\n      sload\n      dup2\n      mstore\n      swap1\n      0x01\n      add\n      swap1\n      0x20\n      add\n      dup1\n      dup4\n      gt\n      tag_184\n      jumpi\n      dup3\n      swap1\n      sub\n      0x1f\n      and\n      dup3\n      add\n      swap2\n    tag_182:\n      pop\n      pop\n      pop\n      pop\n      pop\n      swap1\n      pop\n        /* \"contractGen.sol\":6814:6923  function getLinkTermos() public view returns (string memory) {... */\n      swap1\n      jump\t// out\n        /* \"contractGen.sol\":1457:1479  Servico public servico */\n    tag_56:\n      0x01\n      dup1\n      0x00\n      add\n      dup1\n      sload\n      tag_185\n      swap1\n      tag_174\n      jump\t// in\n    tag_185:\n      dup1\n      0x1f\n      add\n      0x20\n      dup1\n      swap2\n      div\n      mul\n      0x20\n      add\n      mload(0x40)\n      swap1\n      dup2\n      add\n      0x40\n      mstore\n      dup1\n      swap3\n      swap2\n      swap1\n      dup2\n      dup2\n      mstore\n      0x20\n      add\n      dup3\n      dup1\n      sload\n      tag_186\n      swap1\n      tag_174\n      jump\t// in\n    tag_186:\n      dup1\n      iszero\n      tag_187\n      jumpi\n      dup1\n      0x1f\n      lt\n      tag_188\n      jumpi\n      0x0100\n      dup1\n      dup4\n      sload\n      div\n      mul\n      dup4\n      mstore\n      swap2\n      0x20\n      add\n      swap2\n      jump(tag_187)\n    tag_188:\n      dup3\n      add\n      swap2\n      swap1\n      0x00\n      mstore\n      keccak256(0x00, 0x20)\n      swap1\n    tag_189:\n      dup2\n      sload\n      dup2\n      mstore\n      swap1\n      0x01\n      add\n      swap1\n      0x20\n      add\n      dup1\n      dup4\n      gt\n      tag_189\n      jumpi\n      dup3\n      swap1\n      sub\n      0x1f\n      and\n      dup3\n      add\n      swap2\n    tag_187:\n      pop\n      pop\n      pop\n      pop\n      pop\n      swap1\n      dup1\n      0x01\n      add\n      sload\n      swap1\n      dup1\n      0x02\n      add\n      0x00\n      swap1\n      sload\n      swap1\n      0x0100\n      exp\n      swap1\n      div\n      0xff\n      and\n      swap1\n      dup1\n      0x02\n      add\n      0x01\n      swap1\n      sload\n      swap1\n      0x0100\n      exp\n      swap1\n      div\n      0xffffffffffffffffffffffffffffffffffffffff\n      and\n      swap1\n      dup1\n      0x03\n      add\n      0x00\n      swap1\n      sload\n      swap1\n      0x0100\n      exp\n      swap1\n      div\n      0xffffffffffffffffffffffffffffffffffffffff\n      and\n      swap1\n      dup1\n      0x04\n      add\n      0x00\n      swap1\n      sload\n      swap1\n      0x0100\n      exp\n      swap1\n      div\n      0xffffffffffffffffffffffffffffffffffffffff\n      and\n      swap1\n      dup1\n      0x05\n      add\n      0x00\n      swap1\n      sload\n      swap1\n      0x0100\n      exp\n      swap1\n      div\n      0xffffffffffffffffffffffffffffffffffffffff\n      and\n      swap1\n      dup1\n      0x05\n      add\n      0x14\n      swap1\n      sload\n      swap1\n      0x0100\n      exp\n      swap1\n      div\n      0xff\n      and\n      swap1\n      dup1\n      0x06\n      add\n      dup1\n      sload\n      tag_190\n      swap1\n      tag_174\n      jump\t// in\n    tag_190:\n      dup1\n      0x1f\n      add\n      0x20\n      dup1\n      swap2\n      div\n      mul\n      0x20\n      add\n      mload(0x40)\n      swap1\n      dup2\n      add\n      0x40\n      mstore\n      dup1\n      swap3\n      swap2\n      swap1\n      dup2\n      dup2\n      mstore\n      0x20\n      add\n      dup3\n      dup1\n      sload\n      tag_191\n      swap1\n      tag_174\n      jump\t// in\n    tag_191:\n      dup1\n      iszero\n      tag_192\n      jumpi\n      dup1\n      0x1f\n      lt\n      tag_193\n      jumpi\n      0x0100\n      dup1\n      dup4\n      sload\n      div\n      mul\n      dup4\n      mstore\n      swap2\n      0x20\n      add\n      swap2\n      jump(tag_192)\n    tag_193:\n      dup3\n      add\n      swap2\n      swap1\n      0x00\n      mstore\n      keccak256(0x00, 0x20)\n      swap1\n    tag_194:\n      dup2\n      sload\n      dup2\n      mstore\n      swap1\n      0x01\n      add\n      swap1\n      0x20\n      add\n      dup1\n      dup4\n      gt\n      tag_194\n      jumpi\n      dup3\n      swap1\n      sub\n      0x1f\n      and\n      dup3\n      add\n      swap2\n    tag_192:\n      pop\n      pop\n      pop\n      pop\n      pop\n      swap1\n      pop\n      dup10\n      jump\t// out\n        /* \"@openzeppelin/contracts/security/ReentrancyGuard.sol\":2336:2623  function _nonReentrantBefore() private {... */\n    tag_80:\n        /* \"@openzeppelin/contracts/security/ReentrancyGuard.sol\":1759:1760  2 */\n      0x02\n        /* \"@openzeppelin/contracts/security/ReentrancyGuard.sol\":2468:2475  _status */\n      sload(0x00)\n        /* \"@openzeppelin/contracts/security/ReentrancyGuard.sol\":2468:2487  _status != _ENTERED */\n      sub\n        /* \"@openzeppelin/contracts/security/ReentrancyGuard.sol\":2460:2523  require(_status != _ENTERED, \"ReentrancyGuard: reentrant call\") */\n      tag_196\n      jumpi\n      mload(0x40)\n      0x08c379a000000000000000000000000000000000000000000000000000000000\n      dup2\n      mstore\n      0x04\n      add\n      tag_197\n      swap1\n      tag_198\n      jump\t// in\n    tag_197:\n      mload(0x40)\n      dup1\n      swap2\n      sub\n      swap1\n      revert\n    tag_196:\n        /* \"@openzeppelin/contracts/security/ReentrancyGuard.sol\":1759:1760  2 */\n      0x02\n        /* \"@openzeppelin/contracts/security/ReentrancyGuard.sol\":2598:2605  _status */\n      0x00\n        /* \"@openzeppelin/contracts/security/ReentrancyGuard.sol\":2598:2616  _status = _ENTERED */\n      dup2\n      swap1\n      sstore\n      pop\n        /* \"@openzeppelin/contracts/security/ReentrancyGuard.sol\":2336:2623  function _nonReentrantBefore() private {... */\n      jump\t// out\n        /* \"@openzeppelin/contracts/security/ReentrancyGuard.sol\":2629:2838  function _nonReentrantAfter() private {... */\n    tag_104:\n        /* \"@openzeppelin/contracts/security/ReentrancyGuard.sol\":1716:1717  1 */\n      0x01\n        /* \"@openzeppelin/contracts/security/ReentrancyGuard.sol\":2809:2816  _status */\n      0x00\n        /* \"@openzeppelin/contracts/security/ReentrancyGuard.sol\":2809:2831  _status = _NOT_ENTERED */\n      dup2\n      swap1\n      sstore\n      pop\n        /* \"@openzeppelin/contracts/security/ReentrancyGuard.sol\":2629:2838  function _nonReentrantAfter() private {... */\n      jump\t// out\n        /* \"#utility.yul\":7:106   */\n    tag_200:\n        /* \"#utility.yul\":59:65   */\n      0x00\n        /* \"#utility.yul\":93:98   */\n      dup2\n        /* \"#utility.yul\":87:99   */\n      mload\n        /* \"#utility.yul\":77:99   */\n      swap1\n      pop\n        /* \"#utility.yul\":7:106   */\n      swap2\n      swap1\n      pop\n      jump\t// out\n        /* \"#utility.yul\":112:281   */\n    tag_201:\n        /* \"#utility.yul\":196:207   */\n      0x00\n        /* \"#utility.yul\":230:236   */\n      dup3\n        /* \"#utility.yul\":225:228   */\n      dup3\n        /* \"#utility.yul\":218:237   */\n      mstore\n        /* \"#utility.yul\":270:274   */\n      0x20\n        /* \"#utility.yul\":265:268   */\n      dup3\n        /* \"#utility.yul\":261:275   */\n      add\n        /* \"#utility.yul\":246:275   */\n      swap1\n      pop\n        /* \"#utility.yul\":112:281   */\n      swap3\n      swap2\n      pop\n      pop\n      jump\t// out\n        /* \"#utility.yul\":287:426   */\n    tag_202:\n        /* \"#utility.yul\":376:382   */\n      dup3\n        /* \"#utility.yul\":371:374   */\n      dup2\n        /* \"#utility.yul\":366:369   */\n      dup4\n        /* \"#utility.yul\":360:383   */\n      mcopy\n        /* \"#utility.yul\":417:418   */\n      0x00\n        /* \"#utility.yul\":408:414   */\n      dup4\n        /* \"#utility.yul\":403:406   */\n      dup4\n        /* \"#utility.yul\":399:415   */\n      add\n        /* \"#utility.yul\":392:419   */\n      mstore\n        /* \"#utility.yul\":287:426   */\n      pop\n      pop\n      pop\n      jump\t// out\n        /* \"#utility.yul\":432:534   */\n    tag_203:\n        /* \"#utility.yul\":473:479   */\n      0x00\n        /* \"#utility.yul\":524:526   */\n      0x1f\n        /* \"#utility.yul\":520:527   */\n      not\n        /* \"#utility.yul\":515:517   */\n      0x1f\n        /* \"#utility.yul\":508:513   */\n      dup4\n        /* \"#utility.yul\":504:518   */\n      add\n        /* \"#utility.yul\":500:528   */\n      and\n        /* \"#utility.yul\":490:528   */\n      swap1\n      pop\n        /* \"#utility.yul\":432:534   */\n      swap2\n      swap1\n      pop\n      jump\t// out\n        /* \"#utility.yul\":540:917   */\n    tag_204:\n        /* \"#utility.yul\":628:631   */\n      0x00\n        /* \"#utility.yul\":656:695   */\n      tag_256\n        /* \"#utility.yul\":689:694   */\n      dup3\n        /* \"#utility.yul\":656:695   */\n      tag_200\n      jump\t// in\n    tag_256:\n        /* \"#utility.yul\":711:782   */\n      tag_257\n        /* \"#utility.yul\":775:781   */\n      dup2\n        /* \"#utility.yul\":770:773   */\n      dup6\n        /* \"#utility.yul\":711:782   */\n      tag_201\n      jump\t// in\n    tag_257:\n        /* \"#utility.yul\":704:782   */\n      swap4\n      pop\n        /* \"#utility.yul\":791:856   */\n      tag_258\n        /* \"#utility.yul\":849:855   */\n      dup2\n        /* \"#utility.yul\":844:847   */\n      dup6\n        /* \"#utility.yul\":837:841   */\n      0x20\n        /* \"#utility.yul\":830:835   */\n      dup7\n        /* \"#utility.yul\":826:842   */\n      add\n        /* \"#utility.yul\":791:856   */\n      tag_202\n      jump\t// in\n    tag_258:\n        /* \"#utility.yul\":881:910   */\n      tag_259\n        /* \"#utility.yul\":903:909   */\n      dup2\n        /* \"#utility.yul\":881:910   */\n      tag_203\n      jump\t// in\n    tag_259:\n        /* \"#utility.yul\":876:879   */\n      dup5\n        /* \"#utility.yul\":872:911   */\n      add\n        /* \"#utility.yul\":865:911   */\n      swap2\n      pop\n        /* \"#utility.yul\":632:917   */\n      pop\n        /* \"#utility.yul\":540:917   */\n      swap3\n      swap2\n      pop\n      pop\n      jump\t// out\n        /* \"#utility.yul\":923:1236   */\n    tag_26:\n        /* \"#utility.yul\":1036:1040   */\n      0x00\n        /* \"#utility.yul\":1074:1076   */\n      0x20\n        /* \"#utility.yul\":1063:1072   */\n      dup3\n        /* \"#utility.yul\":1059:1077   */\n      add\n        /* \"#utility.yul\":1051:1077   */\n      swap1\n      pop\n        /* \"#utility.yul\":1123:1132   */\n      dup2\n        /* \"#utility.yul\":1117:1121   */\n      dup2\n        /* \"#utility.yul\":1113:1133   */\n      sub\n        /* \"#utility.yul\":1109:1110   */\n      0x00\n        /* \"#utility.yul\":1098:1107   */\n      dup4\n        /* \"#utility.yul\":1094:1111   */\n      add\n        /* \"#utility.yul\":1087:1134   */\n      mstore\n        /* \"#utility.yul\":1151:1229   */\n      tag_261\n        /* \"#utility.yul\":1224:1228   */\n      dup2\n        /* \"#utility.yul\":1215:1221   */\n      dup5\n        /* \"#utility.yul\":1151:1229   */\n      tag_204\n      jump\t// in\n    tag_261:\n        /* \"#utility.yul\":1143:1229   */\n      swap1\n      pop\n        /* \"#utility.yul\":923:1236   */\n      swap3\n      swap2\n      pop\n      pop\n      jump\t// out\n        /* \"#utility.yul\":1323:1440   */\n    tag_206:\n        /* \"#utility.yul\":1432:1433   */\n      0x00\n        /* \"#utility.yul\":1429:1430   */\n      0x00\n        /* \"#utility.yul\":1422:1434   */\n      revert\n        /* \"#utility.yul\":1569:1646   */\n    tag_208:\n        /* \"#utility.yul\":1606:1613   */\n      0x00\n        /* \"#utility.yul\":1635:1640   */\n      dup2\n        /* \"#utility.yul\":1624:1640   */\n      swap1\n      pop\n        /* \"#utility.yul\":1569:1646   */\n      swap2\n      swap1\n      pop\n      jump\t// out\n        /* \"#utility.yul\":1652:1774   */\n    tag_209:\n        /* \"#utility.yul\":1725:1749   */\n      tag_267\n        /* \"#utility.yul\":1743:1748   */\n      dup2\n        /* \"#utility.yul\":1725:1749   */\n      tag_208\n      jump\t// in\n    tag_267:\n        /* \"#utility.yul\":1718:1723   */\n      dup2\n        /* \"#utility.yul\":1715:1750   */\n      eq\n        /* \"#utility.yul\":1705:1768   */\n      tag_268\n      jumpi\n        /* \"#utility.yul\":1764:1765   */\n      0x00\n        /* \"#utility.yul\":1761:1762   */\n      0x00\n        /* \"#utility.yul\":1754:1766   */\n      revert\n        /* \"#utility.yul\":1705:1768   */\n    tag_268:\n        /* \"#utility.yul\":1652:1774   */\n      pop\n      jump\t// out\n        /* \"#utility.yul\":1780:1919   */\n    tag_210:\n        /* \"#utility.yul\":1826:1831   */\n      0x00\n        /* \"#utility.yul\":1864:1870   */\n      dup2\n        /* \"#utility.yul\":1851:1871   */\n      calldataload\n        /* \"#utility.yul\":1842:1871   */\n      swap1\n      pop\n        /* \"#utility.yul\":1880:1913   */\n      tag_270\n        /* \"#utility.yul\":1907:1912   */\n      dup2\n        /* \"#utility.yul\":1880:1913   */\n      tag_209\n      jump\t// in\n    tag_270:\n        /* \"#utility.yul\":1780:1919   */\n      swap3\n      swap2\n      pop\n      pop\n      jump\t// out\n        /* \"#utility.yul\":1925:2254   */\n    tag_39:\n        /* \"#utility.yul\":1984:1990   */\n      0x00\n        /* \"#utility.yul\":2033:2035   */\n      0x20\n        /* \"#utility.yul\":2021:2030   */\n      dup3\n        /* \"#utility.yul\":2012:2019   */\n      dup5\n        /* \"#utility.yul\":2008:2031   */\n      sub\n        /* \"#utility.yul\":2004:2036   */\n      slt\n        /* \"#utility.yul\":2001:2120   */\n      iszero\n      tag_272\n      jumpi\n        /* \"#utility.yul\":2039:2118   */\n      tag_273\n      tag_206\n      jump\t// in\n    tag_273:\n        /* \"#utility.yul\":2001:2120   */\n    tag_272:\n        /* \"#utility.yul\":2159:2160   */\n      0x00\n        /* \"#utility.yul\":2184:2237   */\n      tag_274\n        /* \"#utility.yul\":2229:2236   */\n      dup5\n        /* \"#utility.yul\":2220:2226   */\n      dup3\n        /* \"#utility.yul\":2209:2218   */\n      dup6\n        /* \"#utility.yul\":2205:2227   */\n      add\n        /* \"#utility.yul\":2184:2237   */\n      tag_210\n      jump\t// in\n    tag_274:\n        /* \"#utility.yul\":2174:2237   */\n      swap2\n      pop\n        /* \"#utility.yul\":2130:2247   */\n      pop\n        /* \"#utility.yul\":1925:2254   */\n      swap3\n      swap2\n      pop\n      pop\n      jump\t// out\n        /* \"#utility.yul\":2260:2386   */\n    tag_211:\n        /* \"#utility.yul\":2297:2304   */\n      0x00\n        /* \"#utility.yul\":2337:2379   */\n      0xffffffffffffffffffffffffffffffffffffffff\n        /* \"#utility.yul\":2330:2335   */\n      dup3\n        /* \"#utility.yul\":2326:2380   */\n      and\n        /* \"#utility.yul\":2315:2380   */\n      swap1\n      pop\n        /* \"#utility.yul\":2260:2386   */\n      swap2\n      swap1\n      pop\n      jump\t// out\n        /* \"#utility.yul\":2392:2488   */\n    tag_212:\n        /* \"#utility.yul\":2429:2436   */\n      0x00\n        /* \"#utility.yul\":2458:2482   */\n      tag_277\n        /* \"#utility.yul\":2476:2481   */\n      dup3\n        /* \"#utility.yul\":2458:2482   */\n      tag_211\n      jump\t// in\n    tag_277:\n        /* \"#utility.yul\":2447:2482   */\n      swap1\n      pop\n        /* \"#utility.yul\":2392:2488   */\n      swap2\n      swap1\n      pop\n      jump\t// out\n        /* \"#utility.yul\":2494:2612   */\n    tag_213:\n        /* \"#utility.yul\":2581:2605   */\n      tag_279\n        /* \"#utility.yul\":2599:2604   */\n      dup2\n        /* \"#utility.yul\":2581:2605   */\n      tag_212\n      jump\t// in\n    tag_279:\n        /* \"#utility.yul\":2576:2579   */\n      dup3\n        /* \"#utility.yul\":2569:2606   */\n      mstore\n        /* \"#utility.yul\":2494:2612   */\n      pop\n      pop\n      jump\t// out\n        /* \"#utility.yul\":2618:2840   */\n    tag_42:\n        /* \"#utility.yul\":2711:2715   */\n      0x00\n        /* \"#utility.yul\":2749:2751   */\n      0x20\n        /* \"#utility.yul\":2738:2747   */\n      dup3\n        /* \"#utility.yul\":2734:2752   */\n      add\n        /* \"#utility.yul\":2726:2752   */\n      swap1\n      pop\n        /* \"#utility.yul\":2762:2833   */\n      tag_281\n        /* \"#utility.yul\":2830:2831   */\n      0x00\n        /* \"#utility.yul\":2819:2828   */\n      dup4\n        /* \"#utility.yul\":2815:2832   */\n      add\n        /* \"#utility.yul\":2806:2812   */\n      dup5\n        /* \"#utility.yul\":2762:2833   */\n      tag_213\n      jump\t// in\n    tag_281:\n        /* \"#utility.yul\":2618:2840   */\n      swap3\n      swap2\n      pop\n      pop\n      jump\t// out\n        /* \"#utility.yul\":2846:2968   */\n    tag_214:\n        /* \"#utility.yul\":2919:2943   */\n      tag_283\n        /* \"#utility.yul\":2937:2942   */\n      dup2\n        /* \"#utility.yul\":2919:2943   */\n      tag_212\n      jump\t// in\n    tag_283:\n        /* \"#utility.yul\":2912:2917   */\n      dup2\n        /* \"#utility.yul\":2909:2944   */\n      eq\n        /* \"#utility.yul\":2899:2962   */\n      tag_284\n      jumpi\n        /* \"#utility.yul\":2958:2959   */\n      0x00\n        /* \"#utility.yul\":2955:2956   */\n      0x00\n        /* \"#utility.yul\":2948:2960   */\n      revert\n        /* \"#utility.yul\":2899:2962   */\n    tag_284:\n        /* \"#utility.yul\":2846:2968   */\n      pop\n      jump\t// out\n        /* \"#utility.yul\":2974:3113   */\n    tag_215:\n        /* \"#utility.yul\":3020:3025   */\n      0x00\n        /* \"#utility.yul\":3058:3064   */\n      dup2\n        /* \"#utility.yul\":3045:3065   */\n      calldataload\n        /* \"#utility.yul\":3036:3065   */\n      swap1\n      pop\n        /* \"#utility.yul\":3074:3107   */\n      tag_286\n        /* \"#utility.yul\":3101:3106   */\n      dup2\n        /* \"#utility.yul\":3074:3107   */\n      tag_214\n      jump\t// in\n    tag_286:\n        /* \"#utility.yul\":2974:3113   */\n      swap3\n      swap2\n      pop\n      pop\n      jump\t// out\n        /* \"#utility.yul\":3119:3448   */\n    tag_46:\n        /* \"#utility.yul\":3178:3184   */\n      0x00\n        /* \"#utility.yul\":3227:3229   */\n      0x20\n        /* \"#utility.yul\":3215:3224   */\n      dup3\n        /* \"#utility.yul\":3206:3213   */\n      dup5\n        /* \"#utility.yul\":3202:3225   */\n      sub\n        /* \"#utility.yul\":3198:3230   */\n      slt\n        /* \"#utility.yul\":3195:3314   */\n      iszero\n      tag_288\n      jumpi\n        /* \"#utility.yul\":3233:3312   */\n      tag_289\n      tag_206\n      jump\t// in\n    tag_289:\n        /* \"#utility.yul\":3195:3314   */\n    tag_288:\n        /* \"#utility.yul\":3353:3354   */\n      0x00\n        /* \"#utility.yul\":3378:3431   */\n      tag_290\n        /* \"#utility.yul\":3423:3430   */\n      dup5\n        /* \"#utility.yul\":3414:3420   */\n      dup3\n        /* \"#utility.yul\":3403:3412   */\n      dup6\n        /* \"#utility.yul\":3399:3421   */\n      add\n        /* \"#utility.yul\":3378:3431   */\n      tag_215\n      jump\t// in\n    tag_290:\n        /* \"#utility.yul\":3368:3431   */\n      swap2\n      pop\n        /* \"#utility.yul\":3324:3441   */\n      pop\n        /* \"#utility.yul\":3119:3448   */\n      swap3\n      swap2\n      pop\n      pop\n      jump\t// out\n        /* \"#utility.yul\":3454:3544   */\n    tag_216:\n        /* \"#utility.yul\":3488:3495   */\n      0x00\n        /* \"#utility.yul\":3531:3536   */\n      dup2\n        /* \"#utility.yul\":3524:3537   */\n      iszero\n        /* \"#utility.yul\":3517:3538   */\n      iszero\n        /* \"#utility.yul\":3506:3538   */\n      swap1\n      pop\n        /* \"#utility.yul\":3454:3544   */\n      swap2\n      swap1\n      pop\n      jump\t// out\n        /* \"#utility.yul\":3550:3659   */\n    tag_217:\n        /* \"#utility.yul\":3631:3652   */\n      tag_293\n        /* \"#utility.yul\":3646:3651   */\n      dup2\n        /* \"#utility.yul\":3631:3652   */\n      tag_216\n      jump\t// in\n    tag_293:\n        /* \"#utility.yul\":3626:3629   */\n      dup3\n        /* \"#utility.yul\":3619:3653   */\n      mstore\n        /* \"#utility.yul\":3550:3659   */\n      pop\n      pop\n      jump\t// out\n        /* \"#utility.yul\":3665:4186   */\n    tag_49:\n        /* \"#utility.yul\":3828:3832   */\n      0x00\n        /* \"#utility.yul\":3866:3868   */\n      0x60\n        /* \"#utility.yul\":3855:3864   */\n      dup3\n        /* \"#utility.yul\":3851:3869   */\n      add\n        /* \"#utility.yul\":3843:3869   */\n      swap1\n      pop\n        /* \"#utility.yul\":3879:3950   */\n      tag_295\n        /* \"#utility.yul\":3947:3948   */\n      0x00\n        /* \"#utility.yul\":3936:3945   */\n      dup4\n        /* \"#utility.yul\":3932:3949   */\n      add\n        /* \"#utility.yul\":3923:3929   */\n      dup7\n        /* \"#utility.yul\":3879:3950   */\n      tag_213\n      jump\t// in\n    tag_295:\n        /* \"#utility.yul\":3997:4006   */\n      dup2\n        /* \"#utility.yul\":3991:3995   */\n      dup2\n        /* \"#utility.yul\":3987:4007   */\n      sub\n        /* \"#utility.yul\":3982:3984   */\n      0x20\n        /* \"#utility.yul\":3971:3980   */\n      dup4\n        /* \"#utility.yul\":3967:3985   */\n      add\n        /* \"#utility.yul\":3960:4008   */\n      mstore\n        /* \"#utility.yul\":4025:4103   */\n      tag_296\n        /* \"#utility.yul\":4098:4102   */\n      dup2\n        /* \"#utility.yul\":4089:4095   */\n      dup6\n        /* \"#utility.yul\":4025:4103   */\n      tag_204\n      jump\t// in\n    tag_296:\n        /* \"#utility.yul\":4017:4103   */\n      swap1\n      pop\n        /* \"#utility.yul\":4113:4179   */\n      tag_297\n        /* \"#utility.yul\":4175:4177   */\n      0x40\n        /* \"#utility.yul\":4164:4173   */\n      dup4\n        /* \"#utility.yul\":4160:4178   */\n      add\n        /* \"#utility.yul\":4151:4157   */\n      dup5\n        /* \"#utility.yul\":4113:4179   */\n      tag_217\n      jump\t// in\n    tag_297:\n        /* \"#utility.yul\":3665:4186   */\n      swap5\n      swap4\n      pop\n      pop\n      pop\n      pop\n      jump\t// out\n        /* \"#utility.yul\":4192:4310   */\n    tag_218:\n        /* \"#utility.yul\":4279:4303   */\n      tag_299\n        /* \"#utility.yul\":4297:4302   */\n      dup2\n        /* \"#utility.yul\":4279:4303   */\n      tag_208\n      jump\t// in\n    tag_299:\n        /* \"#utility.yul\":4274:4277   */\n      dup3\n        /* \"#utility.yul\":4267:4304   */\n      mstore\n        /* \"#utility.yul\":4192:4310   */\n      pop\n      pop\n      jump\t// out\n        /* \"#utility.yul\":4316:4496   */\n    tag_77:\n        /* \"#utility.yul\":4364:4441   */\n      0x4e487b7100000000000000000000000000000000000000000000000000000000\n        /* \"#utility.yul\":4361:4362   */\n      0x00\n        /* \"#utility.yul\":4354:4442   */\n      mstore\n        /* \"#utility.yul\":4461:4465   */\n      0x21\n        /* \"#utility.yul\":4458:4459   */\n      0x04\n        /* \"#utility.yul\":4451:4466   */\n      mstore\n        /* \"#utility.yul\":4485:4489   */\n      0x24\n        /* \"#utility.yul\":4482:4483   */\n      0x00\n        /* \"#utility.yul\":4475:4490   */\n      revert\n        /* \"#utility.yul\":4502:4616   */\n    tag_219:\n        /* \"#utility.yul\":4584:4585   */\n      0x05\n        /* \"#utility.yul\":4577:4582   */\n      dup2\n        /* \"#utility.yul\":4574:4586   */\n      lt\n        /* \"#utility.yul\":4564:4610   */\n      tag_302\n      jumpi\n        /* \"#utility.yul\":4590:4608   */\n      tag_303\n      tag_77\n      jump\t// in\n    tag_303:\n        /* \"#utility.yul\":4564:4610   */\n    tag_302:\n        /* \"#utility.yul\":4502:4616   */\n      pop\n      jump\t// out\n        /* \"#utility.yul\":4622:4751   */\n    tag_220:\n        /* \"#utility.yul\":4668:4675   */\n      0x00\n        /* \"#utility.yul\":4697:4702   */\n      dup2\n        /* \"#utility.yul\":4686:4702   */\n      swap1\n      pop\n        /* \"#utility.yul\":4703:4745   */\n      tag_305\n        /* \"#utility.yul\":4739:4744   */\n      dup3\n        /* \"#utility.yul\":4703:4745   */\n      tag_219\n      jump\t// in\n    tag_305:\n        /* \"#utility.yul\":4622:4751   */\n      swap2\n      swap1\n      pop\n      jump\t// out\n        /* \"#utility.yul\":4757:4886   */\n    tag_221:\n        /* \"#utility.yul\":4814:4823   */\n      0x00\n        /* \"#utility.yul\":4847:4880   */\n      tag_307\n        /* \"#utility.yul\":4874:4879   */\n      dup3\n        /* \"#utility.yul\":4847:4880   */\n      tag_220\n      jump\t// in\n    tag_307:\n        /* \"#utility.yul\":4834:4880   */\n      swap1\n      pop\n        /* \"#utility.yul\":4757:4886   */\n      swap2\n      swap1\n      pop\n      jump\t// out\n        /* \"#utility.yul\":4892:5037   */\n    tag_222:\n        /* \"#utility.yul\":4986:5030   */\n      tag_309\n        /* \"#utility.yul\":5024:5029   */\n      dup2\n        /* \"#utility.yul\":4986:5030   */\n      tag_221\n      jump\t// in\n    tag_309:\n        /* \"#utility.yul\":4981:4984   */\n      dup3\n        /* \"#utility.yul\":4974:5031   */\n      mstore\n        /* \"#utility.yul\":4892:5037   */\n      pop\n      pop\n      jump\t// out\n        /* \"#utility.yul\":5043:6335   */\n    tag_58:\n        /* \"#utility.yul\":5401:5405   */\n      0x00\n        /* \"#utility.yul\":5439:5442   */\n      0x0120\n        /* \"#utility.yul\":5428:5437   */\n      dup3\n        /* \"#utility.yul\":5424:5443   */\n      add\n        /* \"#utility.yul\":5416:5443   */\n      swap1\n      pop\n        /* \"#utility.yul\":5489:5498   */\n      dup2\n        /* \"#utility.yul\":5483:5487   */\n      dup2\n        /* \"#utility.yul\":5479:5499   */\n      sub\n        /* \"#utility.yul\":5475:5476   */\n      0x00\n        /* \"#utility.yul\":5464:5473   */\n      dup4\n        /* \"#utility.yul\":5460:5477   */\n      add\n        /* \"#utility.yul\":5453:5500   */\n      mstore\n        /* \"#utility.yul\":5517:5595   */\n      tag_311\n        /* \"#utility.yul\":5590:5594   */\n      dup2\n        /* \"#utility.yul\":5581:5587   */\n      dup13\n        /* \"#utility.yul\":5517:5595   */\n      tag_204\n      jump\t// in\n    tag_311:\n        /* \"#utility.yul\":5509:5595   */\n      swap1\n      pop\n        /* \"#utility.yul\":5605:5677   */\n      tag_312\n        /* \"#utility.yul\":5673:5675   */\n      0x20\n        /* \"#utility.yul\":5662:5671   */\n      dup4\n        /* \"#utility.yul\":5658:5676   */\n      add\n        /* \"#utility.yul\":5649:5655   */\n      dup12\n        /* \"#utility.yul\":5605:5677   */\n      tag_218\n      jump\t// in\n    tag_312:\n        /* \"#utility.yul\":5687:5766   */\n      tag_313\n        /* \"#utility.yul\":5762:5764   */\n      0x40\n        /* \"#utility.yul\":5751:5760   */\n      dup4\n        /* \"#utility.yul\":5747:5765   */\n      add\n        /* \"#utility.yul\":5738:5744   */\n      dup11\n        /* \"#utility.yul\":5687:5766   */\n      tag_222\n      jump\t// in\n    tag_313:\n        /* \"#utility.yul\":5776:5848   */\n      tag_314\n        /* \"#utility.yul\":5844:5846   */\n      0x60\n        /* \"#utility.yul\":5833:5842   */\n      dup4\n        /* \"#utility.yul\":5829:5847   */\n      add\n        /* \"#utility.yul\":5820:5826   */\n      dup10\n        /* \"#utility.yul\":5776:5848   */\n      tag_213\n      jump\t// in\n    tag_314:\n        /* \"#utility.yul\":5858:5931   */\n      tag_315\n        /* \"#utility.yul\":5926:5929   */\n      0x80\n        /* \"#utility.yul\":5915:5924   */\n      dup4\n        /* \"#utility.yul\":5911:5930   */\n      add\n        /* \"#utility.yul\":5902:5908   */\n      dup9\n        /* \"#utility.yul\":5858:5931   */\n      tag_213\n      jump\t// in\n    tag_315:\n        /* \"#utility.yul\":5941:6014   */\n      tag_316\n        /* \"#utility.yul\":6009:6012   */\n      0xa0\n        /* \"#utility.yul\":5998:6007   */\n      dup4\n        /* \"#utility.yul\":5994:6013   */\n      add\n        /* \"#utility.yul\":5985:5991   */\n      dup8\n        /* \"#utility.yul\":5941:6014   */\n      tag_213\n      jump\t// in\n    tag_316:\n        /* \"#utility.yul\":6024:6097   */\n      tag_317\n        /* \"#utility.yul\":6092:6095   */\n      0xc0\n        /* \"#utility.yul\":6081:6090   */\n      dup4\n        /* \"#utility.yul\":6077:6096   */\n      add\n        /* \"#utility.yul\":6068:6074   */\n      dup7\n        /* \"#utility.yul\":6024:6097   */\n      tag_213\n      jump\t// in\n    tag_317:\n        /* \"#utility.yul\":6107:6174   */\n      tag_318\n        /* \"#utility.yul\":6169:6172   */\n      0xe0\n        /* \"#utility.yul\":6158:6167   */\n      dup4\n        /* \"#utility.yul\":6154:6173   */\n      add\n        /* \"#utility.yul\":6145:6151   */\n      dup6\n        /* \"#utility.yul\":6107:6174   */\n      tag_217\n      jump\t// in\n    tag_318:\n        /* \"#utility.yul\":6222:6231   */\n      dup2\n        /* \"#utility.yul\":6216:6220   */\n      dup2\n        /* \"#utility.yul\":6212:6232   */\n      sub\n        /* \"#utility.yul\":6206:6209   */\n      0x0100\n        /* \"#utility.yul\":6195:6204   */\n      dup4\n        /* \"#utility.yul\":6191:6210   */\n      add\n        /* \"#utility.yul\":6184:6233   */\n      mstore\n        /* \"#utility.yul\":6250:6328   */\n      tag_319\n        /* \"#utility.yul\":6323:6327   */\n      dup2\n        /* \"#utility.yul\":6314:6320   */\n      dup5\n        /* \"#utility.yul\":6250:6328   */\n      tag_204\n      jump\t// in\n    tag_319:\n        /* \"#utility.yul\":6242:6328   */\n      swap1\n      pop\n        /* \"#utility.yul\":5043:6335   */\n      swap11\n      swap10\n      pop\n      pop\n      pop\n      pop\n      pop\n      pop\n      pop\n      pop\n      pop\n      pop\n      jump\t// out\n        /* \"#utility.yul\":6341:6505   */\n    tag_223:\n        /* \"#utility.yul\":6481:6497   */\n      0x4e616f206175746f72697a61646f000000000000000000000000000000000000\n        /* \"#utility.yul\":6477:6478   */\n      0x00\n        /* \"#utility.yul\":6469:6475   */\n      dup3\n        /* \"#utility.yul\":6465:6479   */\n      add\n        /* \"#utility.yul\":6458:6498   */\n      mstore\n        /* \"#utility.yul\":6341:6505   */\n      pop\n      jump\t// out\n        /* \"#utility.yul\":6511:6877   */\n    tag_224:\n        /* \"#utility.yul\":6653:6656   */\n      0x00\n        /* \"#utility.yul\":6674:6741   */\n      tag_322\n        /* \"#utility.yul\":6738:6740   */\n      0x0e\n        /* \"#utility.yul\":6733:6736   */\n      dup4\n        /* \"#utility.yul\":6674:6741   */\n      tag_201\n      jump\t// in\n    tag_322:\n        /* \"#utility.yul\":6667:6741   */\n      swap2\n      pop\n        /* \"#utility.yul\":6750:6843   */\n      tag_323\n        /* \"#utility.yul\":6839:6842   */\n      dup3\n        /* \"#utility.yul\":6750:6843   */\n      tag_223\n      jump\t// in\n    tag_323:\n        /* \"#utility.yul\":6868:6870   */\n      0x20\n        /* \"#utility.yul\":6863:6866   */\n      dup3\n        /* \"#utility.yul\":6859:6871   */\n      add\n        /* \"#utility.yul\":6852:6871   */\n      swap1\n      pop\n        /* \"#utility.yul\":6511:6877   */\n      swap2\n      swap1\n      pop\n      jump\t// out\n        /* \"#utility.yul\":6883:7302   */\n    tag_62:\n        /* \"#utility.yul\":7049:7053   */\n      0x00\n        /* \"#utility.yul\":7087:7089   */\n      0x20\n        /* \"#utility.yul\":7076:7085   */\n      dup3\n        /* \"#utility.yul\":7072:7090   */\n      add\n        /* \"#utility.yul\":7064:7090   */\n      swap1\n      pop\n        /* \"#utility.yul\":7136:7145   */\n      dup2\n        /* \"#utility.yul\":7130:7134   */\n      dup2\n        /* \"#utility.yul\":7126:7146   */\n      sub\n        /* \"#utility.yul\":7122:7123   */\n      0x00\n        /* \"#utility.yul\":7111:7120   */\n      dup4\n        /* \"#utility.yul\":7107:7124   */\n      add\n        /* \"#utility.yul\":7100:7147   */\n      mstore\n        /* \"#utility.yul\":7164:7295   */\n      tag_325\n        /* \"#utility.yul\":7290:7294   */\n      dup2\n        /* \"#utility.yul\":7164:7295   */\n      tag_224\n      jump\t// in\n    tag_325:\n        /* \"#utility.yul\":7156:7295   */\n      swap1\n      pop\n        /* \"#utility.yul\":6883:7302   */\n      swap2\n      swap1\n      pop\n      jump\t// out\n        /* \"#utility.yul\":7308:7468   */\n    tag_225:\n        /* \"#utility.yul\":7448:7460   */\n      0x4a612061636569746f7500000000000000000000000000000000000000000000\n        /* \"#utility.yul\":7444:7445   */\n      0x00\n        /* \"#utility.yul\":7436:7442   */\n      dup3\n        /* \"#utility.yul\":7432:7446   */\n      add\n        /* \"#utility.yul\":7425:7461   */\n      mstore\n        /* \"#utility.yul\":7308:7468   */\n      pop\n      jump\t// out\n        /* \"#utility.yul\":7474:7840   */\n    tag_226:\n        /* \"#utility.yul\":7616:7619   */\n      0x00\n        /* \"#utility.yul\":7637:7704   */\n      tag_328\n        /* \"#utility.yul\":7701:7703   */\n      0x0a\n        /* \"#utility.yul\":7696:7699   */\n      dup4\n        /* \"#utility.yul\":7637:7704   */\n      tag_201\n      jump\t// in\n    tag_328:\n        /* \"#utility.yul\":7630:7704   */\n      swap2\n      pop\n        /* \"#utility.yul\":7713:7806   */\n      tag_329\n        /* \"#utility.yul\":7802:7805   */\n      dup3\n        /* \"#utility.yul\":7713:7806   */\n      tag_225\n      jump\t// in\n    tag_329:\n        /* \"#utility.yul\":7831:7833   */\n      0x20\n        /* \"#utility.yul\":7826:7829   */\n      dup3\n        /* \"#utility.yul\":7822:7834   */\n      add\n        /* \"#utility.yul\":7815:7834   */\n      swap1\n      pop\n        /* \"#utility.yul\":7474:7840   */\n      swap2\n      swap1\n      pop\n      jump\t// out\n        /* \"#utility.yul\":7846:8265   */\n    tag_66:\n        /* \"#utility.yul\":8012:8016   */\n      0x00\n        /* \"#utility.yul\":8050:8052   */\n      0x20\n        /* \"#utility.yul\":8039:8048   */\n      dup3\n        /* \"#utility.yul\":8035:8053   */\n      add\n        /* \"#utility.yul\":8027:8053   */\n      swap1\n      pop\n        /* \"#utility.yul\":8099:8108   */\n      dup2\n        /* \"#utility.yul\":8093:8097   */\n      dup2\n        /* \"#utility.yul\":8089:8109   */\n      sub\n        /* \"#utility.yul\":8085:8086   */\n      0x00\n        /* \"#utility.yul\":8074:8083   */\n      dup4\n        /* \"#utility.yul\":8070:8087   */\n      add\n        /* \"#utility.yul\":8063:8110   */\n      mstore\n        /* \"#utility.yul\":8127:8258   */\n      tag_331\n        /* \"#utility.yul\":8253:8257   */\n      dup2\n        /* \"#utility.yul\":8127:8258   */\n      tag_226\n      jump\t// in\n    tag_331:\n        /* \"#utility.yul\":8119:8258   */\n      swap1\n      pop\n        /* \"#utility.yul\":7846:8265   */\n      swap2\n      swap1\n      pop\n      jump\t// out\n        /* \"#utility.yul\":8271:8444   */\n    tag_227:\n        /* \"#utility.yul\":8411:8436   */\n      0x436f6e74726174616e7465206e616f2061636569746f75000000000000000000\n        /* \"#utility.yul\":8407:8408   */\n      0x00\n        /* \"#utility.yul\":8399:8405   */\n      dup3\n        /* \"#utility.yul\":8395:8409   */\n      add\n        /* \"#utility.yul\":8388:8437   */\n      mstore\n        /* \"#utility.yul\":8271:8444   */\n      pop\n      jump\t// out\n        /* \"#utility.yul\":8450:8816   */\n    tag_228:\n        /* \"#utility.yul\":8592:8595   */\n      0x00\n        /* \"#utility.yul\":8613:8680   */\n      tag_334\n        /* \"#utility.yul\":8677:8679   */\n      0x17\n        /* \"#utility.yul\":8672:8675   */\n      dup4\n        /* \"#utility.yul\":8613:8680   */\n      tag_201\n      jump\t// in\n    tag_334:\n        /* \"#utility.yul\":8606:8680   */\n      swap2\n      pop\n        /* \"#utility.yul\":8689:8782   */\n      tag_335\n        /* \"#utility.yul\":8778:8781   */\n      dup3\n        /* \"#utility.yul\":8689:8782   */\n      tag_227\n      jump\t// in\n    tag_335:\n        /* \"#utility.yul\":8807:8809   */\n      0x20\n        /* \"#utility.yul\":8802:8805   */\n      dup3\n        /* \"#utility.yul\":8798:8810   */\n      add\n        /* \"#utility.yul\":8791:8810   */\n      swap1\n      pop\n        /* \"#utility.yul\":8450:8816   */\n      swap2\n      swap1\n      pop\n      jump\t// out\n        /* \"#utility.yul\":8822:9241   */\n    tag_71:\n        /* \"#utility.yul\":8988:8992   */\n      0x00\n        /* \"#utility.yul\":9026:9028   */\n      0x20\n        /* \"#utility.yul\":9015:9024   */\n      dup3\n        /* \"#utility.yul\":9011:9029   */\n      add\n        /* \"#utility.yul\":9003:9029   */\n      swap1\n      pop\n        /* \"#utility.yul\":9075:9084   */\n      dup2\n        /* \"#utility.yul\":9069:9073   */\n      dup2\n        /* \"#utility.yul\":9065:9085   */\n      sub\n        /* \"#utility.yul\":9061:9062   */\n      0x00\n        /* \"#utility.yul\":9050:9059   */\n      dup4\n        /* \"#utility.yul\":9046:9063   */\n      add\n        /* \"#utility.yul\":9039:9086   */\n      mstore\n        /* \"#utility.yul\":9103:9234   */\n      tag_337\n        /* \"#utility.yul\":9229:9233   */\n      dup2\n        /* \"#utility.yul\":9103:9234   */\n      tag_228\n      jump\t// in\n    tag_337:\n        /* \"#utility.yul\":9095:9234   */\n      swap1\n      pop\n        /* \"#utility.yul\":8822:9241   */\n      swap2\n      swap1\n      pop\n      jump\t// out\n        /* \"#utility.yul\":9247:9419   */\n    tag_229:\n        /* \"#utility.yul\":9387:9411   */\n      0x436f6e7472617461646f206e616f2061636569746f7500000000000000000000\n        /* \"#utility.yul\":9383:9384   */\n      0x00\n        /* \"#utility.yul\":9375:9381   */\n      dup3\n        /* \"#utility.yul\":9371:9385   */\n      add\n        /* \"#utility.yul\":9364:9412   */\n      mstore\n        /* \"#utility.yul\":9247:9419   */\n      pop\n      jump\t// out\n        /* \"#utility.yul\":9425:9791   */\n    tag_230:\n        /* \"#utility.yul\":9567:9570   */\n      0x00\n        /* \"#utility.yul\":9588:9655   */\n      tag_340\n        /* \"#utility.yul\":9652:9654   */\n      0x16\n        /* \"#utility.yul\":9647:9650   */\n      dup4\n        /* \"#utility.yul\":9588:9655   */\n      tag_201\n      jump\t// in\n    tag_340:\n        /* \"#utility.yul\":9581:9655   */\n      swap2\n      pop\n        /* \"#utility.yul\":9664:9757   */\n      tag_341\n        /* \"#utility.yul\":9753:9756   */\n      dup3\n        /* \"#utility.yul\":9664:9757   */\n      tag_229\n      jump\t// in\n    tag_341:\n        /* \"#utility.yul\":9782:9784   */\n      0x20\n        /* \"#utility.yul\":9777:9780   */\n      dup3\n        /* \"#utility.yul\":9773:9785   */\n      add\n        /* \"#utility.yul\":9766:9785   */\n      swap1\n      pop\n        /* \"#utility.yul\":9425:9791   */\n      swap2\n      swap1\n      pop\n      jump\t// out\n        /* \"#utility.yul\":9797:10216   */\n    tag_74:\n        /* \"#utility.yul\":9963:9967   */\n      0x00\n        /* \"#utility.yul\":10001:10003   */\n      0x20\n        /* \"#utility.yul\":9990:9999   */\n      dup3\n        /* \"#utility.yul\":9986:10004   */\n      add\n        /* \"#utility.yul\":9978:10004   */\n      swap1\n      pop\n        /* \"#utility.yul\":10050:10059   */\n      dup2\n        /* \"#utility.yul\":10044:10048   */\n      dup2\n        /* \"#utility.yul\":10040:10060   */\n      sub\n        /* \"#utility.yul\":10036:10037   */\n      0x00\n        /* \"#utility.yul\":10025:10034   */\n      dup4\n        /* \"#utility.yul\":10021:10038   */\n      add\n        /* \"#utility.yul\":10014:10061   */\n      mstore\n        /* \"#utility.yul\":10078:10209   */\n      tag_343\n        /* \"#utility.yul\":10204:10208   */\n      dup2\n        /* \"#utility.yul\":10078:10209   */\n      tag_230\n      jump\t// in\n    tag_343:\n        /* \"#utility.yul\":10070:10209   */\n      swap1\n      pop\n        /* \"#utility.yul\":9797:10216   */\n      swap2\n      swap1\n      pop\n      jump\t// out\n        /* \"#utility.yul\":10222:10444   */\n    tag_231:\n        /* \"#utility.yul\":10362:10396   */\n      0x536f6d656e7465206f20636f6e74726174616e746520706f6465206578656375\n        /* \"#utility.yul\":10358:10359   */\n      0x00\n        /* \"#utility.yul\":10350:10356   */\n      dup3\n        /* \"#utility.yul\":10346:10360   */\n      add\n        /* \"#utility.yul\":10339:10397   */\n      mstore\n        /* \"#utility.yul\":10431:10436   */\n      0x7461720000000000000000000000000000000000000000000000000000000000\n        /* \"#utility.yul\":10426:10428   */\n      0x20\n        /* \"#utility.yul\":10418:10424   */\n      dup3\n        /* \"#utility.yul\":10414:10429   */\n      add\n        /* \"#utility.yul\":10407:10437   */\n      mstore\n        /* \"#utility.yul\":10222:10444   */\n      pop\n      jump\t// out\n        /* \"#utility.yul\":10450:10816   */\n    tag_232:\n        /* \"#utility.yul\":10592:10595   */\n      0x00\n        /* \"#utility.yul\":10613:10680   */\n      tag_346\n        /* \"#utility.yul\":10677:10679   */\n      0x23\n        /* \"#utility.yul\":10672:10675   */\n      dup4\n        /* \"#utility.yul\":10613:10680   */\n      tag_201\n      jump\t// in\n    tag_346:\n        /* \"#utility.yul\":10606:10680   */\n      swap2\n      pop\n        /* \"#utility.yul\":10689:10782   */\n      tag_347\n        /* \"#utility.yul\":10778:10781   */\n      dup3\n        /* \"#utility.yul\":10689:10782   */\n      tag_231\n      jump\t// in\n    tag_347:\n        /* \"#utility.yul\":10807:10809   */\n      0x40\n        /* \"#utility.yul\":10802:10805   */\n      dup3\n        /* \"#utility.yul\":10798:10810   */\n      add\n        /* \"#utility.yul\":10791:10810   */\n      swap1\n      pop\n        /* \"#utility.yul\":10450:10816   */\n      swap2\n      swap1\n      pop\n      jump\t// out\n        /* \"#utility.yul\":10822:11241   */\n    tag_84:\n        /* \"#utility.yul\":10988:10992   */\n      0x00\n        /* \"#utility.yul\":11026:11028   */\n      0x20\n        /* \"#utility.yul\":11015:11024   */\n      dup3\n        /* \"#utility.yul\":11011:11029   */\n      add\n        /* \"#utility.yul\":11003:11029   */\n      swap1\n      pop\n        /* \"#utility.yul\":11075:11084   */\n      dup2\n        /* \"#utility.yul\":11069:11073   */\n      dup2\n        /* \"#utility.yul\":11065:11085   */\n      sub\n        /* \"#utility.yul\":11061:11062   */\n      0x00\n        /* \"#utility.yul\":11050:11059   */\n      dup4\n        /* \"#utility.yul\":11046:11063   */\n      add\n        /* \"#utility.yul\":11039:11086   */\n      mstore\n        /* \"#utility.yul\":11103:11234   */\n      tag_349\n        /* \"#utility.yul\":11229:11233   */\n      dup2\n        /* \"#utility.yul\":11103:11234   */\n      tag_232\n      jump\t// in\n    tag_349:\n        /* \"#utility.yul\":11095:11234   */\n      swap1\n      pop\n        /* \"#utility.yul\":10822:11241   */\n      swap2\n      swap1\n      pop\n      jump\t// out\n        /* \"#utility.yul\":11247:11418   */\n    tag_233:\n        /* \"#utility.yul\":11387:11410   */\n      0x5365727669636f206e616f20636f6e636c7569646f0000000000000000000000\n        /* \"#utility.yul\":11383:11384   */\n      0x00\n        /* \"#utility.yul\":11375:11381   */\n      dup3\n        /* \"#utility.yul\":11371:11385   */\n      add\n        /* \"#utility.yul\":11364:11411   */\n      mstore\n        /* \"#utility.yul\":11247:11418   */\n      pop\n      jump\t// out\n        /* \"#utility.yul\":11424:11790   */\n    tag_234:\n        /* \"#utility.yul\":11566:11569   */\n      0x00\n        /* \"#utility.yul\":11587:11654   */\n      tag_352\n        /* \"#utility.yul\":11651:11653   */\n      0x15\n        /* \"#utility.yul\":11646:11649   */\n      dup4\n        /* \"#utility.yul\":11587:11654   */\n      tag_201\n      jump\t// in\n    tag_352:\n        /* \"#utility.yul\":11580:11654   */\n      swap2\n      pop\n        /* \"#utility.yul\":11663:11756   */\n      tag_353\n        /* \"#utility.yul\":11752:11755   */\n      dup3\n        /* \"#utility.yul\":11663:11756   */\n      tag_233\n      jump\t// in\n    tag_353:\n        /* \"#utility.yul\":11781:11783   */\n      0x20\n        /* \"#utility.yul\":11776:11779   */\n      dup3\n        /* \"#utility.yul\":11772:11784   */\n      add\n        /* \"#utility.yul\":11765:11784   */\n      swap1\n      pop\n        /* \"#utility.yul\":11424:11790   */\n      swap2\n      swap1\n      pop\n      jump\t// out\n        /* \"#utility.yul\":11796:12215   */\n    tag_92:\n        /* \"#utility.yul\":11962:11966   */\n      0x00\n        /* \"#utility.yul\":12000:12002   */\n      0x20\n        /* \"#utility.yul\":11989:11998   */\n      dup3\n        /* \"#utility.yul\":11985:12003   */\n      add\n        /* \"#utility.yul\":11977:12003   */\n      swap1\n      pop\n        /* \"#utility.yul\":12049:12058   */\n      dup2\n        /* \"#utility.yul\":12043:12047   */\n      dup2\n        /* \"#utility.yul\":12039:12059   */\n      sub\n        /* \"#utility.yul\":12035:12036   */\n      0x00\n        /* \"#utility.yul\":12024:12033   */\n      dup4\n        /* \"#utility.yul\":12020:12037   */\n      add\n        /* \"#utility.yul\":12013:12060   */\n      mstore\n        /* \"#utility.yul\":12077:12208   */\n      tag_355\n        /* \"#utility.yul\":12203:12207   */\n      dup2\n        /* \"#utility.yul\":12077:12208   */\n      tag_234\n      jump\t// in\n    tag_355:\n        /* \"#utility.yul\":12069:12208   */\n      swap1\n      pop\n        /* \"#utility.yul\":11796:12215   */\n      swap2\n      swap1\n      pop\n      jump\t// out\n        /* \"#utility.yul\":12221:12446   */\n    tag_235:\n        /* \"#utility.yul\":12361:12395   */\n      0x436f6e747261746f206e616f207265636f6e68656369646f206a757269646963\n        /* \"#utility.yul\":12357:12358   */\n      0x00\n        /* \"#utility.yul\":12349:12355   */\n      dup3\n        /* \"#utility.yul\":12345:12359   */\n      add\n        /* \"#utility.yul\":12338:12396   */\n      mstore\n        /* \"#utility.yul\":12430:12438   */\n      0x616d656e74650000000000000000000000000000000000000000000000000000\n        /* \"#utility.yul\":12425:12427   */\n      0x20\n        /* \"#utility.yul\":12417:12423   */\n      dup3\n        /* \"#utility.yul\":12413:12428   */\n      add\n        /* \"#utility.yul\":12406:12439   */\n      mstore\n        /* \"#utility.yul\":12221:12446   */\n      pop\n      jump\t// out\n        /* \"#utility.yul\":12452:12818   */\n    tag_236:\n        /* \"#utility.yul\":12594:12597   */\n      0x00\n        /* \"#utility.yul\":12615:12682   */\n      tag_358\n        /* \"#utility.yul\":12679:12681   */\n      0x26\n        /* \"#utility.yul\":12674:12677   */\n      dup4\n        /* \"#utility.yul\":12615:12682   */\n      tag_201\n      jump\t// in\n    tag_358:\n        /* \"#utility.yul\":12608:12682   */\n      swap2\n      pop\n        /* \"#utility.yul\":12691:12784   */\n      tag_359\n        /* \"#utility.yul\":12780:12783   */\n      dup3\n        /* \"#utility.yul\":12691:12784   */\n      tag_235\n      jump\t// in\n    tag_359:\n        /* \"#utility.yul\":12809:12811   */\n      0x40\n        /* \"#utility.yul\":12804:12807   */\n      dup3\n        /* \"#utility.yul\":12800:12812   */\n      add\n        /* \"#utility.yul\":12793:12812   */\n      swap1\n      pop\n        /* \"#utility.yul\":12452:12818   */\n      swap2\n      swap1\n      pop\n      jump\t// out\n        /* \"#utility.yul\":12824:13243   */\n    tag_95:\n        /* \"#utility.yul\":12990:12994   */\n      0x00\n        /* \"#utility.yul\":13028:13030   */\n      0x20\n        /* \"#utility.yul\":13017:13026   */\n      dup3\n        /* \"#utility.yul\":13013:13031   */\n      add\n        /* \"#utility.yul\":13005:13031   */\n      swap1\n      pop\n        /* \"#utility.yul\":13077:13086   */\n      dup2\n        /* \"#utility.yul\":13071:13075   */\n      dup2\n        /* \"#utility.yul\":13067:13087   */\n      sub\n        /* \"#utility.yul\":13063:13064   */\n      0x00\n        /* \"#utility.yul\":13052:13061   */\n      dup4\n        /* \"#utility.yul\":13048:13065   */\n      add\n        /* \"#utility.yul\":13041:13088   */\n      mstore\n        /* \"#utility.yul\":13105:13236   */\n      tag_361\n        /* \"#utility.yul\":13231:13235   */\n      dup2\n        /* \"#utility.yul\":13105:13236   */\n      tag_236\n      jump\t// in\n    tag_361:\n        /* \"#utility.yul\":13097:13236   */\n      swap1\n      pop\n        /* \"#utility.yul\":12824:13243   */\n      swap2\n      swap1\n      pop\n      jump\t// out\n        /* \"#utility.yul\":13249:13417   */\n    tag_237:\n        /* \"#utility.yul\":13389:13409   */\n      0x56616c6f7220696e737566696369656e74650000000000000000000000000000\n        /* \"#utility.yul\":13385:13386   */\n      0x00\n        /* \"#utility.yul\":13377:13383   */\n      dup3\n        /* \"#utility.yul\":13373:13387   */\n      add\n        /* \"#utility.yul\":13366:13410   */\n      mstore\n        /* \"#utility.yul\":13249:13417   */\n      pop\n      jump\t// out\n        /* \"#utility.yul\":13423:13789   */\n    tag_238:\n        /* \"#utility.yul\":13565:13568   */\n      0x00\n        /* \"#utility.yul\":13586:13653   */\n      tag_364\n        /* \"#utility.yul\":13650:13652   */\n      0x12\n        /* \"#utility.yul\":13645:13648   */\n      dup4\n        /* \"#utility.yul\":13586:13653   */\n      tag_201\n      jump\t// in\n    tag_364:\n        /* \"#utility.yul\":13579:13653   */\n      swap2\n      pop\n        /* \"#utility.yul\":13662:13755   */\n      tag_365\n        /* \"#utility.yul\":13751:13754   */\n      dup3\n        /* \"#utility.yul\":13662:13755   */\n      tag_237\n      jump\t// in\n    tag_365:\n        /* \"#utility.yul\":13780:13782   */\n      0x20\n        /* \"#utility.yul\":13775:13778   */\n      dup3\n        /* \"#utility.yul\":13771:13783   */\n      add\n        /* \"#utility.yul\":13764:13783   */\n      swap1\n      pop\n        /* \"#utility.yul\":13423:13789   */\n      swap2\n      swap1\n      pop\n      jump\t// out\n        /* \"#utility.yul\":13795:14214   */\n    tag_98:\n        /* \"#utility.yul\":13961:13965   */\n      0x00\n        /* \"#utility.yul\":13999:14001   */\n      0x20\n        /* \"#utility.yul\":13988:13997   */\n      dup3\n        /* \"#utility.yul\":13984:14002   */\n      add\n        /* \"#utility.yul\":13976:14002   */\n      swap1\n      pop\n        /* \"#utility.yul\":14048:14057   */\n      dup2\n        /* \"#utility.yul\":14042:14046   */\n      dup2\n        /* \"#utility.yul\":14038:14058   */\n      sub\n        /* \"#utility.yul\":14034:14035   */\n      0x00\n        /* \"#utility.yul\":14023:14032   */\n      dup4\n        /* \"#utility.yul\":14019:14036   */\n      add\n        /* \"#utility.yul\":14012:14059   */\n      mstore\n        /* \"#utility.yul\":14076:14207   */\n      tag_367\n        /* \"#utility.yul\":14202:14206   */\n      dup2\n        /* \"#utility.yul\":14076:14207   */\n      tag_238\n      jump\t// in\n    tag_367:\n        /* \"#utility.yul\":14068:14207   */\n      swap1\n      pop\n        /* \"#utility.yul\":13795:14214   */\n      swap2\n      swap1\n      pop\n      jump\t// out\n        /* \"#utility.yul\":14220:14552   */\n    tag_102:\n        /* \"#utility.yul\":14341:14345   */\n      0x00\n        /* \"#utility.yul\":14379:14381   */\n      0x40\n        /* \"#utility.yul\":14368:14377   */\n      dup3\n        /* \"#utility.yul\":14364:14382   */\n      add\n        /* \"#utility.yul\":14356:14382   */\n      swap1\n      pop\n        /* \"#utility.yul\":14392:14463   */\n      tag_369\n        /* \"#utility.yul\":14460:14461   */\n      0x00\n        /* \"#utility.yul\":14449:14458   */\n      dup4\n        /* \"#utility.yul\":14445:14462   */\n      add\n        /* \"#utility.yul\":14436:14442   */\n      dup6\n        /* \"#utility.yul\":14392:14463   */\n      tag_213\n      jump\t// in\n    tag_369:\n        /* \"#utility.yul\":14473:14545   */\n      tag_370\n        /* \"#utility.yul\":14541:14543   */\n      0x20\n        /* \"#utility.yul\":14530:14539   */\n      dup4\n        /* \"#utility.yul\":14526:14544   */\n      add\n        /* \"#utility.yul\":14517:14523   */\n      dup5\n        /* \"#utility.yul\":14473:14545   */\n      tag_218\n      jump\t// in\n    tag_370:\n        /* \"#utility.yul\":14220:14552   */\n      swap4\n      swap3\n      pop\n      pop\n      pop\n      jump\t// out\n        /* \"#utility.yul\":14558:14779   */\n    tag_239:\n        /* \"#utility.yul\":14698:14732   */\n      0x536f6d656e7465206f20636f6e7472617461646f20706f646520657865637574\n        /* \"#utility.yul\":14694:14695   */\n      0x00\n        /* \"#utility.yul\":14686:14692   */\n      dup3\n        /* \"#utility.yul\":14682:14696   */\n      add\n        /* \"#utility.yul\":14675:14733   */\n      mstore\n        /* \"#utility.yul\":14767:14771   */\n      0x6172000000000000000000000000000000000000000000000000000000000000\n        /* \"#utility.yul\":14762:14764   */\n      0x20\n        /* \"#utility.yul\":14754:14760   */\n      dup3\n        /* \"#utility.yul\":14750:14765   */\n      add\n        /* \"#utility.yul\":14743:14772   */\n      mstore\n        /* \"#utility.yul\":14558:14779   */\n      pop\n      jump\t// out\n        /* \"#utility.yul\":14785:15151   */\n    tag_240:\n        /* \"#utility.yul\":14927:14930   */\n      0x00\n        /* \"#utility.yul\":14948:15015   */\n      tag_373\n        /* \"#utility.yul\":15012:15014   */\n      0x22\n        /* \"#utility.yul\":15007:15010   */\n      dup4\n        /* \"#utility.yul\":14948:15015   */\n      tag_201\n      jump\t// in\n    tag_373:\n        /* \"#utility.yul\":14941:15015   */\n      swap2\n      pop\n        /* \"#utility.yul\":15024:15117   */\n      tag_374\n        /* \"#utility.yul\":15113:15116   */\n      dup3\n        /* \"#utility.yul\":15024:15117   */\n      tag_239\n      jump\t// in\n    tag_374:\n        /* \"#utility.yul\":15142:15144   */\n      0x40\n        /* \"#utility.yul\":15137:15140   */\n      dup3\n        /* \"#utility.yul\":15133:15145   */\n      add\n        /* \"#utility.yul\":15126:15145   */\n      swap1\n      pop\n        /* \"#utility.yul\":14785:15151   */\n      swap2\n      swap1\n      pop\n      jump\t// out\n        /* \"#utility.yul\":15157:15576   */\n    tag_134:\n        /* \"#utility.yul\":15323:15327   */\n      0x00\n        /* \"#utility.yul\":15361:15363   */\n      0x20\n        /* \"#utility.yul\":15350:15359   */\n      dup3\n        /* \"#utility.yul\":15346:15364   */\n      add\n        /* \"#utility.yul\":15338:15364   */\n      swap1\n      pop\n        /* \"#utility.yul\":15410:15419   */\n      dup2\n        /* \"#utility.yul\":15404:15408   */\n      dup2\n        /* \"#utility.yul\":15400:15420   */\n      sub\n        /* \"#utility.yul\":15396:15397   */\n      0x00\n        /* \"#utility.yul\":15385:15394   */\n      dup4\n        /* \"#utility.yul\":15381:15398   */\n      add\n        /* \"#utility.yul\":15374:15421   */\n      mstore\n        /* \"#utility.yul\":15438:15569   */\n      tag_376\n        /* \"#utility.yul\":15564:15568   */\n      dup2\n        /* \"#utility.yul\":15438:15569   */\n      tag_240\n      jump\t// in\n    tag_376:\n        /* \"#utility.yul\":15430:15569   */\n      swap1\n      pop\n        /* \"#utility.yul\":15157:15576   */\n      swap2\n      swap1\n      pop\n      jump\t// out\n        /* \"#utility.yul\":15582:15752   */\n    tag_241:\n        /* \"#utility.yul\":15722:15744   */\n      0x5365727669636f206e616f20696e69636961646f000000000000000000000000\n        /* \"#utility.yul\":15718:15719   */\n      0x00\n        /* \"#utility.yul\":15710:15716   */\n      dup3\n        /* \"#utility.yul\":15706:15720   */\n      add\n        /* \"#utility.yul\":15699:15745   */\n      mstore\n        /* \"#utility.yul\":15582:15752   */\n      pop\n      jump\t// out\n        /* \"#utility.yul\":15758:16124   */\n    tag_242:\n        /* \"#utility.yul\":15900:15903   */\n      0x00\n        /* \"#utility.yul\":15921:15988   */\n      tag_379\n        /* \"#utility.yul\":15985:15987   */\n      0x14\n        /* \"#utility.yul\":15980:15983   */\n      dup4\n        /* \"#utility.yul\":15921:15988   */\n      tag_201\n      jump\t// in\n    tag_379:\n        /* \"#utility.yul\":15914:15988   */\n      swap2\n      pop\n        /* \"#utility.yul\":15997:16090   */\n      tag_380\n        /* \"#utility.yul\":16086:16089   */\n      dup3\n        /* \"#utility.yul\":15997:16090   */\n      tag_241\n      jump\t// in\n    tag_380:\n        /* \"#utility.yul\":16115:16117   */\n      0x20\n        /* \"#utility.yul\":16110:16113   */\n      dup3\n        /* \"#utility.yul\":16106:16118   */\n      add\n        /* \"#utility.yul\":16099:16118   */\n      swap1\n      pop\n        /* \"#utility.yul\":15758:16124   */\n      swap2\n      swap1\n      pop\n      jump\t// out\n        /* \"#utility.yul\":16130:16549   */\n    tag_142:\n        /* \"#utility.yul\":16296:16300   */\n      0x00\n        /* \"#utility.yul\":16334:16336   */\n      0x20\n        /* \"#utility.yul\":16323:16332   */\n      dup3\n        /* \"#utility.yul\":16319:16337   */\n      add\n        /* \"#utility.yul\":16311:16337   */\n      swap1\n      pop\n        /* \"#utility.yul\":16383:16392   */\n      dup2\n        /* \"#utility.yul\":16377:16381   */\n      dup2\n        /* \"#utility.yul\":16373:16393   */\n      sub\n        /* \"#utility.yul\":16369:16370   */\n      0x00\n        /* \"#utility.yul\":16358:16367   */\n      dup4\n        /* \"#utility.yul\":16354:16371   */\n      add\n        /* \"#utility.yul\":16347:16394   */\n      mstore\n        /* \"#utility.yul\":16411:16542   */\n      tag_382\n        /* \"#utility.yul\":16537:16541   */\n      dup2\n        /* \"#utility.yul\":16411:16542   */\n      tag_242\n      jump\t// in\n    tag_382:\n        /* \"#utility.yul\":16403:16542   */\n      swap1\n      pop\n        /* \"#utility.yul\":16130:16549   */\n      swap2\n      swap1\n      pop\n      jump\t// out\n        /* \"#utility.yul\":16555:16737   */\n    tag_243:\n        /* \"#utility.yul\":16695:16729   */\n      0x536f6d656e7465206f206164766f6761646f20706f6465206578656375746172\n        /* \"#utility.yul\":16691:16692   */\n      0x00\n        /* \"#utility.yul\":16683:16689   */\n      dup3\n        /* \"#utility.yul\":16679:16693   */\n      add\n        /* \"#utility.yul\":16672:16730   */\n      mstore\n        /* \"#utility.yul\":16555:16737   */\n      pop\n      jump\t// out\n        /* \"#utility.yul\":16743:17109   */\n    tag_244:\n        /* \"#utility.yul\":16885:16888   */\n      0x00\n        /* \"#utility.yul\":16906:16973   */\n      tag_385\n        /* \"#utility.yul\":16970:16972   */\n      0x20\n        /* \"#utility.yul\":16965:16968   */\n      dup4\n        /* \"#utility.yul\":16906:16973   */\n      tag_201\n      jump\t// in\n    tag_385:\n        /* \"#utility.yul\":16899:16973   */\n      swap2\n      pop\n        /* \"#utility.yul\":16982:17075   */\n      tag_386\n        /* \"#utility.yul\":17071:17074   */\n      dup3\n        /* \"#utility.yul\":16982:17075   */\n      tag_243\n      jump\t// in\n    tag_386:\n        /* \"#utility.yul\":17100:17102   */\n      0x20\n        /* \"#utility.yul\":17095:17098   */\n      dup3\n        /* \"#utility.yul\":17091:17103   */\n      add\n        /* \"#utility.yul\":17084:17103   */\n      swap1\n      pop\n        /* \"#utility.yul\":16743:17109   */\n      swap2\n      swap1\n      pop\n      jump\t// out\n        /* \"#utility.yul\":17115:17534   */\n    tag_148:\n        /* \"#utility.yul\":17281:17285   */\n      0x00\n        /* \"#utility.yul\":17319:17321   */\n      0x20\n        /* \"#utility.yul\":17308:17317   */\n      dup3\n        /* \"#utility.yul\":17304:17322   */\n      add\n        /* \"#utility.yul\":17296:17322   */\n      swap1\n      pop\n        /* \"#utility.yul\":17368:17377   */\n      dup2\n        /* \"#utility.yul\":17362:17366   */\n      dup2\n        /* \"#utility.yul\":17358:17378   */\n      sub\n        /* \"#utility.yul\":17354:17355   */\n      0x00\n        /* \"#utility.yul\":17343:17352   */\n      dup4\n        /* \"#utility.yul\":17339:17356   */\n      add\n        /* \"#utility.yul\":17332:17379   */\n      mstore\n        /* \"#utility.yul\":17396:17527   */\n      tag_388\n        /* \"#utility.yul\":17522:17526   */\n      dup2\n        /* \"#utility.yul\":17396:17527   */\n      tag_244\n      jump\t// in\n    tag_388:\n        /* \"#utility.yul\":17388:17527   */\n      swap1\n      pop\n        /* \"#utility.yul\":17115:17534   */\n      swap2\n      swap1\n      pop\n      jump\t// out\n        /* \"#utility.yul\":17540:17722   */\n    tag_245:\n        /* \"#utility.yul\":17680:17714   */\n      0x4e616f20706f64652063616e63656c61722061706f7320636f6e636c7573616f\n        /* \"#utility.yul\":17676:17677   */\n      0x00\n        /* \"#utility.yul\":17668:17674   */\n      dup3\n        /* \"#utility.yul\":17664:17678   */\n      add\n        /* \"#utility.yul\":17657:17715   */\n      mstore\n        /* \"#utility.yul\":17540:17722   */\n      pop\n      jump\t// out\n        /* \"#utility.yul\":17728:18094   */\n    tag_246:\n        /* \"#utility.yul\":17870:17873   */\n      0x00\n        /* \"#utility.yul\":17891:17958   */\n      tag_391\n        /* \"#utility.yul\":17955:17957   */\n      0x20\n        /* \"#utility.yul\":17950:17953   */\n      dup4\n        /* \"#utility.yul\":17891:17958   */\n      tag_201\n      jump\t// in\n    tag_391:\n        /* \"#utility.yul\":17884:17958   */\n      swap2\n      pop\n        /* \"#utility.yul\":17967:18060   */\n      tag_392\n        /* \"#utility.yul\":18056:18059   */\n      dup3\n        /* \"#utility.yul\":17967:18060   */\n      tag_245\n      jump\t// in\n    tag_392:\n        /* \"#utility.yul\":18085:18087   */\n      0x20\n        /* \"#utility.yul\":18080:18083   */\n      dup3\n        /* \"#utility.yul\":18076:18088   */\n      add\n        /* \"#utility.yul\":18069:18088   */\n      swap1\n      pop\n        /* \"#utility.yul\":17728:18094   */\n      swap2\n      swap1\n      pop\n      jump\t// out\n        /* \"#utility.yul\":18100:18519   */\n    tag_167:\n        /* \"#utility.yul\":18266:18270   */\n      0x00\n        /* \"#utility.yul\":18304:18306   */\n      0x20\n        /* \"#utility.yul\":18293:18302   */\n      dup3\n        /* \"#utility.yul\":18289:18307   */\n      add\n        /* \"#utility.yul\":18281:18307   */\n      swap1\n      pop\n        /* \"#utility.yul\":18353:18362   */\n      dup2\n        /* \"#utility.yul\":18347:18351   */\n      dup2\n        /* \"#utility.yul\":18343:18363   */\n      sub\n        /* \"#utility.yul\":18339:18340   */\n      0x00\n        /* \"#utility.yul\":18328:18337   */\n      dup4\n        /* \"#utility.yul\":18324:18341   */\n      add\n        /* \"#utility.yul\":18317:18364   */\n      mstore\n        /* \"#utility.yul\":18381:18512   */\n      tag_394\n        /* \"#utility.yul\":18507:18511   */\n      dup2\n        /* \"#utility.yul\":18381:18512   */\n      tag_246\n      jump\t// in\n    tag_394:\n        /* \"#utility.yul\":18373:18512   */\n      swap1\n      pop\n        /* \"#utility.yul\":18100:18519   */\n      swap2\n      swap1\n      pop\n      jump\t// out\n        /* \"#utility.yul\":18525:18705   */\n    tag_247:\n        /* \"#utility.yul\":18573:18650   */\n      0x4e487b7100000000000000000000000000000000000000000000000000000000\n        /* \"#utility.yul\":18570:18571   */\n      0x00\n        /* \"#utility.yul\":18563:18651   */\n      mstore\n        /* \"#utility.yul\":18670:18674   */\n      0x22\n        /* \"#utility.yul\":18667:18668   */\n      0x04\n        /* \"#utility.yul\":18660:18675   */\n      mstore\n        /* \"#utility.yul\":18694:18698   */\n      0x24\n        /* \"#utility.yul\":18691:18692   */\n      0x00\n        /* \"#utility.yul\":18684:18699   */\n      revert\n        /* \"#utility.yul\":18711:19031   */\n    tag_174:\n        /* \"#utility.yul\":18755:18761   */\n      0x00\n        /* \"#utility.yul\":18792:18793   */\n      0x02\n        /* \"#utility.yul\":18786:18790   */\n      dup3\n        /* \"#utility.yul\":18782:18794   */\n      div\n        /* \"#utility.yul\":18772:18794   */\n      swap1\n      pop\n        /* \"#utility.yul\":18839:18840   */\n      0x01\n        /* \"#utility.yul\":18833:18837   */\n      dup3\n        /* \"#utility.yul\":18829:18841   */\n      and\n        /* \"#utility.yul\":18860:18878   */\n      dup1\n        /* \"#utility.yul\":18850:18931   */\n      tag_397\n      jumpi\n        /* \"#utility.yul\":18916:18920   */\n      0x7f\n        /* \"#utility.yul\":18908:18914   */\n      dup3\n        /* \"#utility.yul\":18904:18921   */\n      and\n        /* \"#utility.yul\":18894:18921   */\n      swap2\n      pop\n        /* \"#utility.yul\":18850:18931   */\n    tag_397:\n        /* \"#utility.yul\":18978:18980   */\n      0x20\n        /* \"#utility.yul\":18970:18976   */\n      dup3\n        /* \"#utility.yul\":18967:18981   */\n      lt\n        /* \"#utility.yul\":18947:18965   */\n      dup2\n        /* \"#utility.yul\":18944:18982   */\n      sub\n        /* \"#utility.yul\":18941:19025   */\n      tag_398\n      jumpi\n        /* \"#utility.yul\":18997:19015   */\n      tag_399\n      tag_247\n      jump\t// in\n    tag_399:\n        /* \"#utility.yul\":18941:19025   */\n    tag_398:\n        /* \"#utility.yul\":18762:19031   */\n      pop\n        /* \"#utility.yul\":18711:19031   */\n      swap2\n      swap1\n      pop\n      jump\t// out\n        /* \"#utility.yul\":19037:19218   */\n    tag_248:\n        /* \"#utility.yul\":19177:19210   */\n      0x5265656e7472616e637947756172643a207265656e7472616e742063616c6c00\n        /* \"#utility.yul\":19173:19174   */\n      0x00\n        /* \"#utility.yul\":19165:19171   */\n      dup3\n        /* \"#utility.yul\":19161:19175   */\n      add\n        /* \"#utility.yul\":19154:19211   */\n      mstore\n        /* \"#utility.yul\":19037:19218   */\n      pop\n      jump\t// out\n        /* \"#utility.yul\":19224:19590   */\n    tag_249:\n        /* \"#utility.yul\":19366:19369   */\n      0x00\n        /* \"#utility.yul\":19387:19454   */\n      tag_402\n        /* \"#utility.yul\":19451:19453   */\n      0x1f\n        /* \"#utility.yul\":19446:19449   */\n      dup4\n        /* \"#utility.yul\":19387:19454   */\n      tag_201\n      jump\t// in\n    tag_402:\n        /* \"#utility.yul\":19380:19454   */\n      swap2\n      pop\n        /* \"#utility.yul\":19463:19556   */\n      tag_403\n        /* \"#utility.yul\":19552:19555   */\n      dup3\n        /* \"#utility.yul\":19463:19556   */\n      tag_248\n      jump\t// in\n    tag_403:\n        /* \"#utility.yul\":19581:19583   */\n      0x20\n        /* \"#utility.yul\":19576:19579   */\n      dup3\n        /* \"#utility.yul\":19572:19584   */\n      add\n        /* \"#utility.yul\":19565:19584   */\n      swap1\n      pop\n        /* \"#utility.yul\":19224:19590   */\n      swap2\n      swap1\n      pop\n      jump\t// out\n        /* \"#utility.yul\":19596:20015   */\n    tag_198:\n        /* \"#utility.yul\":19762:19766   */\n      0x00\n        /* \"#utility.yul\":19800:19802   */\n      0x20\n        /* \"#utility.yul\":19789:19798   */\n      dup3\n        /* \"#utility.yul\":19785:19803   */\n      add\n        /* \"#utility.yul\":19777:19803   */\n      swap1\n      pop\n        /* \"#utility.yul\":19849:19858   */\n      dup2\n        /* \"#utility.yul\":19843:19847   */\n      dup2\n        /* \"#utility.yul\":19839:19859   */\n      sub\n        /* \"#utility.yul\":19835:19836   */\n      0x00\n        /* \"#utility.yul\":19824:19833   */\n      dup4\n        /* \"#utility.yul\":19820:19837   */\n      add\n        /* \"#utility.yul\":19813:19860   */\n      mstore\n        /* \"#utility.yul\":19877:20008   */\n      tag_405\n        /* \"#utility.yul\":20003:20007   */\n      dup2\n        /* \"#utility.yul\":19877:20008   */\n      tag_249\n      jump\t// in\n    tag_405:\n        /* \"#utility.yul\":19869:20008   */\n      swap1\n      pop\n        /* \"#utility.yul\":19596:20015   */\n      swap2\n      swap1\n      pop\n      jump\t// out\n\n    auxdata: 0xa264697066735822122045ef3a4917a063f10c5a989527911547268ea84dca3e672e9cdd13f2fbfde58764736f6c634300081e0033\n}\n",
				"bytecode": {
					"linkReferences": {},
					"object": "608060405234801561000f575f5ffd5b50604051612ccc380380612ccc83398181016040528101906100319190610b85565b60015f819055505f73ffffffffffffffffffffffffffffffffffffffff168773ffffffffffffffffffffffffffffffffffffffff16141580156100a057505f73ffffffffffffffffffffffffffffffffffffffff168673ffffffffffffffffffffffffffffffffffffffff1614155b6100df576040517f08c379a00000000000000000000000000000000000000000000000000000000081526004016100d690610cb4565b60405180910390fd5b5f73ffffffffffffffffffffffffffffffffffffffff168473ffffffffffffffffffffffffffffffffffffffff160361014d576040517f08c379a000000000000000000000000000000000000000000000000000000000815260040161014490610d1c565b60405180910390fd5b6040518061012001604052808481526020018381526020015f600481111561017857610177610d3a565b5b81526020018773ffffffffffffffffffffffffffffffffffffffff1681526020018873ffffffffffffffffffffffffffffffffffffffff1681526020018673ffffffffffffffffffffffffffffffffffffffff1681526020018573ffffffffffffffffffffffffffffffffffffffff1681526020015f151581526020018281525060015f820151815f01908161020e9190610f6e565b50602082015181600101556040820151816002015f6101000a81548160ff0219169083600481111561024357610242610d3a565b5b021790555060608201518160020160016101000a81548173ffffffffffffffffffffffffffffffffffffffff021916908373ffffffffffffffffffffffffffffffffffffffff1602179055506080820151816003015f6101000a81548173ffffffffffffffffffffffffffffffffffffffff021916908373ffffffffffffffffffffffffffffffffffffffff16021790555060a0820151816004015f6101000a81548173ffffffffffffffffffffffffffffffffffffffff021916908373ffffffffffffffffffffffffffffffffffffffff16021790555060c0820151816005015f6101000a81548173ffffffffffffffffffffffffffffffffffffffff021916908373ffffffffffffffffffffffffffffffffffffffff16021790555060e08201518160050160146101000a81548160ff0219169083151502179055506101008201518160060190816103979190610f6e565b5090505060405180606001604052808873ffffffffffffffffffffffffffffffffffffffff1681526020016040518060400160405280600b81526020017f436f6e74726174616e746500000000000000000000000000000000000000000081525081526020015f151581525060085f8973ffffffffffffffffffffffffffffffffffffffff1673ffffffffffffffffffffffffffffffffffffffff1681526020019081526020015f205f820151815f015f6101000a81548173ffffffffffffffffffffffffffffffffffffffff021916908373ffffffffffffffffffffffffffffffffffffffff16021790555060208201518160010190816104999190610f6e565b506040820151816002015f6101000a81548160ff02191690831515021790555090505060405180606001604052808773ffffffffffffffffffffffffffffffffffffffff1681526020016040518060400160405280600a81526020017f436f6e7472617461646f0000000000000000000000000000000000000000000081525081526020015f151581525060085f8873ffffffffffffffffffffffffffffffffffffffff1673ffffffffffffffffffffffffffffffffffffffff1681526020019081526020015f205f820151815f015f6101000a81548173ffffffffffffffffffffffffffffffffffffffff021916908373ffffffffffffffffffffffffffffffffffffffff16021790555060208201518160010190816105ba9190610f6e565b506040820151816002015f6101000a81548160ff02191690831515021790555090505060405180606001604052808673ffffffffffffffffffffffffffffffffffffffff1681526020016040518060400160405280600d81526020017f496e7465726d65646961646f720000000000000000000000000000000000000081525081526020015f151581525060085f8773ffffffffffffffffffffffffffffffffffffffff1673ffffffffffffffffffffffffffffffffffffffff1681526020019081526020015f205f820151815f015f6101000a81548173ffffffffffffffffffffffffffffffffffffffff021916908373ffffffffffffffffffffffffffffffffffffffff16021790555060208201518160010190816106db9190610f6e565b506040820151816002015f6101000a81548160ff02191690831515021790555090505060405180606001604052808573ffffffffffffffffffffffffffffffffffffffff1681526020016040518060400160405280600881526020017f4164766f6761646f00000000000000000000000000000000000000000000000081525081526020015f151581525060085f8673ffffffffffffffffffffffffffffffffffffffff1673ffffffffffffffffffffffffffffffffffffffff1681526020019081526020015f205f820151815f015f6101000a81548173ffffffffffffffffffffffffffffffffffffffff021916908373ffffffffffffffffffffffffffffffffffffffff16021790555060208201518160010190816107fc9190610f6e565b506040820151816002015f6101000a81548160ff021916908315150217905550905050600987908060018154018082558091505060019003905f5260205f20015f9091909190916101000a81548173ffffffffffffffffffffffffffffffffffffffff021916908373ffffffffffffffffffffffffffffffffffffffff160217905550600986908060018154018082558091505060019003905f5260205f20015f9091909190916101000a81548173ffffffffffffffffffffffffffffffffffffffff021916908373ffffffffffffffffffffffffffffffffffffffff160217905550600985908060018154018082558091505060019003905f5260205f20015f9091909190916101000a81548173ffffffffffffffffffffffffffffffffffffffff021916908373ffffffffffffffffffffffffffffffffffffffff160217905550600984908060018154018082558091505060019003905f5260205f20015f9091909190916101000a81548173ffffffffffffffffffffffffffffffffffffffff021916908373ffffffffffffffffffffffffffffffffffffffff1602179055505050505050505061103d565b5f604051905090565b5f5ffd5b5f5ffd5b5f73ffffffffffffffffffffffffffffffffffffffff82169050919050565b5f6109e5826109bc565b9050919050565b6109f5816109db565b81146109ff575f5ffd5b50565b5f81519050610a10816109ec565b92915050565b5f5ffd5b5f5ffd5b5f601f19601f8301169050919050565b7f4e487b71000000000000000000000000000000000000000000000000000000005f52604160045260245ffd5b610a6482610a1e565b810181811067ffffffffffffffff82111715610a8357610a82610a2e565b5b80604052505050565b5f610a956109ab565b9050610aa18282610a5b565b919050565b5f67ffffffffffffffff821115610ac057610abf610a2e565b5b610ac982610a1e565b9050602081019050919050565b8281835e5f83830152505050565b5f610af6610af184610aa6565b610a8c565b905082815260208101848484011115610b1257610b11610a1a565b5b610b1d848285610ad6565b509392505050565b5f82601f830112610b3957610b38610a16565b5b8151610b49848260208601610ae4565b91505092915050565b5f819050919050565b610b6481610b52565b8114610b6e575f5ffd5b50565b5f81519050610b7f81610b5b565b92915050565b5f5f5f5f5f5f5f60e0888a031215610ba057610b9f6109b4565b5b5f610bad8a828b01610a02565b9750506020610bbe8a828b01610a02565b9650506040610bcf8a828b01610a02565b9550506060610be08a828b01610a02565b945050608088015167ffffffffffffffff811115610c0157610c006109b8565b5b610c0d8a828b01610b25565b93505060a0610c1e8a828b01610b71565b92505060c088015167ffffffffffffffff811115610c3f57610c3e6109b8565b5b610c4b8a828b01610b25565b91505092959891949750929550565b5f82825260208201905092915050565b7f456e64657265636f7320696e76616c69646f73000000000000000000000000005f82015250565b5f610c9e601383610c5a565b9150610ca982610c6a565b602082019050919050565b5f6020820190508181035f830152610ccb81610c92565b9050919050565b7f4164766f6761646f206f6272696761746f72696f0000000000000000000000005f82015250565b5f610d06601483610c5a565b9150610d1182610cd2565b602082019050919050565b5f6020820190508181035f830152610d3381610cfa565b9050919050565b7f4e487b71000000000000000000000000000000000000000000000000000000005f52602160045260245ffd5b5f81519050919050565b7f4e487b71000000000000000000000000000000000000000000000000000000005f52602260045260245ffd5b5f6002820490506001821680610db557607f821691505b602082108103610dc857610dc7610d71565b5b50919050565b5f819050815f5260205f209050919050565b5f6020601f8301049050919050565b5f82821b905092915050565b5f60088302610e2a7fffffffffffffffffffffffffffffffffffffffffffffffffffffffffffffffff82610def565b610e348683610def565b95508019841693508086168417925050509392505050565b5f819050919050565b5f610e6f610e6a610e6584610b52565b610e4c565b610b52565b9050919050565b5f819050919050565b610e8883610e55565b610e9c610e9482610e76565b848454610dfb565b825550505050565b5f5f905090565b610eb3610ea4565b610ebe818484610e7f565b505050565b5b81811015610ee157610ed65f82610eab565b600181019050610ec4565b5050565b601f821115610f2657610ef781610dce565b610f0084610de0565b81016020851015610f0f578190505b610f23610f1b85610de0565b830182610ec3565b50505b505050565b5f82821c905092915050565b5f610f465f1984600802610f2b565b1980831691505092915050565b5f610f5e8383610f37565b9150826002028217905092915050565b610f7782610d67565b67ffffffffffffffff811115610f9057610f8f610a2e565b5b610f9a8254610d9e565b610fa5828285610ee5565b5f60209050601f831160018114610fd6575f8415610fc4578287015190505b610fce8582610f53565b865550611035565b601f198416610fe486610dce565b5f5b8281101561100b57848901518255600182019150602085019450602081019050610fe6565b868310156110285784890151611024601f891682610f37565b8355505b6001600288020188555050505b505050505050565b611c828061104a5f395ff3fe60806040526004361061009b575f3560e01c8063815085d911610063578063815085d9146101155780638bb5db741461012b578063c598bddf14610141578063d2fdb0ee1461017d578063e427938f146101bb578063fb3d968c146101e55761009b565b80630d23ce1a1461009f5780631224addd146100b55780632d22fd0b146100cb5780634e69d560146100d557806357d46729146100ff575b5f5ffd5b3480156100aa575f5ffd5b506100b3610217565b005b3480156100c0575f5ffd5b506100c9610401565b005b6100d36105bd565b005b3480156100e0575f5ffd5b506100e9610818565b6040516100f6919061136e565b60405180910390f35b34801561010a575f5ffd5b50610113610ab6565b005b348015610120575f5ffd5b50610129610c1c565b005b348015610136575f5ffd5b5061013f610d7c565b005b34801561014c575f5ffd5b50610167600480360381019061016291906113c5565b610f26565b604051610174919061142f565b60405180910390f35b348015610188575f5ffd5b506101a3600480360381019061019e9190611472565b610f61565b6040516101b2939291906114b7565b60405180910390f35b3480156101c6575f5ffd5b506101cf611038565b6040516101dc919061136e565b60405180910390f35b3480156101f0575f5ffd5b506101f96110cb565b60405161020e99989796959493929190611575565b60405180910390f35b5f73ffffffffffffffffffffffffffffffffffffffff1660085f3373ffffffffffffffffffffffffffffffffffffffff1673ffffffffffffffffffffffffffffffffffffffff1681526020019081526020015f205f015f9054906101000a900473ffffffffffffffffffffffffffffffffffffffff1673ffffffffffffffffffffffffffffffffffffffff16036102e3576040517f08c379a00000000000000000000000000000000000000000000000000000000081526004016102da90611658565b60405180910390fd5b60085f3373ffffffffffffffffffffffffffffffffffffffff1673ffffffffffffffffffffffffffffffffffffffff1681526020019081526020015f206002015f9054906101000a900460ff1615610370576040517f08c379a0000000000000000000000000000000000000000000000000000000008152600401610367906116c0565b60405180910390fd5b600160085f3373ffffffffffffffffffffffffffffffffffffffff1673ffffffffffffffffffffffffffffffffffffffff1681526020019081526020015f206002015f6101000a81548160ff0219169083151502179055507fc14e04b51f707eaeb882e09f0ae64950e76fd067c25d942f53011379c98158d8336040516103f7919061142f565b60405180910390a1565b60085f60016003015f9054906101000a900473ffffffffffffffffffffffffffffffffffffffff1673ffffffffffffffffffffffffffffffffffffffff1673ffffffffffffffffffffffffffffffffffffffff1681526020019081526020015f206002015f9054906101000a900460ff166104b1576040517f08c379a00000000000000000000000000000000000000000000000000000000081526004016104a890611728565b60405180910390fd5b60085f600160020160019054906101000a900473ffffffffffffffffffffffffffffffffffffffff1673ffffffffffffffffffffffffffffffffffffffff1673ffffffffffffffffffffffffffffffffffffffff1681526020019081526020015f206002015f9054906101000a900460ff16610562576040517f08c379a000000000000000000000000000000000000000000000000000000000815260040161055990611790565b60405180910390fd5b600260016002015f6101000a81548160ff0219169083600481111561058a57610589611502565b5b02179055507f0671b112441f25ed92197fa8fa5573635a1cbcd9aa50582c4cf0f57527002db660405160405180910390a1565b6105c56112a8565b60016003015f9054906101000a900473ffffffffffffffffffffffffffffffffffffffff1673ffffffffffffffffffffffffffffffffffffffff163373ffffffffffffffffffffffffffffffffffffffff1614610657576040517f08c379a000000000000000000000000000000000000000000000000000000000815260040161064e9061181e565b60405180910390fd5b6003600481111561066b5761066a611502565b5b60016002015f9054906101000a900460ff16600481111561068f5761068e611502565b5b146106cf576040517f08c379a00000000000000000000000000000000000000000000000000000000081526004016106c690611886565b60405180910390fd5b600160050160149054906101000a900460ff16610721576040517f08c379a000000000000000000000000000000000000000000000000000000000815260040161071890611914565b60405180910390fd5b6001800154341015610768576040517f08c379a000000000000000000000000000000000000000000000000000000000815260040161075f9061197c565b60405180910390fd5b600160020160019054906101000a900473ffffffffffffffffffffffffffffffffffffffff1673ffffffffffffffffffffffffffffffffffffffff166108fc600180015490811502906040515f60405180830381858888f193505050501580156107d4573d5f5f3e3d5ffd5b507f99429f2d8b060f26850fbd2b5743f78b567da9b1860829588eba1799c4388a24333460405161080692919061199a565b60405180910390a16108166112f5565b565b60605f600481111561082d5761082c611502565b5b60016002015f9054906101000a900460ff16600481111561085157610850611502565b5b03610893576040518060400160405280600681526020017f43726961646f00000000000000000000000000000000000000000000000000008152509050610ab3565b600160048111156108a7576108a6611502565b5b60016002015f9054906101000a900460ff1660048111156108cb576108ca611502565b5b0361090d576040518060400160405280600681526020017f41636569746f00000000000000000000000000000000000000000000000000008152509050610ab3565b6002600481111561092157610920611502565b5b60016002015f9054906101000a900460ff16600481111561094557610944611502565b5b03610987576040518060400160405280600c81526020017f456d20616e64616d656e746f00000000000000000000000000000000000000008152509050610ab3565b6003600481111561099b5761099a611502565b5b60016002015f9054906101000a900460ff1660048111156109bf576109be611502565b5b03610a01576040518060400160405280600981526020017f436f6e636c7569646f00000000000000000000000000000000000000000000008152509050610ab3565b600480811115610a1457610a13611502565b5b60016002015f9054906101000a900460ff166004811115610a3857610a37611502565b5b03610a7a576040518060400160405280600981526020017f43616e63656c61646f00000000000000000000000000000000000000000000008152509050610ab3565b6040518060400160405280600c81526020017f446573636f6e68656369646f000000000000000000000000000000000000000081525090505b90565b600160020160019054906101000a900473ffffffffffffffffffffffffffffffffffffffff1673ffffffffffffffffffffffffffffffffffffffff163373ffffffffffffffffffffffffffffffffffffffff1614610b49576040517f08c379a0000000000000000000000000000000000000000000000000000000008152600401610b4090611a31565b60405180910390fd5b60026004811115610b5d57610b5c611502565b5b60016002015f9054906101000a900460ff166004811115610b8157610b80611502565b5b14610bc1576040517f08c379a0000000000000000000000000000000000000000000000000000000008152600401610bb890611a99565b60405180910390fd5b600360016002015f6101000a81548160ff02191690836004811115610be957610be8611502565b5b02179055507fc075506703249f4c1960aa7b24ab277718c285277dd6f0d0c19f5f668e92c45160405160405180910390a1565b60016005015f9054906101000a900473ffffffffffffffffffffffffffffffffffffffff1673ffffffffffffffffffffffffffffffffffffffff163373ffffffffffffffffffffffffffffffffffffffff1614610cae576040517f08c379a0000000000000000000000000000000000000000000000000000000008152600401610ca590611b01565b60405180910390fd5b60036004811115610cc257610cc1611502565b5b60016002015f9054906101000a900460ff166004811115610ce657610ce5611502565b5b14610d26576040517f08c379a0000000000000000000000000000000000000000000000000000000008152600401610d1d90611886565b60405180910390fd5b60018060050160146101000a81548160ff0219169083151502179055507fd07e77a7ae3d696b7904cab197b265c2e821d91ac12304afb6af66980e1adb7933604051610d72919061142f565b60405180910390a1565b5f73ffffffffffffffffffffffffffffffffffffffff1660085f3373ffffffffffffffffffffffffffffffffffffffff1673ffffffffffffffffffffffffffffffffffffffff1681526020019081526020015f205f015f9054906101000a900473ffffffffffffffffffffffffffffffffffffffff1673ffffffffffffffffffffffffffffffffffffffff1603610e48576040517f08c379a0000000000000000000000000000000000000000000000000000000008152600401610e3f90611658565b60405180910390fd5b60036004811115610e5c57610e5b611502565b5b60016002015f9054906101000a900460ff166004811115610e8057610e7f611502565b5b03610ec0576040517f08c379a0000000000000000000000000000000000000000000000000000000008152600401610eb790611b69565b60405180910390fd5b600460016002015f6101000a81548160ff02191690836004811115610ee857610ee7611502565b5b02179055507fe2b6baa1bd028e2a7847dc983ffb1e68f690ca782eee054303faa93d679cdf0233604051610f1c919061142f565b60405180910390a1565b60098181548110610f35575f80fd5b905f5260205f20015f915054906101000a900473ffffffffffffffffffffffffffffffffffffffff1681565b6008602052805f5260405f205f91509050805f015f9054906101000a900473ffffffffffffffffffffffffffffffffffffffff1690806001018054610fa590611bb4565b80601f0160208091040260200160405190810160405280929190818152602001828054610fd190611bb4565b801561101c5780601f10610ff35761010080835404028352916020019161101c565b820191905f5260205f20905b815481529060010190602001808311610fff57829003601f168201915b505050505090806002015f9054906101000a900460ff16905083565b60606001600601805461104a90611bb4565b80601f016020809104026020016040519081016040528092919081815260200182805461107690611bb4565b80156110c15780601f10611098576101008083540402835291602001916110c1565b820191905f5260205f20905b8154815290600101906020018083116110a457829003601f168201915b5050505050905090565b6001805f0180546110db90611bb4565b80601f016020809104026020016040519081016040528092919081815260200182805461110790611bb4565b80156111525780601f1061112957610100808354040283529160200191611152565b820191905f5260205f20905b81548152906001019060200180831161113557829003601f168201915b505050505090806001015490806002015f9054906101000a900460ff16908060020160019054906101000a900473ffffffffffffffffffffffffffffffffffffffff1690806003015f9054906101000a900473ffffffffffffffffffffffffffffffffffffffff1690806004015f9054906101000a900473ffffffffffffffffffffffffffffffffffffffff1690806005015f9054906101000a900473ffffffffffffffffffffffffffffffffffffffff16908060050160149054906101000a900460ff169080600601805461122790611bb4565b80601f016020809104026020016040519081016040528092919081815260200182805461125390611bb4565b801561129e5780601f106112755761010080835404028352916020019161129e565b820191905f5260205f20905b81548152906001019060200180831161128157829003601f168201915b5050505050905089565b60025f54036112ec576040517f08c379a00000000000000000000000000000000000000000000000000000000081526004016112e390611c2e565b60405180910390fd5b60025f81905550565b60015f81905550565b5f81519050919050565b5f82825260208201905092915050565b8281835e5f83830152505050565b5f601f19601f8301169050919050565b5f611340826112fe565b61134a8185611308565b935061135a818560208601611318565b61136381611326565b840191505092915050565b5f6020820190508181035f8301526113868184611336565b905092915050565b5f5ffd5b5f819050919050565b6113a481611392565b81146113ae575f5ffd5b50565b5f813590506113bf8161139b565b92915050565b5f602082840312156113da576113d961138e565b5b5f6113e7848285016113b1565b91505092915050565b5f73ffffffffffffffffffffffffffffffffffffffff82169050919050565b5f611419826113f0565b9050919050565b6114298161140f565b82525050565b5f6020820190506114425f830184611420565b92915050565b6114518161140f565b811461145b575f5ffd5b50565b5f8135905061146c81611448565b92915050565b5f602082840312156114875761148661138e565b5b5f6114948482850161145e565b91505092915050565b5f8115159050919050565b6114b18161149d565b82525050565b5f6060820190506114ca5f830186611420565b81810360208301526114dc8185611336565b90506114eb60408301846114a8565b949350505050565b6114fc81611392565b82525050565b7f4e487b71000000000000000000000000000000000000000000000000000000005f52602160045260245ffd5b600581106115405761153f611502565b5b50565b5f8190506115508261152f565b919050565b5f61155f82611543565b9050919050565b61156f81611555565b82525050565b5f610120820190508181035f83015261158e818c611336565b905061159d602083018b6114f3565b6115aa604083018a611566565b6115b76060830189611420565b6115c46080830188611420565b6115d160a0830187611420565b6115de60c0830186611420565b6115eb60e08301856114a8565b8181036101008301526115fe8184611336565b90509a9950505050505050505050565b7f4e616f206175746f72697a61646f0000000000000000000000000000000000005f82015250565b5f611642600e83611308565b915061164d8261160e565b602082019050919050565b5f6020820190508181035f83015261166f81611636565b9050919050565b7f4a612061636569746f75000000000000000000000000000000000000000000005f82015250565b5f6116aa600a83611308565b91506116b582611676565b602082019050919050565b5f6020820190508181035f8301526116d78161169e565b9050919050565b7f436f6e74726174616e7465206e616f2061636569746f750000000000000000005f82015250565b5f611712601783611308565b915061171d826116de565b602082019050919050565b5f6020820190508181035f83015261173f81611706565b9050919050565b7f436f6e7472617461646f206e616f2061636569746f75000000000000000000005f82015250565b5f61177a601683611308565b915061178582611746565b602082019050919050565b5f6020820190508181035f8301526117a78161176e565b9050919050565b7f536f6d656e7465206f20636f6e74726174616e746520706f64652065786563755f8201527f7461720000000000000000000000000000000000000000000000000000000000602082015250565b5f611808602383611308565b9150611813826117ae565b604082019050919050565b5f6020820190508181035f830152611835816117fc565b9050919050565b7f5365727669636f206e616f20636f6e636c7569646f00000000000000000000005f82015250565b5f611870601583611308565b915061187b8261183c565b602082019050919050565b5f6020820190508181035f83015261189d81611864565b9050919050565b7f436f6e747261746f206e616f207265636f6e68656369646f206a7572696469635f8201527f616d656e74650000000000000000000000000000000000000000000000000000602082015250565b5f6118fe602683611308565b9150611909826118a4565b604082019050919050565b5f6020820190508181035f83015261192b816118f2565b9050919050565b7f56616c6f7220696e737566696369656e746500000000000000000000000000005f82015250565b5f611966601283611308565b915061197182611932565b602082019050919050565b5f6020820190508181035f8301526119938161195a565b9050919050565b5f6040820190506119ad5f830185611420565b6119ba60208301846114f3565b9392505050565b7f536f6d656e7465206f20636f6e7472617461646f20706f6465206578656375745f8201527f6172000000000000000000000000000000000000000000000000000000000000602082015250565b5f611a1b602283611308565b9150611a26826119c1565b604082019050919050565b5f6020820190508181035f830152611a4881611a0f565b9050919050565b7f5365727669636f206e616f20696e69636961646f0000000000000000000000005f82015250565b5f611a83601483611308565b9150611a8e82611a4f565b602082019050919050565b5f6020820190508181035f830152611ab081611a77565b9050919050565b7f536f6d656e7465206f206164766f6761646f20706f64652065786563757461725f82015250565b5f611aeb602083611308565b9150611af682611ab7565b602082019050919050565b5f6020820190508181035f830152611b1881611adf565b9050919050565b7f4e616f20706f64652063616e63656c61722061706f7320636f6e636c7573616f5f82015250565b5f611b53602083611308565b9150611b5e82611b1f565b602082019050919050565b5f6020820190508181035f830152611b8081611b47565b9050919050565b7f4e487b71000000000000000000000000000000000000000000000000000000005f52602260045260245ffd5b5f6002820490506001821680611bcb57607f821691505b602082108103611bde57611bdd611b87565b5b50919050565b7f5265656e7472616e637947756172643a207265656e7472616e742063616c6c005f82015250565b5f611c18601f83611308565b9150611c2382611be4565b602082019050919050565b5f6020820190508181035f830152611c4581611c0c565b905091905056fea264697066735822122045ef3a4917a063f10c5a989527911547268ea84dca3e672e9cdd13f2fbfde58764736f6c634300081e0033",
					"opcodes": "PUSH1 0x80 PUSH1 0x40 MSTORE CALLVALUE DUP1 ISZERO PUSH2 0xF JUMPI PUSH0 PUSH0 REVERT JUMPDEST POP PUSH1 0x40 MLOAD PUSH2 0x2CCC CODESIZE SUB DUP1 PUSH2 0x2CCC DUP4 CODECOPY DUP2 DUP2 ADD PUSH1 0x40 MSTORE DUP2 ADD SWAP1 PUSH2 0x31 SWAP2 SWAP1 PUSH2 0xB85 JUMP JUMPDEST PUSH1 0x1 PUSH0 DUP2 SWAP1 SSTORE POP PUSH0 PUSH20 0xFFFFFFFFFFFFFFFFFFFFFFFFFFFFFFFFFFFFFFFF AND DUP8 PUSH20 0xFFFFFFFFFFFFFFFFFFFFFFFFFFFFFFFFFFFFFFFF AND EQ ISZERO DUP1 ISZERO PUSH2 0xA0 JUMPI POP PUSH0 PUSH20 0xFFFFFFFFFFFFFFFFFFFFFFFFFFFFFFFFFFFFFFFF AND DUP7 PUSH20 0xFFFFFFFFFFFFFFFFFFFFFFFFFFFFFFFFFFFFFFFF AND EQ ISZERO JUMPDEST PUSH2 0xDF JUMPI PUSH1 0x40 MLOAD PUSH32 0x8C379A000000000000000000000000000000000000000000000000000000000 DUP2 MSTORE PUSH1 0x4 ADD PUSH2 0xD6 SWAP1 PUSH2 0xCB4 JUMP JUMPDEST PUSH1 0x40 MLOAD DUP1 SWAP2 SUB SWAP1 REVERT JUMPDEST PUSH0 PUSH20 0xFFFFFFFFFFFFFFFFFFFFFFFFFFFFFFFFFFFFFFFF AND DUP5 PUSH20 0xFFFFFFFFFFFFFFFFFFFFFFFFFFFFFFFFFFFFFFFF AND SUB PUSH2 0x14D JUMPI PUSH1 0x40 MLOAD PUSH32 0x8C379A000000000000000000000000000000000000000000000000000000000 DUP2 MSTORE PUSH1 0x4 ADD PUSH2 0x144 SWAP1 PUSH2 0xD1C JUMP JUMPDEST PUSH1 0x40 MLOAD DUP1 SWAP2 SUB SWAP1 REVERT JUMPDEST PUSH1 0x40 MLOAD DUP1 PUSH2 0x120 ADD PUSH1 0x40 MSTORE DUP1 DUP5 DUP2 MSTORE PUSH1 0x20 ADD DUP4 DUP2 MSTORE PUSH1 0x20 ADD PUSH0 PUSH1 0x4 DUP2 GT ISZERO PUSH2 0x178 JUMPI PUSH2 0x177 PUSH2 0xD3A JUMP JUMPDEST JUMPDEST DUP2 MSTORE PUSH1 0x20 ADD DUP8 PUSH20 0xFFFFFFFFFFFFFFFFFFFFFFFFFFFFFFFFFFFFFFFF AND DUP2 MSTORE PUSH1 0x20 ADD DUP9 PUSH20 0xFFFFFFFFFFFFFFFFFFFFFFFFFFFFFFFFFFFFFFFF AND DUP2 MSTORE PUSH1 0x20 ADD DUP7 PUSH20 0xFFFFFFFFFFFFFFFFFFFFFFFFFFFFFFFFFFFFFFFF AND DUP2 MSTORE PUSH1 0x20 ADD DUP6 PUSH20 0xFFFFFFFFFFFFFFFFFFFFFFFFFFFFFFFFFFFFFFFF AND DUP2 MSTORE PUSH1 0x20 ADD PUSH0 ISZERO ISZERO DUP2 MSTORE PUSH1 0x20 ADD DUP3 DUP2 MSTORE POP PUSH1 0x1 PUSH0 DUP3 ADD MLOAD DUP2 PUSH0 ADD SWAP1 DUP2 PUSH2 0x20E SWAP2 SWAP1 PUSH2 0xF6E JUMP JUMPDEST POP PUSH1 0x20 DUP3 ADD MLOAD DUP2 PUSH1 0x1 ADD SSTORE PUSH1 0x40 DUP3 ADD MLOAD DUP2 PUSH1 0x2 ADD PUSH0 PUSH2 0x100 EXP DUP2 SLOAD DUP2 PUSH1 0xFF MUL NOT AND SWAP1 DUP4 PUSH1 0x4 DUP2 GT ISZERO PUSH2 0x243 JUMPI PUSH2 0x242 PUSH2 0xD3A JUMP JUMPDEST JUMPDEST MUL OR SWAP1 SSTORE POP PUSH1 0x60 DUP3 ADD MLOAD DUP2 PUSH1 0x2 ADD PUSH1 0x1 PUSH2 0x100 EXP DUP2 SLOAD DUP2 PUSH20 0xFFFFFFFFFFFFFFFFFFFFFFFFFFFFFFFFFFFFFFFF MUL NOT AND SWAP1 DUP4 PUSH20 0xFFFFFFFFFFFFFFFFFFFFFFFFFFFFFFFFFFFFFFFF AND MUL OR SWAP1 SSTORE POP PUSH1 0x80 DUP3 ADD MLOAD DUP2 PUSH1 0x3 ADD PUSH0 PUSH2 0x100 EXP DUP2 SLOAD DUP2 PUSH20 0xFFFFFFFFFFFFFFFFFFFFFFFFFFFFFFFFFFFFFFFF MUL NOT AND SWAP1 DUP4 PUSH20 0xFFFFFFFFFFFFFFFFFFFFFFFFFFFFFFFFFFFFFFFF AND MUL OR SWAP1 SSTORE POP PUSH1 0xA0 DUP3 ADD MLOAD DUP2 PUSH1 0x4 ADD PUSH0 PUSH2 0x100 EXP DUP2 SLOAD DUP2 PUSH20 0xFFFFFFFFFFFFFFFFFFFFFFFFFFFFFFFFFFFFFFFF MUL NOT AND SWAP1 DUP4 PUSH20 0xFFFFFFFFFFFFFFFFFFFFFFFFFFFFFFFFFFFFFFFF AND MUL OR SWAP1 SSTORE POP PUSH1 0xC0 DUP3 ADD MLOAD DUP2 PUSH1 0x5 ADD PUSH0 PUSH2 0x100 EXP DUP2 SLOAD DUP2 PUSH20 0xFFFFFFFFFFFFFFFFFFFFFFFFFFFFFFFFFFFFFFFF MUL NOT AND SWAP1 DUP4 PUSH20 0xFFFFFFFFFFFFFFFFFFFFFFFFFFFFFFFFFFFFFFFF AND MUL OR SWAP1 SSTORE POP PUSH1 0xE0 DUP3 ADD MLOAD DUP2 PUSH1 0x5 ADD PUSH1 0x14 PUSH2 0x100 EXP DUP2 SLOAD DUP2 PUSH1 0xFF MUL NOT AND SWAP1 DUP4 ISZERO ISZERO MUL OR SWAP1 SSTORE POP PUSH2 0x100 DUP3 ADD MLOAD DUP2 PUSH1 0x6 ADD SWAP1 DUP2 PUSH2 0x397 SWAP2 SWAP1 PUSH2 0xF6E JUMP JUMPDEST POP SWAP1 POP POP PUSH1 0x40 MLOAD DUP1 PUSH1 0x60 ADD PUSH1 0x40 MSTORE DUP1 DUP9 PUSH20 0xFFFFFFFFFFFFFFFFFFFFFFFFFFFFFFFFFFFFFFFF AND DUP2 MSTORE PUSH1 0x20 ADD PUSH1 0x40 MLOAD DUP1 PUSH1 0x40 ADD PUSH1 0x40 MSTORE DUP1 PUSH1 0xB DUP2 MSTORE PUSH1 0x20 ADD PUSH32 0x436F6E74726174616E7465000000000000000000000000000000000000000000 DUP2 MSTORE POP DUP2 MSTORE PUSH1 0x20 ADD PUSH0 ISZERO ISZERO DUP2 MSTORE POP PUSH1 0x8 PUSH0 DUP10 PUSH20 0xFFFFFFFFFFFFFFFFFFFFFFFFFFFFFFFFFFFFFFFF AND PUSH20 0xFFFFFFFFFFFFFFFFFFFFFFFFFFFFFFFFFFFFFFFF AND DUP2 MSTORE PUSH1 0x20 ADD SWAP1 DUP2 MSTORE PUSH1 0x20 ADD PUSH0 KECCAK256 PUSH0 DUP3 ADD MLOAD DUP2 PUSH0 ADD PUSH0 PUSH2 0x100 EXP DUP2 SLOAD DUP2 PUSH20 0xFFFFFFFFFFFFFFFFFFFFFFFFFFFFFFFFFFFFFFFF MUL NOT AND SWAP1 DUP4 PUSH20 0xFFFFFFFFFFFFFFFFFFFFFFFFFFFFFFFFFFFFFFFF AND MUL OR SWAP1 SSTORE POP PUSH1 0x20 DUP3 ADD MLOAD DUP2 PUSH1 0x1 ADD SWAP1 DUP2 PUSH2 0x499 SWAP2 SWAP1 PUSH2 0xF6E JUMP JUMPDEST POP PUSH1 0x40 DUP3 ADD MLOAD DUP2 PUSH1 0x2 ADD PUSH0 PUSH2 0x100 EXP DUP2 SLOAD DUP2 PUSH1 0xFF MUL NOT AND SWAP1 DUP4 ISZERO ISZERO MUL OR SWAP1 SSTORE POP SWAP1 POP POP PUSH1 0x40 MLOAD DUP1 PUSH1 0x60 ADD PUSH1 0x40 MSTORE DUP1 DUP8 PUSH20 0xFFFFFFFFFFFFFFFFFFFFFFFFFFFFFFFFFFFFFFFF AND DUP2 MSTORE PUSH1 0x20 ADD PUSH1 0x40 MLOAD DUP1 PUSH1 0x40 ADD PUSH1 0x40 MSTORE DUP1 PUSH1 0xA DUP2 MSTORE PUSH1 0x20 ADD PUSH32 0x436F6E7472617461646F00000000000000000000000000000000000000000000 DUP2 MSTORE POP DUP2 MSTORE PUSH1 0x20 ADD PUSH0 ISZERO ISZERO DUP2 MSTORE POP PUSH1 0x8 PUSH0 DUP9 PUSH20 0xFFFFFFFFFFFFFFFFFFFFFFFFFFFFFFFFFFFFFFFF AND PUSH20 0xFFFFFFFFFFFFFFFFFFFFFFFFFFFFFFFFFFFFFFFF AND DUP2 MSTORE PUSH1 0x20 ADD SWAP1 DUP2 MSTORE PUSH1 0x20 ADD PUSH0 KECCAK256 PUSH0 DUP3 ADD MLOAD DUP2 PUSH0 ADD PUSH0 PUSH2 0x100 EXP DUP2 SLOAD DUP2 PUSH20 0xFFFFFFFFFFFFFFFFFFFFFFFFFFFFFFFFFFFFFFFF MUL NOT AND SWAP1 DUP4 PUSH20 0xFFFFFFFFFFFFFFFFFFFFFFFFFFFFFFFFFFFFFFFF AND MUL OR SWAP1 SSTORE POP PUSH1 0x20 DUP3 ADD MLOAD DUP2 PUSH1 0x1 ADD SWAP1 DUP2 PUSH2 0x5BA SWAP2 SWAP1 PUSH2 0xF6E JUMP JUMPDEST POP PUSH1 0x40 DUP3 ADD MLOAD DUP2 PUSH1 0x2 ADD PUSH0 PUSH2 0x100 EXP DUP2 SLOAD DUP2 PUSH1 0xFF MUL NOT AND SWAP1 DUP4 ISZERO ISZERO MUL OR SWAP1 SSTORE POP SWAP1 POP POP PUSH1 0x40 MLOAD DUP1 PUSH1 0x60 ADD PUSH1 0x40 MSTORE DUP1 DUP7 PUSH20 0xFFFFFFFFFFFFFFFFFFFFFFFFFFFFFFFFFFFFFFFF AND DUP2 MSTORE PUSH1 0x20 ADD PUSH1 0x40 MLOAD DUP1 PUSH1 0x40 ADD PUSH1 0x40 MSTORE DUP1 PUSH1 0xD DUP2 MSTORE PUSH1 0x20 ADD PUSH32 0x496E7465726D65646961646F7200000000000000000000000000000000000000 DUP2 MSTORE POP DUP2 MSTORE PUSH1 0x20 ADD PUSH0 ISZERO ISZERO DUP2 MSTORE POP PUSH1 0x8 PUSH0 DUP8 PUSH20 0xFFFFFFFFFFFFFFFFFFFFFFFFFFFFFFFFFFFFFFFF AND PUSH20 0xFFFFFFFFFFFFFFFFFFFFFFFFFFFFFFFFFFFFFFFF AND DUP2 MSTORE PUSH1 0x20 ADD SWAP1 DUP2 MSTORE PUSH1 0x20 ADD PUSH0 KECCAK256 PUSH0 DUP3 ADD MLOAD DUP2 PUSH0 ADD PUSH0 PUSH2 0x100 EXP DUP2 SLOAD DUP2 PUSH20 0xFFFFFFFFFFFFFFFFFFFFFFFFFFFFFFFFFFFFFFFF MUL NOT AND SWAP1 DUP4 PUSH20 0xFFFFFFFFFFFFFFFFFFFFFFFFFFFFFFFFFFFFFFFF AND MUL OR SWAP1 SSTORE POP PUSH1 0x20 DUP3 ADD MLOAD DUP2 PUSH1 0x1 ADD SWAP1 DUP2 PUSH2 0x6DB SWAP2 SWAP1 PUSH2 0xF6E JUMP JUMPDEST POP PUSH1 0x40 DUP3 ADD MLOAD DUP2 PUSH1 0x2 ADD PUSH0 PUSH2 0x100 EXP DUP2 SLOAD DUP2 PUSH1 0xFF MUL NOT AND SWAP1 DUP4 ISZERO ISZERO MUL OR SWAP1 SSTORE POP SWAP1 POP POP PUSH1 0x40 MLOAD DUP1 PUSH1 0x60 ADD PUSH1 0x40 MSTORE DUP1 DUP6 PUSH20 0xFFFFFFFFFFFFFFFFFFFFFFFFFFFFFFFFFFFFFFFF AND DUP2 MSTORE PUSH1 0x20 ADD PUSH1 0x40 MLOAD DUP1 PUSH1 0x40 ADD PUSH1 0x40 MSTORE DUP1 PUSH1 0x8 DUP2 MSTORE PUSH1 0x20 ADD PUSH32 0x4164766F6761646F000000000000000000000000000000000000000000000000 DUP2 MSTORE POP DUP2 MSTORE PUSH1 0x20 ADD PUSH0 ISZERO ISZERO DUP2 MSTORE POP PUSH1 0x8 PUSH0 DUP7 PUSH20 0xFFFFFFFFFFFFFFFFFFFFFFFFFFFFFFFFFFFFFFFF AND PUSH20 0xFFFFFFFFFFFFFFFFFFFFFFFFFFFFFFFFFFFFFFFF AND DUP2 MSTORE PUSH1 0x20 ADD SWAP1 DUP2 MSTORE PUSH1 0x20 ADD PUSH0 KECCAK256 PUSH0 DUP3 ADD MLOAD DUP2 PUSH0 ADD PUSH0 PUSH2 0x100 EXP DUP2 SLOAD DUP2 PUSH20 0xFFFFFFFFFFFFFFFFFFFFFFFFFFFFFFFFFFFFFFFF MUL NOT AND SWAP1 DUP4 PUSH20 0xFFFFFFFFFFFFFFFFFFFFFFFFFFFFFFFFFFFFFFFF AND MUL OR SWAP1 SSTORE POP PUSH1 0x20 DUP3 ADD MLOAD DUP2 PUSH1 0x1 ADD SWAP1 DUP2 PUSH2 0x7FC SWAP2 SWAP1 PUSH2 0xF6E JUMP JUMPDEST POP PUSH1 0x40 DUP3 ADD MLOAD DUP2 PUSH1 0x2 ADD PUSH0 PUSH2 0x100 EXP DUP2 SLOAD DUP2 PUSH1 0xFF MUL NOT AND SWAP1 DUP4 ISZERO ISZERO MUL OR SWAP1 SSTORE POP SWAP1 POP POP PUSH1 0x9 DUP8 SWAP1 DUP1 PUSH1 0x1 DUP2 SLOAD ADD DUP1 DUP3 SSTORE DUP1 SWAP2 POP POP PUSH1 0x1 SWAP1 SUB SWAP1 PUSH0 MSTORE PUSH1 0x20 PUSH0 KECCAK256 ADD PUSH0 SWAP1 SWAP2 SWAP1 SWAP2 SWAP1 SWAP2 PUSH2 0x100 EXP DUP2 SLOAD DUP2 PUSH20 0xFFFFFFFFFFFFFFFFFFFFFFFFFFFFFFFFFFFFFFFF MUL NOT AND SWAP1 DUP4 PUSH20 0xFFFFFFFFFFFFFFFFFFFFFFFFFFFFFFFFFFFFFFFF AND MUL OR SWAP1 SSTORE POP PUSH1 0x9 DUP7 SWAP1 DUP1 PUSH1 0x1 DUP2 SLOAD ADD DUP1 DUP3 SSTORE DUP1 SWAP2 POP POP PUSH1 0x1 SWAP1 SUB SWAP1 PUSH0 MSTORE PUSH1 0x20 PUSH0 KECCAK256 ADD PUSH0 SWAP1 SWAP2 SWAP1 SWAP2 SWAP1 SWAP2 PUSH2 0x100 EXP DUP2 SLOAD DUP2 PUSH20 0xFFFFFFFFFFFFFFFFFFFFFFFFFFFFFFFFFFFFFFFF MUL NOT AND SWAP1 DUP4 PUSH20 0xFFFFFFFFFFFFFFFFFFFFFFFFFFFFFFFFFFFFFFFF AND MUL OR SWAP1 SSTORE POP PUSH1 0x9 DUP6 SWAP1 DUP1 PUSH1 0x1 DUP2 SLOAD ADD DUP1 DUP3 SSTORE DUP1 SWAP2 POP POP PUSH1 0x1 SWAP1 SUB SWAP1 PUSH0 MSTORE PUSH1 0x20 PUSH0 KECCAK256 ADD PUSH0 SWAP1 SWAP2 SWAP1 SWAP2 SWAP1 SWAP2 PUSH2 0x100 EXP DUP2 SLOAD DUP2 PUSH20 0xFFFFFFFFFFFFFFFFFFFFFFFFFFFFFFFFFFFFFFFF MUL NOT AND SWAP1 DUP4 PUSH20 0xFFFFFFFFFFFFFFFFFFFFFFFFFFFFFFFFFFFFFFFF AND MUL OR SWAP1 SSTORE POP PUSH1 0x9 DUP5 SWAP1 DUP1 PUSH1 0x1 DUP2 SLOAD ADD DUP1 DUP3 SSTORE DUP1 SWAP2 POP POP PUSH1 0x1 SWAP1 SUB SWAP1 PUSH0 MSTORE PUSH1 0x20 PUSH0 KECCAK256 ADD PUSH0 SWAP1 SWAP2 SWAP1 SWAP2 SWAP1 SWAP2 PUSH2 0x100 EXP DUP2 SLOAD DUP2 PUSH20 0xFFFFFFFFFFFFFFFFFFFFFFFFFFFFFFFFFFFFFFFF MUL NOT AND SWAP1 DUP4 PUSH20 0xFFFFFFFFFFFFFFFFFFFFFFFFFFFFFFFFFFFFFFFF AND MUL OR SWAP1 SSTORE POP POP POP POP POP POP POP POP PUSH2 0x103D JUMP JUMPDEST PUSH0 PUSH1 0x40 MLOAD SWAP1 POP SWAP1 JUMP JUMPDEST PUSH0 PUSH0 REVERT JUMPDEST PUSH0 PUSH0 REVERT JUMPDEST PUSH0 PUSH20 0xFFFFFFFFFFFFFFFFFFFFFFFFFFFFFFFFFFFFFFFF DUP3 AND SWAP1 POP SWAP2 SWAP1 POP JUMP JUMPDEST PUSH0 PUSH2 0x9E5 DUP3 PUSH2 0x9BC JUMP JUMPDEST SWAP1 POP SWAP2 SWAP1 POP JUMP JUMPDEST PUSH2 0x9F5 DUP2 PUSH2 0x9DB JUMP JUMPDEST DUP2 EQ PUSH2 0x9FF JUMPI PUSH0 PUSH0 REVERT JUMPDEST POP JUMP JUMPDEST PUSH0 DUP2 MLOAD SWAP1 POP PUSH2 0xA10 DUP2 PUSH2 0x9EC JUMP JUMPDEST SWAP3 SWAP2 POP POP JUMP JUMPDEST PUSH0 PUSH0 REVERT JUMPDEST PUSH0 PUSH0 REVERT JUMPDEST PUSH0 PUSH1 0x1F NOT PUSH1 0x1F DUP4 ADD AND SWAP1 POP SWAP2 SWAP1 POP JUMP JUMPDEST PUSH32 0x4E487B7100000000000000000000000000000000000000000000000000000000 PUSH0 MSTORE PUSH1 0x41 PUSH1 0x4 MSTORE PUSH1 0x24 PUSH0 REVERT JUMPDEST PUSH2 0xA64 DUP3 PUSH2 0xA1E JUMP JUMPDEST DUP2 ADD DUP2 DUP2 LT PUSH8 0xFFFFFFFFFFFFFFFF DUP3 GT OR ISZERO PUSH2 0xA83 JUMPI PUSH2 0xA82 PUSH2 0xA2E JUMP JUMPDEST JUMPDEST DUP1 PUSH1 0x40 MSTORE POP POP POP JUMP JUMPDEST PUSH0 PUSH2 0xA95 PUSH2 0x9AB JUMP JUMPDEST SWAP1 POP PUSH2 0xAA1 DUP3 DUP3 PUSH2 0xA5B JUMP JUMPDEST SWAP2 SWAP1 POP JUMP JUMPDEST PUSH0 PUSH8 0xFFFFFFFFFFFFFFFF DUP3 GT ISZERO PUSH2 0xAC0 JUMPI PUSH2 0xABF PUSH2 0xA2E JUMP JUMPDEST JUMPDEST PUSH2 0xAC9 DUP3 PUSH2 0xA1E JUMP JUMPDEST SWAP1 POP PUSH1 0x20 DUP2 ADD SWAP1 POP SWAP2 SWAP1 POP JUMP JUMPDEST DUP3 DUP2 DUP4 MCOPY PUSH0 DUP4 DUP4 ADD MSTORE POP POP POP JUMP JUMPDEST PUSH0 PUSH2 0xAF6 PUSH2 0xAF1 DUP5 PUSH2 0xAA6 JUMP JUMPDEST PUSH2 0xA8C JUMP JUMPDEST SWAP1 POP DUP3 DUP2 MSTORE PUSH1 0x20 DUP2 ADD DUP5 DUP5 DUP5 ADD GT ISZERO PUSH2 0xB12 JUMPI PUSH2 0xB11 PUSH2 0xA1A JUMP JUMPDEST JUMPDEST PUSH2 0xB1D DUP5 DUP3 DUP6 PUSH2 0xAD6 JUMP JUMPDEST POP SWAP4 SWAP3 POP POP POP JUMP JUMPDEST PUSH0 DUP3 PUSH1 0x1F DUP4 ADD SLT PUSH2 0xB39 JUMPI PUSH2 0xB38 PUSH2 0xA16 JUMP JUMPDEST JUMPDEST DUP2 MLOAD PUSH2 0xB49 DUP5 DUP3 PUSH1 0x20 DUP7 ADD PUSH2 0xAE4 JUMP JUMPDEST SWAP2 POP POP SWAP3 SWAP2 POP POP JUMP JUMPDEST PUSH0 DUP2 SWAP1 POP SWAP2 SWAP1 POP JUMP JUMPDEST PUSH2 0xB64 DUP2 PUSH2 0xB52 JUMP JUMPDEST DUP2 EQ PUSH2 0xB6E JUMPI PUSH0 PUSH0 REVERT JUMPDEST POP JUMP JUMPDEST PUSH0 DUP2 MLOAD SWAP1 POP PUSH2 0xB7F DUP2 PUSH2 0xB5B JUMP JUMPDEST SWAP3 SWAP2 POP POP JUMP JUMPDEST PUSH0 PUSH0 PUSH0 PUSH0 PUSH0 PUSH0 PUSH0 PUSH1 0xE0 DUP9 DUP11 SUB SLT ISZERO PUSH2 0xBA0 JUMPI PUSH2 0xB9F PUSH2 0x9B4 JUMP JUMPDEST JUMPDEST PUSH0 PUSH2 0xBAD DUP11 DUP3 DUP12 ADD PUSH2 0xA02 JUMP JUMPDEST SWAP8 POP POP PUSH1 0x20 PUSH2 0xBBE DUP11 DUP3 DUP12 ADD PUSH2 0xA02 JUMP JUMPDEST SWAP7 POP POP PUSH1 0x40 PUSH2 0xBCF DUP11 DUP3 DUP12 ADD PUSH2 0xA02 JUMP JUMPDEST SWAP6 POP POP PUSH1 0x60 PUSH2 0xBE0 DUP11 DUP3 DUP12 ADD PUSH2 0xA02 JUMP JUMPDEST SWAP5 POP POP PUSH1 0x80 DUP9 ADD MLOAD PUSH8 0xFFFFFFFFFFFFFFFF DUP2 GT ISZERO PUSH2 0xC01 JUMPI PUSH2 0xC00 PUSH2 0x9B8 JUMP JUMPDEST JUMPDEST PUSH2 0xC0D DUP11 DUP3 DUP12 ADD PUSH2 0xB25 JUMP JUMPDEST SWAP4 POP POP PUSH1 0xA0 PUSH2 0xC1E DUP11 DUP3 DUP12 ADD PUSH2 0xB71 JUMP JUMPDEST SWAP3 POP POP PUSH1 0xC0 DUP9 ADD MLOAD PUSH8 0xFFFFFFFFFFFFFFFF DUP2 GT ISZERO PUSH2 0xC3F JUMPI PUSH2 0xC3E PUSH2 0x9B8 JUMP JUMPDEST JUMPDEST PUSH2 0xC4B DUP11 DUP3 DUP12 ADD PUSH2 0xB25 JUMP JUMPDEST SWAP2 POP POP SWAP3 SWAP6 SWAP9 SWAP2 SWAP5 SWAP8 POP SWAP3 SWAP6 POP JUMP JUMPDEST PUSH0 DUP3 DUP3 MSTORE PUSH1 0x20 DUP3 ADD SWAP1 POP SWAP3 SWAP2 POP POP JUMP JUMPDEST PUSH32 0x456E64657265636F7320696E76616C69646F7300000000000000000000000000 PUSH0 DUP3 ADD MSTORE POP JUMP JUMPDEST PUSH0 PUSH2 0xC9E PUSH1 0x13 DUP4 PUSH2 0xC5A JUMP JUMPDEST SWAP2 POP PUSH2 0xCA9 DUP3 PUSH2 0xC6A JUMP JUMPDEST PUSH1 0x20 DUP3 ADD SWAP1 POP SWAP2 SWAP1 POP JUMP JUMPDEST PUSH0 PUSH1 0x20 DUP3 ADD SWAP1 POP DUP2 DUP2 SUB PUSH0 DUP4 ADD MSTORE PUSH2 0xCCB DUP2 PUSH2 0xC92 JUMP JUMPDEST SWAP1 POP SWAP2 SWAP1 POP JUMP JUMPDEST PUSH32 0x4164766F6761646F206F6272696761746F72696F000000000000000000000000 PUSH0 DUP3 ADD MSTORE POP JUMP JUMPDEST PUSH0 PUSH2 0xD06 PUSH1 0x14 DUP4 PUSH2 0xC5A JUMP JUMPDEST SWAP2 POP PUSH2 0xD11 DUP3 PUSH2 0xCD2 JUMP JUMPDEST PUSH1 0x20 DUP3 ADD SWAP1 POP SWAP2 SWAP1 POP JUMP JUMPDEST PUSH0 PUSH1 0x20 DUP3 ADD SWAP1 POP DUP2 DUP2 SUB PUSH0 DUP4 ADD MSTORE PUSH2 0xD33 DUP2 PUSH2 0xCFA JUMP JUMPDEST SWAP1 POP SWAP2 SWAP1 POP JUMP JUMPDEST PUSH32 0x4E487B7100000000000000000000000000000000000000000000000000000000 PUSH0 MSTORE PUSH1 0x21 PUSH1 0x4 MSTORE PUSH1 0x24 PUSH0 REVERT JUMPDEST PUSH0 DUP2 MLOAD SWAP1 POP SWAP2 SWAP1 POP JUMP JUMPDEST PUSH32 0x4E487B7100000000000000000000000000000000000000000000000000000000 PUSH0 MSTORE PUSH1 0x22 PUSH1 0x4 MSTORE PUSH1 0x24 PUSH0 REVERT JUMPDEST PUSH0 PUSH1 0x2 DUP3 DIV SWAP1 POP PUSH1 0x1 DUP3 AND DUP1 PUSH2 0xDB5 JUMPI PUSH1 0x7F DUP3 AND SWAP2 POP JUMPDEST PUSH1 0x20 DUP3 LT DUP2 SUB PUSH2 0xDC8 JUMPI PUSH2 0xDC7 PUSH2 0xD71 JUMP JUMPDEST JUMPDEST POP SWAP2 SWAP1 POP JUMP JUMPDEST PUSH0 DUP2 SWAP1 POP DUP2 PUSH0 MSTORE PUSH1 0x20 PUSH0 KECCAK256 SWAP1 POP SWAP2 SWAP1 POP JUMP JUMPDEST PUSH0 PUSH1 0x20 PUSH1 0x1F DUP4 ADD DIV SWAP1 POP SWAP2 SWAP1 POP JUMP JUMPDEST PUSH0 DUP3 DUP3 SHL SWAP1 POP SWAP3 SWAP2 POP POP JUMP JUMPDEST PUSH0 PUSH1 0x8 DUP4 MUL PUSH2 0xE2A PUSH32 0xFFFFFFFFFFFFFFFFFFFFFFFFFFFFFFFFFFFFFFFFFFFFFFFFFFFFFFFFFFFFFFFF DUP3 PUSH2 0xDEF JUMP JUMPDEST PUSH2 0xE34 DUP7 DUP4 PUSH2 0xDEF JUMP JUMPDEST SWAP6 POP DUP1 NOT DUP5 AND SWAP4 POP DUP1 DUP7 AND DUP5 OR SWAP3 POP POP POP SWAP4 SWAP3 POP POP POP JUMP JUMPDEST PUSH0 DUP2 SWAP1 POP SWAP2 SWAP1 POP JUMP JUMPDEST PUSH0 PUSH2 0xE6F PUSH2 0xE6A PUSH2 0xE65 DUP5 PUSH2 0xB52 JUMP JUMPDEST PUSH2 0xE4C JUMP JUMPDEST PUSH2 0xB52 JUMP JUMPDEST SWAP1 POP SWAP2 SWAP1 POP JUMP JUMPDEST PUSH0 DUP2 SWAP1 POP SWAP2 SWAP1 POP JUMP JUMPDEST PUSH2 0xE88 DUP4 PUSH2 0xE55 JUMP JUMPDEST PUSH2 0xE9C PUSH2 0xE94 DUP3 PUSH2 0xE76 JUMP JUMPDEST DUP5 DUP5 SLOAD PUSH2 0xDFB JUMP JUMPDEST DUP3 SSTORE POP POP POP POP JUMP JUMPDEST PUSH0 PUSH0 SWAP1 POP SWAP1 JUMP JUMPDEST PUSH2 0xEB3 PUSH2 0xEA4 JUMP JUMPDEST PUSH2 0xEBE DUP2 DUP5 DUP5 PUSH2 0xE7F JUMP JUMPDEST POP POP POP JUMP JUMPDEST JUMPDEST DUP2 DUP2 LT ISZERO PUSH2 0xEE1 JUMPI PUSH2 0xED6 PUSH0 DUP3 PUSH2 0xEAB JUMP JUMPDEST PUSH1 0x1 DUP2 ADD SWAP1 POP PUSH2 0xEC4 JUMP JUMPDEST POP POP JUMP JUMPDEST PUSH1 0x1F DUP3 GT ISZERO PUSH2 0xF26 JUMPI PUSH2 0xEF7 DUP2 PUSH2 0xDCE JUMP JUMPDEST PUSH2 0xF00 DUP5 PUSH2 0xDE0 JUMP JUMPDEST DUP2 ADD PUSH1 0x20 DUP6 LT ISZERO PUSH2 0xF0F JUMPI DUP2 SWAP1 POP JUMPDEST PUSH2 0xF23 PUSH2 0xF1B DUP6 PUSH2 0xDE0 JUMP JUMPDEST DUP4 ADD DUP3 PUSH2 0xEC3 JUMP JUMPDEST POP POP JUMPDEST POP POP POP JUMP JUMPDEST PUSH0 DUP3 DUP3 SHR SWAP1 POP SWAP3 SWAP2 POP POP JUMP JUMPDEST PUSH0 PUSH2 0xF46 PUSH0 NOT DUP5 PUSH1 0x8 MUL PUSH2 0xF2B JUMP JUMPDEST NOT DUP1 DUP4 AND SWAP2 POP POP SWAP3 SWAP2 POP POP JUMP JUMPDEST PUSH0 PUSH2 0xF5E DUP4 DUP4 PUSH2 0xF37 JUMP JUMPDEST SWAP2 POP DUP3 PUSH1 0x2 MUL DUP3 OR SWAP1 POP SWAP3 SWAP2 POP POP JUMP JUMPDEST PUSH2 0xF77 DUP3 PUSH2 0xD67 JUMP JUMPDEST PUSH8 0xFFFFFFFFFFFFFFFF DUP2 GT ISZERO PUSH2 0xF90 JUMPI PUSH2 0xF8F PUSH2 0xA2E JUMP JUMPDEST JUMPDEST PUSH2 0xF9A DUP3 SLOAD PUSH2 0xD9E JUMP JUMPDEST PUSH2 0xFA5 DUP3 DUP3 DUP6 PUSH2 0xEE5 JUMP JUMPDEST PUSH0 PUSH1 0x20 SWAP1 POP PUSH1 0x1F DUP4 GT PUSH1 0x1 DUP2 EQ PUSH2 0xFD6 JUMPI PUSH0 DUP5 ISZERO PUSH2 0xFC4 JUMPI DUP3 DUP8 ADD MLOAD SWAP1 POP JUMPDEST PUSH2 0xFCE DUP6 DUP3 PUSH2 0xF53 JUMP JUMPDEST DUP7 SSTORE POP PUSH2 0x1035 JUMP JUMPDEST PUSH1 0x1F NOT DUP5 AND PUSH2 0xFE4 DUP7 PUSH2 0xDCE JUMP JUMPDEST PUSH0 JUMPDEST DUP3 DUP2 LT ISZERO PUSH2 0x100B JUMPI DUP5 DUP10 ADD MLOAD DUP3 SSTORE PUSH1 0x1 DUP3 ADD SWAP2 POP PUSH1 0x20 DUP6 ADD SWAP5 POP PUSH1 0x20 DUP2 ADD SWAP1 POP PUSH2 0xFE6 JUMP JUMPDEST DUP7 DUP4 LT ISZERO PUSH2 0x1028 JUMPI DUP5 DUP10 ADD MLOAD PUSH2 0x1024 PUSH1 0x1F DUP10 AND DUP3 PUSH2 0xF37 JUMP JUMPDEST DUP4 SSTORE POP JUMPDEST PUSH1 0x1 PUSH1 0x2 DUP9 MUL ADD DUP9 SSTORE POP POP POP JUMPDEST POP POP POP POP POP POP JUMP JUMPDEST PUSH2 0x1C82 DUP1 PUSH2 0x104A PUSH0 CODECOPY PUSH0 RETURN INVALID PUSH1 0x80 PUSH1 0x40 MSTORE PUSH1 0x4 CALLDATASIZE LT PUSH2 0x9B JUMPI PUSH0 CALLDATALOAD PUSH1 0xE0 SHR DUP1 PUSH4 0x815085D9 GT PUSH2 0x63 JUMPI DUP1 PUSH4 0x815085D9 EQ PUSH2 0x115 JUMPI DUP1 PUSH4 0x8BB5DB74 EQ PUSH2 0x12B JUMPI DUP1 PUSH4 0xC598BDDF EQ PUSH2 0x141 JUMPI DUP1 PUSH4 0xD2FDB0EE EQ PUSH2 0x17D JUMPI DUP1 PUSH4 0xE427938F EQ PUSH2 0x1BB JUMPI DUP1 PUSH4 0xFB3D968C EQ PUSH2 0x1E5 JUMPI PUSH2 0x9B JUMP JUMPDEST DUP1 PUSH4 0xD23CE1A EQ PUSH2 0x9F JUMPI DUP1 PUSH4 0x1224ADDD EQ PUSH2 0xB5 JUMPI DUP1 PUSH4 0x2D22FD0B EQ PUSH2 0xCB JUMPI DUP1 PUSH4 0x4E69D560 EQ PUSH2 0xD5 JUMPI DUP1 PUSH4 0x57D46729 EQ PUSH2 0xFF JUMPI JUMPDEST PUSH0 PUSH0 REVERT JUMPDEST CALLVALUE DUP1 ISZERO PUSH2 0xAA JUMPI PUSH0 PUSH0 REVERT JUMPDEST POP PUSH2 0xB3 PUSH2 0x217 JUMP JUMPDEST STOP JUMPDEST CALLVALUE DUP1 ISZERO PUSH2 0xC0 JUMPI PUSH0 PUSH0 REVERT JUMPDEST POP PUSH2 0xC9 PUSH2 0x401 JUMP JUMPDEST STOP JUMPDEST PUSH2 0xD3 PUSH2 0x5BD JUMP JUMPDEST STOP JUMPDEST CALLVALUE DUP1 ISZERO PUSH2 0xE0 JUMPI PUSH0 PUSH0 REVERT JUMPDEST POP PUSH2 0xE9 PUSH2 0x818 JUMP JUMPDEST PUSH1 0x40 MLOAD PUSH2 0xF6 SWAP2 SWAP1 PUSH2 0x136E JUMP JUMPDEST PUSH1 0x40 MLOAD DUP1 SWAP2 SUB SWAP1 RETURN JUMPDEST CALLVALUE DUP1 ISZERO PUSH2 0x10A JUMPI PUSH0 PUSH0 REVERT JUMPDEST POP PUSH2 0x113 PUSH2 0xAB6 JUMP JUMPDEST STOP JUMPDEST CALLVALUE DUP1 ISZERO PUSH2 0x120 JUMPI PUSH0 PUSH0 REVERT JUMPDEST POP PUSH2 0x129 PUSH2 0xC1C JUMP JUMPDEST STOP JUMPDEST CALLVALUE DUP1 ISZERO PUSH2 0x136 JUMPI PUSH0 PUSH0 REVERT JUMPDEST POP PUSH2 0x13F PUSH2 0xD7C JUMP JUMPDEST STOP JUMPDEST CALLVALUE DUP1 ISZERO PUSH2 0x14C JUMPI PUSH0 PUSH0 REVERT JUMPDEST POP PUSH2 0x167 PUSH1 0x4 DUP1 CALLDATASIZE SUB DUP2 ADD SWAP1 PUSH2 0x162 SWAP2 SWAP1 PUSH2 0x13C5 JUMP JUMPDEST PUSH2 0xF26 JUMP JUMPDEST PUSH1 0x40 MLOAD PUSH2 0x174 SWAP2 SWAP1 PUSH2 0x142F JUMP JUMPDEST PUSH1 0x40 MLOAD DUP1 SWAP2 SUB SWAP1 RETURN JUMPDEST CALLVALUE DUP1 ISZERO PUSH2 0x188 JUMPI PUSH0 PUSH0 REVERT JUMPDEST POP PUSH2 0x1A3 PUSH1 0x4 DUP1 CALLDATASIZE SUB DUP2 ADD SWAP1 PUSH2 0x19E SWAP2 SWAP1 PUSH2 0x1472 JUMP JUMPDEST PUSH2 0xF61 JUMP JUMPDEST PUSH1 0x40 MLOAD PUSH2 0x1B2 SWAP4 SWAP3 SWAP2 SWAP1 PUSH2 0x14B7 JUMP JUMPDEST PUSH1 0x40 MLOAD DUP1 SWAP2 SUB SWAP1 RETURN JUMPDEST CALLVALUE DUP1 ISZERO PUSH2 0x1C6 JUMPI PUSH0 PUSH0 REVERT JUMPDEST POP PUSH2 0x1CF PUSH2 0x1038 JUMP JUMPDEST PUSH1 0x40 MLOAD PUSH2 0x1DC SWAP2 SWAP1 PUSH2 0x136E JUMP JUMPDEST PUSH1 0x40 MLOAD DUP1 SWAP2 SUB SWAP1 RETURN JUMPDEST CALLVALUE DUP1 ISZERO PUSH2 0x1F0 JUMPI PUSH0 PUSH0 REVERT JUMPDEST POP PUSH2 0x1F9 PUSH2 0x10CB JUMP JUMPDEST PUSH1 0x40 MLOAD PUSH2 0x20E SWAP10 SWAP9 SWAP8 SWAP7 SWAP6 SWAP5 SWAP4 SWAP3 SWAP2 SWAP1 PUSH2 0x1575 JUMP JUMPDEST PUSH1 0x40 MLOAD DUP1 SWAP2 SUB SWAP1 RETURN JUMPDEST PUSH0 PUSH20 0xFFFFFFFFFFFFFFFFFFFFFFFFFFFFFFFFFFFFFFFF AND PUSH1 0x8 PUSH0 CALLER PUSH20 0xFFFFFFFFFFFFFFFFFFFFFFFFFFFFFFFFFFFFFFFF AND PUSH20 0xFFFFFFFFFFFFFFFFFFFFFFFFFFFFFFFFFFFFFFFF AND DUP2 MSTORE PUSH1 0x20 ADD SWAP1 DUP2 MSTORE PUSH1 0x20 ADD PUSH0 KECCAK256 PUSH0 ADD PUSH0 SWAP1 SLOAD SWAP1 PUSH2 0x100 EXP SWAP1 DIV PUSH20 0xFFFFFFFFFFFFFFFFFFFFFFFFFFFFFFFFFFFFFFFF AND PUSH20 0xFFFFFFFFFFFFFFFFFFFFFFFFFFFFFFFFFFFFFFFF AND SUB PUSH2 0x2E3 JUMPI PUSH1 0x40 MLOAD PUSH32 0x8C379A000000000000000000000000000000000000000000000000000000000 DUP2 MSTORE PUSH1 0x4 ADD PUSH2 0x2DA SWAP1 PUSH2 0x1658 JUMP JUMPDEST PUSH1 0x40 MLOAD DUP1 SWAP2 SUB SWAP1 REVERT JUMPDEST PUSH1 0x8 PUSH0 CALLER PUSH20 0xFFFFFFFFFFFFFFFFFFFFFFFFFFFFFFFFFFFFFFFF AND PUSH20 0xFFFFFFFFFFFFFFFFFFFFFFFFFFFFFFFFFFFFFFFF AND DUP2 MSTORE PUSH1 0x20 ADD SWAP1 DUP2 MSTORE PUSH1 0x20 ADD PUSH0 KECCAK256 PUSH1 0x2 ADD PUSH0 SWAP1 SLOAD SWAP1 PUSH2 0x100 EXP SWAP1 DIV PUSH1 0xFF AND ISZERO PUSH2 0x370 JUMPI PUSH1 0x40 MLOAD PUSH32 0x8C379A000000000000000000000000000000000000000000000000000000000 DUP2 MSTORE PUSH1 0x4 ADD PUSH2 0x367 SWAP1 PUSH2 0x16C0 JUMP JUMPDEST PUSH1 0x40 MLOAD DUP1 SWAP2 SUB SWAP1 REVERT JUMPDEST PUSH1 0x1 PUSH1 0x8 PUSH0 CALLER PUSH20 0xFFFFFFFFFFFFFFFFFFFFFFFFFFFFFFFFFFFFFFFF AND PUSH20 0xFFFFFFFFFFFFFFFFFFFFFFFFFFFFFFFFFFFFFFFF AND DUP2 MSTORE PUSH1 0x20 ADD SWAP1 DUP2 MSTORE PUSH1 0x20 ADD PUSH0 KECCAK256 PUSH1 0x2 ADD PUSH0 PUSH2 0x100 EXP DUP2 SLOAD DUP2 PUSH1 0xFF MUL NOT AND SWAP1 DUP4 ISZERO ISZERO MUL OR SWAP1 SSTORE POP PUSH32 0xC14E04B51F707EAEB882E09F0AE64950E76FD067C25D942F53011379C98158D8 CALLER PUSH1 0x40 MLOAD PUSH2 0x3F7 SWAP2 SWAP1 PUSH2 0x142F JUMP JUMPDEST PUSH1 0x40 MLOAD DUP1 SWAP2 SUB SWAP1 LOG1 JUMP JUMPDEST PUSH1 0x8 PUSH0 PUSH1 0x1 PUSH1 0x3 ADD PUSH0 SWAP1 SLOAD SWAP1 PUSH2 0x100 EXP SWAP1 DIV PUSH20 0xFFFFFFFFFFFFFFFFFFFFFFFFFFFFFFFFFFFFFFFF AND PUSH20 0xFFFFFFFFFFFFFFFFFFFFFFFFFFFFFFFFFFFFFFFF AND PUSH20 0xFFFFFFFFFFFFFFFFFFFFFFFFFFFFFFFFFFFFFFFF AND DUP2 MSTORE PUSH1 0x20 ADD SWAP1 DUP2 MSTORE PUSH1 0x20 ADD PUSH0 KECCAK256 PUSH1 0x2 ADD PUSH0 SWAP1 SLOAD SWAP1 PUSH2 0x100 EXP SWAP1 DIV PUSH1 0xFF AND PUSH2 0x4B1 JUMPI PUSH1 0x40 MLOAD PUSH32 0x8C379A000000000000000000000000000000000000000000000000000000000 DUP2 MSTORE PUSH1 0x4 ADD PUSH2 0x4A8 SWAP1 PUSH2 0x1728 JUMP JUMPDEST PUSH1 0x40 MLOAD DUP1 SWAP2 SUB SWAP1 REVERT JUMPDEST PUSH1 0x8 PUSH0 PUSH1 0x1 PUSH1 0x2 ADD PUSH1 0x1 SWAP1 SLOAD SWAP1 PUSH2 0x100 EXP SWAP1 DIV PUSH20 0xFFFFFFFFFFFFFFFFFFFFFFFFFFFFFFFFFFFFFFFF AND PUSH20 0xFFFFFFFFFFFFFFFFFFFFFFFFFFFFFFFFFFFFFFFF AND PUSH20 0xFFFFFFFFFFFFFFFFFFFFFFFFFFFFFFFFFFFFFFFF AND DUP2 MSTORE PUSH1 0x20 ADD SWAP1 DUP2 MSTORE PUSH1 0x20 ADD PUSH0 KECCAK256 PUSH1 0x2 ADD PUSH0 SWAP1 SLOAD SWAP1 PUSH2 0x100 EXP SWAP1 DIV PUSH1 0xFF AND PUSH2 0x562 JUMPI PUSH1 0x40 MLOAD PUSH32 0x8C379A000000000000000000000000000000000000000000000000000000000 DUP2 MSTORE PUSH1 0x4 ADD PUSH2 0x559 SWAP1 PUSH2 0x1790 JUMP JUMPDEST PUSH1 0x40 MLOAD DUP1 SWAP2 SUB SWAP1 REVERT JUMPDEST PUSH1 0x2 PUSH1 0x1 PUSH1 0x2 ADD PUSH0 PUSH2 0x100 EXP DUP2 SLOAD DUP2 PUSH1 0xFF MUL NOT AND SWAP1 DUP4 PUSH1 0x4 DUP2 GT ISZERO PUSH2 0x58A JUMPI PUSH2 0x589 PUSH2 0x1502 JUMP JUMPDEST JUMPDEST MUL OR SWAP1 SSTORE POP PUSH32 0x671B112441F25ED92197FA8FA5573635A1CBCD9AA50582C4CF0F57527002DB6 PUSH1 0x40 MLOAD PUSH1 0x40 MLOAD DUP1 SWAP2 SUB SWAP1 LOG1 JUMP JUMPDEST PUSH2 0x5C5 PUSH2 0x12A8 JUMP JUMPDEST PUSH1 0x1 PUSH1 0x3 ADD PUSH0 SWAP1 SLOAD SWAP1 PUSH2 0x100 EXP SWAP1 DIV PUSH20 0xFFFFFFFFFFFFFFFFFFFFFFFFFFFFFFFFFFFFFFFF AND PUSH20 0xFFFFFFFFFFFFFFFFFFFFFFFFFFFFFFFFFFFFFFFF AND CALLER PUSH20 0xFFFFFFFFFFFFFFFFFFFFFFFFFFFFFFFFFFFFFFFF AND EQ PUSH2 0x657 JUMPI PUSH1 0x40 MLOAD PUSH32 0x8C379A000000000000000000000000000000000000000000000000000000000 DUP2 MSTORE PUSH1 0x4 ADD PUSH2 0x64E SWAP1 PUSH2 0x181E JUMP JUMPDEST PUSH1 0x40 MLOAD DUP1 SWAP2 SUB SWAP1 REVERT JUMPDEST PUSH1 0x3 PUSH1 0x4 DUP2 GT ISZERO PUSH2 0x66B JUMPI PUSH2 0x66A PUSH2 0x1502 JUMP JUMPDEST JUMPDEST PUSH1 0x1 PUSH1 0x2 ADD PUSH0 SWAP1 SLOAD SWAP1 PUSH2 0x100 EXP SWAP1 DIV PUSH1 0xFF AND PUSH1 0x4 DUP2 GT ISZERO PUSH2 0x68F JUMPI PUSH2 0x68E PUSH2 0x1502 JUMP JUMPDEST JUMPDEST EQ PUSH2 0x6CF JUMPI PUSH1 0x40 MLOAD PUSH32 0x8C379A000000000000000000000000000000000000000000000000000000000 DUP2 MSTORE PUSH1 0x4 ADD PUSH2 0x6C6 SWAP1 PUSH2 0x1886 JUMP JUMPDEST PUSH1 0x40 MLOAD DUP1 SWAP2 SUB SWAP1 REVERT JUMPDEST PUSH1 0x1 PUSH1 0x5 ADD PUSH1 0x14 SWAP1 SLOAD SWAP1 PUSH2 0x100 EXP SWAP1 DIV PUSH1 0xFF AND PUSH2 0x721 JUMPI PUSH1 0x40 MLOAD PUSH32 0x8C379A000000000000000000000000000000000000000000000000000000000 DUP2 MSTORE PUSH1 0x4 ADD PUSH2 0x718 SWAP1 PUSH2 0x1914 JUMP JUMPDEST PUSH1 0x40 MLOAD DUP1 SWAP2 SUB SWAP1 REVERT JUMPDEST PUSH1 0x1 DUP1 ADD SLOAD CALLVALUE LT ISZERO PUSH2 0x768 JUMPI PUSH1 0x40 MLOAD PUSH32 0x8C379A000000000000000000000000000000000000000000000000000000000 DUP2 MSTORE PUSH1 0x4 ADD PUSH2 0x75F SWAP1 PUSH2 0x197C JUMP JUMPDEST PUSH1 0x40 MLOAD DUP1 SWAP2 SUB SWAP1 REVERT JUMPDEST PUSH1 0x1 PUSH1 0x2 ADD PUSH1 0x1 SWAP1 SLOAD SWAP1 PUSH2 0x100 EXP SWAP1 DIV PUSH20 0xFFFFFFFFFFFFFFFFFFFFFFFFFFFFFFFFFFFFFFFF AND PUSH20 0xFFFFFFFFFFFFFFFFFFFFFFFFFFFFFFFFFFFFFFFF AND PUSH2 0x8FC PUSH1 0x1 DUP1 ADD SLOAD SWAP1 DUP2 ISZERO MUL SWAP1 PUSH1 0x40 MLOAD PUSH0 PUSH1 0x40 MLOAD DUP1 DUP4 SUB DUP2 DUP6 DUP9 DUP9 CALL SWAP4 POP POP POP POP ISZERO DUP1 ISZERO PUSH2 0x7D4 JUMPI RETURNDATASIZE PUSH0 PUSH0 RETURNDATACOPY RETURNDATASIZE PUSH0 REVERT JUMPDEST POP PUSH32 0x99429F2D8B060F26850FBD2B5743F78B567DA9B1860829588EBA1799C4388A24 CALLER CALLVALUE PUSH1 0x40 MLOAD PUSH2 0x806 SWAP3 SWAP2 SWAP1 PUSH2 0x199A JUMP JUMPDEST PUSH1 0x40 MLOAD DUP1 SWAP2 SUB SWAP1 LOG1 PUSH2 0x816 PUSH2 0x12F5 JUMP JUMPDEST JUMP JUMPDEST PUSH1 0x60 PUSH0 PUSH1 0x4 DUP2 GT ISZERO PUSH2 0x82D JUMPI PUSH2 0x82C PUSH2 0x1502 JUMP JUMPDEST JUMPDEST PUSH1 0x1 PUSH1 0x2 ADD PUSH0 SWAP1 SLOAD SWAP1 PUSH2 0x100 EXP SWAP1 DIV PUSH1 0xFF AND PUSH1 0x4 DUP2 GT ISZERO PUSH2 0x851 JUMPI PUSH2 0x850 PUSH2 0x1502 JUMP JUMPDEST JUMPDEST SUB PUSH2 0x893 JUMPI PUSH1 0x40 MLOAD DUP1 PUSH1 0x40 ADD PUSH1 0x40 MSTORE DUP1 PUSH1 0x6 DUP2 MSTORE PUSH1 0x20 ADD PUSH32 0x43726961646F0000000000000000000000000000000000000000000000000000 DUP2 MSTORE POP SWAP1 POP PUSH2 0xAB3 JUMP JUMPDEST PUSH1 0x1 PUSH1 0x4 DUP2 GT ISZERO PUSH2 0x8A7 JUMPI PUSH2 0x8A6 PUSH2 0x1502 JUMP JUMPDEST JUMPDEST PUSH1 0x1 PUSH1 0x2 ADD PUSH0 SWAP1 SLOAD SWAP1 PUSH2 0x100 EXP SWAP1 DIV PUSH1 0xFF AND PUSH1 0x4 DUP2 GT ISZERO PUSH2 0x8CB JUMPI PUSH2 0x8CA PUSH2 0x1502 JUMP JUMPDEST JUMPDEST SUB PUSH2 0x90D JUMPI PUSH1 0x40 MLOAD DUP1 PUSH1 0x40 ADD PUSH1 0x40 MSTORE DUP1 PUSH1 0x6 DUP2 MSTORE PUSH1 0x20 ADD PUSH32 0x41636569746F0000000000000000000000000000000000000000000000000000 DUP2 MSTORE POP SWAP1 POP PUSH2 0xAB3 JUMP JUMPDEST PUSH1 0x2 PUSH1 0x4 DUP2 GT ISZERO PUSH2 0x921 JUMPI PUSH2 0x920 PUSH2 0x1502 JUMP JUMPDEST JUMPDEST PUSH1 0x1 PUSH1 0x2 ADD PUSH0 SWAP1 SLOAD SWAP1 PUSH2 0x100 EXP SWAP1 DIV PUSH1 0xFF AND PUSH1 0x4 DUP2 GT ISZERO PUSH2 0x945 JUMPI PUSH2 0x944 PUSH2 0x1502 JUMP JUMPDEST JUMPDEST SUB PUSH2 0x987 JUMPI PUSH1 0x40 MLOAD DUP1 PUSH1 0x40 ADD PUSH1 0x40 MSTORE DUP1 PUSH1 0xC DUP2 MSTORE PUSH1 0x20 ADD PUSH32 0x456D20616E64616D656E746F0000000000000000000000000000000000000000 DUP2 MSTORE POP SWAP1 POP PUSH2 0xAB3 JUMP JUMPDEST PUSH1 0x3 PUSH1 0x4 DUP2 GT ISZERO PUSH2 0x99B JUMPI PUSH2 0x99A PUSH2 0x1502 JUMP JUMPDEST JUMPDEST PUSH1 0x1 PUSH1 0x2 ADD PUSH0 SWAP1 SLOAD SWAP1 PUSH2 0x100 EXP SWAP1 DIV PUSH1 0xFF AND PUSH1 0x4 DUP2 GT ISZERO PUSH2 0x9BF JUMPI PUSH2 0x9BE PUSH2 0x1502 JUMP JUMPDEST JUMPDEST SUB PUSH2 0xA01 JUMPI PUSH1 0x40 MLOAD DUP1 PUSH1 0x40 ADD PUSH1 0x40 MSTORE DUP1 PUSH1 0x9 DUP2 MSTORE PUSH1 0x20 ADD PUSH32 0x436F6E636C7569646F0000000000000000000000000000000000000000000000 DUP2 MSTORE POP SWAP1 POP PUSH2 0xAB3 JUMP JUMPDEST PUSH1 0x4 DUP1 DUP2 GT ISZERO PUSH2 0xA14 JUMPI PUSH2 0xA13 PUSH2 0x1502 JUMP JUMPDEST JUMPDEST PUSH1 0x1 PUSH1 0x2 ADD PUSH0 SWAP1 SLOAD SWAP1 PUSH2 0x100 EXP SWAP1 DIV PUSH1 0xFF AND PUSH1 0x4 DUP2 GT ISZERO PUSH2 0xA38 JUMPI PUSH2 0xA37 PUSH2 0x1502 JUMP JUMPDEST JUMPDEST SUB PUSH2 0xA7A JUMPI PUSH1 0x40 MLOAD DUP1 PUSH1 0x40 ADD PUSH1 0x40 MSTORE DUP1 PUSH1 0x9 DUP2 MSTORE PUSH1 0x20 ADD PUSH32 0x43616E63656C61646F0000000000000000000000000000000000000000000000 DUP2 MSTORE POP SWAP1 POP PUSH2 0xAB3 JUMP JUMPDEST PUSH1 0x40 MLOAD DUP1 PUSH1 0x40 ADD PUSH1 0x40 MSTORE DUP1 PUSH1 0xC DUP2 MSTORE PUSH1 0x20 ADD PUSH32 0x446573636F6E68656369646F0000000000000000000000000000000000000000 DUP2 MSTORE POP SWAP1 POP JUMPDEST SWAP1 JUMP JUMPDEST PUSH1 0x1 PUSH1 0x2 ADD PUSH1 0x1 SWAP1 SLOAD SWAP1 PUSH2 0x100 EXP SWAP1 DIV PUSH20 0xFFFFFFFFFFFFFFFFFFFFFFFFFFFFFFFFFFFFFFFF AND PUSH20 0xFFFFFFFFFFFFFFFFFFFFFFFFFFFFFFFFFFFFFFFF AND CALLER PUSH20 0xFFFFFFFFFFFFFFFFFFFFFFFFFFFFFFFFFFFFFFFF AND EQ PUSH2 0xB49 JUMPI PUSH1 0x40 MLOAD PUSH32 0x8C379A000000000000000000000000000000000000000000000000000000000 DUP2 MSTORE PUSH1 0x4 ADD PUSH2 0xB40 SWAP1 PUSH2 0x1A31 JUMP JUMPDEST PUSH1 0x40 MLOAD DUP1 SWAP2 SUB SWAP1 REVERT JUMPDEST PUSH1 0x2 PUSH1 0x4 DUP2 GT ISZERO PUSH2 0xB5D JUMPI PUSH2 0xB5C PUSH2 0x1502 JUMP JUMPDEST JUMPDEST PUSH1 0x1 PUSH1 0x2 ADD PUSH0 SWAP1 SLOAD SWAP1 PUSH2 0x100 EXP SWAP1 DIV PUSH1 0xFF AND PUSH1 0x4 DUP2 GT ISZERO PUSH2 0xB81 JUMPI PUSH2 0xB80 PUSH2 0x1502 JUMP JUMPDEST JUMPDEST EQ PUSH2 0xBC1 JUMPI PUSH1 0x40 MLOAD PUSH32 0x8C379A000000000000000000000000000000000000000000000000000000000 DUP2 MSTORE PUSH1 0x4 ADD PUSH2 0xBB8 SWAP1 PUSH2 0x1A99 JUMP JUMPDEST PUSH1 0x40 MLOAD DUP1 SWAP2 SUB SWAP1 REVERT JUMPDEST PUSH1 0x3 PUSH1 0x1 PUSH1 0x2 ADD PUSH0 PUSH2 0x100 EXP DUP2 SLOAD DUP2 PUSH1 0xFF MUL NOT AND SWAP1 DUP4 PUSH1 0x4 DUP2 GT ISZERO PUSH2 0xBE9 JUMPI PUSH2 0xBE8 PUSH2 0x1502 JUMP JUMPDEST JUMPDEST MUL OR SWAP1 SSTORE POP PUSH32 0xC075506703249F4C1960AA7B24AB277718C285277DD6F0D0C19F5F668E92C451 PUSH1 0x40 MLOAD PUSH1 0x40 MLOAD DUP1 SWAP2 SUB SWAP1 LOG1 JUMP JUMPDEST PUSH1 0x1 PUSH1 0x5 ADD PUSH0 SWAP1 SLOAD SWAP1 PUSH2 0x100 EXP SWAP1 DIV PUSH20 0xFFFFFFFFFFFFFFFFFFFFFFFFFFFFFFFFFFFFFFFF AND PUSH20 0xFFFFFFFFFFFFFFFFFFFFFFFFFFFFFFFFFFFFFFFF AND CALLER PUSH20 0xFFFFFFFFFFFFFFFFFFFFFFFFFFFFFFFFFFFFFFFF AND EQ PUSH2 0xCAE JUMPI PUSH1 0x40 MLOAD PUSH32 0x8C379A000000000000000000000000000000000000000000000000000000000 DUP2 MSTORE PUSH1 0x4 ADD PUSH2 0xCA5 SWAP1 PUSH2 0x1B01 JUMP JUMPDEST PUSH1 0x40 MLOAD DUP1 SWAP2 SUB SWAP1 REVERT JUMPDEST PUSH1 0x3 PUSH1 0x4 DUP2 GT ISZERO PUSH2 0xCC2 JUMPI PUSH2 0xCC1 PUSH2 0x1502 JUMP JUMPDEST JUMPDEST PUSH1 0x1 PUSH1 0x2 ADD PUSH0 SWAP1 SLOAD SWAP1 PUSH2 0x100 EXP SWAP1 DIV PUSH1 0xFF AND PUSH1 0x4 DUP2 GT ISZERO PUSH2 0xCE6 JUMPI PUSH2 0xCE5 PUSH2 0x1502 JUMP JUMPDEST JUMPDEST EQ PUSH2 0xD26 JUMPI PUSH1 0x40 MLOAD PUSH32 0x8C379A000000000000000000000000000000000000000000000000000000000 DUP2 MSTORE PUSH1 0x4 ADD PUSH2 0xD1D SWAP1 PUSH2 0x1886 JUMP JUMPDEST PUSH1 0x40 MLOAD DUP1 SWAP2 SUB SWAP1 REVERT JUMPDEST PUSH1 0x1 DUP1 PUSH1 0x5 ADD PUSH1 0x14 PUSH2 0x100 EXP DUP2 SLOAD DUP2 PUSH1 0xFF MUL NOT AND SWAP1 DUP4 ISZERO ISZERO MUL OR SWAP1 SSTORE POP PUSH32 0xD07E77A7AE3D696B7904CAB197B265C2E821D91AC12304AFB6AF66980E1ADB79 CALLER PUSH1 0x40 MLOAD PUSH2 0xD72 SWAP2 SWAP1 PUSH2 0x142F JUMP JUMPDEST PUSH1 0x40 MLOAD DUP1 SWAP2 SUB SWAP1 LOG1 JUMP JUMPDEST PUSH0 PUSH20 0xFFFFFFFFFFFFFFFFFFFFFFFFFFFFFFFFFFFFFFFF AND PUSH1 0x8 PUSH0 CALLER PUSH20 0xFFFFFFFFFFFFFFFFFFFFFFFFFFFFFFFFFFFFFFFF AND PUSH20 0xFFFFFFFFFFFFFFFFFFFFFFFFFFFFFFFFFFFFFFFF AND DUP2 MSTORE PUSH1 0x20 ADD SWAP1 DUP2 MSTORE PUSH1 0x20 ADD PUSH0 KECCAK256 PUSH0 ADD PUSH0 SWAP1 SLOAD SWAP1 PUSH2 0x100 EXP SWAP1 DIV PUSH20 0xFFFFFFFFFFFFFFFFFFFFFFFFFFFFFFFFFFFFFFFF AND PUSH20 0xFFFFFFFFFFFFFFFFFFFFFFFFFFFFFFFFFFFFFFFF AND SUB PUSH2 0xE48 JUMPI PUSH1 0x40 MLOAD PUSH32 0x8C379A000000000000000000000000000000000000000000000000000000000 DUP2 MSTORE PUSH1 0x4 ADD PUSH2 0xE3F SWAP1 PUSH2 0x1658 JUMP JUMPDEST PUSH1 0x40 MLOAD DUP1 SWAP2 SUB SWAP1 REVERT JUMPDEST PUSH1 0x3 PUSH1 0x4 DUP2 GT ISZERO PUSH2 0xE5C JUMPI PUSH2 0xE5B PUSH2 0x1502 JUMP JUMPDEST JUMPDEST PUSH1 0x1 PUSH1 0x2 ADD PUSH0 SWAP1 SLOAD SWAP1 PUSH2 0x100 EXP SWAP1 DIV PUSH1 0xFF AND PUSH1 0x4 DUP2 GT ISZERO PUSH2 0xE80 JUMPI PUSH2 0xE7F PUSH2 0x1502 JUMP JUMPDEST JUMPDEST SUB PUSH2 0xEC0 JUMPI PUSH1 0x40 MLOAD PUSH32 0x8C379A000000000000000000000000000000000000000000000000000000000 DUP2 MSTORE PUSH1 0x4 ADD PUSH2 0xEB7 SWAP1 PUSH2 0x1B69 JUMP JUMPDEST PUSH1 0x40 MLOAD DUP1 SWAP2 SUB SWAP1 REVERT JUMPDEST PUSH1 0x4 PUSH1 0x1 PUSH1 0x2 ADD PUSH0 PUSH2 0x100 EXP DUP2 SLOAD DUP2 PUSH1 0xFF MUL NOT AND SWAP1 DUP4 PUSH1 0x4 DUP2 GT ISZERO PUSH2 0xEE8 JUMPI PUSH2 0xEE7 PUSH2 0x1502 JUMP JUMPDEST JUMPDEST MUL OR SWAP1 SSTORE POP PUSH32 0xE2B6BAA1BD028E2A7847DC983FFB1E68F690CA782EEE054303FAA93D679CDF02 CALLER PUSH1 0x40 MLOAD PUSH2 0xF1C SWAP2 SWAP1 PUSH2 0x142F JUMP JUMPDEST PUSH1 0x40 MLOAD DUP1 SWAP2 SUB SWAP1 LOG1 JUMP JUMPDEST PUSH1 0x9 DUP2 DUP2 SLOAD DUP2 LT PUSH2 0xF35 JUMPI PUSH0 DUP1 REVERT JUMPDEST SWAP1 PUSH0 MSTORE PUSH1 0x20 PUSH0 KECCAK256 ADD PUSH0 SWAP2 POP SLOAD SWAP1 PUSH2 0x100 EXP SWAP1 DIV PUSH20 0xFFFFFFFFFFFFFFFFFFFFFFFFFFFFFFFFFFFFFFFF AND DUP2 JUMP JUMPDEST PUSH1 0x8 PUSH1 0x20 MSTORE DUP1 PUSH0 MSTORE PUSH1 0x40 PUSH0 KECCAK256 PUSH0 SWAP2 POP SWAP1 POP DUP1 PUSH0 ADD PUSH0 SWAP1 SLOAD SWAP1 PUSH2 0x100 EXP SWAP1 DIV PUSH20 0xFFFFFFFFFFFFFFFFFFFFFFFFFFFFFFFFFFFFFFFF AND SWAP1 DUP1 PUSH1 0x1 ADD DUP1 SLOAD PUSH2 0xFA5 SWAP1 PUSH2 0x1BB4 JUMP JUMPDEST DUP1 PUSH1 0x1F ADD PUSH1 0x20 DUP1 SWAP2 DIV MUL PUSH1 0x20 ADD PUSH1 0x40 MLOAD SWAP1 DUP2 ADD PUSH1 0x40 MSTORE DUP1 SWAP3 SWAP2 SWAP1 DUP2 DUP2 MSTORE PUSH1 0x20 ADD DUP3 DUP1 SLOAD PUSH2 0xFD1 SWAP1 PUSH2 0x1BB4 JUMP JUMPDEST DUP1 ISZERO PUSH2 0x101C JUMPI DUP1 PUSH1 0x1F LT PUSH2 0xFF3 JUMPI PUSH2 0x100 DUP1 DUP4 SLOAD DIV MUL DUP4 MSTORE SWAP2 PUSH1 0x20 ADD SWAP2 PUSH2 0x101C JUMP JUMPDEST DUP3 ADD SWAP2 SWAP1 PUSH0 MSTORE PUSH1 0x20 PUSH0 KECCAK256 SWAP1 JUMPDEST DUP2 SLOAD DUP2 MSTORE SWAP1 PUSH1 0x1 ADD SWAP1 PUSH1 0x20 ADD DUP1 DUP4 GT PUSH2 0xFFF JUMPI DUP3 SWAP1 SUB PUSH1 0x1F AND DUP3 ADD SWAP2 JUMPDEST POP POP POP POP POP SWAP1 DUP1 PUSH1 0x2 ADD PUSH0 SWAP1 SLOAD SWAP1 PUSH2 0x100 EXP SWAP1 DIV PUSH1 0xFF AND SWAP1 POP DUP4 JUMP JUMPDEST PUSH1 0x60 PUSH1 0x1 PUSH1 0x6 ADD DUP1 SLOAD PUSH2 0x104A SWAP1 PUSH2 0x1BB4 JUMP JUMPDEST DUP1 PUSH1 0x1F ADD PUSH1 0x20 DUP1 SWAP2 DIV MUL PUSH1 0x20 ADD PUSH1 0x40 MLOAD SWAP1 DUP2 ADD PUSH1 0x40 MSTORE DUP1 SWAP3 SWAP2 SWAP1 DUP2 DUP2 MSTORE PUSH1 0x20 ADD DUP3 DUP1 SLOAD PUSH2 0x1076 SWAP1 PUSH2 0x1BB4 JUMP JUMPDEST DUP1 ISZERO PUSH2 0x10C1 JUMPI DUP1 PUSH1 0x1F LT PUSH2 0x1098 JUMPI PUSH2 0x100 DUP1 DUP4 SLOAD DIV MUL DUP4 MSTORE SWAP2 PUSH1 0x20 ADD SWAP2 PUSH2 0x10C1 JUMP JUMPDEST DUP3 ADD SWAP2 SWAP1 PUSH0 MSTORE PUSH1 0x20 PUSH0 KECCAK256 SWAP1 JUMPDEST DUP2 SLOAD DUP2 MSTORE SWAP1 PUSH1 0x1 ADD SWAP1 PUSH1 0x20 ADD DUP1 DUP4 GT PUSH2 0x10A4 JUMPI DUP3 SWAP1 SUB PUSH1 0x1F AND DUP3 ADD SWAP2 JUMPDEST POP POP POP POP POP SWAP1 POP SWAP1 JUMP JUMPDEST PUSH1 0x1 DUP1 PUSH0 ADD DUP1 SLOAD PUSH2 0x10DB SWAP1 PUSH2 0x1BB4 JUMP JUMPDEST DUP1 PUSH1 0x1F ADD PUSH1 0x20 DUP1 SWAP2 DIV MUL PUSH1 0x20 ADD PUSH1 0x40 MLOAD SWAP1 DUP2 ADD PUSH1 0x40 MSTORE DUP1 SWAP3 SWAP2 SWAP1 DUP2 DUP2 MSTORE PUSH1 0x20 ADD DUP3 DUP1 SLOAD PUSH2 0x1107 SWAP1 PUSH2 0x1BB4 JUMP JUMPDEST DUP1 ISZERO PUSH2 0x1152 JUMPI DUP1 PUSH1 0x1F LT PUSH2 0x1129 JUMPI PUSH2 0x100 DUP1 DUP4 SLOAD DIV MUL DUP4 MSTORE SWAP2 PUSH1 0x20 ADD SWAP2 PUSH2 0x1152 JUMP JUMPDEST DUP3 ADD SWAP2 SWAP1 PUSH0 MSTORE PUSH1 0x20 PUSH0 KECCAK256 SWAP1 JUMPDEST DUP2 SLOAD DUP2 MSTORE SWAP1 PUSH1 0x1 ADD SWAP1 PUSH1 0x20 ADD DUP1 DUP4 GT PUSH2 0x1135 JUMPI DUP3 SWAP1 SUB PUSH1 0x1F AND DUP3 ADD SWAP2 JUMPDEST POP POP POP POP POP SWAP1 DUP1 PUSH1 0x1 ADD SLOAD SWAP1 DUP1 PUSH1 0x2 ADD PUSH0 SWAP1 SLOAD SWAP1 PUSH2 0x100 EXP SWAP1 DIV PUSH1 0xFF AND SWAP1 DUP1 PUSH1 0x2 ADD PUSH1 0x1 SWAP1 SLOAD SWAP1 PUSH2 0x100 EXP SWAP1 DIV PUSH20 0xFFFFFFFFFFFFFFFFFFFFFFFFFFFFFFFFFFFFFFFF AND SWAP1 DUP1 PUSH1 0x3 ADD PUSH0 SWAP1 SLOAD SWAP1 PUSH2 0x100 EXP SWAP1 DIV PUSH20 0xFFFFFFFFFFFFFFFFFFFFFFFFFFFFFFFFFFFFFFFF AND SWAP1 DUP1 PUSH1 0x4 ADD PUSH0 SWAP1 SLOAD SWAP1 PUSH2 0x100 EXP SWAP1 DIV PUSH20 0xFFFFFFFFFFFFFFFFFFFFFFFFFFFFFFFFFFFFFFFF AND SWAP1 DUP1 PUSH1 0x5 ADD PUSH0 SWAP1 SLOAD SWAP1 PUSH2 0x100 EXP SWAP1 DIV PUSH20 0xFFFFFFFFFFFFFFFFFFFFFFFFFFFFFFFFFFFFFFFF AND SWAP1 DUP1 PUSH1 0x5 ADD PUSH1 0x14 SWAP1 SLOAD SWAP1 PUSH2 0x100 EXP SWAP1 DIV PUSH1 0xFF AND SWAP1 DUP1 PUSH1 0x6 ADD DUP1 SLOAD PUSH2 0x1227 SWAP1 PUSH2 0x1BB4 JUMP JUMPDEST DUP1 PUSH1 0x1F ADD PUSH1 0x20 DUP1 SWAP2 DIV MUL PUSH1 0x20 ADD PUSH1 0x40 MLOAD SWAP1 DUP2 ADD PUSH1 0x40 MSTORE DUP1 SWAP3 SWAP2 SWAP1 DUP2 DUP2 MSTORE PUSH1 0x20 ADD DUP3 DUP1 SLOAD PUSH2 0x1253 SWAP1 PUSH2 0x1BB4 JUMP JUMPDEST DUP1 ISZERO PUSH2 0x129E JUMPI DUP1 PUSH1 0x1F LT PUSH2 0x1275 JUMPI PUSH2 0x100 DUP1 DUP4 SLOAD DIV MUL DUP4 MSTORE SWAP2 PUSH1 0x20 ADD SWAP2 PUSH2 0x129E JUMP JUMPDEST DUP3 ADD SWAP2 SWAP1 PUSH0 MSTORE PUSH1 0x20 PUSH0 KECCAK256 SWAP1 JUMPDEST DUP2 SLOAD DUP2 MSTORE SWAP1 PUSH1 0x1 ADD SWAP1 PUSH1 0x20 ADD DUP1 DUP4 GT PUSH2 0x1281 JUMPI DUP3 SWAP1 SUB PUSH1 0x1F AND DUP3 ADD SWAP2 JUMPDEST POP POP POP POP POP SWAP1 POP DUP10 JUMP JUMPDEST PUSH1 0x2 PUSH0 SLOAD SUB PUSH2 0x12EC JUMPI PUSH1 0x40 MLOAD PUSH32 0x8C379A000000000000000000000000000000000000000000000000000000000 DUP2 MSTORE PUSH1 0x4 ADD PUSH2 0x12E3 SWAP1 PUSH2 0x1C2E JUMP JUMPDEST PUSH1 0x40 MLOAD DUP1 SWAP2 SUB SWAP1 REVERT JUMPDEST PUSH1 0x2 PUSH0 DUP2 SWAP1 SSTORE POP JUMP JUMPDEST PUSH1 0x1 PUSH0 DUP2 SWAP1 SSTORE POP JUMP JUMPDEST PUSH0 DUP2 MLOAD SWAP1 POP SWAP2 SWAP1 POP JUMP JUMPDEST PUSH0 DUP3 DUP3 MSTORE PUSH1 0x20 DUP3 ADD SWAP1 POP SWAP3 SWAP2 POP POP JUMP JUMPDEST DUP3 DUP2 DUP4 MCOPY PUSH0 DUP4 DUP4 ADD MSTORE POP POP POP JUMP JUMPDEST PUSH0 PUSH1 0x1F NOT PUSH1 0x1F DUP4 ADD AND SWAP1 POP SWAP2 SWAP1 POP JUMP JUMPDEST PUSH0 PUSH2 0x1340 DUP3 PUSH2 0x12FE JUMP JUMPDEST PUSH2 0x134A DUP2 DUP6 PUSH2 0x1308 JUMP JUMPDEST SWAP4 POP PUSH2 0x135A DUP2 DUP6 PUSH1 0x20 DUP7 ADD PUSH2 0x1318 JUMP JUMPDEST PUSH2 0x1363 DUP2 PUSH2 0x1326 JUMP JUMPDEST DUP5 ADD SWAP2 POP POP SWAP3 SWAP2 POP POP JUMP JUMPDEST PUSH0 PUSH1 0x20 DUP3 ADD SWAP1 POP DUP2 DUP2 SUB PUSH0 DUP4 ADD MSTORE PUSH2 0x1386 DUP2 DUP5 PUSH2 0x1336 JUMP JUMPDEST SWAP1 POP SWAP3 SWAP2 POP POP JUMP JUMPDEST PUSH0 PUSH0 REVERT JUMPDEST PUSH0 DUP2 SWAP1 POP SWAP2 SWAP1 POP JUMP JUMPDEST PUSH2 0x13A4 DUP2 PUSH2 0x1392 JUMP JUMPDEST DUP2 EQ PUSH2 0x13AE JUMPI PUSH0 PUSH0 REVERT JUMPDEST POP JUMP JUMPDEST PUSH0 DUP2 CALLDATALOAD SWAP1 POP PUSH2 0x13BF DUP2 PUSH2 0x139B JUMP JUMPDEST SWAP3 SWAP2 POP POP JUMP JUMPDEST PUSH0 PUSH1 0x20 DUP3 DUP5 SUB SLT ISZERO PUSH2 0x13DA JUMPI PUSH2 0x13D9 PUSH2 0x138E JUMP JUMPDEST JUMPDEST PUSH0 PUSH2 0x13E7 DUP5 DUP3 DUP6 ADD PUSH2 0x13B1 JUMP JUMPDEST SWAP2 POP POP SWAP3 SWAP2 POP POP JUMP JUMPDEST PUSH0 PUSH20 0xFFFFFFFFFFFFFFFFFFFFFFFFFFFFFFFFFFFFFFFF DUP3 AND SWAP1 POP SWAP2 SWAP1 POP JUMP JUMPDEST PUSH0 PUSH2 0x1419 DUP3 PUSH2 0x13F0 JUMP JUMPDEST SWAP1 POP SWAP2 SWAP1 POP JUMP JUMPDEST PUSH2 0x1429 DUP2 PUSH2 0x140F JUMP JUMPDEST DUP3 MSTORE POP POP JUMP JUMPDEST PUSH0 PUSH1 0x20 DUP3 ADD SWAP1 POP PUSH2 0x1442 PUSH0 DUP4 ADD DUP5 PUSH2 0x1420 JUMP JUMPDEST SWAP3 SWAP2 POP POP JUMP JUMPDEST PUSH2 0x1451 DUP2 PUSH2 0x140F JUMP JUMPDEST DUP2 EQ PUSH2 0x145B JUMPI PUSH0 PUSH0 REVERT JUMPDEST POP JUMP JUMPDEST PUSH0 DUP2 CALLDATALOAD SWAP1 POP PUSH2 0x146C DUP2 PUSH2 0x1448 JUMP JUMPDEST SWAP3 SWAP2 POP POP JUMP JUMPDEST PUSH0 PUSH1 0x20 DUP3 DUP5 SUB SLT ISZERO PUSH2 0x1487 JUMPI PUSH2 0x1486 PUSH2 0x138E JUMP JUMPDEST JUMPDEST PUSH0 PUSH2 0x1494 DUP5 DUP3 DUP6 ADD PUSH2 0x145E JUMP JUMPDEST SWAP2 POP POP SWAP3 SWAP2 POP POP JUMP JUMPDEST PUSH0 DUP2 ISZERO ISZERO SWAP1 POP SWAP2 SWAP1 POP JUMP JUMPDEST PUSH2 0x14B1 DUP2 PUSH2 0x149D JUMP JUMPDEST DUP3 MSTORE POP POP JUMP JUMPDEST PUSH0 PUSH1 0x60 DUP3 ADD SWAP1 POP PUSH2 0x14CA PUSH0 DUP4 ADD DUP7 PUSH2 0x1420 JUMP JUMPDEST DUP2 DUP2 SUB PUSH1 0x20 DUP4 ADD MSTORE PUSH2 0x14DC DUP2 DUP6 PUSH2 0x1336 JUMP JUMPDEST SWAP1 POP PUSH2 0x14EB PUSH1 0x40 DUP4 ADD DUP5 PUSH2 0x14A8 JUMP JUMPDEST SWAP5 SWAP4 POP POP POP POP JUMP JUMPDEST PUSH2 0x14FC DUP2 PUSH2 0x1392 JUMP JUMPDEST DUP3 MSTORE POP POP JUMP JUMPDEST PUSH32 0x4E487B7100000000000000000000000000000000000000000000000000000000 PUSH0 MSTORE PUSH1 0x21 PUSH1 0x4 MSTORE PUSH1 0x24 PUSH0 REVERT JUMPDEST PUSH1 0x5 DUP2 LT PUSH2 0x1540 JUMPI PUSH2 0x153F PUSH2 0x1502 JUMP JUMPDEST JUMPDEST POP JUMP JUMPDEST PUSH0 DUP2 SWAP1 POP PUSH2 0x1550 DUP3 PUSH2 0x152F JUMP JUMPDEST SWAP2 SWAP1 POP JUMP JUMPDEST PUSH0 PUSH2 0x155F DUP3 PUSH2 0x1543 JUMP JUMPDEST SWAP1 POP SWAP2 SWAP1 POP JUMP JUMPDEST PUSH2 0x156F DUP2 PUSH2 0x1555 JUMP JUMPDEST DUP3 MSTORE POP POP JUMP JUMPDEST PUSH0 PUSH2 0x120 DUP3 ADD SWAP1 POP DUP2 DUP2 SUB PUSH0 DUP4 ADD MSTORE PUSH2 0x158E DUP2 DUP13 PUSH2 0x1336 JUMP JUMPDEST SWAP1 POP PUSH2 0x159D PUSH1 0x20 DUP4 ADD DUP12 PUSH2 0x14F3 JUMP JUMPDEST PUSH2 0x15AA PUSH1 0x40 DUP4 ADD DUP11 PUSH2 0x1566 JUMP JUMPDEST PUSH2 0x15B7 PUSH1 0x60 DUP4 ADD DUP10 PUSH2 0x1420 JUMP JUMPDEST PUSH2 0x15C4 PUSH1 0x80 DUP4 ADD DUP9 PUSH2 0x1420 JUMP JUMPDEST PUSH2 0x15D1 PUSH1 0xA0 DUP4 ADD DUP8 PUSH2 0x1420 JUMP JUMPDEST PUSH2 0x15DE PUSH1 0xC0 DUP4 ADD DUP7 PUSH2 0x1420 JUMP JUMPDEST PUSH2 0x15EB PUSH1 0xE0 DUP4 ADD DUP6 PUSH2 0x14A8 JUMP JUMPDEST DUP2 DUP2 SUB PUSH2 0x100 DUP4 ADD MSTORE PUSH2 0x15FE DUP2 DUP5 PUSH2 0x1336 JUMP JUMPDEST SWAP1 POP SWAP11 SWAP10 POP POP POP POP POP POP POP POP POP POP JUMP JUMPDEST PUSH32 0x4E616F206175746F72697A61646F000000000000000000000000000000000000 PUSH0 DUP3 ADD MSTORE POP JUMP JUMPDEST PUSH0 PUSH2 0x1642 PUSH1 0xE DUP4 PUSH2 0x1308 JUMP JUMPDEST SWAP2 POP PUSH2 0x164D DUP3 PUSH2 0x160E JUMP JUMPDEST PUSH1 0x20 DUP3 ADD SWAP1 POP SWAP2 SWAP1 POP JUMP JUMPDEST PUSH0 PUSH1 0x20 DUP3 ADD SWAP1 POP DUP2 DUP2 SUB PUSH0 DUP4 ADD MSTORE PUSH2 0x166F DUP2 PUSH2 0x1636 JUMP JUMPDEST SWAP1 POP SWAP2 SWAP1 POP JUMP JUMPDEST PUSH32 0x4A612061636569746F7500000000000000000000000000000000000000000000 PUSH0 DUP3 ADD MSTORE POP JUMP JUMPDEST PUSH0 PUSH2 0x16AA PUSH1 0xA DUP4 PUSH2 0x1308 JUMP JUMPDEST SWAP2 POP PUSH2 0x16B5 DUP3 PUSH2 0x1676 JUMP JUMPDEST PUSH1 0x20 DUP3 ADD SWAP1 POP SWAP2 SWAP1 POP JUMP JUMPDEST PUSH0 PUSH1 0x20 DUP3 ADD SWAP1 POP DUP2 DUP2 SUB PUSH0 DUP4 ADD MSTORE PUSH2 0x16D7 DUP2 PUSH2 0x169E JUMP JUMPDEST SWAP1 POP SWAP2 SWAP1 POP JUMP JUMPDEST PUSH32 0x436F6E74726174616E7465206E616F2061636569746F75000000000000000000 PUSH0 DUP3 ADD MSTORE POP JUMP JUMPDEST PUSH0 PUSH2 0x1712 PUSH1 0x17 DUP4 PUSH2 0x1308 JUMP JUMPDEST SWAP2 POP PUSH2 0x171D DUP3 PUSH2 0x16DE JUMP JUMPDEST PUSH1 0x20 DUP3 ADD SWAP1 POP SWAP2 SWAP1 POP JUMP JUMPDEST PUSH0 PUSH1 0x20 DUP3 ADD SWAP1 POP DUP2 DUP2 SUB PUSH0 DUP4 ADD MSTORE PUSH2 0x173F DUP2 PUSH2 0x1706 JUMP JUMPDEST SWAP1 POP SWAP2 SWAP1 POP JUMP JUMPDEST PUSH32 0x436F6E7472617461646F206E616F2061636569746F7500000000000000000000 PUSH0 DUP3 ADD MSTORE POP JUMP JUMPDEST PUSH0 PUSH2 0x177A PUSH1 0x16 DUP4 PUSH2 0x1308 JUMP JUMPDEST SWAP2 POP PUSH2 0x1785 DUP3 PUSH2 0x1746 JUMP JUMPDEST PUSH1 0x20 DUP3 ADD SWAP1 POP SWAP2 SWAP1 POP JUMP JUMPDEST PUSH0 PUSH1 0x20 DUP3 ADD SWAP1 POP DUP2 DUP2 SUB PUSH0 DUP4 ADD MSTORE PUSH2 0x17A7 DUP2 PUSH2 0x176E JUMP JUMPDEST SWAP1 POP SWAP2 SWAP1 POP JUMP JUMPDEST PUSH32 0x536F6D656E7465206F20636F6E74726174616E746520706F6465206578656375 PUSH0 DUP3 ADD MSTORE PUSH32 0x7461720000000000000000000000000000000000000000000000000000000000 PUSH1 0x20 DUP3 ADD MSTORE POP JUMP JUMPDEST PUSH0 PUSH2 0x1808 PUSH1 0x23 DUP4 PUSH2 0x1308 JUMP JUMPDEST SWAP2 POP PUSH2 0x1813 DUP3 PUSH2 0x17AE JUMP JUMPDEST PUSH1 0x40 DUP3 ADD SWAP1 POP SWAP2 SWAP1 POP JUMP JUMPDEST PUSH0 PUSH1 0x20 DUP3 ADD SWAP1 POP DUP2 DUP2 SUB PUSH0 DUP4 ADD MSTORE PUSH2 0x1835 DUP2 PUSH2 0x17FC JUMP JUMPDEST SWAP1 POP SWAP2 SWAP1 POP JUMP JUMPDEST PUSH32 0x5365727669636F206E616F20636F6E636C7569646F0000000000000000000000 PUSH0 DUP3 ADD MSTORE POP JUMP JUMPDEST PUSH0 PUSH2 0x1870 PUSH1 0x15 DUP4 PUSH2 0x1308 JUMP JUMPDEST SWAP2 POP PUSH2 0x187B DUP3 PUSH2 0x183C JUMP JUMPDEST PUSH1 0x20 DUP3 ADD SWAP1 POP SWAP2 SWAP1 POP JUMP JUMPDEST PUSH0 PUSH1 0x20 DUP3 ADD SWAP1 POP DUP2 DUP2 SUB PUSH0 DUP4 ADD MSTORE PUSH2 0x189D DUP2 PUSH2 0x1864 JUMP JUMPDEST SWAP1 POP SWAP2 SWAP1 POP JUMP JUMPDEST PUSH32 0x436F6E747261746F206E616F207265636F6E68656369646F206A757269646963 PUSH0 DUP3 ADD MSTORE PUSH32 0x616D656E74650000000000000000000000000000000000000000000000000000 PUSH1 0x20 DUP3 ADD MSTORE POP JUMP JUMPDEST PUSH0 PUSH2 0x18FE PUSH1 0x26 DUP4 PUSH2 0x1308 JUMP JUMPDEST SWAP2 POP PUSH2 0x1909 DUP3 PUSH2 0x18A4 JUMP JUMPDEST PUSH1 0x40 DUP3 ADD SWAP1 POP SWAP2 SWAP1 POP JUMP JUMPDEST PUSH0 PUSH1 0x20 DUP3 ADD SWAP1 POP DUP2 DUP2 SUB PUSH0 DUP4 ADD MSTORE PUSH2 0x192B DUP2 PUSH2 0x18F2 JUMP JUMPDEST SWAP1 POP SWAP2 SWAP1 POP JUMP JUMPDEST PUSH32 0x56616C6F7220696E737566696369656E74650000000000000000000000000000 PUSH0 DUP3 ADD MSTORE POP JUMP JUMPDEST PUSH0 PUSH2 0x1966 PUSH1 0x12 DUP4 PUSH2 0x1308 JUMP JUMPDEST SWAP2 POP PUSH2 0x1971 DUP3 PUSH2 0x1932 JUMP JUMPDEST PUSH1 0x20 DUP3 ADD SWAP1 POP SWAP2 SWAP1 POP JUMP JUMPDEST PUSH0 PUSH1 0x20 DUP3 ADD SWAP1 POP DUP2 DUP2 SUB PUSH0 DUP4 ADD MSTORE PUSH2 0x1993 DUP2 PUSH2 0x195A JUMP JUMPDEST SWAP1 POP SWAP2 SWAP1 POP JUMP JUMPDEST PUSH0 PUSH1 0x40 DUP3 ADD SWAP1 POP PUSH2 0x19AD PUSH0 DUP4 ADD DUP6 PUSH2 0x1420 JUMP JUMPDEST PUSH2 0x19BA PUSH1 0x20 DUP4 ADD DUP5 PUSH2 0x14F3 JUMP JUMPDEST SWAP4 SWAP3 POP POP POP JUMP JUMPDEST PUSH32 0x536F6D656E7465206F20636F6E7472617461646F20706F646520657865637574 PUSH0 DUP3 ADD MSTORE PUSH32 0x6172000000000000000000000000000000000000000000000000000000000000 PUSH1 0x20 DUP3 ADD MSTORE POP JUMP JUMPDEST PUSH0 PUSH2 0x1A1B PUSH1 0x22 DUP4 PUSH2 0x1308 JUMP JUMPDEST SWAP2 POP PUSH2 0x1A26 DUP3 PUSH2 0x19C1 JUMP JUMPDEST PUSH1 0x40 DUP3 ADD SWAP1 POP SWAP2 SWAP1 POP JUMP JUMPDEST PUSH0 PUSH1 0x20 DUP3 ADD SWAP1 POP DUP2 DUP2 SUB PUSH0 DUP4 ADD MSTORE PUSH2 0x1A48 DUP2 PUSH2 0x1A0F JUMP JUMPDEST SWAP1 POP SWAP2 SWAP1 POP JUMP JUMPDEST PUSH32 0x5365727669636F206E616F20696E69636961646F000000000000000000000000 PUSH0 DUP3 ADD MSTORE POP JUMP JUMPDEST PUSH0 PUSH2 0x1A83 PUSH1 0x14 DUP4 PUSH2 0x1308 JUMP JUMPDEST SWAP2 POP PUSH2 0x1A8E DUP3 PUSH2 0x1A4F JUMP JUMPDEST PUSH1 0x20 DUP3 ADD SWAP1 POP SWAP2 SWAP1 POP JUMP JUMPDEST PUSH0 PUSH1 0x20 DUP3 ADD SWAP1 POP DUP2 DUP2 SUB PUSH0 DUP4 ADD MSTORE PUSH2 0x1AB0 DUP2 PUSH2 0x1A77 JUMP JUMPDEST SWAP1 POP SWAP2 SWAP1 POP JUMP JUMPDEST PUSH32 0x536F6D656E7465206F206164766F6761646F20706F6465206578656375746172 PUSH0 DUP3 ADD MSTORE POP JUMP JUMPDEST PUSH0 PUSH2 0x1AEB PUSH1 0x20 DUP4 PUSH2 0x1308 JUMP JUMPDEST SWAP2 POP PUSH2 0x1AF6 DUP3 PUSH2 0x1AB7 JUMP JUMPDEST PUSH1 0x20 DUP3 ADD SWAP1 POP SWAP2 SWAP1 POP JUMP JUMPDEST PUSH0 PUSH1 0x20 DUP3 ADD SWAP1 POP DUP2 DUP2 SUB PUSH0 DUP4 ADD MSTORE PUSH2 0x1B18 DUP2 PUSH2 0x1ADF JUMP JUMPDEST SWAP1 POP SWAP2 SWAP1 POP JUMP JUMPDEST PUSH32 0x4E616F20706F64652063616E63656C61722061706F7320636F6E636C7573616F PUSH0 DUP3 ADD MSTORE POP JUMP JUMPDEST PUSH0 PUSH2 0x1B53 PUSH1 0x20 DUP4 PUSH2 0x1308 JUMP JUMPDEST SWAP2 POP PUSH2 0x1B5E DUP3 PUSH2 0x1B1F JUMP JUMPDEST PUSH1 0x20 DUP3 ADD SWAP1 POP SWAP2 SWAP1 POP JUMP JUMPDEST PUSH0 PUSH1 0x20 DUP3 ADD SWAP1 POP DUP2 DUP2 SUB PUSH0 DUP4 ADD MSTORE PUSH2 0x1B80 DUP2 PUSH2 0x1B47 JUMP JUMPDEST SWAP1 POP SWAP2 SWAP1 POP JUMP JUMPDEST PUSH32 0x4E487B7100000000000000000000000000000000000000000000000000000000 PUSH0 MSTORE PUSH1 0x22 PUSH1 0x4 MSTORE PUSH1 0x24 PUSH0 REVERT JUMPDEST PUSH0 PUSH1 0x2 DUP3 DIV SWAP1 POP PUSH1 0x1 DUP3 AND DUP1 PUSH2 0x1BCB JUMPI PUSH1 0x7F DUP3 AND SWAP2 POP JUMPDEST PUSH1 0x20 DUP3 LT DUP2 SUB PUSH2 0x1BDE JUMPI PUSH2 0x1BDD PUSH2 0x1B87 JUMP JUMPDEST JUMPDEST POP SWAP2 SWAP1 POP JUMP JUMPDEST PUSH32 0x5265656E7472616E637947756172643A207265656E7472616E742063616C6C00 PUSH0 DUP3 ADD MSTORE POP JUMP JUMPDEST PUSH0 PUSH2 0x1C18 PUSH1 0x1F DUP4 PUSH2 0x1308 JUMP JUMPDEST SWAP2 POP PUSH2 0x1C23 DUP3 PUSH2 0x1BE4 JUMP JUMPDEST PUSH1 0x20 DUP3 ADD SWAP1 POP SWAP2 SWAP1 POP JUMP JUMPDEST PUSH0 PUSH1 0x20 DUP3 ADD SWAP1 POP DUP2 DUP2 SUB PUSH0 DUP4 ADD MSTORE PUSH2 0x1C45 DUP2 PUSH2 0x1C0C JUMP JUMPDEST SWAP1 POP SWAP2 SWAP1 POP JUMP INVALID LOG2 PUSH5 0x6970667358 0x22 SLT KECCAK256 GASLIMIT 0xEF GASPRICE BLOBHASH OR LOG0 PUSH4 0xF10C5A98 SWAP6 0x27 SWAP2 ISZERO SELFBALANCE 0x26 DUP15 0xA8 0x4D 0xCA RETURNDATACOPY PUSH8 0x2E9CDD13F2FBFDE5 DUP8 PUSH5 0x736F6C6343 STOP ADDMOD 0x1E STOP CALLER "
				},
				"gasEstimates": {
					"creation": {
						"codeDepositCost": "1459600",
						"executionCost": "infinite",
						"totalCost": "infinite"
					},
					"external": {
						"aceitarContrato()": "30247",
						"cancelarContrato()": "30169",
						"concluirServico()": "29743",
						"getLinkTermos()": "infinite",
						"getStatus()": "infinite",
						"iniciarServico()": "34060",
						"listaPartes(uint256)": "4988",
						"pagarServico()": "infinite",
						"partes(address)": "infinite",
						"reconhecerJuridicamente()": "30092",
						"servico()": "infinite"
					}
				},
				"methodIdentifiers": {
					"aceitarContrato()": "0d23ce1a",
					"cancelarContrato()": "8bb5db74",
					"concluirServico()": "57d46729",
					"getLinkTermos()": "e427938f",
					"getStatus()": "4e69d560",
					"iniciarServico()": "1224addd",
					"listaPartes(uint256)": "c598bddf",
					"pagarServico()": "2d22fd0b",
					"partes(address)": "d2fdb0ee",
					"reconhecerJuridicamente()": "815085d9",
					"servico()": "fb3d968c"
				}
			},
			"storageLayout": {
				"storage": [
					{
						"astId": 10,
						"contract": "contractGen.sol:PrestacaoServicoSeguro",
						"label": "_status",
						"offset": 0,
						"slot": "0",
						"type": "t_uint256"
					},
					{
						"astId": 105,
						"contract": "contractGen.sol:PrestacaoServicoSeguro",
						"label": "servico",
						"offset": 0,
						"slot": "1",
						"type": "t_struct(Servico)102_storage"
					},
					{
						"astId": 110,
						"contract": "contractGen.sol:PrestacaoServicoSeguro",
						"label": "partes",
						"offset": 0,
						"slot": "8",
						"type": "t_mapping(t_address,t_struct(Parte)82_storage)"
					},
					{
						"astId": 113,
						"contract": "contractGen.sol:PrestacaoServicoSeguro",
						"label": "listaPartes",
						"offset": 0,
						"slot": "9",
						"type": "t_array(t_address)dyn_storage"
					}
				],
				"types": {
					"t_address": {
						"encoding": "inplace",
						"label": "address",
						"numberOfBytes": "20"
					},
					"t_array(t_address)dyn_storage": {
						"base": "t_address",
						"encoding": "dynamic_array",
						"label": "address[]",
						"numberOfBytes": "32"
					},
					"t_bool": {
						"encoding": "inplace",
						"label": "bool",
						"numberOfBytes": "1"
					},
					"t_enum(Status)75": {
						"encoding": "inplace",
						"label": "enum PrestacaoServicoSeguro.Status",
						"numberOfBytes": "1"
					},
					"t_mapping(t_address,t_struct(Parte)82_storage)": {
						"encoding": "mapping",
						"key": "t_address",
						"label": "mapping(address => struct PrestacaoServicoSeguro.Parte)",
						"numberOfBytes": "32",
						"value": "t_struct(Parte)82_storage"
					},
					"t_string_storage": {
						"encoding": "bytes",
						"label": "string",
						"numberOfBytes": "32"
					},
					"t_struct(Parte)82_storage": {
						"encoding": "inplace",
						"label": "struct PrestacaoServicoSeguro.Parte",
						"members": [
							{
								"astId": 77,
								"contract": "contractGen.sol:PrestacaoServicoSeguro",
								"label": "carteira",
								"offset": 0,
								"slot": "0",
								"type": "t_address"
							},
							{
								"astId": 79,
								"contract": "contractGen.sol:PrestacaoServicoSeguro",
								"label": "nome",
								"offset": 0,
								"slot": "1",
								"type": "t_string_storage"
							},
							{
								"astId": 81,
								"contract": "contractGen.sol:PrestacaoServicoSeguro",
								"label": "aceitou",
								"offset": 0,
								"slot": "2",
								"type": "t_bool"
							}
						],
						"numberOfBytes": "96"
					},
					"t_struct(Servico)102_storage": {
						"encoding": "inplace",
						"label": "struct PrestacaoServicoSeguro.Servico",
						"members": [
							{
								"astId": 84,
								"contract": "contractGen.sol:PrestacaoServicoSeguro",
								"label": "descricao",
								"offset": 0,
								"slot": "0",
								"type": "t_string_storage"
							},
							{
								"astId": 86,
								"contract": "contractGen.sol:PrestacaoServicoSeguro",
								"label": "valor",
								"offset": 0,
								"slot": "1",
								"type": "t_uint256"
							},
							{
								"astId": 89,
								"contract": "contractGen.sol:PrestacaoServicoSeguro",
								"label": "status",
								"offset": 0,
								"slot": "2",
								"type": "t_enum(Status)75"
							},
							{
								"astId": 91,
								"contract": "contractGen.sol:PrestacaoServicoSeguro",
								"label": "contratado",
								"offset": 1,
								"slot": "2",
								"type": "t_address"
							},
							{
								"astId": 93,
								"contract": "contractGen.sol:PrestacaoServicoSeguro",
								"label": "contratante",
								"offset": 0,
								"slot": "3",
								"type": "t_address"
							},
							{
								"astId": 95,
								"contract": "contractGen.sol:PrestacaoServicoSeguro",
								"label": "intermediador",
								"offset": 0,
								"slot": "4",
								"type": "t_address"
							},
							{
								"astId": 97,
								"contract": "contractGen.sol:PrestacaoServicoSeguro",
								"label": "advogado",
								"offset": 0,
								"slot": "5",
								"type": "t_address"
							},
							{
								"astId": 99,
								"contract": "contractGen.sol:PrestacaoServicoSeguro",
								"label": "reconhecidoJuridicamente",
								"offset": 20,
								"slot": "5",
								"type": "t_bool"
							},
							{
								"astId": 101,
								"contract": "contractGen.sol:PrestacaoServicoSeguro",
								"label": "ipfsLinkTermos",
								"offset": 0,
								"slot": "6",
								"type": "t_string_storage"
							}
						],
						"numberOfBytes": "224"
					},
					"t_uint256": {
						"encoding": "inplace",
						"label": "uint256",
						"numberOfBytes": "32"
					}
				}
			},
			"userdoc": {
				"kind": "user",
				"methods": {},
				"version": 1
			}
		}
	}
}