{
	"PrestacaoServicoSeguro.sol": {
		"PrestacaoServicoSeguro": {
			"abi": [
				{
					"inputs": [
						{
							"internalType": "address",
							"name": "_contratante",
							"type": "address"
						},
						{
							"internalType": "address",
							"name": "_contratado",
							"type": "address"
						},
						{
							"internalType": "address",
							"name": "_intermediador",
							"type": "address"
						},
						{
							"internalType": "address",
							"name": "_advogado",
							"type": "address"
						},
						{
							"internalType": "string",
							"name": "_descricao",
							"type": "string"
						},
						{
							"internalType": "uint256",
							"name": "_valor",
							"type": "uint256"
						},
						{
							"internalType": "string",
							"name": "_ipfsLinkTermos",
							"type": "string"
						}
					],
					"stateMutability": "nonpayable",
					"type": "constructor"
				},
				{
					"anonymous": false,
					"inputs": [
						{
							"indexed": false,
							"internalType": "address",
							"name": "parte",
							"type": "address"
						}
					],
					"name": "ContratoAceito",
					"type": "event"
				},
				{
					"anonymous": false,
					"inputs": [
						{
							"indexed": false,
							"internalType": "address",
							"name": "parte",
							"type": "address"
						}
					],
					"name": "ContratoCancelado",
					"type": "event"
				},
				{
					"anonymous": false,
					"inputs": [
						{
							"indexed": false,
							"internalType": "address",
							"name": "pagador",
							"type": "address"
						},
						{
							"indexed": false,
							"internalType": "uint256",
							"name": "valor",
							"type": "uint256"
						}
					],
					"name": "PagamentoRealizado",
					"type": "event"
				},
				{
					"anonymous": false,
					"inputs": [
						{
							"indexed": false,
							"internalType": "address",
							"name": "advogado",
							"type": "address"
						}
					],
					"name": "ReconhecimentoJuridico",
					"type": "event"
				},
				{
					"anonymous": false,
					"inputs": [],
					"name": "ServicoConcluido",
					"type": "event"
				},
				{
					"anonymous": false,
					"inputs": [],
					"name": "ServicoIniciado",
					"type": "event"
				},
				{
					"inputs": [],
					"name": "aceitarContrato",
					"outputs": [],
					"stateMutability": "nonpayable",
					"type": "function"
				},
				{
					"inputs": [],
					"name": "cancelarContrato",
					"outputs": [],
					"stateMutability": "nonpayable",
					"type": "function"
				},
				{
					"inputs": [],
					"name": "concluirServico",
					"outputs": [],
					"stateMutability": "nonpayable",
					"type": "function"
				},
				{
					"inputs": [],
					"name": "getAdvogado",
					"outputs": [
						{
							"internalType": "address",
							"name": "",
							"type": "address"
						}
					],
					"stateMutability": "view",
					"type": "function"
				},
				{
					"inputs": [],
					"name": "getContratado",
					"outputs": [
						{
							"internalType": "address",
							"name": "",
							"type": "address"
						}
					],
					"stateMutability": "view",
					"type": "function"
				},
				{
					"inputs": [],
					"name": "getContratante",
					"outputs": [
						{
							"internalType": "address",
							"name": "",
							"type": "address"
						}
					],
					"stateMutability": "view",
					"type": "function"
				},
				{
					"inputs": [],
					"name": "getDescricaoServico",
					"outputs": [
						{
							"internalType": "string",
							"name": "",
							"type": "string"
						}
					],
					"stateMutability": "view",
					"type": "function"
				},
				{
					"inputs": [],
					"name": "getIntermediador",
					"outputs": [
						{
							"internalType": "address",
							"name": "",
							"type": "address"
						}
					],
					"stateMutability": "view",
					"type": "function"
				},
				{
					"inputs": [],
					"name": "getLinkTermos",
					"outputs": [
						{
							"internalType": "string",
							"name": "",
							"type": "string"
						}
					],
					"stateMutability": "view",
					"type": "function"
				},
				{
					"inputs": [],
					"name": "getListaPartes",
					"outputs": [
						{
							"internalType": "address[]",
							"name": "",
							"type": "address[]"
						}
					],
					"stateMutability": "view",
					"type": "function"
				},
				{
					"inputs": [
						{
							"internalType": "address",
							"name": "_parte",
							"type": "address"
						}
					],
					"name": "getParte",
					"outputs": [
						{
							"internalType": "address",
							"name": "carteira",
							"type": "address"
						},
						{
							"internalType": "string",
							"name": "nome",
							"type": "string"
						},
						{
							"internalType": "bool",
							"name": "aceitou",
							"type": "bool"
						}
					],
					"stateMutability": "view",
					"type": "function"
				},
				{
					"inputs": [],
					"name": "getStatusServico",
					"outputs": [
						{
							"internalType": "string",
							"name": "",
							"type": "string"
						}
					],
					"stateMutability": "view",
					"type": "function"
				},
				{
					"inputs": [],
					"name": "getValorServico",
					"outputs": [
						{
							"internalType": "uint256",
							"name": "",
							"type": "uint256"
						}
					],
					"stateMutability": "view",
					"type": "function"
				},
				{
					"inputs": [],
					"name": "iniciarServico",
					"outputs": [],
					"stateMutability": "nonpayable",
					"type": "function"
				},
				{
					"inputs": [],
					"name": "isReconhecidoJuridicamente",
					"outputs": [
						{
							"internalType": "bool",
							"name": "",
							"type": "bool"
						}
					],
					"stateMutability": "view",
					"type": "function"
				},
				{
					"inputs": [
						{
							"internalType": "uint256",
							"name": "",
							"type": "uint256"
						}
					],
					"name": "listaPartes",
					"outputs": [
						{
							"internalType": "address",
							"name": "",
							"type": "address"
						}
					],
					"stateMutability": "view",
					"type": "function"
				},
				{
					"inputs": [],
					"name": "pagarServico",
					"outputs": [],
					"stateMutability": "payable",
					"type": "function"
				},
				{
					"inputs": [
						{
							"internalType": "address",
							"name": "",
							"type": "address"
						}
					],
					"name": "partes",
					"outputs": [
						{
							"internalType": "address",
							"name": "carteira",
							"type": "address"
						},
						{
							"internalType": "string",
							"name": "nome",
							"type": "string"
						},
						{
							"internalType": "bool",
							"name": "aceitou",
							"type": "bool"
						}
					],
					"stateMutability": "view",
					"type": "function"
				},
				{
					"inputs": [],
					"name": "reconhecerJuridicamente",
					"outputs": [],
					"stateMutability": "nonpayable",
					"type": "function"
				},
				{
					"inputs": [],
					"name": "servico",
					"outputs": [
						{
							"internalType": "string",
							"name": "descricao",
							"type": "string"
						},
						{
							"internalType": "uint256",
							"name": "valor",
							"type": "uint256"
						},
						{
							"internalType": "enum PrestacaoServicoSeguro.Status",
							"name": "status",
							"type": "uint8"
						},
						{
							"internalType": "address",
							"name": "contratado",
							"type": "address"
						},
						{
							"internalType": "address",
							"name": "contratante",
							"type": "address"
						},
						{
							"internalType": "address",
							"name": "intermediador",
							"type": "address"
						},
						{
							"internalType": "address",
							"name": "advogado",
							"type": "address"
						},
						{
							"internalType": "bool",
							"name": "reconhecidoJuridicamente",
							"type": "bool"
						},
						{
							"internalType": "string",
							"name": "ipfsLinkTermos",
							"type": "string"
						}
					],
					"stateMutability": "view",
					"type": "function"
				}
			],
			"devdoc": {
				"kind": "dev",
				"methods": {},
				"version": 1
			},
			"evm": {
				"assembly": "    /* \"PrestacaoServicoSeguro.sol\":126:6333  contract PrestacaoServicoSeguro is ReentrancyGuard {... */\n  mstore(0x40, 0x80)\n    /* \"PrestacaoServicoSeguro.sol\":1032:2297  constructor(... */\n  callvalue\n  dup1\n  iszero\n  tag_1\n  jumpi\n  revert(0x00, 0x00)\ntag_1:\n  pop\n  mload(0x40)\n  sub(codesize, bytecodeSize)\n  dup1\n  bytecodeSize\n  dup4\n  codecopy\n  dup2\n  dup2\n  add\n  0x40\n  mstore\n  dup2\n  add\n  swap1\n  tag_2\n  swap2\n  swap1\n  tag_3\n  jump\t// in\ntag_2:\n    /* \"@openzeppelin/contracts/security/ReentrancyGuard.sol\":1716:1717  1 */\n  0x01\n    /* \"@openzeppelin/contracts/security/ReentrancyGuard.sol\":1821:1828  _status */\n  0x00\n    /* \"@openzeppelin/contracts/security/ReentrancyGuard.sol\":1821:1843  _status = _NOT_ENTERED */\n  dup2\n  swap1\n  sstore\n  pop\n    /* \"PrestacaoServicoSeguro.sol\":1316:1317  0 */\n  0x00\n    /* \"PrestacaoServicoSeguro.sol\":1292:1318  _contratante != address(0) */\n  0xffffffffffffffffffffffffffffffffffffffff\n  and\n    /* \"PrestacaoServicoSeguro.sol\":1292:1304  _contratante */\n  dup8\n    /* \"PrestacaoServicoSeguro.sol\":1292:1318  _contratante != address(0) */\n  0xffffffffffffffffffffffffffffffffffffffff\n  and\n  eq\n  iszero\n    /* \"PrestacaoServicoSeguro.sol\":1292:1347  _contratante != address(0) && _contratado != address(0) */\n  dup1\n  iszero\n  tag_8\n  jumpi\n  pop\n    /* \"PrestacaoServicoSeguro.sol\":1345:1346  0 */\n  0x00\n    /* \"PrestacaoServicoSeguro.sol\":1322:1347  _contratado != address(0) */\n  0xffffffffffffffffffffffffffffffffffffffff\n  and\n    /* \"PrestacaoServicoSeguro.sol\":1322:1333  _contratado */\n  dup7\n    /* \"PrestacaoServicoSeguro.sol\":1322:1347  _contratado != address(0) */\n  0xffffffffffffffffffffffffffffffffffffffff\n  and\n  eq\n  iszero\n    /* \"PrestacaoServicoSeguro.sol\":1292:1347  _contratante != address(0) && _contratado != address(0) */\ntag_8:\n    /* \"PrestacaoServicoSeguro.sol\":1284:1371  require(_contratante != address(0) && _contratado != address(0), \"Enderecos invalidos\") */\n  tag_9\n  jumpi\n  mload(0x40)\n  0x08c379a000000000000000000000000000000000000000000000000000000000\n  dup2\n  mstore\n  0x04\n  add\n  tag_10\n  swap1\n  tag_11\n  jump\t// in\ntag_10:\n  mload(0x40)\n  dup1\n  swap2\n  sub\n  swap1\n  revert\ntag_9:\n    /* \"PrestacaoServicoSeguro.sol\":1411:1412  0 */\n  0x00\n    /* \"PrestacaoServicoSeguro.sol\":1390:1413  _advogado != address(0) */\n  0xffffffffffffffffffffffffffffffffffffffff\n  and\n    /* \"PrestacaoServicoSeguro.sol\":1390:1399  _advogado */\n  dup5\n    /* \"PrestacaoServicoSeguro.sol\":1390:1413  _advogado != address(0) */\n  0xffffffffffffffffffffffffffffffffffffffff\n  and\n  sub\n    /* \"PrestacaoServicoSeguro.sol\":1382:1438  require(_advogado != address(0), \"Advogado obrigatorio\") */\n  tag_12\n  jumpi\n  mload(0x40)\n  0x08c379a000000000000000000000000000000000000000000000000000000000\n  dup2\n  mstore\n  0x04\n  add\n  tag_13\n  swap1\n  tag_14\n  jump\t// in\ntag_13:\n  mload(0x40)\n  dup1\n  swap2\n  sub\n  swap1\n  revert\ntag_12:\n    /* \"PrestacaoServicoSeguro.sol\":1461:1829  Servico({... */\n  mload(0x40)\n  dup1\n  0x0120\n  add\n  0x40\n  mstore\n  dup1\n    /* \"PrestacaoServicoSeguro.sol\":1495:1505  _descricao */\n  dup5\n    /* \"PrestacaoServicoSeguro.sol\":1461:1829  Servico({... */\n  dup2\n  mstore\n  0x20\n  add\n    /* \"PrestacaoServicoSeguro.sol\":1527:1533  _valor */\n  dup4\n    /* \"PrestacaoServicoSeguro.sol\":1461:1829  Servico({... */\n  dup2\n  mstore\n  0x20\n  add\n    /* \"PrestacaoServicoSeguro.sol\":1556:1569  Status.Criado */\n  0x00\n    /* \"PrestacaoServicoSeguro.sol\":1461:1829  Servico({... */\n  0x04\n  dup2\n  gt\n  iszero\n  tag_15\n  jumpi\n  tag_16\n  tag_17\n  jump\t// in\ntag_16:\ntag_15:\n  dup2\n  mstore\n  0x20\n  add\n    /* \"PrestacaoServicoSeguro.sol\":1596:1607  _contratado */\n  dup8\n    /* \"PrestacaoServicoSeguro.sol\":1461:1829  Servico({... */\n  0xffffffffffffffffffffffffffffffffffffffff\n  and\n  dup2\n  mstore\n  0x20\n  add\n    /* \"PrestacaoServicoSeguro.sol\":1635:1647  _contratante */\n  dup9\n    /* \"PrestacaoServicoSeguro.sol\":1461:1829  Servico({... */\n  0xffffffffffffffffffffffffffffffffffffffff\n  and\n  dup2\n  mstore\n  0x20\n  add\n    /* \"PrestacaoServicoSeguro.sol\":1677:1691  _intermediador */\n  dup7\n    /* \"PrestacaoServicoSeguro.sol\":1461:1829  Servico({... */\n  0xffffffffffffffffffffffffffffffffffffffff\n  and\n  dup2\n  mstore\n  0x20\n  add\n    /* \"PrestacaoServicoSeguro.sol\":1716:1725  _advogado */\n  dup6\n    /* \"PrestacaoServicoSeguro.sol\":1461:1829  Servico({... */\n  0xffffffffffffffffffffffffffffffffffffffff\n  and\n  dup2\n  mstore\n  0x20\n  add\n    /* \"PrestacaoServicoSeguro.sol\":1766:1771  false */\n  0x00\n    /* \"PrestacaoServicoSeguro.sol\":1461:1829  Servico({... */\n  iszero\n  iszero\n  dup2\n  mstore\n  0x20\n  add\n    /* \"PrestacaoServicoSeguro.sol\":1802:1817  _ipfsLinkTermos */\n  dup3\n    /* \"PrestacaoServicoSeguro.sol\":1461:1829  Servico({... */\n  dup2\n  mstore\n  pop\n    /* \"PrestacaoServicoSeguro.sol\":1451:1458  servico */\n  0x01\n    /* \"PrestacaoServicoSeguro.sol\":1451:1829  servico = Servico({... */\n  0x00\n  dup3\n  add\n  mload\n  dup2\n  0x00\n  add\n  swap1\n  dup2\n  tag_18\n  swap2\n  swap1\n  tag_19\n  jump\t// in\ntag_18:\n  pop\n  0x20\n  dup3\n  add\n  mload\n  dup2\n  0x01\n  add\n  sstore\n  0x40\n  dup3\n  add\n  mload\n  dup2\n  0x02\n  add\n  exp(0x0100, 0x00)\n  dup2\n  sload\n  dup2\n  0xff\n  mul\n  not\n  and\n  swap1\n  dup4\n  0x04\n  dup2\n  gt\n  iszero\n  tag_20\n  jumpi\n  tag_21\n  tag_17\n  jump\t// in\ntag_21:\ntag_20:\n  mul\n  or\n  swap1\n  sstore\n  pop\n  0x60\n  dup3\n  add\n  mload\n  dup2\n  0x02\n  add\n  exp(0x0100, 0x01)\n  dup2\n  sload\n  dup2\n  0xffffffffffffffffffffffffffffffffffffffff\n  mul\n  not\n  and\n  swap1\n  dup4\n  0xffffffffffffffffffffffffffffffffffffffff\n  and\n  mul\n  or\n  swap1\n  sstore\n  pop\n  0x80\n  dup3\n  add\n  mload\n  dup2\n  0x03\n  add\n  exp(0x0100, 0x00)\n  dup2\n  sload\n  dup2\n  0xffffffffffffffffffffffffffffffffffffffff\n  mul\n  not\n  and\n  swap1\n  dup4\n  0xffffffffffffffffffffffffffffffffffffffff\n  and\n  mul\n  or\n  swap1\n  sstore\n  pop\n  0xa0\n  dup3\n  add\n  mload\n  dup2\n  0x04\n  add\n  exp(0x0100, 0x00)\n  dup2\n  sload\n  dup2\n  0xffffffffffffffffffffffffffffffffffffffff\n  mul\n  not\n  and\n  swap1\n  dup4\n  0xffffffffffffffffffffffffffffffffffffffff\n  and\n  mul\n  or\n  swap1\n  sstore\n  pop\n  0xc0\n  dup3\n  add\n  mload\n  dup2\n  0x05\n  add\n  exp(0x0100, 0x00)\n  dup2\n  sload\n  dup2\n  0xffffffffffffffffffffffffffffffffffffffff\n  mul\n  not\n  and\n  swap1\n  dup4\n  0xffffffffffffffffffffffffffffffffffffffff\n  and\n  mul\n  or\n  swap1\n  sstore\n  pop\n  0xe0\n  dup3\n  add\n  mload\n  dup2\n  0x05\n  add\n  exp(0x0100, 0x14)\n  dup2\n  sload\n  dup2\n  0xff\n  mul\n  not\n  and\n  swap1\n  dup4\n  iszero\n  iszero\n  mul\n  or\n  swap1\n  sstore\n  pop\n  0x0100\n  dup3\n  add\n  mload\n  dup2\n  0x06\n  add\n  swap1\n  dup2\n  tag_22\n  swap2\n  swap1\n  tag_19\n  jump\t// in\ntag_22:\n  pop\n  swap1\n  pop\n  pop\n    /* \"PrestacaoServicoSeguro.sol\":1865:1906  Parte(_contratante, \"Contratante\", false) */\n  mload(0x40)\n  dup1\n  0x60\n  add\n  0x40\n  mstore\n  dup1\n    /* \"PrestacaoServicoSeguro.sol\":1871:1883  _contratante */\n  dup9\n    /* \"PrestacaoServicoSeguro.sol\":1865:1906  Parte(_contratante, \"Contratante\", false) */\n  0xffffffffffffffffffffffffffffffffffffffff\n  and\n  dup2\n  mstore\n  0x20\n  add\n  mload(0x40)\n  dup1\n  0x40\n  add\n  0x40\n  mstore\n  dup1\n  0x0b\n  dup2\n  mstore\n  0x20\n  add\n  0x436f6e74726174616e7465000000000000000000000000000000000000000000\n  dup2\n  mstore\n  pop\n  dup2\n  mstore\n  0x20\n  add\n    /* \"PrestacaoServicoSeguro.sol\":1900:1905  false */\n  0x00\n    /* \"PrestacaoServicoSeguro.sol\":1865:1906  Parte(_contratante, \"Contratante\", false) */\n  iszero\n  iszero\n  dup2\n  mstore\n  pop\n    /* \"PrestacaoServicoSeguro.sol\":1842:1848  partes */\n  0x08\n    /* \"PrestacaoServicoSeguro.sol\":1842:1862  partes[_contratante] */\n  0x00\n    /* \"PrestacaoServicoSeguro.sol\":1849:1861  _contratante */\n  dup10\n    /* \"PrestacaoServicoSeguro.sol\":1842:1862  partes[_contratante] */\n  0xffffffffffffffffffffffffffffffffffffffff\n  and\n  0xffffffffffffffffffffffffffffffffffffffff\n  and\n  dup2\n  mstore\n  0x20\n  add\n  swap1\n  dup2\n  mstore\n  0x20\n  add\n  0x00\n  keccak256\n    /* \"PrestacaoServicoSeguro.sol\":1842:1906  partes[_contratante] = Parte(_contratante, \"Contratante\", false) */\n  0x00\n  dup3\n  add\n  mload\n  dup2\n  0x00\n  add\n  exp(0x0100, 0x00)\n  dup2\n  sload\n  dup2\n  0xffffffffffffffffffffffffffffffffffffffff\n  mul\n  not\n  and\n  swap1\n  dup4\n  0xffffffffffffffffffffffffffffffffffffffff\n  and\n  mul\n  or\n  swap1\n  sstore\n  pop\n  0x20\n  dup3\n  add\n  mload\n  dup2\n  0x01\n  add\n  swap1\n  dup2\n  tag_23\n  swap2\n  swap1\n  tag_19\n  jump\t// in\ntag_23:\n  pop\n  0x40\n  dup3\n  add\n  mload\n  dup2\n  0x02\n  add\n  exp(0x0100, 0x00)\n  dup2\n  sload\n  dup2\n  0xff\n  mul\n  not\n  and\n  swap1\n  dup4\n  iszero\n  iszero\n  mul\n  or\n  swap1\n  sstore\n  pop\n  swap1\n  pop\n  pop\n    /* \"PrestacaoServicoSeguro.sol\":1939:1978  Parte(_contratado, \"Contratado\", false) */\n  mload(0x40)\n  dup1\n  0x60\n  add\n  0x40\n  mstore\n  dup1\n    /* \"PrestacaoServicoSeguro.sol\":1945:1956  _contratado */\n  dup8\n    /* \"PrestacaoServicoSeguro.sol\":1939:1978  Parte(_contratado, \"Contratado\", false) */\n  0xffffffffffffffffffffffffffffffffffffffff\n  and\n  dup2\n  mstore\n  0x20\n  add\n  mload(0x40)\n  dup1\n  0x40\n  add\n  0x40\n  mstore\n  dup1\n  0x0a\n  dup2\n  mstore\n  0x20\n  add\n  0x436f6e7472617461646f00000000000000000000000000000000000000000000\n  dup2\n  mstore\n  pop\n  dup2\n  mstore\n  0x20\n  add\n    /* \"PrestacaoServicoSeguro.sol\":1972:1977  false */\n  0x00\n    /* \"PrestacaoServicoSeguro.sol\":1939:1978  Parte(_contratado, \"Contratado\", false) */\n  iszero\n  iszero\n  dup2\n  mstore\n  pop\n    /* \"PrestacaoServicoSeguro.sol\":1917:1923  partes */\n  0x08\n    /* \"PrestacaoServicoSeguro.sol\":1917:1936  partes[_contratado] */\n  0x00\n    /* \"PrestacaoServicoSeguro.sol\":1924:1935  _contratado */\n  dup9\n    /* \"PrestacaoServicoSeguro.sol\":1917:1936  partes[_contratado] */\n  0xffffffffffffffffffffffffffffffffffffffff\n  and\n  0xffffffffffffffffffffffffffffffffffffffff\n  and\n  dup2\n  mstore\n  0x20\n  add\n  swap1\n  dup2\n  mstore\n  0x20\n  add\n  0x00\n  keccak256\n    /* \"PrestacaoServicoSeguro.sol\":1917:1978  partes[_contratado] = Parte(_contratado, \"Contratado\", false) */\n  0x00\n  dup3\n  add\n  mload\n  dup2\n  0x00\n  add\n  exp(0x0100, 0x00)\n  dup2\n  sload\n  dup2\n  0xffffffffffffffffffffffffffffffffffffffff\n  mul\n  not\n  and\n  swap1\n  dup4\n  0xffffffffffffffffffffffffffffffffffffffff\n  and\n  mul\n  or\n  swap1\n  sstore\n  pop\n  0x20\n  dup3\n  add\n  mload\n  dup2\n  0x01\n  add\n  swap1\n  dup2\n  tag_24\n  swap2\n  swap1\n  tag_19\n  jump\t// in\ntag_24:\n  pop\n  0x40\n  dup3\n  add\n  mload\n  dup2\n  0x02\n  add\n  exp(0x0100, 0x00)\n  dup2\n  sload\n  dup2\n  0xff\n  mul\n  not\n  and\n  swap1\n  dup4\n  iszero\n  iszero\n  mul\n  or\n  swap1\n  sstore\n  pop\n  swap1\n  pop\n  pop\n    /* \"PrestacaoServicoSeguro.sol\":2014:2059  Parte(_intermediador, \"Intermediador\", false) */\n  mload(0x40)\n  dup1\n  0x60\n  add\n  0x40\n  mstore\n  dup1\n    /* \"PrestacaoServicoSeguro.sol\":2020:2034  _intermediador */\n  dup7\n    /* \"PrestacaoServicoSeguro.sol\":2014:2059  Parte(_intermediador, \"Intermediador\", false) */\n  0xffffffffffffffffffffffffffffffffffffffff\n  and\n  dup2\n  mstore\n  0x20\n  add\n  mload(0x40)\n  dup1\n  0x40\n  add\n  0x40\n  mstore\n  dup1\n  0x0d\n  dup2\n  mstore\n  0x20\n  add\n  0x496e7465726d65646961646f7200000000000000000000000000000000000000\n  dup2\n  mstore\n  pop\n  dup2\n  mstore\n  0x20\n  add\n    /* \"PrestacaoServicoSeguro.sol\":2053:2058  false */\n  0x00\n    /* \"PrestacaoServicoSeguro.sol\":2014:2059  Parte(_intermediador, \"Intermediador\", false) */\n  iszero\n  iszero\n  dup2\n  mstore\n  pop\n    /* \"PrestacaoServicoSeguro.sol\":1989:1995  partes */\n  0x08\n    /* \"PrestacaoServicoSeguro.sol\":1989:2011  partes[_intermediador] */\n  0x00\n    /* \"PrestacaoServicoSeguro.sol\":1996:2010  _intermediador */\n  dup8\n    /* \"PrestacaoServicoSeguro.sol\":1989:2011  partes[_intermediador] */\n  0xffffffffffffffffffffffffffffffffffffffff\n  and\n  0xffffffffffffffffffffffffffffffffffffffff\n  and\n  dup2\n  mstore\n  0x20\n  add\n  swap1\n  dup2\n  mstore\n  0x20\n  add\n  0x00\n  keccak256\n    /* \"PrestacaoServicoSeguro.sol\":1989:2059  partes[_intermediador] = Parte(_intermediador, \"Intermediador\", false) */\n  0x00\n  dup3\n  add\n  mload\n  dup2\n  0x00\n  add\n  exp(0x0100, 0x00)\n  dup2\n  sload\n  dup2\n  0xffffffffffffffffffffffffffffffffffffffff\n  mul\n  not\n  and\n  swap1\n  dup4\n  0xffffffffffffffffffffffffffffffffffffffff\n  and\n  mul\n  or\n  swap1\n  sstore\n  pop\n  0x20\n  dup3\n  add\n  mload\n  dup2\n  0x01\n  add\n  swap1\n  dup2\n  tag_25\n  swap2\n  swap1\n  tag_19\n  jump\t// in\ntag_25:\n  pop\n  0x40\n  dup3\n  add\n  mload\n  dup2\n  0x02\n  add\n  exp(0x0100, 0x00)\n  dup2\n  sload\n  dup2\n  0xff\n  mul\n  not\n  and\n  swap1\n  dup4\n  iszero\n  iszero\n  mul\n  or\n  swap1\n  sstore\n  pop\n  swap1\n  pop\n  pop\n    /* \"PrestacaoServicoSeguro.sol\":2090:2125  Parte(_advogado, \"Advogado\", false) */\n  mload(0x40)\n  dup1\n  0x60\n  add\n  0x40\n  mstore\n  dup1\n    /* \"PrestacaoServicoSeguro.sol\":2096:2105  _advogado */\n  dup6\n    /* \"PrestacaoServicoSeguro.sol\":2090:2125  Parte(_advogado, \"Advogado\", false) */\n  0xffffffffffffffffffffffffffffffffffffffff\n  and\n  dup2\n  mstore\n  0x20\n  add\n  mload(0x40)\n  dup1\n  0x40\n  add\n  0x40\n  mstore\n  dup1\n  0x08\n  dup2\n  mstore\n  0x20\n  add\n  0x4164766f6761646f000000000000000000000000000000000000000000000000\n  dup2\n  mstore\n  pop\n  dup2\n  mstore\n  0x20\n  add\n    /* \"PrestacaoServicoSeguro.sol\":2119:2124  false */\n  0x00\n    /* \"PrestacaoServicoSeguro.sol\":2090:2125  Parte(_advogado, \"Advogado\", false) */\n  iszero\n  iszero\n  dup2\n  mstore\n  pop\n    /* \"PrestacaoServicoSeguro.sol\":2070:2076  partes */\n  0x08\n    /* \"PrestacaoServicoSeguro.sol\":2070:2087  partes[_advogado] */\n  0x00\n    /* \"PrestacaoServicoSeguro.sol\":2077:2086  _advogado */\n  dup7\n    /* \"PrestacaoServicoSeguro.sol\":2070:2087  partes[_advogado] */\n  0xffffffffffffffffffffffffffffffffffffffff\n  and\n  0xffffffffffffffffffffffffffffffffffffffff\n  and\n  dup2\n  mstore\n  0x20\n  add\n  swap1\n  dup2\n  mstore\n  0x20\n  add\n  0x00\n  keccak256\n    /* \"PrestacaoServicoSeguro.sol\":2070:2125  partes[_advogado] = Parte(_advogado, \"Advogado\", false) */\n  0x00\n  dup3\n  add\n  mload\n  dup2\n  0x00\n  add\n  exp(0x0100, 0x00)\n  dup2\n  sload\n  dup2\n  0xffffffffffffffffffffffffffffffffffffffff\n  mul\n  not\n  and\n  swap1\n  dup4\n  0xffffffffffffffffffffffffffffffffffffffff\n  and\n  mul\n  or\n  swap1\n  sstore\n  pop\n  0x20\n  dup3\n  add\n  mload\n  dup2\n  0x01\n  add\n  swap1\n  dup2\n  tag_26\n  swap2\n  swap1\n  tag_19\n  jump\t// in\ntag_26:\n  pop\n  0x40\n  dup3\n  add\n  mload\n  dup2\n  0x02\n  add\n  exp(0x0100, 0x00)\n  dup2\n  sload\n  dup2\n  0xff\n  mul\n  not\n  and\n  swap1\n  dup4\n  iszero\n  iszero\n  mul\n  or\n  swap1\n  sstore\n  pop\n  swap1\n  pop\n  pop\n    /* \"PrestacaoServicoSeguro.sol\":2138:2149  listaPartes */\n  0x09\n    /* \"PrestacaoServicoSeguro.sol\":2155:2167  _contratante */\n  dup8\n    /* \"PrestacaoServicoSeguro.sol\":2138:2168  listaPartes.push(_contratante) */\n  swap1\n  dup1\n  0x01\n  dup2\n  sload\n  add\n  dup1\n  dup3\n  sstore\n  dup1\n  swap2\n  pop\n  pop\n  0x01\n  swap1\n  sub\n  swap1\n  0x00\n  mstore\n  keccak256(0x00, 0x20)\n  add\n  0x00\n  swap1\n  swap2\n  swap1\n  swap2\n  swap1\n  swap2\n  0x0100\n  exp\n  dup2\n  sload\n  dup2\n  0xffffffffffffffffffffffffffffffffffffffff\n  mul\n  not\n  and\n  swap1\n  dup4\n  0xffffffffffffffffffffffffffffffffffffffff\n  and\n  mul\n  or\n  swap1\n  sstore\n  pop\n    /* \"PrestacaoServicoSeguro.sol\":2179:2190  listaPartes */\n  0x09\n    /* \"PrestacaoServicoSeguro.sol\":2196:2207  _contratado */\n  dup7\n    /* \"PrestacaoServicoSeguro.sol\":2179:2208  listaPartes.push(_contratado) */\n  swap1\n  dup1\n  0x01\n  dup2\n  sload\n  add\n  dup1\n  dup3\n  sstore\n  dup1\n  swap2\n  pop\n  pop\n  0x01\n  swap1\n  sub\n  swap1\n  0x00\n  mstore\n  keccak256(0x00, 0x20)\n  add\n  0x00\n  swap1\n  swap2\n  swap1\n  swap2\n  swap1\n  swap2\n  0x0100\n  exp\n  dup2\n  sload\n  dup2\n  0xffffffffffffffffffffffffffffffffffffffff\n  mul\n  not\n  and\n  swap1\n  dup4\n  0xffffffffffffffffffffffffffffffffffffffff\n  and\n  mul\n  or\n  swap1\n  sstore\n  pop\n    /* \"PrestacaoServicoSeguro.sol\":2219:2230  listaPartes */\n  0x09\n    /* \"PrestacaoServicoSeguro.sol\":2236:2250  _intermediador */\n  dup6\n    /* \"PrestacaoServicoSeguro.sol\":2219:2251  listaPartes.push(_intermediador) */\n  swap1\n  dup1\n  0x01\n  dup2\n  sload\n  add\n  dup1\n  dup3\n  sstore\n  dup1\n  swap2\n  pop\n  pop\n  0x01\n  swap1\n  sub\n  swap1\n  0x00\n  mstore\n  keccak256(0x00, 0x20)\n  add\n  0x00\n  swap1\n  swap2\n  swap1\n  swap2\n  swap1\n  swap2\n  0x0100\n  exp\n  dup2\n  sload\n  dup2\n  0xffffffffffffffffffffffffffffffffffffffff\n  mul\n  not\n  and\n  swap1\n  dup4\n  0xffffffffffffffffffffffffffffffffffffffff\n  and\n  mul\n  or\n  swap1\n  sstore\n  pop\n    /* \"PrestacaoServicoSeguro.sol\":2262:2273  listaPartes */\n  0x09\n    /* \"PrestacaoServicoSeguro.sol\":2279:2288  _advogado */\n  dup5\n    /* \"PrestacaoServicoSeguro.sol\":2262:2289  listaPartes.push(_advogado) */\n  swap1\n  dup1\n  0x01\n  dup2\n  sload\n  add\n  dup1\n  dup3\n  sstore\n  dup1\n  swap2\n  pop\n  pop\n  0x01\n  swap1\n  sub\n  swap1\n  0x00\n  mstore\n  keccak256(0x00, 0x20)\n  add\n  0x00\n  swap1\n  swap2\n  swap1\n  swap2\n  swap1\n  swap2\n  0x0100\n  exp\n  dup2\n  sload\n  dup2\n  0xffffffffffffffffffffffffffffffffffffffff\n  mul\n  not\n  and\n  swap1\n  dup4\n  0xffffffffffffffffffffffffffffffffffffffff\n  and\n  mul\n  or\n  swap1\n  sstore\n  pop\n    /* \"PrestacaoServicoSeguro.sol\":1032:2297  constructor(... */\n  pop\n  pop\n  pop\n  pop\n  pop\n  pop\n  pop\n    /* \"PrestacaoServicoSeguro.sol\":126:6333  contract PrestacaoServicoSeguro is ReentrancyGuard {... */\n  jump(tag_31)\n    /* \"#utility.yul\":7:82   */\ntag_32:\n    /* \"#utility.yul\":40:46   */\n  0x00\n    /* \"#utility.yul\":73:75   */\n  0x40\n    /* \"#utility.yul\":67:76   */\n  mload\n    /* \"#utility.yul\":57:76   */\n  swap1\n  pop\n    /* \"#utility.yul\":7:82   */\n  swap1\n  jump\t// out\n    /* \"#utility.yul\":88:205   */\ntag_33:\n    /* \"#utility.yul\":197:198   */\n  0x00\n    /* \"#utility.yul\":194:195   */\n  0x00\n    /* \"#utility.yul\":187:199   */\n  revert\n    /* \"#utility.yul\":211:328   */\ntag_34:\n    /* \"#utility.yul\":320:321   */\n  0x00\n    /* \"#utility.yul\":317:318   */\n  0x00\n    /* \"#utility.yul\":310:322   */\n  revert\n    /* \"#utility.yul\":334:460   */\ntag_35:\n    /* \"#utility.yul\":371:378   */\n  0x00\n    /* \"#utility.yul\":411:453   */\n  0xffffffffffffffffffffffffffffffffffffffff\n    /* \"#utility.yul\":404:409   */\n  dup3\n    /* \"#utility.yul\":400:454   */\n  and\n    /* \"#utility.yul\":389:454   */\n  swap1\n  pop\n    /* \"#utility.yul\":334:460   */\n  swap2\n  swap1\n  pop\n  jump\t// out\n    /* \"#utility.yul\":466:562   */\ntag_36:\n    /* \"#utility.yul\":503:510   */\n  0x00\n    /* \"#utility.yul\":532:556   */\n  tag_81\n    /* \"#utility.yul\":550:555   */\n  dup3\n    /* \"#utility.yul\":532:556   */\n  tag_35\n  jump\t// in\ntag_81:\n    /* \"#utility.yul\":521:556   */\n  swap1\n  pop\n    /* \"#utility.yul\":466:562   */\n  swap2\n  swap1\n  pop\n  jump\t// out\n    /* \"#utility.yul\":568:690   */\ntag_37:\n    /* \"#utility.yul\":641:665   */\n  tag_83\n    /* \"#utility.yul\":659:664   */\n  dup2\n    /* \"#utility.yul\":641:665   */\n  tag_36\n  jump\t// in\ntag_83:\n    /* \"#utility.yul\":634:639   */\n  dup2\n    /* \"#utility.yul\":631:666   */\n  eq\n    /* \"#utility.yul\":621:684   */\n  tag_84\n  jumpi\n    /* \"#utility.yul\":680:681   */\n  0x00\n    /* \"#utility.yul\":677:678   */\n  0x00\n    /* \"#utility.yul\":670:682   */\n  revert\n    /* \"#utility.yul\":621:684   */\ntag_84:\n    /* \"#utility.yul\":568:690   */\n  pop\n  jump\t// out\n    /* \"#utility.yul\":696:839   */\ntag_38:\n    /* \"#utility.yul\":753:758   */\n  0x00\n    /* \"#utility.yul\":784:790   */\n  dup2\n    /* \"#utility.yul\":778:791   */\n  mload\n    /* \"#utility.yul\":769:791   */\n  swap1\n  pop\n    /* \"#utility.yul\":800:833   */\n  tag_86\n    /* \"#utility.yul\":827:832   */\n  dup2\n    /* \"#utility.yul\":800:833   */\n  tag_37\n  jump\t// in\ntag_86:\n    /* \"#utility.yul\":696:839   */\n  swap3\n  swap2\n  pop\n  pop\n  jump\t// out\n    /* \"#utility.yul\":845:962   */\ntag_39:\n    /* \"#utility.yul\":954:955   */\n  0x00\n    /* \"#utility.yul\":951:952   */\n  0x00\n    /* \"#utility.yul\":944:956   */\n  revert\n    /* \"#utility.yul\":968:1085   */\ntag_40:\n    /* \"#utility.yul\":1077:1078   */\n  0x00\n    /* \"#utility.yul\":1074:1075   */\n  0x00\n    /* \"#utility.yul\":1067:1079   */\n  revert\n    /* \"#utility.yul\":1091:1193   */\ntag_41:\n    /* \"#utility.yul\":1132:1138   */\n  0x00\n    /* \"#utility.yul\":1183:1185   */\n  0x1f\n    /* \"#utility.yul\":1179:1186   */\n  not\n    /* \"#utility.yul\":1174:1176   */\n  0x1f\n    /* \"#utility.yul\":1167:1172   */\n  dup4\n    /* \"#utility.yul\":1163:1177   */\n  add\n    /* \"#utility.yul\":1159:1187   */\n  and\n    /* \"#utility.yul\":1149:1187   */\n  swap1\n  pop\n    /* \"#utility.yul\":1091:1193   */\n  swap2\n  swap1\n  pop\n  jump\t// out\n    /* \"#utility.yul\":1199:1379   */\ntag_42:\n    /* \"#utility.yul\":1247:1324   */\n  0x4e487b7100000000000000000000000000000000000000000000000000000000\n    /* \"#utility.yul\":1244:1245   */\n  0x00\n    /* \"#utility.yul\":1237:1325   */\n  mstore\n    /* \"#utility.yul\":1344:1348   */\n  0x41\n    /* \"#utility.yul\":1341:1342   */\n  0x04\n    /* \"#utility.yul\":1334:1349   */\n  mstore\n    /* \"#utility.yul\":1368:1372   */\n  0x24\n    /* \"#utility.yul\":1365:1366   */\n  0x00\n    /* \"#utility.yul\":1358:1373   */\n  revert\n    /* \"#utility.yul\":1385:1666   */\ntag_43:\n    /* \"#utility.yul\":1468:1495   */\n  tag_92\n    /* \"#utility.yul\":1490:1494   */\n  dup3\n    /* \"#utility.yul\":1468:1495   */\n  tag_41\n  jump\t// in\ntag_92:\n    /* \"#utility.yul\":1460:1466   */\n  dup2\n    /* \"#utility.yul\":1456:1496   */\n  add\n    /* \"#utility.yul\":1598:1604   */\n  dup2\n    /* \"#utility.yul\":1586:1596   */\n  dup2\n    /* \"#utility.yul\":1583:1605   */\n  lt\n    /* \"#utility.yul\":1562:1580   */\n  0xffffffffffffffff\n    /* \"#utility.yul\":1550:1560   */\n  dup3\n    /* \"#utility.yul\":1547:1581   */\n  gt\n    /* \"#utility.yul\":1544:1606   */\n  or\n    /* \"#utility.yul\":1541:1629   */\n  iszero\n  tag_93\n  jumpi\n    /* \"#utility.yul\":1609:1627   */\n  tag_94\n  tag_42\n  jump\t// in\ntag_94:\n    /* \"#utility.yul\":1541:1629   */\ntag_93:\n    /* \"#utility.yul\":1649:1659   */\n  dup1\n    /* \"#utility.yul\":1645:1647   */\n  0x40\n    /* \"#utility.yul\":1638:1660   */\n  mstore\n    /* \"#utility.yul\":1428:1666   */\n  pop\n    /* \"#utility.yul\":1385:1666   */\n  pop\n  pop\n  jump\t// out\n    /* \"#utility.yul\":1672:1801   */\ntag_44:\n    /* \"#utility.yul\":1706:1712   */\n  0x00\n    /* \"#utility.yul\":1733:1753   */\n  tag_96\n  tag_32\n  jump\t// in\ntag_96:\n    /* \"#utility.yul\":1723:1753   */\n  swap1\n  pop\n    /* \"#utility.yul\":1762:1795   */\n  tag_97\n    /* \"#utility.yul\":1790:1794   */\n  dup3\n    /* \"#utility.yul\":1782:1788   */\n  dup3\n    /* \"#utility.yul\":1762:1795   */\n  tag_43\n  jump\t// in\ntag_97:\n    /* \"#utility.yul\":1672:1801   */\n  swap2\n  swap1\n  pop\n  jump\t// out\n    /* \"#utility.yul\":1807:2115   */\ntag_45:\n    /* \"#utility.yul\":1869:1873   */\n  0x00\n    /* \"#utility.yul\":1959:1977   */\n  0xffffffffffffffff\n    /* \"#utility.yul\":1951:1957   */\n  dup3\n    /* \"#utility.yul\":1948:1978   */\n  gt\n    /* \"#utility.yul\":1945:2001   */\n  iszero\n  tag_99\n  jumpi\n    /* \"#utility.yul\":1981:1999   */\n  tag_100\n  tag_42\n  jump\t// in\ntag_100:\n    /* \"#utility.yul\":1945:2001   */\ntag_99:\n    /* \"#utility.yul\":2019:2048   */\n  tag_101\n    /* \"#utility.yul\":2041:2047   */\n  dup3\n    /* \"#utility.yul\":2019:2048   */\n  tag_41\n  jump\t// in\ntag_101:\n    /* \"#utility.yul\":2011:2048   */\n  swap1\n  pop\n    /* \"#utility.yul\":2103:2107   */\n  0x20\n    /* \"#utility.yul\":2097:2101   */\n  dup2\n    /* \"#utility.yul\":2093:2108   */\n  add\n    /* \"#utility.yul\":2085:2108   */\n  swap1\n  pop\n    /* \"#utility.yul\":1807:2115   */\n  swap2\n  swap1\n  pop\n  jump\t// out\n    /* \"#utility.yul\":2121:2260   */\ntag_46:\n    /* \"#utility.yul\":2210:2216   */\n  dup3\n    /* \"#utility.yul\":2205:2208   */\n  dup2\n    /* \"#utility.yul\":2200:2203   */\n  dup4\n    /* \"#utility.yul\":2194:2217   */\n  mcopy\n    /* \"#utility.yul\":2251:2252   */\n  0x00\n    /* \"#utility.yul\":2242:2248   */\n  dup4\n    /* \"#utility.yul\":2237:2240   */\n  dup4\n    /* \"#utility.yul\":2233:2249   */\n  add\n    /* \"#utility.yul\":2226:2253   */\n  mstore\n    /* \"#utility.yul\":2121:2260   */\n  pop\n  pop\n  pop\n  jump\t// out\n    /* \"#utility.yul\":2266:2700   */\ntag_47:\n    /* \"#utility.yul\":2355:2360   */\n  0x00\n    /* \"#utility.yul\":2380:2446   */\n  tag_104\n    /* \"#utility.yul\":2396:2445   */\n  tag_105\n    /* \"#utility.yul\":2438:2444   */\n  dup5\n    /* \"#utility.yul\":2396:2445   */\n  tag_45\n  jump\t// in\ntag_105:\n    /* \"#utility.yul\":2380:2446   */\n  tag_44\n  jump\t// in\ntag_104:\n    /* \"#utility.yul\":2371:2446   */\n  swap1\n  pop\n    /* \"#utility.yul\":2469:2475   */\n  dup3\n    /* \"#utility.yul\":2462:2467   */\n  dup2\n    /* \"#utility.yul\":2455:2476   */\n  mstore\n    /* \"#utility.yul\":2507:2511   */\n  0x20\n    /* \"#utility.yul\":2500:2505   */\n  dup2\n    /* \"#utility.yul\":2496:2512   */\n  add\n    /* \"#utility.yul\":2545:2548   */\n  dup5\n    /* \"#utility.yul\":2536:2542   */\n  dup5\n    /* \"#utility.yul\":2531:2534   */\n  dup5\n    /* \"#utility.yul\":2527:2543   */\n  add\n    /* \"#utility.yul\":2524:2549   */\n  gt\n    /* \"#utility.yul\":2521:2633   */\n  iszero\n  tag_106\n  jumpi\n    /* \"#utility.yul\":2552:2631   */\n  tag_107\n  tag_40\n  jump\t// in\ntag_107:\n    /* \"#utility.yul\":2521:2633   */\ntag_106:\n    /* \"#utility.yul\":2642:2694   */\n  tag_108\n    /* \"#utility.yul\":2687:2693   */\n  dup5\n    /* \"#utility.yul\":2682:2685   */\n  dup3\n    /* \"#utility.yul\":2677:2680   */\n  dup6\n    /* \"#utility.yul\":2642:2694   */\n  tag_46\n  jump\t// in\ntag_108:\n    /* \"#utility.yul\":2361:2700   */\n  pop\n    /* \"#utility.yul\":2266:2700   */\n  swap4\n  swap3\n  pop\n  pop\n  pop\n  jump\t// out\n    /* \"#utility.yul\":2720:3075   */\ntag_48:\n    /* \"#utility.yul\":2787:2792   */\n  0x00\n    /* \"#utility.yul\":2836:2839   */\n  dup3\n    /* \"#utility.yul\":2829:2833   */\n  0x1f\n    /* \"#utility.yul\":2821:2827   */\n  dup4\n    /* \"#utility.yul\":2817:2834   */\n  add\n    /* \"#utility.yul\":2813:2840   */\n  slt\n    /* \"#utility.yul\":2803:2925   */\n  tag_110\n  jumpi\n    /* \"#utility.yul\":2844:2923   */\n  tag_111\n  tag_39\n  jump\t// in\ntag_111:\n    /* \"#utility.yul\":2803:2925   */\ntag_110:\n    /* \"#utility.yul\":2954:2960   */\n  dup2\n    /* \"#utility.yul\":2948:2961   */\n  mload\n    /* \"#utility.yul\":2979:3069   */\n  tag_112\n    /* \"#utility.yul\":3065:3068   */\n  dup5\n    /* \"#utility.yul\":3057:3063   */\n  dup3\n    /* \"#utility.yul\":3050:3054   */\n  0x20\n    /* \"#utility.yul\":3042:3048   */\n  dup7\n    /* \"#utility.yul\":3038:3055   */\n  add\n    /* \"#utility.yul\":2979:3069   */\n  tag_47\n  jump\t// in\ntag_112:\n    /* \"#utility.yul\":2970:3069   */\n  swap2\n  pop\n    /* \"#utility.yul\":2793:3075   */\n  pop\n    /* \"#utility.yul\":2720:3075   */\n  swap3\n  swap2\n  pop\n  pop\n  jump\t// out\n    /* \"#utility.yul\":3081:3158   */\ntag_49:\n    /* \"#utility.yul\":3118:3125   */\n  0x00\n    /* \"#utility.yul\":3147:3152   */\n  dup2\n    /* \"#utility.yul\":3136:3152   */\n  swap1\n  pop\n    /* \"#utility.yul\":3081:3158   */\n  swap2\n  swap1\n  pop\n  jump\t// out\n    /* \"#utility.yul\":3164:3286   */\ntag_50:\n    /* \"#utility.yul\":3237:3261   */\n  tag_115\n    /* \"#utility.yul\":3255:3260   */\n  dup2\n    /* \"#utility.yul\":3237:3261   */\n  tag_49\n  jump\t// in\ntag_115:\n    /* \"#utility.yul\":3230:3235   */\n  dup2\n    /* \"#utility.yul\":3227:3262   */\n  eq\n    /* \"#utility.yul\":3217:3280   */\n  tag_116\n  jumpi\n    /* \"#utility.yul\":3276:3277   */\n  0x00\n    /* \"#utility.yul\":3273:3274   */\n  0x00\n    /* \"#utility.yul\":3266:3278   */\n  revert\n    /* \"#utility.yul\":3217:3280   */\ntag_116:\n    /* \"#utility.yul\":3164:3286   */\n  pop\n  jump\t// out\n    /* \"#utility.yul\":3292:3435   */\ntag_51:\n    /* \"#utility.yul\":3349:3354   */\n  0x00\n    /* \"#utility.yul\":3380:3386   */\n  dup2\n    /* \"#utility.yul\":3374:3387   */\n  mload\n    /* \"#utility.yul\":3365:3387   */\n  swap1\n  pop\n    /* \"#utility.yul\":3396:3429   */\n  tag_118\n    /* \"#utility.yul\":3423:3428   */\n  dup2\n    /* \"#utility.yul\":3396:3429   */\n  tag_50\n  jump\t// in\ntag_118:\n    /* \"#utility.yul\":3292:3435   */\n  swap3\n  swap2\n  pop\n  pop\n  jump\t// out\n    /* \"#utility.yul\":3441:5078   */\ntag_3:\n    /* \"#utility.yul\":3585:3591   */\n  0x00\n    /* \"#utility.yul\":3593:3599   */\n  0x00\n    /* \"#utility.yul\":3601:3607   */\n  0x00\n    /* \"#utility.yul\":3609:3615   */\n  0x00\n    /* \"#utility.yul\":3617:3623   */\n  0x00\n    /* \"#utility.yul\":3625:3631   */\n  0x00\n    /* \"#utility.yul\":3633:3639   */\n  0x00\n    /* \"#utility.yul\":3682:3685   */\n  0xe0\n    /* \"#utility.yul\":3670:3679   */\n  dup9\n    /* \"#utility.yul\":3661:3668   */\n  dup11\n    /* \"#utility.yul\":3657:3680   */\n  sub\n    /* \"#utility.yul\":3653:3686   */\n  slt\n    /* \"#utility.yul\":3650:3770   */\n  iszero\n  tag_120\n  jumpi\n    /* \"#utility.yul\":3689:3768   */\n  tag_121\n  tag_33\n  jump\t// in\ntag_121:\n    /* \"#utility.yul\":3650:3770   */\ntag_120:\n    /* \"#utility.yul\":3809:3810   */\n  0x00\n    /* \"#utility.yul\":3834:3898   */\n  tag_122\n    /* \"#utility.yul\":3890:3897   */\n  dup11\n    /* \"#utility.yul\":3881:3887   */\n  dup3\n    /* \"#utility.yul\":3870:3879   */\n  dup12\n    /* \"#utility.yul\":3866:3888   */\n  add\n    /* \"#utility.yul\":3834:3898   */\n  tag_38\n  jump\t// in\ntag_122:\n    /* \"#utility.yul\":3824:3898   */\n  swap8\n  pop\n    /* \"#utility.yul\":3780:3908   */\n  pop\n    /* \"#utility.yul\":3947:3949   */\n  0x20\n    /* \"#utility.yul\":3973:4037   */\n  tag_123\n    /* \"#utility.yul\":4029:4036   */\n  dup11\n    /* \"#utility.yul\":4020:4026   */\n  dup3\n    /* \"#utility.yul\":4009:4018   */\n  dup12\n    /* \"#utility.yul\":4005:4027   */\n  add\n    /* \"#utility.yul\":3973:4037   */\n  tag_38\n  jump\t// in\ntag_123:\n    /* \"#utility.yul\":3963:4037   */\n  swap7\n  pop\n    /* \"#utility.yul\":3918:4047   */\n  pop\n    /* \"#utility.yul\":4086:4088   */\n  0x40\n    /* \"#utility.yul\":4112:4176   */\n  tag_124\n    /* \"#utility.yul\":4168:4175   */\n  dup11\n    /* \"#utility.yul\":4159:4165   */\n  dup3\n    /* \"#utility.yul\":4148:4157   */\n  dup12\n    /* \"#utility.yul\":4144:4166   */\n  add\n    /* \"#utility.yul\":4112:4176   */\n  tag_38\n  jump\t// in\ntag_124:\n    /* \"#utility.yul\":4102:4176   */\n  swap6\n  pop\n    /* \"#utility.yul\":4057:4186   */\n  pop\n    /* \"#utility.yul\":4225:4227   */\n  0x60\n    /* \"#utility.yul\":4251:4315   */\n  tag_125\n    /* \"#utility.yul\":4307:4314   */\n  dup11\n    /* \"#utility.yul\":4298:4304   */\n  dup3\n    /* \"#utility.yul\":4287:4296   */\n  dup12\n    /* \"#utility.yul\":4283:4305   */\n  add\n    /* \"#utility.yul\":4251:4315   */\n  tag_38\n  jump\t// in\ntag_125:\n    /* \"#utility.yul\":4241:4315   */\n  swap5\n  pop\n    /* \"#utility.yul\":4196:4325   */\n  pop\n    /* \"#utility.yul\":4385:4388   */\n  0x80\n    /* \"#utility.yul\":4374:4383   */\n  dup9\n    /* \"#utility.yul\":4370:4389   */\n  add\n    /* \"#utility.yul\":4364:4390   */\n  mload\n    /* \"#utility.yul\":4417:4435   */\n  0xffffffffffffffff\n    /* \"#utility.yul\":4409:4415   */\n  dup2\n    /* \"#utility.yul\":4406:4436   */\n  gt\n    /* \"#utility.yul\":4403:4520   */\n  iszero\n  tag_126\n  jumpi\n    /* \"#utility.yul\":4439:4518   */\n  tag_127\n  tag_34\n  jump\t// in\ntag_127:\n    /* \"#utility.yul\":4403:4520   */\ntag_126:\n    /* \"#utility.yul\":4544:4618   */\n  tag_128\n    /* \"#utility.yul\":4610:4617   */\n  dup11\n    /* \"#utility.yul\":4601:4607   */\n  dup3\n    /* \"#utility.yul\":4590:4599   */\n  dup12\n    /* \"#utility.yul\":4586:4608   */\n  add\n    /* \"#utility.yul\":4544:4618   */\n  tag_48\n  jump\t// in\ntag_128:\n    /* \"#utility.yul\":4534:4618   */\n  swap4\n  pop\n    /* \"#utility.yul\":4335:4628   */\n  pop\n    /* \"#utility.yul\":4667:4670   */\n  0xa0\n    /* \"#utility.yul\":4694:4758   */\n  tag_129\n    /* \"#utility.yul\":4750:4757   */\n  dup11\n    /* \"#utility.yul\":4741:4747   */\n  dup3\n    /* \"#utility.yul\":4730:4739   */\n  dup12\n    /* \"#utility.yul\":4726:4748   */\n  add\n    /* \"#utility.yul\":4694:4758   */\n  tag_51\n  jump\t// in\ntag_129:\n    /* \"#utility.yul\":4684:4758   */\n  swap3\n  pop\n    /* \"#utility.yul\":4638:4768   */\n  pop\n    /* \"#utility.yul\":4828:4831   */\n  0xc0\n    /* \"#utility.yul\":4817:4826   */\n  dup9\n    /* \"#utility.yul\":4813:4832   */\n  add\n    /* \"#utility.yul\":4807:4833   */\n  mload\n    /* \"#utility.yul\":4860:4878   */\n  0xffffffffffffffff\n    /* \"#utility.yul\":4852:4858   */\n  dup2\n    /* \"#utility.yul\":4849:4879   */\n  gt\n    /* \"#utility.yul\":4846:4963   */\n  iszero\n  tag_130\n  jumpi\n    /* \"#utility.yul\":4882:4961   */\n  tag_131\n  tag_34\n  jump\t// in\ntag_131:\n    /* \"#utility.yul\":4846:4963   */\ntag_130:\n    /* \"#utility.yul\":4987:5061   */\n  tag_132\n    /* \"#utility.yul\":5053:5060   */\n  dup11\n    /* \"#utility.yul\":5044:5050   */\n  dup3\n    /* \"#utility.yul\":5033:5042   */\n  dup12\n    /* \"#utility.yul\":5029:5051   */\n  add\n    /* \"#utility.yul\":4987:5061   */\n  tag_48\n  jump\t// in\ntag_132:\n    /* \"#utility.yul\":4977:5061   */\n  swap2\n  pop\n    /* \"#utility.yul\":4778:5071   */\n  pop\n    /* \"#utility.yul\":3441:5078   */\n  swap3\n  swap6\n  swap9\n  swap2\n  swap5\n  swap8\n  pop\n  swap3\n  swap6\n  pop\n  jump\t// out\n    /* \"#utility.yul\":5084:5253   */\ntag_52:\n    /* \"#utility.yul\":5168:5179   */\n  0x00\n    /* \"#utility.yul\":5202:5208   */\n  dup3\n    /* \"#utility.yul\":5197:5200   */\n  dup3\n    /* \"#utility.yul\":5190:5209   */\n  mstore\n    /* \"#utility.yul\":5242:5246   */\n  0x20\n    /* \"#utility.yul\":5237:5240   */\n  dup3\n    /* \"#utility.yul\":5233:5247   */\n  add\n    /* \"#utility.yul\":5218:5247   */\n  swap1\n  pop\n    /* \"#utility.yul\":5084:5253   */\n  swap3\n  swap2\n  pop\n  pop\n  jump\t// out\n    /* \"#utility.yul\":5259:5428   */\ntag_53:\n    /* \"#utility.yul\":5399:5420   */\n  0x456e64657265636f7320696e76616c69646f7300000000000000000000000000\n    /* \"#utility.yul\":5395:5396   */\n  0x00\n    /* \"#utility.yul\":5387:5393   */\n  dup3\n    /* \"#utility.yul\":5383:5397   */\n  add\n    /* \"#utility.yul\":5376:5421   */\n  mstore\n    /* \"#utility.yul\":5259:5428   */\n  pop\n  jump\t// out\n    /* \"#utility.yul\":5434:5800   */\ntag_54:\n    /* \"#utility.yul\":5576:5579   */\n  0x00\n    /* \"#utility.yul\":5597:5664   */\n  tag_136\n    /* \"#utility.yul\":5661:5663   */\n  0x13\n    /* \"#utility.yul\":5656:5659   */\n  dup4\n    /* \"#utility.yul\":5597:5664   */\n  tag_52\n  jump\t// in\ntag_136:\n    /* \"#utility.yul\":5590:5664   */\n  swap2\n  pop\n    /* \"#utility.yul\":5673:5766   */\n  tag_137\n    /* \"#utility.yul\":5762:5765   */\n  dup3\n    /* \"#utility.yul\":5673:5766   */\n  tag_53\n  jump\t// in\ntag_137:\n    /* \"#utility.yul\":5791:5793   */\n  0x20\n    /* \"#utility.yul\":5786:5789   */\n  dup3\n    /* \"#utility.yul\":5782:5794   */\n  add\n    /* \"#utility.yul\":5775:5794   */\n  swap1\n  pop\n    /* \"#utility.yul\":5434:5800   */\n  swap2\n  swap1\n  pop\n  jump\t// out\n    /* \"#utility.yul\":5806:6225   */\ntag_11:\n    /* \"#utility.yul\":5972:5976   */\n  0x00\n    /* \"#utility.yul\":6010:6012   */\n  0x20\n    /* \"#utility.yul\":5999:6008   */\n  dup3\n    /* \"#utility.yul\":5995:6013   */\n  add\n    /* \"#utility.yul\":5987:6013   */\n  swap1\n  pop\n    /* \"#utility.yul\":6059:6068   */\n  dup2\n    /* \"#utility.yul\":6053:6057   */\n  dup2\n    /* \"#utility.yul\":6049:6069   */\n  sub\n    /* \"#utility.yul\":6045:6046   */\n  0x00\n    /* \"#utility.yul\":6034:6043   */\n  dup4\n    /* \"#utility.yul\":6030:6047   */\n  add\n    /* \"#utility.yul\":6023:6070   */\n  mstore\n    /* \"#utility.yul\":6087:6218   */\n  tag_139\n    /* \"#utility.yul\":6213:6217   */\n  dup2\n    /* \"#utility.yul\":6087:6218   */\n  tag_54\n  jump\t// in\ntag_139:\n    /* \"#utility.yul\":6079:6218   */\n  swap1\n  pop\n    /* \"#utility.yul\":5806:6225   */\n  swap2\n  swap1\n  pop\n  jump\t// out\n    /* \"#utility.yul\":6231:6401   */\ntag_55:\n    /* \"#utility.yul\":6371:6393   */\n  0x4164766f6761646f206f6272696761746f72696f000000000000000000000000\n    /* \"#utility.yul\":6367:6368   */\n  0x00\n    /* \"#utility.yul\":6359:6365   */\n  dup3\n    /* \"#utility.yul\":6355:6369   */\n  add\n    /* \"#utility.yul\":6348:6394   */\n  mstore\n    /* \"#utility.yul\":6231:6401   */\n  pop\n  jump\t// out\n    /* \"#utility.yul\":6407:6773   */\ntag_56:\n    /* \"#utility.yul\":6549:6552   */\n  0x00\n    /* \"#utility.yul\":6570:6637   */\n  tag_142\n    /* \"#utility.yul\":6634:6636   */\n  0x14\n    /* \"#utility.yul\":6629:6632   */\n  dup4\n    /* \"#utility.yul\":6570:6637   */\n  tag_52\n  jump\t// in\ntag_142:\n    /* \"#utility.yul\":6563:6637   */\n  swap2\n  pop\n    /* \"#utility.yul\":6646:6739   */\n  tag_143\n    /* \"#utility.yul\":6735:6738   */\n  dup3\n    /* \"#utility.yul\":6646:6739   */\n  tag_55\n  jump\t// in\ntag_143:\n    /* \"#utility.yul\":6764:6766   */\n  0x20\n    /* \"#utility.yul\":6759:6762   */\n  dup3\n    /* \"#utility.yul\":6755:6767   */\n  add\n    /* \"#utility.yul\":6748:6767   */\n  swap1\n  pop\n    /* \"#utility.yul\":6407:6773   */\n  swap2\n  swap1\n  pop\n  jump\t// out\n    /* \"#utility.yul\":6779:7198   */\ntag_14:\n    /* \"#utility.yul\":6945:6949   */\n  0x00\n    /* \"#utility.yul\":6983:6985   */\n  0x20\n    /* \"#utility.yul\":6972:6981   */\n  dup3\n    /* \"#utility.yul\":6968:6986   */\n  add\n    /* \"#utility.yul\":6960:6986   */\n  swap1\n  pop\n    /* \"#utility.yul\":7032:7041   */\n  dup2\n    /* \"#utility.yul\":7026:7030   */\n  dup2\n    /* \"#utility.yul\":7022:7042   */\n  sub\n    /* \"#utility.yul\":7018:7019   */\n  0x00\n    /* \"#utility.yul\":7007:7016   */\n  dup4\n    /* \"#utility.yul\":7003:7020   */\n  add\n    /* \"#utility.yul\":6996:7043   */\n  mstore\n    /* \"#utility.yul\":7060:7191   */\n  tag_145\n    /* \"#utility.yul\":7186:7190   */\n  dup2\n    /* \"#utility.yul\":7060:7191   */\n  tag_56\n  jump\t// in\ntag_145:\n    /* \"#utility.yul\":7052:7191   */\n  swap1\n  pop\n    /* \"#utility.yul\":6779:7198   */\n  swap2\n  swap1\n  pop\n  jump\t// out\n    /* \"#utility.yul\":7204:7384   */\ntag_17:\n    /* \"#utility.yul\":7252:7329   */\n  0x4e487b7100000000000000000000000000000000000000000000000000000000\n    /* \"#utility.yul\":7249:7250   */\n  0x00\n    /* \"#utility.yul\":7242:7330   */\n  mstore\n    /* \"#utility.yul\":7349:7353   */\n  0x21\n    /* \"#utility.yul\":7346:7347   */\n  0x04\n    /* \"#utility.yul\":7339:7354   */\n  mstore\n    /* \"#utility.yul\":7373:7377   */\n  0x24\n    /* \"#utility.yul\":7370:7371   */\n  0x00\n    /* \"#utility.yul\":7363:7378   */\n  revert\n    /* \"#utility.yul\":7390:7489   */\ntag_57:\n    /* \"#utility.yul\":7442:7448   */\n  0x00\n    /* \"#utility.yul\":7476:7481   */\n  dup2\n    /* \"#utility.yul\":7470:7482   */\n  mload\n    /* \"#utility.yul\":7460:7482   */\n  swap1\n  pop\n    /* \"#utility.yul\":7390:7489   */\n  swap2\n  swap1\n  pop\n  jump\t// out\n    /* \"#utility.yul\":7495:7675   */\ntag_58:\n    /* \"#utility.yul\":7543:7620   */\n  0x4e487b7100000000000000000000000000000000000000000000000000000000\n    /* \"#utility.yul\":7540:7541   */\n  0x00\n    /* \"#utility.yul\":7533:7621   */\n  mstore\n    /* \"#utility.yul\":7640:7644   */\n  0x22\n    /* \"#utility.yul\":7637:7638   */\n  0x04\n    /* \"#utility.yul\":7630:7645   */\n  mstore\n    /* \"#utility.yul\":7664:7668   */\n  0x24\n    /* \"#utility.yul\":7661:7662   */\n  0x00\n    /* \"#utility.yul\":7654:7669   */\n  revert\n    /* \"#utility.yul\":7681:8001   */\ntag_59:\n    /* \"#utility.yul\":7725:7731   */\n  0x00\n    /* \"#utility.yul\":7762:7763   */\n  0x02\n    /* \"#utility.yul\":7756:7760   */\n  dup3\n    /* \"#utility.yul\":7752:7764   */\n  div\n    /* \"#utility.yul\":7742:7764   */\n  swap1\n  pop\n    /* \"#utility.yul\":7809:7810   */\n  0x01\n    /* \"#utility.yul\":7803:7807   */\n  dup3\n    /* \"#utility.yul\":7799:7811   */\n  and\n    /* \"#utility.yul\":7830:7848   */\n  dup1\n    /* \"#utility.yul\":7820:7901   */\n  tag_150\n  jumpi\n    /* \"#utility.yul\":7886:7890   */\n  0x7f\n    /* \"#utility.yul\":7878:7884   */\n  dup3\n    /* \"#utility.yul\":7874:7891   */\n  and\n    /* \"#utility.yul\":7864:7891   */\n  swap2\n  pop\n    /* \"#utility.yul\":7820:7901   */\ntag_150:\n    /* \"#utility.yul\":7948:7950   */\n  0x20\n    /* \"#utility.yul\":7940:7946   */\n  dup3\n    /* \"#utility.yul\":7937:7951   */\n  lt\n    /* \"#utility.yul\":7917:7935   */\n  dup2\n    /* \"#utility.yul\":7914:7952   */\n  sub\n    /* \"#utility.yul\":7911:7995   */\n  tag_151\n  jumpi\n    /* \"#utility.yul\":7967:7985   */\n  tag_152\n  tag_58\n  jump\t// in\ntag_152:\n    /* \"#utility.yul\":7911:7995   */\ntag_151:\n    /* \"#utility.yul\":7732:8001   */\n  pop\n    /* \"#utility.yul\":7681:8001   */\n  swap2\n  swap1\n  pop\n  jump\t// out\n    /* \"#utility.yul\":8007:8148   */\ntag_60:\n    /* \"#utility.yul\":8056:8060   */\n  0x00\n    /* \"#utility.yul\":8079:8082   */\n  dup2\n    /* \"#utility.yul\":8071:8082   */\n  swap1\n  pop\n    /* \"#utility.yul\":8102:8105   */\n  dup2\n    /* \"#utility.yul\":8099:8100   */\n  0x00\n    /* \"#utility.yul\":8092:8106   */\n  mstore\n    /* \"#utility.yul\":8136:8140   */\n  0x20\n    /* \"#utility.yul\":8133:8134   */\n  0x00\n    /* \"#utility.yul\":8123:8141   */\n  keccak256\n    /* \"#utility.yul\":8115:8141   */\n  swap1\n  pop\n    /* \"#utility.yul\":8007:8148   */\n  swap2\n  swap1\n  pop\n  jump\t// out\n    /* \"#utility.yul\":8154:8247   */\ntag_61:\n    /* \"#utility.yul\":8191:8197   */\n  0x00\n    /* \"#utility.yul\":8238:8240   */\n  0x20\n    /* \"#utility.yul\":8233:8235   */\n  0x1f\n    /* \"#utility.yul\":8226:8231   */\n  dup4\n    /* \"#utility.yul\":8222:8236   */\n  add\n    /* \"#utility.yul\":8218:8241   */\n  div\n    /* \"#utility.yul\":8208:8241   */\n  swap1\n  pop\n    /* \"#utility.yul\":8154:8247   */\n  swap2\n  swap1\n  pop\n  jump\t// out\n    /* \"#utility.yul\":8253:8360   */\ntag_62:\n    /* \"#utility.yul\":8297:8305   */\n  0x00\n    /* \"#utility.yul\":8347:8352   */\n  dup3\n    /* \"#utility.yul\":8341:8345   */\n  dup3\n    /* \"#utility.yul\":8337:8353   */\n  shl\n    /* \"#utility.yul\":8316:8353   */\n  swap1\n  pop\n    /* \"#utility.yul\":8253:8360   */\n  swap3\n  swap2\n  pop\n  pop\n  jump\t// out\n    /* \"#utility.yul\":8366:8759   */\ntag_63:\n    /* \"#utility.yul\":8435:8441   */\n  0x00\n    /* \"#utility.yul\":8485:8486   */\n  0x08\n    /* \"#utility.yul\":8473:8483   */\n  dup4\n    /* \"#utility.yul\":8469:8487   */\n  mul\n    /* \"#utility.yul\":8508:8605   */\n  tag_157\n    /* \"#utility.yul\":8538:8604   */\n  0xffffffffffffffffffffffffffffffffffffffffffffffffffffffffffffffff\n    /* \"#utility.yul\":8527:8536   */\n  dup3\n    /* \"#utility.yul\":8508:8605   */\n  tag_62\n  jump\t// in\ntag_157:\n    /* \"#utility.yul\":8626:8665   */\n  tag_158\n    /* \"#utility.yul\":8656:8664   */\n  dup7\n    /* \"#utility.yul\":8645:8654   */\n  dup4\n    /* \"#utility.yul\":8626:8665   */\n  tag_62\n  jump\t// in\ntag_158:\n    /* \"#utility.yul\":8614:8665   */\n  swap6\n  pop\n    /* \"#utility.yul\":8698:8702   */\n  dup1\n    /* \"#utility.yul\":8694:8703   */\n  not\n    /* \"#utility.yul\":8687:8692   */\n  dup5\n    /* \"#utility.yul\":8683:8704   */\n  and\n    /* \"#utility.yul\":8674:8704   */\n  swap4\n  pop\n    /* \"#utility.yul\":8747:8751   */\n  dup1\n    /* \"#utility.yul\":8737:8745   */\n  dup7\n    /* \"#utility.yul\":8733:8752   */\n  and\n    /* \"#utility.yul\":8726:8731   */\n  dup5\n    /* \"#utility.yul\":8723:8753   */\n  or\n    /* \"#utility.yul\":8713:8753   */\n  swap3\n  pop\n    /* \"#utility.yul\":8442:8759   */\n  pop\n  pop\n    /* \"#utility.yul\":8366:8759   */\n  swap4\n  swap3\n  pop\n  pop\n  pop\n  jump\t// out\n    /* \"#utility.yul\":8765:8825   */\ntag_64:\n    /* \"#utility.yul\":8793:8796   */\n  0x00\n    /* \"#utility.yul\":8814:8819   */\n  dup2\n    /* \"#utility.yul\":8807:8819   */\n  swap1\n  pop\n    /* \"#utility.yul\":8765:8825   */\n  swap2\n  swap1\n  pop\n  jump\t// out\n    /* \"#utility.yul\":8831:8973   */\ntag_65:\n    /* \"#utility.yul\":8881:8890   */\n  0x00\n    /* \"#utility.yul\":8914:8967   */\n  tag_161\n    /* \"#utility.yul\":8932:8966   */\n  tag_162\n    /* \"#utility.yul\":8941:8965   */\n  tag_163\n    /* \"#utility.yul\":8959:8964   */\n  dup5\n    /* \"#utility.yul\":8941:8965   */\n  tag_49\n  jump\t// in\ntag_163:\n    /* \"#utility.yul\":8932:8966   */\n  tag_64\n  jump\t// in\ntag_162:\n    /* \"#utility.yul\":8914:8967   */\n  tag_49\n  jump\t// in\ntag_161:\n    /* \"#utility.yul\":8901:8967   */\n  swap1\n  pop\n    /* \"#utility.yul\":8831:8973   */\n  swap2\n  swap1\n  pop\n  jump\t// out\n    /* \"#utility.yul\":8979:9054   */\ntag_66:\n    /* \"#utility.yul\":9022:9025   */\n  0x00\n    /* \"#utility.yul\":9043:9048   */\n  dup2\n    /* \"#utility.yul\":9036:9048   */\n  swap1\n  pop\n    /* \"#utility.yul\":8979:9054   */\n  swap2\n  swap1\n  pop\n  jump\t// out\n    /* \"#utility.yul\":9060:9329   */\ntag_67:\n    /* \"#utility.yul\":9170:9209   */\n  tag_166\n    /* \"#utility.yul\":9201:9208   */\n  dup4\n    /* \"#utility.yul\":9170:9209   */\n  tag_65\n  jump\t// in\ntag_166:\n    /* \"#utility.yul\":9231:9322   */\n  tag_167\n    /* \"#utility.yul\":9280:9321   */\n  tag_168\n    /* \"#utility.yul\":9304:9320   */\n  dup3\n    /* \"#utility.yul\":9280:9321   */\n  tag_66\n  jump\t// in\ntag_168:\n    /* \"#utility.yul\":9272:9278   */\n  dup5\n    /* \"#utility.yul\":9265:9269   */\n  dup5\n    /* \"#utility.yul\":9259:9270   */\n  sload\n    /* \"#utility.yul\":9231:9322   */\n  tag_63\n  jump\t// in\ntag_167:\n    /* \"#utility.yul\":9225:9229   */\n  dup3\n    /* \"#utility.yul\":9218:9323   */\n  sstore\n    /* \"#utility.yul\":9136:9329   */\n  pop\n    /* \"#utility.yul\":9060:9329   */\n  pop\n  pop\n  pop\n  jump\t// out\n    /* \"#utility.yul\":9335:9408   */\ntag_68:\n    /* \"#utility.yul\":9380:9383   */\n  0x00\n    /* \"#utility.yul\":9401:9402   */\n  0x00\n    /* \"#utility.yul\":9394:9402   */\n  swap1\n  pop\n    /* \"#utility.yul\":9335:9408   */\n  swap1\n  jump\t// out\n    /* \"#utility.yul\":9414:9603   */\ntag_69:\n    /* \"#utility.yul\":9491:9523   */\n  tag_171\n  tag_68\n  jump\t// in\ntag_171:\n    /* \"#utility.yul\":9532:9597   */\n  tag_172\n    /* \"#utility.yul\":9590:9596   */\n  dup2\n    /* \"#utility.yul\":9582:9588   */\n  dup5\n    /* \"#utility.yul\":9576:9580   */\n  dup5\n    /* \"#utility.yul\":9532:9597   */\n  tag_67\n  jump\t// in\ntag_172:\n    /* \"#utility.yul\":9467:9603   */\n  pop\n    /* \"#utility.yul\":9414:9603   */\n  pop\n  pop\n  jump\t// out\n    /* \"#utility.yul\":9609:9795   */\ntag_70:\n    /* \"#utility.yul\":9669:9789   */\ntag_174:\n    /* \"#utility.yul\":9686:9689   */\n  dup2\n    /* \"#utility.yul\":9679:9684   */\n  dup2\n    /* \"#utility.yul\":9676:9690   */\n  lt\n    /* \"#utility.yul\":9669:9789   */\n  iszero\n  tag_176\n  jumpi\n    /* \"#utility.yul\":9740:9779   */\n  tag_177\n    /* \"#utility.yul\":9777:9778   */\n  0x00\n    /* \"#utility.yul\":9770:9775   */\n  dup3\n    /* \"#utility.yul\":9740:9779   */\n  tag_69\n  jump\t// in\ntag_177:\n    /* \"#utility.yul\":9713:9714   */\n  0x01\n    /* \"#utility.yul\":9706:9711   */\n  dup2\n    /* \"#utility.yul\":9702:9715   */\n  add\n    /* \"#utility.yul\":9693:9715   */\n  swap1\n  pop\n    /* \"#utility.yul\":9669:9789   */\n  jump(tag_174)\ntag_176:\n    /* \"#utility.yul\":9609:9795   */\n  pop\n  pop\n  jump\t// out\n    /* \"#utility.yul\":9801:10344   */\ntag_71:\n    /* \"#utility.yul\":9902:9904   */\n  0x1f\n    /* \"#utility.yul\":9897:9900   */\n  dup3\n    /* \"#utility.yul\":9894:9905   */\n  gt\n    /* \"#utility.yul\":9891:10337   */\n  iszero\n  tag_179\n  jumpi\n    /* \"#utility.yul\":9936:9974   */\n  tag_180\n    /* \"#utility.yul\":9968:9973   */\n  dup2\n    /* \"#utility.yul\":9936:9974   */\n  tag_60\n  jump\t// in\ntag_180:\n    /* \"#utility.yul\":10020:10049   */\n  tag_181\n    /* \"#utility.yul\":10038:10048   */\n  dup5\n    /* \"#utility.yul\":10020:10049   */\n  tag_61\n  jump\t// in\ntag_181:\n    /* \"#utility.yul\":10010:10018   */\n  dup2\n    /* \"#utility.yul\":10006:10050   */\n  add\n    /* \"#utility.yul\":10203:10205   */\n  0x20\n    /* \"#utility.yul\":10191:10201   */\n  dup6\n    /* \"#utility.yul\":10188:10206   */\n  lt\n    /* \"#utility.yul\":10185:10234   */\n  iszero\n  tag_182\n  jumpi\n    /* \"#utility.yul\":10224:10232   */\n  dup2\n    /* \"#utility.yul\":10209:10232   */\n  swap1\n  pop\n    /* \"#utility.yul\":10185:10234   */\ntag_182:\n    /* \"#utility.yul\":10247:10327   */\n  tag_183\n    /* \"#utility.yul\":10303:10325   */\n  tag_184\n    /* \"#utility.yul\":10321:10324   */\n  dup6\n    /* \"#utility.yul\":10303:10325   */\n  tag_61\n  jump\t// in\ntag_184:\n    /* \"#utility.yul\":10293:10301   */\n  dup4\n    /* \"#utility.yul\":10289:10326   */\n  add\n    /* \"#utility.yul\":10276:10287   */\n  dup3\n    /* \"#utility.yul\":10247:10327   */\n  tag_70\n  jump\t// in\ntag_183:\n    /* \"#utility.yul\":9906:10337   */\n  pop\n  pop\n    /* \"#utility.yul\":9891:10337   */\ntag_179:\n    /* \"#utility.yul\":9801:10344   */\n  pop\n  pop\n  pop\n  jump\t// out\n    /* \"#utility.yul\":10350:10467   */\ntag_72:\n    /* \"#utility.yul\":10404:10412   */\n  0x00\n    /* \"#utility.yul\":10454:10459   */\n  dup3\n    /* \"#utility.yul\":10448:10452   */\n  dup3\n    /* \"#utility.yul\":10444:10460   */\n  shr\n    /* \"#utility.yul\":10423:10460   */\n  swap1\n  pop\n    /* \"#utility.yul\":10350:10467   */\n  swap3\n  swap2\n  pop\n  pop\n  jump\t// out\n    /* \"#utility.yul\":10473:10642   */\ntag_73:\n    /* \"#utility.yul\":10517:10523   */\n  0x00\n    /* \"#utility.yul\":10550:10601   */\n  tag_187\n    /* \"#utility.yul\":10598:10599   */\n  0x00\n    /* \"#utility.yul\":10594:10600   */\n  not\n    /* \"#utility.yul\":10586:10591   */\n  dup5\n    /* \"#utility.yul\":10583:10584   */\n  0x08\n    /* \"#utility.yul\":10579:10592   */\n  mul\n    /* \"#utility.yul\":10550:10601   */\n  tag_72\n  jump\t// in\ntag_187:\n    /* \"#utility.yul\":10546:10602   */\n  not\n    /* \"#utility.yul\":10631:10635   */\n  dup1\n    /* \"#utility.yul\":10625:10629   */\n  dup4\n    /* \"#utility.yul\":10621:10636   */\n  and\n    /* \"#utility.yul\":10611:10636   */\n  swap2\n  pop\n    /* \"#utility.yul\":10524:10642   */\n  pop\n    /* \"#utility.yul\":10473:10642   */\n  swap3\n  swap2\n  pop\n  pop\n  jump\t// out\n    /* \"#utility.yul\":10647:10942   */\ntag_74:\n    /* \"#utility.yul\":10723:10727   */\n  0x00\n    /* \"#utility.yul\":10869:10898   */\n  tag_189\n    /* \"#utility.yul\":10894:10897   */\n  dup4\n    /* \"#utility.yul\":10888:10892   */\n  dup4\n    /* \"#utility.yul\":10869:10898   */\n  tag_73\n  jump\t// in\ntag_189:\n    /* \"#utility.yul\":10861:10898   */\n  swap2\n  pop\n    /* \"#utility.yul\":10931:10934   */\n  dup3\n    /* \"#utility.yul\":10928:10929   */\n  0x02\n    /* \"#utility.yul\":10924:10935   */\n  mul\n    /* \"#utility.yul\":10918:10922   */\n  dup3\n    /* \"#utility.yul\":10915:10936   */\n  or\n    /* \"#utility.yul\":10907:10936   */\n  swap1\n  pop\n    /* \"#utility.yul\":10647:10942   */\n  swap3\n  swap2\n  pop\n  pop\n  jump\t// out\n    /* \"#utility.yul\":10947:12342   */\ntag_19:\n    /* \"#utility.yul\":11064:11101   */\n  tag_191\n    /* \"#utility.yul\":11097:11100   */\n  dup3\n    /* \"#utility.yul\":11064:11101   */\n  tag_57\n  jump\t// in\ntag_191:\n    /* \"#utility.yul\":11166:11184   */\n  0xffffffffffffffff\n    /* \"#utility.yul\":11158:11164   */\n  dup2\n    /* \"#utility.yul\":11155:11185   */\n  gt\n    /* \"#utility.yul\":11152:11208   */\n  iszero\n  tag_192\n  jumpi\n    /* \"#utility.yul\":11188:11206   */\n  tag_193\n  tag_42\n  jump\t// in\ntag_193:\n    /* \"#utility.yul\":11152:11208   */\ntag_192:\n    /* \"#utility.yul\":11232:11270   */\n  tag_194\n    /* \"#utility.yul\":11264:11268   */\n  dup3\n    /* \"#utility.yul\":11258:11269   */\n  sload\n    /* \"#utility.yul\":11232:11270   */\n  tag_59\n  jump\t// in\ntag_194:\n    /* \"#utility.yul\":11317:11384   */\n  tag_195\n    /* \"#utility.yul\":11377:11383   */\n  dup3\n    /* \"#utility.yul\":11369:11375   */\n  dup3\n    /* \"#utility.yul\":11363:11367   */\n  dup6\n    /* \"#utility.yul\":11317:11384   */\n  tag_71\n  jump\t// in\ntag_195:\n    /* \"#utility.yul\":11411:11412   */\n  0x00\n    /* \"#utility.yul\":11435:11439   */\n  0x20\n    /* \"#utility.yul\":11422:11439   */\n  swap1\n  pop\n    /* \"#utility.yul\":11467:11469   */\n  0x1f\n    /* \"#utility.yul\":11459:11465   */\n  dup4\n    /* \"#utility.yul\":11456:11470   */\n  gt\n    /* \"#utility.yul\":11484:11485   */\n  0x01\n    /* \"#utility.yul\":11479:12097   */\n  dup2\n  eq\n  tag_197\n  jumpi\n    /* \"#utility.yul\":12141:12142   */\n  0x00\n    /* \"#utility.yul\":12158:12164   */\n  dup5\n    /* \"#utility.yul\":12155:12232   */\n  iszero\n  tag_198\n  jumpi\n    /* \"#utility.yul\":12207:12216   */\n  dup3\n    /* \"#utility.yul\":12202:12205   */\n  dup8\n    /* \"#utility.yul\":12198:12217   */\n  add\n    /* \"#utility.yul\":12192:12218   */\n  mload\n    /* \"#utility.yul\":12183:12218   */\n  swap1\n  pop\n    /* \"#utility.yul\":12155:12232   */\ntag_198:\n    /* \"#utility.yul\":12258:12325   */\n  tag_199\n    /* \"#utility.yul\":12318:12324   */\n  dup6\n    /* \"#utility.yul\":12311:12316   */\n  dup3\n    /* \"#utility.yul\":12258:12325   */\n  tag_74\n  jump\t// in\ntag_199:\n    /* \"#utility.yul\":12252:12256   */\n  dup7\n    /* \"#utility.yul\":12245:12326   */\n  sstore\n    /* \"#utility.yul\":12114:12336   */\n  pop\n    /* \"#utility.yul\":11449:12336   */\n  jump(tag_196)\n    /* \"#utility.yul\":11479:12097   */\ntag_197:\n    /* \"#utility.yul\":11531:11535   */\n  0x1f\n    /* \"#utility.yul\":11527:11536   */\n  not\n    /* \"#utility.yul\":11519:11525   */\n  dup5\n    /* \"#utility.yul\":11515:11537   */\n  and\n    /* \"#utility.yul\":11565:11602   */\n  tag_200\n    /* \"#utility.yul\":11597:11601   */\n  dup7\n    /* \"#utility.yul\":11565:11602   */\n  tag_60\n  jump\t// in\ntag_200:\n    /* \"#utility.yul\":11624:11625   */\n  0x00\n    /* \"#utility.yul\":11638:11846   */\ntag_201:\n    /* \"#utility.yul\":11652:11659   */\n  dup3\n    /* \"#utility.yul\":11649:11650   */\n  dup2\n    /* \"#utility.yul\":11646:11660   */\n  lt\n    /* \"#utility.yul\":11638:11846   */\n  iszero\n  tag_203\n  jumpi\n    /* \"#utility.yul\":11731:11740   */\n  dup5\n    /* \"#utility.yul\":11726:11729   */\n  dup10\n    /* \"#utility.yul\":11722:11741   */\n  add\n    /* \"#utility.yul\":11716:11742   */\n  mload\n    /* \"#utility.yul\":11708:11714   */\n  dup3\n    /* \"#utility.yul\":11701:11743   */\n  sstore\n    /* \"#utility.yul\":11782:11783   */\n  0x01\n    /* \"#utility.yul\":11774:11780   */\n  dup3\n    /* \"#utility.yul\":11770:11784   */\n  add\n    /* \"#utility.yul\":11760:11784   */\n  swap2\n  pop\n    /* \"#utility.yul\":11829:11831   */\n  0x20\n    /* \"#utility.yul\":11818:11827   */\n  dup6\n    /* \"#utility.yul\":11814:11832   */\n  add\n    /* \"#utility.yul\":11801:11832   */\n  swap5\n  pop\n    /* \"#utility.yul\":11675:11679   */\n  0x20\n    /* \"#utility.yul\":11672:11673   */\n  dup2\n    /* \"#utility.yul\":11668:11680   */\n  add\n    /* \"#utility.yul\":11663:11680   */\n  swap1\n  pop\n    /* \"#utility.yul\":11638:11846   */\n  jump(tag_201)\ntag_203:\n    /* \"#utility.yul\":11874:11880   */\n  dup7\n    /* \"#utility.yul\":11865:11872   */\n  dup4\n    /* \"#utility.yul\":11862:11881   */\n  lt\n    /* \"#utility.yul\":11859:12038   */\n  iszero\n  tag_204\n  jumpi\n    /* \"#utility.yul\":11932:11941   */\n  dup5\n    /* \"#utility.yul\":11927:11930   */\n  dup10\n    /* \"#utility.yul\":11923:11942   */\n  add\n    /* \"#utility.yul\":11917:11943   */\n  mload\n    /* \"#utility.yul\":11975:12023   */\n  tag_205\n    /* \"#utility.yul\":12017:12021   */\n  0x1f\n    /* \"#utility.yul\":12009:12015   */\n  dup10\n    /* \"#utility.yul\":12005:12022   */\n  and\n    /* \"#utility.yul\":11994:12003   */\n  dup3\n    /* \"#utility.yul\":11975:12023   */\n  tag_73\n  jump\t// in\ntag_205:\n    /* \"#utility.yul\":11967:11973   */\n  dup4\n    /* \"#utility.yul\":11960:12024   */\n  sstore\n    /* \"#utility.yul\":11882:12038   */\n  pop\n    /* \"#utility.yul\":11859:12038   */\ntag_204:\n    /* \"#utility.yul\":12084:12085   */\n  0x01\n    /* \"#utility.yul\":12080:12081   */\n  0x02\n    /* \"#utility.yul\":12072:12078   */\n  dup9\n    /* \"#utility.yul\":12068:12082   */\n  mul\n    /* \"#utility.yul\":12064:12086   */\n  add\n    /* \"#utility.yul\":12058:12062   */\n  dup9\n    /* \"#utility.yul\":12051:12087   */\n  sstore\n    /* \"#utility.yul\":11486:12097   */\n  pop\n  pop\n  pop\n    /* \"#utility.yul\":11449:12336   */\ntag_196:\n  pop\n    /* \"#utility.yul\":11039:12342   */\n  pop\n  pop\n  pop\n    /* \"#utility.yul\":10947:12342   */\n  pop\n  pop\n  jump\t// out\n    /* \"PrestacaoServicoSeguro.sol\":126:6333  contract PrestacaoServicoSeguro is ReentrancyGuard {... */\ntag_31:\n  dataSize(sub_0)\n  dup1\n  dataOffset(sub_0)\n  0x00\n  codecopy\n  0x00\n  return\nstop\n\nsub_0: assembly {\n        /* \"PrestacaoServicoSeguro.sol\":126:6333  contract PrestacaoServicoSeguro is ReentrancyGuard {... */\n      mstore(0x40, 0x80)\n      jumpi(tag_1, lt(calldatasize, 0x04))\n      shr(0xe0, calldataload(0x00))\n      dup1\n      0xbb7211cf\n      gt\n      tag_22\n      jumpi\n      dup1\n      0xe427938f\n      gt\n      tag_23\n      jumpi\n      dup1\n      0xe427938f\n      eq\n      tag_17\n      jumpi\n      dup1\n      0xe4a25b38\n      eq\n      tag_18\n      jumpi\n      dup1\n      0xeaf1cdfc\n      eq\n      tag_19\n      jumpi\n      dup1\n      0xf3e4896a\n      eq\n      tag_20\n      jumpi\n      dup1\n      0xfb3d968c\n      eq\n      tag_21\n      jumpi\n      jump(tag_1)\n    tag_23:\n      dup1\n      0xbb7211cf\n      eq\n      tag_12\n      jumpi\n      dup1\n      0xbcff9e23\n      eq\n      tag_13\n      jumpi\n      dup1\n      0xc598bddf\n      eq\n      tag_14\n      jumpi\n      dup1\n      0xd2fdb0ee\n      eq\n      tag_15\n      jumpi\n      dup1\n      0xdcb82783\n      eq\n      tag_16\n      jumpi\n      jump(tag_1)\n    tag_22:\n      dup1\n      0x5ea3ddc2\n      gt\n      tag_24\n      jumpi\n      dup1\n      0x5ea3ddc2\n      eq\n      tag_7\n      jumpi\n      dup1\n      0x79754129\n      eq\n      tag_8\n      jumpi\n      dup1\n      0x815085d9\n      eq\n      tag_9\n      jumpi\n      dup1\n      0x8bb5db74\n      eq\n      tag_10\n      jumpi\n      dup1\n      0x96b2176d\n      eq\n      tag_11\n      jumpi\n      jump(tag_1)\n    tag_24:\n      dup1\n      0x0d23ce1a\n      eq\n      tag_2\n      jumpi\n      dup1\n      0x1224addd\n      eq\n      tag_3\n      jumpi\n      dup1\n      0x2d22fd0b\n      eq\n      tag_4\n      jumpi\n      dup1\n      0x35c752af\n      eq\n      tag_5\n      jumpi\n      dup1\n      0x57d46729\n      eq\n      tag_6\n      jumpi\n    tag_1:\n      revert(0x00, 0x00)\n        /* \"PrestacaoServicoSeguro.sol\":2870:3071  function aceitarContrato() public apenasParte {... */\n    tag_2:\n      callvalue\n      dup1\n      iszero\n      tag_25\n      jumpi\n      revert(0x00, 0x00)\n    tag_25:\n      pop\n      tag_26\n      tag_27\n      jump\t// in\n    tag_26:\n      stop\n        /* \"PrestacaoServicoSeguro.sol\":3079:3361  function iniciarServico() public {... */\n    tag_3:\n      callvalue\n      dup1\n      iszero\n      tag_28\n      jumpi\n      revert(0x00, 0x00)\n    tag_28:\n      pop\n      tag_29\n      tag_30\n      jump\t// in\n    tag_29:\n      stop\n        /* \"PrestacaoServicoSeguro.sol\":3846:4284  function pagarServico() public payable nonReentrant apenasContratante {... */\n    tag_4:\n      tag_31\n      tag_32\n      jump\t// in\n    tag_31:\n      stop\n        /* \"PrestacaoServicoSeguro.sol\":5689:5812  function isReconhecidoJuridicamente() public view returns (bool) {... */\n    tag_5:\n      callvalue\n      dup1\n      iszero\n      tag_33\n      jumpi\n      revert(0x00, 0x00)\n    tag_33:\n      pop\n      tag_34\n      tag_35\n      jump\t// in\n    tag_34:\n      mload(0x40)\n      tag_36\n      swap2\n      swap1\n      tag_37\n      jump\t// in\n    tag_36:\n      mload(0x40)\n      dup1\n      swap2\n      sub\n      swap1\n      return\n        /* \"PrestacaoServicoSeguro.sol\":3369:3586  function concluirServico() public apenasContratado {... */\n    tag_6:\n      callvalue\n      dup1\n      iszero\n      tag_38\n      jumpi\n      revert(0x00, 0x00)\n    tag_38:\n      pop\n      tag_39\n      tag_40\n      jump\t// in\n    tag_39:\n      stop\n        /* \"PrestacaoServicoSeguro.sol\":5586:5681  function getAdvogado() public view returns (address) {... */\n    tag_7:\n      callvalue\n      dup1\n      iszero\n      tag_41\n      jumpi\n      revert(0x00, 0x00)\n    tag_41:\n      pop\n      tag_42\n      tag_43\n      jump\t// in\n    tag_42:\n      mload(0x40)\n      tag_44\n      swap2\n      swap1\n      tag_45\n      jump\t// in\n    tag_44:\n      mload(0x40)\n      dup1\n      swap2\n      sub\n      swap1\n      return\n        /* \"PrestacaoServicoSeguro.sol\":5257:5358  function getContratante() public view returns (address) {... */\n    tag_8:\n      callvalue\n      dup1\n      iszero\n      tag_46\n      jumpi\n      revert(0x00, 0x00)\n    tag_46:\n      pop\n      tag_47\n      tag_48\n      jump\t// in\n    tag_47:\n      mload(0x40)\n      tag_49\n      swap2\n      swap1\n      tag_45\n      jump\t// in\n    tag_49:\n      mload(0x40)\n      dup1\n      swap2\n      sub\n      swap1\n      return\n        /* \"PrestacaoServicoSeguro.sol\":3594:3838  function reconhecerJuridicamente() public apenasAdvogado {... */\n    tag_9:\n      callvalue\n      dup1\n      iszero\n      tag_50\n      jumpi\n      revert(0x00, 0x00)\n    tag_50:\n      pop\n      tag_51\n      tag_52\n      jump\t// in\n    tag_51:\n      stop\n        /* \"PrestacaoServicoSeguro.sol\":4292:4526  function cancelarContrato() public apenasParte {... */\n    tag_10:\n      callvalue\n      dup1\n      iszero\n      tag_53\n      jumpi\n      revert(0x00, 0x00)\n    tag_53:\n      pop\n      tag_54\n      tag_55\n      jump\t// in\n    tag_54:\n      stop\n        /* \"PrestacaoServicoSeguro.sol\":6228:6330  function getListaPartes() public view returns (address[] memory) {... */\n    tag_11:\n      callvalue\n      dup1\n      iszero\n      tag_56\n      jumpi\n      revert(0x00, 0x00)\n    tag_56:\n      pop\n      tag_57\n      tag_58\n      jump\t// in\n    tag_57:\n      mload(0x40)\n      tag_59\n      swap2\n      swap1\n      tag_60\n      jump\t// in\n    tag_59:\n      mload(0x40)\n      dup1\n      swap2\n      sub\n      swap1\n      return\n        /* \"PrestacaoServicoSeguro.sol\":4585:4695  function getDescricaoServico() public view returns (string memory) {... */\n    tag_12:\n      callvalue\n      dup1\n      iszero\n      tag_61\n      jumpi\n      revert(0x00, 0x00)\n    tag_61:\n      pop\n      tag_62\n      tag_63\n      jump\t// in\n    tag_62:\n      mload(0x40)\n      tag_64\n      swap2\n      swap1\n      tag_65\n      jump\t// in\n    tag_64:\n      mload(0x40)\n      dup1\n      swap2\n      sub\n      swap1\n      return\n        /* \"PrestacaoServicoSeguro.sol\":4703:4799  function getValorServico() public view returns (uint256) {... */\n    tag_13:\n      callvalue\n      dup1\n      iszero\n      tag_66\n      jumpi\n      revert(0x00, 0x00)\n    tag_66:\n      pop\n      tag_67\n      tag_68\n      jump\t// in\n    tag_67:\n      mload(0x40)\n      tag_69\n      swap2\n      swap1\n      tag_70\n      jump\t// in\n    tag_69:\n      mload(0x40)\n      dup1\n      swap2\n      sub\n      swap1\n      return\n        /* \"PrestacaoServicoSeguro.sol\":729:757  address[] public listaPartes */\n    tag_14:\n      callvalue\n      dup1\n      iszero\n      tag_71\n      jumpi\n      revert(0x00, 0x00)\n    tag_71:\n      pop\n      tag_72\n      0x04\n      dup1\n      calldatasize\n      sub\n      dup2\n      add\n      swap1\n      tag_73\n      swap2\n      swap1\n      tag_74\n      jump\t// in\n    tag_73:\n      tag_75\n      jump\t// in\n    tag_72:\n      mload(0x40)\n      tag_76\n      swap2\n      swap1\n      tag_45\n      jump\t// in\n    tag_76:\n      mload(0x40)\n      dup1\n      swap2\n      sub\n      swap1\n      return\n        /* \"PrestacaoServicoSeguro.sol\":683:722  mapping(address => Parte) public partes */\n    tag_15:\n      callvalue\n      dup1\n      iszero\n      tag_77\n      jumpi\n      revert(0x00, 0x00)\n    tag_77:\n      pop\n      tag_78\n      0x04\n      dup1\n      calldatasize\n      sub\n      dup2\n      add\n      swap1\n      tag_79\n      swap2\n      swap1\n      tag_80\n      jump\t// in\n    tag_79:\n      tag_81\n      jump\t// in\n    tag_78:\n      mload(0x40)\n      tag_82\n      swap4\n      swap3\n      swap2\n      swap1\n      tag_83\n      jump\t// in\n    tag_82:\n      mload(0x40)\n      dup1\n      swap2\n      sub\n      swap1\n      return\n        /* \"PrestacaoServicoSeguro.sol\":5976:6182  function getParte(address _parte) public view returns (address carteira, string memory nome, bool aceitou) {... */\n    tag_16:\n      callvalue\n      dup1\n      iszero\n      tag_84\n      jumpi\n      revert(0x00, 0x00)\n    tag_84:\n      pop\n      tag_85\n      0x04\n      dup1\n      calldatasize\n      sub\n      dup2\n      add\n      swap1\n      tag_86\n      swap2\n      swap1\n      tag_80\n      jump\t// in\n    tag_86:\n      tag_87\n      jump\t// in\n    tag_85:\n      mload(0x40)\n      tag_88\n      swap4\n      swap3\n      swap2\n      swap1\n      tag_83\n      jump\t// in\n    tag_88:\n      mload(0x40)\n      dup1\n      swap2\n      sub\n      swap1\n      return\n        /* \"PrestacaoServicoSeguro.sol\":5820:5929  function getLinkTermos() public view returns (string memory) {... */\n    tag_17:\n      callvalue\n      dup1\n      iszero\n      tag_89\n      jumpi\n      revert(0x00, 0x00)\n    tag_89:\n      pop\n      tag_90\n      tag_91\n      jump\t// in\n    tag_90:\n      mload(0x40)\n      tag_92\n      swap2\n      swap1\n      tag_65\n      jump\t// in\n    tag_92:\n      mload(0x40)\n      dup1\n      swap2\n      sub\n      swap1\n      return\n        /* \"PrestacaoServicoSeguro.sol\":4807:5249  function getStatusServico() public view returns (string memory) {... */\n    tag_18:\n      callvalue\n      dup1\n      iszero\n      tag_93\n      jumpi\n      revert(0x00, 0x00)\n    tag_93:\n      pop\n      tag_94\n      tag_95\n      jump\t// in\n    tag_94:\n      mload(0x40)\n      tag_96\n      swap2\n      swap1\n      tag_65\n      jump\t// in\n    tag_96:\n      mload(0x40)\n      dup1\n      swap2\n      sub\n      swap1\n      return\n        /* \"PrestacaoServicoSeguro.sol\":5366:5465  function getContratado() public view returns (address) {... */\n    tag_19:\n      callvalue\n      dup1\n      iszero\n      tag_97\n      jumpi\n      revert(0x00, 0x00)\n    tag_97:\n      pop\n      tag_98\n      tag_99\n      jump\t// in\n    tag_98:\n      mload(0x40)\n      tag_100\n      swap2\n      swap1\n      tag_45\n      jump\t// in\n    tag_100:\n      mload(0x40)\n      dup1\n      swap2\n      sub\n      swap1\n      return\n        /* \"PrestacaoServicoSeguro.sol\":5473:5578  function getIntermediador() public view returns (address) {... */\n    tag_20:\n      callvalue\n      dup1\n      iszero\n      tag_101\n      jumpi\n      revert(0x00, 0x00)\n    tag_101:\n      pop\n      tag_102\n      tag_103\n      jump\t// in\n    tag_102:\n      mload(0x40)\n      tag_104\n      swap2\n      swap1\n      tag_45\n      jump\t// in\n    tag_104:\n      mload(0x40)\n      dup1\n      swap2\n      sub\n      swap1\n      return\n        /* \"PrestacaoServicoSeguro.sol\":654:676  Servico public servico */\n    tag_21:\n      callvalue\n      dup1\n      iszero\n      tag_105\n      jumpi\n      revert(0x00, 0x00)\n    tag_105:\n      pop\n      tag_106\n      tag_107\n      jump\t// in\n    tag_106:\n      mload(0x40)\n      tag_108\n      swap10\n      swap9\n      swap8\n      swap7\n      swap6\n      swap5\n      swap4\n      swap3\n      swap2\n      swap1\n      tag_109\n      jump\t// in\n    tag_108:\n      mload(0x40)\n      dup1\n      swap2\n      sub\n      swap1\n      return\n        /* \"PrestacaoServicoSeguro.sol\":2870:3071  function aceitarContrato() public apenasParte {... */\n    tag_27:\n        /* \"PrestacaoServicoSeguro.sol\":2386:2387  0 */\n      0x00\n        /* \"PrestacaoServicoSeguro.sol\":2347:2388  partes[msg.sender].carteira != address(0) */\n      0xffffffffffffffffffffffffffffffffffffffff\n      and\n        /* \"PrestacaoServicoSeguro.sol\":2347:2353  partes */\n      0x08\n        /* \"PrestacaoServicoSeguro.sol\":2347:2365  partes[msg.sender] */\n      0x00\n        /* \"PrestacaoServicoSeguro.sol\":2354:2364  msg.sender */\n      caller\n        /* \"PrestacaoServicoSeguro.sol\":2347:2365  partes[msg.sender] */\n      0xffffffffffffffffffffffffffffffffffffffff\n      and\n      0xffffffffffffffffffffffffffffffffffffffff\n      and\n      dup2\n      mstore\n      0x20\n      add\n      swap1\n      dup2\n      mstore\n      0x20\n      add\n      0x00\n      keccak256\n        /* \"PrestacaoServicoSeguro.sol\":2347:2374  partes[msg.sender].carteira */\n      0x00\n      add\n      0x00\n      swap1\n      sload\n      swap1\n      0x0100\n      exp\n      swap1\n      div\n      0xffffffffffffffffffffffffffffffffffffffff\n      and\n        /* \"PrestacaoServicoSeguro.sol\":2347:2388  partes[msg.sender].carteira != address(0) */\n      0xffffffffffffffffffffffffffffffffffffffff\n      and\n      sub\n        /* \"PrestacaoServicoSeguro.sol\":2339:2407  require(partes[msg.sender].carteira != address(0), \"Nao autorizado\") */\n      tag_111\n      jumpi\n      mload(0x40)\n      0x08c379a000000000000000000000000000000000000000000000000000000000\n      dup2\n      mstore\n      0x04\n      add\n      tag_112\n      swap1\n      tag_113\n      jump\t// in\n    tag_112:\n      mload(0x40)\n      dup1\n      swap2\n      sub\n      swap1\n      revert\n    tag_111:\n        /* \"PrestacaoServicoSeguro.sol\":2936:2942  partes */\n      0x08\n        /* \"PrestacaoServicoSeguro.sol\":2936:2954  partes[msg.sender] */\n      0x00\n        /* \"PrestacaoServicoSeguro.sol\":2943:2953  msg.sender */\n      caller\n        /* \"PrestacaoServicoSeguro.sol\":2936:2954  partes[msg.sender] */\n      0xffffffffffffffffffffffffffffffffffffffff\n      and\n      0xffffffffffffffffffffffffffffffffffffffff\n      and\n      dup2\n      mstore\n      0x20\n      add\n      swap1\n      dup2\n      mstore\n      0x20\n      add\n      0x00\n      keccak256\n        /* \"PrestacaoServicoSeguro.sol\":2936:2962  partes[msg.sender].aceitou */\n      0x02\n      add\n      0x00\n      swap1\n      sload\n      swap1\n      0x0100\n      exp\n      swap1\n      div\n      0xff\n      and\n        /* \"PrestacaoServicoSeguro.sol\":2935:2962  !partes[msg.sender].aceitou */\n      iszero\n        /* \"PrestacaoServicoSeguro.sol\":2927:2977  require(!partes[msg.sender].aceitou, \"Ja aceitou\") */\n      tag_115\n      jumpi\n      mload(0x40)\n      0x08c379a000000000000000000000000000000000000000000000000000000000\n      dup2\n      mstore\n      0x04\n      add\n      tag_116\n      swap1\n      tag_117\n      jump\t// in\n    tag_116:\n      mload(0x40)\n      dup1\n      swap2\n      sub\n      swap1\n      revert\n    tag_115:\n        /* \"PrestacaoServicoSeguro.sol\":3017:3021  true */\n      0x01\n        /* \"PrestacaoServicoSeguro.sol\":2988:2994  partes */\n      0x08\n        /* \"PrestacaoServicoSeguro.sol\":2988:3006  partes[msg.sender] */\n      0x00\n        /* \"PrestacaoServicoSeguro.sol\":2995:3005  msg.sender */\n      caller\n        /* \"PrestacaoServicoSeguro.sol\":2988:3006  partes[msg.sender] */\n      0xffffffffffffffffffffffffffffffffffffffff\n      and\n      0xffffffffffffffffffffffffffffffffffffffff\n      and\n      dup2\n      mstore\n      0x20\n      add\n      swap1\n      dup2\n      mstore\n      0x20\n      add\n      0x00\n      keccak256\n        /* \"PrestacaoServicoSeguro.sol\":2988:3014  partes[msg.sender].aceitou */\n      0x02\n      add\n      0x00\n        /* \"PrestacaoServicoSeguro.sol\":2988:3021  partes[msg.sender].aceitou = true */\n      0x0100\n      exp\n      dup2\n      sload\n      dup2\n      0xff\n      mul\n      not\n      and\n      swap1\n      dup4\n      iszero\n      iszero\n      mul\n      or\n      swap1\n      sstore\n      pop\n        /* \"PrestacaoServicoSeguro.sol\":3037:3063  ContratoAceito(msg.sender) */\n      0xc14e04b51f707eaeb882e09f0ae64950e76fd067c25d942f53011379c98158d8\n        /* \"PrestacaoServicoSeguro.sol\":3052:3062  msg.sender */\n      caller\n        /* \"PrestacaoServicoSeguro.sol\":3037:3063  ContratoAceito(msg.sender) */\n      mload(0x40)\n      tag_118\n      swap2\n      swap1\n      tag_45\n      jump\t// in\n    tag_118:\n      mload(0x40)\n      dup1\n      swap2\n      sub\n      swap1\n      log1\n        /* \"PrestacaoServicoSeguro.sol\":2870:3071  function aceitarContrato() public apenasParte {... */\n      jump\t// out\n        /* \"PrestacaoServicoSeguro.sol\":3079:3361  function iniciarServico() public {... */\n    tag_30:\n        /* \"PrestacaoServicoSeguro.sol\":3131:3137  partes */\n      0x08\n        /* \"PrestacaoServicoSeguro.sol\":3131:3158  partes[servico.contratante] */\n      0x00\n        /* \"PrestacaoServicoSeguro.sol\":3138:3145  servico */\n      0x01\n        /* \"PrestacaoServicoSeguro.sol\":3138:3157  servico.contratante */\n      0x03\n      add\n      0x00\n      swap1\n      sload\n      swap1\n      0x0100\n      exp\n      swap1\n      div\n      0xffffffffffffffffffffffffffffffffffffffff\n      and\n        /* \"PrestacaoServicoSeguro.sol\":3131:3158  partes[servico.contratante] */\n      0xffffffffffffffffffffffffffffffffffffffff\n      and\n      0xffffffffffffffffffffffffffffffffffffffff\n      and\n      dup2\n      mstore\n      0x20\n      add\n      swap1\n      dup2\n      mstore\n      0x20\n      add\n      0x00\n      keccak256\n        /* \"PrestacaoServicoSeguro.sol\":3131:3166  partes[servico.contratante].aceitou */\n      0x02\n      add\n      0x00\n      swap1\n      sload\n      swap1\n      0x0100\n      exp\n      swap1\n      div\n      0xff\n      and\n        /* \"PrestacaoServicoSeguro.sol\":3123:3194  require(partes[servico.contratante].aceitou, \"Contratante nao aceitou\") */\n      tag_120\n      jumpi\n      mload(0x40)\n      0x08c379a000000000000000000000000000000000000000000000000000000000\n      dup2\n      mstore\n      0x04\n      add\n      tag_121\n      swap1\n      tag_122\n      jump\t// in\n    tag_121:\n      mload(0x40)\n      dup1\n      swap2\n      sub\n      swap1\n      revert\n    tag_120:\n        /* \"PrestacaoServicoSeguro.sol\":3213:3219  partes */\n      0x08\n        /* \"PrestacaoServicoSeguro.sol\":3213:3239  partes[servico.contratado] */\n      0x00\n        /* \"PrestacaoServicoSeguro.sol\":3220:3227  servico */\n      0x01\n        /* \"PrestacaoServicoSeguro.sol\":3220:3238  servico.contratado */\n      0x02\n      add\n      0x01\n      swap1\n      sload\n      swap1\n      0x0100\n      exp\n      swap1\n      div\n      0xffffffffffffffffffffffffffffffffffffffff\n      and\n        /* \"PrestacaoServicoSeguro.sol\":3213:3239  partes[servico.contratado] */\n      0xffffffffffffffffffffffffffffffffffffffff\n      and\n      0xffffffffffffffffffffffffffffffffffffffff\n      and\n      dup2\n      mstore\n      0x20\n      add\n      swap1\n      dup2\n      mstore\n      0x20\n      add\n      0x00\n      keccak256\n        /* \"PrestacaoServicoSeguro.sol\":3213:3247  partes[servico.contratado].aceitou */\n      0x02\n      add\n      0x00\n      swap1\n      sload\n      swap1\n      0x0100\n      exp\n      swap1\n      div\n      0xff\n      and\n        /* \"PrestacaoServicoSeguro.sol\":3205:3274  require(partes[servico.contratado].aceitou, \"Contratado nao aceitou\") */\n      tag_123\n      jumpi\n      mload(0x40)\n      0x08c379a000000000000000000000000000000000000000000000000000000000\n      dup2\n      mstore\n      0x04\n      add\n      tag_124\n      swap1\n      tag_125\n      jump\t// in\n    tag_124:\n      mload(0x40)\n      dup1\n      swap2\n      sub\n      swap1\n      revert\n    tag_123:\n        /* \"PrestacaoServicoSeguro.sol\":3302:3320  Status.EmAndamento */\n      0x02\n        /* \"PrestacaoServicoSeguro.sol\":3285:3292  servico */\n      0x01\n        /* \"PrestacaoServicoSeguro.sol\":3285:3299  servico.status */\n      0x02\n      add\n      0x00\n        /* \"PrestacaoServicoSeguro.sol\":3285:3320  servico.status = Status.EmAndamento */\n      0x0100\n      exp\n      dup2\n      sload\n      dup2\n      0xff\n      mul\n      not\n      and\n      swap1\n      dup4\n      0x04\n      dup2\n      gt\n      iszero\n      tag_126\n      jumpi\n      tag_127\n      tag_128\n      jump\t// in\n    tag_127:\n    tag_126:\n      mul\n      or\n      swap1\n      sstore\n      pop\n        /* \"PrestacaoServicoSeguro.sol\":3336:3353  ServicoIniciado() */\n      0x0671b112441f25ed92197fa8fa5573635a1cbcd9aa50582c4cf0f57527002db6\n      mload(0x40)\n      mload(0x40)\n      dup1\n      swap2\n      sub\n      swap1\n      log1\n        /* \"PrestacaoServicoSeguro.sol\":3079:3361  function iniciarServico() public {... */\n      jump\t// out\n        /* \"PrestacaoServicoSeguro.sol\":3846:4284  function pagarServico() public payable nonReentrant apenasContratante {... */\n    tag_32:\n        /* \"@openzeppelin/contracts/security/ReentrancyGuard.sol\":2261:2282  _nonReentrantBefore() */\n      tag_130\n        /* \"@openzeppelin/contracts/security/ReentrancyGuard.sol\":2261:2280  _nonReentrantBefore */\n      tag_131\n        /* \"@openzeppelin/contracts/security/ReentrancyGuard.sol\":2261:2282  _nonReentrantBefore() */\n      jump\t// in\n    tag_130:\n        /* \"PrestacaoServicoSeguro.sol\":2783:2790  servico */\n      0x01\n        /* \"PrestacaoServicoSeguro.sol\":2783:2802  servico.contratante */\n      0x03\n      add\n      0x00\n      swap1\n      sload\n      swap1\n      0x0100\n      exp\n      swap1\n      div\n      0xffffffffffffffffffffffffffffffffffffffff\n      and\n        /* \"PrestacaoServicoSeguro.sol\":2769:2802  msg.sender == servico.contratante */\n      0xffffffffffffffffffffffffffffffffffffffff\n      and\n        /* \"PrestacaoServicoSeguro.sol\":2769:2779  msg.sender */\n      caller\n        /* \"PrestacaoServicoSeguro.sol\":2769:2802  msg.sender == servico.contratante */\n      0xffffffffffffffffffffffffffffffffffffffff\n      and\n      eq\n        /* \"PrestacaoServicoSeguro.sol\":2761:2842  require(msg.sender == servico.contratante, \"Somente o contratante pode executar\") */\n      tag_133\n      jumpi\n      mload(0x40)\n      0x08c379a000000000000000000000000000000000000000000000000000000000\n      dup2\n      mstore\n      0x04\n      add\n      tag_134\n      swap1\n      tag_135\n      jump\t// in\n    tag_134:\n      mload(0x40)\n      dup1\n      swap2\n      sub\n      swap1\n      revert\n    tag_133:\n        /* \"PrestacaoServicoSeguro.sol\":3953:3969  Status.Concluido */\n      0x03\n        /* \"PrestacaoServicoSeguro.sol\":3935:3969  servico.status == Status.Concluido */\n      0x04\n      dup2\n      gt\n      iszero\n      tag_137\n      jumpi\n      tag_138\n      tag_128\n      jump\t// in\n    tag_138:\n    tag_137:\n        /* \"PrestacaoServicoSeguro.sol\":3935:3942  servico */\n      0x01\n        /* \"PrestacaoServicoSeguro.sol\":3935:3949  servico.status */\n      0x02\n      add\n      0x00\n      swap1\n      sload\n      swap1\n      0x0100\n      exp\n      swap1\n      div\n      0xff\n      and\n        /* \"PrestacaoServicoSeguro.sol\":3935:3969  servico.status == Status.Concluido */\n      0x04\n      dup2\n      gt\n      iszero\n      tag_139\n      jumpi\n      tag_140\n      tag_128\n      jump\t// in\n    tag_140:\n    tag_139:\n      eq\n        /* \"PrestacaoServicoSeguro.sol\":3927:3995  require(servico.status == Status.Concluido, \"Servico nao concluido\") */\n      tag_141\n      jumpi\n      mload(0x40)\n      0x08c379a000000000000000000000000000000000000000000000000000000000\n      dup2\n      mstore\n      0x04\n      add\n      tag_142\n      swap1\n      tag_143\n      jump\t// in\n    tag_142:\n      mload(0x40)\n      dup1\n      swap2\n      sub\n      swap1\n      revert\n    tag_141:\n        /* \"PrestacaoServicoSeguro.sol\":4014:4021  servico */\n      0x01\n        /* \"PrestacaoServicoSeguro.sol\":4014:4046  servico.reconhecidoJuridicamente */\n      0x05\n      add\n      0x14\n      swap1\n      sload\n      swap1\n      0x0100\n      exp\n      swap1\n      div\n      0xff\n      and\n        /* \"PrestacaoServicoSeguro.sol\":4006:4089  require(servico.reconhecidoJuridicamente, \"Contrato nao reconhecido juridicamente\") */\n      tag_144\n      jumpi\n      mload(0x40)\n      0x08c379a000000000000000000000000000000000000000000000000000000000\n      dup2\n      mstore\n      0x04\n      add\n      tag_145\n      swap1\n      tag_146\n      jump\t// in\n    tag_145:\n      mload(0x40)\n      dup1\n      swap2\n      sub\n      swap1\n      revert\n    tag_144:\n        /* \"PrestacaoServicoSeguro.sol\":4121:4128  servico */\n      0x01\n        /* \"PrestacaoServicoSeguro.sol\":4121:4134  servico.valor */\n      dup1\n      add\n      sload\n        /* \"PrestacaoServicoSeguro.sol\":4108:4117  msg.value */\n      callvalue\n        /* \"PrestacaoServicoSeguro.sol\":4108:4134  msg.value >= servico.valor */\n      lt\n      iszero\n        /* \"PrestacaoServicoSeguro.sol\":4100:4157  require(msg.value >= servico.valor, \"Valor insuficiente\") */\n      tag_147\n      jumpi\n      mload(0x40)\n      0x08c379a000000000000000000000000000000000000000000000000000000000\n      dup2\n      mstore\n      0x04\n      add\n      tag_148\n      swap1\n      tag_149\n      jump\t// in\n    tag_148:\n      mload(0x40)\n      dup1\n      swap2\n      sub\n      swap1\n      revert\n    tag_147:\n        /* \"PrestacaoServicoSeguro.sol\":4176:4183  servico */\n      0x01\n        /* \"PrestacaoServicoSeguro.sol\":4176:4194  servico.contratado */\n      0x02\n      add\n      0x01\n      swap1\n      sload\n      swap1\n      0x0100\n      exp\n      swap1\n      div\n      0xffffffffffffffffffffffffffffffffffffffff\n      and\n        /* \"PrestacaoServicoSeguro.sol\":4168:4204  payable(servico.contratado).transfer */\n      0xffffffffffffffffffffffffffffffffffffffff\n      and\n        /* \"PrestacaoServicoSeguro.sol\":4168:4219  payable(servico.contratado).transfer(servico.valor) */\n      0x08fc\n        /* \"PrestacaoServicoSeguro.sol\":4205:4212  servico */\n      0x01\n        /* \"PrestacaoServicoSeguro.sol\":4205:4218  servico.valor */\n      dup1\n      add\n      sload\n        /* \"PrestacaoServicoSeguro.sol\":4168:4219  payable(servico.contratado).transfer(servico.valor) */\n      swap1\n      dup2\n      iszero\n      mul\n      swap1\n      mload(0x40)\n      0x00\n      mload(0x40)\n      dup1\n      dup4\n      sub\n      dup2\n      dup6\n      dup9\n      dup9\n      call\n      swap4\n      pop\n      pop\n      pop\n      pop\n      iszero\n      dup1\n      iszero\n      tag_151\n      jumpi\n      returndatacopy(0x00, 0x00, returndatasize)\n      revert(0x00, returndatasize)\n    tag_151:\n      pop\n        /* \"PrestacaoServicoSeguro.sol\":4235:4276  PagamentoRealizado(msg.sender, msg.value) */\n      0x99429f2d8b060f26850fbd2b5743f78b567da9b1860829588eba1799c4388a24\n        /* \"PrestacaoServicoSeguro.sol\":4254:4264  msg.sender */\n      caller\n        /* \"PrestacaoServicoSeguro.sol\":4266:4275  msg.value */\n      callvalue\n        /* \"PrestacaoServicoSeguro.sol\":4235:4276  PagamentoRealizado(msg.sender, msg.value) */\n      mload(0x40)\n      tag_152\n      swap3\n      swap2\n      swap1\n      tag_153\n      jump\t// in\n    tag_152:\n      mload(0x40)\n      dup1\n      swap2\n      sub\n      swap1\n      log1\n        /* \"@openzeppelin/contracts/security/ReentrancyGuard.sol\":2303:2323  _nonReentrantAfter() */\n      tag_154\n        /* \"@openzeppelin/contracts/security/ReentrancyGuard.sol\":2303:2321  _nonReentrantAfter */\n      tag_155\n        /* \"@openzeppelin/contracts/security/ReentrancyGuard.sol\":2303:2323  _nonReentrantAfter() */\n      jump\t// in\n    tag_154:\n        /* \"PrestacaoServicoSeguro.sol\":3846:4284  function pagarServico() public payable nonReentrant apenasContratante {... */\n      jump\t// out\n        /* \"PrestacaoServicoSeguro.sol\":5689:5812  function isReconhecidoJuridicamente() public view returns (bool) {... */\n    tag_35:\n        /* \"PrestacaoServicoSeguro.sol\":5748:5752  bool */\n      0x00\n        /* \"PrestacaoServicoSeguro.sol\":5772:5779  servico */\n      0x01\n        /* \"PrestacaoServicoSeguro.sol\":5772:5804  servico.reconhecidoJuridicamente */\n      0x05\n      add\n      0x14\n      swap1\n      sload\n      swap1\n      0x0100\n      exp\n      swap1\n      div\n      0xff\n      and\n        /* \"PrestacaoServicoSeguro.sol\":5765:5804  return servico.reconhecidoJuridicamente */\n      swap1\n      pop\n        /* \"PrestacaoServicoSeguro.sol\":5689:5812  function isReconhecidoJuridicamente() public view returns (bool) {... */\n      swap1\n      jump\t// out\n        /* \"PrestacaoServicoSeguro.sol\":3369:3586  function concluirServico() public apenasContratado {... */\n    tag_40:\n        /* \"PrestacaoServicoSeguro.sol\":2636:2643  servico */\n      0x01\n        /* \"PrestacaoServicoSeguro.sol\":2636:2654  servico.contratado */\n      0x02\n      add\n      0x01\n      swap1\n      sload\n      swap1\n      0x0100\n      exp\n      swap1\n      div\n      0xffffffffffffffffffffffffffffffffffffffff\n      and\n        /* \"PrestacaoServicoSeguro.sol\":2622:2654  msg.sender == servico.contratado */\n      0xffffffffffffffffffffffffffffffffffffffff\n      and\n        /* \"PrestacaoServicoSeguro.sol\":2622:2632  msg.sender */\n      caller\n        /* \"PrestacaoServicoSeguro.sol\":2622:2654  msg.sender == servico.contratado */\n      0xffffffffffffffffffffffffffffffffffffffff\n      and\n      eq\n        /* \"PrestacaoServicoSeguro.sol\":2614:2693  require(msg.sender == servico.contratado, \"Somente o contratado pode executar\") */\n      tag_158\n      jumpi\n      mload(0x40)\n      0x08c379a000000000000000000000000000000000000000000000000000000000\n      dup2\n      mstore\n      0x04\n      add\n      tag_159\n      swap1\n      tag_160\n      jump\t// in\n    tag_159:\n      mload(0x40)\n      dup1\n      swap2\n      sub\n      swap1\n      revert\n    tag_158:\n        /* \"PrestacaoServicoSeguro.sol\":3457:3475  Status.EmAndamento */\n      0x02\n        /* \"PrestacaoServicoSeguro.sol\":3439:3475  servico.status == Status.EmAndamento */\n      0x04\n      dup2\n      gt\n      iszero\n      tag_162\n      jumpi\n      tag_163\n      tag_128\n      jump\t// in\n    tag_163:\n    tag_162:\n        /* \"PrestacaoServicoSeguro.sol\":3439:3446  servico */\n      0x01\n        /* \"PrestacaoServicoSeguro.sol\":3439:3453  servico.status */\n      0x02\n      add\n      0x00\n      swap1\n      sload\n      swap1\n      0x0100\n      exp\n      swap1\n      div\n      0xff\n      and\n        /* \"PrestacaoServicoSeguro.sol\":3439:3475  servico.status == Status.EmAndamento */\n      0x04\n      dup2\n      gt\n      iszero\n      tag_164\n      jumpi\n      tag_165\n      tag_128\n      jump\t// in\n    tag_165:\n    tag_164:\n      eq\n        /* \"PrestacaoServicoSeguro.sol\":3431:3500  require(servico.status == Status.EmAndamento, \"Servico nao iniciado\") */\n      tag_166\n      jumpi\n      mload(0x40)\n      0x08c379a000000000000000000000000000000000000000000000000000000000\n      dup2\n      mstore\n      0x04\n      add\n      tag_167\n      swap1\n      tag_168\n      jump\t// in\n    tag_167:\n      mload(0x40)\n      dup1\n      swap2\n      sub\n      swap1\n      revert\n    tag_166:\n        /* \"PrestacaoServicoSeguro.sol\":3528:3544  Status.Concluido */\n      0x03\n        /* \"PrestacaoServicoSeguro.sol\":3511:3518  servico */\n      0x01\n        /* \"PrestacaoServicoSeguro.sol\":3511:3525  servico.status */\n      0x02\n      add\n      0x00\n        /* \"PrestacaoServicoSeguro.sol\":3511:3544  servico.status = Status.Concluido */\n      0x0100\n      exp\n      dup2\n      sload\n      dup2\n      0xff\n      mul\n      not\n      and\n      swap1\n      dup4\n      0x04\n      dup2\n      gt\n      iszero\n      tag_169\n      jumpi\n      tag_170\n      tag_128\n      jump\t// in\n    tag_170:\n    tag_169:\n      mul\n      or\n      swap1\n      sstore\n      pop\n        /* \"PrestacaoServicoSeguro.sol\":3560:3578  ServicoConcluido() */\n      0xc075506703249f4c1960aa7b24ab277718c285277dd6f0d0c19f5f668e92c451\n      mload(0x40)\n      mload(0x40)\n      dup1\n      swap2\n      sub\n      swap1\n      log1\n        /* \"PrestacaoServicoSeguro.sol\":3369:3586  function concluirServico() public apenasContratado {... */\n      jump\t// out\n        /* \"PrestacaoServicoSeguro.sol\":5586:5681  function getAdvogado() public view returns (address) {... */\n    tag_43:\n        /* \"PrestacaoServicoSeguro.sol\":5630:5637  address */\n      0x00\n        /* \"PrestacaoServicoSeguro.sol\":5657:5664  servico */\n      0x01\n        /* \"PrestacaoServicoSeguro.sol\":5657:5673  servico.advogado */\n      0x05\n      add\n      0x00\n      swap1\n      sload\n      swap1\n      0x0100\n      exp\n      swap1\n      div\n      0xffffffffffffffffffffffffffffffffffffffff\n      and\n        /* \"PrestacaoServicoSeguro.sol\":5650:5673  return servico.advogado */\n      swap1\n      pop\n        /* \"PrestacaoServicoSeguro.sol\":5586:5681  function getAdvogado() public view returns (address) {... */\n      swap1\n      jump\t// out\n        /* \"PrestacaoServicoSeguro.sol\":5257:5358  function getContratante() public view returns (address) {... */\n    tag_48:\n        /* \"PrestacaoServicoSeguro.sol\":5304:5311  address */\n      0x00\n        /* \"PrestacaoServicoSeguro.sol\":5331:5338  servico */\n      0x01\n        /* \"PrestacaoServicoSeguro.sol\":5331:5350  servico.contratante */\n      0x03\n      add\n      0x00\n      swap1\n      sload\n      swap1\n      0x0100\n      exp\n      swap1\n      div\n      0xffffffffffffffffffffffffffffffffffffffff\n      and\n        /* \"PrestacaoServicoSeguro.sol\":5324:5350  return servico.contratante */\n      swap1\n      pop\n        /* \"PrestacaoServicoSeguro.sol\":5257:5358  function getContratante() public view returns (address) {... */\n      swap1\n      jump\t// out\n        /* \"PrestacaoServicoSeguro.sol\":3594:3838  function reconhecerJuridicamente() public apenasAdvogado {... */\n    tag_52:\n        /* \"PrestacaoServicoSeguro.sol\":2494:2501  servico */\n      0x01\n        /* \"PrestacaoServicoSeguro.sol\":2494:2510  servico.advogado */\n      0x05\n      add\n      0x00\n      swap1\n      sload\n      swap1\n      0x0100\n      exp\n      swap1\n      div\n      0xffffffffffffffffffffffffffffffffffffffff\n      and\n        /* \"PrestacaoServicoSeguro.sol\":2480:2510  msg.sender == servico.advogado */\n      0xffffffffffffffffffffffffffffffffffffffff\n      and\n        /* \"PrestacaoServicoSeguro.sol\":2480:2490  msg.sender */\n      caller\n        /* \"PrestacaoServicoSeguro.sol\":2480:2510  msg.sender == servico.advogado */\n      0xffffffffffffffffffffffffffffffffffffffff\n      and\n      eq\n        /* \"PrestacaoServicoSeguro.sol\":2472:2547  require(msg.sender == servico.advogado, \"Somente o advogado pode executar\") */\n      tag_174\n      jumpi\n      mload(0x40)\n      0x08c379a000000000000000000000000000000000000000000000000000000000\n      dup2\n      mstore\n      0x04\n      add\n      tag_175\n      swap1\n      tag_176\n      jump\t// in\n    tag_175:\n      mload(0x40)\n      dup1\n      swap2\n      sub\n      swap1\n      revert\n    tag_174:\n        /* \"PrestacaoServicoSeguro.sol\":3688:3704  Status.Concluido */\n      0x03\n        /* \"PrestacaoServicoSeguro.sol\":3670:3704  servico.status == Status.Concluido */\n      0x04\n      dup2\n      gt\n      iszero\n      tag_178\n      jumpi\n      tag_179\n      tag_128\n      jump\t// in\n    tag_179:\n    tag_178:\n        /* \"PrestacaoServicoSeguro.sol\":3670:3677  servico */\n      0x01\n        /* \"PrestacaoServicoSeguro.sol\":3670:3684  servico.status */\n      0x02\n      add\n      0x00\n      swap1\n      sload\n      swap1\n      0x0100\n      exp\n      swap1\n      div\n      0xff\n      and\n        /* \"PrestacaoServicoSeguro.sol\":3670:3704  servico.status == Status.Concluido */\n      0x04\n      dup2\n      gt\n      iszero\n      tag_180\n      jumpi\n      tag_181\n      tag_128\n      jump\t// in\n    tag_181:\n    tag_180:\n      eq\n        /* \"PrestacaoServicoSeguro.sol\":3662:3730  require(servico.status == Status.Concluido, \"Servico nao concluido\") */\n      tag_182\n      jumpi\n      mload(0x40)\n      0x08c379a000000000000000000000000000000000000000000000000000000000\n      dup2\n      mstore\n      0x04\n      add\n      tag_183\n      swap1\n      tag_143\n      jump\t// in\n    tag_183:\n      mload(0x40)\n      dup1\n      swap2\n      sub\n      swap1\n      revert\n    tag_182:\n        /* \"PrestacaoServicoSeguro.sol\":3776:3780  true */\n      0x01\n        /* \"PrestacaoServicoSeguro.sol\":3741:3748  servico */\n      dup1\n        /* \"PrestacaoServicoSeguro.sol\":3741:3773  servico.reconhecidoJuridicamente */\n      0x05\n      add\n      0x14\n        /* \"PrestacaoServicoSeguro.sol\":3741:3780  servico.reconhecidoJuridicamente = true */\n      0x0100\n      exp\n      dup2\n      sload\n      dup2\n      0xff\n      mul\n      not\n      and\n      swap1\n      dup4\n      iszero\n      iszero\n      mul\n      or\n      swap1\n      sstore\n      pop\n        /* \"PrestacaoServicoSeguro.sol\":3796:3830  ReconhecimentoJuridico(msg.sender) */\n      0xd07e77a7ae3d696b7904cab197b265c2e821d91ac12304afb6af66980e1adb79\n        /* \"PrestacaoServicoSeguro.sol\":3819:3829  msg.sender */\n      caller\n        /* \"PrestacaoServicoSeguro.sol\":3796:3830  ReconhecimentoJuridico(msg.sender) */\n      mload(0x40)\n      tag_184\n      swap2\n      swap1\n      tag_45\n      jump\t// in\n    tag_184:\n      mload(0x40)\n      dup1\n      swap2\n      sub\n      swap1\n      log1\n        /* \"PrestacaoServicoSeguro.sol\":3594:3838  function reconhecerJuridicamente() public apenasAdvogado {... */\n      jump\t// out\n        /* \"PrestacaoServicoSeguro.sol\":4292:4526  function cancelarContrato() public apenasParte {... */\n    tag_55:\n        /* \"PrestacaoServicoSeguro.sol\":2386:2387  0 */\n      0x00\n        /* \"PrestacaoServicoSeguro.sol\":2347:2388  partes[msg.sender].carteira != address(0) */\n      0xffffffffffffffffffffffffffffffffffffffff\n      and\n        /* \"PrestacaoServicoSeguro.sol\":2347:2353  partes */\n      0x08\n        /* \"PrestacaoServicoSeguro.sol\":2347:2365  partes[msg.sender] */\n      0x00\n        /* \"PrestacaoServicoSeguro.sol\":2354:2364  msg.sender */\n      caller\n        /* \"PrestacaoServicoSeguro.sol\":2347:2365  partes[msg.sender] */\n      0xffffffffffffffffffffffffffffffffffffffff\n      and\n      0xffffffffffffffffffffffffffffffffffffffff\n      and\n      dup2\n      mstore\n      0x20\n      add\n      swap1\n      dup2\n      mstore\n      0x20\n      add\n      0x00\n      keccak256\n        /* \"PrestacaoServicoSeguro.sol\":2347:2374  partes[msg.sender].carteira */\n      0x00\n      add\n      0x00\n      swap1\n      sload\n      swap1\n      0x0100\n      exp\n      swap1\n      div\n      0xffffffffffffffffffffffffffffffffffffffff\n      and\n        /* \"PrestacaoServicoSeguro.sol\":2347:2388  partes[msg.sender].carteira != address(0) */\n      0xffffffffffffffffffffffffffffffffffffffff\n      and\n      sub\n        /* \"PrestacaoServicoSeguro.sol\":2339:2407  require(partes[msg.sender].carteira != address(0), \"Nao autorizado\") */\n      tag_186\n      jumpi\n      mload(0x40)\n      0x08c379a000000000000000000000000000000000000000000000000000000000\n      dup2\n      mstore\n      0x04\n      add\n      tag_187\n      swap1\n      tag_113\n      jump\t// in\n    tag_187:\n      mload(0x40)\n      dup1\n      swap2\n      sub\n      swap1\n      revert\n    tag_186:\n        /* \"PrestacaoServicoSeguro.sol\":4376:4392  Status.Concluido */\n      0x03\n        /* \"PrestacaoServicoSeguro.sol\":4358:4392  servico.status != Status.Concluido */\n      0x04\n      dup2\n      gt\n      iszero\n      tag_189\n      jumpi\n      tag_190\n      tag_128\n      jump\t// in\n    tag_190:\n    tag_189:\n        /* \"PrestacaoServicoSeguro.sol\":4358:4365  servico */\n      0x01\n        /* \"PrestacaoServicoSeguro.sol\":4358:4372  servico.status */\n      0x02\n      add\n      0x00\n      swap1\n      sload\n      swap1\n      0x0100\n      exp\n      swap1\n      div\n      0xff\n      and\n        /* \"PrestacaoServicoSeguro.sol\":4358:4392  servico.status != Status.Concluido */\n      0x04\n      dup2\n      gt\n      iszero\n      tag_191\n      jumpi\n      tag_192\n      tag_128\n      jump\t// in\n    tag_192:\n    tag_191:\n      sub\n        /* \"PrestacaoServicoSeguro.sol\":4350:4429  require(servico.status != Status.Concluido, \"Nao pode cancelar apos conclusao\") */\n      tag_193\n      jumpi\n      mload(0x40)\n      0x08c379a000000000000000000000000000000000000000000000000000000000\n      dup2\n      mstore\n      0x04\n      add\n      tag_194\n      swap1\n      tag_195\n      jump\t// in\n    tag_194:\n      mload(0x40)\n      dup1\n      swap2\n      sub\n      swap1\n      revert\n    tag_193:\n        /* \"PrestacaoServicoSeguro.sol\":4457:4473  Status.Cancelado */\n      0x04\n        /* \"PrestacaoServicoSeguro.sol\":4440:4447  servico */\n      0x01\n        /* \"PrestacaoServicoSeguro.sol\":4440:4454  servico.status */\n      0x02\n      add\n      0x00\n        /* \"PrestacaoServicoSeguro.sol\":4440:4473  servico.status = Status.Cancelado */\n      0x0100\n      exp\n      dup2\n      sload\n      dup2\n      0xff\n      mul\n      not\n      and\n      swap1\n      dup4\n      0x04\n      dup2\n      gt\n      iszero\n      tag_196\n      jumpi\n      tag_197\n      tag_128\n      jump\t// in\n    tag_197:\n    tag_196:\n      mul\n      or\n      swap1\n      sstore\n      pop\n        /* \"PrestacaoServicoSeguro.sol\":4489:4518  ContratoCancelado(msg.sender) */\n      0xe2b6baa1bd028e2a7847dc983ffb1e68f690ca782eee054303faa93d679cdf02\n        /* \"PrestacaoServicoSeguro.sol\":4507:4517  msg.sender */\n      caller\n        /* \"PrestacaoServicoSeguro.sol\":4489:4518  ContratoCancelado(msg.sender) */\n      mload(0x40)\n      tag_198\n      swap2\n      swap1\n      tag_45\n      jump\t// in\n    tag_198:\n      mload(0x40)\n      dup1\n      swap2\n      sub\n      swap1\n      log1\n        /* \"PrestacaoServicoSeguro.sol\":4292:4526  function cancelarContrato() public apenasParte {... */\n      jump\t// out\n        /* \"PrestacaoServicoSeguro.sol\":6228:6330  function getListaPartes() public view returns (address[] memory) {... */\n    tag_58:\n        /* \"PrestacaoServicoSeguro.sol\":6275:6291  address[] memory */\n      0x60\n        /* \"PrestacaoServicoSeguro.sol\":6311:6322  listaPartes */\n      0x09\n        /* \"PrestacaoServicoSeguro.sol\":6304:6322  return listaPartes */\n      dup1\n      sload\n      dup1\n      0x20\n      mul\n      0x20\n      add\n      mload(0x40)\n      swap1\n      dup2\n      add\n      0x40\n      mstore\n      dup1\n      swap3\n      swap2\n      swap1\n      dup2\n      dup2\n      mstore\n      0x20\n      add\n      dup3\n      dup1\n      sload\n      dup1\n      iszero\n      tag_200\n      jumpi\n      0x20\n      mul\n      dup3\n      add\n      swap2\n      swap1\n      0x00\n      mstore\n      keccak256(0x00, 0x20)\n      swap1\n    tag_201:\n      dup2\n      0x00\n      swap1\n      sload\n      swap1\n      0x0100\n      exp\n      swap1\n      div\n      0xffffffffffffffffffffffffffffffffffffffff\n      and\n      0xffffffffffffffffffffffffffffffffffffffff\n      and\n      dup2\n      mstore\n      0x20\n      add\n      swap1\n      0x01\n      add\n      swap1\n      dup1\n      dup4\n      gt\n      tag_201\n      jumpi\n    tag_200:\n      pop\n      pop\n      pop\n      pop\n      pop\n      swap1\n      pop\n        /* \"PrestacaoServicoSeguro.sol\":6228:6330  function getListaPartes() public view returns (address[] memory) {... */\n      swap1\n      jump\t// out\n        /* \"PrestacaoServicoSeguro.sol\":4585:4695  function getDescricaoServico() public view returns (string memory) {... */\n    tag_63:\n        /* \"PrestacaoServicoSeguro.sol\":4637:4650  string memory */\n      0x60\n        /* \"PrestacaoServicoSeguro.sol\":4670:4677  servico */\n      0x01\n        /* \"PrestacaoServicoSeguro.sol\":4670:4687  servico.descricao */\n      0x00\n      add\n        /* \"PrestacaoServicoSeguro.sol\":4663:4687  return servico.descricao */\n      dup1\n      sload\n      tag_203\n      swap1\n      tag_204\n      jump\t// in\n    tag_203:\n      dup1\n      0x1f\n      add\n      0x20\n      dup1\n      swap2\n      div\n      mul\n      0x20\n      add\n      mload(0x40)\n      swap1\n      dup2\n      add\n      0x40\n      mstore\n      dup1\n      swap3\n      swap2\n      swap1\n      dup2\n      dup2\n      mstore\n      0x20\n      add\n      dup3\n      dup1\n      sload\n      tag_205\n      swap1\n      tag_204\n      jump\t// in\n    tag_205:\n      dup1\n      iszero\n      tag_206\n      jumpi\n      dup1\n      0x1f\n      lt\n      tag_207\n      jumpi\n      0x0100\n      dup1\n      dup4\n      sload\n      div\n      mul\n      dup4\n      mstore\n      swap2\n      0x20\n      add\n      swap2\n      jump(tag_206)\n    tag_207:\n      dup3\n      add\n      swap2\n      swap1\n      0x00\n      mstore\n      keccak256(0x00, 0x20)\n      swap1\n    tag_208:\n      dup2\n      sload\n      dup2\n      mstore\n      swap1\n      0x01\n      add\n      swap1\n      0x20\n      add\n      dup1\n      dup4\n      gt\n      tag_208\n      jumpi\n      dup3\n      swap1\n      sub\n      0x1f\n      and\n      dup3\n      add\n      swap2\n    tag_206:\n      pop\n      pop\n      pop\n      pop\n      pop\n      swap1\n      pop\n        /* \"PrestacaoServicoSeguro.sol\":4585:4695  function getDescricaoServico() public view returns (string memory) {... */\n      swap1\n      jump\t// out\n        /* \"PrestacaoServicoSeguro.sol\":4703:4799  function getValorServico() public view returns (uint256) {... */\n    tag_68:\n        /* \"PrestacaoServicoSeguro.sol\":4751:4758  uint256 */\n      0x00\n        /* \"PrestacaoServicoSeguro.sol\":4778:4785  servico */\n      0x01\n        /* \"PrestacaoServicoSeguro.sol\":4778:4791  servico.valor */\n      dup1\n      add\n      sload\n        /* \"PrestacaoServicoSeguro.sol\":4771:4791  return servico.valor */\n      swap1\n      pop\n        /* \"PrestacaoServicoSeguro.sol\":4703:4799  function getValorServico() public view returns (uint256) {... */\n      swap1\n      jump\t// out\n        /* \"PrestacaoServicoSeguro.sol\":729:757  address[] public listaPartes */\n    tag_75:\n      0x09\n      dup2\n      dup2\n      sload\n      dup2\n      lt\n      tag_210\n      jumpi\n      0x00\n      dup1\n      revert\n    tag_210:\n      swap1\n      0x00\n      mstore\n      keccak256(0x00, 0x20)\n      add\n      0x00\n      swap2\n      pop\n      sload\n      swap1\n      0x0100\n      exp\n      swap1\n      div\n      0xffffffffffffffffffffffffffffffffffffffff\n      and\n      dup2\n      jump\t// out\n        /* \"PrestacaoServicoSeguro.sol\":683:722  mapping(address => Parte) public partes */\n    tag_81:\n      mstore(0x20, 0x08)\n      dup1\n      0x00\n      mstore\n      keccak256(0x00, 0x40)\n      0x00\n      swap2\n      pop\n      swap1\n      pop\n      dup1\n      0x00\n      add\n      0x00\n      swap1\n      sload\n      swap1\n      0x0100\n      exp\n      swap1\n      div\n      0xffffffffffffffffffffffffffffffffffffffff\n      and\n      swap1\n      dup1\n      0x01\n      add\n      dup1\n      sload\n      tag_212\n      swap1\n      tag_204\n      jump\t// in\n    tag_212:\n      dup1\n      0x1f\n      add\n      0x20\n      dup1\n      swap2\n      div\n      mul\n      0x20\n      add\n      mload(0x40)\n      swap1\n      dup2\n      add\n      0x40\n      mstore\n      dup1\n      swap3\n      swap2\n      swap1\n      dup2\n      dup2\n      mstore\n      0x20\n      add\n      dup3\n      dup1\n      sload\n      tag_213\n      swap1\n      tag_204\n      jump\t// in\n    tag_213:\n      dup1\n      iszero\n      tag_214\n      jumpi\n      dup1\n      0x1f\n      lt\n      tag_215\n      jumpi\n      0x0100\n      dup1\n      dup4\n      sload\n      div\n      mul\n      dup4\n      mstore\n      swap2\n      0x20\n      add\n      swap2\n      jump(tag_214)\n    tag_215:\n      dup3\n      add\n      swap2\n      swap1\n      0x00\n      mstore\n      keccak256(0x00, 0x20)\n      swap1\n    tag_216:\n      dup2\n      sload\n      dup2\n      mstore\n      swap1\n      0x01\n      add\n      swap1\n      0x20\n      add\n      dup1\n      dup4\n      gt\n      tag_216\n      jumpi\n      dup3\n      swap1\n      sub\n      0x1f\n      and\n      dup3\n      add\n      swap2\n    tag_214:\n      pop\n      pop\n      pop\n      pop\n      pop\n      swap1\n      dup1\n      0x02\n      add\n      0x00\n      swap1\n      sload\n      swap1\n      0x0100\n      exp\n      swap1\n      div\n      0xff\n      and\n      swap1\n      pop\n      dup4\n      jump\t// out\n        /* \"PrestacaoServicoSeguro.sol\":5976:6182  function getParte(address _parte) public view returns (address carteira, string memory nome, bool aceitou) {... */\n    tag_87:\n        /* \"PrestacaoServicoSeguro.sol\":6031:6047  address carteira */\n      0x00\n        /* \"PrestacaoServicoSeguro.sol\":6049:6067  string memory nome */\n      0x60\n        /* \"PrestacaoServicoSeguro.sol\":6069:6081  bool aceitou */\n      0x00\n        /* \"PrestacaoServicoSeguro.sol\":6094:6108  Parte memory p */\n      0x00\n        /* \"PrestacaoServicoSeguro.sol\":6111:6117  partes */\n      0x08\n        /* \"PrestacaoServicoSeguro.sol\":6111:6125  partes[_parte] */\n      0x00\n        /* \"PrestacaoServicoSeguro.sol\":6118:6124  _parte */\n      dup7\n        /* \"PrestacaoServicoSeguro.sol\":6111:6125  partes[_parte] */\n      0xffffffffffffffffffffffffffffffffffffffff\n      and\n      0xffffffffffffffffffffffffffffffffffffffff\n      and\n      dup2\n      mstore\n      0x20\n      add\n      swap1\n      dup2\n      mstore\n      0x20\n      add\n      0x00\n      keccak256\n        /* \"PrestacaoServicoSeguro.sol\":6094:6125  Parte memory p = partes[_parte] */\n      mload(0x40)\n      dup1\n      0x60\n      add\n      0x40\n      mstore\n      swap1\n      dup2\n      0x00\n      dup3\n      add\n      0x00\n      swap1\n      sload\n      swap1\n      0x0100\n      exp\n      swap1\n      div\n      0xffffffffffffffffffffffffffffffffffffffff\n      and\n      0xffffffffffffffffffffffffffffffffffffffff\n      and\n      0xffffffffffffffffffffffffffffffffffffffff\n      and\n      dup2\n      mstore\n      0x20\n      add\n      0x01\n      dup3\n      add\n      dup1\n      sload\n      tag_218\n      swap1\n      tag_204\n      jump\t// in\n    tag_218:\n      dup1\n      0x1f\n      add\n      0x20\n      dup1\n      swap2\n      div\n      mul\n      0x20\n      add\n      mload(0x40)\n      swap1\n      dup2\n      add\n      0x40\n      mstore\n      dup1\n      swap3\n      swap2\n      swap1\n      dup2\n      dup2\n      mstore\n      0x20\n      add\n      dup3\n      dup1\n      sload\n      tag_219\n      swap1\n      tag_204\n      jump\t// in\n    tag_219:\n      dup1\n      iszero\n      tag_220\n      jumpi\n      dup1\n      0x1f\n      lt\n      tag_221\n      jumpi\n      0x0100\n      dup1\n      dup4\n      sload\n      div\n      mul\n      dup4\n      mstore\n      swap2\n      0x20\n      add\n      swap2\n      jump(tag_220)\n    tag_221:\n      dup3\n      add\n      swap2\n      swap1\n      0x00\n      mstore\n      keccak256(0x00, 0x20)\n      swap1\n    tag_222:\n      dup2\n      sload\n      dup2\n      mstore\n      swap1\n      0x01\n      add\n      swap1\n      0x20\n      add\n      dup1\n      dup4\n      gt\n      tag_222\n      jumpi\n      dup3\n      swap1\n      sub\n      0x1f\n      and\n      dup3\n      add\n      swap2\n    tag_220:\n      pop\n      pop\n      pop\n      pop\n      pop\n      dup2\n      mstore\n      0x20\n      add\n      0x02\n      dup3\n      add\n      0x00\n      swap1\n      sload\n      swap1\n      0x0100\n      exp\n      swap1\n      div\n      0xff\n      and\n      iszero\n      iszero\n      iszero\n      iszero\n      dup2\n      mstore\n      pop\n      pop\n      swap1\n      pop\n        /* \"PrestacaoServicoSeguro.sol\":6144:6145  p */\n      dup1\n        /* \"PrestacaoServicoSeguro.sol\":6144:6154  p.carteira */\n      0x00\n      add\n      mload\n        /* \"PrestacaoServicoSeguro.sol\":6156:6157  p */\n      dup2\n        /* \"PrestacaoServicoSeguro.sol\":6156:6162  p.nome */\n      0x20\n      add\n      mload\n        /* \"PrestacaoServicoSeguro.sol\":6164:6165  p */\n      dup3\n        /* \"PrestacaoServicoSeguro.sol\":6164:6173  p.aceitou */\n      0x40\n      add\n      mload\n        /* \"PrestacaoServicoSeguro.sol\":6136:6174  return (p.carteira, p.nome, p.aceitou) */\n      swap4\n      pop\n      swap4\n      pop\n      swap4\n      pop\n      pop\n        /* \"PrestacaoServicoSeguro.sol\":5976:6182  function getParte(address _parte) public view returns (address carteira, string memory nome, bool aceitou) {... */\n      swap2\n      swap4\n      swap1\n      swap3\n      pop\n      jump\t// out\n        /* \"PrestacaoServicoSeguro.sol\":5820:5929  function getLinkTermos() public view returns (string memory) {... */\n    tag_91:\n        /* \"PrestacaoServicoSeguro.sol\":5866:5879  string memory */\n      0x60\n        /* \"PrestacaoServicoSeguro.sol\":5899:5906  servico */\n      0x01\n        /* \"PrestacaoServicoSeguro.sol\":5899:5921  servico.ipfsLinkTermos */\n      0x06\n      add\n        /* \"PrestacaoServicoSeguro.sol\":5892:5921  return servico.ipfsLinkTermos */\n      dup1\n      sload\n      tag_224\n      swap1\n      tag_204\n      jump\t// in\n    tag_224:\n      dup1\n      0x1f\n      add\n      0x20\n      dup1\n      swap2\n      div\n      mul\n      0x20\n      add\n      mload(0x40)\n      swap1\n      dup2\n      add\n      0x40\n      mstore\n      dup1\n      swap3\n      swap2\n      swap1\n      dup2\n      dup2\n      mstore\n      0x20\n      add\n      dup3\n      dup1\n      sload\n      tag_225\n      swap1\n      tag_204\n      jump\t// in\n    tag_225:\n      dup1\n      iszero\n      tag_226\n      jumpi\n      dup1\n      0x1f\n      lt\n      tag_227\n      jumpi\n      0x0100\n      dup1\n      dup4\n      sload\n      div\n      mul\n      dup4\n      mstore\n      swap2\n      0x20\n      add\n      swap2\n      jump(tag_226)\n    tag_227:\n      dup3\n      add\n      swap2\n      swap1\n      0x00\n      mstore\n      keccak256(0x00, 0x20)\n      swap1\n    tag_228:\n      dup2\n      sload\n      dup2\n      mstore\n      swap1\n      0x01\n      add\n      swap1\n      0x20\n      add\n      dup1\n      dup4\n      gt\n      tag_228\n      jumpi\n      dup3\n      swap1\n      sub\n      0x1f\n      and\n      dup3\n      add\n      swap2\n    tag_226:\n      pop\n      pop\n      pop\n      pop\n      pop\n      swap1\n      pop\n        /* \"PrestacaoServicoSeguro.sol\":5820:5929  function getLinkTermos() public view returns (string memory) {... */\n      swap1\n      jump\t// out\n        /* \"PrestacaoServicoSeguro.sol\":4807:5249  function getStatusServico() public view returns (string memory) {... */\n    tag_95:\n        /* \"PrestacaoServicoSeguro.sol\":4856:4869  string memory */\n      0x60\n        /* \"PrestacaoServicoSeguro.sol\":4904:4917  Status.Criado */\n      0x00\n        /* \"PrestacaoServicoSeguro.sol\":4886:4917  servico.status == Status.Criado */\n      0x04\n      dup2\n      gt\n      iszero\n      tag_230\n      jumpi\n      tag_231\n      tag_128\n      jump\t// in\n    tag_231:\n    tag_230:\n        /* \"PrestacaoServicoSeguro.sol\":4886:4893  servico */\n      0x01\n        /* \"PrestacaoServicoSeguro.sol\":4886:4900  servico.status */\n      0x02\n      add\n      0x00\n      swap1\n      sload\n      swap1\n      0x0100\n      exp\n      swap1\n      div\n      0xff\n      and\n        /* \"PrestacaoServicoSeguro.sol\":4886:4917  servico.status == Status.Criado */\n      0x04\n      dup2\n      gt\n      iszero\n      tag_232\n      jumpi\n      tag_233\n      tag_128\n      jump\t// in\n    tag_233:\n    tag_232:\n      sub\n        /* \"PrestacaoServicoSeguro.sol\":4882:4934  if (servico.status == Status.Criado) return \"Criado\" */\n      tag_234\n      jumpi\n        /* \"PrestacaoServicoSeguro.sol\":4919:4934  return \"Criado\" */\n      mload(0x40)\n      dup1\n      0x40\n      add\n      0x40\n      mstore\n      dup1\n      0x06\n      dup2\n      mstore\n      0x20\n      add\n      0x43726961646f0000000000000000000000000000000000000000000000000000\n      dup2\n      mstore\n      pop\n      swap1\n      pop\n      jump(tag_229)\n        /* \"PrestacaoServicoSeguro.sol\":4882:4934  if (servico.status == Status.Criado) return \"Criado\" */\n    tag_234:\n        /* \"PrestacaoServicoSeguro.sol\":4967:4980  Status.Aceito */\n      0x01\n        /* \"PrestacaoServicoSeguro.sol\":4949:4980  servico.status == Status.Aceito */\n      0x04\n      dup2\n      gt\n      iszero\n      tag_235\n      jumpi\n      tag_236\n      tag_128\n      jump\t// in\n    tag_236:\n    tag_235:\n        /* \"PrestacaoServicoSeguro.sol\":4949:4956  servico */\n      0x01\n        /* \"PrestacaoServicoSeguro.sol\":4949:4963  servico.status */\n      0x02\n      add\n      0x00\n      swap1\n      sload\n      swap1\n      0x0100\n      exp\n      swap1\n      div\n      0xff\n      and\n        /* \"PrestacaoServicoSeguro.sol\":4949:4980  servico.status == Status.Aceito */\n      0x04\n      dup2\n      gt\n      iszero\n      tag_237\n      jumpi\n      tag_238\n      tag_128\n      jump\t// in\n    tag_238:\n    tag_237:\n      sub\n        /* \"PrestacaoServicoSeguro.sol\":4945:4997  if (servico.status == Status.Aceito) return \"Aceito\" */\n      tag_239\n      jumpi\n        /* \"PrestacaoServicoSeguro.sol\":4982:4997  return \"Aceito\" */\n      mload(0x40)\n      dup1\n      0x40\n      add\n      0x40\n      mstore\n      dup1\n      0x06\n      dup2\n      mstore\n      0x20\n      add\n      0x41636569746f0000000000000000000000000000000000000000000000000000\n      dup2\n      mstore\n      pop\n      swap1\n      pop\n      jump(tag_229)\n        /* \"PrestacaoServicoSeguro.sol\":4945:4997  if (servico.status == Status.Aceito) return \"Aceito\" */\n    tag_239:\n        /* \"PrestacaoServicoSeguro.sol\":5030:5048  Status.EmAndamento */\n      0x02\n        /* \"PrestacaoServicoSeguro.sol\":5012:5048  servico.status == Status.EmAndamento */\n      0x04\n      dup2\n      gt\n      iszero\n      tag_240\n      jumpi\n      tag_241\n      tag_128\n      jump\t// in\n    tag_241:\n    tag_240:\n        /* \"PrestacaoServicoSeguro.sol\":5012:5019  servico */\n      0x01\n        /* \"PrestacaoServicoSeguro.sol\":5012:5026  servico.status */\n      0x02\n      add\n      0x00\n      swap1\n      sload\n      swap1\n      0x0100\n      exp\n      swap1\n      div\n      0xff\n      and\n        /* \"PrestacaoServicoSeguro.sol\":5012:5048  servico.status == Status.EmAndamento */\n      0x04\n      dup2\n      gt\n      iszero\n      tag_242\n      jumpi\n      tag_243\n      tag_128\n      jump\t// in\n    tag_243:\n    tag_242:\n      sub\n        /* \"PrestacaoServicoSeguro.sol\":5008:5071  if (servico.status == Status.EmAndamento) return \"Em andamento\" */\n      tag_244\n      jumpi\n        /* \"PrestacaoServicoSeguro.sol\":5050:5071  return \"Em andamento\" */\n      mload(0x40)\n      dup1\n      0x40\n      add\n      0x40\n      mstore\n      dup1\n      0x0c\n      dup2\n      mstore\n      0x20\n      add\n      0x456d20616e64616d656e746f0000000000000000000000000000000000000000\n      dup2\n      mstore\n      pop\n      swap1\n      pop\n      jump(tag_229)\n        /* \"PrestacaoServicoSeguro.sol\":5008:5071  if (servico.status == Status.EmAndamento) return \"Em andamento\" */\n    tag_244:\n        /* \"PrestacaoServicoSeguro.sol\":5104:5120  Status.Concluido */\n      0x03\n        /* \"PrestacaoServicoSeguro.sol\":5086:5120  servico.status == Status.Concluido */\n      0x04\n      dup2\n      gt\n      iszero\n      tag_245\n      jumpi\n      tag_246\n      tag_128\n      jump\t// in\n    tag_246:\n    tag_245:\n        /* \"PrestacaoServicoSeguro.sol\":5086:5093  servico */\n      0x01\n        /* \"PrestacaoServicoSeguro.sol\":5086:5100  servico.status */\n      0x02\n      add\n      0x00\n      swap1\n      sload\n      swap1\n      0x0100\n      exp\n      swap1\n      div\n      0xff\n      and\n        /* \"PrestacaoServicoSeguro.sol\":5086:5120  servico.status == Status.Concluido */\n      0x04\n      dup2\n      gt\n      iszero\n      tag_247\n      jumpi\n      tag_248\n      tag_128\n      jump\t// in\n    tag_248:\n    tag_247:\n      sub\n        /* \"PrestacaoServicoSeguro.sol\":5082:5140  if (servico.status == Status.Concluido) return \"Concluido\" */\n      tag_249\n      jumpi\n        /* \"PrestacaoServicoSeguro.sol\":5122:5140  return \"Concluido\" */\n      mload(0x40)\n      dup1\n      0x40\n      add\n      0x40\n      mstore\n      dup1\n      0x09\n      dup2\n      mstore\n      0x20\n      add\n      0x436f6e636c7569646f0000000000000000000000000000000000000000000000\n      dup2\n      mstore\n      pop\n      swap1\n      pop\n      jump(tag_229)\n        /* \"PrestacaoServicoSeguro.sol\":5082:5140  if (servico.status == Status.Concluido) return \"Concluido\" */\n    tag_249:\n        /* \"PrestacaoServicoSeguro.sol\":5173:5189  Status.Cancelado */\n      0x04\n        /* \"PrestacaoServicoSeguro.sol\":5155:5189  servico.status == Status.Cancelado */\n      dup1\n      dup2\n      gt\n      iszero\n      tag_250\n      jumpi\n      tag_251\n      tag_128\n      jump\t// in\n    tag_251:\n    tag_250:\n        /* \"PrestacaoServicoSeguro.sol\":5155:5162  servico */\n      0x01\n        /* \"PrestacaoServicoSeguro.sol\":5155:5169  servico.status */\n      0x02\n      add\n      0x00\n      swap1\n      sload\n      swap1\n      0x0100\n      exp\n      swap1\n      div\n      0xff\n      and\n        /* \"PrestacaoServicoSeguro.sol\":5155:5189  servico.status == Status.Cancelado */\n      0x04\n      dup2\n      gt\n      iszero\n      tag_252\n      jumpi\n      tag_253\n      tag_128\n      jump\t// in\n    tag_253:\n    tag_252:\n      sub\n        /* \"PrestacaoServicoSeguro.sol\":5151:5209  if (servico.status == Status.Cancelado) return \"Cancelado\" */\n      tag_254\n      jumpi\n        /* \"PrestacaoServicoSeguro.sol\":5191:5209  return \"Cancelado\" */\n      mload(0x40)\n      dup1\n      0x40\n      add\n      0x40\n      mstore\n      dup1\n      0x09\n      dup2\n      mstore\n      0x20\n      add\n      0x43616e63656c61646f0000000000000000000000000000000000000000000000\n      dup2\n      mstore\n      pop\n      swap1\n      pop\n      jump(tag_229)\n        /* \"PrestacaoServicoSeguro.sol\":5151:5209  if (servico.status == Status.Cancelado) return \"Cancelado\" */\n    tag_254:\n        /* \"PrestacaoServicoSeguro.sol\":5220:5241  return \"Desconhecido\" */\n      mload(0x40)\n      dup1\n      0x40\n      add\n      0x40\n      mstore\n      dup1\n      0x0c\n      dup2\n      mstore\n      0x20\n      add\n      0x446573636f6e68656369646f0000000000000000000000000000000000000000\n      dup2\n      mstore\n      pop\n      swap1\n      pop\n        /* \"PrestacaoServicoSeguro.sol\":4807:5249  function getStatusServico() public view returns (string memory) {... */\n    tag_229:\n      swap1\n      jump\t// out\n        /* \"PrestacaoServicoSeguro.sol\":5366:5465  function getContratado() public view returns (address) {... */\n    tag_99:\n        /* \"PrestacaoServicoSeguro.sol\":5412:5419  address */\n      0x00\n        /* \"PrestacaoServicoSeguro.sol\":5439:5446  servico */\n      0x01\n        /* \"PrestacaoServicoSeguro.sol\":5439:5457  servico.contratado */\n      0x02\n      add\n      0x01\n      swap1\n      sload\n      swap1\n      0x0100\n      exp\n      swap1\n      div\n      0xffffffffffffffffffffffffffffffffffffffff\n      and\n        /* \"PrestacaoServicoSeguro.sol\":5432:5457  return servico.contratado */\n      swap1\n      pop\n        /* \"PrestacaoServicoSeguro.sol\":5366:5465  function getContratado() public view returns (address) {... */\n      swap1\n      jump\t// out\n        /* \"PrestacaoServicoSeguro.sol\":5473:5578  function getIntermediador() public view returns (address) {... */\n    tag_103:\n        /* \"PrestacaoServicoSeguro.sol\":5522:5529  address */\n      0x00\n        /* \"PrestacaoServicoSeguro.sol\":5549:5556  servico */\n      0x01\n        /* \"PrestacaoServicoSeguro.sol\":5549:5570  servico.intermediador */\n      0x04\n      add\n      0x00\n      swap1\n      sload\n      swap1\n      0x0100\n      exp\n      swap1\n      div\n      0xffffffffffffffffffffffffffffffffffffffff\n      and\n        /* \"PrestacaoServicoSeguro.sol\":5542:5570  return servico.intermediador */\n      swap1\n      pop\n        /* \"PrestacaoServicoSeguro.sol\":5473:5578  function getIntermediador() public view returns (address) {... */\n      swap1\n      jump\t// out\n        /* \"PrestacaoServicoSeguro.sol\":654:676  Servico public servico */\n    tag_107:\n      0x01\n      dup1\n      0x00\n      add\n      dup1\n      sload\n      tag_257\n      swap1\n      tag_204\n      jump\t// in\n    tag_257:\n      dup1\n      0x1f\n      add\n      0x20\n      dup1\n      swap2\n      div\n      mul\n      0x20\n      add\n      mload(0x40)\n      swap1\n      dup2\n      add\n      0x40\n      mstore\n      dup1\n      swap3\n      swap2\n      swap1\n      dup2\n      dup2\n      mstore\n      0x20\n      add\n      dup3\n      dup1\n      sload\n      tag_258\n      swap1\n      tag_204\n      jump\t// in\n    tag_258:\n      dup1\n      iszero\n      tag_259\n      jumpi\n      dup1\n      0x1f\n      lt\n      tag_260\n      jumpi\n      0x0100\n      dup1\n      dup4\n      sload\n      div\n      mul\n      dup4\n      mstore\n      swap2\n      0x20\n      add\n      swap2\n      jump(tag_259)\n    tag_260:\n      dup3\n      add\n      swap2\n      swap1\n      0x00\n      mstore\n      keccak256(0x00, 0x20)\n      swap1\n    tag_261:\n      dup2\n      sload\n      dup2\n      mstore\n      swap1\n      0x01\n      add\n      swap1\n      0x20\n      add\n      dup1\n      dup4\n      gt\n      tag_261\n      jumpi\n      dup3\n      swap1\n      sub\n      0x1f\n      and\n      dup3\n      add\n      swap2\n    tag_259:\n      pop\n      pop\n      pop\n      pop\n      pop\n      swap1\n      dup1\n      0x01\n      add\n      sload\n      swap1\n      dup1\n      0x02\n      add\n      0x00\n      swap1\n      sload\n      swap1\n      0x0100\n      exp\n      swap1\n      div\n      0xff\n      and\n      swap1\n      dup1\n      0x02\n      add\n      0x01\n      swap1\n      sload\n      swap1\n      0x0100\n      exp\n      swap1\n      div\n      0xffffffffffffffffffffffffffffffffffffffff\n      and\n      swap1\n      dup1\n      0x03\n      add\n      0x00\n      swap1\n      sload\n      swap1\n      0x0100\n      exp\n      swap1\n      div\n      0xffffffffffffffffffffffffffffffffffffffff\n      and\n      swap1\n      dup1\n      0x04\n      add\n      0x00\n      swap1\n      sload\n      swap1\n      0x0100\n      exp\n      swap1\n      div\n      0xffffffffffffffffffffffffffffffffffffffff\n      and\n      swap1\n      dup1\n      0x05\n      add\n      0x00\n      swap1\n      sload\n      swap1\n      0x0100\n      exp\n      swap1\n      div\n      0xffffffffffffffffffffffffffffffffffffffff\n      and\n      swap1\n      dup1\n      0x05\n      add\n      0x14\n      swap1\n      sload\n      swap1\n      0x0100\n      exp\n      swap1\n      div\n      0xff\n      and\n      swap1\n      dup1\n      0x06\n      add\n      dup1\n      sload\n      tag_262\n      swap1\n      tag_204\n      jump\t// in\n    tag_262:\n      dup1\n      0x1f\n      add\n      0x20\n      dup1\n      swap2\n      div\n      mul\n      0x20\n      add\n      mload(0x40)\n      swap1\n      dup2\n      add\n      0x40\n      mstore\n      dup1\n      swap3\n      swap2\n      swap1\n      dup2\n      dup2\n      mstore\n      0x20\n      add\n      dup3\n      dup1\n      sload\n      tag_263\n      swap1\n      tag_204\n      jump\t// in\n    tag_263:\n      dup1\n      iszero\n      tag_264\n      jumpi\n      dup1\n      0x1f\n      lt\n      tag_265\n      jumpi\n      0x0100\n      dup1\n      dup4\n      sload\n      div\n      mul\n      dup4\n      mstore\n      swap2\n      0x20\n      add\n      swap2\n      jump(tag_264)\n    tag_265:\n      dup3\n      add\n      swap2\n      swap1\n      0x00\n      mstore\n      keccak256(0x00, 0x20)\n      swap1\n    tag_266:\n      dup2\n      sload\n      dup2\n      mstore\n      swap1\n      0x01\n      add\n      swap1\n      0x20\n      add\n      dup1\n      dup4\n      gt\n      tag_266\n      jumpi\n      dup3\n      swap1\n      sub\n      0x1f\n      and\n      dup3\n      add\n      swap2\n    tag_264:\n      pop\n      pop\n      pop\n      pop\n      pop\n      swap1\n      pop\n      dup10\n      jump\t// out\n        /* \"@openzeppelin/contracts/security/ReentrancyGuard.sol\":2336:2623  function _nonReentrantBefore() private {... */\n    tag_131:\n        /* \"@openzeppelin/contracts/security/ReentrancyGuard.sol\":1759:1760  2 */\n      0x02\n        /* \"@openzeppelin/contracts/security/ReentrancyGuard.sol\":2468:2475  _status */\n      sload(0x00)\n        /* \"@openzeppelin/contracts/security/ReentrancyGuard.sol\":2468:2487  _status != _ENTERED */\n      sub\n        /* \"@openzeppelin/contracts/security/ReentrancyGuard.sol\":2460:2523  require(_status != _ENTERED, \"ReentrancyGuard: reentrant call\") */\n      tag_268\n      jumpi\n      mload(0x40)\n      0x08c379a000000000000000000000000000000000000000000000000000000000\n      dup2\n      mstore\n      0x04\n      add\n      tag_269\n      swap1\n      tag_270\n      jump\t// in\n    tag_269:\n      mload(0x40)\n      dup1\n      swap2\n      sub\n      swap1\n      revert\n    tag_268:\n        /* \"@openzeppelin/contracts/security/ReentrancyGuard.sol\":1759:1760  2 */\n      0x02\n        /* \"@openzeppelin/contracts/security/ReentrancyGuard.sol\":2598:2605  _status */\n      0x00\n        /* \"@openzeppelin/contracts/security/ReentrancyGuard.sol\":2598:2616  _status = _ENTERED */\n      dup2\n      swap1\n      sstore\n      pop\n        /* \"@openzeppelin/contracts/security/ReentrancyGuard.sol\":2336:2623  function _nonReentrantBefore() private {... */\n      jump\t// out\n        /* \"@openzeppelin/contracts/security/ReentrancyGuard.sol\":2629:2838  function _nonReentrantAfter() private {... */\n    tag_155:\n        /* \"@openzeppelin/contracts/security/ReentrancyGuard.sol\":1716:1717  1 */\n      0x01\n        /* \"@openzeppelin/contracts/security/ReentrancyGuard.sol\":2809:2816  _status */\n      0x00\n        /* \"@openzeppelin/contracts/security/ReentrancyGuard.sol\":2809:2831  _status = _NOT_ENTERED */\n      dup2\n      swap1\n      sstore\n      pop\n        /* \"@openzeppelin/contracts/security/ReentrancyGuard.sol\":2629:2838  function _nonReentrantAfter() private {... */\n      jump\t// out\n        /* \"#utility.yul\":7:97   */\n    tag_272:\n        /* \"#utility.yul\":41:48   */\n      0x00\n        /* \"#utility.yul\":84:89   */\n      dup2\n        /* \"#utility.yul\":77:90   */\n      iszero\n        /* \"#utility.yul\":70:91   */\n      iszero\n        /* \"#utility.yul\":59:91   */\n      swap1\n      pop\n        /* \"#utility.yul\":7:97   */\n      swap2\n      swap1\n      pop\n      jump\t// out\n        /* \"#utility.yul\":103:212   */\n    tag_273:\n        /* \"#utility.yul\":184:205   */\n      tag_332\n        /* \"#utility.yul\":199:204   */\n      dup2\n        /* \"#utility.yul\":184:205   */\n      tag_272\n      jump\t// in\n    tag_332:\n        /* \"#utility.yul\":179:182   */\n      dup3\n        /* \"#utility.yul\":172:206   */\n      mstore\n        /* \"#utility.yul\":103:212   */\n      pop\n      pop\n      jump\t// out\n        /* \"#utility.yul\":218:428   */\n    tag_37:\n        /* \"#utility.yul\":305:309   */\n      0x00\n        /* \"#utility.yul\":343:345   */\n      0x20\n        /* \"#utility.yul\":332:341   */\n      dup3\n        /* \"#utility.yul\":328:346   */\n      add\n        /* \"#utility.yul\":320:346   */\n      swap1\n      pop\n        /* \"#utility.yul\":356:421   */\n      tag_334\n        /* \"#utility.yul\":418:419   */\n      0x00\n        /* \"#utility.yul\":407:416   */\n      dup4\n        /* \"#utility.yul\":403:420   */\n      add\n        /* \"#utility.yul\":394:400   */\n      dup5\n        /* \"#utility.yul\":356:421   */\n      tag_273\n      jump\t// in\n    tag_334:\n        /* \"#utility.yul\":218:428   */\n      swap3\n      swap2\n      pop\n      pop\n      jump\t// out\n        /* \"#utility.yul\":434:560   */\n    tag_274:\n        /* \"#utility.yul\":471:478   */\n      0x00\n        /* \"#utility.yul\":511:553   */\n      0xffffffffffffffffffffffffffffffffffffffff\n        /* \"#utility.yul\":504:509   */\n      dup3\n        /* \"#utility.yul\":500:554   */\n      and\n        /* \"#utility.yul\":489:554   */\n      swap1\n      pop\n        /* \"#utility.yul\":434:560   */\n      swap2\n      swap1\n      pop\n      jump\t// out\n        /* \"#utility.yul\":566:662   */\n    tag_275:\n        /* \"#utility.yul\":603:610   */\n      0x00\n        /* \"#utility.yul\":632:656   */\n      tag_337\n        /* \"#utility.yul\":650:655   */\n      dup3\n        /* \"#utility.yul\":632:656   */\n      tag_274\n      jump\t// in\n    tag_337:\n        /* \"#utility.yul\":621:656   */\n      swap1\n      pop\n        /* \"#utility.yul\":566:662   */\n      swap2\n      swap1\n      pop\n      jump\t// out\n        /* \"#utility.yul\":668:786   */\n    tag_276:\n        /* \"#utility.yul\":755:779   */\n      tag_339\n        /* \"#utility.yul\":773:778   */\n      dup2\n        /* \"#utility.yul\":755:779   */\n      tag_275\n      jump\t// in\n    tag_339:\n        /* \"#utility.yul\":750:753   */\n      dup3\n        /* \"#utility.yul\":743:780   */\n      mstore\n        /* \"#utility.yul\":668:786   */\n      pop\n      pop\n      jump\t// out\n        /* \"#utility.yul\":792:1014   */\n    tag_45:\n        /* \"#utility.yul\":885:889   */\n      0x00\n        /* \"#utility.yul\":923:925   */\n      0x20\n        /* \"#utility.yul\":912:921   */\n      dup3\n        /* \"#utility.yul\":908:926   */\n      add\n        /* \"#utility.yul\":900:926   */\n      swap1\n      pop\n        /* \"#utility.yul\":936:1007   */\n      tag_341\n        /* \"#utility.yul\":1004:1005   */\n      0x00\n        /* \"#utility.yul\":993:1002   */\n      dup4\n        /* \"#utility.yul\":989:1006   */\n      add\n        /* \"#utility.yul\":980:986   */\n      dup5\n        /* \"#utility.yul\":936:1007   */\n      tag_276\n      jump\t// in\n    tag_341:\n        /* \"#utility.yul\":792:1014   */\n      swap3\n      swap2\n      pop\n      pop\n      jump\t// out\n        /* \"#utility.yul\":1020:1134   */\n    tag_277:\n        /* \"#utility.yul\":1087:1093   */\n      0x00\n        /* \"#utility.yul\":1121:1126   */\n      dup2\n        /* \"#utility.yul\":1115:1127   */\n      mload\n        /* \"#utility.yul\":1105:1127   */\n      swap1\n      pop\n        /* \"#utility.yul\":1020:1134   */\n      swap2\n      swap1\n      pop\n      jump\t// out\n        /* \"#utility.yul\":1140:1324   */\n    tag_278:\n        /* \"#utility.yul\":1239:1250   */\n      0x00\n        /* \"#utility.yul\":1273:1279   */\n      dup3\n        /* \"#utility.yul\":1268:1271   */\n      dup3\n        /* \"#utility.yul\":1261:1280   */\n      mstore\n        /* \"#utility.yul\":1313:1317   */\n      0x20\n        /* \"#utility.yul\":1308:1311   */\n      dup3\n        /* \"#utility.yul\":1304:1318   */\n      add\n        /* \"#utility.yul\":1289:1318   */\n      swap1\n      pop\n        /* \"#utility.yul\":1140:1324   */\n      swap3\n      swap2\n      pop\n      pop\n      jump\t// out\n        /* \"#utility.yul\":1330:1462   */\n    tag_279:\n        /* \"#utility.yul\":1397:1401   */\n      0x00\n        /* \"#utility.yul\":1420:1423   */\n      dup2\n        /* \"#utility.yul\":1412:1423   */\n      swap1\n      pop\n        /* \"#utility.yul\":1450:1454   */\n      0x20\n        /* \"#utility.yul\":1445:1448   */\n      dup3\n        /* \"#utility.yul\":1441:1455   */\n      add\n        /* \"#utility.yul\":1433:1455   */\n      swap1\n      pop\n        /* \"#utility.yul\":1330:1462   */\n      swap2\n      swap1\n      pop\n      jump\t// out\n        /* \"#utility.yul\":1468:1576   */\n    tag_280:\n        /* \"#utility.yul\":1545:1569   */\n      tag_346\n        /* \"#utility.yul\":1563:1568   */\n      dup2\n        /* \"#utility.yul\":1545:1569   */\n      tag_275\n      jump\t// in\n    tag_346:\n        /* \"#utility.yul\":1540:1543   */\n      dup3\n        /* \"#utility.yul\":1533:1570   */\n      mstore\n        /* \"#utility.yul\":1468:1576   */\n      pop\n      pop\n      jump\t// out\n        /* \"#utility.yul\":1582:1761   */\n    tag_281:\n        /* \"#utility.yul\":1651:1661   */\n      0x00\n        /* \"#utility.yul\":1672:1718   */\n      tag_348\n        /* \"#utility.yul\":1714:1717   */\n      dup4\n        /* \"#utility.yul\":1706:1712   */\n      dup4\n        /* \"#utility.yul\":1672:1718   */\n      tag_280\n      jump\t// in\n    tag_348:\n        /* \"#utility.yul\":1750:1754   */\n      0x20\n        /* \"#utility.yul\":1745:1748   */\n      dup4\n        /* \"#utility.yul\":1741:1755   */\n      add\n        /* \"#utility.yul\":1727:1755   */\n      swap1\n      pop\n        /* \"#utility.yul\":1582:1761   */\n      swap3\n      swap2\n      pop\n      pop\n      jump\t// out\n        /* \"#utility.yul\":1767:1880   */\n    tag_282:\n        /* \"#utility.yul\":1837:1841   */\n      0x00\n        /* \"#utility.yul\":1869:1873   */\n      0x20\n        /* \"#utility.yul\":1864:1867   */\n      dup3\n        /* \"#utility.yul\":1860:1874   */\n      add\n        /* \"#utility.yul\":1852:1874   */\n      swap1\n      pop\n        /* \"#utility.yul\":1767:1880   */\n      swap2\n      swap1\n      pop\n      jump\t// out\n        /* \"#utility.yul\":1916:2648   */\n    tag_283:\n        /* \"#utility.yul\":2035:2038   */\n      0x00\n        /* \"#utility.yul\":2064:2118   */\n      tag_351\n        /* \"#utility.yul\":2112:2117   */\n      dup3\n        /* \"#utility.yul\":2064:2118   */\n      tag_277\n      jump\t// in\n    tag_351:\n        /* \"#utility.yul\":2134:2220   */\n      tag_352\n        /* \"#utility.yul\":2213:2219   */\n      dup2\n        /* \"#utility.yul\":2208:2211   */\n      dup6\n        /* \"#utility.yul\":2134:2220   */\n      tag_278\n      jump\t// in\n    tag_352:\n        /* \"#utility.yul\":2127:2220   */\n      swap4\n      pop\n        /* \"#utility.yul\":2244:2300   */\n      tag_353\n        /* \"#utility.yul\":2294:2299   */\n      dup4\n        /* \"#utility.yul\":2244:2300   */\n      tag_279\n      jump\t// in\n    tag_353:\n        /* \"#utility.yul\":2323:2330   */\n      dup1\n        /* \"#utility.yul\":2354:2355   */\n      0x00\n        /* \"#utility.yul\":2339:2623   */\n    tag_354:\n        /* \"#utility.yul\":2364:2370   */\n      dup4\n        /* \"#utility.yul\":2361:2362   */\n      dup2\n        /* \"#utility.yul\":2358:2371   */\n      lt\n        /* \"#utility.yul\":2339:2623   */\n      iszero\n      tag_356\n      jumpi\n        /* \"#utility.yul\":2440:2446   */\n      dup2\n        /* \"#utility.yul\":2434:2447   */\n      mload\n        /* \"#utility.yul\":2467:2530   */\n      tag_357\n        /* \"#utility.yul\":2526:2529   */\n      dup9\n        /* \"#utility.yul\":2511:2524   */\n      dup3\n        /* \"#utility.yul\":2467:2530   */\n      tag_281\n      jump\t// in\n    tag_357:\n        /* \"#utility.yul\":2460:2530   */\n      swap8\n      pop\n        /* \"#utility.yul\":2553:2613   */\n      tag_358\n        /* \"#utility.yul\":2606:2612   */\n      dup4\n        /* \"#utility.yul\":2553:2613   */\n      tag_282\n      jump\t// in\n    tag_358:\n        /* \"#utility.yul\":2543:2613   */\n      swap3\n      pop\n        /* \"#utility.yul\":2399:2623   */\n      pop\n        /* \"#utility.yul\":2386:2387   */\n      0x01\n        /* \"#utility.yul\":2383:2384   */\n      dup2\n        /* \"#utility.yul\":2379:2388   */\n      add\n        /* \"#utility.yul\":2374:2388   */\n      swap1\n      pop\n        /* \"#utility.yul\":2339:2623   */\n      jump(tag_354)\n    tag_356:\n        /* \"#utility.yul\":2343:2357   */\n      pop\n        /* \"#utility.yul\":2639:2642   */\n      dup6\n        /* \"#utility.yul\":2632:2642   */\n      swap4\n      pop\n        /* \"#utility.yul\":2040:2648   */\n      pop\n      pop\n      pop\n        /* \"#utility.yul\":1916:2648   */\n      swap3\n      swap2\n      pop\n      pop\n      jump\t// out\n        /* \"#utility.yul\":2654:3027   */\n    tag_60:\n        /* \"#utility.yul\":2797:2801   */\n      0x00\n        /* \"#utility.yul\":2835:2837   */\n      0x20\n        /* \"#utility.yul\":2824:2833   */\n      dup3\n        /* \"#utility.yul\":2820:2838   */\n      add\n        /* \"#utility.yul\":2812:2838   */\n      swap1\n      pop\n        /* \"#utility.yul\":2884:2893   */\n      dup2\n        /* \"#utility.yul\":2878:2882   */\n      dup2\n        /* \"#utility.yul\":2874:2894   */\n      sub\n        /* \"#utility.yul\":2870:2871   */\n      0x00\n        /* \"#utility.yul\":2859:2868   */\n      dup4\n        /* \"#utility.yul\":2855:2872   */\n      add\n        /* \"#utility.yul\":2848:2895   */\n      mstore\n        /* \"#utility.yul\":2912:3020   */\n      tag_360\n        /* \"#utility.yul\":3015:3019   */\n      dup2\n        /* \"#utility.yul\":3006:3012   */\n      dup5\n        /* \"#utility.yul\":2912:3020   */\n      tag_283\n      jump\t// in\n    tag_360:\n        /* \"#utility.yul\":2904:3020   */\n      swap1\n      pop\n        /* \"#utility.yul\":2654:3027   */\n      swap3\n      swap2\n      pop\n      pop\n      jump\t// out\n        /* \"#utility.yul\":3033:3132   */\n    tag_284:\n        /* \"#utility.yul\":3085:3091   */\n      0x00\n        /* \"#utility.yul\":3119:3124   */\n      dup2\n        /* \"#utility.yul\":3113:3125   */\n      mload\n        /* \"#utility.yul\":3103:3125   */\n      swap1\n      pop\n        /* \"#utility.yul\":3033:3132   */\n      swap2\n      swap1\n      pop\n      jump\t// out\n        /* \"#utility.yul\":3138:3307   */\n    tag_285:\n        /* \"#utility.yul\":3222:3233   */\n      0x00\n        /* \"#utility.yul\":3256:3262   */\n      dup3\n        /* \"#utility.yul\":3251:3254   */\n      dup3\n        /* \"#utility.yul\":3244:3263   */\n      mstore\n        /* \"#utility.yul\":3296:3300   */\n      0x20\n        /* \"#utility.yul\":3291:3294   */\n      dup3\n        /* \"#utility.yul\":3287:3301   */\n      add\n        /* \"#utility.yul\":3272:3301   */\n      swap1\n      pop\n        /* \"#utility.yul\":3138:3307   */\n      swap3\n      swap2\n      pop\n      pop\n      jump\t// out\n        /* \"#utility.yul\":3313:3452   */\n    tag_286:\n        /* \"#utility.yul\":3402:3408   */\n      dup3\n        /* \"#utility.yul\":3397:3400   */\n      dup2\n        /* \"#utility.yul\":3392:3395   */\n      dup4\n        /* \"#utility.yul\":3386:3409   */\n      mcopy\n        /* \"#utility.yul\":3443:3444   */\n      0x00\n        /* \"#utility.yul\":3434:3440   */\n      dup4\n        /* \"#utility.yul\":3429:3432   */\n      dup4\n        /* \"#utility.yul\":3425:3441   */\n      add\n        /* \"#utility.yul\":3418:3445   */\n      mstore\n        /* \"#utility.yul\":3313:3452   */\n      pop\n      pop\n      pop\n      jump\t// out\n        /* \"#utility.yul\":3458:3560   */\n    tag_287:\n        /* \"#utility.yul\":3499:3505   */\n      0x00\n        /* \"#utility.yul\":3550:3552   */\n      0x1f\n        /* \"#utility.yul\":3546:3553   */\n      not\n        /* \"#utility.yul\":3541:3543   */\n      0x1f\n        /* \"#utility.yul\":3534:3539   */\n      dup4\n        /* \"#utility.yul\":3530:3544   */\n      add\n        /* \"#utility.yul\":3526:3554   */\n      and\n        /* \"#utility.yul\":3516:3554   */\n      swap1\n      pop\n        /* \"#utility.yul\":3458:3560   */\n      swap2\n      swap1\n      pop\n      jump\t// out\n        /* \"#utility.yul\":3566:3943   */\n    tag_288:\n        /* \"#utility.yul\":3654:3657   */\n      0x00\n        /* \"#utility.yul\":3682:3721   */\n      tag_366\n        /* \"#utility.yul\":3715:3720   */\n      dup3\n        /* \"#utility.yul\":3682:3721   */\n      tag_284\n      jump\t// in\n    tag_366:\n        /* \"#utility.yul\":3737:3808   */\n      tag_367\n        /* \"#utility.yul\":3801:3807   */\n      dup2\n        /* \"#utility.yul\":3796:3799   */\n      dup6\n        /* \"#utility.yul\":3737:3808   */\n      tag_285\n      jump\t// in\n    tag_367:\n        /* \"#utility.yul\":3730:3808   */\n      swap4\n      pop\n        /* \"#utility.yul\":3817:3882   */\n      tag_368\n        /* \"#utility.yul\":3875:3881   */\n      dup2\n        /* \"#utility.yul\":3870:3873   */\n      dup6\n        /* \"#utility.yul\":3863:3867   */\n      0x20\n        /* \"#utility.yul\":3856:3861   */\n      dup7\n        /* \"#utility.yul\":3852:3868   */\n      add\n        /* \"#utility.yul\":3817:3882   */\n      tag_286\n      jump\t// in\n    tag_368:\n        /* \"#utility.yul\":3907:3936   */\n      tag_369\n        /* \"#utility.yul\":3929:3935   */\n      dup2\n        /* \"#utility.yul\":3907:3936   */\n      tag_287\n      jump\t// in\n    tag_369:\n        /* \"#utility.yul\":3902:3905   */\n      dup5\n        /* \"#utility.yul\":3898:3937   */\n      add\n        /* \"#utility.yul\":3891:3937   */\n      swap2\n      pop\n        /* \"#utility.yul\":3658:3943   */\n      pop\n        /* \"#utility.yul\":3566:3943   */\n      swap3\n      swap2\n      pop\n      pop\n      jump\t// out\n        /* \"#utility.yul\":3949:4262   */\n    tag_65:\n        /* \"#utility.yul\":4062:4066   */\n      0x00\n        /* \"#utility.yul\":4100:4102   */\n      0x20\n        /* \"#utility.yul\":4089:4098   */\n      dup3\n        /* \"#utility.yul\":4085:4103   */\n      add\n        /* \"#utility.yul\":4077:4103   */\n      swap1\n      pop\n        /* \"#utility.yul\":4149:4158   */\n      dup2\n        /* \"#utility.yul\":4143:4147   */\n      dup2\n        /* \"#utility.yul\":4139:4159   */\n      sub\n        /* \"#utility.yul\":4135:4136   */\n      0x00\n        /* \"#utility.yul\":4124:4133   */\n      dup4\n        /* \"#utility.yul\":4120:4137   */\n      add\n        /* \"#utility.yul\":4113:4160   */\n      mstore\n        /* \"#utility.yul\":4177:4255   */\n      tag_371\n        /* \"#utility.yul\":4250:4254   */\n      dup2\n        /* \"#utility.yul\":4241:4247   */\n      dup5\n        /* \"#utility.yul\":4177:4255   */\n      tag_288\n      jump\t// in\n    tag_371:\n        /* \"#utility.yul\":4169:4255   */\n      swap1\n      pop\n        /* \"#utility.yul\":3949:4262   */\n      swap3\n      swap2\n      pop\n      pop\n      jump\t// out\n        /* \"#utility.yul\":4268:4345   */\n    tag_289:\n        /* \"#utility.yul\":4305:4312   */\n      0x00\n        /* \"#utility.yul\":4334:4339   */\n      dup2\n        /* \"#utility.yul\":4323:4339   */\n      swap1\n      pop\n        /* \"#utility.yul\":4268:4345   */\n      swap2\n      swap1\n      pop\n      jump\t// out\n        /* \"#utility.yul\":4351:4469   */\n    tag_290:\n        /* \"#utility.yul\":4438:4462   */\n      tag_374\n        /* \"#utility.yul\":4456:4461   */\n      dup2\n        /* \"#utility.yul\":4438:4462   */\n      tag_289\n      jump\t// in\n    tag_374:\n        /* \"#utility.yul\":4433:4436   */\n      dup3\n        /* \"#utility.yul\":4426:4463   */\n      mstore\n        /* \"#utility.yul\":4351:4469   */\n      pop\n      pop\n      jump\t// out\n        /* \"#utility.yul\":4475:4697   */\n    tag_70:\n        /* \"#utility.yul\":4568:4572   */\n      0x00\n        /* \"#utility.yul\":4606:4608   */\n      0x20\n        /* \"#utility.yul\":4595:4604   */\n      dup3\n        /* \"#utility.yul\":4591:4609   */\n      add\n        /* \"#utility.yul\":4583:4609   */\n      swap1\n      pop\n        /* \"#utility.yul\":4619:4690   */\n      tag_376\n        /* \"#utility.yul\":4687:4688   */\n      0x00\n        /* \"#utility.yul\":4676:4685   */\n      dup4\n        /* \"#utility.yul\":4672:4689   */\n      add\n        /* \"#utility.yul\":4663:4669   */\n      dup5\n        /* \"#utility.yul\":4619:4690   */\n      tag_290\n      jump\t// in\n    tag_376:\n        /* \"#utility.yul\":4475:4697   */\n      swap3\n      swap2\n      pop\n      pop\n      jump\t// out\n        /* \"#utility.yul\":4784:4901   */\n    tag_292:\n        /* \"#utility.yul\":4893:4894   */\n      0x00\n        /* \"#utility.yul\":4890:4891   */\n      0x00\n        /* \"#utility.yul\":4883:4895   */\n      revert\n        /* \"#utility.yul\":5030:5152   */\n    tag_294:\n        /* \"#utility.yul\":5103:5127   */\n      tag_381\n        /* \"#utility.yul\":5121:5126   */\n      dup2\n        /* \"#utility.yul\":5103:5127   */\n      tag_289\n      jump\t// in\n    tag_381:\n        /* \"#utility.yul\":5096:5101   */\n      dup2\n        /* \"#utility.yul\":5093:5128   */\n      eq\n        /* \"#utility.yul\":5083:5146   */\n      tag_382\n      jumpi\n        /* \"#utility.yul\":5142:5143   */\n      0x00\n        /* \"#utility.yul\":5139:5140   */\n      0x00\n        /* \"#utility.yul\":5132:5144   */\n      revert\n        /* \"#utility.yul\":5083:5146   */\n    tag_382:\n        /* \"#utility.yul\":5030:5152   */\n      pop\n      jump\t// out\n        /* \"#utility.yul\":5158:5297   */\n    tag_295:\n        /* \"#utility.yul\":5204:5209   */\n      0x00\n        /* \"#utility.yul\":5242:5248   */\n      dup2\n        /* \"#utility.yul\":5229:5249   */\n      calldataload\n        /* \"#utility.yul\":5220:5249   */\n      swap1\n      pop\n        /* \"#utility.yul\":5258:5291   */\n      tag_384\n        /* \"#utility.yul\":5285:5290   */\n      dup2\n        /* \"#utility.yul\":5258:5291   */\n      tag_294\n      jump\t// in\n    tag_384:\n        /* \"#utility.yul\":5158:5297   */\n      swap3\n      swap2\n      pop\n      pop\n      jump\t// out\n        /* \"#utility.yul\":5303:5632   */\n    tag_74:\n        /* \"#utility.yul\":5362:5368   */\n      0x00\n        /* \"#utility.yul\":5411:5413   */\n      0x20\n        /* \"#utility.yul\":5399:5408   */\n      dup3\n        /* \"#utility.yul\":5390:5397   */\n      dup5\n        /* \"#utility.yul\":5386:5409   */\n      sub\n        /* \"#utility.yul\":5382:5414   */\n      slt\n        /* \"#utility.yul\":5379:5498   */\n      iszero\n      tag_386\n      jumpi\n        /* \"#utility.yul\":5417:5496   */\n      tag_387\n      tag_292\n      jump\t// in\n    tag_387:\n        /* \"#utility.yul\":5379:5498   */\n    tag_386:\n        /* \"#utility.yul\":5537:5538   */\n      0x00\n        /* \"#utility.yul\":5562:5615   */\n      tag_388\n        /* \"#utility.yul\":5607:5614   */\n      dup5\n        /* \"#utility.yul\":5598:5604   */\n      dup3\n        /* \"#utility.yul\":5587:5596   */\n      dup6\n        /* \"#utility.yul\":5583:5605   */\n      add\n        /* \"#utility.yul\":5562:5615   */\n      tag_295\n      jump\t// in\n    tag_388:\n        /* \"#utility.yul\":5552:5615   */\n      swap2\n      pop\n        /* \"#utility.yul\":5508:5625   */\n      pop\n        /* \"#utility.yul\":5303:5632   */\n      swap3\n      swap2\n      pop\n      pop\n      jump\t// out\n        /* \"#utility.yul\":5638:5760   */\n    tag_296:\n        /* \"#utility.yul\":5711:5735   */\n      tag_390\n        /* \"#utility.yul\":5729:5734   */\n      dup2\n        /* \"#utility.yul\":5711:5735   */\n      tag_275\n      jump\t// in\n    tag_390:\n        /* \"#utility.yul\":5704:5709   */\n      dup2\n        /* \"#utility.yul\":5701:5736   */\n      eq\n        /* \"#utility.yul\":5691:5754   */\n      tag_391\n      jumpi\n        /* \"#utility.yul\":5750:5751   */\n      0x00\n        /* \"#utility.yul\":5747:5748   */\n      0x00\n        /* \"#utility.yul\":5740:5752   */\n      revert\n        /* \"#utility.yul\":5691:5754   */\n    tag_391:\n        /* \"#utility.yul\":5638:5760   */\n      pop\n      jump\t// out\n        /* \"#utility.yul\":5766:5905   */\n    tag_297:\n        /* \"#utility.yul\":5812:5817   */\n      0x00\n        /* \"#utility.yul\":5850:5856   */\n      dup2\n        /* \"#utility.yul\":5837:5857   */\n      calldataload\n        /* \"#utility.yul\":5828:5857   */\n      swap1\n      pop\n        /* \"#utility.yul\":5866:5899   */\n      tag_393\n        /* \"#utility.yul\":5893:5898   */\n      dup2\n        /* \"#utility.yul\":5866:5899   */\n      tag_296\n      jump\t// in\n    tag_393:\n        /* \"#utility.yul\":5766:5905   */\n      swap3\n      swap2\n      pop\n      pop\n      jump\t// out\n        /* \"#utility.yul\":5911:6240   */\n    tag_80:\n        /* \"#utility.yul\":5970:5976   */\n      0x00\n        /* \"#utility.yul\":6019:6021   */\n      0x20\n        /* \"#utility.yul\":6007:6016   */\n      dup3\n        /* \"#utility.yul\":5998:6005   */\n      dup5\n        /* \"#utility.yul\":5994:6017   */\n      sub\n        /* \"#utility.yul\":5990:6022   */\n      slt\n        /* \"#utility.yul\":5987:6106   */\n      iszero\n      tag_395\n      jumpi\n        /* \"#utility.yul\":6025:6104   */\n      tag_396\n      tag_292\n      jump\t// in\n    tag_396:\n        /* \"#utility.yul\":5987:6106   */\n    tag_395:\n        /* \"#utility.yul\":6145:6146   */\n      0x00\n        /* \"#utility.yul\":6170:6223   */\n      tag_397\n        /* \"#utility.yul\":6215:6222   */\n      dup5\n        /* \"#utility.yul\":6206:6212   */\n      dup3\n        /* \"#utility.yul\":6195:6204   */\n      dup6\n        /* \"#utility.yul\":6191:6213   */\n      add\n        /* \"#utility.yul\":6170:6223   */\n      tag_297\n      jump\t// in\n    tag_397:\n        /* \"#utility.yul\":6160:6223   */\n      swap2\n      pop\n        /* \"#utility.yul\":6116:6233   */\n      pop\n        /* \"#utility.yul\":5911:6240   */\n      swap3\n      swap2\n      pop\n      pop\n      jump\t// out\n        /* \"#utility.yul\":6246:6767   */\n    tag_83:\n        /* \"#utility.yul\":6409:6413   */\n      0x00\n        /* \"#utility.yul\":6447:6449   */\n      0x60\n        /* \"#utility.yul\":6436:6445   */\n      dup3\n        /* \"#utility.yul\":6432:6450   */\n      add\n        /* \"#utility.yul\":6424:6450   */\n      swap1\n      pop\n        /* \"#utility.yul\":6460:6531   */\n      tag_399\n        /* \"#utility.yul\":6528:6529   */\n      0x00\n        /* \"#utility.yul\":6517:6526   */\n      dup4\n        /* \"#utility.yul\":6513:6530   */\n      add\n        /* \"#utility.yul\":6504:6510   */\n      dup7\n        /* \"#utility.yul\":6460:6531   */\n      tag_276\n      jump\t// in\n    tag_399:\n        /* \"#utility.yul\":6578:6587   */\n      dup2\n        /* \"#utility.yul\":6572:6576   */\n      dup2\n        /* \"#utility.yul\":6568:6588   */\n      sub\n        /* \"#utility.yul\":6563:6565   */\n      0x20\n        /* \"#utility.yul\":6552:6561   */\n      dup4\n        /* \"#utility.yul\":6548:6566   */\n      add\n        /* \"#utility.yul\":6541:6589   */\n      mstore\n        /* \"#utility.yul\":6606:6684   */\n      tag_400\n        /* \"#utility.yul\":6679:6683   */\n      dup2\n        /* \"#utility.yul\":6670:6676   */\n      dup6\n        /* \"#utility.yul\":6606:6684   */\n      tag_288\n      jump\t// in\n    tag_400:\n        /* \"#utility.yul\":6598:6684   */\n      swap1\n      pop\n        /* \"#utility.yul\":6694:6760   */\n      tag_401\n        /* \"#utility.yul\":6756:6758   */\n      0x40\n        /* \"#utility.yul\":6745:6754   */\n      dup4\n        /* \"#utility.yul\":6741:6759   */\n      add\n        /* \"#utility.yul\":6732:6738   */\n      dup5\n        /* \"#utility.yul\":6694:6760   */\n      tag_273\n      jump\t// in\n    tag_401:\n        /* \"#utility.yul\":6246:6767   */\n      swap5\n      swap4\n      pop\n      pop\n      pop\n      pop\n      jump\t// out\n        /* \"#utility.yul\":6773:6953   */\n    tag_128:\n        /* \"#utility.yul\":6821:6898   */\n      0x4e487b7100000000000000000000000000000000000000000000000000000000\n        /* \"#utility.yul\":6818:6819   */\n      0x00\n        /* \"#utility.yul\":6811:6899   */\n      mstore\n        /* \"#utility.yul\":6918:6922   */\n      0x21\n        /* \"#utility.yul\":6915:6916   */\n      0x04\n        /* \"#utility.yul\":6908:6923   */\n      mstore\n        /* \"#utility.yul\":6942:6946   */\n      0x24\n        /* \"#utility.yul\":6939:6940   */\n      0x00\n        /* \"#utility.yul\":6932:6947   */\n      revert\n        /* \"#utility.yul\":6959:7073   */\n    tag_298:\n        /* \"#utility.yul\":7041:7042   */\n      0x05\n        /* \"#utility.yul\":7034:7039   */\n      dup2\n        /* \"#utility.yul\":7031:7043   */\n      lt\n        /* \"#utility.yul\":7021:7067   */\n      tag_404\n      jumpi\n        /* \"#utility.yul\":7047:7065   */\n      tag_405\n      tag_128\n      jump\t// in\n    tag_405:\n        /* \"#utility.yul\":7021:7067   */\n    tag_404:\n        /* \"#utility.yul\":6959:7073   */\n      pop\n      jump\t// out\n        /* \"#utility.yul\":7079:7208   */\n    tag_299:\n        /* \"#utility.yul\":7125:7132   */\n      0x00\n        /* \"#utility.yul\":7154:7159   */\n      dup2\n        /* \"#utility.yul\":7143:7159   */\n      swap1\n      pop\n        /* \"#utility.yul\":7160:7202   */\n      tag_407\n        /* \"#utility.yul\":7196:7201   */\n      dup3\n        /* \"#utility.yul\":7160:7202   */\n      tag_298\n      jump\t// in\n    tag_407:\n        /* \"#utility.yul\":7079:7208   */\n      swap2\n      swap1\n      pop\n      jump\t// out\n        /* \"#utility.yul\":7214:7343   */\n    tag_300:\n        /* \"#utility.yul\":7271:7280   */\n      0x00\n        /* \"#utility.yul\":7304:7337   */\n      tag_409\n        /* \"#utility.yul\":7331:7336   */\n      dup3\n        /* \"#utility.yul\":7304:7337   */\n      tag_299\n      jump\t// in\n    tag_409:\n        /* \"#utility.yul\":7291:7337   */\n      swap1\n      pop\n        /* \"#utility.yul\":7214:7343   */\n      swap2\n      swap1\n      pop\n      jump\t// out\n        /* \"#utility.yul\":7349:7494   */\n    tag_301:\n        /* \"#utility.yul\":7443:7487   */\n      tag_411\n        /* \"#utility.yul\":7481:7486   */\n      dup2\n        /* \"#utility.yul\":7443:7487   */\n      tag_300\n      jump\t// in\n    tag_411:\n        /* \"#utility.yul\":7438:7441   */\n      dup3\n        /* \"#utility.yul\":7431:7488   */\n      mstore\n        /* \"#utility.yul\":7349:7494   */\n      pop\n      pop\n      jump\t// out\n        /* \"#utility.yul\":7500:8792   */\n    tag_109:\n        /* \"#utility.yul\":7858:7862   */\n      0x00\n        /* \"#utility.yul\":7896:7899   */\n      0x0120\n        /* \"#utility.yul\":7885:7894   */\n      dup3\n        /* \"#utility.yul\":7881:7900   */\n      add\n        /* \"#utility.yul\":7873:7900   */\n      swap1\n      pop\n        /* \"#utility.yul\":7946:7955   */\n      dup2\n        /* \"#utility.yul\":7940:7944   */\n      dup2\n        /* \"#utility.yul\":7936:7956   */\n      sub\n        /* \"#utility.yul\":7932:7933   */\n      0x00\n        /* \"#utility.yul\":7921:7930   */\n      dup4\n        /* \"#utility.yul\":7917:7934   */\n      add\n        /* \"#utility.yul\":7910:7957   */\n      mstore\n        /* \"#utility.yul\":7974:8052   */\n      tag_413\n        /* \"#utility.yul\":8047:8051   */\n      dup2\n        /* \"#utility.yul\":8038:8044   */\n      dup13\n        /* \"#utility.yul\":7974:8052   */\n      tag_288\n      jump\t// in\n    tag_413:\n        /* \"#utility.yul\":7966:8052   */\n      swap1\n      pop\n        /* \"#utility.yul\":8062:8134   */\n      tag_414\n        /* \"#utility.yul\":8130:8132   */\n      0x20\n        /* \"#utility.yul\":8119:8128   */\n      dup4\n        /* \"#utility.yul\":8115:8133   */\n      add\n        /* \"#utility.yul\":8106:8112   */\n      dup12\n        /* \"#utility.yul\":8062:8134   */\n      tag_290\n      jump\t// in\n    tag_414:\n        /* \"#utility.yul\":8144:8223   */\n      tag_415\n        /* \"#utility.yul\":8219:8221   */\n      0x40\n        /* \"#utility.yul\":8208:8217   */\n      dup4\n        /* \"#utility.yul\":8204:8222   */\n      add\n        /* \"#utility.yul\":8195:8201   */\n      dup11\n        /* \"#utility.yul\":8144:8223   */\n      tag_301\n      jump\t// in\n    tag_415:\n        /* \"#utility.yul\":8233:8305   */\n      tag_416\n        /* \"#utility.yul\":8301:8303   */\n      0x60\n        /* \"#utility.yul\":8290:8299   */\n      dup4\n        /* \"#utility.yul\":8286:8304   */\n      add\n        /* \"#utility.yul\":8277:8283   */\n      dup10\n        /* \"#utility.yul\":8233:8305   */\n      tag_276\n      jump\t// in\n    tag_416:\n        /* \"#utility.yul\":8315:8388   */\n      tag_417\n        /* \"#utility.yul\":8383:8386   */\n      0x80\n        /* \"#utility.yul\":8372:8381   */\n      dup4\n        /* \"#utility.yul\":8368:8387   */\n      add\n        /* \"#utility.yul\":8359:8365   */\n      dup9\n        /* \"#utility.yul\":8315:8388   */\n      tag_276\n      jump\t// in\n    tag_417:\n        /* \"#utility.yul\":8398:8471   */\n      tag_418\n        /* \"#utility.yul\":8466:8469   */\n      0xa0\n        /* \"#utility.yul\":8455:8464   */\n      dup4\n        /* \"#utility.yul\":8451:8470   */\n      add\n        /* \"#utility.yul\":8442:8448   */\n      dup8\n        /* \"#utility.yul\":8398:8471   */\n      tag_276\n      jump\t// in\n    tag_418:\n        /* \"#utility.yul\":8481:8554   */\n      tag_419\n        /* \"#utility.yul\":8549:8552   */\n      0xc0\n        /* \"#utility.yul\":8538:8547   */\n      dup4\n        /* \"#utility.yul\":8534:8553   */\n      add\n        /* \"#utility.yul\":8525:8531   */\n      dup7\n        /* \"#utility.yul\":8481:8554   */\n      tag_276\n      jump\t// in\n    tag_419:\n        /* \"#utility.yul\":8564:8631   */\n      tag_420\n        /* \"#utility.yul\":8626:8629   */\n      0xe0\n        /* \"#utility.yul\":8615:8624   */\n      dup4\n        /* \"#utility.yul\":8611:8630   */\n      add\n        /* \"#utility.yul\":8602:8608   */\n      dup6\n        /* \"#utility.yul\":8564:8631   */\n      tag_273\n      jump\t// in\n    tag_420:\n        /* \"#utility.yul\":8679:8688   */\n      dup2\n        /* \"#utility.yul\":8673:8677   */\n      dup2\n        /* \"#utility.yul\":8669:8689   */\n      sub\n        /* \"#utility.yul\":8663:8666   */\n      0x0100\n        /* \"#utility.yul\":8652:8661   */\n      dup4\n        /* \"#utility.yul\":8648:8667   */\n      add\n        /* \"#utility.yul\":8641:8690   */\n      mstore\n        /* \"#utility.yul\":8707:8785   */\n      tag_421\n        /* \"#utility.yul\":8780:8784   */\n      dup2\n        /* \"#utility.yul\":8771:8777   */\n      dup5\n        /* \"#utility.yul\":8707:8785   */\n      tag_288\n      jump\t// in\n    tag_421:\n        /* \"#utility.yul\":8699:8785   */\n      swap1\n      pop\n        /* \"#utility.yul\":7500:8792   */\n      swap11\n      swap10\n      pop\n      pop\n      pop\n      pop\n      pop\n      pop\n      pop\n      pop\n      pop\n      pop\n      jump\t// out\n        /* \"#utility.yul\":8798:8962   */\n    tag_302:\n        /* \"#utility.yul\":8938:8954   */\n      0x4e616f206175746f72697a61646f000000000000000000000000000000000000\n        /* \"#utility.yul\":8934:8935   */\n      0x00\n        /* \"#utility.yul\":8926:8932   */\n      dup3\n        /* \"#utility.yul\":8922:8936   */\n      add\n        /* \"#utility.yul\":8915:8955   */\n      mstore\n        /* \"#utility.yul\":8798:8962   */\n      pop\n      jump\t// out\n        /* \"#utility.yul\":8968:9334   */\n    tag_303:\n        /* \"#utility.yul\":9110:9113   */\n      0x00\n        /* \"#utility.yul\":9131:9198   */\n      tag_424\n        /* \"#utility.yul\":9195:9197   */\n      0x0e\n        /* \"#utility.yul\":9190:9193   */\n      dup4\n        /* \"#utility.yul\":9131:9198   */\n      tag_285\n      jump\t// in\n    tag_424:\n        /* \"#utility.yul\":9124:9198   */\n      swap2\n      pop\n        /* \"#utility.yul\":9207:9300   */\n      tag_425\n        /* \"#utility.yul\":9296:9299   */\n      dup3\n        /* \"#utility.yul\":9207:9300   */\n      tag_302\n      jump\t// in\n    tag_425:\n        /* \"#utility.yul\":9325:9327   */\n      0x20\n        /* \"#utility.yul\":9320:9323   */\n      dup3\n        /* \"#utility.yul\":9316:9328   */\n      add\n        /* \"#utility.yul\":9309:9328   */\n      swap1\n      pop\n        /* \"#utility.yul\":8968:9334   */\n      swap2\n      swap1\n      pop\n      jump\t// out\n        /* \"#utility.yul\":9340:9759   */\n    tag_113:\n        /* \"#utility.yul\":9506:9510   */\n      0x00\n        /* \"#utility.yul\":9544:9546   */\n      0x20\n        /* \"#utility.yul\":9533:9542   */\n      dup3\n        /* \"#utility.yul\":9529:9547   */\n      add\n        /* \"#utility.yul\":9521:9547   */\n      swap1\n      pop\n        /* \"#utility.yul\":9593:9602   */\n      dup2\n        /* \"#utility.yul\":9587:9591   */\n      dup2\n        /* \"#utility.yul\":9583:9603   */\n      sub\n        /* \"#utility.yul\":9579:9580   */\n      0x00\n        /* \"#utility.yul\":9568:9577   */\n      dup4\n        /* \"#utility.yul\":9564:9581   */\n      add\n        /* \"#utility.yul\":9557:9604   */\n      mstore\n        /* \"#utility.yul\":9621:9752   */\n      tag_427\n        /* \"#utility.yul\":9747:9751   */\n      dup2\n        /* \"#utility.yul\":9621:9752   */\n      tag_303\n      jump\t// in\n    tag_427:\n        /* \"#utility.yul\":9613:9752   */\n      swap1\n      pop\n        /* \"#utility.yul\":9340:9759   */\n      swap2\n      swap1\n      pop\n      jump\t// out\n        /* \"#utility.yul\":9765:9925   */\n    tag_304:\n        /* \"#utility.yul\":9905:9917   */\n      0x4a612061636569746f7500000000000000000000000000000000000000000000\n        /* \"#utility.yul\":9901:9902   */\n      0x00\n        /* \"#utility.yul\":9893:9899   */\n      dup3\n        /* \"#utility.yul\":9889:9903   */\n      add\n        /* \"#utility.yul\":9882:9918   */\n      mstore\n        /* \"#utility.yul\":9765:9925   */\n      pop\n      jump\t// out\n        /* \"#utility.yul\":9931:10297   */\n    tag_305:\n        /* \"#utility.yul\":10073:10076   */\n      0x00\n        /* \"#utility.yul\":10094:10161   */\n      tag_430\n        /* \"#utility.yul\":10158:10160   */\n      0x0a\n        /* \"#utility.yul\":10153:10156   */\n      dup4\n        /* \"#utility.yul\":10094:10161   */\n      tag_285\n      jump\t// in\n    tag_430:\n        /* \"#utility.yul\":10087:10161   */\n      swap2\n      pop\n        /* \"#utility.yul\":10170:10263   */\n      tag_431\n        /* \"#utility.yul\":10259:10262   */\n      dup3\n        /* \"#utility.yul\":10170:10263   */\n      tag_304\n      jump\t// in\n    tag_431:\n        /* \"#utility.yul\":10288:10290   */\n      0x20\n        /* \"#utility.yul\":10283:10286   */\n      dup3\n        /* \"#utility.yul\":10279:10291   */\n      add\n        /* \"#utility.yul\":10272:10291   */\n      swap1\n      pop\n        /* \"#utility.yul\":9931:10297   */\n      swap2\n      swap1\n      pop\n      jump\t// out\n        /* \"#utility.yul\":10303:10722   */\n    tag_117:\n        /* \"#utility.yul\":10469:10473   */\n      0x00\n        /* \"#utility.yul\":10507:10509   */\n      0x20\n        /* \"#utility.yul\":10496:10505   */\n      dup3\n        /* \"#utility.yul\":10492:10510   */\n      add\n        /* \"#utility.yul\":10484:10510   */\n      swap1\n      pop\n        /* \"#utility.yul\":10556:10565   */\n      dup2\n        /* \"#utility.yul\":10550:10554   */\n      dup2\n        /* \"#utility.yul\":10546:10566   */\n      sub\n        /* \"#utility.yul\":10542:10543   */\n      0x00\n        /* \"#utility.yul\":10531:10540   */\n      dup4\n        /* \"#utility.yul\":10527:10544   */\n      add\n        /* \"#utility.yul\":10520:10567   */\n      mstore\n        /* \"#utility.yul\":10584:10715   */\n      tag_433\n        /* \"#utility.yul\":10710:10714   */\n      dup2\n        /* \"#utility.yul\":10584:10715   */\n      tag_305\n      jump\t// in\n    tag_433:\n        /* \"#utility.yul\":10576:10715   */\n      swap1\n      pop\n        /* \"#utility.yul\":10303:10722   */\n      swap2\n      swap1\n      pop\n      jump\t// out\n        /* \"#utility.yul\":10728:10901   */\n    tag_306:\n        /* \"#utility.yul\":10868:10893   */\n      0x436f6e74726174616e7465206e616f2061636569746f75000000000000000000\n        /* \"#utility.yul\":10864:10865   */\n      0x00\n        /* \"#utility.yul\":10856:10862   */\n      dup3\n        /* \"#utility.yul\":10852:10866   */\n      add\n        /* \"#utility.yul\":10845:10894   */\n      mstore\n        /* \"#utility.yul\":10728:10901   */\n      pop\n      jump\t// out\n        /* \"#utility.yul\":10907:11273   */\n    tag_307:\n        /* \"#utility.yul\":11049:11052   */\n      0x00\n        /* \"#utility.yul\":11070:11137   */\n      tag_436\n        /* \"#utility.yul\":11134:11136   */\n      0x17\n        /* \"#utility.yul\":11129:11132   */\n      dup4\n        /* \"#utility.yul\":11070:11137   */\n      tag_285\n      jump\t// in\n    tag_436:\n        /* \"#utility.yul\":11063:11137   */\n      swap2\n      pop\n        /* \"#utility.yul\":11146:11239   */\n      tag_437\n        /* \"#utility.yul\":11235:11238   */\n      dup3\n        /* \"#utility.yul\":11146:11239   */\n      tag_306\n      jump\t// in\n    tag_437:\n        /* \"#utility.yul\":11264:11266   */\n      0x20\n        /* \"#utility.yul\":11259:11262   */\n      dup3\n        /* \"#utility.yul\":11255:11267   */\n      add\n        /* \"#utility.yul\":11248:11267   */\n      swap1\n      pop\n        /* \"#utility.yul\":10907:11273   */\n      swap2\n      swap1\n      pop\n      jump\t// out\n        /* \"#utility.yul\":11279:11698   */\n    tag_122:\n        /* \"#utility.yul\":11445:11449   */\n      0x00\n        /* \"#utility.yul\":11483:11485   */\n      0x20\n        /* \"#utility.yul\":11472:11481   */\n      dup3\n        /* \"#utility.yul\":11468:11486   */\n      add\n        /* \"#utility.yul\":11460:11486   */\n      swap1\n      pop\n        /* \"#utility.yul\":11532:11541   */\n      dup2\n        /* \"#utility.yul\":11526:11530   */\n      dup2\n        /* \"#utility.yul\":11522:11542   */\n      sub\n        /* \"#utility.yul\":11518:11519   */\n      0x00\n        /* \"#utility.yul\":11507:11516   */\n      dup4\n        /* \"#utility.yul\":11503:11520   */\n      add\n        /* \"#utility.yul\":11496:11543   */\n      mstore\n        /* \"#utility.yul\":11560:11691   */\n      tag_439\n        /* \"#utility.yul\":11686:11690   */\n      dup2\n        /* \"#utility.yul\":11560:11691   */\n      tag_307\n      jump\t// in\n    tag_439:\n        /* \"#utility.yul\":11552:11691   */\n      swap1\n      pop\n        /* \"#utility.yul\":11279:11698   */\n      swap2\n      swap1\n      pop\n      jump\t// out\n        /* \"#utility.yul\":11704:11876   */\n    tag_308:\n        /* \"#utility.yul\":11844:11868   */\n      0x436f6e7472617461646f206e616f2061636569746f7500000000000000000000\n        /* \"#utility.yul\":11840:11841   */\n      0x00\n        /* \"#utility.yul\":11832:11838   */\n      dup3\n        /* \"#utility.yul\":11828:11842   */\n      add\n        /* \"#utility.yul\":11821:11869   */\n      mstore\n        /* \"#utility.yul\":11704:11876   */\n      pop\n      jump\t// out\n        /* \"#utility.yul\":11882:12248   */\n    tag_309:\n        /* \"#utility.yul\":12024:12027   */\n      0x00\n        /* \"#utility.yul\":12045:12112   */\n      tag_442\n        /* \"#utility.yul\":12109:12111   */\n      0x16\n        /* \"#utility.yul\":12104:12107   */\n      dup4\n        /* \"#utility.yul\":12045:12112   */\n      tag_285\n      jump\t// in\n    tag_442:\n        /* \"#utility.yul\":12038:12112   */\n      swap2\n      pop\n        /* \"#utility.yul\":12121:12214   */\n      tag_443\n        /* \"#utility.yul\":12210:12213   */\n      dup3\n        /* \"#utility.yul\":12121:12214   */\n      tag_308\n      jump\t// in\n    tag_443:\n        /* \"#utility.yul\":12239:12241   */\n      0x20\n        /* \"#utility.yul\":12234:12237   */\n      dup3\n        /* \"#utility.yul\":12230:12242   */\n      add\n        /* \"#utility.yul\":12223:12242   */\n      swap1\n      pop\n        /* \"#utility.yul\":11882:12248   */\n      swap2\n      swap1\n      pop\n      jump\t// out\n        /* \"#utility.yul\":12254:12673   */\n    tag_125:\n        /* \"#utility.yul\":12420:12424   */\n      0x00\n        /* \"#utility.yul\":12458:12460   */\n      0x20\n        /* \"#utility.yul\":12447:12456   */\n      dup3\n        /* \"#utility.yul\":12443:12461   */\n      add\n        /* \"#utility.yul\":12435:12461   */\n      swap1\n      pop\n        /* \"#utility.yul\":12507:12516   */\n      dup2\n        /* \"#utility.yul\":12501:12505   */\n      dup2\n        /* \"#utility.yul\":12497:12517   */\n      sub\n        /* \"#utility.yul\":12493:12494   */\n      0x00\n        /* \"#utility.yul\":12482:12491   */\n      dup4\n        /* \"#utility.yul\":12478:12495   */\n      add\n        /* \"#utility.yul\":12471:12518   */\n      mstore\n        /* \"#utility.yul\":12535:12666   */\n      tag_445\n        /* \"#utility.yul\":12661:12665   */\n      dup2\n        /* \"#utility.yul\":12535:12666   */\n      tag_309\n      jump\t// in\n    tag_445:\n        /* \"#utility.yul\":12527:12666   */\n      swap1\n      pop\n        /* \"#utility.yul\":12254:12673   */\n      swap2\n      swap1\n      pop\n      jump\t// out\n        /* \"#utility.yul\":12679:12901   */\n    tag_310:\n        /* \"#utility.yul\":12819:12853   */\n      0x536f6d656e7465206f20636f6e74726174616e746520706f6465206578656375\n        /* \"#utility.yul\":12815:12816   */\n      0x00\n        /* \"#utility.yul\":12807:12813   */\n      dup3\n        /* \"#utility.yul\":12803:12817   */\n      add\n        /* \"#utility.yul\":12796:12854   */\n      mstore\n        /* \"#utility.yul\":12888:12893   */\n      0x7461720000000000000000000000000000000000000000000000000000000000\n        /* \"#utility.yul\":12883:12885   */\n      0x20\n        /* \"#utility.yul\":12875:12881   */\n      dup3\n        /* \"#utility.yul\":12871:12886   */\n      add\n        /* \"#utility.yul\":12864:12894   */\n      mstore\n        /* \"#utility.yul\":12679:12901   */\n      pop\n      jump\t// out\n        /* \"#utility.yul\":12907:13273   */\n    tag_311:\n        /* \"#utility.yul\":13049:13052   */\n      0x00\n        /* \"#utility.yul\":13070:13137   */\n      tag_448\n        /* \"#utility.yul\":13134:13136   */\n      0x23\n        /* \"#utility.yul\":13129:13132   */\n      dup4\n        /* \"#utility.yul\":13070:13137   */\n      tag_285\n      jump\t// in\n    tag_448:\n        /* \"#utility.yul\":13063:13137   */\n      swap2\n      pop\n        /* \"#utility.yul\":13146:13239   */\n      tag_449\n        /* \"#utility.yul\":13235:13238   */\n      dup3\n        /* \"#utility.yul\":13146:13239   */\n      tag_310\n      jump\t// in\n    tag_449:\n        /* \"#utility.yul\":13264:13266   */\n      0x40\n        /* \"#utility.yul\":13259:13262   */\n      dup3\n        /* \"#utility.yul\":13255:13267   */\n      add\n        /* \"#utility.yul\":13248:13267   */\n      swap1\n      pop\n        /* \"#utility.yul\":12907:13273   */\n      swap2\n      swap1\n      pop\n      jump\t// out\n        /* \"#utility.yul\":13279:13698   */\n    tag_135:\n        /* \"#utility.yul\":13445:13449   */\n      0x00\n        /* \"#utility.yul\":13483:13485   */\n      0x20\n        /* \"#utility.yul\":13472:13481   */\n      dup3\n        /* \"#utility.yul\":13468:13486   */\n      add\n        /* \"#utility.yul\":13460:13486   */\n      swap1\n      pop\n        /* \"#utility.yul\":13532:13541   */\n      dup2\n        /* \"#utility.yul\":13526:13530   */\n      dup2\n        /* \"#utility.yul\":13522:13542   */\n      sub\n        /* \"#utility.yul\":13518:13519   */\n      0x00\n        /* \"#utility.yul\":13507:13516   */\n      dup4\n        /* \"#utility.yul\":13503:13520   */\n      add\n        /* \"#utility.yul\":13496:13543   */\n      mstore\n        /* \"#utility.yul\":13560:13691   */\n      tag_451\n        /* \"#utility.yul\":13686:13690   */\n      dup2\n        /* \"#utility.yul\":13560:13691   */\n      tag_311\n      jump\t// in\n    tag_451:\n        /* \"#utility.yul\":13552:13691   */\n      swap1\n      pop\n        /* \"#utility.yul\":13279:13698   */\n      swap2\n      swap1\n      pop\n      jump\t// out\n        /* \"#utility.yul\":13704:13875   */\n    tag_312:\n        /* \"#utility.yul\":13844:13867   */\n      0x5365727669636f206e616f20636f6e636c7569646f0000000000000000000000\n        /* \"#utility.yul\":13840:13841   */\n      0x00\n        /* \"#utility.yul\":13832:13838   */\n      dup3\n        /* \"#utility.yul\":13828:13842   */\n      add\n        /* \"#utility.yul\":13821:13868   */\n      mstore\n        /* \"#utility.yul\":13704:13875   */\n      pop\n      jump\t// out\n        /* \"#utility.yul\":13881:14247   */\n    tag_313:\n        /* \"#utility.yul\":14023:14026   */\n      0x00\n        /* \"#utility.yul\":14044:14111   */\n      tag_454\n        /* \"#utility.yul\":14108:14110   */\n      0x15\n        /* \"#utility.yul\":14103:14106   */\n      dup4\n        /* \"#utility.yul\":14044:14111   */\n      tag_285\n      jump\t// in\n    tag_454:\n        /* \"#utility.yul\":14037:14111   */\n      swap2\n      pop\n        /* \"#utility.yul\":14120:14213   */\n      tag_455\n        /* \"#utility.yul\":14209:14212   */\n      dup3\n        /* \"#utility.yul\":14120:14213   */\n      tag_312\n      jump\t// in\n    tag_455:\n        /* \"#utility.yul\":14238:14240   */\n      0x20\n        /* \"#utility.yul\":14233:14236   */\n      dup3\n        /* \"#utility.yul\":14229:14241   */\n      add\n        /* \"#utility.yul\":14222:14241   */\n      swap1\n      pop\n        /* \"#utility.yul\":13881:14247   */\n      swap2\n      swap1\n      pop\n      jump\t// out\n        /* \"#utility.yul\":14253:14672   */\n    tag_143:\n        /* \"#utility.yul\":14419:14423   */\n      0x00\n        /* \"#utility.yul\":14457:14459   */\n      0x20\n        /* \"#utility.yul\":14446:14455   */\n      dup3\n        /* \"#utility.yul\":14442:14460   */\n      add\n        /* \"#utility.yul\":14434:14460   */\n      swap1\n      pop\n        /* \"#utility.yul\":14506:14515   */\n      dup2\n        /* \"#utility.yul\":14500:14504   */\n      dup2\n        /* \"#utility.yul\":14496:14516   */\n      sub\n        /* \"#utility.yul\":14492:14493   */\n      0x00\n        /* \"#utility.yul\":14481:14490   */\n      dup4\n        /* \"#utility.yul\":14477:14494   */\n      add\n        /* \"#utility.yul\":14470:14517   */\n      mstore\n        /* \"#utility.yul\":14534:14665   */\n      tag_457\n        /* \"#utility.yul\":14660:14664   */\n      dup2\n        /* \"#utility.yul\":14534:14665   */\n      tag_313\n      jump\t// in\n    tag_457:\n        /* \"#utility.yul\":14526:14665   */\n      swap1\n      pop\n        /* \"#utility.yul\":14253:14672   */\n      swap2\n      swap1\n      pop\n      jump\t// out\n        /* \"#utility.yul\":14678:14903   */\n    tag_314:\n        /* \"#utility.yul\":14818:14852   */\n      0x436f6e747261746f206e616f207265636f6e68656369646f206a757269646963\n        /* \"#utility.yul\":14814:14815   */\n      0x00\n        /* \"#utility.yul\":14806:14812   */\n      dup3\n        /* \"#utility.yul\":14802:14816   */\n      add\n        /* \"#utility.yul\":14795:14853   */\n      mstore\n        /* \"#utility.yul\":14887:14895   */\n      0x616d656e74650000000000000000000000000000000000000000000000000000\n        /* \"#utility.yul\":14882:14884   */\n      0x20\n        /* \"#utility.yul\":14874:14880   */\n      dup3\n        /* \"#utility.yul\":14870:14885   */\n      add\n        /* \"#utility.yul\":14863:14896   */\n      mstore\n        /* \"#utility.yul\":14678:14903   */\n      pop\n      jump\t// out\n        /* \"#utility.yul\":14909:15275   */\n    tag_315:\n        /* \"#utility.yul\":15051:15054   */\n      0x00\n        /* \"#utility.yul\":15072:15139   */\n      tag_460\n        /* \"#utility.yul\":15136:15138   */\n      0x26\n        /* \"#utility.yul\":15131:15134   */\n      dup4\n        /* \"#utility.yul\":15072:15139   */\n      tag_285\n      jump\t// in\n    tag_460:\n        /* \"#utility.yul\":15065:15139   */\n      swap2\n      pop\n        /* \"#utility.yul\":15148:15241   */\n      tag_461\n        /* \"#utility.yul\":15237:15240   */\n      dup3\n        /* \"#utility.yul\":15148:15241   */\n      tag_314\n      jump\t// in\n    tag_461:\n        /* \"#utility.yul\":15266:15268   */\n      0x40\n        /* \"#utility.yul\":15261:15264   */\n      dup3\n        /* \"#utility.yul\":15257:15269   */\n      add\n        /* \"#utility.yul\":15250:15269   */\n      swap1\n      pop\n        /* \"#utility.yul\":14909:15275   */\n      swap2\n      swap1\n      pop\n      jump\t// out\n        /* \"#utility.yul\":15281:15700   */\n    tag_146:\n        /* \"#utility.yul\":15447:15451   */\n      0x00\n        /* \"#utility.yul\":15485:15487   */\n      0x20\n        /* \"#utility.yul\":15474:15483   */\n      dup3\n        /* \"#utility.yul\":15470:15488   */\n      add\n        /* \"#utility.yul\":15462:15488   */\n      swap1\n      pop\n        /* \"#utility.yul\":15534:15543   */\n      dup2\n        /* \"#utility.yul\":15528:15532   */\n      dup2\n        /* \"#utility.yul\":15524:15544   */\n      sub\n        /* \"#utility.yul\":15520:15521   */\n      0x00\n        /* \"#utility.yul\":15509:15518   */\n      dup4\n        /* \"#utility.yul\":15505:15522   */\n      add\n        /* \"#utility.yul\":15498:15545   */\n      mstore\n        /* \"#utility.yul\":15562:15693   */\n      tag_463\n        /* \"#utility.yul\":15688:15692   */\n      dup2\n        /* \"#utility.yul\":15562:15693   */\n      tag_315\n      jump\t// in\n    tag_463:\n        /* \"#utility.yul\":15554:15693   */\n      swap1\n      pop\n        /* \"#utility.yul\":15281:15700   */\n      swap2\n      swap1\n      pop\n      jump\t// out\n        /* \"#utility.yul\":15706:15874   */\n    tag_316:\n        /* \"#utility.yul\":15846:15866   */\n      0x56616c6f7220696e737566696369656e74650000000000000000000000000000\n        /* \"#utility.yul\":15842:15843   */\n      0x00\n        /* \"#utility.yul\":15834:15840   */\n      dup3\n        /* \"#utility.yul\":15830:15844   */\n      add\n        /* \"#utility.yul\":15823:15867   */\n      mstore\n        /* \"#utility.yul\":15706:15874   */\n      pop\n      jump\t// out\n        /* \"#utility.yul\":15880:16246   */\n    tag_317:\n        /* \"#utility.yul\":16022:16025   */\n      0x00\n        /* \"#utility.yul\":16043:16110   */\n      tag_466\n        /* \"#utility.yul\":16107:16109   */\n      0x12\n        /* \"#utility.yul\":16102:16105   */\n      dup4\n        /* \"#utility.yul\":16043:16110   */\n      tag_285\n      jump\t// in\n    tag_466:\n        /* \"#utility.yul\":16036:16110   */\n      swap2\n      pop\n        /* \"#utility.yul\":16119:16212   */\n      tag_467\n        /* \"#utility.yul\":16208:16211   */\n      dup3\n        /* \"#utility.yul\":16119:16212   */\n      tag_316\n      jump\t// in\n    tag_467:\n        /* \"#utility.yul\":16237:16239   */\n      0x20\n        /* \"#utility.yul\":16232:16235   */\n      dup3\n        /* \"#utility.yul\":16228:16240   */\n      add\n        /* \"#utility.yul\":16221:16240   */\n      swap1\n      pop\n        /* \"#utility.yul\":15880:16246   */\n      swap2\n      swap1\n      pop\n      jump\t// out\n        /* \"#utility.yul\":16252:16671   */\n    tag_149:\n        /* \"#utility.yul\":16418:16422   */\n      0x00\n        /* \"#utility.yul\":16456:16458   */\n      0x20\n        /* \"#utility.yul\":16445:16454   */\n      dup3\n        /* \"#utility.yul\":16441:16459   */\n      add\n        /* \"#utility.yul\":16433:16459   */\n      swap1\n      pop\n        /* \"#utility.yul\":16505:16514   */\n      dup2\n        /* \"#utility.yul\":16499:16503   */\n      dup2\n        /* \"#utility.yul\":16495:16515   */\n      sub\n        /* \"#utility.yul\":16491:16492   */\n      0x00\n        /* \"#utility.yul\":16480:16489   */\n      dup4\n        /* \"#utility.yul\":16476:16493   */\n      add\n        /* \"#utility.yul\":16469:16516   */\n      mstore\n        /* \"#utility.yul\":16533:16664   */\n      tag_469\n        /* \"#utility.yul\":16659:16663   */\n      dup2\n        /* \"#utility.yul\":16533:16664   */\n      tag_317\n      jump\t// in\n    tag_469:\n        /* \"#utility.yul\":16525:16664   */\n      swap1\n      pop\n        /* \"#utility.yul\":16252:16671   */\n      swap2\n      swap1\n      pop\n      jump\t// out\n        /* \"#utility.yul\":16677:17009   */\n    tag_153:\n        /* \"#utility.yul\":16798:16802   */\n      0x00\n        /* \"#utility.yul\":16836:16838   */\n      0x40\n        /* \"#utility.yul\":16825:16834   */\n      dup3\n        /* \"#utility.yul\":16821:16839   */\n      add\n        /* \"#utility.yul\":16813:16839   */\n      swap1\n      pop\n        /* \"#utility.yul\":16849:16920   */\n      tag_471\n        /* \"#utility.yul\":16917:16918   */\n      0x00\n        /* \"#utility.yul\":16906:16915   */\n      dup4\n        /* \"#utility.yul\":16902:16919   */\n      add\n        /* \"#utility.yul\":16893:16899   */\n      dup6\n        /* \"#utility.yul\":16849:16920   */\n      tag_276\n      jump\t// in\n    tag_471:\n        /* \"#utility.yul\":16930:17002   */\n      tag_472\n        /* \"#utility.yul\":16998:17000   */\n      0x20\n        /* \"#utility.yul\":16987:16996   */\n      dup4\n        /* \"#utility.yul\":16983:17001   */\n      add\n        /* \"#utility.yul\":16974:16980   */\n      dup5\n        /* \"#utility.yul\":16930:17002   */\n      tag_290\n      jump\t// in\n    tag_472:\n        /* \"#utility.yul\":16677:17009   */\n      swap4\n      swap3\n      pop\n      pop\n      pop\n      jump\t// out\n        /* \"#utility.yul\":17015:17236   */\n    tag_318:\n        /* \"#utility.yul\":17155:17189   */\n      0x536f6d656e7465206f20636f6e7472617461646f20706f646520657865637574\n        /* \"#utility.yul\":17151:17152   */\n      0x00\n        /* \"#utility.yul\":17143:17149   */\n      dup3\n        /* \"#utility.yul\":17139:17153   */\n      add\n        /* \"#utility.yul\":17132:17190   */\n      mstore\n        /* \"#utility.yul\":17224:17228   */\n      0x6172000000000000000000000000000000000000000000000000000000000000\n        /* \"#utility.yul\":17219:17221   */\n      0x20\n        /* \"#utility.yul\":17211:17217   */\n      dup3\n        /* \"#utility.yul\":17207:17222   */\n      add\n        /* \"#utility.yul\":17200:17229   */\n      mstore\n        /* \"#utility.yul\":17015:17236   */\n      pop\n      jump\t// out\n        /* \"#utility.yul\":17242:17608   */\n    tag_319:\n        /* \"#utility.yul\":17384:17387   */\n      0x00\n        /* \"#utility.yul\":17405:17472   */\n      tag_475\n        /* \"#utility.yul\":17469:17471   */\n      0x22\n        /* \"#utility.yul\":17464:17467   */\n      dup4\n        /* \"#utility.yul\":17405:17472   */\n      tag_285\n      jump\t// in\n    tag_475:\n        /* \"#utility.yul\":17398:17472   */\n      swap2\n      pop\n        /* \"#utility.yul\":17481:17574   */\n      tag_476\n        /* \"#utility.yul\":17570:17573   */\n      dup3\n        /* \"#utility.yul\":17481:17574   */\n      tag_318\n      jump\t// in\n    tag_476:\n        /* \"#utility.yul\":17599:17601   */\n      0x40\n        /* \"#utility.yul\":17594:17597   */\n      dup3\n        /* \"#utility.yul\":17590:17602   */\n      add\n        /* \"#utility.yul\":17583:17602   */\n      swap1\n      pop\n        /* \"#utility.yul\":17242:17608   */\n      swap2\n      swap1\n      pop\n      jump\t// out\n        /* \"#utility.yul\":17614:18033   */\n    tag_160:\n        /* \"#utility.yul\":17780:17784   */\n      0x00\n        /* \"#utility.yul\":17818:17820   */\n      0x20\n        /* \"#utility.yul\":17807:17816   */\n      dup3\n        /* \"#utility.yul\":17803:17821   */\n      add\n        /* \"#utility.yul\":17795:17821   */\n      swap1\n      pop\n        /* \"#utility.yul\":17867:17876   */\n      dup2\n        /* \"#utility.yul\":17861:17865   */\n      dup2\n        /* \"#utility.yul\":17857:17877   */\n      sub\n        /* \"#utility.yul\":17853:17854   */\n      0x00\n        /* \"#utility.yul\":17842:17851   */\n      dup4\n        /* \"#utility.yul\":17838:17855   */\n      add\n        /* \"#utility.yul\":17831:17878   */\n      mstore\n        /* \"#utility.yul\":17895:18026   */\n      tag_478\n        /* \"#utility.yul\":18021:18025   */\n      dup2\n        /* \"#utility.yul\":17895:18026   */\n      tag_319\n      jump\t// in\n    tag_478:\n        /* \"#utility.yul\":17887:18026   */\n      swap1\n      pop\n        /* \"#utility.yul\":17614:18033   */\n      swap2\n      swap1\n      pop\n      jump\t// out\n        /* \"#utility.yul\":18039:18209   */\n    tag_320:\n        /* \"#utility.yul\":18179:18201   */\n      0x5365727669636f206e616f20696e69636961646f000000000000000000000000\n        /* \"#utility.yul\":18175:18176   */\n      0x00\n        /* \"#utility.yul\":18167:18173   */\n      dup3\n        /* \"#utility.yul\":18163:18177   */\n      add\n        /* \"#utility.yul\":18156:18202   */\n      mstore\n        /* \"#utility.yul\":18039:18209   */\n      pop\n      jump\t// out\n        /* \"#utility.yul\":18215:18581   */\n    tag_321:\n        /* \"#utility.yul\":18357:18360   */\n      0x00\n        /* \"#utility.yul\":18378:18445   */\n      tag_481\n        /* \"#utility.yul\":18442:18444   */\n      0x14\n        /* \"#utility.yul\":18437:18440   */\n      dup4\n        /* \"#utility.yul\":18378:18445   */\n      tag_285\n      jump\t// in\n    tag_481:\n        /* \"#utility.yul\":18371:18445   */\n      swap2\n      pop\n        /* \"#utility.yul\":18454:18547   */\n      tag_482\n        /* \"#utility.yul\":18543:18546   */\n      dup3\n        /* \"#utility.yul\":18454:18547   */\n      tag_320\n      jump\t// in\n    tag_482:\n        /* \"#utility.yul\":18572:18574   */\n      0x20\n        /* \"#utility.yul\":18567:18570   */\n      dup3\n        /* \"#utility.yul\":18563:18575   */\n      add\n        /* \"#utility.yul\":18556:18575   */\n      swap1\n      pop\n        /* \"#utility.yul\":18215:18581   */\n      swap2\n      swap1\n      pop\n      jump\t// out\n        /* \"#utility.yul\":18587:19006   */\n    tag_168:\n        /* \"#utility.yul\":18753:18757   */\n      0x00\n        /* \"#utility.yul\":18791:18793   */\n      0x20\n        /* \"#utility.yul\":18780:18789   */\n      dup3\n        /* \"#utility.yul\":18776:18794   */\n      add\n        /* \"#utility.yul\":18768:18794   */\n      swap1\n      pop\n        /* \"#utility.yul\":18840:18849   */\n      dup2\n        /* \"#utility.yul\":18834:18838   */\n      dup2\n        /* \"#utility.yul\":18830:18850   */\n      sub\n        /* \"#utility.yul\":18826:18827   */\n      0x00\n        /* \"#utility.yul\":18815:18824   */\n      dup4\n        /* \"#utility.yul\":18811:18828   */\n      add\n        /* \"#utility.yul\":18804:18851   */\n      mstore\n        /* \"#utility.yul\":18868:18999   */\n      tag_484\n        /* \"#utility.yul\":18994:18998   */\n      dup2\n        /* \"#utility.yul\":18868:18999   */\n      tag_321\n      jump\t// in\n    tag_484:\n        /* \"#utility.yul\":18860:18999   */\n      swap1\n      pop\n        /* \"#utility.yul\":18587:19006   */\n      swap2\n      swap1\n      pop\n      jump\t// out\n        /* \"#utility.yul\":19012:19194   */\n    tag_322:\n        /* \"#utility.yul\":19152:19186   */\n      0x536f6d656e7465206f206164766f6761646f20706f6465206578656375746172\n        /* \"#utility.yul\":19148:19149   */\n      0x00\n        /* \"#utility.yul\":19140:19146   */\n      dup3\n        /* \"#utility.yul\":19136:19150   */\n      add\n        /* \"#utility.yul\":19129:19187   */\n      mstore\n        /* \"#utility.yul\":19012:19194   */\n      pop\n      jump\t// out\n        /* \"#utility.yul\":19200:19566   */\n    tag_323:\n        /* \"#utility.yul\":19342:19345   */\n      0x00\n        /* \"#utility.yul\":19363:19430   */\n      tag_487\n        /* \"#utility.yul\":19427:19429   */\n      0x20\n        /* \"#utility.yul\":19422:19425   */\n      dup4\n        /* \"#utility.yul\":19363:19430   */\n      tag_285\n      jump\t// in\n    tag_487:\n        /* \"#utility.yul\":19356:19430   */\n      swap2\n      pop\n        /* \"#utility.yul\":19439:19532   */\n      tag_488\n        /* \"#utility.yul\":19528:19531   */\n      dup3\n        /* \"#utility.yul\":19439:19532   */\n      tag_322\n      jump\t// in\n    tag_488:\n        /* \"#utility.yul\":19557:19559   */\n      0x20\n        /* \"#utility.yul\":19552:19555   */\n      dup3\n        /* \"#utility.yul\":19548:19560   */\n      add\n        /* \"#utility.yul\":19541:19560   */\n      swap1\n      pop\n        /* \"#utility.yul\":19200:19566   */\n      swap2\n      swap1\n      pop\n      jump\t// out\n        /* \"#utility.yul\":19572:19991   */\n    tag_176:\n        /* \"#utility.yul\":19738:19742   */\n      0x00\n        /* \"#utility.yul\":19776:19778   */\n      0x20\n        /* \"#utility.yul\":19765:19774   */\n      dup3\n        /* \"#utility.yul\":19761:19779   */\n      add\n        /* \"#utility.yul\":19753:19779   */\n      swap1\n      pop\n        /* \"#utility.yul\":19825:19834   */\n      dup2\n        /* \"#utility.yul\":19819:19823   */\n      dup2\n        /* \"#utility.yul\":19815:19835   */\n      sub\n        /* \"#utility.yul\":19811:19812   */\n      0x00\n        /* \"#utility.yul\":19800:19809   */\n      dup4\n        /* \"#utility.yul\":19796:19813   */\n      add\n        /* \"#utility.yul\":19789:19836   */\n      mstore\n        /* \"#utility.yul\":19853:19984   */\n      tag_490\n        /* \"#utility.yul\":19979:19983   */\n      dup2\n        /* \"#utility.yul\":19853:19984   */\n      tag_323\n      jump\t// in\n    tag_490:\n        /* \"#utility.yul\":19845:19984   */\n      swap1\n      pop\n        /* \"#utility.yul\":19572:19991   */\n      swap2\n      swap1\n      pop\n      jump\t// out\n        /* \"#utility.yul\":19997:20179   */\n    tag_324:\n        /* \"#utility.yul\":20137:20171   */\n      0x4e616f20706f64652063616e63656c61722061706f7320636f6e636c7573616f\n        /* \"#utility.yul\":20133:20134   */\n      0x00\n        /* \"#utility.yul\":20125:20131   */\n      dup3\n        /* \"#utility.yul\":20121:20135   */\n      add\n        /* \"#utility.yul\":20114:20172   */\n      mstore\n        /* \"#utility.yul\":19997:20179   */\n      pop\n      jump\t// out\n        /* \"#utility.yul\":20185:20551   */\n    tag_325:\n        /* \"#utility.yul\":20327:20330   */\n      0x00\n        /* \"#utility.yul\":20348:20415   */\n      tag_493\n        /* \"#utility.yul\":20412:20414   */\n      0x20\n        /* \"#utility.yul\":20407:20410   */\n      dup4\n        /* \"#utility.yul\":20348:20415   */\n      tag_285\n      jump\t// in\n    tag_493:\n        /* \"#utility.yul\":20341:20415   */\n      swap2\n      pop\n        /* \"#utility.yul\":20424:20517   */\n      tag_494\n        /* \"#utility.yul\":20513:20516   */\n      dup3\n        /* \"#utility.yul\":20424:20517   */\n      tag_324\n      jump\t// in\n    tag_494:\n        /* \"#utility.yul\":20542:20544   */\n      0x20\n        /* \"#utility.yul\":20537:20540   */\n      dup3\n        /* \"#utility.yul\":20533:20545   */\n      add\n        /* \"#utility.yul\":20526:20545   */\n      swap1\n      pop\n        /* \"#utility.yul\":20185:20551   */\n      swap2\n      swap1\n      pop\n      jump\t// out\n        /* \"#utility.yul\":20557:20976   */\n    tag_195:\n        /* \"#utility.yul\":20723:20727   */\n      0x00\n        /* \"#utility.yul\":20761:20763   */\n      0x20\n        /* \"#utility.yul\":20750:20759   */\n      dup3\n        /* \"#utility.yul\":20746:20764   */\n      add\n        /* \"#utility.yul\":20738:20764   */\n      swap1\n      pop\n        /* \"#utility.yul\":20810:20819   */\n      dup2\n        /* \"#utility.yul\":20804:20808   */\n      dup2\n        /* \"#utility.yul\":20800:20820   */\n      sub\n        /* \"#utility.yul\":20796:20797   */\n      0x00\n        /* \"#utility.yul\":20785:20794   */\n      dup4\n        /* \"#utility.yul\":20781:20798   */\n      add\n        /* \"#utility.yul\":20774:20821   */\n      mstore\n        /* \"#utility.yul\":20838:20969   */\n      tag_496\n        /* \"#utility.yul\":20964:20968   */\n      dup2\n        /* \"#utility.yul\":20838:20969   */\n      tag_325\n      jump\t// in\n    tag_496:\n        /* \"#utility.yul\":20830:20969   */\n      swap1\n      pop\n        /* \"#utility.yul\":20557:20976   */\n      swap2\n      swap1\n      pop\n      jump\t// out\n        /* \"#utility.yul\":20982:21162   */\n    tag_326:\n        /* \"#utility.yul\":21030:21107   */\n      0x4e487b7100000000000000000000000000000000000000000000000000000000\n        /* \"#utility.yul\":21027:21028   */\n      0x00\n        /* \"#utility.yul\":21020:21108   */\n      mstore\n        /* \"#utility.yul\":21127:21131   */\n      0x22\n        /* \"#utility.yul\":21124:21125   */\n      0x04\n        /* \"#utility.yul\":21117:21132   */\n      mstore\n        /* \"#utility.yul\":21151:21155   */\n      0x24\n        /* \"#utility.yul\":21148:21149   */\n      0x00\n        /* \"#utility.yul\":21141:21156   */\n      revert\n        /* \"#utility.yul\":21168:21488   */\n    tag_204:\n        /* \"#utility.yul\":21212:21218   */\n      0x00\n        /* \"#utility.yul\":21249:21250   */\n      0x02\n        /* \"#utility.yul\":21243:21247   */\n      dup3\n        /* \"#utility.yul\":21239:21251   */\n      div\n        /* \"#utility.yul\":21229:21251   */\n      swap1\n      pop\n        /* \"#utility.yul\":21296:21297   */\n      0x01\n        /* \"#utility.yul\":21290:21294   */\n      dup3\n        /* \"#utility.yul\":21286:21298   */\n      and\n        /* \"#utility.yul\":21317:21335   */\n      dup1\n        /* \"#utility.yul\":21307:21388   */\n      tag_499\n      jumpi\n        /* \"#utility.yul\":21373:21377   */\n      0x7f\n        /* \"#utility.yul\":21365:21371   */\n      dup3\n        /* \"#utility.yul\":21361:21378   */\n      and\n        /* \"#utility.yul\":21351:21378   */\n      swap2\n      pop\n        /* \"#utility.yul\":21307:21388   */\n    tag_499:\n        /* \"#utility.yul\":21435:21437   */\n      0x20\n        /* \"#utility.yul\":21427:21433   */\n      dup3\n        /* \"#utility.yul\":21424:21438   */\n      lt\n        /* \"#utility.yul\":21404:21422   */\n      dup2\n        /* \"#utility.yul\":21401:21439   */\n      sub\n        /* \"#utility.yul\":21398:21482   */\n      tag_500\n      jumpi\n        /* \"#utility.yul\":21454:21472   */\n      tag_501\n      tag_326\n      jump\t// in\n    tag_501:\n        /* \"#utility.yul\":21398:21482   */\n    tag_500:\n        /* \"#utility.yul\":21219:21488   */\n      pop\n        /* \"#utility.yul\":21168:21488   */\n      swap2\n      swap1\n      pop\n      jump\t// out\n        /* \"#utility.yul\":21494:21675   */\n    tag_327:\n        /* \"#utility.yul\":21634:21667   */\n      0x5265656e7472616e637947756172643a207265656e7472616e742063616c6c00\n        /* \"#utility.yul\":21630:21631   */\n      0x00\n        /* \"#utility.yul\":21622:21628   */\n      dup3\n        /* \"#utility.yul\":21618:21632   */\n      add\n        /* \"#utility.yul\":21611:21668   */\n      mstore\n        /* \"#utility.yul\":21494:21675   */\n      pop\n      jump\t// out\n        /* \"#utility.yul\":21681:22047   */\n    tag_328:\n        /* \"#utility.yul\":21823:21826   */\n      0x00\n        /* \"#utility.yul\":21844:21911   */\n      tag_504\n        /* \"#utility.yul\":21908:21910   */\n      0x1f\n        /* \"#utility.yul\":21903:21906   */\n      dup4\n        /* \"#utility.yul\":21844:21911   */\n      tag_285\n      jump\t// in\n    tag_504:\n        /* \"#utility.yul\":21837:21911   */\n      swap2\n      pop\n        /* \"#utility.yul\":21920:22013   */\n      tag_505\n        /* \"#utility.yul\":22009:22012   */\n      dup3\n        /* \"#utility.yul\":21920:22013   */\n      tag_327\n      jump\t// in\n    tag_505:\n        /* \"#utility.yul\":22038:22040   */\n      0x20\n        /* \"#utility.yul\":22033:22036   */\n      dup3\n        /* \"#utility.yul\":22029:22041   */\n      add\n        /* \"#utility.yul\":22022:22041   */\n      swap1\n      pop\n        /* \"#utility.yul\":21681:22047   */\n      swap2\n      swap1\n      pop\n      jump\t// out\n        /* \"#utility.yul\":22053:22472   */\n    tag_270:\n        /* \"#utility.yul\":22219:22223   */\n      0x00\n        /* \"#utility.yul\":22257:22259   */\n      0x20\n        /* \"#utility.yul\":22246:22255   */\n      dup3\n        /* \"#utility.yul\":22242:22260   */\n      add\n        /* \"#utility.yul\":22234:22260   */\n      swap1\n      pop\n        /* \"#utility.yul\":22306:22315   */\n      dup2\n        /* \"#utility.yul\":22300:22304   */\n      dup2\n        /* \"#utility.yul\":22296:22316   */\n      sub\n        /* \"#utility.yul\":22292:22293   */\n      0x00\n        /* \"#utility.yul\":22281:22290   */\n      dup4\n        /* \"#utility.yul\":22277:22294   */\n      add\n        /* \"#utility.yul\":22270:22317   */\n      mstore\n        /* \"#utility.yul\":22334:22465   */\n      tag_507\n        /* \"#utility.yul\":22460:22464   */\n      dup2\n        /* \"#utility.yul\":22334:22465   */\n      tag_328\n      jump\t// in\n    tag_507:\n        /* \"#utility.yul\":22326:22465   */\n      swap1\n      pop\n        /* \"#utility.yul\":22053:22472   */\n      swap2\n      swap1\n      pop\n      jump\t// out\n\n    auxdata: 0xa2646970667358221220308b9bbb27b95281b94aa7a3645dd0acde26c7fd0b91298ce36fbdcf49049bf364736f6c634300081e0033\n}\n",
				"bytecode": {
					"linkReferences": {},
					"object": "608060405234801561000f575f5ffd5b5060405161333d38038061333d83398181016040528101906100319190610b85565b60015f819055505f73ffffffffffffffffffffffffffffffffffffffff168773ffffffffffffffffffffffffffffffffffffffff16141580156100a057505f73ffffffffffffffffffffffffffffffffffffffff168673ffffffffffffffffffffffffffffffffffffffff1614155b6100df576040517f08c379a00000000000000000000000000000000000000000000000000000000081526004016100d690610cb4565b60405180910390fd5b5f73ffffffffffffffffffffffffffffffffffffffff168473ffffffffffffffffffffffffffffffffffffffff160361014d576040517f08c379a000000000000000000000000000000000000000000000000000000000815260040161014490610d1c565b60405180910390fd5b6040518061012001604052808481526020018381526020015f600481111561017857610177610d3a565b5b81526020018773ffffffffffffffffffffffffffffffffffffffff1681526020018873ffffffffffffffffffffffffffffffffffffffff1681526020018673ffffffffffffffffffffffffffffffffffffffff1681526020018573ffffffffffffffffffffffffffffffffffffffff1681526020015f151581526020018281525060015f820151815f01908161020e9190610f6e565b50602082015181600101556040820151816002015f6101000a81548160ff0219169083600481111561024357610242610d3a565b5b021790555060608201518160020160016101000a81548173ffffffffffffffffffffffffffffffffffffffff021916908373ffffffffffffffffffffffffffffffffffffffff1602179055506080820151816003015f6101000a81548173ffffffffffffffffffffffffffffffffffffffff021916908373ffffffffffffffffffffffffffffffffffffffff16021790555060a0820151816004015f6101000a81548173ffffffffffffffffffffffffffffffffffffffff021916908373ffffffffffffffffffffffffffffffffffffffff16021790555060c0820151816005015f6101000a81548173ffffffffffffffffffffffffffffffffffffffff021916908373ffffffffffffffffffffffffffffffffffffffff16021790555060e08201518160050160146101000a81548160ff0219169083151502179055506101008201518160060190816103979190610f6e565b5090505060405180606001604052808873ffffffffffffffffffffffffffffffffffffffff1681526020016040518060400160405280600b81526020017f436f6e74726174616e746500000000000000000000000000000000000000000081525081526020015f151581525060085f8973ffffffffffffffffffffffffffffffffffffffff1673ffffffffffffffffffffffffffffffffffffffff1681526020019081526020015f205f820151815f015f6101000a81548173ffffffffffffffffffffffffffffffffffffffff021916908373ffffffffffffffffffffffffffffffffffffffff16021790555060208201518160010190816104999190610f6e565b506040820151816002015f6101000a81548160ff02191690831515021790555090505060405180606001604052808773ffffffffffffffffffffffffffffffffffffffff1681526020016040518060400160405280600a81526020017f436f6e7472617461646f0000000000000000000000000000000000000000000081525081526020015f151581525060085f8873ffffffffffffffffffffffffffffffffffffffff1673ffffffffffffffffffffffffffffffffffffffff1681526020019081526020015f205f820151815f015f6101000a81548173ffffffffffffffffffffffffffffffffffffffff021916908373ffffffffffffffffffffffffffffffffffffffff16021790555060208201518160010190816105ba9190610f6e565b506040820151816002015f6101000a81548160ff02191690831515021790555090505060405180606001604052808673ffffffffffffffffffffffffffffffffffffffff1681526020016040518060400160405280600d81526020017f496e7465726d65646961646f720000000000000000000000000000000000000081525081526020015f151581525060085f8773ffffffffffffffffffffffffffffffffffffffff1673ffffffffffffffffffffffffffffffffffffffff1681526020019081526020015f205f820151815f015f6101000a81548173ffffffffffffffffffffffffffffffffffffffff021916908373ffffffffffffffffffffffffffffffffffffffff16021790555060208201518160010190816106db9190610f6e565b506040820151816002015f6101000a81548160ff02191690831515021790555090505060405180606001604052808573ffffffffffffffffffffffffffffffffffffffff1681526020016040518060400160405280600881526020017f4164766f6761646f00000000000000000000000000000000000000000000000081525081526020015f151581525060085f8673ffffffffffffffffffffffffffffffffffffffff1673ffffffffffffffffffffffffffffffffffffffff1681526020019081526020015f205f820151815f015f6101000a81548173ffffffffffffffffffffffffffffffffffffffff021916908373ffffffffffffffffffffffffffffffffffffffff16021790555060208201518160010190816107fc9190610f6e565b506040820151816002015f6101000a81548160ff021916908315150217905550905050600987908060018154018082558091505060019003905f5260205f20015f9091909190916101000a81548173ffffffffffffffffffffffffffffffffffffffff021916908373ffffffffffffffffffffffffffffffffffffffff160217905550600986908060018154018082558091505060019003905f5260205f20015f9091909190916101000a81548173ffffffffffffffffffffffffffffffffffffffff021916908373ffffffffffffffffffffffffffffffffffffffff160217905550600985908060018154018082558091505060019003905f5260205f20015f9091909190916101000a81548173ffffffffffffffffffffffffffffffffffffffff021916908373ffffffffffffffffffffffffffffffffffffffff160217905550600984908060018154018082558091505060019003905f5260205f20015f9091909190916101000a81548173ffffffffffffffffffffffffffffffffffffffff021916908373ffffffffffffffffffffffffffffffffffffffff1602179055505050505050505061103d565b5f604051905090565b5f5ffd5b5f5ffd5b5f73ffffffffffffffffffffffffffffffffffffffff82169050919050565b5f6109e5826109bc565b9050919050565b6109f5816109db565b81146109ff575f5ffd5b50565b5f81519050610a10816109ec565b92915050565b5f5ffd5b5f5ffd5b5f601f19601f8301169050919050565b7f4e487b71000000000000000000000000000000000000000000000000000000005f52604160045260245ffd5b610a6482610a1e565b810181811067ffffffffffffffff82111715610a8357610a82610a2e565b5b80604052505050565b5f610a956109ab565b9050610aa18282610a5b565b919050565b5f67ffffffffffffffff821115610ac057610abf610a2e565b5b610ac982610a1e565b9050602081019050919050565b8281835e5f83830152505050565b5f610af6610af184610aa6565b610a8c565b905082815260208101848484011115610b1257610b11610a1a565b5b610b1d848285610ad6565b509392505050565b5f82601f830112610b3957610b38610a16565b5b8151610b49848260208601610ae4565b91505092915050565b5f819050919050565b610b6481610b52565b8114610b6e575f5ffd5b50565b5f81519050610b7f81610b5b565b92915050565b5f5f5f5f5f5f5f60e0888a031215610ba057610b9f6109b4565b5b5f610bad8a828b01610a02565b9750506020610bbe8a828b01610a02565b9650506040610bcf8a828b01610a02565b9550506060610be08a828b01610a02565b945050608088015167ffffffffffffffff811115610c0157610c006109b8565b5b610c0d8a828b01610b25565b93505060a0610c1e8a828b01610b71565b92505060c088015167ffffffffffffffff811115610c3f57610c3e6109b8565b5b610c4b8a828b01610b25565b91505092959891949750929550565b5f82825260208201905092915050565b7f456e64657265636f7320696e76616c69646f73000000000000000000000000005f82015250565b5f610c9e601383610c5a565b9150610ca982610c6a565b602082019050919050565b5f6020820190508181035f830152610ccb81610c92565b9050919050565b7f4164766f6761646f206f6272696761746f72696f0000000000000000000000005f82015250565b5f610d06601483610c5a565b9150610d1182610cd2565b602082019050919050565b5f6020820190508181035f830152610d3381610cfa565b9050919050565b7f4e487b71000000000000000000000000000000000000000000000000000000005f52602160045260245ffd5b5f81519050919050565b7f4e487b71000000000000000000000000000000000000000000000000000000005f52602260045260245ffd5b5f6002820490506001821680610db557607f821691505b602082108103610dc857610dc7610d71565b5b50919050565b5f819050815f5260205f209050919050565b5f6020601f8301049050919050565b5f82821b905092915050565b5f60088302610e2a7fffffffffffffffffffffffffffffffffffffffffffffffffffffffffffffffff82610def565b610e348683610def565b95508019841693508086168417925050509392505050565b5f819050919050565b5f610e6f610e6a610e6584610b52565b610e4c565b610b52565b9050919050565b5f819050919050565b610e8883610e55565b610e9c610e9482610e76565b848454610dfb565b825550505050565b5f5f905090565b610eb3610ea4565b610ebe818484610e7f565b505050565b5b81811015610ee157610ed65f82610eab565b600181019050610ec4565b5050565b601f821115610f2657610ef781610dce565b610f0084610de0565b81016020851015610f0f578190505b610f23610f1b85610de0565b830182610ec3565b50505b505050565b5f82821c905092915050565b5f610f465f1984600802610f2b565b1980831691505092915050565b5f610f5e8383610f37565b9150826002028217905092915050565b610f7782610d67565b67ffffffffffffffff811115610f9057610f8f610a2e565b5b610f9a8254610d9e565b610fa5828285610ee5565b5f60209050601f831160018114610fd6575f8415610fc4578287015190505b610fce8582610f53565b865550611035565b601f198416610fe486610dce565b5f5b8281101561100b57848901518255600182019150602085019450602081019050610fe6565b868310156110285784890151611024601f891682610f37565b8355505b6001600288020188555050505b505050505050565b6122f38061104a5f395ff3fe60806040526004361061011e575f3560e01c8063bb7211cf1161009f578063e427938f11610063578063e427938f1461034e578063e4a25b3814610378578063eaf1cdfc146103a2578063f3e4896a146103cc578063fb3d968c146103f65761011e565b8063bb7211cf14610242578063bcff9e231461026c578063c598bddf14610296578063d2fdb0ee146102d2578063dcb82783146103105761011e565b80635ea3ddc2116100e65780635ea3ddc21461019857806379754129146101c2578063815085d9146101ec5780638bb5db741461020257806396b2176d146102185761011e565b80630d23ce1a146101225780631224addd146101385780632d22fd0b1461014e57806335c752af1461015857806357d4672914610182575b5f5ffd5b34801561012d575f5ffd5b50610136610428565b005b348015610143575f5ffd5b5061014c610612565b005b6101566107ce565b005b348015610163575f5ffd5b5061016c610a29565b6040516101799190611880565b60405180910390f35b34801561018d575f5ffd5b50610196610a42565b005b3480156101a3575f5ffd5b506101ac610ba8565b6040516101b991906118d8565b60405180910390f35b3480156101cd575f5ffd5b506101d6610bd3565b6040516101e391906118d8565b60405180910390f35b3480156101f7575f5ffd5b50610200610bfe565b005b34801561020d575f5ffd5b50610216610d5e565b005b348015610223575f5ffd5b5061022c610f08565b60405161023991906119a8565b60405180910390f35b34801561024d575f5ffd5b50610256610f93565b6040516102639190611a38565b60405180910390f35b348015610277575f5ffd5b50610280611025565b60405161028d9190611a70565b60405180910390f35b3480156102a1575f5ffd5b506102bc60048036038101906102b79190611ab7565b611030565b6040516102c991906118d8565b60405180910390f35b3480156102dd575f5ffd5b506102f860048036038101906102f39190611b0c565b61106b565b60405161030793929190611b37565b60405180910390f35b34801561031b575f5ffd5b5061033660048036038101906103319190611b0c565b611142565b60405161034593929190611b37565b60405180910390f35b348015610359575f5ffd5b506103626112ab565b60405161036f9190611a38565b60405180910390f35b348015610383575f5ffd5b5061038c61133e565b6040516103999190611a38565b60405180910390f35b3480156103ad575f5ffd5b506103b66115dc565b6040516103c391906118d8565b60405180910390f35b3480156103d7575f5ffd5b506103e0611608565b6040516103ed91906118d8565b60405180910390f35b348015610401575f5ffd5b5061040a611633565b60405161041f99989796959493929190611be6565b60405180910390f35b5f73ffffffffffffffffffffffffffffffffffffffff1660085f3373ffffffffffffffffffffffffffffffffffffffff1673ffffffffffffffffffffffffffffffffffffffff1681526020019081526020015f205f015f9054906101000a900473ffffffffffffffffffffffffffffffffffffffff1673ffffffffffffffffffffffffffffffffffffffff16036104f4576040517f08c379a00000000000000000000000000000000000000000000000000000000081526004016104eb90611cc9565b60405180910390fd5b60085f3373ffffffffffffffffffffffffffffffffffffffff1673ffffffffffffffffffffffffffffffffffffffff1681526020019081526020015f206002015f9054906101000a900460ff1615610581576040517f08c379a000000000000000000000000000000000000000000000000000000000815260040161057890611d31565b60405180910390fd5b600160085f3373ffffffffffffffffffffffffffffffffffffffff1673ffffffffffffffffffffffffffffffffffffffff1681526020019081526020015f206002015f6101000a81548160ff0219169083151502179055507fc14e04b51f707eaeb882e09f0ae64950e76fd067c25d942f53011379c98158d83360405161060891906118d8565b60405180910390a1565b60085f60016003015f9054906101000a900473ffffffffffffffffffffffffffffffffffffffff1673ffffffffffffffffffffffffffffffffffffffff1673ffffffffffffffffffffffffffffffffffffffff1681526020019081526020015f206002015f9054906101000a900460ff166106c2576040517f08c379a00000000000000000000000000000000000000000000000000000000081526004016106b990611d99565b60405180910390fd5b60085f600160020160019054906101000a900473ffffffffffffffffffffffffffffffffffffffff1673ffffffffffffffffffffffffffffffffffffffff1673ffffffffffffffffffffffffffffffffffffffff1681526020019081526020015f206002015f9054906101000a900460ff16610773576040517f08c379a000000000000000000000000000000000000000000000000000000000815260040161076a90611e01565b60405180910390fd5b600260016002015f6101000a81548160ff0219169083600481111561079b5761079a611b73565b5b02179055507f0671b112441f25ed92197fa8fa5573635a1cbcd9aa50582c4cf0f57527002db660405160405180910390a1565b6107d6611810565b60016003015f9054906101000a900473ffffffffffffffffffffffffffffffffffffffff1673ffffffffffffffffffffffffffffffffffffffff163373ffffffffffffffffffffffffffffffffffffffff1614610868576040517f08c379a000000000000000000000000000000000000000000000000000000000815260040161085f90611e8f565b60405180910390fd5b6003600481111561087c5761087b611b73565b5b60016002015f9054906101000a900460ff1660048111156108a05761089f611b73565b5b146108e0576040517f08c379a00000000000000000000000000000000000000000000000000000000081526004016108d790611ef7565b60405180910390fd5b600160050160149054906101000a900460ff16610932576040517f08c379a000000000000000000000000000000000000000000000000000000000815260040161092990611f85565b60405180910390fd5b6001800154341015610979576040517f08c379a000000000000000000000000000000000000000000000000000000000815260040161097090611fed565b60405180910390fd5b600160020160019054906101000a900473ffffffffffffffffffffffffffffffffffffffff1673ffffffffffffffffffffffffffffffffffffffff166108fc600180015490811502906040515f60405180830381858888f193505050501580156109e5573d5f5f3e3d5ffd5b507f99429f2d8b060f26850fbd2b5743f78b567da9b1860829588eba1799c4388a243334604051610a1792919061200b565b60405180910390a1610a2761185d565b565b5f600160050160149054906101000a900460ff16905090565b600160020160019054906101000a900473ffffffffffffffffffffffffffffffffffffffff1673ffffffffffffffffffffffffffffffffffffffff163373ffffffffffffffffffffffffffffffffffffffff1614610ad5576040517f08c379a0000000000000000000000000000000000000000000000000000000008152600401610acc906120a2565b60405180910390fd5b60026004811115610ae957610ae8611b73565b5b60016002015f9054906101000a900460ff166004811115610b0d57610b0c611b73565b5b14610b4d576040517f08c379a0000000000000000000000000000000000000000000000000000000008152600401610b449061210a565b60405180910390fd5b600360016002015f6101000a81548160ff02191690836004811115610b7557610b74611b73565b5b02179055507fc075506703249f4c1960aa7b24ab277718c285277dd6f0d0c19f5f668e92c45160405160405180910390a1565b5f60016005015f9054906101000a900473ffffffffffffffffffffffffffffffffffffffff16905090565b5f60016003015f9054906101000a900473ffffffffffffffffffffffffffffffffffffffff16905090565b60016005015f9054906101000a900473ffffffffffffffffffffffffffffffffffffffff1673ffffffffffffffffffffffffffffffffffffffff163373ffffffffffffffffffffffffffffffffffffffff1614610c90576040517f08c379a0000000000000000000000000000000000000000000000000000000008152600401610c8790612172565b60405180910390fd5b60036004811115610ca457610ca3611b73565b5b60016002015f9054906101000a900460ff166004811115610cc857610cc7611b73565b5b14610d08576040517f08c379a0000000000000000000000000000000000000000000000000000000008152600401610cff90611ef7565b60405180910390fd5b60018060050160146101000a81548160ff0219169083151502179055507fd07e77a7ae3d696b7904cab197b265c2e821d91ac12304afb6af66980e1adb7933604051610d5491906118d8565b60405180910390a1565b5f73ffffffffffffffffffffffffffffffffffffffff1660085f3373ffffffffffffffffffffffffffffffffffffffff1673ffffffffffffffffffffffffffffffffffffffff1681526020019081526020015f205f015f9054906101000a900473ffffffffffffffffffffffffffffffffffffffff1673ffffffffffffffffffffffffffffffffffffffff1603610e2a576040517f08c379a0000000000000000000000000000000000000000000000000000000008152600401610e2190611cc9565b60405180910390fd5b60036004811115610e3e57610e3d611b73565b5b60016002015f9054906101000a900460ff166004811115610e6257610e61611b73565b5b03610ea2576040517f08c379a0000000000000000000000000000000000000000000000000000000008152600401610e99906121da565b60405180910390fd5b600460016002015f6101000a81548160ff02191690836004811115610eca57610ec9611b73565b5b02179055507fe2b6baa1bd028e2a7847dc983ffb1e68f690ca782eee054303faa93d679cdf0233604051610efe91906118d8565b60405180910390a1565b60606009805480602002602001604051908101604052809291908181526020018280548015610f8957602002820191905f5260205f20905b815f9054906101000a900473ffffffffffffffffffffffffffffffffffffffff1673ffffffffffffffffffffffffffffffffffffffff1681526020019060010190808311610f40575b5050505050905090565b606060015f018054610fa490612225565b80601f0160208091040260200160405190810160405280929190818152602001828054610fd090612225565b801561101b5780601f10610ff25761010080835404028352916020019161101b565b820191905f5260205f20905b815481529060010190602001808311610ffe57829003601f168201915b5050505050905090565b5f6001800154905090565b6009818154811061103f575f80fd5b905f5260205f20015f915054906101000a900473ffffffffffffffffffffffffffffffffffffffff1681565b6008602052805f5260405f205f91509050805f015f9054906101000a900473ffffffffffffffffffffffffffffffffffffffff16908060010180546110af90612225565b80601f01602080910402602001604051908101604052809291908181526020018280546110db90612225565b80156111265780601f106110fd57610100808354040283529160200191611126565b820191905f5260205f20905b81548152906001019060200180831161110957829003601f168201915b505050505090806002015f9054906101000a900460ff16905083565b5f60605f5f60085f8673ffffffffffffffffffffffffffffffffffffffff1673ffffffffffffffffffffffffffffffffffffffff1681526020019081526020015f206040518060600160405290815f82015f9054906101000a900473ffffffffffffffffffffffffffffffffffffffff1673ffffffffffffffffffffffffffffffffffffffff1673ffffffffffffffffffffffffffffffffffffffff1681526020016001820180546111f390612225565b80601f016020809104026020016040519081016040528092919081815260200182805461121f90612225565b801561126a5780601f106112415761010080835404028352916020019161126a565b820191905f5260205f20905b81548152906001019060200180831161124d57829003601f168201915b50505050508152602001600282015f9054906101000a900460ff1615151515815250509050805f015181602001518260400151935093509350509193909250565b6060600160060180546112bd90612225565b80601f01602080910402602001604051908101604052809291908181526020018280546112e990612225565b80156113345780601f1061130b57610100808354040283529160200191611334565b820191905f5260205f20905b81548152906001019060200180831161131757829003601f168201915b5050505050905090565b60605f600481111561135357611352611b73565b5b60016002015f9054906101000a900460ff16600481111561137757611376611b73565b5b036113b9576040518060400160405280600681526020017f43726961646f000000000000000000000000000000000000000000000000000081525090506115d9565b600160048111156113cd576113cc611b73565b5b60016002015f9054906101000a900460ff1660048111156113f1576113f0611b73565b5b03611433576040518060400160405280600681526020017f41636569746f000000000000000000000000000000000000000000000000000081525090506115d9565b6002600481111561144757611446611b73565b5b60016002015f9054906101000a900460ff16600481111561146b5761146a611b73565b5b036114ad576040518060400160405280600c81526020017f456d20616e64616d656e746f000000000000000000000000000000000000000081525090506115d9565b600360048111156114c1576114c0611b73565b5b60016002015f9054906101000a900460ff1660048111156114e5576114e4611b73565b5b03611527576040518060400160405280600981526020017f436f6e636c7569646f000000000000000000000000000000000000000000000081525090506115d9565b60048081111561153a57611539611b73565b5b60016002015f9054906101000a900460ff16600481111561155e5761155d611b73565b5b036115a0576040518060400160405280600981526020017f43616e63656c61646f000000000000000000000000000000000000000000000081525090506115d9565b6040518060400160405280600c81526020017f446573636f6e68656369646f000000000000000000000000000000000000000081525090505b90565b5f600160020160019054906101000a900473ffffffffffffffffffffffffffffffffffffffff16905090565b5f60016004015f9054906101000a900473ffffffffffffffffffffffffffffffffffffffff16905090565b6001805f01805461164390612225565b80601f016020809104026020016040519081016040528092919081815260200182805461166f90612225565b80156116ba5780601f10611691576101008083540402835291602001916116ba565b820191905f5260205f20905b81548152906001019060200180831161169d57829003601f168201915b505050505090806001015490806002015f9054906101000a900460ff16908060020160019054906101000a900473ffffffffffffffffffffffffffffffffffffffff1690806003015f9054906101000a900473ffffffffffffffffffffffffffffffffffffffff1690806004015f9054906101000a900473ffffffffffffffffffffffffffffffffffffffff1690806005015f9054906101000a900473ffffffffffffffffffffffffffffffffffffffff16908060050160149054906101000a900460ff169080600601805461178f90612225565b80601f01602080910402602001604051908101604052809291908181526020018280546117bb90612225565b80156118065780601f106117dd57610100808354040283529160200191611806565b820191905f5260205f20905b8154815290600101906020018083116117e957829003601f168201915b5050505050905089565b60025f5403611854576040517f08c379a000000000000000000000000000000000000000000000000000000000815260040161184b9061229f565b60405180910390fd5b60025f81905550565b60015f81905550565b5f8115159050919050565b61187a81611866565b82525050565b5f6020820190506118935f830184611871565b92915050565b5f73ffffffffffffffffffffffffffffffffffffffff82169050919050565b5f6118c282611899565b9050919050565b6118d2816118b8565b82525050565b5f6020820190506118eb5f8301846118c9565b92915050565b5f81519050919050565b5f82825260208201905092915050565b5f819050602082019050919050565b611923816118b8565b82525050565b5f611934838361191a565b60208301905092915050565b5f602082019050919050565b5f611956826118f1565b61196081856118fb565b935061196b8361190b565b805f5b8381101561199b5781516119828882611929565b975061198d83611940565b92505060018101905061196e565b5085935050505092915050565b5f6020820190508181035f8301526119c0818461194c565b905092915050565b5f81519050919050565b5f82825260208201905092915050565b8281835e5f83830152505050565b5f601f19601f8301169050919050565b5f611a0a826119c8565b611a1481856119d2565b9350611a248185602086016119e2565b611a2d816119f0565b840191505092915050565b5f6020820190508181035f830152611a508184611a00565b905092915050565b5f819050919050565b611a6a81611a58565b82525050565b5f602082019050611a835f830184611a61565b92915050565b5f5ffd5b611a9681611a58565b8114611aa0575f5ffd5b50565b5f81359050611ab181611a8d565b92915050565b5f60208284031215611acc57611acb611a89565b5b5f611ad984828501611aa3565b91505092915050565b611aeb816118b8565b8114611af5575f5ffd5b50565b5f81359050611b0681611ae2565b92915050565b5f60208284031215611b2157611b20611a89565b5b5f611b2e84828501611af8565b91505092915050565b5f606082019050611b4a5f8301866118c9565b8181036020830152611b5c8185611a00565b9050611b6b6040830184611871565b949350505050565b7f4e487b71000000000000000000000000000000000000000000000000000000005f52602160045260245ffd5b60058110611bb157611bb0611b73565b5b50565b5f819050611bc182611ba0565b919050565b5f611bd082611bb4565b9050919050565b611be081611bc6565b82525050565b5f610120820190508181035f830152611bff818c611a00565b9050611c0e602083018b611a61565b611c1b604083018a611bd7565b611c2860608301896118c9565b611c3560808301886118c9565b611c4260a08301876118c9565b611c4f60c08301866118c9565b611c5c60e0830185611871565b818103610100830152611c6f8184611a00565b90509a9950505050505050505050565b7f4e616f206175746f72697a61646f0000000000000000000000000000000000005f82015250565b5f611cb3600e836119d2565b9150611cbe82611c7f565b602082019050919050565b5f6020820190508181035f830152611ce081611ca7565b9050919050565b7f4a612061636569746f75000000000000000000000000000000000000000000005f82015250565b5f611d1b600a836119d2565b9150611d2682611ce7565b602082019050919050565b5f6020820190508181035f830152611d4881611d0f565b9050919050565b7f436f6e74726174616e7465206e616f2061636569746f750000000000000000005f82015250565b5f611d836017836119d2565b9150611d8e82611d4f565b602082019050919050565b5f6020820190508181035f830152611db081611d77565b9050919050565b7f436f6e7472617461646f206e616f2061636569746f75000000000000000000005f82015250565b5f611deb6016836119d2565b9150611df682611db7565b602082019050919050565b5f6020820190508181035f830152611e1881611ddf565b9050919050565b7f536f6d656e7465206f20636f6e74726174616e746520706f64652065786563755f8201527f7461720000000000000000000000000000000000000000000000000000000000602082015250565b5f611e796023836119d2565b9150611e8482611e1f565b604082019050919050565b5f6020820190508181035f830152611ea681611e6d565b9050919050565b7f5365727669636f206e616f20636f6e636c7569646f00000000000000000000005f82015250565b5f611ee16015836119d2565b9150611eec82611ead565b602082019050919050565b5f6020820190508181035f830152611f0e81611ed5565b9050919050565b7f436f6e747261746f206e616f207265636f6e68656369646f206a7572696469635f8201527f616d656e74650000000000000000000000000000000000000000000000000000602082015250565b5f611f6f6026836119d2565b9150611f7a82611f15565b604082019050919050565b5f6020820190508181035f830152611f9c81611f63565b9050919050565b7f56616c6f7220696e737566696369656e746500000000000000000000000000005f82015250565b5f611fd76012836119d2565b9150611fe282611fa3565b602082019050919050565b5f6020820190508181035f83015261200481611fcb565b9050919050565b5f60408201905061201e5f8301856118c9565b61202b6020830184611a61565b9392505050565b7f536f6d656e7465206f20636f6e7472617461646f20706f6465206578656375745f8201527f6172000000000000000000000000000000000000000000000000000000000000602082015250565b5f61208c6022836119d2565b915061209782612032565b604082019050919050565b5f6020820190508181035f8301526120b981612080565b9050919050565b7f5365727669636f206e616f20696e69636961646f0000000000000000000000005f82015250565b5f6120f46014836119d2565b91506120ff826120c0565b602082019050919050565b5f6020820190508181035f830152612121816120e8565b9050919050565b7f536f6d656e7465206f206164766f6761646f20706f64652065786563757461725f82015250565b5f61215c6020836119d2565b915061216782612128565b602082019050919050565b5f6020820190508181035f83015261218981612150565b9050919050565b7f4e616f20706f64652063616e63656c61722061706f7320636f6e636c7573616f5f82015250565b5f6121c46020836119d2565b91506121cf82612190565b602082019050919050565b5f6020820190508181035f8301526121f1816121b8565b9050919050565b7f4e487b71000000000000000000000000000000000000000000000000000000005f52602260045260245ffd5b5f600282049050600182168061223c57607f821691505b60208210810361224f5761224e6121f8565b5b50919050565b7f5265656e7472616e637947756172643a207265656e7472616e742063616c6c005f82015250565b5f612289601f836119d2565b915061229482612255565b602082019050919050565b5f6020820190508181035f8301526122b68161227d565b905091905056fea2646970667358221220308b9bbb27b95281b94aa7a3645dd0acde26c7fd0b91298ce36fbdcf49049bf364736f6c634300081e0033",
					"opcodes": "PUSH1 0x80 PUSH1 0x40 MSTORE CALLVALUE DUP1 ISZERO PUSH2 0xF JUMPI PUSH0 PUSH0 REVERT JUMPDEST POP PUSH1 0x40 MLOAD PUSH2 0x333D CODESIZE SUB DUP1 PUSH2 0x333D DUP4 CODECOPY DUP2 DUP2 ADD PUSH1 0x40 MSTORE DUP2 ADD SWAP1 PUSH2 0x31 SWAP2 SWAP1 PUSH2 0xB85 JUMP JUMPDEST PUSH1 0x1 PUSH0 DUP2 SWAP1 SSTORE POP PUSH0 PUSH20 0xFFFFFFFFFFFFFFFFFFFFFFFFFFFFFFFFFFFFFFFF AND DUP8 PUSH20 0xFFFFFFFFFFFFFFFFFFFFFFFFFFFFFFFFFFFFFFFF AND EQ ISZERO DUP1 ISZERO PUSH2 0xA0 JUMPI POP PUSH0 PUSH20 0xFFFFFFFFFFFFFFFFFFFFFFFFFFFFFFFFFFFFFFFF AND DUP7 PUSH20 0xFFFFFFFFFFFFFFFFFFFFFFFFFFFFFFFFFFFFFFFF AND EQ ISZERO JUMPDEST PUSH2 0xDF JUMPI PUSH1 0x40 MLOAD PUSH32 0x8C379A000000000000000000000000000000000000000000000000000000000 DUP2 MSTORE PUSH1 0x4 ADD PUSH2 0xD6 SWAP1 PUSH2 0xCB4 JUMP JUMPDEST PUSH1 0x40 MLOAD DUP1 SWAP2 SUB SWAP1 REVERT JUMPDEST PUSH0 PUSH20 0xFFFFFFFFFFFFFFFFFFFFFFFFFFFFFFFFFFFFFFFF AND DUP5 PUSH20 0xFFFFFFFFFFFFFFFFFFFFFFFFFFFFFFFFFFFFFFFF AND SUB PUSH2 0x14D JUMPI PUSH1 0x40 MLOAD PUSH32 0x8C379A000000000000000000000000000000000000000000000000000000000 DUP2 MSTORE PUSH1 0x4 ADD PUSH2 0x144 SWAP1 PUSH2 0xD1C JUMP JUMPDEST PUSH1 0x40 MLOAD DUP1 SWAP2 SUB SWAP1 REVERT JUMPDEST PUSH1 0x40 MLOAD DUP1 PUSH2 0x120 ADD PUSH1 0x40 MSTORE DUP1 DUP5 DUP2 MSTORE PUSH1 0x20 ADD DUP4 DUP2 MSTORE PUSH1 0x20 ADD PUSH0 PUSH1 0x4 DUP2 GT ISZERO PUSH2 0x178 JUMPI PUSH2 0x177 PUSH2 0xD3A JUMP JUMPDEST JUMPDEST DUP2 MSTORE PUSH1 0x20 ADD DUP8 PUSH20 0xFFFFFFFFFFFFFFFFFFFFFFFFFFFFFFFFFFFFFFFF AND DUP2 MSTORE PUSH1 0x20 ADD DUP9 PUSH20 0xFFFFFFFFFFFFFFFFFFFFFFFFFFFFFFFFFFFFFFFF AND DUP2 MSTORE PUSH1 0x20 ADD DUP7 PUSH20 0xFFFFFFFFFFFFFFFFFFFFFFFFFFFFFFFFFFFFFFFF AND DUP2 MSTORE PUSH1 0x20 ADD DUP6 PUSH20 0xFFFFFFFFFFFFFFFFFFFFFFFFFFFFFFFFFFFFFFFF AND DUP2 MSTORE PUSH1 0x20 ADD PUSH0 ISZERO ISZERO DUP2 MSTORE PUSH1 0x20 ADD DUP3 DUP2 MSTORE POP PUSH1 0x1 PUSH0 DUP3 ADD MLOAD DUP2 PUSH0 ADD SWAP1 DUP2 PUSH2 0x20E SWAP2 SWAP1 PUSH2 0xF6E JUMP JUMPDEST POP PUSH1 0x20 DUP3 ADD MLOAD DUP2 PUSH1 0x1 ADD SSTORE PUSH1 0x40 DUP3 ADD MLOAD DUP2 PUSH1 0x2 ADD PUSH0 PUSH2 0x100 EXP DUP2 SLOAD DUP2 PUSH1 0xFF MUL NOT AND SWAP1 DUP4 PUSH1 0x4 DUP2 GT ISZERO PUSH2 0x243 JUMPI PUSH2 0x242 PUSH2 0xD3A JUMP JUMPDEST JUMPDEST MUL OR SWAP1 SSTORE POP PUSH1 0x60 DUP3 ADD MLOAD DUP2 PUSH1 0x2 ADD PUSH1 0x1 PUSH2 0x100 EXP DUP2 SLOAD DUP2 PUSH20 0xFFFFFFFFFFFFFFFFFFFFFFFFFFFFFFFFFFFFFFFF MUL NOT AND SWAP1 DUP4 PUSH20 0xFFFFFFFFFFFFFFFFFFFFFFFFFFFFFFFFFFFFFFFF AND MUL OR SWAP1 SSTORE POP PUSH1 0x80 DUP3 ADD MLOAD DUP2 PUSH1 0x3 ADD PUSH0 PUSH2 0x100 EXP DUP2 SLOAD DUP2 PUSH20 0xFFFFFFFFFFFFFFFFFFFFFFFFFFFFFFFFFFFFFFFF MUL NOT AND SWAP1 DUP4 PUSH20 0xFFFFFFFFFFFFFFFFFFFFFFFFFFFFFFFFFFFFFFFF AND MUL OR SWAP1 SSTORE POP PUSH1 0xA0 DUP3 ADD MLOAD DUP2 PUSH1 0x4 ADD PUSH0 PUSH2 0x100 EXP DUP2 SLOAD DUP2 PUSH20 0xFFFFFFFFFFFFFFFFFFFFFFFFFFFFFFFFFFFFFFFF MUL NOT AND SWAP1 DUP4 PUSH20 0xFFFFFFFFFFFFFFFFFFFFFFFFFFFFFFFFFFFFFFFF AND MUL OR SWAP1 SSTORE POP PUSH1 0xC0 DUP3 ADD MLOAD DUP2 PUSH1 0x5 ADD PUSH0 PUSH2 0x100 EXP DUP2 SLOAD DUP2 PUSH20 0xFFFFFFFFFFFFFFFFFFFFFFFFFFFFFFFFFFFFFFFF MUL NOT AND SWAP1 DUP4 PUSH20 0xFFFFFFFFFFFFFFFFFFFFFFFFFFFFFFFFFFFFFFFF AND MUL OR SWAP1 SSTORE POP PUSH1 0xE0 DUP3 ADD MLOAD DUP2 PUSH1 0x5 ADD PUSH1 0x14 PUSH2 0x100 EXP DUP2 SLOAD DUP2 PUSH1 0xFF MUL NOT AND SWAP1 DUP4 ISZERO ISZERO MUL OR SWAP1 SSTORE POP PUSH2 0x100 DUP3 ADD MLOAD DUP2 PUSH1 0x6 ADD SWAP1 DUP2 PUSH2 0x397 SWAP2 SWAP1 PUSH2 0xF6E JUMP JUMPDEST POP SWAP1 POP POP PUSH1 0x40 MLOAD DUP1 PUSH1 0x60 ADD PUSH1 0x40 MSTORE DUP1 DUP9 PUSH20 0xFFFFFFFFFFFFFFFFFFFFFFFFFFFFFFFFFFFFFFFF AND DUP2 MSTORE PUSH1 0x20 ADD PUSH1 0x40 MLOAD DUP1 PUSH1 0x40 ADD PUSH1 0x40 MSTORE DUP1 PUSH1 0xB DUP2 MSTORE PUSH1 0x20 ADD PUSH32 0x436F6E74726174616E7465000000000000000000000000000000000000000000 DUP2 MSTORE POP DUP2 MSTORE PUSH1 0x20 ADD PUSH0 ISZERO ISZERO DUP2 MSTORE POP PUSH1 0x8 PUSH0 DUP10 PUSH20 0xFFFFFFFFFFFFFFFFFFFFFFFFFFFFFFFFFFFFFFFF AND PUSH20 0xFFFFFFFFFFFFFFFFFFFFFFFFFFFFFFFFFFFFFFFF AND DUP2 MSTORE PUSH1 0x20 ADD SWAP1 DUP2 MSTORE PUSH1 0x20 ADD PUSH0 KECCAK256 PUSH0 DUP3 ADD MLOAD DUP2 PUSH0 ADD PUSH0 PUSH2 0x100 EXP DUP2 SLOAD DUP2 PUSH20 0xFFFFFFFFFFFFFFFFFFFFFFFFFFFFFFFFFFFFFFFF MUL NOT AND SWAP1 DUP4 PUSH20 0xFFFFFFFFFFFFFFFFFFFFFFFFFFFFFFFFFFFFFFFF AND MUL OR SWAP1 SSTORE POP PUSH1 0x20 DUP3 ADD MLOAD DUP2 PUSH1 0x1 ADD SWAP1 DUP2 PUSH2 0x499 SWAP2 SWAP1 PUSH2 0xF6E JUMP JUMPDEST POP PUSH1 0x40 DUP3 ADD MLOAD DUP2 PUSH1 0x2 ADD PUSH0 PUSH2 0x100 EXP DUP2 SLOAD DUP2 PUSH1 0xFF MUL NOT AND SWAP1 DUP4 ISZERO ISZERO MUL OR SWAP1 SSTORE POP SWAP1 POP POP PUSH1 0x40 MLOAD DUP1 PUSH1 0x60 ADD PUSH1 0x40 MSTORE DUP1 DUP8 PUSH20 0xFFFFFFFFFFFFFFFFFFFFFFFFFFFFFFFFFFFFFFFF AND DUP2 MSTORE PUSH1 0x20 ADD PUSH1 0x40 MLOAD DUP1 PUSH1 0x40 ADD PUSH1 0x40 MSTORE DUP1 PUSH1 0xA DUP2 MSTORE PUSH1 0x20 ADD PUSH32 0x436F6E7472617461646F00000000000000000000000000000000000000000000 DUP2 MSTORE POP DUP2 MSTORE PUSH1 0x20 ADD PUSH0 ISZERO ISZERO DUP2 MSTORE POP PUSH1 0x8 PUSH0 DUP9 PUSH20 0xFFFFFFFFFFFFFFFFFFFFFFFFFFFFFFFFFFFFFFFF AND PUSH20 0xFFFFFFFFFFFFFFFFFFFFFFFFFFFFFFFFFFFFFFFF AND DUP2 MSTORE PUSH1 0x20 ADD SWAP1 DUP2 MSTORE PUSH1 0x20 ADD PUSH0 KECCAK256 PUSH0 DUP3 ADD MLOAD DUP2 PUSH0 ADD PUSH0 PUSH2 0x100 EXP DUP2 SLOAD DUP2 PUSH20 0xFFFFFFFFFFFFFFFFFFFFFFFFFFFFFFFFFFFFFFFF MUL NOT AND SWAP1 DUP4 PUSH20 0xFFFFFFFFFFFFFFFFFFFFFFFFFFFFFFFFFFFFFFFF AND MUL OR SWAP1 SSTORE POP PUSH1 0x20 DUP3 ADD MLOAD DUP2 PUSH1 0x1 ADD SWAP1 DUP2 PUSH2 0x5BA SWAP2 SWAP1 PUSH2 0xF6E JUMP JUMPDEST POP PUSH1 0x40 DUP3 ADD MLOAD DUP2 PUSH1 0x2 ADD PUSH0 PUSH2 0x100 EXP DUP2 SLOAD DUP2 PUSH1 0xFF MUL NOT AND SWAP1 DUP4 ISZERO ISZERO MUL OR SWAP1 SSTORE POP SWAP1 POP POP PUSH1 0x40 MLOAD DUP1 PUSH1 0x60 ADD PUSH1 0x40 MSTORE DUP1 DUP7 PUSH20 0xFFFFFFFFFFFFFFFFFFFFFFFFFFFFFFFFFFFFFFFF AND DUP2 MSTORE PUSH1 0x20 ADD PUSH1 0x40 MLOAD DUP1 PUSH1 0x40 ADD PUSH1 0x40 MSTORE DUP1 PUSH1 0xD DUP2 MSTORE PUSH1 0x20 ADD PUSH32 0x496E7465726D65646961646F7200000000000000000000000000000000000000 DUP2 MSTORE POP DUP2 MSTORE PUSH1 0x20 ADD PUSH0 ISZERO ISZERO DUP2 MSTORE POP PUSH1 0x8 PUSH0 DUP8 PUSH20 0xFFFFFFFFFFFFFFFFFFFFFFFFFFFFFFFFFFFFFFFF AND PUSH20 0xFFFFFFFFFFFFFFFFFFFFFFFFFFFFFFFFFFFFFFFF AND DUP2 MSTORE PUSH1 0x20 ADD SWAP1 DUP2 MSTORE PUSH1 0x20 ADD PUSH0 KECCAK256 PUSH0 DUP3 ADD MLOAD DUP2 PUSH0 ADD PUSH0 PUSH2 0x100 EXP DUP2 SLOAD DUP2 PUSH20 0xFFFFFFFFFFFFFFFFFFFFFFFFFFFFFFFFFFFFFFFF MUL NOT AND SWAP1 DUP4 PUSH20 0xFFFFFFFFFFFFFFFFFFFFFFFFFFFFFFFFFFFFFFFF AND MUL OR SWAP1 SSTORE POP PUSH1 0x20 DUP3 ADD MLOAD DUP2 PUSH1 0x1 ADD SWAP1 DUP2 PUSH2 0x6DB SWAP2 SWAP1 PUSH2 0xF6E JUMP JUMPDEST POP PUSH1 0x40 DUP3 ADD MLOAD DUP2 PUSH1 0x2 ADD PUSH0 PUSH2 0x100 EXP DUP2 SLOAD DUP2 PUSH1 0xFF MUL NOT AND SWAP1 DUP4 ISZERO ISZERO MUL OR SWAP1 SSTORE POP SWAP1 POP POP PUSH1 0x40 MLOAD DUP1 PUSH1 0x60 ADD PUSH1 0x40 MSTORE DUP1 DUP6 PUSH20 0xFFFFFFFFFFFFFFFFFFFFFFFFFFFFFFFFFFFFFFFF AND DUP2 MSTORE PUSH1 0x20 ADD PUSH1 0x40 MLOAD DUP1 PUSH1 0x40 ADD PUSH1 0x40 MSTORE DUP1 PUSH1 0x8 DUP2 MSTORE PUSH1 0x20 ADD PUSH32 0x4164766F6761646F000000000000000000000000000000000000000000000000 DUP2 MSTORE POP DUP2 MSTORE PUSH1 0x20 ADD PUSH0 ISZERO ISZERO DUP2 MSTORE POP PUSH1 0x8 PUSH0 DUP7 PUSH20 0xFFFFFFFFFFFFFFFFFFFFFFFFFFFFFFFFFFFFFFFF AND PUSH20 0xFFFFFFFFFFFFFFFFFFFFFFFFFFFFFFFFFFFFFFFF AND DUP2 MSTORE PUSH1 0x20 ADD SWAP1 DUP2 MSTORE PUSH1 0x20 ADD PUSH0 KECCAK256 PUSH0 DUP3 ADD MLOAD DUP2 PUSH0 ADD PUSH0 PUSH2 0x100 EXP DUP2 SLOAD DUP2 PUSH20 0xFFFFFFFFFFFFFFFFFFFFFFFFFFFFFFFFFFFFFFFF MUL NOT AND SWAP1 DUP4 PUSH20 0xFFFFFFFFFFFFFFFFFFFFFFFFFFFFFFFFFFFFFFFF AND MUL OR SWAP1 SSTORE POP PUSH1 0x20 DUP3 ADD MLOAD DUP2 PUSH1 0x1 ADD SWAP1 DUP2 PUSH2 0x7FC SWAP2 SWAP1 PUSH2 0xF6E JUMP JUMPDEST POP PUSH1 0x40 DUP3 ADD MLOAD DUP2 PUSH1 0x2 ADD PUSH0 PUSH2 0x100 EXP DUP2 SLOAD DUP2 PUSH1 0xFF MUL NOT AND SWAP1 DUP4 ISZERO ISZERO MUL OR SWAP1 SSTORE POP SWAP1 POP POP PUSH1 0x9 DUP8 SWAP1 DUP1 PUSH1 0x1 DUP2 SLOAD ADD DUP1 DUP3 SSTORE DUP1 SWAP2 POP POP PUSH1 0x1 SWAP1 SUB SWAP1 PUSH0 MSTORE PUSH1 0x20 PUSH0 KECCAK256 ADD PUSH0 SWAP1 SWAP2 SWAP1 SWAP2 SWAP1 SWAP2 PUSH2 0x100 EXP DUP2 SLOAD DUP2 PUSH20 0xFFFFFFFFFFFFFFFFFFFFFFFFFFFFFFFFFFFFFFFF MUL NOT AND SWAP1 DUP4 PUSH20 0xFFFFFFFFFFFFFFFFFFFFFFFFFFFFFFFFFFFFFFFF AND MUL OR SWAP1 SSTORE POP PUSH1 0x9 DUP7 SWAP1 DUP1 PUSH1 0x1 DUP2 SLOAD ADD DUP1 DUP3 SSTORE DUP1 SWAP2 POP POP PUSH1 0x1 SWAP1 SUB SWAP1 PUSH0 MSTORE PUSH1 0x20 PUSH0 KECCAK256 ADD PUSH0 SWAP1 SWAP2 SWAP1 SWAP2 SWAP1 SWAP2 PUSH2 0x100 EXP DUP2 SLOAD DUP2 PUSH20 0xFFFFFFFFFFFFFFFFFFFFFFFFFFFFFFFFFFFFFFFF MUL NOT AND SWAP1 DUP4 PUSH20 0xFFFFFFFFFFFFFFFFFFFFFFFFFFFFFFFFFFFFFFFF AND MUL OR SWAP1 SSTORE POP PUSH1 0x9 DUP6 SWAP1 DUP1 PUSH1 0x1 DUP2 SLOAD ADD DUP1 DUP3 SSTORE DUP1 SWAP2 POP POP PUSH1 0x1 SWAP1 SUB SWAP1 PUSH0 MSTORE PUSH1 0x20 PUSH0 KECCAK256 ADD PUSH0 SWAP1 SWAP2 SWAP1 SWAP2 SWAP1 SWAP2 PUSH2 0x100 EXP DUP2 SLOAD DUP2 PUSH20 0xFFFFFFFFFFFFFFFFFFFFFFFFFFFFFFFFFFFFFFFF MUL NOT AND SWAP1 DUP4 PUSH20 0xFFFFFFFFFFFFFFFFFFFFFFFFFFFFFFFFFFFFFFFF AND MUL OR SWAP1 SSTORE POP PUSH1 0x9 DUP5 SWAP1 DUP1 PUSH1 0x1 DUP2 SLOAD ADD DUP1 DUP3 SSTORE DUP1 SWAP2 POP POP PUSH1 0x1 SWAP1 SUB SWAP1 PUSH0 MSTORE PUSH1 0x20 PUSH0 KECCAK256 ADD PUSH0 SWAP1 SWAP2 SWAP1 SWAP2 SWAP1 SWAP2 PUSH2 0x100 EXP DUP2 SLOAD DUP2 PUSH20 0xFFFFFFFFFFFFFFFFFFFFFFFFFFFFFFFFFFFFFFFF MUL NOT AND SWAP1 DUP4 PUSH20 0xFFFFFFFFFFFFFFFFFFFFFFFFFFFFFFFFFFFFFFFF AND MUL OR SWAP1 SSTORE POP POP POP POP POP POP POP POP PUSH2 0x103D JUMP JUMPDEST PUSH0 PUSH1 0x40 MLOAD SWAP1 POP SWAP1 JUMP JUMPDEST PUSH0 PUSH0 REVERT JUMPDEST PUSH0 PUSH0 REVERT JUMPDEST PUSH0 PUSH20 0xFFFFFFFFFFFFFFFFFFFFFFFFFFFFFFFFFFFFFFFF DUP3 AND SWAP1 POP SWAP2 SWAP1 POP JUMP JUMPDEST PUSH0 PUSH2 0x9E5 DUP3 PUSH2 0x9BC JUMP JUMPDEST SWAP1 POP SWAP2 SWAP1 POP JUMP JUMPDEST PUSH2 0x9F5 DUP2 PUSH2 0x9DB JUMP JUMPDEST DUP2 EQ PUSH2 0x9FF JUMPI PUSH0 PUSH0 REVERT JUMPDEST POP JUMP JUMPDEST PUSH0 DUP2 MLOAD SWAP1 POP PUSH2 0xA10 DUP2 PUSH2 0x9EC JUMP JUMPDEST SWAP3 SWAP2 POP POP JUMP JUMPDEST PUSH0 PUSH0 REVERT JUMPDEST PUSH0 PUSH0 REVERT JUMPDEST PUSH0 PUSH1 0x1F NOT PUSH1 0x1F DUP4 ADD AND SWAP1 POP SWAP2 SWAP1 POP JUMP JUMPDEST PUSH32 0x4E487B7100000000000000000000000000000000000000000000000000000000 PUSH0 MSTORE PUSH1 0x41 PUSH1 0x4 MSTORE PUSH1 0x24 PUSH0 REVERT JUMPDEST PUSH2 0xA64 DUP3 PUSH2 0xA1E JUMP JUMPDEST DUP2 ADD DUP2 DUP2 LT PUSH8 0xFFFFFFFFFFFFFFFF DUP3 GT OR ISZERO PUSH2 0xA83 JUMPI PUSH2 0xA82 PUSH2 0xA2E JUMP JUMPDEST JUMPDEST DUP1 PUSH1 0x40 MSTORE POP POP POP JUMP JUMPDEST PUSH0 PUSH2 0xA95 PUSH2 0x9AB JUMP JUMPDEST SWAP1 POP PUSH2 0xAA1 DUP3 DUP3 PUSH2 0xA5B JUMP JUMPDEST SWAP2 SWAP1 POP JUMP JUMPDEST PUSH0 PUSH8 0xFFFFFFFFFFFFFFFF DUP3 GT ISZERO PUSH2 0xAC0 JUMPI PUSH2 0xABF PUSH2 0xA2E JUMP JUMPDEST JUMPDEST PUSH2 0xAC9 DUP3 PUSH2 0xA1E JUMP JUMPDEST SWAP1 POP PUSH1 0x20 DUP2 ADD SWAP1 POP SWAP2 SWAP1 POP JUMP JUMPDEST DUP3 DUP2 DUP4 MCOPY PUSH0 DUP4 DUP4 ADD MSTORE POP POP POP JUMP JUMPDEST PUSH0 PUSH2 0xAF6 PUSH2 0xAF1 DUP5 PUSH2 0xAA6 JUMP JUMPDEST PUSH2 0xA8C JUMP JUMPDEST SWAP1 POP DUP3 DUP2 MSTORE PUSH1 0x20 DUP2 ADD DUP5 DUP5 DUP5 ADD GT ISZERO PUSH2 0xB12 JUMPI PUSH2 0xB11 PUSH2 0xA1A JUMP JUMPDEST JUMPDEST PUSH2 0xB1D DUP5 DUP3 DUP6 PUSH2 0xAD6 JUMP JUMPDEST POP SWAP4 SWAP3 POP POP POP JUMP JUMPDEST PUSH0 DUP3 PUSH1 0x1F DUP4 ADD SLT PUSH2 0xB39 JUMPI PUSH2 0xB38 PUSH2 0xA16 JUMP JUMPDEST JUMPDEST DUP2 MLOAD PUSH2 0xB49 DUP5 DUP3 PUSH1 0x20 DUP7 ADD PUSH2 0xAE4 JUMP JUMPDEST SWAP2 POP POP SWAP3 SWAP2 POP POP JUMP JUMPDEST PUSH0 DUP2 SWAP1 POP SWAP2 SWAP1 POP JUMP JUMPDEST PUSH2 0xB64 DUP2 PUSH2 0xB52 JUMP JUMPDEST DUP2 EQ PUSH2 0xB6E JUMPI PUSH0 PUSH0 REVERT JUMPDEST POP JUMP JUMPDEST PUSH0 DUP2 MLOAD SWAP1 POP PUSH2 0xB7F DUP2 PUSH2 0xB5B JUMP JUMPDEST SWAP3 SWAP2 POP POP JUMP JUMPDEST PUSH0 PUSH0 PUSH0 PUSH0 PUSH0 PUSH0 PUSH0 PUSH1 0xE0 DUP9 DUP11 SUB SLT ISZERO PUSH2 0xBA0 JUMPI PUSH2 0xB9F PUSH2 0x9B4 JUMP JUMPDEST JUMPDEST PUSH0 PUSH2 0xBAD DUP11 DUP3 DUP12 ADD PUSH2 0xA02 JUMP JUMPDEST SWAP8 POP POP PUSH1 0x20 PUSH2 0xBBE DUP11 DUP3 DUP12 ADD PUSH2 0xA02 JUMP JUMPDEST SWAP7 POP POP PUSH1 0x40 PUSH2 0xBCF DUP11 DUP3 DUP12 ADD PUSH2 0xA02 JUMP JUMPDEST SWAP6 POP POP PUSH1 0x60 PUSH2 0xBE0 DUP11 DUP3 DUP12 ADD PUSH2 0xA02 JUMP JUMPDEST SWAP5 POP POP PUSH1 0x80 DUP9 ADD MLOAD PUSH8 0xFFFFFFFFFFFFFFFF DUP2 GT ISZERO PUSH2 0xC01 JUMPI PUSH2 0xC00 PUSH2 0x9B8 JUMP JUMPDEST JUMPDEST PUSH2 0xC0D DUP11 DUP3 DUP12 ADD PUSH2 0xB25 JUMP JUMPDEST SWAP4 POP POP PUSH1 0xA0 PUSH2 0xC1E DUP11 DUP3 DUP12 ADD PUSH2 0xB71 JUMP JUMPDEST SWAP3 POP POP PUSH1 0xC0 DUP9 ADD MLOAD PUSH8 0xFFFFFFFFFFFFFFFF DUP2 GT ISZERO PUSH2 0xC3F JUMPI PUSH2 0xC3E PUSH2 0x9B8 JUMP JUMPDEST JUMPDEST PUSH2 0xC4B DUP11 DUP3 DUP12 ADD PUSH2 0xB25 JUMP JUMPDEST SWAP2 POP POP SWAP3 SWAP6 SWAP9 SWAP2 SWAP5 SWAP8 POP SWAP3 SWAP6 POP JUMP JUMPDEST PUSH0 DUP3 DUP3 MSTORE PUSH1 0x20 DUP3 ADD SWAP1 POP SWAP3 SWAP2 POP POP JUMP JUMPDEST PUSH32 0x456E64657265636F7320696E76616C69646F7300000000000000000000000000 PUSH0 DUP3 ADD MSTORE POP JUMP JUMPDEST PUSH0 PUSH2 0xC9E PUSH1 0x13 DUP4 PUSH2 0xC5A JUMP JUMPDEST SWAP2 POP PUSH2 0xCA9 DUP3 PUSH2 0xC6A JUMP JUMPDEST PUSH1 0x20 DUP3 ADD SWAP1 POP SWAP2 SWAP1 POP JUMP JUMPDEST PUSH0 PUSH1 0x20 DUP3 ADD SWAP1 POP DUP2 DUP2 SUB PUSH0 DUP4 ADD MSTORE PUSH2 0xCCB DUP2 PUSH2 0xC92 JUMP JUMPDEST SWAP1 POP SWAP2 SWAP1 POP JUMP JUMPDEST PUSH32 0x4164766F6761646F206F6272696761746F72696F000000000000000000000000 PUSH0 DUP3 ADD MSTORE POP JUMP JUMPDEST PUSH0 PUSH2 0xD06 PUSH1 0x14 DUP4 PUSH2 0xC5A JUMP JUMPDEST SWAP2 POP PUSH2 0xD11 DUP3 PUSH2 0xCD2 JUMP JUMPDEST PUSH1 0x20 DUP3 ADD SWAP1 POP SWAP2 SWAP1 POP JUMP JUMPDEST PUSH0 PUSH1 0x20 DUP3 ADD SWAP1 POP DUP2 DUP2 SUB PUSH0 DUP4 ADD MSTORE PUSH2 0xD33 DUP2 PUSH2 0xCFA JUMP JUMPDEST SWAP1 POP SWAP2 SWAP1 POP JUMP JUMPDEST PUSH32 0x4E487B7100000000000000000000000000000000000000000000000000000000 PUSH0 MSTORE PUSH1 0x21 PUSH1 0x4 MSTORE PUSH1 0x24 PUSH0 REVERT JUMPDEST PUSH0 DUP2 MLOAD SWAP1 POP SWAP2 SWAP1 POP JUMP JUMPDEST PUSH32 0x4E487B7100000000000000000000000000000000000000000000000000000000 PUSH0 MSTORE PUSH1 0x22 PUSH1 0x4 MSTORE PUSH1 0x24 PUSH0 REVERT JUMPDEST PUSH0 PUSH1 0x2 DUP3 DIV SWAP1 POP PUSH1 0x1 DUP3 AND DUP1 PUSH2 0xDB5 JUMPI PUSH1 0x7F DUP3 AND SWAP2 POP JUMPDEST PUSH1 0x20 DUP3 LT DUP2 SUB PUSH2 0xDC8 JUMPI PUSH2 0xDC7 PUSH2 0xD71 JUMP JUMPDEST JUMPDEST POP SWAP2 SWAP1 POP JUMP JUMPDEST PUSH0 DUP2 SWAP1 POP DUP2 PUSH0 MSTORE PUSH1 0x20 PUSH0 KECCAK256 SWAP1 POP SWAP2 SWAP1 POP JUMP JUMPDEST PUSH0 PUSH1 0x20 PUSH1 0x1F DUP4 ADD DIV SWAP1 POP SWAP2 SWAP1 POP JUMP JUMPDEST PUSH0 DUP3 DUP3 SHL SWAP1 POP SWAP3 SWAP2 POP POP JUMP JUMPDEST PUSH0 PUSH1 0x8 DUP4 MUL PUSH2 0xE2A PUSH32 0xFFFFFFFFFFFFFFFFFFFFFFFFFFFFFFFFFFFFFFFFFFFFFFFFFFFFFFFFFFFFFFFF DUP3 PUSH2 0xDEF JUMP JUMPDEST PUSH2 0xE34 DUP7 DUP4 PUSH2 0xDEF JUMP JUMPDEST SWAP6 POP DUP1 NOT DUP5 AND SWAP4 POP DUP1 DUP7 AND DUP5 OR SWAP3 POP POP POP SWAP4 SWAP3 POP POP POP JUMP JUMPDEST PUSH0 DUP2 SWAP1 POP SWAP2 SWAP1 POP JUMP JUMPDEST PUSH0 PUSH2 0xE6F PUSH2 0xE6A PUSH2 0xE65 DUP5 PUSH2 0xB52 JUMP JUMPDEST PUSH2 0xE4C JUMP JUMPDEST PUSH2 0xB52 JUMP JUMPDEST SWAP1 POP SWAP2 SWAP1 POP JUMP JUMPDEST PUSH0 DUP2 SWAP1 POP SWAP2 SWAP1 POP JUMP JUMPDEST PUSH2 0xE88 DUP4 PUSH2 0xE55 JUMP JUMPDEST PUSH2 0xE9C PUSH2 0xE94 DUP3 PUSH2 0xE76 JUMP JUMPDEST DUP5 DUP5 SLOAD PUSH2 0xDFB JUMP JUMPDEST DUP3 SSTORE POP POP POP POP JUMP JUMPDEST PUSH0 PUSH0 SWAP1 POP SWAP1 JUMP JUMPDEST PUSH2 0xEB3 PUSH2 0xEA4 JUMP JUMPDEST PUSH2 0xEBE DUP2 DUP5 DUP5 PUSH2 0xE7F JUMP JUMPDEST POP POP POP JUMP JUMPDEST JUMPDEST DUP2 DUP2 LT ISZERO PUSH2 0xEE1 JUMPI PUSH2 0xED6 PUSH0 DUP3 PUSH2 0xEAB JUMP JUMPDEST PUSH1 0x1 DUP2 ADD SWAP1 POP PUSH2 0xEC4 JUMP JUMPDEST POP POP JUMP JUMPDEST PUSH1 0x1F DUP3 GT ISZERO PUSH2 0xF26 JUMPI PUSH2 0xEF7 DUP2 PUSH2 0xDCE JUMP JUMPDEST PUSH2 0xF00 DUP5 PUSH2 0xDE0 JUMP JUMPDEST DUP2 ADD PUSH1 0x20 DUP6 LT ISZERO PUSH2 0xF0F JUMPI DUP2 SWAP1 POP JUMPDEST PUSH2 0xF23 PUSH2 0xF1B DUP6 PUSH2 0xDE0 JUMP JUMPDEST DUP4 ADD DUP3 PUSH2 0xEC3 JUMP JUMPDEST POP POP JUMPDEST POP POP POP JUMP JUMPDEST PUSH0 DUP3 DUP3 SHR SWAP1 POP SWAP3 SWAP2 POP POP JUMP JUMPDEST PUSH0 PUSH2 0xF46 PUSH0 NOT DUP5 PUSH1 0x8 MUL PUSH2 0xF2B JUMP JUMPDEST NOT DUP1 DUP4 AND SWAP2 POP POP SWAP3 SWAP2 POP POP JUMP JUMPDEST PUSH0 PUSH2 0xF5E DUP4 DUP4 PUSH2 0xF37 JUMP JUMPDEST SWAP2 POP DUP3 PUSH1 0x2 MUL DUP3 OR SWAP1 POP SWAP3 SWAP2 POP POP JUMP JUMPDEST PUSH2 0xF77 DUP3 PUSH2 0xD67 JUMP JUMPDEST PUSH8 0xFFFFFFFFFFFFFFFF DUP2 GT ISZERO PUSH2 0xF90 JUMPI PUSH2 0xF8F PUSH2 0xA2E JUMP JUMPDEST JUMPDEST PUSH2 0xF9A DUP3 SLOAD PUSH2 0xD9E JUMP JUMPDEST PUSH2 0xFA5 DUP3 DUP3 DUP6 PUSH2 0xEE5 JUMP JUMPDEST PUSH0 PUSH1 0x20 SWAP1 POP PUSH1 0x1F DUP4 GT PUSH1 0x1 DUP2 EQ PUSH2 0xFD6 JUMPI PUSH0 DUP5 ISZERO PUSH2 0xFC4 JUMPI DUP3 DUP8 ADD MLOAD SWAP1 POP JUMPDEST PUSH2 0xFCE DUP6 DUP3 PUSH2 0xF53 JUMP JUMPDEST DUP7 SSTORE POP PUSH2 0x1035 JUMP JUMPDEST PUSH1 0x1F NOT DUP5 AND PUSH2 0xFE4 DUP7 PUSH2 0xDCE JUMP JUMPDEST PUSH0 JUMPDEST DUP3 DUP2 LT ISZERO PUSH2 0x100B JUMPI DUP5 DUP10 ADD MLOAD DUP3 SSTORE PUSH1 0x1 DUP3 ADD SWAP2 POP PUSH1 0x20 DUP6 ADD SWAP5 POP PUSH1 0x20 DUP2 ADD SWAP1 POP PUSH2 0xFE6 JUMP JUMPDEST DUP7 DUP4 LT ISZERO PUSH2 0x1028 JUMPI DUP5 DUP10 ADD MLOAD PUSH2 0x1024 PUSH1 0x1F DUP10 AND DUP3 PUSH2 0xF37 JUMP JUMPDEST DUP4 SSTORE POP JUMPDEST PUSH1 0x1 PUSH1 0x2 DUP9 MUL ADD DUP9 SSTORE POP POP POP JUMPDEST POP POP POP POP POP POP JUMP JUMPDEST PUSH2 0x22F3 DUP1 PUSH2 0x104A PUSH0 CODECOPY PUSH0 RETURN INVALID PUSH1 0x80 PUSH1 0x40 MSTORE PUSH1 0x4 CALLDATASIZE LT PUSH2 0x11E JUMPI PUSH0 CALLDATALOAD PUSH1 0xE0 SHR DUP1 PUSH4 0xBB7211CF GT PUSH2 0x9F JUMPI DUP1 PUSH4 0xE427938F GT PUSH2 0x63 JUMPI DUP1 PUSH4 0xE427938F EQ PUSH2 0x34E JUMPI DUP1 PUSH4 0xE4A25B38 EQ PUSH2 0x378 JUMPI DUP1 PUSH4 0xEAF1CDFC EQ PUSH2 0x3A2 JUMPI DUP1 PUSH4 0xF3E4896A EQ PUSH2 0x3CC JUMPI DUP1 PUSH4 0xFB3D968C EQ PUSH2 0x3F6 JUMPI PUSH2 0x11E JUMP JUMPDEST DUP1 PUSH4 0xBB7211CF EQ PUSH2 0x242 JUMPI DUP1 PUSH4 0xBCFF9E23 EQ PUSH2 0x26C JUMPI DUP1 PUSH4 0xC598BDDF EQ PUSH2 0x296 JUMPI DUP1 PUSH4 0xD2FDB0EE EQ PUSH2 0x2D2 JUMPI DUP1 PUSH4 0xDCB82783 EQ PUSH2 0x310 JUMPI PUSH2 0x11E JUMP JUMPDEST DUP1 PUSH4 0x5EA3DDC2 GT PUSH2 0xE6 JUMPI DUP1 PUSH4 0x5EA3DDC2 EQ PUSH2 0x198 JUMPI DUP1 PUSH4 0x79754129 EQ PUSH2 0x1C2 JUMPI DUP1 PUSH4 0x815085D9 EQ PUSH2 0x1EC JUMPI DUP1 PUSH4 0x8BB5DB74 EQ PUSH2 0x202 JUMPI DUP1 PUSH4 0x96B2176D EQ PUSH2 0x218 JUMPI PUSH2 0x11E JUMP JUMPDEST DUP1 PUSH4 0xD23CE1A EQ PUSH2 0x122 JUMPI DUP1 PUSH4 0x1224ADDD EQ PUSH2 0x138 JUMPI DUP1 PUSH4 0x2D22FD0B EQ PUSH2 0x14E JUMPI DUP1 PUSH4 0x35C752AF EQ PUSH2 0x158 JUMPI DUP1 PUSH4 0x57D46729 EQ PUSH2 0x182 JUMPI JUMPDEST PUSH0 PUSH0 REVERT JUMPDEST CALLVALUE DUP1 ISZERO PUSH2 0x12D JUMPI PUSH0 PUSH0 REVERT JUMPDEST POP PUSH2 0x136 PUSH2 0x428 JUMP JUMPDEST STOP JUMPDEST CALLVALUE DUP1 ISZERO PUSH2 0x143 JUMPI PUSH0 PUSH0 REVERT JUMPDEST POP PUSH2 0x14C PUSH2 0x612 JUMP JUMPDEST STOP JUMPDEST PUSH2 0x156 PUSH2 0x7CE JUMP JUMPDEST STOP JUMPDEST CALLVALUE DUP1 ISZERO PUSH2 0x163 JUMPI PUSH0 PUSH0 REVERT JUMPDEST POP PUSH2 0x16C PUSH2 0xA29 JUMP JUMPDEST PUSH1 0x40 MLOAD PUSH2 0x179 SWAP2 SWAP1 PUSH2 0x1880 JUMP JUMPDEST PUSH1 0x40 MLOAD DUP1 SWAP2 SUB SWAP1 RETURN JUMPDEST CALLVALUE DUP1 ISZERO PUSH2 0x18D JUMPI PUSH0 PUSH0 REVERT JUMPDEST POP PUSH2 0x196 PUSH2 0xA42 JUMP JUMPDEST STOP JUMPDEST CALLVALUE DUP1 ISZERO PUSH2 0x1A3 JUMPI PUSH0 PUSH0 REVERT JUMPDEST POP PUSH2 0x1AC PUSH2 0xBA8 JUMP JUMPDEST PUSH1 0x40 MLOAD PUSH2 0x1B9 SWAP2 SWAP1 PUSH2 0x18D8 JUMP JUMPDEST PUSH1 0x40 MLOAD DUP1 SWAP2 SUB SWAP1 RETURN JUMPDEST CALLVALUE DUP1 ISZERO PUSH2 0x1CD JUMPI PUSH0 PUSH0 REVERT JUMPDEST POP PUSH2 0x1D6 PUSH2 0xBD3 JUMP JUMPDEST PUSH1 0x40 MLOAD PUSH2 0x1E3 SWAP2 SWAP1 PUSH2 0x18D8 JUMP JUMPDEST PUSH1 0x40 MLOAD DUP1 SWAP2 SUB SWAP1 RETURN JUMPDEST CALLVALUE DUP1 ISZERO PUSH2 0x1F7 JUMPI PUSH0 PUSH0 REVERT JUMPDEST POP PUSH2 0x200 PUSH2 0xBFE JUMP JUMPDEST STOP JUMPDEST CALLVALUE DUP1 ISZERO PUSH2 0x20D JUMPI PUSH0 PUSH0 REVERT JUMPDEST POP PUSH2 0x216 PUSH2 0xD5E JUMP JUMPDEST STOP JUMPDEST CALLVALUE DUP1 ISZERO PUSH2 0x223 JUMPI PUSH0 PUSH0 REVERT JUMPDEST POP PUSH2 0x22C PUSH2 0xF08 JUMP JUMPDEST PUSH1 0x40 MLOAD PUSH2 0x239 SWAP2 SWAP1 PUSH2 0x19A8 JUMP JUMPDEST PUSH1 0x40 MLOAD DUP1 SWAP2 SUB SWAP1 RETURN JUMPDEST CALLVALUE DUP1 ISZERO PUSH2 0x24D JUMPI PUSH0 PUSH0 REVERT JUMPDEST POP PUSH2 0x256 PUSH2 0xF93 JUMP JUMPDEST PUSH1 0x40 MLOAD PUSH2 0x263 SWAP2 SWAP1 PUSH2 0x1A38 JUMP JUMPDEST PUSH1 0x40 MLOAD DUP1 SWAP2 SUB SWAP1 RETURN JUMPDEST CALLVALUE DUP1 ISZERO PUSH2 0x277 JUMPI PUSH0 PUSH0 REVERT JUMPDEST POP PUSH2 0x280 PUSH2 0x1025 JUMP JUMPDEST PUSH1 0x40 MLOAD PUSH2 0x28D SWAP2 SWAP1 PUSH2 0x1A70 JUMP JUMPDEST PUSH1 0x40 MLOAD DUP1 SWAP2 SUB SWAP1 RETURN JUMPDEST CALLVALUE DUP1 ISZERO PUSH2 0x2A1 JUMPI PUSH0 PUSH0 REVERT JUMPDEST POP PUSH2 0x2BC PUSH1 0x4 DUP1 CALLDATASIZE SUB DUP2 ADD SWAP1 PUSH2 0x2B7 SWAP2 SWAP1 PUSH2 0x1AB7 JUMP JUMPDEST PUSH2 0x1030 JUMP JUMPDEST PUSH1 0x40 MLOAD PUSH2 0x2C9 SWAP2 SWAP1 PUSH2 0x18D8 JUMP JUMPDEST PUSH1 0x40 MLOAD DUP1 SWAP2 SUB SWAP1 RETURN JUMPDEST CALLVALUE DUP1 ISZERO PUSH2 0x2DD JUMPI PUSH0 PUSH0 REVERT JUMPDEST POP PUSH2 0x2F8 PUSH1 0x4 DUP1 CALLDATASIZE SUB DUP2 ADD SWAP1 PUSH2 0x2F3 SWAP2 SWAP1 PUSH2 0x1B0C JUMP JUMPDEST PUSH2 0x106B JUMP JUMPDEST PUSH1 0x40 MLOAD PUSH2 0x307 SWAP4 SWAP3 SWAP2 SWAP1 PUSH2 0x1B37 JUMP JUMPDEST PUSH1 0x40 MLOAD DUP1 SWAP2 SUB SWAP1 RETURN JUMPDEST CALLVALUE DUP1 ISZERO PUSH2 0x31B JUMPI PUSH0 PUSH0 REVERT JUMPDEST POP PUSH2 0x336 PUSH1 0x4 DUP1 CALLDATASIZE SUB DUP2 ADD SWAP1 PUSH2 0x331 SWAP2 SWAP1 PUSH2 0x1B0C JUMP JUMPDEST PUSH2 0x1142 JUMP JUMPDEST PUSH1 0x40 MLOAD PUSH2 0x345 SWAP4 SWAP3 SWAP2 SWAP1 PUSH2 0x1B37 JUMP JUMPDEST PUSH1 0x40 MLOAD DUP1 SWAP2 SUB SWAP1 RETURN JUMPDEST CALLVALUE DUP1 ISZERO PUSH2 0x359 JUMPI PUSH0 PUSH0 REVERT JUMPDEST POP PUSH2 0x362 PUSH2 0x12AB JUMP JUMPDEST PUSH1 0x40 MLOAD PUSH2 0x36F SWAP2 SWAP1 PUSH2 0x1A38 JUMP JUMPDEST PUSH1 0x40 MLOAD DUP1 SWAP2 SUB SWAP1 RETURN JUMPDEST CALLVALUE DUP1 ISZERO PUSH2 0x383 JUMPI PUSH0 PUSH0 REVERT JUMPDEST POP PUSH2 0x38C PUSH2 0x133E JUMP JUMPDEST PUSH1 0x40 MLOAD PUSH2 0x399 SWAP2 SWAP1 PUSH2 0x1A38 JUMP JUMPDEST PUSH1 0x40 MLOAD DUP1 SWAP2 SUB SWAP1 RETURN JUMPDEST CALLVALUE DUP1 ISZERO PUSH2 0x3AD JUMPI PUSH0 PUSH0 REVERT JUMPDEST POP PUSH2 0x3B6 PUSH2 0x15DC JUMP JUMPDEST PUSH1 0x40 MLOAD PUSH2 0x3C3 SWAP2 SWAP1 PUSH2 0x18D8 JUMP JUMPDEST PUSH1 0x40 MLOAD DUP1 SWAP2 SUB SWAP1 RETURN JUMPDEST CALLVALUE DUP1 ISZERO PUSH2 0x3D7 JUMPI PUSH0 PUSH0 REVERT JUMPDEST POP PUSH2 0x3E0 PUSH2 0x1608 JUMP JUMPDEST PUSH1 0x40 MLOAD PUSH2 0x3ED SWAP2 SWAP1 PUSH2 0x18D8 JUMP JUMPDEST PUSH1 0x40 MLOAD DUP1 SWAP2 SUB SWAP1 RETURN JUMPDEST CALLVALUE DUP1 ISZERO PUSH2 0x401 JUMPI PUSH0 PUSH0 REVERT JUMPDEST POP PUSH2 0x40A PUSH2 0x1633 JUMP JUMPDEST PUSH1 0x40 MLOAD PUSH2 0x41F SWAP10 SWAP9 SWAP8 SWAP7 SWAP6 SWAP5 SWAP4 SWAP3 SWAP2 SWAP1 PUSH2 0x1BE6 JUMP JUMPDEST PUSH1 0x40 MLOAD DUP1 SWAP2 SUB SWAP1 RETURN JUMPDEST PUSH0 PUSH20 0xFFFFFFFFFFFFFFFFFFFFFFFFFFFFFFFFFFFFFFFF AND PUSH1 0x8 PUSH0 CALLER PUSH20 0xFFFFFFFFFFFFFFFFFFFFFFFFFFFFFFFFFFFFFFFF AND PUSH20 0xFFFFFFFFFFFFFFFFFFFFFFFFFFFFFFFFFFFFFFFF AND DUP2 MSTORE PUSH1 0x20 ADD SWAP1 DUP2 MSTORE PUSH1 0x20 ADD PUSH0 KECCAK256 PUSH0 ADD PUSH0 SWAP1 SLOAD SWAP1 PUSH2 0x100 EXP SWAP1 DIV PUSH20 0xFFFFFFFFFFFFFFFFFFFFFFFFFFFFFFFFFFFFFFFF AND PUSH20 0xFFFFFFFFFFFFFFFFFFFFFFFFFFFFFFFFFFFFFFFF AND SUB PUSH2 0x4F4 JUMPI PUSH1 0x40 MLOAD PUSH32 0x8C379A000000000000000000000000000000000000000000000000000000000 DUP2 MSTORE PUSH1 0x4 ADD PUSH2 0x4EB SWAP1 PUSH2 0x1CC9 JUMP JUMPDEST PUSH1 0x40 MLOAD DUP1 SWAP2 SUB SWAP1 REVERT JUMPDEST PUSH1 0x8 PUSH0 CALLER PUSH20 0xFFFFFFFFFFFFFFFFFFFFFFFFFFFFFFFFFFFFFFFF AND PUSH20 0xFFFFFFFFFFFFFFFFFFFFFFFFFFFFFFFFFFFFFFFF AND DUP2 MSTORE PUSH1 0x20 ADD SWAP1 DUP2 MSTORE PUSH1 0x20 ADD PUSH0 KECCAK256 PUSH1 0x2 ADD PUSH0 SWAP1 SLOAD SWAP1 PUSH2 0x100 EXP SWAP1 DIV PUSH1 0xFF AND ISZERO PUSH2 0x581 JUMPI PUSH1 0x40 MLOAD PUSH32 0x8C379A000000000000000000000000000000000000000000000000000000000 DUP2 MSTORE PUSH1 0x4 ADD PUSH2 0x578 SWAP1 PUSH2 0x1D31 JUMP JUMPDEST PUSH1 0x40 MLOAD DUP1 SWAP2 SUB SWAP1 REVERT JUMPDEST PUSH1 0x1 PUSH1 0x8 PUSH0 CALLER PUSH20 0xFFFFFFFFFFFFFFFFFFFFFFFFFFFFFFFFFFFFFFFF AND PUSH20 0xFFFFFFFFFFFFFFFFFFFFFFFFFFFFFFFFFFFFFFFF AND DUP2 MSTORE PUSH1 0x20 ADD SWAP1 DUP2 MSTORE PUSH1 0x20 ADD PUSH0 KECCAK256 PUSH1 0x2 ADD PUSH0 PUSH2 0x100 EXP DUP2 SLOAD DUP2 PUSH1 0xFF MUL NOT AND SWAP1 DUP4 ISZERO ISZERO MUL OR SWAP1 SSTORE POP PUSH32 0xC14E04B51F707EAEB882E09F0AE64950E76FD067C25D942F53011379C98158D8 CALLER PUSH1 0x40 MLOAD PUSH2 0x608 SWAP2 SWAP1 PUSH2 0x18D8 JUMP JUMPDEST PUSH1 0x40 MLOAD DUP1 SWAP2 SUB SWAP1 LOG1 JUMP JUMPDEST PUSH1 0x8 PUSH0 PUSH1 0x1 PUSH1 0x3 ADD PUSH0 SWAP1 SLOAD SWAP1 PUSH2 0x100 EXP SWAP1 DIV PUSH20 0xFFFFFFFFFFFFFFFFFFFFFFFFFFFFFFFFFFFFFFFF AND PUSH20 0xFFFFFFFFFFFFFFFFFFFFFFFFFFFFFFFFFFFFFFFF AND PUSH20 0xFFFFFFFFFFFFFFFFFFFFFFFFFFFFFFFFFFFFFFFF AND DUP2 MSTORE PUSH1 0x20 ADD SWAP1 DUP2 MSTORE PUSH1 0x20 ADD PUSH0 KECCAK256 PUSH1 0x2 ADD PUSH0 SWAP1 SLOAD SWAP1 PUSH2 0x100 EXP SWAP1 DIV PUSH1 0xFF AND PUSH2 0x6C2 JUMPI PUSH1 0x40 MLOAD PUSH32 0x8C379A000000000000000000000000000000000000000000000000000000000 DUP2 MSTORE PUSH1 0x4 ADD PUSH2 0x6B9 SWAP1 PUSH2 0x1D99 JUMP JUMPDEST PUSH1 0x40 MLOAD DUP1 SWAP2 SUB SWAP1 REVERT JUMPDEST PUSH1 0x8 PUSH0 PUSH1 0x1 PUSH1 0x2 ADD PUSH1 0x1 SWAP1 SLOAD SWAP1 PUSH2 0x100 EXP SWAP1 DIV PUSH20 0xFFFFFFFFFFFFFFFFFFFFFFFFFFFFFFFFFFFFFFFF AND PUSH20 0xFFFFFFFFFFFFFFFFFFFFFFFFFFFFFFFFFFFFFFFF AND PUSH20 0xFFFFFFFFFFFFFFFFFFFFFFFFFFFFFFFFFFFFFFFF AND DUP2 MSTORE PUSH1 0x20 ADD SWAP1 DUP2 MSTORE PUSH1 0x20 ADD PUSH0 KECCAK256 PUSH1 0x2 ADD PUSH0 SWAP1 SLOAD SWAP1 PUSH2 0x100 EXP SWAP1 DIV PUSH1 0xFF AND PUSH2 0x773 JUMPI PUSH1 0x40 MLOAD PUSH32 0x8C379A000000000000000000000000000000000000000000000000000000000 DUP2 MSTORE PUSH1 0x4 ADD PUSH2 0x76A SWAP1 PUSH2 0x1E01 JUMP JUMPDEST PUSH1 0x40 MLOAD DUP1 SWAP2 SUB SWAP1 REVERT JUMPDEST PUSH1 0x2 PUSH1 0x1 PUSH1 0x2 ADD PUSH0 PUSH2 0x100 EXP DUP2 SLOAD DUP2 PUSH1 0xFF MUL NOT AND SWAP1 DUP4 PUSH1 0x4 DUP2 GT ISZERO PUSH2 0x79B JUMPI PUSH2 0x79A PUSH2 0x1B73 JUMP JUMPDEST JUMPDEST MUL OR SWAP1 SSTORE POP PUSH32 0x671B112441F25ED92197FA8FA5573635A1CBCD9AA50582C4CF0F57527002DB6 PUSH1 0x40 MLOAD PUSH1 0x40 MLOAD DUP1 SWAP2 SUB SWAP1 LOG1 JUMP JUMPDEST PUSH2 0x7D6 PUSH2 0x1810 JUMP JUMPDEST PUSH1 0x1 PUSH1 0x3 ADD PUSH0 SWAP1 SLOAD SWAP1 PUSH2 0x100 EXP SWAP1 DIV PUSH20 0xFFFFFFFFFFFFFFFFFFFFFFFFFFFFFFFFFFFFFFFF AND PUSH20 0xFFFFFFFFFFFFFFFFFFFFFFFFFFFFFFFFFFFFFFFF AND CALLER PUSH20 0xFFFFFFFFFFFFFFFFFFFFFFFFFFFFFFFFFFFFFFFF AND EQ PUSH2 0x868 JUMPI PUSH1 0x40 MLOAD PUSH32 0x8C379A000000000000000000000000000000000000000000000000000000000 DUP2 MSTORE PUSH1 0x4 ADD PUSH2 0x85F SWAP1 PUSH2 0x1E8F JUMP JUMPDEST PUSH1 0x40 MLOAD DUP1 SWAP2 SUB SWAP1 REVERT JUMPDEST PUSH1 0x3 PUSH1 0x4 DUP2 GT ISZERO PUSH2 0x87C JUMPI PUSH2 0x87B PUSH2 0x1B73 JUMP JUMPDEST JUMPDEST PUSH1 0x1 PUSH1 0x2 ADD PUSH0 SWAP1 SLOAD SWAP1 PUSH2 0x100 EXP SWAP1 DIV PUSH1 0xFF AND PUSH1 0x4 DUP2 GT ISZERO PUSH2 0x8A0 JUMPI PUSH2 0x89F PUSH2 0x1B73 JUMP JUMPDEST JUMPDEST EQ PUSH2 0x8E0 JUMPI PUSH1 0x40 MLOAD PUSH32 0x8C379A000000000000000000000000000000000000000000000000000000000 DUP2 MSTORE PUSH1 0x4 ADD PUSH2 0x8D7 SWAP1 PUSH2 0x1EF7 JUMP JUMPDEST PUSH1 0x40 MLOAD DUP1 SWAP2 SUB SWAP1 REVERT JUMPDEST PUSH1 0x1 PUSH1 0x5 ADD PUSH1 0x14 SWAP1 SLOAD SWAP1 PUSH2 0x100 EXP SWAP1 DIV PUSH1 0xFF AND PUSH2 0x932 JUMPI PUSH1 0x40 MLOAD PUSH32 0x8C379A000000000000000000000000000000000000000000000000000000000 DUP2 MSTORE PUSH1 0x4 ADD PUSH2 0x929 SWAP1 PUSH2 0x1F85 JUMP JUMPDEST PUSH1 0x40 MLOAD DUP1 SWAP2 SUB SWAP1 REVERT JUMPDEST PUSH1 0x1 DUP1 ADD SLOAD CALLVALUE LT ISZERO PUSH2 0x979 JUMPI PUSH1 0x40 MLOAD PUSH32 0x8C379A000000000000000000000000000000000000000000000000000000000 DUP2 MSTORE PUSH1 0x4 ADD PUSH2 0x970 SWAP1 PUSH2 0x1FED JUMP JUMPDEST PUSH1 0x40 MLOAD DUP1 SWAP2 SUB SWAP1 REVERT JUMPDEST PUSH1 0x1 PUSH1 0x2 ADD PUSH1 0x1 SWAP1 SLOAD SWAP1 PUSH2 0x100 EXP SWAP1 DIV PUSH20 0xFFFFFFFFFFFFFFFFFFFFFFFFFFFFFFFFFFFFFFFF AND PUSH20 0xFFFFFFFFFFFFFFFFFFFFFFFFFFFFFFFFFFFFFFFF AND PUSH2 0x8FC PUSH1 0x1 DUP1 ADD SLOAD SWAP1 DUP2 ISZERO MUL SWAP1 PUSH1 0x40 MLOAD PUSH0 PUSH1 0x40 MLOAD DUP1 DUP4 SUB DUP2 DUP6 DUP9 DUP9 CALL SWAP4 POP POP POP POP ISZERO DUP1 ISZERO PUSH2 0x9E5 JUMPI RETURNDATASIZE PUSH0 PUSH0 RETURNDATACOPY RETURNDATASIZE PUSH0 REVERT JUMPDEST POP PUSH32 0x99429F2D8B060F26850FBD2B5743F78B567DA9B1860829588EBA1799C4388A24 CALLER CALLVALUE PUSH1 0x40 MLOAD PUSH2 0xA17 SWAP3 SWAP2 SWAP1 PUSH2 0x200B JUMP JUMPDEST PUSH1 0x40 MLOAD DUP1 SWAP2 SUB SWAP1 LOG1 PUSH2 0xA27 PUSH2 0x185D JUMP JUMPDEST JUMP JUMPDEST PUSH0 PUSH1 0x1 PUSH1 0x5 ADD PUSH1 0x14 SWAP1 SLOAD SWAP1 PUSH2 0x100 EXP SWAP1 DIV PUSH1 0xFF AND SWAP1 POP SWAP1 JUMP JUMPDEST PUSH1 0x1 PUSH1 0x2 ADD PUSH1 0x1 SWAP1 SLOAD SWAP1 PUSH2 0x100 EXP SWAP1 DIV PUSH20 0xFFFFFFFFFFFFFFFFFFFFFFFFFFFFFFFFFFFFFFFF AND PUSH20 0xFFFFFFFFFFFFFFFFFFFFFFFFFFFFFFFFFFFFFFFF AND CALLER PUSH20 0xFFFFFFFFFFFFFFFFFFFFFFFFFFFFFFFFFFFFFFFF AND EQ PUSH2 0xAD5 JUMPI PUSH1 0x40 MLOAD PUSH32 0x8C379A000000000000000000000000000000000000000000000000000000000 DUP2 MSTORE PUSH1 0x4 ADD PUSH2 0xACC SWAP1 PUSH2 0x20A2 JUMP JUMPDEST PUSH1 0x40 MLOAD DUP1 SWAP2 SUB SWAP1 REVERT JUMPDEST PUSH1 0x2 PUSH1 0x4 DUP2 GT ISZERO PUSH2 0xAE9 JUMPI PUSH2 0xAE8 PUSH2 0x1B73 JUMP JUMPDEST JUMPDEST PUSH1 0x1 PUSH1 0x2 ADD PUSH0 SWAP1 SLOAD SWAP1 PUSH2 0x100 EXP SWAP1 DIV PUSH1 0xFF AND PUSH1 0x4 DUP2 GT ISZERO PUSH2 0xB0D JUMPI PUSH2 0xB0C PUSH2 0x1B73 JUMP JUMPDEST JUMPDEST EQ PUSH2 0xB4D JUMPI PUSH1 0x40 MLOAD PUSH32 0x8C379A000000000000000000000000000000000000000000000000000000000 DUP2 MSTORE PUSH1 0x4 ADD PUSH2 0xB44 SWAP1 PUSH2 0x210A JUMP JUMPDEST PUSH1 0x40 MLOAD DUP1 SWAP2 SUB SWAP1 REVERT JUMPDEST PUSH1 0x3 PUSH1 0x1 PUSH1 0x2 ADD PUSH0 PUSH2 0x100 EXP DUP2 SLOAD DUP2 PUSH1 0xFF MUL NOT AND SWAP1 DUP4 PUSH1 0x4 DUP2 GT ISZERO PUSH2 0xB75 JUMPI PUSH2 0xB74 PUSH2 0x1B73 JUMP JUMPDEST JUMPDEST MUL OR SWAP1 SSTORE POP PUSH32 0xC075506703249F4C1960AA7B24AB277718C285277DD6F0D0C19F5F668E92C451 PUSH1 0x40 MLOAD PUSH1 0x40 MLOAD DUP1 SWAP2 SUB SWAP1 LOG1 JUMP JUMPDEST PUSH0 PUSH1 0x1 PUSH1 0x5 ADD PUSH0 SWAP1 SLOAD SWAP1 PUSH2 0x100 EXP SWAP1 DIV PUSH20 0xFFFFFFFFFFFFFFFFFFFFFFFFFFFFFFFFFFFFFFFF AND SWAP1 POP SWAP1 JUMP JUMPDEST PUSH0 PUSH1 0x1 PUSH1 0x3 ADD PUSH0 SWAP1 SLOAD SWAP1 PUSH2 0x100 EXP SWAP1 DIV PUSH20 0xFFFFFFFFFFFFFFFFFFFFFFFFFFFFFFFFFFFFFFFF AND SWAP1 POP SWAP1 JUMP JUMPDEST PUSH1 0x1 PUSH1 0x5 ADD PUSH0 SWAP1 SLOAD SWAP1 PUSH2 0x100 EXP SWAP1 DIV PUSH20 0xFFFFFFFFFFFFFFFFFFFFFFFFFFFFFFFFFFFFFFFF AND PUSH20 0xFFFFFFFFFFFFFFFFFFFFFFFFFFFFFFFFFFFFFFFF AND CALLER PUSH20 0xFFFFFFFFFFFFFFFFFFFFFFFFFFFFFFFFFFFFFFFF AND EQ PUSH2 0xC90 JUMPI PUSH1 0x40 MLOAD PUSH32 0x8C379A000000000000000000000000000000000000000000000000000000000 DUP2 MSTORE PUSH1 0x4 ADD PUSH2 0xC87 SWAP1 PUSH2 0x2172 JUMP JUMPDEST PUSH1 0x40 MLOAD DUP1 SWAP2 SUB SWAP1 REVERT JUMPDEST PUSH1 0x3 PUSH1 0x4 DUP2 GT ISZERO PUSH2 0xCA4 JUMPI PUSH2 0xCA3 PUSH2 0x1B73 JUMP JUMPDEST JUMPDEST PUSH1 0x1 PUSH1 0x2 ADD PUSH0 SWAP1 SLOAD SWAP1 PUSH2 0x100 EXP SWAP1 DIV PUSH1 0xFF AND PUSH1 0x4 DUP2 GT ISZERO PUSH2 0xCC8 JUMPI PUSH2 0xCC7 PUSH2 0x1B73 JUMP JUMPDEST JUMPDEST EQ PUSH2 0xD08 JUMPI PUSH1 0x40 MLOAD PUSH32 0x8C379A000000000000000000000000000000000000000000000000000000000 DUP2 MSTORE PUSH1 0x4 ADD PUSH2 0xCFF SWAP1 PUSH2 0x1EF7 JUMP JUMPDEST PUSH1 0x40 MLOAD DUP1 SWAP2 SUB SWAP1 REVERT JUMPDEST PUSH1 0x1 DUP1 PUSH1 0x5 ADD PUSH1 0x14 PUSH2 0x100 EXP DUP2 SLOAD DUP2 PUSH1 0xFF MUL NOT AND SWAP1 DUP4 ISZERO ISZERO MUL OR SWAP1 SSTORE POP PUSH32 0xD07E77A7AE3D696B7904CAB197B265C2E821D91AC12304AFB6AF66980E1ADB79 CALLER PUSH1 0x40 MLOAD PUSH2 0xD54 SWAP2 SWAP1 PUSH2 0x18D8 JUMP JUMPDEST PUSH1 0x40 MLOAD DUP1 SWAP2 SUB SWAP1 LOG1 JUMP JUMPDEST PUSH0 PUSH20 0xFFFFFFFFFFFFFFFFFFFFFFFFFFFFFFFFFFFFFFFF AND PUSH1 0x8 PUSH0 CALLER PUSH20 0xFFFFFFFFFFFFFFFFFFFFFFFFFFFFFFFFFFFFFFFF AND PUSH20 0xFFFFFFFFFFFFFFFFFFFFFFFFFFFFFFFFFFFFFFFF AND DUP2 MSTORE PUSH1 0x20 ADD SWAP1 DUP2 MSTORE PUSH1 0x20 ADD PUSH0 KECCAK256 PUSH0 ADD PUSH0 SWAP1 SLOAD SWAP1 PUSH2 0x100 EXP SWAP1 DIV PUSH20 0xFFFFFFFFFFFFFFFFFFFFFFFFFFFFFFFFFFFFFFFF AND PUSH20 0xFFFFFFFFFFFFFFFFFFFFFFFFFFFFFFFFFFFFFFFF AND SUB PUSH2 0xE2A JUMPI PUSH1 0x40 MLOAD PUSH32 0x8C379A000000000000000000000000000000000000000000000000000000000 DUP2 MSTORE PUSH1 0x4 ADD PUSH2 0xE21 SWAP1 PUSH2 0x1CC9 JUMP JUMPDEST PUSH1 0x40 MLOAD DUP1 SWAP2 SUB SWAP1 REVERT JUMPDEST PUSH1 0x3 PUSH1 0x4 DUP2 GT ISZERO PUSH2 0xE3E JUMPI PUSH2 0xE3D PUSH2 0x1B73 JUMP JUMPDEST JUMPDEST PUSH1 0x1 PUSH1 0x2 ADD PUSH0 SWAP1 SLOAD SWAP1 PUSH2 0x100 EXP SWAP1 DIV PUSH1 0xFF AND PUSH1 0x4 DUP2 GT ISZERO PUSH2 0xE62 JUMPI PUSH2 0xE61 PUSH2 0x1B73 JUMP JUMPDEST JUMPDEST SUB PUSH2 0xEA2 JUMPI PUSH1 0x40 MLOAD PUSH32 0x8C379A000000000000000000000000000000000000000000000000000000000 DUP2 MSTORE PUSH1 0x4 ADD PUSH2 0xE99 SWAP1 PUSH2 0x21DA JUMP JUMPDEST PUSH1 0x40 MLOAD DUP1 SWAP2 SUB SWAP1 REVERT JUMPDEST PUSH1 0x4 PUSH1 0x1 PUSH1 0x2 ADD PUSH0 PUSH2 0x100 EXP DUP2 SLOAD DUP2 PUSH1 0xFF MUL NOT AND SWAP1 DUP4 PUSH1 0x4 DUP2 GT ISZERO PUSH2 0xECA JUMPI PUSH2 0xEC9 PUSH2 0x1B73 JUMP JUMPDEST JUMPDEST MUL OR SWAP1 SSTORE POP PUSH32 0xE2B6BAA1BD028E2A7847DC983FFB1E68F690CA782EEE054303FAA93D679CDF02 CALLER PUSH1 0x40 MLOAD PUSH2 0xEFE SWAP2 SWAP1 PUSH2 0x18D8 JUMP JUMPDEST PUSH1 0x40 MLOAD DUP1 SWAP2 SUB SWAP1 LOG1 JUMP JUMPDEST PUSH1 0x60 PUSH1 0x9 DUP1 SLOAD DUP1 PUSH1 0x20 MUL PUSH1 0x20 ADD PUSH1 0x40 MLOAD SWAP1 DUP2 ADD PUSH1 0x40 MSTORE DUP1 SWAP3 SWAP2 SWAP1 DUP2 DUP2 MSTORE PUSH1 0x20 ADD DUP3 DUP1 SLOAD DUP1 ISZERO PUSH2 0xF89 JUMPI PUSH1 0x20 MUL DUP3 ADD SWAP2 SWAP1 PUSH0 MSTORE PUSH1 0x20 PUSH0 KECCAK256 SWAP1 JUMPDEST DUP2 PUSH0 SWAP1 SLOAD SWAP1 PUSH2 0x100 EXP SWAP1 DIV PUSH20 0xFFFFFFFFFFFFFFFFFFFFFFFFFFFFFFFFFFFFFFFF AND PUSH20 0xFFFFFFFFFFFFFFFFFFFFFFFFFFFFFFFFFFFFFFFF AND DUP2 MSTORE PUSH1 0x20 ADD SWAP1 PUSH1 0x1 ADD SWAP1 DUP1 DUP4 GT PUSH2 0xF40 JUMPI JUMPDEST POP POP POP POP POP SWAP1 POP SWAP1 JUMP JUMPDEST PUSH1 0x60 PUSH1 0x1 PUSH0 ADD DUP1 SLOAD PUSH2 0xFA4 SWAP1 PUSH2 0x2225 JUMP JUMPDEST DUP1 PUSH1 0x1F ADD PUSH1 0x20 DUP1 SWAP2 DIV MUL PUSH1 0x20 ADD PUSH1 0x40 MLOAD SWAP1 DUP2 ADD PUSH1 0x40 MSTORE DUP1 SWAP3 SWAP2 SWAP1 DUP2 DUP2 MSTORE PUSH1 0x20 ADD DUP3 DUP1 SLOAD PUSH2 0xFD0 SWAP1 PUSH2 0x2225 JUMP JUMPDEST DUP1 ISZERO PUSH2 0x101B JUMPI DUP1 PUSH1 0x1F LT PUSH2 0xFF2 JUMPI PUSH2 0x100 DUP1 DUP4 SLOAD DIV MUL DUP4 MSTORE SWAP2 PUSH1 0x20 ADD SWAP2 PUSH2 0x101B JUMP JUMPDEST DUP3 ADD SWAP2 SWAP1 PUSH0 MSTORE PUSH1 0x20 PUSH0 KECCAK256 SWAP1 JUMPDEST DUP2 SLOAD DUP2 MSTORE SWAP1 PUSH1 0x1 ADD SWAP1 PUSH1 0x20 ADD DUP1 DUP4 GT PUSH2 0xFFE JUMPI DUP3 SWAP1 SUB PUSH1 0x1F AND DUP3 ADD SWAP2 JUMPDEST POP POP POP POP POP SWAP1 POP SWAP1 JUMP JUMPDEST PUSH0 PUSH1 0x1 DUP1 ADD SLOAD SWAP1 POP SWAP1 JUMP JUMPDEST PUSH1 0x9 DUP2 DUP2 SLOAD DUP2 LT PUSH2 0x103F JUMPI PUSH0 DUP1 REVERT JUMPDEST SWAP1 PUSH0 MSTORE PUSH1 0x20 PUSH0 KECCAK256 ADD PUSH0 SWAP2 POP SLOAD SWAP1 PUSH2 0x100 EXP SWAP1 DIV PUSH20 0xFFFFFFFFFFFFFFFFFFFFFFFFFFFFFFFFFFFFFFFF AND DUP2 JUMP JUMPDEST PUSH1 0x8 PUSH1 0x20 MSTORE DUP1 PUSH0 MSTORE PUSH1 0x40 PUSH0 KECCAK256 PUSH0 SWAP2 POP SWAP1 POP DUP1 PUSH0 ADD PUSH0 SWAP1 SLOAD SWAP1 PUSH2 0x100 EXP SWAP1 DIV PUSH20 0xFFFFFFFFFFFFFFFFFFFFFFFFFFFFFFFFFFFFFFFF AND SWAP1 DUP1 PUSH1 0x1 ADD DUP1 SLOAD PUSH2 0x10AF SWAP1 PUSH2 0x2225 JUMP JUMPDEST DUP1 PUSH1 0x1F ADD PUSH1 0x20 DUP1 SWAP2 DIV MUL PUSH1 0x20 ADD PUSH1 0x40 MLOAD SWAP1 DUP2 ADD PUSH1 0x40 MSTORE DUP1 SWAP3 SWAP2 SWAP1 DUP2 DUP2 MSTORE PUSH1 0x20 ADD DUP3 DUP1 SLOAD PUSH2 0x10DB SWAP1 PUSH2 0x2225 JUMP JUMPDEST DUP1 ISZERO PUSH2 0x1126 JUMPI DUP1 PUSH1 0x1F LT PUSH2 0x10FD JUMPI PUSH2 0x100 DUP1 DUP4 SLOAD DIV MUL DUP4 MSTORE SWAP2 PUSH1 0x20 ADD SWAP2 PUSH2 0x1126 JUMP JUMPDEST DUP3 ADD SWAP2 SWAP1 PUSH0 MSTORE PUSH1 0x20 PUSH0 KECCAK256 SWAP1 JUMPDEST DUP2 SLOAD DUP2 MSTORE SWAP1 PUSH1 0x1 ADD SWAP1 PUSH1 0x20 ADD DUP1 DUP4 GT PUSH2 0x1109 JUMPI DUP3 SWAP1 SUB PUSH1 0x1F AND DUP3 ADD SWAP2 JUMPDEST POP POP POP POP POP SWAP1 DUP1 PUSH1 0x2 ADD PUSH0 SWAP1 SLOAD SWAP1 PUSH2 0x100 EXP SWAP1 DIV PUSH1 0xFF AND SWAP1 POP DUP4 JUMP JUMPDEST PUSH0 PUSH1 0x60 PUSH0 PUSH0 PUSH1 0x8 PUSH0 DUP7 PUSH20 0xFFFFFFFFFFFFFFFFFFFFFFFFFFFFFFFFFFFFFFFF AND PUSH20 0xFFFFFFFFFFFFFFFFFFFFFFFFFFFFFFFFFFFFFFFF AND DUP2 MSTORE PUSH1 0x20 ADD SWAP1 DUP2 MSTORE PUSH1 0x20 ADD PUSH0 KECCAK256 PUSH1 0x40 MLOAD DUP1 PUSH1 0x60 ADD PUSH1 0x40 MSTORE SWAP1 DUP2 PUSH0 DUP3 ADD PUSH0 SWAP1 SLOAD SWAP1 PUSH2 0x100 EXP SWAP1 DIV PUSH20 0xFFFFFFFFFFFFFFFFFFFFFFFFFFFFFFFFFFFFFFFF AND PUSH20 0xFFFFFFFFFFFFFFFFFFFFFFFFFFFFFFFFFFFFFFFF AND PUSH20 0xFFFFFFFFFFFFFFFFFFFFFFFFFFFFFFFFFFFFFFFF AND DUP2 MSTORE PUSH1 0x20 ADD PUSH1 0x1 DUP3 ADD DUP1 SLOAD PUSH2 0x11F3 SWAP1 PUSH2 0x2225 JUMP JUMPDEST DUP1 PUSH1 0x1F ADD PUSH1 0x20 DUP1 SWAP2 DIV MUL PUSH1 0x20 ADD PUSH1 0x40 MLOAD SWAP1 DUP2 ADD PUSH1 0x40 MSTORE DUP1 SWAP3 SWAP2 SWAP1 DUP2 DUP2 MSTORE PUSH1 0x20 ADD DUP3 DUP1 SLOAD PUSH2 0x121F SWAP1 PUSH2 0x2225 JUMP JUMPDEST DUP1 ISZERO PUSH2 0x126A JUMPI DUP1 PUSH1 0x1F LT PUSH2 0x1241 JUMPI PUSH2 0x100 DUP1 DUP4 SLOAD DIV MUL DUP4 MSTORE SWAP2 PUSH1 0x20 ADD SWAP2 PUSH2 0x126A JUMP JUMPDEST DUP3 ADD SWAP2 SWAP1 PUSH0 MSTORE PUSH1 0x20 PUSH0 KECCAK256 SWAP1 JUMPDEST DUP2 SLOAD DUP2 MSTORE SWAP1 PUSH1 0x1 ADD SWAP1 PUSH1 0x20 ADD DUP1 DUP4 GT PUSH2 0x124D JUMPI DUP3 SWAP1 SUB PUSH1 0x1F AND DUP3 ADD SWAP2 JUMPDEST POP POP POP POP POP DUP2 MSTORE PUSH1 0x20 ADD PUSH1 0x2 DUP3 ADD PUSH0 SWAP1 SLOAD SWAP1 PUSH2 0x100 EXP SWAP1 DIV PUSH1 0xFF AND ISZERO ISZERO ISZERO ISZERO DUP2 MSTORE POP POP SWAP1 POP DUP1 PUSH0 ADD MLOAD DUP2 PUSH1 0x20 ADD MLOAD DUP3 PUSH1 0x40 ADD MLOAD SWAP4 POP SWAP4 POP SWAP4 POP POP SWAP2 SWAP4 SWAP1 SWAP3 POP JUMP JUMPDEST PUSH1 0x60 PUSH1 0x1 PUSH1 0x6 ADD DUP1 SLOAD PUSH2 0x12BD SWAP1 PUSH2 0x2225 JUMP JUMPDEST DUP1 PUSH1 0x1F ADD PUSH1 0x20 DUP1 SWAP2 DIV MUL PUSH1 0x20 ADD PUSH1 0x40 MLOAD SWAP1 DUP2 ADD PUSH1 0x40 MSTORE DUP1 SWAP3 SWAP2 SWAP1 DUP2 DUP2 MSTORE PUSH1 0x20 ADD DUP3 DUP1 SLOAD PUSH2 0x12E9 SWAP1 PUSH2 0x2225 JUMP JUMPDEST DUP1 ISZERO PUSH2 0x1334 JUMPI DUP1 PUSH1 0x1F LT PUSH2 0x130B JUMPI PUSH2 0x100 DUP1 DUP4 SLOAD DIV MUL DUP4 MSTORE SWAP2 PUSH1 0x20 ADD SWAP2 PUSH2 0x1334 JUMP JUMPDEST DUP3 ADD SWAP2 SWAP1 PUSH0 MSTORE PUSH1 0x20 PUSH0 KECCAK256 SWAP1 JUMPDEST DUP2 SLOAD DUP2 MSTORE SWAP1 PUSH1 0x1 ADD SWAP1 PUSH1 0x20 ADD DUP1 DUP4 GT PUSH2 0x1317 JUMPI DUP3 SWAP1 SUB PUSH1 0x1F AND DUP3 ADD SWAP2 JUMPDEST POP POP POP POP POP SWAP1 POP SWAP1 JUMP JUMPDEST PUSH1 0x60 PUSH0 PUSH1 0x4 DUP2 GT ISZERO PUSH2 0x1353 JUMPI PUSH2 0x1352 PUSH2 0x1B73 JUMP JUMPDEST JUMPDEST PUSH1 0x1 PUSH1 0x2 ADD PUSH0 SWAP1 SLOAD SWAP1 PUSH2 0x100 EXP SWAP1 DIV PUSH1 0xFF AND PUSH1 0x4 DUP2 GT ISZERO PUSH2 0x1377 JUMPI PUSH2 0x1376 PUSH2 0x1B73 JUMP JUMPDEST JUMPDEST SUB PUSH2 0x13B9 JUMPI PUSH1 0x40 MLOAD DUP1 PUSH1 0x40 ADD PUSH1 0x40 MSTORE DUP1 PUSH1 0x6 DUP2 MSTORE PUSH1 0x20 ADD PUSH32 0x43726961646F0000000000000000000000000000000000000000000000000000 DUP2 MSTORE POP SWAP1 POP PUSH2 0x15D9 JUMP JUMPDEST PUSH1 0x1 PUSH1 0x4 DUP2 GT ISZERO PUSH2 0x13CD JUMPI PUSH2 0x13CC PUSH2 0x1B73 JUMP JUMPDEST JUMPDEST PUSH1 0x1 PUSH1 0x2 ADD PUSH0 SWAP1 SLOAD SWAP1 PUSH2 0x100 EXP SWAP1 DIV PUSH1 0xFF AND PUSH1 0x4 DUP2 GT ISZERO PUSH2 0x13F1 JUMPI PUSH2 0x13F0 PUSH2 0x1B73 JUMP JUMPDEST JUMPDEST SUB PUSH2 0x1433 JUMPI PUSH1 0x40 MLOAD DUP1 PUSH1 0x40 ADD PUSH1 0x40 MSTORE DUP1 PUSH1 0x6 DUP2 MSTORE PUSH1 0x20 ADD PUSH32 0x41636569746F0000000000000000000000000000000000000000000000000000 DUP2 MSTORE POP SWAP1 POP PUSH2 0x15D9 JUMP JUMPDEST PUSH1 0x2 PUSH1 0x4 DUP2 GT ISZERO PUSH2 0x1447 JUMPI PUSH2 0x1446 PUSH2 0x1B73 JUMP JUMPDEST JUMPDEST PUSH1 0x1 PUSH1 0x2 ADD PUSH0 SWAP1 SLOAD SWAP1 PUSH2 0x100 EXP SWAP1 DIV PUSH1 0xFF AND PUSH1 0x4 DUP2 GT ISZERO PUSH2 0x146B JUMPI PUSH2 0x146A PUSH2 0x1B73 JUMP JUMPDEST JUMPDEST SUB PUSH2 0x14AD JUMPI PUSH1 0x40 MLOAD DUP1 PUSH1 0x40 ADD PUSH1 0x40 MSTORE DUP1 PUSH1 0xC DUP2 MSTORE PUSH1 0x20 ADD PUSH32 0x456D20616E64616D656E746F0000000000000000000000000000000000000000 DUP2 MSTORE POP SWAP1 POP PUSH2 0x15D9 JUMP JUMPDEST PUSH1 0x3 PUSH1 0x4 DUP2 GT ISZERO PUSH2 0x14C1 JUMPI PUSH2 0x14C0 PUSH2 0x1B73 JUMP JUMPDEST JUMPDEST PUSH1 0x1 PUSH1 0x2 ADD PUSH0 SWAP1 SLOAD SWAP1 PUSH2 0x100 EXP SWAP1 DIV PUSH1 0xFF AND PUSH1 0x4 DUP2 GT ISZERO PUSH2 0x14E5 JUMPI PUSH2 0x14E4 PUSH2 0x1B73 JUMP JUMPDEST JUMPDEST SUB PUSH2 0x1527 JUMPI PUSH1 0x40 MLOAD DUP1 PUSH1 0x40 ADD PUSH1 0x40 MSTORE DUP1 PUSH1 0x9 DUP2 MSTORE PUSH1 0x20 ADD PUSH32 0x436F6E636C7569646F0000000000000000000000000000000000000000000000 DUP2 MSTORE POP SWAP1 POP PUSH2 0x15D9 JUMP JUMPDEST PUSH1 0x4 DUP1 DUP2 GT ISZERO PUSH2 0x153A JUMPI PUSH2 0x1539 PUSH2 0x1B73 JUMP JUMPDEST JUMPDEST PUSH1 0x1 PUSH1 0x2 ADD PUSH0 SWAP1 SLOAD SWAP1 PUSH2 0x100 EXP SWAP1 DIV PUSH1 0xFF AND PUSH1 0x4 DUP2 GT ISZERO PUSH2 0x155E JUMPI PUSH2 0x155D PUSH2 0x1B73 JUMP JUMPDEST JUMPDEST SUB PUSH2 0x15A0 JUMPI PUSH1 0x40 MLOAD DUP1 PUSH1 0x40 ADD PUSH1 0x40 MSTORE DUP1 PUSH1 0x9 DUP2 MSTORE PUSH1 0x20 ADD PUSH32 0x43616E63656C61646F0000000000000000000000000000000000000000000000 DUP2 MSTORE POP SWAP1 POP PUSH2 0x15D9 JUMP JUMPDEST PUSH1 0x40 MLOAD DUP1 PUSH1 0x40 ADD PUSH1 0x40 MSTORE DUP1 PUSH1 0xC DUP2 MSTORE PUSH1 0x20 ADD PUSH32 0x446573636F6E68656369646F0000000000000000000000000000000000000000 DUP2 MSTORE POP SWAP1 POP JUMPDEST SWAP1 JUMP JUMPDEST PUSH0 PUSH1 0x1 PUSH1 0x2 ADD PUSH1 0x1 SWAP1 SLOAD SWAP1 PUSH2 0x100 EXP SWAP1 DIV PUSH20 0xFFFFFFFFFFFFFFFFFFFFFFFFFFFFFFFFFFFFFFFF AND SWAP1 POP SWAP1 JUMP JUMPDEST PUSH0 PUSH1 0x1 PUSH1 0x4 ADD PUSH0 SWAP1 SLOAD SWAP1 PUSH2 0x100 EXP SWAP1 DIV PUSH20 0xFFFFFFFFFFFFFFFFFFFFFFFFFFFFFFFFFFFFFFFF AND SWAP1 POP SWAP1 JUMP JUMPDEST PUSH1 0x1 DUP1 PUSH0 ADD DUP1 SLOAD PUSH2 0x1643 SWAP1 PUSH2 0x2225 JUMP JUMPDEST DUP1 PUSH1 0x1F ADD PUSH1 0x20 DUP1 SWAP2 DIV MUL PUSH1 0x20 ADD PUSH1 0x40 MLOAD SWAP1 DUP2 ADD PUSH1 0x40 MSTORE DUP1 SWAP3 SWAP2 SWAP1 DUP2 DUP2 MSTORE PUSH1 0x20 ADD DUP3 DUP1 SLOAD PUSH2 0x166F SWAP1 PUSH2 0x2225 JUMP JUMPDEST DUP1 ISZERO PUSH2 0x16BA JUMPI DUP1 PUSH1 0x1F LT PUSH2 0x1691 JUMPI PUSH2 0x100 DUP1 DUP4 SLOAD DIV MUL DUP4 MSTORE SWAP2 PUSH1 0x20 ADD SWAP2 PUSH2 0x16BA JUMP JUMPDEST DUP3 ADD SWAP2 SWAP1 PUSH0 MSTORE PUSH1 0x20 PUSH0 KECCAK256 SWAP1 JUMPDEST DUP2 SLOAD DUP2 MSTORE SWAP1 PUSH1 0x1 ADD SWAP1 PUSH1 0x20 ADD DUP1 DUP4 GT PUSH2 0x169D JUMPI DUP3 SWAP1 SUB PUSH1 0x1F AND DUP3 ADD SWAP2 JUMPDEST POP POP POP POP POP SWAP1 DUP1 PUSH1 0x1 ADD SLOAD SWAP1 DUP1 PUSH1 0x2 ADD PUSH0 SWAP1 SLOAD SWAP1 PUSH2 0x100 EXP SWAP1 DIV PUSH1 0xFF AND SWAP1 DUP1 PUSH1 0x2 ADD PUSH1 0x1 SWAP1 SLOAD SWAP1 PUSH2 0x100 EXP SWAP1 DIV PUSH20 0xFFFFFFFFFFFFFFFFFFFFFFFFFFFFFFFFFFFFFFFF AND SWAP1 DUP1 PUSH1 0x3 ADD PUSH0 SWAP1 SLOAD SWAP1 PUSH2 0x100 EXP SWAP1 DIV PUSH20 0xFFFFFFFFFFFFFFFFFFFFFFFFFFFFFFFFFFFFFFFF AND SWAP1 DUP1 PUSH1 0x4 ADD PUSH0 SWAP1 SLOAD SWAP1 PUSH2 0x100 EXP SWAP1 DIV PUSH20 0xFFFFFFFFFFFFFFFFFFFFFFFFFFFFFFFFFFFFFFFF AND SWAP1 DUP1 PUSH1 0x5 ADD PUSH0 SWAP1 SLOAD SWAP1 PUSH2 0x100 EXP SWAP1 DIV PUSH20 0xFFFFFFFFFFFFFFFFFFFFFFFFFFFFFFFFFFFFFFFF AND SWAP1 DUP1 PUSH1 0x5 ADD PUSH1 0x14 SWAP1 SLOAD SWAP1 PUSH2 0x100 EXP SWAP1 DIV PUSH1 0xFF AND SWAP1 DUP1 PUSH1 0x6 ADD DUP1 SLOAD PUSH2 0x178F SWAP1 PUSH2 0x2225 JUMP JUMPDEST DUP1 PUSH1 0x1F ADD PUSH1 0x20 DUP1 SWAP2 DIV MUL PUSH1 0x20 ADD PUSH1 0x40 MLOAD SWAP1 DUP2 ADD PUSH1 0x40 MSTORE DUP1 SWAP3 SWAP2 SWAP1 DUP2 DUP2 MSTORE PUSH1 0x20 ADD DUP3 DUP1 SLOAD PUSH2 0x17BB SWAP1 PUSH2 0x2225 JUMP JUMPDEST DUP1 ISZERO PUSH2 0x1806 JUMPI DUP1 PUSH1 0x1F LT PUSH2 0x17DD JUMPI PUSH2 0x100 DUP1 DUP4 SLOAD DIV MUL DUP4 MSTORE SWAP2 PUSH1 0x20 ADD SWAP2 PUSH2 0x1806 JUMP JUMPDEST DUP3 ADD SWAP2 SWAP1 PUSH0 MSTORE PUSH1 0x20 PUSH0 KECCAK256 SWAP1 JUMPDEST DUP2 SLOAD DUP2 MSTORE SWAP1 PUSH1 0x1 ADD SWAP1 PUSH1 0x20 ADD DUP1 DUP4 GT PUSH2 0x17E9 JUMPI DUP3 SWAP1 SUB PUSH1 0x1F AND DUP3 ADD SWAP2 JUMPDEST POP POP POP POP POP SWAP1 POP DUP10 JUMP JUMPDEST PUSH1 0x2 PUSH0 SLOAD SUB PUSH2 0x1854 JUMPI PUSH1 0x40 MLOAD PUSH32 0x8C379A000000000000000000000000000000000000000000000000000000000 DUP2 MSTORE PUSH1 0x4 ADD PUSH2 0x184B SWAP1 PUSH2 0x229F JUMP JUMPDEST PUSH1 0x40 MLOAD DUP1 SWAP2 SUB SWAP1 REVERT JUMPDEST PUSH1 0x2 PUSH0 DUP2 SWAP1 SSTORE POP JUMP JUMPDEST PUSH1 0x1 PUSH0 DUP2 SWAP1 SSTORE POP JUMP JUMPDEST PUSH0 DUP2 ISZERO ISZERO SWAP1 POP SWAP2 SWAP1 POP JUMP JUMPDEST PUSH2 0x187A DUP2 PUSH2 0x1866 JUMP JUMPDEST DUP3 MSTORE POP POP JUMP JUMPDEST PUSH0 PUSH1 0x20 DUP3 ADD SWAP1 POP PUSH2 0x1893 PUSH0 DUP4 ADD DUP5 PUSH2 0x1871 JUMP JUMPDEST SWAP3 SWAP2 POP POP JUMP JUMPDEST PUSH0 PUSH20 0xFFFFFFFFFFFFFFFFFFFFFFFFFFFFFFFFFFFFFFFF DUP3 AND SWAP1 POP SWAP2 SWAP1 POP JUMP JUMPDEST PUSH0 PUSH2 0x18C2 DUP3 PUSH2 0x1899 JUMP JUMPDEST SWAP1 POP SWAP2 SWAP1 POP JUMP JUMPDEST PUSH2 0x18D2 DUP2 PUSH2 0x18B8 JUMP JUMPDEST DUP3 MSTORE POP POP JUMP JUMPDEST PUSH0 PUSH1 0x20 DUP3 ADD SWAP1 POP PUSH2 0x18EB PUSH0 DUP4 ADD DUP5 PUSH2 0x18C9 JUMP JUMPDEST SWAP3 SWAP2 POP POP JUMP JUMPDEST PUSH0 DUP2 MLOAD SWAP1 POP SWAP2 SWAP1 POP JUMP JUMPDEST PUSH0 DUP3 DUP3 MSTORE PUSH1 0x20 DUP3 ADD SWAP1 POP SWAP3 SWAP2 POP POP JUMP JUMPDEST PUSH0 DUP2 SWAP1 POP PUSH1 0x20 DUP3 ADD SWAP1 POP SWAP2 SWAP1 POP JUMP JUMPDEST PUSH2 0x1923 DUP2 PUSH2 0x18B8 JUMP JUMPDEST DUP3 MSTORE POP POP JUMP JUMPDEST PUSH0 PUSH2 0x1934 DUP4 DUP4 PUSH2 0x191A JUMP JUMPDEST PUSH1 0x20 DUP4 ADD SWAP1 POP SWAP3 SWAP2 POP POP JUMP JUMPDEST PUSH0 PUSH1 0x20 DUP3 ADD SWAP1 POP SWAP2 SWAP1 POP JUMP JUMPDEST PUSH0 PUSH2 0x1956 DUP3 PUSH2 0x18F1 JUMP JUMPDEST PUSH2 0x1960 DUP2 DUP6 PUSH2 0x18FB JUMP JUMPDEST SWAP4 POP PUSH2 0x196B DUP4 PUSH2 0x190B JUMP JUMPDEST DUP1 PUSH0 JUMPDEST DUP4 DUP2 LT ISZERO PUSH2 0x199B JUMPI DUP2 MLOAD PUSH2 0x1982 DUP9 DUP3 PUSH2 0x1929 JUMP JUMPDEST SWAP8 POP PUSH2 0x198D DUP4 PUSH2 0x1940 JUMP JUMPDEST SWAP3 POP POP PUSH1 0x1 DUP2 ADD SWAP1 POP PUSH2 0x196E JUMP JUMPDEST POP DUP6 SWAP4 POP POP POP POP SWAP3 SWAP2 POP POP JUMP JUMPDEST PUSH0 PUSH1 0x20 DUP3 ADD SWAP1 POP DUP2 DUP2 SUB PUSH0 DUP4 ADD MSTORE PUSH2 0x19C0 DUP2 DUP5 PUSH2 0x194C JUMP JUMPDEST SWAP1 POP SWAP3 SWAP2 POP POP JUMP JUMPDEST PUSH0 DUP2 MLOAD SWAP1 POP SWAP2 SWAP1 POP JUMP JUMPDEST PUSH0 DUP3 DUP3 MSTORE PUSH1 0x20 DUP3 ADD SWAP1 POP SWAP3 SWAP2 POP POP JUMP JUMPDEST DUP3 DUP2 DUP4 MCOPY PUSH0 DUP4 DUP4 ADD MSTORE POP POP POP JUMP JUMPDEST PUSH0 PUSH1 0x1F NOT PUSH1 0x1F DUP4 ADD AND SWAP1 POP SWAP2 SWAP1 POP JUMP JUMPDEST PUSH0 PUSH2 0x1A0A DUP3 PUSH2 0x19C8 JUMP JUMPDEST PUSH2 0x1A14 DUP2 DUP6 PUSH2 0x19D2 JUMP JUMPDEST SWAP4 POP PUSH2 0x1A24 DUP2 DUP6 PUSH1 0x20 DUP7 ADD PUSH2 0x19E2 JUMP JUMPDEST PUSH2 0x1A2D DUP2 PUSH2 0x19F0 JUMP JUMPDEST DUP5 ADD SWAP2 POP POP SWAP3 SWAP2 POP POP JUMP JUMPDEST PUSH0 PUSH1 0x20 DUP3 ADD SWAP1 POP DUP2 DUP2 SUB PUSH0 DUP4 ADD MSTORE PUSH2 0x1A50 DUP2 DUP5 PUSH2 0x1A00 JUMP JUMPDEST SWAP1 POP SWAP3 SWAP2 POP POP JUMP JUMPDEST PUSH0 DUP2 SWAP1 POP SWAP2 SWAP1 POP JUMP JUMPDEST PUSH2 0x1A6A DUP2 PUSH2 0x1A58 JUMP JUMPDEST DUP3 MSTORE POP POP JUMP JUMPDEST PUSH0 PUSH1 0x20 DUP3 ADD SWAP1 POP PUSH2 0x1A83 PUSH0 DUP4 ADD DUP5 PUSH2 0x1A61 JUMP JUMPDEST SWAP3 SWAP2 POP POP JUMP JUMPDEST PUSH0 PUSH0 REVERT JUMPDEST PUSH2 0x1A96 DUP2 PUSH2 0x1A58 JUMP JUMPDEST DUP2 EQ PUSH2 0x1AA0 JUMPI PUSH0 PUSH0 REVERT JUMPDEST POP JUMP JUMPDEST PUSH0 DUP2 CALLDATALOAD SWAP1 POP PUSH2 0x1AB1 DUP2 PUSH2 0x1A8D JUMP JUMPDEST SWAP3 SWAP2 POP POP JUMP JUMPDEST PUSH0 PUSH1 0x20 DUP3 DUP5 SUB SLT ISZERO PUSH2 0x1ACC JUMPI PUSH2 0x1ACB PUSH2 0x1A89 JUMP JUMPDEST JUMPDEST PUSH0 PUSH2 0x1AD9 DUP5 DUP3 DUP6 ADD PUSH2 0x1AA3 JUMP JUMPDEST SWAP2 POP POP SWAP3 SWAP2 POP POP JUMP JUMPDEST PUSH2 0x1AEB DUP2 PUSH2 0x18B8 JUMP JUMPDEST DUP2 EQ PUSH2 0x1AF5 JUMPI PUSH0 PUSH0 REVERT JUMPDEST POP JUMP JUMPDEST PUSH0 DUP2 CALLDATALOAD SWAP1 POP PUSH2 0x1B06 DUP2 PUSH2 0x1AE2 JUMP JUMPDEST SWAP3 SWAP2 POP POP JUMP JUMPDEST PUSH0 PUSH1 0x20 DUP3 DUP5 SUB SLT ISZERO PUSH2 0x1B21 JUMPI PUSH2 0x1B20 PUSH2 0x1A89 JUMP JUMPDEST JUMPDEST PUSH0 PUSH2 0x1B2E DUP5 DUP3 DUP6 ADD PUSH2 0x1AF8 JUMP JUMPDEST SWAP2 POP POP SWAP3 SWAP2 POP POP JUMP JUMPDEST PUSH0 PUSH1 0x60 DUP3 ADD SWAP1 POP PUSH2 0x1B4A PUSH0 DUP4 ADD DUP7 PUSH2 0x18C9 JUMP JUMPDEST DUP2 DUP2 SUB PUSH1 0x20 DUP4 ADD MSTORE PUSH2 0x1B5C DUP2 DUP6 PUSH2 0x1A00 JUMP JUMPDEST SWAP1 POP PUSH2 0x1B6B PUSH1 0x40 DUP4 ADD DUP5 PUSH2 0x1871 JUMP JUMPDEST SWAP5 SWAP4 POP POP POP POP JUMP JUMPDEST PUSH32 0x4E487B7100000000000000000000000000000000000000000000000000000000 PUSH0 MSTORE PUSH1 0x21 PUSH1 0x4 MSTORE PUSH1 0x24 PUSH0 REVERT JUMPDEST PUSH1 0x5 DUP2 LT PUSH2 0x1BB1 JUMPI PUSH2 0x1BB0 PUSH2 0x1B73 JUMP JUMPDEST JUMPDEST POP JUMP JUMPDEST PUSH0 DUP2 SWAP1 POP PUSH2 0x1BC1 DUP3 PUSH2 0x1BA0 JUMP JUMPDEST SWAP2 SWAP1 POP JUMP JUMPDEST PUSH0 PUSH2 0x1BD0 DUP3 PUSH2 0x1BB4 JUMP JUMPDEST SWAP1 POP SWAP2 SWAP1 POP JUMP JUMPDEST PUSH2 0x1BE0 DUP2 PUSH2 0x1BC6 JUMP JUMPDEST DUP3 MSTORE POP POP JUMP JUMPDEST PUSH0 PUSH2 0x120 DUP3 ADD SWAP1 POP DUP2 DUP2 SUB PUSH0 DUP4 ADD MSTORE PUSH2 0x1BFF DUP2 DUP13 PUSH2 0x1A00 JUMP JUMPDEST SWAP1 POP PUSH2 0x1C0E PUSH1 0x20 DUP4 ADD DUP12 PUSH2 0x1A61 JUMP JUMPDEST PUSH2 0x1C1B PUSH1 0x40 DUP4 ADD DUP11 PUSH2 0x1BD7 JUMP JUMPDEST PUSH2 0x1C28 PUSH1 0x60 DUP4 ADD DUP10 PUSH2 0x18C9 JUMP JUMPDEST PUSH2 0x1C35 PUSH1 0x80 DUP4 ADD DUP9 PUSH2 0x18C9 JUMP JUMPDEST PUSH2 0x1C42 PUSH1 0xA0 DUP4 ADD DUP8 PUSH2 0x18C9 JUMP JUMPDEST PUSH2 0x1C4F PUSH1 0xC0 DUP4 ADD DUP7 PUSH2 0x18C9 JUMP JUMPDEST PUSH2 0x1C5C PUSH1 0xE0 DUP4 ADD DUP6 PUSH2 0x1871 JUMP JUMPDEST DUP2 DUP2 SUB PUSH2 0x100 DUP4 ADD MSTORE PUSH2 0x1C6F DUP2 DUP5 PUSH2 0x1A00 JUMP JUMPDEST SWAP1 POP SWAP11 SWAP10 POP POP POP POP POP POP POP POP POP POP JUMP JUMPDEST PUSH32 0x4E616F206175746F72697A61646F000000000000000000000000000000000000 PUSH0 DUP3 ADD MSTORE POP JUMP JUMPDEST PUSH0 PUSH2 0x1CB3 PUSH1 0xE DUP4 PUSH2 0x19D2 JUMP JUMPDEST SWAP2 POP PUSH2 0x1CBE DUP3 PUSH2 0x1C7F JUMP JUMPDEST PUSH1 0x20 DUP3 ADD SWAP1 POP SWAP2 SWAP1 POP JUMP JUMPDEST PUSH0 PUSH1 0x20 DUP3 ADD SWAP1 POP DUP2 DUP2 SUB PUSH0 DUP4 ADD MSTORE PUSH2 0x1CE0 DUP2 PUSH2 0x1CA7 JUMP JUMPDEST SWAP1 POP SWAP2 SWAP1 POP JUMP JUMPDEST PUSH32 0x4A612061636569746F7500000000000000000000000000000000000000000000 PUSH0 DUP3 ADD MSTORE POP JUMP JUMPDEST PUSH0 PUSH2 0x1D1B PUSH1 0xA DUP4 PUSH2 0x19D2 JUMP JUMPDEST SWAP2 POP PUSH2 0x1D26 DUP3 PUSH2 0x1CE7 JUMP JUMPDEST PUSH1 0x20 DUP3 ADD SWAP1 POP SWAP2 SWAP1 POP JUMP JUMPDEST PUSH0 PUSH1 0x20 DUP3 ADD SWAP1 POP DUP2 DUP2 SUB PUSH0 DUP4 ADD MSTORE PUSH2 0x1D48 DUP2 PUSH2 0x1D0F JUMP JUMPDEST SWAP1 POP SWAP2 SWAP1 POP JUMP JUMPDEST PUSH32 0x436F6E74726174616E7465206E616F2061636569746F75000000000000000000 PUSH0 DUP3 ADD MSTORE POP JUMP JUMPDEST PUSH0 PUSH2 0x1D83 PUSH1 0x17 DUP4 PUSH2 0x19D2 JUMP JUMPDEST SWAP2 POP PUSH2 0x1D8E DUP3 PUSH2 0x1D4F JUMP JUMPDEST PUSH1 0x20 DUP3 ADD SWAP1 POP SWAP2 SWAP1 POP JUMP JUMPDEST PUSH0 PUSH1 0x20 DUP3 ADD SWAP1 POP DUP2 DUP2 SUB PUSH0 DUP4 ADD MSTORE PUSH2 0x1DB0 DUP2 PUSH2 0x1D77 JUMP JUMPDEST SWAP1 POP SWAP2 SWAP1 POP JUMP JUMPDEST PUSH32 0x436F6E7472617461646F206E616F2061636569746F7500000000000000000000 PUSH0 DUP3 ADD MSTORE POP JUMP JUMPDEST PUSH0 PUSH2 0x1DEB PUSH1 0x16 DUP4 PUSH2 0x19D2 JUMP JUMPDEST SWAP2 POP PUSH2 0x1DF6 DUP3 PUSH2 0x1DB7 JUMP JUMPDEST PUSH1 0x20 DUP3 ADD SWAP1 POP SWAP2 SWAP1 POP JUMP JUMPDEST PUSH0 PUSH1 0x20 DUP3 ADD SWAP1 POP DUP2 DUP2 SUB PUSH0 DUP4 ADD MSTORE PUSH2 0x1E18 DUP2 PUSH2 0x1DDF JUMP JUMPDEST SWAP1 POP SWAP2 SWAP1 POP JUMP JUMPDEST PUSH32 0x536F6D656E7465206F20636F6E74726174616E746520706F6465206578656375 PUSH0 DUP3 ADD MSTORE PUSH32 0x7461720000000000000000000000000000000000000000000000000000000000 PUSH1 0x20 DUP3 ADD MSTORE POP JUMP JUMPDEST PUSH0 PUSH2 0x1E79 PUSH1 0x23 DUP4 PUSH2 0x19D2 JUMP JUMPDEST SWAP2 POP PUSH2 0x1E84 DUP3 PUSH2 0x1E1F JUMP JUMPDEST PUSH1 0x40 DUP3 ADD SWAP1 POP SWAP2 SWAP1 POP JUMP JUMPDEST PUSH0 PUSH1 0x20 DUP3 ADD SWAP1 POP DUP2 DUP2 SUB PUSH0 DUP4 ADD MSTORE PUSH2 0x1EA6 DUP2 PUSH2 0x1E6D JUMP JUMPDEST SWAP1 POP SWAP2 SWAP1 POP JUMP JUMPDEST PUSH32 0x5365727669636F206E616F20636F6E636C7569646F0000000000000000000000 PUSH0 DUP3 ADD MSTORE POP JUMP JUMPDEST PUSH0 PUSH2 0x1EE1 PUSH1 0x15 DUP4 PUSH2 0x19D2 JUMP JUMPDEST SWAP2 POP PUSH2 0x1EEC DUP3 PUSH2 0x1EAD JUMP JUMPDEST PUSH1 0x20 DUP3 ADD SWAP1 POP SWAP2 SWAP1 POP JUMP JUMPDEST PUSH0 PUSH1 0x20 DUP3 ADD SWAP1 POP DUP2 DUP2 SUB PUSH0 DUP4 ADD MSTORE PUSH2 0x1F0E DUP2 PUSH2 0x1ED5 JUMP JUMPDEST SWAP1 POP SWAP2 SWAP1 POP JUMP JUMPDEST PUSH32 0x436F6E747261746F206E616F207265636F6E68656369646F206A757269646963 PUSH0 DUP3 ADD MSTORE PUSH32 0x616D656E74650000000000000000000000000000000000000000000000000000 PUSH1 0x20 DUP3 ADD MSTORE POP JUMP JUMPDEST PUSH0 PUSH2 0x1F6F PUSH1 0x26 DUP4 PUSH2 0x19D2 JUMP JUMPDEST SWAP2 POP PUSH2 0x1F7A DUP3 PUSH2 0x1F15 JUMP JUMPDEST PUSH1 0x40 DUP3 ADD SWAP1 POP SWAP2 SWAP1 POP JUMP JUMPDEST PUSH0 PUSH1 0x20 DUP3 ADD SWAP1 POP DUP2 DUP2 SUB PUSH0 DUP4 ADD MSTORE PUSH2 0x1F9C DUP2 PUSH2 0x1F63 JUMP JUMPDEST SWAP1 POP SWAP2 SWAP1 POP JUMP JUMPDEST PUSH32 0x56616C6F7220696E737566696369656E74650000000000000000000000000000 PUSH0 DUP3 ADD MSTORE POP JUMP JUMPDEST PUSH0 PUSH2 0x1FD7 PUSH1 0x12 DUP4 PUSH2 0x19D2 JUMP JUMPDEST SWAP2 POP PUSH2 0x1FE2 DUP3 PUSH2 0x1FA3 JUMP JUMPDEST PUSH1 0x20 DUP3 ADD SWAP1 POP SWAP2 SWAP1 POP JUMP JUMPDEST PUSH0 PUSH1 0x20 DUP3 ADD SWAP1 POP DUP2 DUP2 SUB PUSH0 DUP4 ADD MSTORE PUSH2 0x2004 DUP2 PUSH2 0x1FCB JUMP JUMPDEST SWAP1 POP SWAP2 SWAP1 POP JUMP JUMPDEST PUSH0 PUSH1 0x40 DUP3 ADD SWAP1 POP PUSH2 0x201E PUSH0 DUP4 ADD DUP6 PUSH2 0x18C9 JUMP JUMPDEST PUSH2 0x202B PUSH1 0x20 DUP4 ADD DUP5 PUSH2 0x1A61 JUMP JUMPDEST SWAP4 SWAP3 POP POP POP JUMP JUMPDEST PUSH32 0x536F6D656E7465206F20636F6E7472617461646F20706F646520657865637574 PUSH0 DUP3 ADD MSTORE PUSH32 0x6172000000000000000000000000000000000000000000000000000000000000 PUSH1 0x20 DUP3 ADD MSTORE POP JUMP JUMPDEST PUSH0 PUSH2 0x208C PUSH1 0x22 DUP4 PUSH2 0x19D2 JUMP JUMPDEST SWAP2 POP PUSH2 0x2097 DUP3 PUSH2 0x2032 JUMP JUMPDEST PUSH1 0x40 DUP3 ADD SWAP1 POP SWAP2 SWAP1 POP JUMP JUMPDEST PUSH0 PUSH1 0x20 DUP3 ADD SWAP1 POP DUP2 DUP2 SUB PUSH0 DUP4 ADD MSTORE PUSH2 0x20B9 DUP2 PUSH2 0x2080 JUMP JUMPDEST SWAP1 POP SWAP2 SWAP1 POP JUMP JUMPDEST PUSH32 0x5365727669636F206E616F20696E69636961646F000000000000000000000000 PUSH0 DUP3 ADD MSTORE POP JUMP JUMPDEST PUSH0 PUSH2 0x20F4 PUSH1 0x14 DUP4 PUSH2 0x19D2 JUMP JUMPDEST SWAP2 POP PUSH2 0x20FF DUP3 PUSH2 0x20C0 JUMP JUMPDEST PUSH1 0x20 DUP3 ADD SWAP1 POP SWAP2 SWAP1 POP JUMP JUMPDEST PUSH0 PUSH1 0x20 DUP3 ADD SWAP1 POP DUP2 DUP2 SUB PUSH0 DUP4 ADD MSTORE PUSH2 0x2121 DUP2 PUSH2 0x20E8 JUMP JUMPDEST SWAP1 POP SWAP2 SWAP1 POP JUMP JUMPDEST PUSH32 0x536F6D656E7465206F206164766F6761646F20706F6465206578656375746172 PUSH0 DUP3 ADD MSTORE POP JUMP JUMPDEST PUSH0 PUSH2 0x215C PUSH1 0x20 DUP4 PUSH2 0x19D2 JUMP JUMPDEST SWAP2 POP PUSH2 0x2167 DUP3 PUSH2 0x2128 JUMP JUMPDEST PUSH1 0x20 DUP3 ADD SWAP1 POP SWAP2 SWAP1 POP JUMP JUMPDEST PUSH0 PUSH1 0x20 DUP3 ADD SWAP1 POP DUP2 DUP2 SUB PUSH0 DUP4 ADD MSTORE PUSH2 0x2189 DUP2 PUSH2 0x2150 JUMP JUMPDEST SWAP1 POP SWAP2 SWAP1 POP JUMP JUMPDEST PUSH32 0x4E616F20706F64652063616E63656C61722061706F7320636F6E636C7573616F PUSH0 DUP3 ADD MSTORE POP JUMP JUMPDEST PUSH0 PUSH2 0x21C4 PUSH1 0x20 DUP4 PUSH2 0x19D2 JUMP JUMPDEST SWAP2 POP PUSH2 0x21CF DUP3 PUSH2 0x2190 JUMP JUMPDEST PUSH1 0x20 DUP3 ADD SWAP1 POP SWAP2 SWAP1 POP JUMP JUMPDEST PUSH0 PUSH1 0x20 DUP3 ADD SWAP1 POP DUP2 DUP2 SUB PUSH0 DUP4 ADD MSTORE PUSH2 0x21F1 DUP2 PUSH2 0x21B8 JUMP JUMPDEST SWAP1 POP SWAP2 SWAP1 POP JUMP JUMPDEST PUSH32 0x4E487B7100000000000000000000000000000000000000000000000000000000 PUSH0 MSTORE PUSH1 0x22 PUSH1 0x4 MSTORE PUSH1 0x24 PUSH0 REVERT JUMPDEST PUSH0 PUSH1 0x2 DUP3 DIV SWAP1 POP PUSH1 0x1 DUP3 AND DUP1 PUSH2 0x223C JUMPI PUSH1 0x7F DUP3 AND SWAP2 POP JUMPDEST PUSH1 0x20 DUP3 LT DUP2 SUB PUSH2 0x224F JUMPI PUSH2 0x224E PUSH2 0x21F8 JUMP JUMPDEST JUMPDEST POP SWAP2 SWAP1 POP JUMP JUMPDEST PUSH32 0x5265656E7472616E637947756172643A207265656E7472616E742063616C6C00 PUSH0 DUP3 ADD MSTORE POP JUMP JUMPDEST PUSH0 PUSH2 0x2289 PUSH1 0x1F DUP4 PUSH2 0x19D2 JUMP JUMPDEST SWAP2 POP PUSH2 0x2294 DUP3 PUSH2 0x2255 JUMP JUMPDEST PUSH1 0x20 DUP3 ADD SWAP1 POP SWAP2 SWAP1 POP JUMP JUMPDEST PUSH0 PUSH1 0x20 DUP3 ADD SWAP1 POP DUP2 DUP2 SUB PUSH0 DUP4 ADD MSTORE PUSH2 0x22B6 DUP2 PUSH2 0x227D JUMP JUMPDEST SWAP1 POP SWAP2 SWAP1 POP JUMP INVALID LOG2 PUSH5 0x6970667358 0x22 SLT KECCAK256 ADDRESS DUP12 SWAP12 0xBB 0x27 0xB9 MSTORE DUP2 0xB9 BLOBBASEFEE 0xA7 LOG3 PUSH5 0x5DD0ACDE26 0xC7 REVERT SIGNEXTEND SWAP2 0x29 DUP13 CALLF 0x6FBD 0xCF BLOBHASH DIV SWAP12 RETURN PUSH5 0x736F6C6343 STOP ADDMOD 0x1E STOP CALLER "
				},
				"gasEstimates": {
					"creation": {
						"codeDepositCost": "1789400",
						"executionCost": "infinite",
						"totalCost": "infinite"
					},
					"external": {
						"aceitarContrato()": "30270",
						"cancelarContrato()": "30236",
						"concluirServico()": "29766",
						"getAdvogado()": "2544",
						"getContratado()": "2638",
						"getContratante()": "2566",
						"getDescricaoServico()": "infinite",
						"getIntermediador()": "2609",
						"getLinkTermos()": "infinite",
						"getListaPartes()": "infinite",
						"getParte(address)": "infinite",
						"getStatusServico()": "infinite",
						"getValorServico()": "2483",
						"iniciarServico()": "34083",
						"isReconhecidoJuridicamente()": "2620",
						"listaPartes(uint256)": "5011",
						"pagarServico()": "infinite",
						"partes(address)": "infinite",
						"reconhecerJuridicamente()": "30159",
						"servico()": "infinite"
					}
				},
				"methodIdentifiers": {
					"aceitarContrato()": "0d23ce1a",
					"cancelarContrato()": "8bb5db74",
					"concluirServico()": "57d46729",
					"getAdvogado()": "5ea3ddc2",
					"getContratado()": "eaf1cdfc",
					"getContratante()": "79754129",
					"getDescricaoServico()": "bb7211cf",
					"getIntermediador()": "f3e4896a",
					"getLinkTermos()": "e427938f",
					"getListaPartes()": "96b2176d",
					"getParte(address)": "dcb82783",
					"getStatusServico()": "e4a25b38",
					"getValorServico()": "bcff9e23",
					"iniciarServico()": "1224addd",
					"isReconhecidoJuridicamente()": "35c752af",
					"listaPartes(uint256)": "c598bddf",
					"pagarServico()": "2d22fd0b",
					"partes(address)": "d2fdb0ee",
					"reconhecerJuridicamente()": "815085d9",
					"servico()": "fb3d968c"
				}
			},
			"storageLayout": {
				"storage": [
					{
						"astId": 10,
						"contract": "PrestacaoServicoSeguro.sol:PrestacaoServicoSeguro",
						"label": "_status",
						"offset": 0,
						"slot": "0",
						"type": "t_uint256"
					},
					{
						"astId": 105,
						"contract": "PrestacaoServicoSeguro.sol:PrestacaoServicoSeguro",
						"label": "servico",
						"offset": 0,
						"slot": "1",
						"type": "t_struct(Servico)102_storage"
					},
					{
						"astId": 110,
						"contract": "PrestacaoServicoSeguro.sol:PrestacaoServicoSeguro",
						"label": "partes",
						"offset": 0,
						"slot": "8",
						"type": "t_mapping(t_address,t_struct(Parte)82_storage)"
					},
					{
						"astId": 113,
						"contract": "PrestacaoServicoSeguro.sol:PrestacaoServicoSeguro",
						"label": "listaPartes",
						"offset": 0,
						"slot": "9",
						"type": "t_array(t_address)dyn_storage"
					}
				],
				"types": {
					"t_address": {
						"encoding": "inplace",
						"label": "address",
						"numberOfBytes": "20"
					},
					"t_array(t_address)dyn_storage": {
						"base": "t_address",
						"encoding": "dynamic_array",
						"label": "address[]",
						"numberOfBytes": "32"
					},
					"t_bool": {
						"encoding": "inplace",
						"label": "bool",
						"numberOfBytes": "1"
					},
					"t_enum(Status)75": {
						"encoding": "inplace",
						"label": "enum PrestacaoServicoSeguro.Status",
						"numberOfBytes": "1"
					},
					"t_mapping(t_address,t_struct(Parte)82_storage)": {
						"encoding": "mapping",
						"key": "t_address",
						"label": "mapping(address => struct PrestacaoServicoSeguro.Parte)",
						"numberOfBytes": "32",
						"value": "t_struct(Parte)82_storage"
					},
					"t_string_storage": {
						"encoding": "bytes",
						"label": "string",
						"numberOfBytes": "32"
					},
					"t_struct(Parte)82_storage": {
						"encoding": "inplace",
						"label": "struct PrestacaoServicoSeguro.Parte",
						"members": [
							{
								"astId": 77,
								"contract": "PrestacaoServicoSeguro.sol:PrestacaoServicoSeguro",
								"label": "carteira",
								"offset": 0,
								"slot": "0",
								"type": "t_address"
							},
							{
								"astId": 79,
								"contract": "PrestacaoServicoSeguro.sol:PrestacaoServicoSeguro",
								"label": "nome",
								"offset": 0,
								"slot": "1",
								"type": "t_string_storage"
							},
							{
								"astId": 81,
								"contract": "PrestacaoServicoSeguro.sol:PrestacaoServicoSeguro",
								"label": "aceitou",
								"offset": 0,
								"slot": "2",
								"type": "t_bool"
							}
						],
						"numberOfBytes": "96"
					},
					"t_struct(Servico)102_storage": {
						"encoding": "inplace",
						"label": "struct PrestacaoServicoSeguro.Servico",
						"members": [
							{
								"astId": 84,
								"contract": "PrestacaoServicoSeguro.sol:PrestacaoServicoSeguro",
								"label": "descricao",
								"offset": 0,
								"slot": "0",
								"type": "t_string_storage"
							},
							{
								"astId": 86,
								"contract": "PrestacaoServicoSeguro.sol:PrestacaoServicoSeguro",
								"label": "valor",
								"offset": 0,
								"slot": "1",
								"type": "t_uint256"
							},
							{
								"astId": 89,
								"contract": "PrestacaoServicoSeguro.sol:PrestacaoServicoSeguro",
								"label": "status",
								"offset": 0,
								"slot": "2",
								"type": "t_enum(Status)75"
							},
							{
								"astId": 91,
								"contract": "PrestacaoServicoSeguro.sol:PrestacaoServicoSeguro",
								"label": "contratado",
								"offset": 1,
								"slot": "2",
								"type": "t_address"
							},
							{
								"astId": 93,
								"contract": "PrestacaoServicoSeguro.sol:PrestacaoServicoSeguro",
								"label": "contratante",
								"offset": 0,
								"slot": "3",
								"type": "t_address"
							},
							{
								"astId": 95,
								"contract": "PrestacaoServicoSeguro.sol:PrestacaoServicoSeguro",
								"label": "intermediador",
								"offset": 0,
								"slot": "4",
								"type": "t_address"
							},
							{
								"astId": 97,
								"contract": "PrestacaoServicoSeguro.sol:PrestacaoServicoSeguro",
								"label": "advogado",
								"offset": 0,
								"slot": "5",
								"type": "t_address"
							},
							{
								"astId": 99,
								"contract": "PrestacaoServicoSeguro.sol:PrestacaoServicoSeguro",
								"label": "reconhecidoJuridicamente",
								"offset": 20,
								"slot": "5",
								"type": "t_bool"
							},
							{
								"astId": 101,
								"contract": "PrestacaoServicoSeguro.sol:PrestacaoServicoSeguro",
								"label": "ipfsLinkTermos",
								"offset": 0,
								"slot": "6",
								"type": "t_string_storage"
							}
						],
						"numberOfBytes": "224"
					},
					"t_uint256": {
						"encoding": "inplace",
						"label": "uint256",
						"numberOfBytes": "32"
					}
				}
			},
			"userdoc": {
				"kind": "user",
				"methods": {},
				"version": 1
			}
		}
	}
}