{
	"contracts/Cooperative.sol": {
		"Cooperative": {
			"abi": [
				{
					"inputs": [
						{
							"internalType": "address",
							"name": "vault",
							"type": "address"
						},
						{
							"internalType": "string",
							"name": "name_",
							"type": "string"
						},
						{
							"internalType": "string",
							"name": "cnpj_",
							"type": "string"
						},
						{
							"internalType": "string",
							"name": "cpf_",
							"type": "string"
						},
						{
							"internalType": "string",
							"name": "email_",
							"type": "string"
						}
					],
					"stateMutability": "nonpayable",
					"type": "constructor"
				},
				{
					"anonymous": false,
					"inputs": [
						{
							"indexed": true,
							"internalType": "address",
							"name": "to",
							"type": "address"
						},
						{
							"indexed": false,
							"internalType": "uint256",
							"name": "amount",
							"type": "uint256"
						}
					],
					"name": "CooperativeWithdrawal",
					"type": "event"
				},
				{
					"anonymous": false,
					"inputs": [
						{
							"indexed": true,
							"internalType": "address",
							"name": "owner",
							"type": "address"
						},
						{
							"indexed": false,
							"internalType": "uint256",
							"name": "amount",
							"type": "uint256"
						},
						{
							"indexed": false,
							"internalType": "string",
							"name": "message",
							"type": "string"
						}
					],
					"name": "OwnerDeposit",
					"type": "event"
				},
				{
					"inputs": [
						{
							"internalType": "string",
							"name": "message",
							"type": "string"
						}
					],
					"name": "deposit",
					"outputs": [],
					"stateMutability": "payable",
					"type": "function"
				},
				{
					"inputs": [],
					"name": "getCNPJ",
					"outputs": [
						{
							"internalType": "string",
							"name": "",
							"type": "string"
						}
					],
					"stateMutability": "view",
					"type": "function"
				},
				{
					"inputs": [],
					"name": "getCPF",
					"outputs": [
						{
							"internalType": "string",
							"name": "",
							"type": "string"
						}
					],
					"stateMutability": "view",
					"type": "function"
				},
				{
					"inputs": [],
					"name": "getContractBalance",
					"outputs": [
						{
							"internalType": "uint256",
							"name": "",
							"type": "uint256"
						}
					],
					"stateMutability": "view",
					"type": "function"
				},
				{
					"inputs": [],
					"name": "getEmail",
					"outputs": [
						{
							"internalType": "string",
							"name": "",
							"type": "string"
						}
					],
					"stateMutability": "view",
					"type": "function"
				},
				{
					"inputs": [],
					"name": "getName",
					"outputs": [
						{
							"internalType": "string",
							"name": "",
							"type": "string"
						}
					],
					"stateMutability": "view",
					"type": "function"
				},
				{
					"inputs": [],
					"name": "getOwner",
					"outputs": [
						{
							"internalType": "address",
							"name": "",
							"type": "address"
						}
					],
					"stateMutability": "view",
					"type": "function"
				},
				{
					"inputs": [],
					"name": "getVaultAddress",
					"outputs": [
						{
							"internalType": "address",
							"name": "",
							"type": "address"
						}
					],
					"stateMutability": "view",
					"type": "function"
				},
				{
					"inputs": [
						{
							"internalType": "uint256",
							"name": "amount",
							"type": "uint256"
						}
					],
					"name": "withdraw",
					"outputs": [],
					"stateMutability": "nonpayable",
					"type": "function"
				},
				{
					"stateMutability": "payable",
					"type": "receive"
				}
			],
			"devdoc": {
				"kind": "dev",
				"methods": {},
				"version": 1
			},
			"evm": {
				"assembly": "    /* \"contracts/Cooperative.sol\":58:2162  contract Cooperative {... */\n  mstore(0x40, 0x80)\n    /* \"contracts/Cooperative.sol\":403:790  constructor(... */\n  callvalue\n  dup1\n  iszero\n  tag_1\n  jumpi\n  revert(0x00, 0x00)\ntag_1:\n  pop\n  mload(0x40)\n  sub(codesize, bytecodeSize)\n  dup1\n  bytecodeSize\n  dup4\n  codecopy\n  dup2\n  dup2\n  add\n  0x40\n  mstore\n  dup2\n  add\n  swap1\n  tag_2\n  swap2\n  swap1\n  tag_3\n  jump\t// in\ntag_2:\n    /* \"contracts/Cooperative.sol\":595:596  0 */\n  0x00\n    /* \"contracts/Cooperative.sol\":578:597  vault != address(0) */\n  0xffffffffffffffffffffffffffffffffffffffff\n  and\n    /* \"contracts/Cooperative.sol\":578:583  vault */\n  dup6\n    /* \"contracts/Cooperative.sol\":578:597  vault != address(0) */\n  0xffffffffffffffffffffffffffffffffffffffff\n  and\n  sub\n    /* \"contracts/Cooperative.sol\":570:630  require(vault != address(0), \"Vault address cannot be zero\") */\n  tag_6\n  jumpi\n  mload(0x40)\n  0x08c379a000000000000000000000000000000000000000000000000000000000\n  dup2\n  mstore\n  0x04\n  add\n  tag_7\n  swap1\n  tag_8\n  jump\t// in\ntag_7:\n  mload(0x40)\n  dup1\n  swap2\n  sub\n  swap1\n  revert\ntag_6:\n    /* \"contracts/Cooperative.sol\":656:661  vault */\n  dup5\n    /* \"contracts/Cooperative.sol\":640:653  _vaultAddress */\n  0x04\n  0x00\n    /* \"contracts/Cooperative.sol\":640:661  _vaultAddress = vault */\n  0x0100\n  exp\n  dup2\n  sload\n  dup2\n  0xffffffffffffffffffffffffffffffffffffffff\n  mul\n  not\n  and\n  swap1\n  dup4\n  0xffffffffffffffffffffffffffffffffffffffff\n  and\n  mul\n  or\n  swap1\n  sstore\n  pop\n    /* \"contracts/Cooperative.sol\":680:690  msg.sender */\n  caller\n    /* \"contracts/Cooperative.sol\":671:677  _owner */\n  0x05\n  0x00\n    /* \"contracts/Cooperative.sol\":671:690  _owner = msg.sender */\n  0x0100\n  exp\n  dup2\n  sload\n  dup2\n  0xffffffffffffffffffffffffffffffffffffffff\n  mul\n  not\n  and\n  swap1\n  dup4\n  0xffffffffffffffffffffffffffffffffffffffff\n  and\n  mul\n  or\n  swap1\n  sstore\n  pop\n    /* \"contracts/Cooperative.sol\":709:714  name_ */\n  dup4\n    /* \"contracts/Cooperative.sol\":701:706  _name */\n  0x00\n    /* \"contracts/Cooperative.sol\":701:714  _name = name_ */\n  swap1\n  dup2\n  tag_9\n  swap2\n  swap1\n  tag_10\n  jump\t// in\ntag_9:\n  pop\n    /* \"contracts/Cooperative.sol\":732:737  cnpj_ */\n  dup3\n    /* \"contracts/Cooperative.sol\":724:729  _cnpj */\n  0x01\n    /* \"contracts/Cooperative.sol\":724:737  _cnpj = cnpj_ */\n  swap1\n  dup2\n  tag_11\n  swap2\n  swap1\n  tag_10\n  jump\t// in\ntag_11:\n  pop\n    /* \"contracts/Cooperative.sol\":754:758  cpf_ */\n  dup2\n    /* \"contracts/Cooperative.sol\":747:751  _cpf */\n  0x02\n    /* \"contracts/Cooperative.sol\":747:758  _cpf = cpf_ */\n  swap1\n  dup2\n  tag_12\n  swap2\n  swap1\n  tag_10\n  jump\t// in\ntag_12:\n  pop\n    /* \"contracts/Cooperative.sol\":777:783  email_ */\n  dup1\n    /* \"contracts/Cooperative.sol\":768:774  _email */\n  0x03\n    /* \"contracts/Cooperative.sol\":768:783  _email = email_ */\n  swap1\n  dup2\n  tag_13\n  swap2\n  swap1\n  tag_10\n  jump\t// in\ntag_13:\n  pop\n    /* \"contracts/Cooperative.sol\":403:790  constructor(... */\n  pop\n  pop\n  pop\n  pop\n  pop\n    /* \"contracts/Cooperative.sol\":58:2162  contract Cooperative {... */\n  jump(tag_14)\n    /* \"#utility.yul\":7:82   */\ntag_15:\n    /* \"#utility.yul\":40:46   */\n  0x00\n    /* \"#utility.yul\":73:75   */\n  0x40\n    /* \"#utility.yul\":67:76   */\n  mload\n    /* \"#utility.yul\":57:76   */\n  swap1\n  pop\n    /* \"#utility.yul\":7:82   */\n  swap1\n  jump\t// out\n    /* \"#utility.yul\":88:205   */\ntag_16:\n    /* \"#utility.yul\":197:198   */\n  0x00\n    /* \"#utility.yul\":194:195   */\n  0x00\n    /* \"#utility.yul\":187:199   */\n  revert\n    /* \"#utility.yul\":211:328   */\ntag_17:\n    /* \"#utility.yul\":320:321   */\n  0x00\n    /* \"#utility.yul\":317:318   */\n  0x00\n    /* \"#utility.yul\":310:322   */\n  revert\n    /* \"#utility.yul\":334:460   */\ntag_18:\n    /* \"#utility.yul\":371:378   */\n  0x00\n    /* \"#utility.yul\":411:453   */\n  0xffffffffffffffffffffffffffffffffffffffff\n    /* \"#utility.yul\":404:409   */\n  dup3\n    /* \"#utility.yul\":400:454   */\n  and\n    /* \"#utility.yul\":389:454   */\n  swap1\n  pop\n    /* \"#utility.yul\":334:460   */\n  swap2\n  swap1\n  pop\n  jump\t// out\n    /* \"#utility.yul\":466:562   */\ntag_19:\n    /* \"#utility.yul\":503:510   */\n  0x00\n    /* \"#utility.yul\":532:556   */\n  tag_60\n    /* \"#utility.yul\":550:555   */\n  dup3\n    /* \"#utility.yul\":532:556   */\n  tag_18\n  jump\t// in\ntag_60:\n    /* \"#utility.yul\":521:556   */\n  swap1\n  pop\n    /* \"#utility.yul\":466:562   */\n  swap2\n  swap1\n  pop\n  jump\t// out\n    /* \"#utility.yul\":568:690   */\ntag_20:\n    /* \"#utility.yul\":641:665   */\n  tag_62\n    /* \"#utility.yul\":659:664   */\n  dup2\n    /* \"#utility.yul\":641:665   */\n  tag_19\n  jump\t// in\ntag_62:\n    /* \"#utility.yul\":634:639   */\n  dup2\n    /* \"#utility.yul\":631:666   */\n  eq\n    /* \"#utility.yul\":621:684   */\n  tag_63\n  jumpi\n    /* \"#utility.yul\":680:681   */\n  0x00\n    /* \"#utility.yul\":677:678   */\n  0x00\n    /* \"#utility.yul\":670:682   */\n  revert\n    /* \"#utility.yul\":621:684   */\ntag_63:\n    /* \"#utility.yul\":568:690   */\n  pop\n  jump\t// out\n    /* \"#utility.yul\":696:839   */\ntag_21:\n    /* \"#utility.yul\":753:758   */\n  0x00\n    /* \"#utility.yul\":784:790   */\n  dup2\n    /* \"#utility.yul\":778:791   */\n  mload\n    /* \"#utility.yul\":769:791   */\n  swap1\n  pop\n    /* \"#utility.yul\":800:833   */\n  tag_65\n    /* \"#utility.yul\":827:832   */\n  dup2\n    /* \"#utility.yul\":800:833   */\n  tag_20\n  jump\t// in\ntag_65:\n    /* \"#utility.yul\":696:839   */\n  swap3\n  swap2\n  pop\n  pop\n  jump\t// out\n    /* \"#utility.yul\":845:962   */\ntag_22:\n    /* \"#utility.yul\":954:955   */\n  0x00\n    /* \"#utility.yul\":951:952   */\n  0x00\n    /* \"#utility.yul\":944:956   */\n  revert\n    /* \"#utility.yul\":968:1085   */\ntag_23:\n    /* \"#utility.yul\":1077:1078   */\n  0x00\n    /* \"#utility.yul\":1074:1075   */\n  0x00\n    /* \"#utility.yul\":1067:1079   */\n  revert\n    /* \"#utility.yul\":1091:1193   */\ntag_24:\n    /* \"#utility.yul\":1132:1138   */\n  0x00\n    /* \"#utility.yul\":1183:1185   */\n  0x1f\n    /* \"#utility.yul\":1179:1186   */\n  not\n    /* \"#utility.yul\":1174:1176   */\n  0x1f\n    /* \"#utility.yul\":1167:1172   */\n  dup4\n    /* \"#utility.yul\":1163:1177   */\n  add\n    /* \"#utility.yul\":1159:1187   */\n  and\n    /* \"#utility.yul\":1149:1187   */\n  swap1\n  pop\n    /* \"#utility.yul\":1091:1193   */\n  swap2\n  swap1\n  pop\n  jump\t// out\n    /* \"#utility.yul\":1199:1379   */\ntag_25:\n    /* \"#utility.yul\":1247:1324   */\n  0x4e487b7100000000000000000000000000000000000000000000000000000000\n    /* \"#utility.yul\":1244:1245   */\n  0x00\n    /* \"#utility.yul\":1237:1325   */\n  mstore\n    /* \"#utility.yul\":1344:1348   */\n  0x41\n    /* \"#utility.yul\":1341:1342   */\n  0x04\n    /* \"#utility.yul\":1334:1349   */\n  mstore\n    /* \"#utility.yul\":1368:1372   */\n  0x24\n    /* \"#utility.yul\":1365:1366   */\n  0x00\n    /* \"#utility.yul\":1358:1373   */\n  revert\n    /* \"#utility.yul\":1385:1666   */\ntag_26:\n    /* \"#utility.yul\":1468:1495   */\n  tag_71\n    /* \"#utility.yul\":1490:1494   */\n  dup3\n    /* \"#utility.yul\":1468:1495   */\n  tag_24\n  jump\t// in\ntag_71:\n    /* \"#utility.yul\":1460:1466   */\n  dup2\n    /* \"#utility.yul\":1456:1496   */\n  add\n    /* \"#utility.yul\":1598:1604   */\n  dup2\n    /* \"#utility.yul\":1586:1596   */\n  dup2\n    /* \"#utility.yul\":1583:1605   */\n  lt\n    /* \"#utility.yul\":1562:1580   */\n  0xffffffffffffffff\n    /* \"#utility.yul\":1550:1560   */\n  dup3\n    /* \"#utility.yul\":1547:1581   */\n  gt\n    /* \"#utility.yul\":1544:1606   */\n  or\n    /* \"#utility.yul\":1541:1629   */\n  iszero\n  tag_72\n  jumpi\n    /* \"#utility.yul\":1609:1627   */\n  tag_73\n  tag_25\n  jump\t// in\ntag_73:\n    /* \"#utility.yul\":1541:1629   */\ntag_72:\n    /* \"#utility.yul\":1649:1659   */\n  dup1\n    /* \"#utility.yul\":1645:1647   */\n  0x40\n    /* \"#utility.yul\":1638:1660   */\n  mstore\n    /* \"#utility.yul\":1428:1666   */\n  pop\n    /* \"#utility.yul\":1385:1666   */\n  pop\n  pop\n  jump\t// out\n    /* \"#utility.yul\":1672:1801   */\ntag_27:\n    /* \"#utility.yul\":1706:1712   */\n  0x00\n    /* \"#utility.yul\":1733:1753   */\n  tag_75\n  tag_15\n  jump\t// in\ntag_75:\n    /* \"#utility.yul\":1723:1753   */\n  swap1\n  pop\n    /* \"#utility.yul\":1762:1795   */\n  tag_76\n    /* \"#utility.yul\":1790:1794   */\n  dup3\n    /* \"#utility.yul\":1782:1788   */\n  dup3\n    /* \"#utility.yul\":1762:1795   */\n  tag_26\n  jump\t// in\ntag_76:\n    /* \"#utility.yul\":1672:1801   */\n  swap2\n  swap1\n  pop\n  jump\t// out\n    /* \"#utility.yul\":1807:2115   */\ntag_28:\n    /* \"#utility.yul\":1869:1873   */\n  0x00\n    /* \"#utility.yul\":1959:1977   */\n  0xffffffffffffffff\n    /* \"#utility.yul\":1951:1957   */\n  dup3\n    /* \"#utility.yul\":1948:1978   */\n  gt\n    /* \"#utility.yul\":1945:2001   */\n  iszero\n  tag_78\n  jumpi\n    /* \"#utility.yul\":1981:1999   */\n  tag_79\n  tag_25\n  jump\t// in\ntag_79:\n    /* \"#utility.yul\":1945:2001   */\ntag_78:\n    /* \"#utility.yul\":2019:2048   */\n  tag_80\n    /* \"#utility.yul\":2041:2047   */\n  dup3\n    /* \"#utility.yul\":2019:2048   */\n  tag_24\n  jump\t// in\ntag_80:\n    /* \"#utility.yul\":2011:2048   */\n  swap1\n  pop\n    /* \"#utility.yul\":2103:2107   */\n  0x20\n    /* \"#utility.yul\":2097:2101   */\n  dup2\n    /* \"#utility.yul\":2093:2108   */\n  add\n    /* \"#utility.yul\":2085:2108   */\n  swap1\n  pop\n    /* \"#utility.yul\":1807:2115   */\n  swap2\n  swap1\n  pop\n  jump\t// out\n    /* \"#utility.yul\":2121:2260   */\ntag_29:\n    /* \"#utility.yul\":2210:2216   */\n  dup3\n    /* \"#utility.yul\":2205:2208   */\n  dup2\n    /* \"#utility.yul\":2200:2203   */\n  dup4\n    /* \"#utility.yul\":2194:2217   */\n  mcopy\n    /* \"#utility.yul\":2251:2252   */\n  0x00\n    /* \"#utility.yul\":2242:2248   */\n  dup4\n    /* \"#utility.yul\":2237:2240   */\n  dup4\n    /* \"#utility.yul\":2233:2249   */\n  add\n    /* \"#utility.yul\":2226:2253   */\n  mstore\n    /* \"#utility.yul\":2121:2260   */\n  pop\n  pop\n  pop\n  jump\t// out\n    /* \"#utility.yul\":2266:2700   */\ntag_30:\n    /* \"#utility.yul\":2355:2360   */\n  0x00\n    /* \"#utility.yul\":2380:2446   */\n  tag_83\n    /* \"#utility.yul\":2396:2445   */\n  tag_84\n    /* \"#utility.yul\":2438:2444   */\n  dup5\n    /* \"#utility.yul\":2396:2445   */\n  tag_28\n  jump\t// in\ntag_84:\n    /* \"#utility.yul\":2380:2446   */\n  tag_27\n  jump\t// in\ntag_83:\n    /* \"#utility.yul\":2371:2446   */\n  swap1\n  pop\n    /* \"#utility.yul\":2469:2475   */\n  dup3\n    /* \"#utility.yul\":2462:2467   */\n  dup2\n    /* \"#utility.yul\":2455:2476   */\n  mstore\n    /* \"#utility.yul\":2507:2511   */\n  0x20\n    /* \"#utility.yul\":2500:2505   */\n  dup2\n    /* \"#utility.yul\":2496:2512   */\n  add\n    /* \"#utility.yul\":2545:2548   */\n  dup5\n    /* \"#utility.yul\":2536:2542   */\n  dup5\n    /* \"#utility.yul\":2531:2534   */\n  dup5\n    /* \"#utility.yul\":2527:2543   */\n  add\n    /* \"#utility.yul\":2524:2549   */\n  gt\n    /* \"#utility.yul\":2521:2633   */\n  iszero\n  tag_85\n  jumpi\n    /* \"#utility.yul\":2552:2631   */\n  tag_86\n  tag_23\n  jump\t// in\ntag_86:\n    /* \"#utility.yul\":2521:2633   */\ntag_85:\n    /* \"#utility.yul\":2642:2694   */\n  tag_87\n    /* \"#utility.yul\":2687:2693   */\n  dup5\n    /* \"#utility.yul\":2682:2685   */\n  dup3\n    /* \"#utility.yul\":2677:2680   */\n  dup6\n    /* \"#utility.yul\":2642:2694   */\n  tag_29\n  jump\t// in\ntag_87:\n    /* \"#utility.yul\":2361:2700   */\n  pop\n    /* \"#utility.yul\":2266:2700   */\n  swap4\n  swap3\n  pop\n  pop\n  pop\n  jump\t// out\n    /* \"#utility.yul\":2720:3075   */\ntag_31:\n    /* \"#utility.yul\":2787:2792   */\n  0x00\n    /* \"#utility.yul\":2836:2839   */\n  dup3\n    /* \"#utility.yul\":2829:2833   */\n  0x1f\n    /* \"#utility.yul\":2821:2827   */\n  dup4\n    /* \"#utility.yul\":2817:2834   */\n  add\n    /* \"#utility.yul\":2813:2840   */\n  slt\n    /* \"#utility.yul\":2803:2925   */\n  tag_89\n  jumpi\n    /* \"#utility.yul\":2844:2923   */\n  tag_90\n  tag_22\n  jump\t// in\ntag_90:\n    /* \"#utility.yul\":2803:2925   */\ntag_89:\n    /* \"#utility.yul\":2954:2960   */\n  dup2\n    /* \"#utility.yul\":2948:2961   */\n  mload\n    /* \"#utility.yul\":2979:3069   */\n  tag_91\n    /* \"#utility.yul\":3065:3068   */\n  dup5\n    /* \"#utility.yul\":3057:3063   */\n  dup3\n    /* \"#utility.yul\":3050:3054   */\n  0x20\n    /* \"#utility.yul\":3042:3048   */\n  dup7\n    /* \"#utility.yul\":3038:3055   */\n  add\n    /* \"#utility.yul\":2979:3069   */\n  tag_30\n  jump\t// in\ntag_91:\n    /* \"#utility.yul\":2970:3069   */\n  swap2\n  pop\n    /* \"#utility.yul\":2793:3075   */\n  pop\n    /* \"#utility.yul\":2720:3075   */\n  swap3\n  swap2\n  pop\n  pop\n  jump\t// out\n    /* \"#utility.yul\":3081:4750   */\ntag_3:\n    /* \"#utility.yul\":3227:3233   */\n  0x00\n    /* \"#utility.yul\":3235:3241   */\n  0x00\n    /* \"#utility.yul\":3243:3249   */\n  0x00\n    /* \"#utility.yul\":3251:3257   */\n  0x00\n    /* \"#utility.yul\":3259:3265   */\n  0x00\n    /* \"#utility.yul\":3308:3311   */\n  0xa0\n    /* \"#utility.yul\":3296:3305   */\n  dup7\n    /* \"#utility.yul\":3287:3294   */\n  dup9\n    /* \"#utility.yul\":3283:3306   */\n  sub\n    /* \"#utility.yul\":3279:3312   */\n  slt\n    /* \"#utility.yul\":3276:3396   */\n  iszero\n  tag_93\n  jumpi\n    /* \"#utility.yul\":3315:3394   */\n  tag_94\n  tag_16\n  jump\t// in\ntag_94:\n    /* \"#utility.yul\":3276:3396   */\ntag_93:\n    /* \"#utility.yul\":3435:3436   */\n  0x00\n    /* \"#utility.yul\":3460:3524   */\n  tag_95\n    /* \"#utility.yul\":3516:3523   */\n  dup9\n    /* \"#utility.yul\":3507:3513   */\n  dup3\n    /* \"#utility.yul\":3496:3505   */\n  dup10\n    /* \"#utility.yul\":3492:3514   */\n  add\n    /* \"#utility.yul\":3460:3524   */\n  tag_21\n  jump\t// in\ntag_95:\n    /* \"#utility.yul\":3450:3524   */\n  swap6\n  pop\n    /* \"#utility.yul\":3406:3534   */\n  pop\n    /* \"#utility.yul\":3594:3596   */\n  0x20\n    /* \"#utility.yul\":3583:3592   */\n  dup7\n    /* \"#utility.yul\":3579:3597   */\n  add\n    /* \"#utility.yul\":3573:3598   */\n  mload\n    /* \"#utility.yul\":3625:3643   */\n  0xffffffffffffffff\n    /* \"#utility.yul\":3617:3623   */\n  dup2\n    /* \"#utility.yul\":3614:3644   */\n  gt\n    /* \"#utility.yul\":3611:3728   */\n  iszero\n  tag_96\n  jumpi\n    /* \"#utility.yul\":3647:3726   */\n  tag_97\n  tag_17\n  jump\t// in\ntag_97:\n    /* \"#utility.yul\":3611:3728   */\ntag_96:\n    /* \"#utility.yul\":3752:3826   */\n  tag_98\n    /* \"#utility.yul\":3818:3825   */\n  dup9\n    /* \"#utility.yul\":3809:3815   */\n  dup3\n    /* \"#utility.yul\":3798:3807   */\n  dup10\n    /* \"#utility.yul\":3794:3816   */\n  add\n    /* \"#utility.yul\":3752:3826   */\n  tag_31\n  jump\t// in\ntag_98:\n    /* \"#utility.yul\":3742:3826   */\n  swap5\n  pop\n    /* \"#utility.yul\":3544:3836   */\n  pop\n    /* \"#utility.yul\":3896:3898   */\n  0x40\n    /* \"#utility.yul\":3885:3894   */\n  dup7\n    /* \"#utility.yul\":3881:3899   */\n  add\n    /* \"#utility.yul\":3875:3900   */\n  mload\n    /* \"#utility.yul\":3927:3945   */\n  0xffffffffffffffff\n    /* \"#utility.yul\":3919:3925   */\n  dup2\n    /* \"#utility.yul\":3916:3946   */\n  gt\n    /* \"#utility.yul\":3913:4030   */\n  iszero\n  tag_99\n  jumpi\n    /* \"#utility.yul\":3949:4028   */\n  tag_100\n  tag_17\n  jump\t// in\ntag_100:\n    /* \"#utility.yul\":3913:4030   */\ntag_99:\n    /* \"#utility.yul\":4054:4128   */\n  tag_101\n    /* \"#utility.yul\":4120:4127   */\n  dup9\n    /* \"#utility.yul\":4111:4117   */\n  dup3\n    /* \"#utility.yul\":4100:4109   */\n  dup10\n    /* \"#utility.yul\":4096:4118   */\n  add\n    /* \"#utility.yul\":4054:4128   */\n  tag_31\n  jump\t// in\ntag_101:\n    /* \"#utility.yul\":4044:4128   */\n  swap4\n  pop\n    /* \"#utility.yul\":3846:4138   */\n  pop\n    /* \"#utility.yul\":4198:4200   */\n  0x60\n    /* \"#utility.yul\":4187:4196   */\n  dup7\n    /* \"#utility.yul\":4183:4201   */\n  add\n    /* \"#utility.yul\":4177:4202   */\n  mload\n    /* \"#utility.yul\":4229:4247   */\n  0xffffffffffffffff\n    /* \"#utility.yul\":4221:4227   */\n  dup2\n    /* \"#utility.yul\":4218:4248   */\n  gt\n    /* \"#utility.yul\":4215:4332   */\n  iszero\n  tag_102\n  jumpi\n    /* \"#utility.yul\":4251:4330   */\n  tag_103\n  tag_17\n  jump\t// in\ntag_103:\n    /* \"#utility.yul\":4215:4332   */\ntag_102:\n    /* \"#utility.yul\":4356:4430   */\n  tag_104\n    /* \"#utility.yul\":4422:4429   */\n  dup9\n    /* \"#utility.yul\":4413:4419   */\n  dup3\n    /* \"#utility.yul\":4402:4411   */\n  dup10\n    /* \"#utility.yul\":4398:4420   */\n  add\n    /* \"#utility.yul\":4356:4430   */\n  tag_31\n  jump\t// in\ntag_104:\n    /* \"#utility.yul\":4346:4430   */\n  swap3\n  pop\n    /* \"#utility.yul\":4148:4440   */\n  pop\n    /* \"#utility.yul\":4500:4503   */\n  0x80\n    /* \"#utility.yul\":4489:4498   */\n  dup7\n    /* \"#utility.yul\":4485:4504   */\n  add\n    /* \"#utility.yul\":4479:4505   */\n  mload\n    /* \"#utility.yul\":4532:4550   */\n  0xffffffffffffffff\n    /* \"#utility.yul\":4524:4530   */\n  dup2\n    /* \"#utility.yul\":4521:4551   */\n  gt\n    /* \"#utility.yul\":4518:4635   */\n  iszero\n  tag_105\n  jumpi\n    /* \"#utility.yul\":4554:4633   */\n  tag_106\n  tag_17\n  jump\t// in\ntag_106:\n    /* \"#utility.yul\":4518:4635   */\ntag_105:\n    /* \"#utility.yul\":4659:4733   */\n  tag_107\n    /* \"#utility.yul\":4725:4732   */\n  dup9\n    /* \"#utility.yul\":4716:4722   */\n  dup3\n    /* \"#utility.yul\":4705:4714   */\n  dup10\n    /* \"#utility.yul\":4701:4723   */\n  add\n    /* \"#utility.yul\":4659:4733   */\n  tag_31\n  jump\t// in\ntag_107:\n    /* \"#utility.yul\":4649:4733   */\n  swap2\n  pop\n    /* \"#utility.yul\":4450:4743   */\n  pop\n    /* \"#utility.yul\":3081:4750   */\n  swap3\n  swap6\n  pop\n  swap3\n  swap6\n  swap1\n  swap4\n  pop\n  jump\t// out\n    /* \"#utility.yul\":4756:4925   */\ntag_32:\n    /* \"#utility.yul\":4840:4851   */\n  0x00\n    /* \"#utility.yul\":4874:4880   */\n  dup3\n    /* \"#utility.yul\":4869:4872   */\n  dup3\n    /* \"#utility.yul\":4862:4881   */\n  mstore\n    /* \"#utility.yul\":4914:4918   */\n  0x20\n    /* \"#utility.yul\":4909:4912   */\n  dup3\n    /* \"#utility.yul\":4905:4919   */\n  add\n    /* \"#utility.yul\":4890:4919   */\n  swap1\n  pop\n    /* \"#utility.yul\":4756:4925   */\n  swap3\n  swap2\n  pop\n  pop\n  jump\t// out\n    /* \"#utility.yul\":4931:5109   */\ntag_33:\n    /* \"#utility.yul\":5071:5101   */\n  0x5661756c7420616464726573732063616e6e6f74206265207a65726f00000000\n    /* \"#utility.yul\":5067:5068   */\n  0x00\n    /* \"#utility.yul\":5059:5065   */\n  dup3\n    /* \"#utility.yul\":5055:5069   */\n  add\n    /* \"#utility.yul\":5048:5102   */\n  mstore\n    /* \"#utility.yul\":4931:5109   */\n  pop\n  jump\t// out\n    /* \"#utility.yul\":5115:5481   */\ntag_34:\n    /* \"#utility.yul\":5257:5260   */\n  0x00\n    /* \"#utility.yul\":5278:5345   */\n  tag_111\n    /* \"#utility.yul\":5342:5344   */\n  0x1c\n    /* \"#utility.yul\":5337:5340   */\n  dup4\n    /* \"#utility.yul\":5278:5345   */\n  tag_32\n  jump\t// in\ntag_111:\n    /* \"#utility.yul\":5271:5345   */\n  swap2\n  pop\n    /* \"#utility.yul\":5354:5447   */\n  tag_112\n    /* \"#utility.yul\":5443:5446   */\n  dup3\n    /* \"#utility.yul\":5354:5447   */\n  tag_33\n  jump\t// in\ntag_112:\n    /* \"#utility.yul\":5472:5474   */\n  0x20\n    /* \"#utility.yul\":5467:5470   */\n  dup3\n    /* \"#utility.yul\":5463:5475   */\n  add\n    /* \"#utility.yul\":5456:5475   */\n  swap1\n  pop\n    /* \"#utility.yul\":5115:5481   */\n  swap2\n  swap1\n  pop\n  jump\t// out\n    /* \"#utility.yul\":5487:5906   */\ntag_8:\n    /* \"#utility.yul\":5653:5657   */\n  0x00\n    /* \"#utility.yul\":5691:5693   */\n  0x20\n    /* \"#utility.yul\":5680:5689   */\n  dup3\n    /* \"#utility.yul\":5676:5694   */\n  add\n    /* \"#utility.yul\":5668:5694   */\n  swap1\n  pop\n    /* \"#utility.yul\":5740:5749   */\n  dup2\n    /* \"#utility.yul\":5734:5738   */\n  dup2\n    /* \"#utility.yul\":5730:5750   */\n  sub\n    /* \"#utility.yul\":5726:5727   */\n  0x00\n    /* \"#utility.yul\":5715:5724   */\n  dup4\n    /* \"#utility.yul\":5711:5728   */\n  add\n    /* \"#utility.yul\":5704:5751   */\n  mstore\n    /* \"#utility.yul\":5768:5899   */\n  tag_114\n    /* \"#utility.yul\":5894:5898   */\n  dup2\n    /* \"#utility.yul\":5768:5899   */\n  tag_34\n  jump\t// in\ntag_114:\n    /* \"#utility.yul\":5760:5899   */\n  swap1\n  pop\n    /* \"#utility.yul\":5487:5906   */\n  swap2\n  swap1\n  pop\n  jump\t// out\n    /* \"#utility.yul\":5912:6011   */\ntag_35:\n    /* \"#utility.yul\":5964:5970   */\n  0x00\n    /* \"#utility.yul\":5998:6003   */\n  dup2\n    /* \"#utility.yul\":5992:6004   */\n  mload\n    /* \"#utility.yul\":5982:6004   */\n  swap1\n  pop\n    /* \"#utility.yul\":5912:6011   */\n  swap2\n  swap1\n  pop\n  jump\t// out\n    /* \"#utility.yul\":6017:6197   */\ntag_36:\n    /* \"#utility.yul\":6065:6142   */\n  0x4e487b7100000000000000000000000000000000000000000000000000000000\n    /* \"#utility.yul\":6062:6063   */\n  0x00\n    /* \"#utility.yul\":6055:6143   */\n  mstore\n    /* \"#utility.yul\":6162:6166   */\n  0x22\n    /* \"#utility.yul\":6159:6160   */\n  0x04\n    /* \"#utility.yul\":6152:6167   */\n  mstore\n    /* \"#utility.yul\":6186:6190   */\n  0x24\n    /* \"#utility.yul\":6183:6184   */\n  0x00\n    /* \"#utility.yul\":6176:6191   */\n  revert\n    /* \"#utility.yul\":6203:6523   */\ntag_37:\n    /* \"#utility.yul\":6247:6253   */\n  0x00\n    /* \"#utility.yul\":6284:6285   */\n  0x02\n    /* \"#utility.yul\":6278:6282   */\n  dup3\n    /* \"#utility.yul\":6274:6286   */\n  div\n    /* \"#utility.yul\":6264:6286   */\n  swap1\n  pop\n    /* \"#utility.yul\":6331:6332   */\n  0x01\n    /* \"#utility.yul\":6325:6329   */\n  dup3\n    /* \"#utility.yul\":6321:6333   */\n  and\n    /* \"#utility.yul\":6352:6370   */\n  dup1\n    /* \"#utility.yul\":6342:6423   */\n  tag_118\n  jumpi\n    /* \"#utility.yul\":6408:6412   */\n  0x7f\n    /* \"#utility.yul\":6400:6406   */\n  dup3\n    /* \"#utility.yul\":6396:6413   */\n  and\n    /* \"#utility.yul\":6386:6413   */\n  swap2\n  pop\n    /* \"#utility.yul\":6342:6423   */\ntag_118:\n    /* \"#utility.yul\":6470:6472   */\n  0x20\n    /* \"#utility.yul\":6462:6468   */\n  dup3\n    /* \"#utility.yul\":6459:6473   */\n  lt\n    /* \"#utility.yul\":6439:6457   */\n  dup2\n    /* \"#utility.yul\":6436:6474   */\n  sub\n    /* \"#utility.yul\":6433:6517   */\n  tag_119\n  jumpi\n    /* \"#utility.yul\":6489:6507   */\n  tag_120\n  tag_36\n  jump\t// in\ntag_120:\n    /* \"#utility.yul\":6433:6517   */\ntag_119:\n    /* \"#utility.yul\":6254:6523   */\n  pop\n    /* \"#utility.yul\":6203:6523   */\n  swap2\n  swap1\n  pop\n  jump\t// out\n    /* \"#utility.yul\":6529:6670   */\ntag_38:\n    /* \"#utility.yul\":6578:6582   */\n  0x00\n    /* \"#utility.yul\":6601:6604   */\n  dup2\n    /* \"#utility.yul\":6593:6604   */\n  swap1\n  pop\n    /* \"#utility.yul\":6624:6627   */\n  dup2\n    /* \"#utility.yul\":6621:6622   */\n  0x00\n    /* \"#utility.yul\":6614:6628   */\n  mstore\n    /* \"#utility.yul\":6658:6662   */\n  0x20\n    /* \"#utility.yul\":6655:6656   */\n  0x00\n    /* \"#utility.yul\":6645:6663   */\n  keccak256\n    /* \"#utility.yul\":6637:6663   */\n  swap1\n  pop\n    /* \"#utility.yul\":6529:6670   */\n  swap2\n  swap1\n  pop\n  jump\t// out\n    /* \"#utility.yul\":6676:6769   */\ntag_39:\n    /* \"#utility.yul\":6713:6719   */\n  0x00\n    /* \"#utility.yul\":6760:6762   */\n  0x20\n    /* \"#utility.yul\":6755:6757   */\n  0x1f\n    /* \"#utility.yul\":6748:6753   */\n  dup4\n    /* \"#utility.yul\":6744:6758   */\n  add\n    /* \"#utility.yul\":6740:6763   */\n  div\n    /* \"#utility.yul\":6730:6763   */\n  swap1\n  pop\n    /* \"#utility.yul\":6676:6769   */\n  swap2\n  swap1\n  pop\n  jump\t// out\n    /* \"#utility.yul\":6775:6882   */\ntag_40:\n    /* \"#utility.yul\":6819:6827   */\n  0x00\n    /* \"#utility.yul\":6869:6874   */\n  dup3\n    /* \"#utility.yul\":6863:6867   */\n  dup3\n    /* \"#utility.yul\":6859:6875   */\n  shl\n    /* \"#utility.yul\":6838:6875   */\n  swap1\n  pop\n    /* \"#utility.yul\":6775:6882   */\n  swap3\n  swap2\n  pop\n  pop\n  jump\t// out\n    /* \"#utility.yul\":6888:7281   */\ntag_41:\n    /* \"#utility.yul\":6957:6963   */\n  0x00\n    /* \"#utility.yul\":7007:7008   */\n  0x08\n    /* \"#utility.yul\":6995:7005   */\n  dup4\n    /* \"#utility.yul\":6991:7009   */\n  mul\n    /* \"#utility.yul\":7030:7127   */\n  tag_125\n    /* \"#utility.yul\":7060:7126   */\n  0xffffffffffffffffffffffffffffffffffffffffffffffffffffffffffffffff\n    /* \"#utility.yul\":7049:7058   */\n  dup3\n    /* \"#utility.yul\":7030:7127   */\n  tag_40\n  jump\t// in\ntag_125:\n    /* \"#utility.yul\":7148:7187   */\n  tag_126\n    /* \"#utility.yul\":7178:7186   */\n  dup7\n    /* \"#utility.yul\":7167:7176   */\n  dup4\n    /* \"#utility.yul\":7148:7187   */\n  tag_40\n  jump\t// in\ntag_126:\n    /* \"#utility.yul\":7136:7187   */\n  swap6\n  pop\n    /* \"#utility.yul\":7220:7224   */\n  dup1\n    /* \"#utility.yul\":7216:7225   */\n  not\n    /* \"#utility.yul\":7209:7214   */\n  dup5\n    /* \"#utility.yul\":7205:7226   */\n  and\n    /* \"#utility.yul\":7196:7226   */\n  swap4\n  pop\n    /* \"#utility.yul\":7269:7273   */\n  dup1\n    /* \"#utility.yul\":7259:7267   */\n  dup7\n    /* \"#utility.yul\":7255:7274   */\n  and\n    /* \"#utility.yul\":7248:7253   */\n  dup5\n    /* \"#utility.yul\":7245:7275   */\n  or\n    /* \"#utility.yul\":7235:7275   */\n  swap3\n  pop\n    /* \"#utility.yul\":6964:7281   */\n  pop\n  pop\n    /* \"#utility.yul\":6888:7281   */\n  swap4\n  swap3\n  pop\n  pop\n  pop\n  jump\t// out\n    /* \"#utility.yul\":7287:7364   */\ntag_42:\n    /* \"#utility.yul\":7324:7331   */\n  0x00\n    /* \"#utility.yul\":7353:7358   */\n  dup2\n    /* \"#utility.yul\":7342:7358   */\n  swap1\n  pop\n    /* \"#utility.yul\":7287:7364   */\n  swap2\n  swap1\n  pop\n  jump\t// out\n    /* \"#utility.yul\":7370:7430   */\ntag_43:\n    /* \"#utility.yul\":7398:7401   */\n  0x00\n    /* \"#utility.yul\":7419:7424   */\n  dup2\n    /* \"#utility.yul\":7412:7424   */\n  swap1\n  pop\n    /* \"#utility.yul\":7370:7430   */\n  swap2\n  swap1\n  pop\n  jump\t// out\n    /* \"#utility.yul\":7436:7578   */\ntag_44:\n    /* \"#utility.yul\":7486:7495   */\n  0x00\n    /* \"#utility.yul\":7519:7572   */\n  tag_130\n    /* \"#utility.yul\":7537:7571   */\n  tag_131\n    /* \"#utility.yul\":7546:7570   */\n  tag_132\n    /* \"#utility.yul\":7564:7569   */\n  dup5\n    /* \"#utility.yul\":7546:7570   */\n  tag_42\n  jump\t// in\ntag_132:\n    /* \"#utility.yul\":7537:7571   */\n  tag_43\n  jump\t// in\ntag_131:\n    /* \"#utility.yul\":7519:7572   */\n  tag_42\n  jump\t// in\ntag_130:\n    /* \"#utility.yul\":7506:7572   */\n  swap1\n  pop\n    /* \"#utility.yul\":7436:7578   */\n  swap2\n  swap1\n  pop\n  jump\t// out\n    /* \"#utility.yul\":7584:7659   */\ntag_45:\n    /* \"#utility.yul\":7627:7630   */\n  0x00\n    /* \"#utility.yul\":7648:7653   */\n  dup2\n    /* \"#utility.yul\":7641:7653   */\n  swap1\n  pop\n    /* \"#utility.yul\":7584:7659   */\n  swap2\n  swap1\n  pop\n  jump\t// out\n    /* \"#utility.yul\":7665:7934   */\ntag_46:\n    /* \"#utility.yul\":7775:7814   */\n  tag_135\n    /* \"#utility.yul\":7806:7813   */\n  dup4\n    /* \"#utility.yul\":7775:7814   */\n  tag_44\n  jump\t// in\ntag_135:\n    /* \"#utility.yul\":7836:7927   */\n  tag_136\n    /* \"#utility.yul\":7885:7926   */\n  tag_137\n    /* \"#utility.yul\":7909:7925   */\n  dup3\n    /* \"#utility.yul\":7885:7926   */\n  tag_45\n  jump\t// in\ntag_137:\n    /* \"#utility.yul\":7877:7883   */\n  dup5\n    /* \"#utility.yul\":7870:7874   */\n  dup5\n    /* \"#utility.yul\":7864:7875   */\n  sload\n    /* \"#utility.yul\":7836:7927   */\n  tag_41\n  jump\t// in\ntag_136:\n    /* \"#utility.yul\":7830:7834   */\n  dup3\n    /* \"#utility.yul\":7823:7928   */\n  sstore\n    /* \"#utility.yul\":7741:7934   */\n  pop\n    /* \"#utility.yul\":7665:7934   */\n  pop\n  pop\n  pop\n  jump\t// out\n    /* \"#utility.yul\":7940:8013   */\ntag_47:\n    /* \"#utility.yul\":7985:7988   */\n  0x00\n    /* \"#utility.yul\":8006:8007   */\n  0x00\n    /* \"#utility.yul\":7999:8007   */\n  swap1\n  pop\n    /* \"#utility.yul\":7940:8013   */\n  swap1\n  jump\t// out\n    /* \"#utility.yul\":8019:8208   */\ntag_48:\n    /* \"#utility.yul\":8096:8128   */\n  tag_140\n  tag_47\n  jump\t// in\ntag_140:\n    /* \"#utility.yul\":8137:8202   */\n  tag_141\n    /* \"#utility.yul\":8195:8201   */\n  dup2\n    /* \"#utility.yul\":8187:8193   */\n  dup5\n    /* \"#utility.yul\":8181:8185   */\n  dup5\n    /* \"#utility.yul\":8137:8202   */\n  tag_46\n  jump\t// in\ntag_141:\n    /* \"#utility.yul\":8072:8208   */\n  pop\n    /* \"#utility.yul\":8019:8208   */\n  pop\n  pop\n  jump\t// out\n    /* \"#utility.yul\":8214:8400   */\ntag_49:\n    /* \"#utility.yul\":8274:8394   */\ntag_143:\n    /* \"#utility.yul\":8291:8294   */\n  dup2\n    /* \"#utility.yul\":8284:8289   */\n  dup2\n    /* \"#utility.yul\":8281:8295   */\n  lt\n    /* \"#utility.yul\":8274:8394   */\n  iszero\n  tag_145\n  jumpi\n    /* \"#utility.yul\":8345:8384   */\n  tag_146\n    /* \"#utility.yul\":8382:8383   */\n  0x00\n    /* \"#utility.yul\":8375:8380   */\n  dup3\n    /* \"#utility.yul\":8345:8384   */\n  tag_48\n  jump\t// in\ntag_146:\n    /* \"#utility.yul\":8318:8319   */\n  0x01\n    /* \"#utility.yul\":8311:8316   */\n  dup2\n    /* \"#utility.yul\":8307:8320   */\n  add\n    /* \"#utility.yul\":8298:8320   */\n  swap1\n  pop\n    /* \"#utility.yul\":8274:8394   */\n  jump(tag_143)\ntag_145:\n    /* \"#utility.yul\":8214:8400   */\n  pop\n  pop\n  jump\t// out\n    /* \"#utility.yul\":8406:8949   */\ntag_50:\n    /* \"#utility.yul\":8507:8509   */\n  0x1f\n    /* \"#utility.yul\":8502:8505   */\n  dup3\n    /* \"#utility.yul\":8499:8510   */\n  gt\n    /* \"#utility.yul\":8496:8942   */\n  iszero\n  tag_148\n  jumpi\n    /* \"#utility.yul\":8541:8579   */\n  tag_149\n    /* \"#utility.yul\":8573:8578   */\n  dup2\n    /* \"#utility.yul\":8541:8579   */\n  tag_38\n  jump\t// in\ntag_149:\n    /* \"#utility.yul\":8625:8654   */\n  tag_150\n    /* \"#utility.yul\":8643:8653   */\n  dup5\n    /* \"#utility.yul\":8625:8654   */\n  tag_39\n  jump\t// in\ntag_150:\n    /* \"#utility.yul\":8615:8623   */\n  dup2\n    /* \"#utility.yul\":8611:8655   */\n  add\n    /* \"#utility.yul\":8808:8810   */\n  0x20\n    /* \"#utility.yul\":8796:8806   */\n  dup6\n    /* \"#utility.yul\":8793:8811   */\n  lt\n    /* \"#utility.yul\":8790:8839   */\n  iszero\n  tag_151\n  jumpi\n    /* \"#utility.yul\":8829:8837   */\n  dup2\n    /* \"#utility.yul\":8814:8837   */\n  swap1\n  pop\n    /* \"#utility.yul\":8790:8839   */\ntag_151:\n    /* \"#utility.yul\":8852:8932   */\n  tag_152\n    /* \"#utility.yul\":8908:8930   */\n  tag_153\n    /* \"#utility.yul\":8926:8929   */\n  dup6\n    /* \"#utility.yul\":8908:8930   */\n  tag_39\n  jump\t// in\ntag_153:\n    /* \"#utility.yul\":8898:8906   */\n  dup4\n    /* \"#utility.yul\":8894:8931   */\n  add\n    /* \"#utility.yul\":8881:8892   */\n  dup3\n    /* \"#utility.yul\":8852:8932   */\n  tag_49\n  jump\t// in\ntag_152:\n    /* \"#utility.yul\":8511:8942   */\n  pop\n  pop\n    /* \"#utility.yul\":8496:8942   */\ntag_148:\n    /* \"#utility.yul\":8406:8949   */\n  pop\n  pop\n  pop\n  jump\t// out\n    /* \"#utility.yul\":8955:9072   */\ntag_51:\n    /* \"#utility.yul\":9009:9017   */\n  0x00\n    /* \"#utility.yul\":9059:9064   */\n  dup3\n    /* \"#utility.yul\":9053:9057   */\n  dup3\n    /* \"#utility.yul\":9049:9065   */\n  shr\n    /* \"#utility.yul\":9028:9065   */\n  swap1\n  pop\n    /* \"#utility.yul\":8955:9072   */\n  swap3\n  swap2\n  pop\n  pop\n  jump\t// out\n    /* \"#utility.yul\":9078:9247   */\ntag_52:\n    /* \"#utility.yul\":9122:9128   */\n  0x00\n    /* \"#utility.yul\":9155:9206   */\n  tag_156\n    /* \"#utility.yul\":9203:9204   */\n  0x00\n    /* \"#utility.yul\":9199:9205   */\n  not\n    /* \"#utility.yul\":9191:9196   */\n  dup5\n    /* \"#utility.yul\":9188:9189   */\n  0x08\n    /* \"#utility.yul\":9184:9197   */\n  mul\n    /* \"#utility.yul\":9155:9206   */\n  tag_51\n  jump\t// in\ntag_156:\n    /* \"#utility.yul\":9151:9207   */\n  not\n    /* \"#utility.yul\":9236:9240   */\n  dup1\n    /* \"#utility.yul\":9230:9234   */\n  dup4\n    /* \"#utility.yul\":9226:9241   */\n  and\n    /* \"#utility.yul\":9216:9241   */\n  swap2\n  pop\n    /* \"#utility.yul\":9129:9247   */\n  pop\n    /* \"#utility.yul\":9078:9247   */\n  swap3\n  swap2\n  pop\n  pop\n  jump\t// out\n    /* \"#utility.yul\":9252:9547   */\ntag_53:\n    /* \"#utility.yul\":9328:9332   */\n  0x00\n    /* \"#utility.yul\":9474:9503   */\n  tag_158\n    /* \"#utility.yul\":9499:9502   */\n  dup4\n    /* \"#utility.yul\":9493:9497   */\n  dup4\n    /* \"#utility.yul\":9474:9503   */\n  tag_52\n  jump\t// in\ntag_158:\n    /* \"#utility.yul\":9466:9503   */\n  swap2\n  pop\n    /* \"#utility.yul\":9536:9539   */\n  dup3\n    /* \"#utility.yul\":9533:9534   */\n  0x02\n    /* \"#utility.yul\":9529:9540   */\n  mul\n    /* \"#utility.yul\":9523:9527   */\n  dup3\n    /* \"#utility.yul\":9520:9541   */\n  or\n    /* \"#utility.yul\":9512:9541   */\n  swap1\n  pop\n    /* \"#utility.yul\":9252:9547   */\n  swap3\n  swap2\n  pop\n  pop\n  jump\t// out\n    /* \"#utility.yul\":9552:10947   */\ntag_10:\n    /* \"#utility.yul\":9669:9706   */\n  tag_160\n    /* \"#utility.yul\":9702:9705   */\n  dup3\n    /* \"#utility.yul\":9669:9706   */\n  tag_35\n  jump\t// in\ntag_160:\n    /* \"#utility.yul\":9771:9789   */\n  0xffffffffffffffff\n    /* \"#utility.yul\":9763:9769   */\n  dup2\n    /* \"#utility.yul\":9760:9790   */\n  gt\n    /* \"#utility.yul\":9757:9813   */\n  iszero\n  tag_161\n  jumpi\n    /* \"#utility.yul\":9793:9811   */\n  tag_162\n  tag_25\n  jump\t// in\ntag_162:\n    /* \"#utility.yul\":9757:9813   */\ntag_161:\n    /* \"#utility.yul\":9837:9875   */\n  tag_163\n    /* \"#utility.yul\":9869:9873   */\n  dup3\n    /* \"#utility.yul\":9863:9874   */\n  sload\n    /* \"#utility.yul\":9837:9875   */\n  tag_37\n  jump\t// in\ntag_163:\n    /* \"#utility.yul\":9922:9989   */\n  tag_164\n    /* \"#utility.yul\":9982:9988   */\n  dup3\n    /* \"#utility.yul\":9974:9980   */\n  dup3\n    /* \"#utility.yul\":9968:9972   */\n  dup6\n    /* \"#utility.yul\":9922:9989   */\n  tag_50\n  jump\t// in\ntag_164:\n    /* \"#utility.yul\":10016:10017   */\n  0x00\n    /* \"#utility.yul\":10040:10044   */\n  0x20\n    /* \"#utility.yul\":10027:10044   */\n  swap1\n  pop\n    /* \"#utility.yul\":10072:10074   */\n  0x1f\n    /* \"#utility.yul\":10064:10070   */\n  dup4\n    /* \"#utility.yul\":10061:10075   */\n  gt\n    /* \"#utility.yul\":10089:10090   */\n  0x01\n    /* \"#utility.yul\":10084:10702   */\n  dup2\n  eq\n  tag_166\n  jumpi\n    /* \"#utility.yul\":10746:10747   */\n  0x00\n    /* \"#utility.yul\":10763:10769   */\n  dup5\n    /* \"#utility.yul\":10760:10837   */\n  iszero\n  tag_167\n  jumpi\n    /* \"#utility.yul\":10812:10821   */\n  dup3\n    /* \"#utility.yul\":10807:10810   */\n  dup8\n    /* \"#utility.yul\":10803:10822   */\n  add\n    /* \"#utility.yul\":10797:10823   */\n  mload\n    /* \"#utility.yul\":10788:10823   */\n  swap1\n  pop\n    /* \"#utility.yul\":10760:10837   */\ntag_167:\n    /* \"#utility.yul\":10863:10930   */\n  tag_168\n    /* \"#utility.yul\":10923:10929   */\n  dup6\n    /* \"#utility.yul\":10916:10921   */\n  dup3\n    /* \"#utility.yul\":10863:10930   */\n  tag_53\n  jump\t// in\ntag_168:\n    /* \"#utility.yul\":10857:10861   */\n  dup7\n    /* \"#utility.yul\":10850:10931   */\n  sstore\n    /* \"#utility.yul\":10719:10941   */\n  pop\n    /* \"#utility.yul\":10054:10941   */\n  jump(tag_165)\n    /* \"#utility.yul\":10084:10702   */\ntag_166:\n    /* \"#utility.yul\":10136:10140   */\n  0x1f\n    /* \"#utility.yul\":10132:10141   */\n  not\n    /* \"#utility.yul\":10124:10130   */\n  dup5\n    /* \"#utility.yul\":10120:10142   */\n  and\n    /* \"#utility.yul\":10170:10207   */\n  tag_169\n    /* \"#utility.yul\":10202:10206   */\n  dup7\n    /* \"#utility.yul\":10170:10207   */\n  tag_38\n  jump\t// in\ntag_169:\n    /* \"#utility.yul\":10229:10230   */\n  0x00\n    /* \"#utility.yul\":10243:10451   */\ntag_170:\n    /* \"#utility.yul\":10257:10264   */\n  dup3\n    /* \"#utility.yul\":10254:10255   */\n  dup2\n    /* \"#utility.yul\":10251:10265   */\n  lt\n    /* \"#utility.yul\":10243:10451   */\n  iszero\n  tag_172\n  jumpi\n    /* \"#utility.yul\":10336:10345   */\n  dup5\n    /* \"#utility.yul\":10331:10334   */\n  dup10\n    /* \"#utility.yul\":10327:10346   */\n  add\n    /* \"#utility.yul\":10321:10347   */\n  mload\n    /* \"#utility.yul\":10313:10319   */\n  dup3\n    /* \"#utility.yul\":10306:10348   */\n  sstore\n    /* \"#utility.yul\":10387:10388   */\n  0x01\n    /* \"#utility.yul\":10379:10385   */\n  dup3\n    /* \"#utility.yul\":10375:10389   */\n  add\n    /* \"#utility.yul\":10365:10389   */\n  swap2\n  pop\n    /* \"#utility.yul\":10434:10436   */\n  0x20\n    /* \"#utility.yul\":10423:10432   */\n  dup6\n    /* \"#utility.yul\":10419:10437   */\n  add\n    /* \"#utility.yul\":10406:10437   */\n  swap5\n  pop\n    /* \"#utility.yul\":10280:10284   */\n  0x20\n    /* \"#utility.yul\":10277:10278   */\n  dup2\n    /* \"#utility.yul\":10273:10285   */\n  add\n    /* \"#utility.yul\":10268:10285   */\n  swap1\n  pop\n    /* \"#utility.yul\":10243:10451   */\n  jump(tag_170)\ntag_172:\n    /* \"#utility.yul\":10479:10485   */\n  dup7\n    /* \"#utility.yul\":10470:10477   */\n  dup4\n    /* \"#utility.yul\":10467:10486   */\n  lt\n    /* \"#utility.yul\":10464:10643   */\n  iszero\n  tag_173\n  jumpi\n    /* \"#utility.yul\":10537:10546   */\n  dup5\n    /* \"#utility.yul\":10532:10535   */\n  dup10\n    /* \"#utility.yul\":10528:10547   */\n  add\n    /* \"#utility.yul\":10522:10548   */\n  mload\n    /* \"#utility.yul\":10580:10628   */\n  tag_174\n    /* \"#utility.yul\":10622:10626   */\n  0x1f\n    /* \"#utility.yul\":10614:10620   */\n  dup10\n    /* \"#utility.yul\":10610:10627   */\n  and\n    /* \"#utility.yul\":10599:10608   */\n  dup3\n    /* \"#utility.yul\":10580:10628   */\n  tag_52\n  jump\t// in\ntag_174:\n    /* \"#utility.yul\":10572:10578   */\n  dup4\n    /* \"#utility.yul\":10565:10629   */\n  sstore\n    /* \"#utility.yul\":10487:10643   */\n  pop\n    /* \"#utility.yul\":10464:10643   */\ntag_173:\n    /* \"#utility.yul\":10689:10690   */\n  0x01\n    /* \"#utility.yul\":10685:10686   */\n  0x02\n    /* \"#utility.yul\":10677:10683   */\n  dup9\n    /* \"#utility.yul\":10673:10687   */\n  mul\n    /* \"#utility.yul\":10669:10691   */\n  add\n    /* \"#utility.yul\":10663:10667   */\n  dup9\n    /* \"#utility.yul\":10656:10692   */\n  sstore\n    /* \"#utility.yul\":10091:10702   */\n  pop\n  pop\n  pop\n    /* \"#utility.yul\":10054:10941   */\ntag_165:\n  pop\n    /* \"#utility.yul\":9644:10947   */\n  pop\n  pop\n  pop\n    /* \"#utility.yul\":9552:10947   */\n  pop\n  pop\n  jump\t// out\n    /* \"contracts/Cooperative.sol\":58:2162  contract Cooperative {... */\ntag_14:\n  dataSize(sub_0)\n  dup1\n  dataOffset(sub_0)\n  0x00\n  codecopy\n  0x00\n  return\nstop\n\nsub_0: assembly {\n        /* \"contracts/Cooperative.sol\":58:2162  contract Cooperative {... */\n      mstore(0x40, 0x80)\n      jumpi(tag_1, lt(calldatasize, 0x04))\n      shr(0xe0, calldataload(0x00))\n      dup1\n      0x73dedacb\n      gt\n      tag_12\n      jumpi\n      dup1\n      0x73dedacb\n      eq\n      tag_7\n      jumpi\n      dup1\n      0x7e79e8ba\n      eq\n      tag_8\n      jumpi\n      dup1\n      0x893d20e8\n      eq\n      tag_9\n      jumpi\n      dup1\n      0xa26e1186\n      eq\n      tag_10\n      jumpi\n      dup1\n      0xc802f1b4\n      eq\n      tag_11\n      jumpi\n      jump(tag_2)\n    tag_12:\n      dup1\n      0x17d7de7c\n      eq\n      tag_3\n      jumpi\n      dup1\n      0x2e1a7d4d\n      eq\n      tag_4\n      jumpi\n      dup1\n      0x65cacaa4\n      eq\n      tag_5\n      jumpi\n      dup1\n      0x6f9fb98a\n      eq\n      tag_6\n      jumpi\n      jump(tag_2)\n    tag_1:\n      jumpi(tag_2, calldatasize)\n      stop\n    tag_2:\n      revert(0x00, 0x00)\n        /* \"contracts/Cooperative.sol\":1495:1581  function getName() external view returns (string memory) {... */\n    tag_3:\n      callvalue\n      dup1\n      iszero\n      tag_15\n      jumpi\n      revert(0x00, 0x00)\n    tag_15:\n      pop\n      tag_16\n      tag_17\n      jump\t// in\n    tag_16:\n      mload(0x40)\n      tag_18\n      swap2\n      swap1\n      tag_19\n      jump\t// in\n    tag_18:\n      mload(0x40)\n      dup1\n      swap2\n      sub\n      swap1\n      return\n        /* \"contracts/Cooperative.sol\":1139:1465  function withdraw(uint256 amount) external onlyOwner {... */\n    tag_4:\n      callvalue\n      dup1\n      iszero\n      tag_20\n      jumpi\n      revert(0x00, 0x00)\n    tag_20:\n      pop\n      tag_21\n      0x04\n      dup1\n      calldatasize\n      sub\n      dup2\n      add\n      swap1\n      tag_22\n      swap2\n      swap1\n      tag_23\n      jump\t// in\n    tag_22:\n      tag_24\n      jump\t// in\n    tag_21:\n      stop\n        /* \"contracts/Cooperative.sol\":1863:1959  function getVaultAddress() external view returns (address) {... */\n    tag_5:\n      callvalue\n      dup1\n      iszero\n      tag_25\n      jumpi\n      revert(0x00, 0x00)\n    tag_25:\n      pop\n      tag_26\n      tag_27\n      jump\t// in\n    tag_26:\n      mload(0x40)\n      tag_28\n      swap2\n      swap1\n      tag_29\n      jump\t// in\n    tag_28:\n      mload(0x40)\n      dup1\n      swap2\n      sub\n      swap1\n      return\n        /* \"contracts/Cooperative.sol\":2053:2160  function getContractBalance() external view returns (uint256) {... */\n    tag_6:\n      callvalue\n      dup1\n      iszero\n      tag_30\n      jumpi\n      revert(0x00, 0x00)\n    tag_30:\n      pop\n      tag_31\n      tag_32\n      jump\t// in\n    tag_31:\n      mload(0x40)\n      tag_33\n      swap2\n      swap1\n      tag_34\n      jump\t// in\n    tag_33:\n      mload(0x40)\n      dup1\n      swap2\n      sub\n      swap1\n      return\n        /* \"contracts/Cooperative.sol\":1679:1763  function getCPF() external view returns (string memory) {... */\n    tag_7:\n      callvalue\n      dup1\n      iszero\n      tag_35\n      jumpi\n      revert(0x00, 0x00)\n    tag_35:\n      pop\n      tag_36\n      tag_37\n      jump\t// in\n    tag_36:\n      mload(0x40)\n      tag_38\n      swap2\n      swap1\n      tag_19\n      jump\t// in\n    tag_38:\n      mload(0x40)\n      dup1\n      swap2\n      sub\n      swap1\n      return\n        /* \"contracts/Cooperative.sol\":1769:1857  function getEmail() external view returns (string memory) {... */\n    tag_8:\n      callvalue\n      dup1\n      iszero\n      tag_39\n      jumpi\n      revert(0x00, 0x00)\n    tag_39:\n      pop\n      tag_40\n      tag_41\n      jump\t// in\n    tag_40:\n      mload(0x40)\n      tag_42\n      swap2\n      swap1\n      tag_19\n      jump\t// in\n    tag_42:\n      mload(0x40)\n      dup1\n      swap2\n      sub\n      swap1\n      return\n        /* \"contracts/Cooperative.sol\":1965:2047  function getOwner() external view returns (address) {... */\n    tag_9:\n      callvalue\n      dup1\n      iszero\n      tag_43\n      jumpi\n      revert(0x00, 0x00)\n    tag_43:\n      pop\n      tag_44\n      tag_45\n      jump\t// in\n    tag_44:\n      mload(0x40)\n      tag_46\n      swap2\n      swap1\n      tag_29\n      jump\t// in\n    tag_46:\n      mload(0x40)\n      dup1\n      swap2\n      sub\n      swap1\n      return\n        /* \"contracts/Cooperative.sol\":942:1133  function deposit(string calldata message) external payable onlyOwner {... */\n    tag_10:\n      tag_47\n      0x04\n      dup1\n      calldatasize\n      sub\n      dup2\n      add\n      swap1\n      tag_48\n      swap2\n      swap1\n      tag_49\n      jump\t// in\n    tag_48:\n      tag_50\n      jump\t// in\n    tag_47:\n      stop\n        /* \"contracts/Cooperative.sol\":1587:1673  function getCNPJ() external view returns (string memory) {... */\n    tag_11:\n      callvalue\n      dup1\n      iszero\n      tag_51\n      jumpi\n      revert(0x00, 0x00)\n    tag_51:\n      pop\n      tag_52\n      tag_53\n      jump\t// in\n    tag_52:\n      mload(0x40)\n      tag_54\n      swap2\n      swap1\n      tag_19\n      jump\t// in\n    tag_54:\n      mload(0x40)\n      dup1\n      swap2\n      sub\n      swap1\n      return\n        /* \"contracts/Cooperative.sol\":1495:1581  function getName() external view returns (string memory) {... */\n    tag_17:\n        /* \"contracts/Cooperative.sol\":1537:1550  string memory */\n      0x60\n        /* \"contracts/Cooperative.sol\":1569:1574  _name */\n      0x00\n        /* \"contracts/Cooperative.sol\":1562:1574  return _name */\n      dup1\n      sload\n      tag_56\n      swap1\n      tag_57\n      jump\t// in\n    tag_56:\n      dup1\n      0x1f\n      add\n      0x20\n      dup1\n      swap2\n      div\n      mul\n      0x20\n      add\n      mload(0x40)\n      swap1\n      dup2\n      add\n      0x40\n      mstore\n      dup1\n      swap3\n      swap2\n      swap1\n      dup2\n      dup2\n      mstore\n      0x20\n      add\n      dup3\n      dup1\n      sload\n      tag_58\n      swap1\n      tag_57\n      jump\t// in\n    tag_58:\n      dup1\n      iszero\n      tag_59\n      jumpi\n      dup1\n      0x1f\n      lt\n      tag_60\n      jumpi\n      0x0100\n      dup1\n      dup4\n      sload\n      div\n      mul\n      dup4\n      mstore\n      swap2\n      0x20\n      add\n      swap2\n      jump(tag_59)\n    tag_60:\n      dup3\n      add\n      swap2\n      swap1\n      0x00\n      mstore\n      keccak256(0x00, 0x20)\n      swap1\n    tag_61:\n      dup2\n      sload\n      dup2\n      mstore\n      swap1\n      0x01\n      add\n      swap1\n      0x20\n      add\n      dup1\n      dup4\n      gt\n      tag_61\n      jumpi\n      dup3\n      swap1\n      sub\n      0x1f\n      and\n      dup3\n      add\n      swap2\n    tag_59:\n      pop\n      pop\n      pop\n      pop\n      pop\n      swap1\n      pop\n        /* \"contracts/Cooperative.sol\":1495:1581  function getName() external view returns (string memory) {... */\n      swap1\n      jump\t// out\n        /* \"contracts/Cooperative.sol\":1139:1465  function withdraw(uint256 amount) external onlyOwner {... */\n    tag_24:\n        /* \"contracts/Cooperative.sol\":849:855  _owner */\n      0x05\n      0x00\n      swap1\n      sload\n      swap1\n      0x0100\n      exp\n      swap1\n      div\n      0xffffffffffffffffffffffffffffffffffffffff\n      and\n        /* \"contracts/Cooperative.sol\":835:855  msg.sender == _owner */\n      0xffffffffffffffffffffffffffffffffffffffff\n      and\n        /* \"contracts/Cooperative.sol\":835:845  msg.sender */\n      caller\n        /* \"contracts/Cooperative.sol\":835:855  msg.sender == _owner */\n      0xffffffffffffffffffffffffffffffffffffffff\n      and\n      eq\n        /* \"contracts/Cooperative.sol\":827:883  require(msg.sender == _owner, \"Caller is not the owner\") */\n      tag_63\n      jumpi\n      mload(0x40)\n      0x08c379a000000000000000000000000000000000000000000000000000000000\n      dup2\n      mstore\n      0x04\n      add\n      tag_64\n      swap1\n      tag_65\n      jump\t// in\n    tag_64:\n      mload(0x40)\n      dup1\n      swap2\n      sub\n      swap1\n      revert\n    tag_63:\n        /* \"contracts/Cooperative.sol\":1220:1241  address(this).balance */\n      selfbalance\n        /* \"contracts/Cooperative.sol\":1210:1216  amount */\n      dup2\n        /* \"contracts/Cooperative.sol\":1210:1241  amount <= address(this).balance */\n      gt\n      iszero\n        /* \"contracts/Cooperative.sol\":1202:1275  require(amount <= address(this).balance, \"Insufficient contract balance\") */\n      tag_67\n      jumpi\n      mload(0x40)\n      0x08c379a000000000000000000000000000000000000000000000000000000000\n      dup2\n      mstore\n      0x04\n      add\n      tag_68\n      swap1\n      tag_69\n      jump\t// in\n    tag_68:\n      mload(0x40)\n      dup1\n      swap2\n      sub\n      swap1\n      revert\n    tag_67:\n        /* \"contracts/Cooperative.sol\":1287:1299  bool success */\n      0x00\n        /* \"contracts/Cooperative.sol\":1313:1326  _vaultAddress */\n      0x04\n      0x00\n      swap1\n      sload\n      swap1\n      0x0100\n      exp\n      swap1\n      div\n      0xffffffffffffffffffffffffffffffffffffffff\n      and\n        /* \"contracts/Cooperative.sol\":1305:1332  payable(_vaultAddress).call */\n      0xffffffffffffffffffffffffffffffffffffffff\n      and\n        /* \"contracts/Cooperative.sol\":1340:1346  amount */\n      dup3\n        /* \"contracts/Cooperative.sol\":1305:1351  payable(_vaultAddress).call{value: amount}(\"\") */\n      mload(0x40)\n      tag_70\n      swap1\n      tag_71\n      jump\t// in\n    tag_70:\n      0x00\n      mload(0x40)\n      dup1\n      dup4\n      sub\n      dup2\n      dup6\n      dup8\n      gas\n      call\n      swap3\n      pop\n      pop\n      pop\n      returndatasize\n      dup1\n      0x00\n      dup2\n      eq\n      tag_74\n      jumpi\n      mload(0x40)\n      swap2\n      pop\n      and(add(returndatasize, 0x3f), not(0x1f))\n      dup3\n      add\n      0x40\n      mstore\n      returndatasize\n      dup3\n      mstore\n      returndatasize\n      0x00\n      0x20\n      dup5\n      add\n      returndatacopy\n      jump(tag_73)\n    tag_74:\n      0x60\n      swap2\n      pop\n    tag_73:\n      pop\n        /* \"contracts/Cooperative.sol\":1286:1351  (bool success, ) = payable(_vaultAddress).call{value: amount}(\"\") */\n      pop\n      swap1\n      pop\n        /* \"contracts/Cooperative.sol\":1369:1376  success */\n      dup1\n        /* \"contracts/Cooperative.sol\":1361:1398  require(success, \"Withdrawal failed\") */\n      tag_75\n      jumpi\n      mload(0x40)\n      0x08c379a000000000000000000000000000000000000000000000000000000000\n      dup2\n      mstore\n      0x04\n      add\n      tag_76\n      swap1\n      tag_77\n      jump\t// in\n    tag_76:\n      mload(0x40)\n      dup1\n      swap2\n      sub\n      swap1\n      revert\n    tag_75:\n        /* \"contracts/Cooperative.sol\":1436:1449  _vaultAddress */\n      0x04\n      0x00\n      swap1\n      sload\n      swap1\n      0x0100\n      exp\n      swap1\n      div\n      0xffffffffffffffffffffffffffffffffffffffff\n      and\n        /* \"contracts/Cooperative.sol\":1414:1458  CooperativeWithdrawal(_vaultAddress, amount) */\n      0xffffffffffffffffffffffffffffffffffffffff\n      and\n      0xc320bd2d56e1e01eafd93921a1e17a1fb2aa1185eb83b5ac6d561aaf023ca32e\n        /* \"contracts/Cooperative.sol\":1451:1457  amount */\n      dup4\n        /* \"contracts/Cooperative.sol\":1414:1458  CooperativeWithdrawal(_vaultAddress, amount) */\n      mload(0x40)\n      tag_78\n      swap2\n      swap1\n      tag_34\n      jump\t// in\n    tag_78:\n      mload(0x40)\n      dup1\n      swap2\n      sub\n      swap1\n      log2\n        /* \"contracts/Cooperative.sol\":1192:1465  {... */\n      pop\n        /* \"contracts/Cooperative.sol\":1139:1465  function withdraw(uint256 amount) external onlyOwner {... */\n      pop\n      jump\t// out\n        /* \"contracts/Cooperative.sol\":1863:1959  function getVaultAddress() external view returns (address) {... */\n    tag_27:\n        /* \"contracts/Cooperative.sol\":1913:1920  address */\n      0x00\n        /* \"contracts/Cooperative.sol\":1939:1952  _vaultAddress */\n      0x04\n      0x00\n      swap1\n      sload\n      swap1\n      0x0100\n      exp\n      swap1\n      div\n      0xffffffffffffffffffffffffffffffffffffffff\n      and\n        /* \"contracts/Cooperative.sol\":1932:1952  return _vaultAddress */\n      swap1\n      pop\n        /* \"contracts/Cooperative.sol\":1863:1959  function getVaultAddress() external view returns (address) {... */\n      swap1\n      jump\t// out\n        /* \"contracts/Cooperative.sol\":2053:2160  function getContractBalance() external view returns (uint256) {... */\n    tag_32:\n        /* \"contracts/Cooperative.sol\":2106:2113  uint256 */\n      0x00\n        /* \"contracts/Cooperative.sol\":2132:2153  address(this).balance */\n      selfbalance\n        /* \"contracts/Cooperative.sol\":2125:2153  return address(this).balance */\n      swap1\n      pop\n        /* \"contracts/Cooperative.sol\":2053:2160  function getContractBalance() external view returns (uint256) {... */\n      swap1\n      jump\t// out\n        /* \"contracts/Cooperative.sol\":1679:1763  function getCPF() external view returns (string memory) {... */\n    tag_37:\n        /* \"contracts/Cooperative.sol\":1720:1733  string memory */\n      0x60\n        /* \"contracts/Cooperative.sol\":1752:1756  _cpf */\n      0x02\n        /* \"contracts/Cooperative.sol\":1745:1756  return _cpf */\n      dup1\n      sload\n      tag_82\n      swap1\n      tag_57\n      jump\t// in\n    tag_82:\n      dup1\n      0x1f\n      add\n      0x20\n      dup1\n      swap2\n      div\n      mul\n      0x20\n      add\n      mload(0x40)\n      swap1\n      dup2\n      add\n      0x40\n      mstore\n      dup1\n      swap3\n      swap2\n      swap1\n      dup2\n      dup2\n      mstore\n      0x20\n      add\n      dup3\n      dup1\n      sload\n      tag_83\n      swap1\n      tag_57\n      jump\t// in\n    tag_83:\n      dup1\n      iszero\n      tag_84\n      jumpi\n      dup1\n      0x1f\n      lt\n      tag_85\n      jumpi\n      0x0100\n      dup1\n      dup4\n      sload\n      div\n      mul\n      dup4\n      mstore\n      swap2\n      0x20\n      add\n      swap2\n      jump(tag_84)\n    tag_85:\n      dup3\n      add\n      swap2\n      swap1\n      0x00\n      mstore\n      keccak256(0x00, 0x20)\n      swap1\n    tag_86:\n      dup2\n      sload\n      dup2\n      mstore\n      swap1\n      0x01\n      add\n      swap1\n      0x20\n      add\n      dup1\n      dup4\n      gt\n      tag_86\n      jumpi\n      dup3\n      swap1\n      sub\n      0x1f\n      and\n      dup3\n      add\n      swap2\n    tag_84:\n      pop\n      pop\n      pop\n      pop\n      pop\n      swap1\n      pop\n        /* \"contracts/Cooperative.sol\":1679:1763  function getCPF() external view returns (string memory) {... */\n      swap1\n      jump\t// out\n        /* \"contracts/Cooperative.sol\":1769:1857  function getEmail() external view returns (string memory) {... */\n    tag_41:\n        /* \"contracts/Cooperative.sol\":1812:1825  string memory */\n      0x60\n        /* \"contracts/Cooperative.sol\":1844:1850  _email */\n      0x03\n        /* \"contracts/Cooperative.sol\":1837:1850  return _email */\n      dup1\n      sload\n      tag_88\n      swap1\n      tag_57\n      jump\t// in\n    tag_88:\n      dup1\n      0x1f\n      add\n      0x20\n      dup1\n      swap2\n      div\n      mul\n      0x20\n      add\n      mload(0x40)\n      swap1\n      dup2\n      add\n      0x40\n      mstore\n      dup1\n      swap3\n      swap2\n      swap1\n      dup2\n      dup2\n      mstore\n      0x20\n      add\n      dup3\n      dup1\n      sload\n      tag_89\n      swap1\n      tag_57\n      jump\t// in\n    tag_89:\n      dup1\n      iszero\n      tag_90\n      jumpi\n      dup1\n      0x1f\n      lt\n      tag_91\n      jumpi\n      0x0100\n      dup1\n      dup4\n      sload\n      div\n      mul\n      dup4\n      mstore\n      swap2\n      0x20\n      add\n      swap2\n      jump(tag_90)\n    tag_91:\n      dup3\n      add\n      swap2\n      swap1\n      0x00\n      mstore\n      keccak256(0x00, 0x20)\n      swap1\n    tag_92:\n      dup2\n      sload\n      dup2\n      mstore\n      swap1\n      0x01\n      add\n      swap1\n      0x20\n      add\n      dup1\n      dup4\n      gt\n      tag_92\n      jumpi\n      dup3\n      swap1\n      sub\n      0x1f\n      and\n      dup3\n      add\n      swap2\n    tag_90:\n      pop\n      pop\n      pop\n      pop\n      pop\n      swap1\n      pop\n        /* \"contracts/Cooperative.sol\":1769:1857  function getEmail() external view returns (string memory) {... */\n      swap1\n      jump\t// out\n        /* \"contracts/Cooperative.sol\":1965:2047  function getOwner() external view returns (address) {... */\n    tag_45:\n        /* \"contracts/Cooperative.sol\":2008:2015  address */\n      0x00\n        /* \"contracts/Cooperative.sol\":2034:2040  _owner */\n      0x05\n      0x00\n      swap1\n      sload\n      swap1\n      0x0100\n      exp\n      swap1\n      div\n      0xffffffffffffffffffffffffffffffffffffffff\n      and\n        /* \"contracts/Cooperative.sol\":2027:2040  return _owner */\n      swap1\n      pop\n        /* \"contracts/Cooperative.sol\":1965:2047  function getOwner() external view returns (address) {... */\n      swap1\n      jump\t// out\n        /* \"contracts/Cooperative.sol\":942:1133  function deposit(string calldata message) external payable onlyOwner {... */\n    tag_50:\n        /* \"contracts/Cooperative.sol\":849:855  _owner */\n      0x05\n      0x00\n      swap1\n      sload\n      swap1\n      0x0100\n      exp\n      swap1\n      div\n      0xffffffffffffffffffffffffffffffffffffffff\n      and\n        /* \"contracts/Cooperative.sol\":835:855  msg.sender == _owner */\n      0xffffffffffffffffffffffffffffffffffffffff\n      and\n        /* \"contracts/Cooperative.sol\":835:845  msg.sender */\n      caller\n        /* \"contracts/Cooperative.sol\":835:855  msg.sender == _owner */\n      0xffffffffffffffffffffffffffffffffffffffff\n      and\n      eq\n        /* \"contracts/Cooperative.sol\":827:883  require(msg.sender == _owner, \"Caller is not the owner\") */\n      tag_95\n      jumpi\n      mload(0x40)\n      0x08c379a000000000000000000000000000000000000000000000000000000000\n      dup2\n      mstore\n      0x04\n      add\n      tag_96\n      swap1\n      tag_65\n      jump\t// in\n    tag_96:\n      mload(0x40)\n      dup1\n      swap2\n      sub\n      swap1\n      revert\n    tag_95:\n        /* \"contracts/Cooperative.sol\":1041:1042  0 */\n      0x00\n        /* \"contracts/Cooperative.sol\":1029:1038  msg.value */\n      callvalue\n        /* \"contracts/Cooperative.sol\":1029:1042  msg.value > 0 */\n      gt\n        /* \"contracts/Cooperative.sol\":1021:1067  require(msg.value > 0, \"Must send some Ether\") */\n      tag_98\n      jumpi\n      mload(0x40)\n      0x08c379a000000000000000000000000000000000000000000000000000000000\n      dup2\n      mstore\n      0x04\n      add\n      tag_99\n      swap1\n      tag_100\n      jump\t// in\n    tag_99:\n      mload(0x40)\n      dup1\n      swap2\n      sub\n      swap1\n      revert\n    tag_98:\n        /* \"contracts/Cooperative.sol\":1095:1105  msg.sender */\n      caller\n        /* \"contracts/Cooperative.sol\":1082:1126  OwnerDeposit(msg.sender, msg.value, message) */\n      0xffffffffffffffffffffffffffffffffffffffff\n      and\n      0xdc559e34789c6351866bb164dc3bd177bc43842ff9fe42d8f1cef434ec71b965\n        /* \"contracts/Cooperative.sol\":1107:1116  msg.value */\n      callvalue\n        /* \"contracts/Cooperative.sol\":1118:1125  message */\n      dup5\n      dup5\n        /* \"contracts/Cooperative.sol\":1082:1126  OwnerDeposit(msg.sender, msg.value, message) */\n      mload(0x40)\n      tag_101\n      swap4\n      swap3\n      swap2\n      swap1\n      tag_102\n      jump\t// in\n    tag_101:\n      mload(0x40)\n      dup1\n      swap2\n      sub\n      swap1\n      log2\n        /* \"contracts/Cooperative.sol\":942:1133  function deposit(string calldata message) external payable onlyOwner {... */\n      pop\n      pop\n      jump\t// out\n        /* \"contracts/Cooperative.sol\":1587:1673  function getCNPJ() external view returns (string memory) {... */\n    tag_53:\n        /* \"contracts/Cooperative.sol\":1629:1642  string memory */\n      0x60\n        /* \"contracts/Cooperative.sol\":1661:1666  _cnpj */\n      0x01\n        /* \"contracts/Cooperative.sol\":1654:1666  return _cnpj */\n      dup1\n      sload\n      tag_104\n      swap1\n      tag_57\n      jump\t// in\n    tag_104:\n      dup1\n      0x1f\n      add\n      0x20\n      dup1\n      swap2\n      div\n      mul\n      0x20\n      add\n      mload(0x40)\n      swap1\n      dup2\n      add\n      0x40\n      mstore\n      dup1\n      swap3\n      swap2\n      swap1\n      dup2\n      dup2\n      mstore\n      0x20\n      add\n      dup3\n      dup1\n      sload\n      tag_105\n      swap1\n      tag_57\n      jump\t// in\n    tag_105:\n      dup1\n      iszero\n      tag_106\n      jumpi\n      dup1\n      0x1f\n      lt\n      tag_107\n      jumpi\n      0x0100\n      dup1\n      dup4\n      sload\n      div\n      mul\n      dup4\n      mstore\n      swap2\n      0x20\n      add\n      swap2\n      jump(tag_106)\n    tag_107:\n      dup3\n      add\n      swap2\n      swap1\n      0x00\n      mstore\n      keccak256(0x00, 0x20)\n      swap1\n    tag_108:\n      dup2\n      sload\n      dup2\n      mstore\n      swap1\n      0x01\n      add\n      swap1\n      0x20\n      add\n      dup1\n      dup4\n      gt\n      tag_108\n      jumpi\n      dup3\n      swap1\n      sub\n      0x1f\n      and\n      dup3\n      add\n      swap2\n    tag_106:\n      pop\n      pop\n      pop\n      pop\n      pop\n      swap1\n      pop\n        /* \"contracts/Cooperative.sol\":1587:1673  function getCNPJ() external view returns (string memory) {... */\n      swap1\n      jump\t// out\n        /* \"#utility.yul\":7:106   */\n    tag_109:\n        /* \"#utility.yul\":59:65   */\n      0x00\n        /* \"#utility.yul\":93:98   */\n      dup2\n        /* \"#utility.yul\":87:99   */\n      mload\n        /* \"#utility.yul\":77:99   */\n      swap1\n      pop\n        /* \"#utility.yul\":7:106   */\n      swap2\n      swap1\n      pop\n      jump\t// out\n        /* \"#utility.yul\":112:281   */\n    tag_110:\n        /* \"#utility.yul\":196:207   */\n      0x00\n        /* \"#utility.yul\":230:236   */\n      dup3\n        /* \"#utility.yul\":225:228   */\n      dup3\n        /* \"#utility.yul\":218:237   */\n      mstore\n        /* \"#utility.yul\":270:274   */\n      0x20\n        /* \"#utility.yul\":265:268   */\n      dup3\n        /* \"#utility.yul\":261:275   */\n      add\n        /* \"#utility.yul\":246:275   */\n      swap1\n      pop\n        /* \"#utility.yul\":112:281   */\n      swap3\n      swap2\n      pop\n      pop\n      jump\t// out\n        /* \"#utility.yul\":287:426   */\n    tag_111:\n        /* \"#utility.yul\":376:382   */\n      dup3\n        /* \"#utility.yul\":371:374   */\n      dup2\n        /* \"#utility.yul\":366:369   */\n      dup4\n        /* \"#utility.yul\":360:383   */\n      mcopy\n        /* \"#utility.yul\":417:418   */\n      0x00\n        /* \"#utility.yul\":408:414   */\n      dup4\n        /* \"#utility.yul\":403:406   */\n      dup4\n        /* \"#utility.yul\":399:415   */\n      add\n        /* \"#utility.yul\":392:419   */\n      mstore\n        /* \"#utility.yul\":287:426   */\n      pop\n      pop\n      pop\n      jump\t// out\n        /* \"#utility.yul\":432:534   */\n    tag_112:\n        /* \"#utility.yul\":473:479   */\n      0x00\n        /* \"#utility.yul\":524:526   */\n      0x1f\n        /* \"#utility.yul\":520:527   */\n      not\n        /* \"#utility.yul\":515:517   */\n      0x1f\n        /* \"#utility.yul\":508:513   */\n      dup4\n        /* \"#utility.yul\":504:518   */\n      add\n        /* \"#utility.yul\":500:528   */\n      and\n        /* \"#utility.yul\":490:528   */\n      swap1\n      pop\n        /* \"#utility.yul\":432:534   */\n      swap2\n      swap1\n      pop\n      jump\t// out\n        /* \"#utility.yul\":540:917   */\n    tag_113:\n        /* \"#utility.yul\":628:631   */\n      0x00\n        /* \"#utility.yul\":656:695   */\n      tag_148\n        /* \"#utility.yul\":689:694   */\n      dup3\n        /* \"#utility.yul\":656:695   */\n      tag_109\n      jump\t// in\n    tag_148:\n        /* \"#utility.yul\":711:782   */\n      tag_149\n        /* \"#utility.yul\":775:781   */\n      dup2\n        /* \"#utility.yul\":770:773   */\n      dup6\n        /* \"#utility.yul\":711:782   */\n      tag_110\n      jump\t// in\n    tag_149:\n        /* \"#utility.yul\":704:782   */\n      swap4\n      pop\n        /* \"#utility.yul\":791:856   */\n      tag_150\n        /* \"#utility.yul\":849:855   */\n      dup2\n        /* \"#utility.yul\":844:847   */\n      dup6\n        /* \"#utility.yul\":837:841   */\n      0x20\n        /* \"#utility.yul\":830:835   */\n      dup7\n        /* \"#utility.yul\":826:842   */\n      add\n        /* \"#utility.yul\":791:856   */\n      tag_111\n      jump\t// in\n    tag_150:\n        /* \"#utility.yul\":881:910   */\n      tag_151\n        /* \"#utility.yul\":903:909   */\n      dup2\n        /* \"#utility.yul\":881:910   */\n      tag_112\n      jump\t// in\n    tag_151:\n        /* \"#utility.yul\":876:879   */\n      dup5\n        /* \"#utility.yul\":872:911   */\n      add\n        /* \"#utility.yul\":865:911   */\n      swap2\n      pop\n        /* \"#utility.yul\":632:917   */\n      pop\n        /* \"#utility.yul\":540:917   */\n      swap3\n      swap2\n      pop\n      pop\n      jump\t// out\n        /* \"#utility.yul\":923:1236   */\n    tag_19:\n        /* \"#utility.yul\":1036:1040   */\n      0x00\n        /* \"#utility.yul\":1074:1076   */\n      0x20\n        /* \"#utility.yul\":1063:1072   */\n      dup3\n        /* \"#utility.yul\":1059:1077   */\n      add\n        /* \"#utility.yul\":1051:1077   */\n      swap1\n      pop\n        /* \"#utility.yul\":1123:1132   */\n      dup2\n        /* \"#utility.yul\":1117:1121   */\n      dup2\n        /* \"#utility.yul\":1113:1133   */\n      sub\n        /* \"#utility.yul\":1109:1110   */\n      0x00\n        /* \"#utility.yul\":1098:1107   */\n      dup4\n        /* \"#utility.yul\":1094:1111   */\n      add\n        /* \"#utility.yul\":1087:1134   */\n      mstore\n        /* \"#utility.yul\":1151:1229   */\n      tag_153\n        /* \"#utility.yul\":1224:1228   */\n      dup2\n        /* \"#utility.yul\":1215:1221   */\n      dup5\n        /* \"#utility.yul\":1151:1229   */\n      tag_113\n      jump\t// in\n    tag_153:\n        /* \"#utility.yul\":1143:1229   */\n      swap1\n      pop\n        /* \"#utility.yul\":923:1236   */\n      swap3\n      swap2\n      pop\n      pop\n      jump\t// out\n        /* \"#utility.yul\":1323:1440   */\n    tag_115:\n        /* \"#utility.yul\":1432:1433   */\n      0x00\n        /* \"#utility.yul\":1429:1430   */\n      0x00\n        /* \"#utility.yul\":1422:1434   */\n      revert\n        /* \"#utility.yul\":1446:1563   */\n    tag_116:\n        /* \"#utility.yul\":1555:1556   */\n      0x00\n        /* \"#utility.yul\":1552:1553   */\n      0x00\n        /* \"#utility.yul\":1545:1557   */\n      revert\n        /* \"#utility.yul\":1569:1646   */\n    tag_117:\n        /* \"#utility.yul\":1606:1613   */\n      0x00\n        /* \"#utility.yul\":1635:1640   */\n      dup2\n        /* \"#utility.yul\":1624:1640   */\n      swap1\n      pop\n        /* \"#utility.yul\":1569:1646   */\n      swap2\n      swap1\n      pop\n      jump\t// out\n        /* \"#utility.yul\":1652:1774   */\n    tag_118:\n        /* \"#utility.yul\":1725:1749   */\n      tag_159\n        /* \"#utility.yul\":1743:1748   */\n      dup2\n        /* \"#utility.yul\":1725:1749   */\n      tag_117\n      jump\t// in\n    tag_159:\n        /* \"#utility.yul\":1718:1723   */\n      dup2\n        /* \"#utility.yul\":1715:1750   */\n      eq\n        /* \"#utility.yul\":1705:1768   */\n      tag_160\n      jumpi\n        /* \"#utility.yul\":1764:1765   */\n      0x00\n        /* \"#utility.yul\":1761:1762   */\n      0x00\n        /* \"#utility.yul\":1754:1766   */\n      revert\n        /* \"#utility.yul\":1705:1768   */\n    tag_160:\n        /* \"#utility.yul\":1652:1774   */\n      pop\n      jump\t// out\n        /* \"#utility.yul\":1780:1919   */\n    tag_119:\n        /* \"#utility.yul\":1826:1831   */\n      0x00\n        /* \"#utility.yul\":1864:1870   */\n      dup2\n        /* \"#utility.yul\":1851:1871   */\n      calldataload\n        /* \"#utility.yul\":1842:1871   */\n      swap1\n      pop\n        /* \"#utility.yul\":1880:1913   */\n      tag_162\n        /* \"#utility.yul\":1907:1912   */\n      dup2\n        /* \"#utility.yul\":1880:1913   */\n      tag_118\n      jump\t// in\n    tag_162:\n        /* \"#utility.yul\":1780:1919   */\n      swap3\n      swap2\n      pop\n      pop\n      jump\t// out\n        /* \"#utility.yul\":1925:2254   */\n    tag_23:\n        /* \"#utility.yul\":1984:1990   */\n      0x00\n        /* \"#utility.yul\":2033:2035   */\n      0x20\n        /* \"#utility.yul\":2021:2030   */\n      dup3\n        /* \"#utility.yul\":2012:2019   */\n      dup5\n        /* \"#utility.yul\":2008:2031   */\n      sub\n        /* \"#utility.yul\":2004:2036   */\n      slt\n        /* \"#utility.yul\":2001:2120   */\n      iszero\n      tag_164\n      jumpi\n        /* \"#utility.yul\":2039:2118   */\n      tag_165\n      tag_115\n      jump\t// in\n    tag_165:\n        /* \"#utility.yul\":2001:2120   */\n    tag_164:\n        /* \"#utility.yul\":2159:2160   */\n      0x00\n        /* \"#utility.yul\":2184:2237   */\n      tag_166\n        /* \"#utility.yul\":2229:2236   */\n      dup5\n        /* \"#utility.yul\":2220:2226   */\n      dup3\n        /* \"#utility.yul\":2209:2218   */\n      dup6\n        /* \"#utility.yul\":2205:2227   */\n      add\n        /* \"#utility.yul\":2184:2237   */\n      tag_119\n      jump\t// in\n    tag_166:\n        /* \"#utility.yul\":2174:2237   */\n      swap2\n      pop\n        /* \"#utility.yul\":2130:2247   */\n      pop\n        /* \"#utility.yul\":1925:2254   */\n      swap3\n      swap2\n      pop\n      pop\n      jump\t// out\n        /* \"#utility.yul\":2260:2386   */\n    tag_120:\n        /* \"#utility.yul\":2297:2304   */\n      0x00\n        /* \"#utility.yul\":2337:2379   */\n      0xffffffffffffffffffffffffffffffffffffffff\n        /* \"#utility.yul\":2330:2335   */\n      dup3\n        /* \"#utility.yul\":2326:2380   */\n      and\n        /* \"#utility.yul\":2315:2380   */\n      swap1\n      pop\n        /* \"#utility.yul\":2260:2386   */\n      swap2\n      swap1\n      pop\n      jump\t// out\n        /* \"#utility.yul\":2392:2488   */\n    tag_121:\n        /* \"#utility.yul\":2429:2436   */\n      0x00\n        /* \"#utility.yul\":2458:2482   */\n      tag_169\n        /* \"#utility.yul\":2476:2481   */\n      dup3\n        /* \"#utility.yul\":2458:2482   */\n      tag_120\n      jump\t// in\n    tag_169:\n        /* \"#utility.yul\":2447:2482   */\n      swap1\n      pop\n        /* \"#utility.yul\":2392:2488   */\n      swap2\n      swap1\n      pop\n      jump\t// out\n        /* \"#utility.yul\":2494:2612   */\n    tag_122:\n        /* \"#utility.yul\":2581:2605   */\n      tag_171\n        /* \"#utility.yul\":2599:2604   */\n      dup2\n        /* \"#utility.yul\":2581:2605   */\n      tag_121\n      jump\t// in\n    tag_171:\n        /* \"#utility.yul\":2576:2579   */\n      dup3\n        /* \"#utility.yul\":2569:2606   */\n      mstore\n        /* \"#utility.yul\":2494:2612   */\n      pop\n      pop\n      jump\t// out\n        /* \"#utility.yul\":2618:2840   */\n    tag_29:\n        /* \"#utility.yul\":2711:2715   */\n      0x00\n        /* \"#utility.yul\":2749:2751   */\n      0x20\n        /* \"#utility.yul\":2738:2747   */\n      dup3\n        /* \"#utility.yul\":2734:2752   */\n      add\n        /* \"#utility.yul\":2726:2752   */\n      swap1\n      pop\n        /* \"#utility.yul\":2762:2833   */\n      tag_173\n        /* \"#utility.yul\":2830:2831   */\n      0x00\n        /* \"#utility.yul\":2819:2828   */\n      dup4\n        /* \"#utility.yul\":2815:2832   */\n      add\n        /* \"#utility.yul\":2806:2812   */\n      dup5\n        /* \"#utility.yul\":2762:2833   */\n      tag_122\n      jump\t// in\n    tag_173:\n        /* \"#utility.yul\":2618:2840   */\n      swap3\n      swap2\n      pop\n      pop\n      jump\t// out\n        /* \"#utility.yul\":2846:2964   */\n    tag_123:\n        /* \"#utility.yul\":2933:2957   */\n      tag_175\n        /* \"#utility.yul\":2951:2956   */\n      dup2\n        /* \"#utility.yul\":2933:2957   */\n      tag_117\n      jump\t// in\n    tag_175:\n        /* \"#utility.yul\":2928:2931   */\n      dup3\n        /* \"#utility.yul\":2921:2958   */\n      mstore\n        /* \"#utility.yul\":2846:2964   */\n      pop\n      pop\n      jump\t// out\n        /* \"#utility.yul\":2970:3192   */\n    tag_34:\n        /* \"#utility.yul\":3063:3067   */\n      0x00\n        /* \"#utility.yul\":3101:3103   */\n      0x20\n        /* \"#utility.yul\":3090:3099   */\n      dup3\n        /* \"#utility.yul\":3086:3104   */\n      add\n        /* \"#utility.yul\":3078:3104   */\n      swap1\n      pop\n        /* \"#utility.yul\":3114:3185   */\n      tag_177\n        /* \"#utility.yul\":3182:3183   */\n      0x00\n        /* \"#utility.yul\":3171:3180   */\n      dup4\n        /* \"#utility.yul\":3167:3184   */\n      add\n        /* \"#utility.yul\":3158:3164   */\n      dup5\n        /* \"#utility.yul\":3114:3185   */\n      tag_123\n      jump\t// in\n    tag_177:\n        /* \"#utility.yul\":2970:3192   */\n      swap3\n      swap2\n      pop\n      pop\n      jump\t// out\n        /* \"#utility.yul\":3198:3315   */\n    tag_124:\n        /* \"#utility.yul\":3307:3308   */\n      0x00\n        /* \"#utility.yul\":3304:3305   */\n      0x00\n        /* \"#utility.yul\":3297:3309   */\n      revert\n        /* \"#utility.yul\":3321:3438   */\n    tag_125:\n        /* \"#utility.yul\":3430:3431   */\n      0x00\n        /* \"#utility.yul\":3427:3428   */\n      0x00\n        /* \"#utility.yul\":3420:3432   */\n      revert\n        /* \"#utility.yul\":3444:3561   */\n    tag_126:\n        /* \"#utility.yul\":3553:3554   */\n      0x00\n        /* \"#utility.yul\":3550:3551   */\n      0x00\n        /* \"#utility.yul\":3543:3555   */\n      revert\n        /* \"#utility.yul\":3581:4134   */\n    tag_127:\n        /* \"#utility.yul\":3639:3647   */\n      0x00\n        /* \"#utility.yul\":3649:3655   */\n      0x00\n        /* \"#utility.yul\":3699:3702   */\n      dup4\n        /* \"#utility.yul\":3692:3696   */\n      0x1f\n        /* \"#utility.yul\":3684:3690   */\n      dup5\n        /* \"#utility.yul\":3680:3697   */\n      add\n        /* \"#utility.yul\":3676:3703   */\n      slt\n        /* \"#utility.yul\":3666:3788   */\n      tag_182\n      jumpi\n        /* \"#utility.yul\":3707:3786   */\n      tag_183\n      tag_124\n      jump\t// in\n    tag_183:\n        /* \"#utility.yul\":3666:3788   */\n    tag_182:\n        /* \"#utility.yul\":3820:3826   */\n      dup3\n        /* \"#utility.yul\":3807:3827   */\n      calldataload\n        /* \"#utility.yul\":3797:3827   */\n      swap1\n      pop\n        /* \"#utility.yul\":3850:3868   */\n      0xffffffffffffffff\n        /* \"#utility.yul\":3842:3848   */\n      dup2\n        /* \"#utility.yul\":3839:3869   */\n      gt\n        /* \"#utility.yul\":3836:3953   */\n      iszero\n      tag_184\n      jumpi\n        /* \"#utility.yul\":3872:3951   */\n      tag_185\n      tag_125\n      jump\t// in\n    tag_185:\n        /* \"#utility.yul\":3836:3953   */\n    tag_184:\n        /* \"#utility.yul\":3986:3990   */\n      0x20\n        /* \"#utility.yul\":3978:3984   */\n      dup4\n        /* \"#utility.yul\":3974:3991   */\n      add\n        /* \"#utility.yul\":3962:3991   */\n      swap2\n      pop\n        /* \"#utility.yul\":4040:4043   */\n      dup4\n        /* \"#utility.yul\":4032:4036   */\n      0x01\n        /* \"#utility.yul\":4024:4030   */\n      dup3\n        /* \"#utility.yul\":4020:4037   */\n      mul\n        /* \"#utility.yul\":4010:4018   */\n      dup4\n        /* \"#utility.yul\":4006:4038   */\n      add\n        /* \"#utility.yul\":4003:4044   */\n      gt\n        /* \"#utility.yul\":4000:4128   */\n      iszero\n      tag_186\n      jumpi\n        /* \"#utility.yul\":4047:4126   */\n      tag_187\n      tag_126\n      jump\t// in\n    tag_187:\n        /* \"#utility.yul\":4000:4128   */\n    tag_186:\n        /* \"#utility.yul\":3581:4134   */\n      swap3\n      pop\n      swap3\n      swap1\n      pop\n      jump\t// out\n        /* \"#utility.yul\":4140:4669   */\n    tag_49:\n        /* \"#utility.yul\":4211:4217   */\n      0x00\n        /* \"#utility.yul\":4219:4225   */\n      0x00\n        /* \"#utility.yul\":4268:4270   */\n      0x20\n        /* \"#utility.yul\":4256:4265   */\n      dup4\n        /* \"#utility.yul\":4247:4254   */\n      dup6\n        /* \"#utility.yul\":4243:4266   */\n      sub\n        /* \"#utility.yul\":4239:4271   */\n      slt\n        /* \"#utility.yul\":4236:4355   */\n      iszero\n      tag_189\n      jumpi\n        /* \"#utility.yul\":4274:4353   */\n      tag_190\n      tag_115\n      jump\t// in\n    tag_190:\n        /* \"#utility.yul\":4236:4355   */\n    tag_189:\n        /* \"#utility.yul\":4422:4423   */\n      0x00\n        /* \"#utility.yul\":4411:4420   */\n      dup4\n        /* \"#utility.yul\":4407:4424   */\n      add\n        /* \"#utility.yul\":4394:4425   */\n      calldataload\n        /* \"#utility.yul\":4452:4470   */\n      0xffffffffffffffff\n        /* \"#utility.yul\":4444:4450   */\n      dup2\n        /* \"#utility.yul\":4441:4471   */\n      gt\n        /* \"#utility.yul\":4438:4555   */\n      iszero\n      tag_191\n      jumpi\n        /* \"#utility.yul\":4474:4553   */\n      tag_192\n      tag_116\n      jump\t// in\n    tag_192:\n        /* \"#utility.yul\":4438:4555   */\n    tag_191:\n        /* \"#utility.yul\":4587:4652   */\n      tag_193\n        /* \"#utility.yul\":4644:4651   */\n      dup6\n        /* \"#utility.yul\":4635:4641   */\n      dup3\n        /* \"#utility.yul\":4624:4633   */\n      dup7\n        /* \"#utility.yul\":4620:4642   */\n      add\n        /* \"#utility.yul\":4587:4652   */\n      tag_127\n      jump\t// in\n    tag_193:\n        /* \"#utility.yul\":4569:4652   */\n      swap3\n      pop\n      swap3\n      pop\n        /* \"#utility.yul\":4365:4662   */\n      pop\n        /* \"#utility.yul\":4140:4669   */\n      swap3\n      pop\n      swap3\n      swap1\n      pop\n      jump\t// out\n        /* \"#utility.yul\":4675:4855   */\n    tag_128:\n        /* \"#utility.yul\":4723:4800   */\n      0x4e487b7100000000000000000000000000000000000000000000000000000000\n        /* \"#utility.yul\":4720:4721   */\n      0x00\n        /* \"#utility.yul\":4713:4801   */\n      mstore\n        /* \"#utility.yul\":4820:4824   */\n      0x22\n        /* \"#utility.yul\":4817:4818   */\n      0x04\n        /* \"#utility.yul\":4810:4825   */\n      mstore\n        /* \"#utility.yul\":4844:4848   */\n      0x24\n        /* \"#utility.yul\":4841:4842   */\n      0x00\n        /* \"#utility.yul\":4834:4849   */\n      revert\n        /* \"#utility.yul\":4861:5181   */\n    tag_57:\n        /* \"#utility.yul\":4905:4911   */\n      0x00\n        /* \"#utility.yul\":4942:4943   */\n      0x02\n        /* \"#utility.yul\":4936:4940   */\n      dup3\n        /* \"#utility.yul\":4932:4944   */\n      div\n        /* \"#utility.yul\":4922:4944   */\n      swap1\n      pop\n        /* \"#utility.yul\":4989:4990   */\n      0x01\n        /* \"#utility.yul\":4983:4987   */\n      dup3\n        /* \"#utility.yul\":4979:4991   */\n      and\n        /* \"#utility.yul\":5010:5028   */\n      dup1\n        /* \"#utility.yul\":5000:5081   */\n      tag_196\n      jumpi\n        /* \"#utility.yul\":5066:5070   */\n      0x7f\n        /* \"#utility.yul\":5058:5064   */\n      dup3\n        /* \"#utility.yul\":5054:5071   */\n      and\n        /* \"#utility.yul\":5044:5071   */\n      swap2\n      pop\n        /* \"#utility.yul\":5000:5081   */\n    tag_196:\n        /* \"#utility.yul\":5128:5130   */\n      0x20\n        /* \"#utility.yul\":5120:5126   */\n      dup3\n        /* \"#utility.yul\":5117:5131   */\n      lt\n        /* \"#utility.yul\":5097:5115   */\n      dup2\n        /* \"#utility.yul\":5094:5132   */\n      sub\n        /* \"#utility.yul\":5091:5175   */\n      tag_197\n      jumpi\n        /* \"#utility.yul\":5147:5165   */\n      tag_198\n      tag_128\n      jump\t// in\n    tag_198:\n        /* \"#utility.yul\":5091:5175   */\n    tag_197:\n        /* \"#utility.yul\":4912:5181   */\n      pop\n        /* \"#utility.yul\":4861:5181   */\n      swap2\n      swap1\n      pop\n      jump\t// out\n        /* \"#utility.yul\":5187:5360   */\n    tag_129:\n        /* \"#utility.yul\":5327:5352   */\n      0x43616c6c6572206973206e6f7420746865206f776e6572000000000000000000\n        /* \"#utility.yul\":5323:5324   */\n      0x00\n        /* \"#utility.yul\":5315:5321   */\n      dup3\n        /* \"#utility.yul\":5311:5325   */\n      add\n        /* \"#utility.yul\":5304:5353   */\n      mstore\n        /* \"#utility.yul\":5187:5360   */\n      pop\n      jump\t// out\n        /* \"#utility.yul\":5366:5732   */\n    tag_130:\n        /* \"#utility.yul\":5508:5511   */\n      0x00\n        /* \"#utility.yul\":5529:5596   */\n      tag_201\n        /* \"#utility.yul\":5593:5595   */\n      0x17\n        /* \"#utility.yul\":5588:5591   */\n      dup4\n        /* \"#utility.yul\":5529:5596   */\n      tag_110\n      jump\t// in\n    tag_201:\n        /* \"#utility.yul\":5522:5596   */\n      swap2\n      pop\n        /* \"#utility.yul\":5605:5698   */\n      tag_202\n        /* \"#utility.yul\":5694:5697   */\n      dup3\n        /* \"#utility.yul\":5605:5698   */\n      tag_129\n      jump\t// in\n    tag_202:\n        /* \"#utility.yul\":5723:5725   */\n      0x20\n        /* \"#utility.yul\":5718:5721   */\n      dup3\n        /* \"#utility.yul\":5714:5726   */\n      add\n        /* \"#utility.yul\":5707:5726   */\n      swap1\n      pop\n        /* \"#utility.yul\":5366:5732   */\n      swap2\n      swap1\n      pop\n      jump\t// out\n        /* \"#utility.yul\":5738:6157   */\n    tag_65:\n        /* \"#utility.yul\":5904:5908   */\n      0x00\n        /* \"#utility.yul\":5942:5944   */\n      0x20\n        /* \"#utility.yul\":5931:5940   */\n      dup3\n        /* \"#utility.yul\":5927:5945   */\n      add\n        /* \"#utility.yul\":5919:5945   */\n      swap1\n      pop\n        /* \"#utility.yul\":5991:6000   */\n      dup2\n        /* \"#utility.yul\":5985:5989   */\n      dup2\n        /* \"#utility.yul\":5981:6001   */\n      sub\n        /* \"#utility.yul\":5977:5978   */\n      0x00\n        /* \"#utility.yul\":5966:5975   */\n      dup4\n        /* \"#utility.yul\":5962:5979   */\n      add\n        /* \"#utility.yul\":5955:6002   */\n      mstore\n        /* \"#utility.yul\":6019:6150   */\n      tag_204\n        /* \"#utility.yul\":6145:6149   */\n      dup2\n        /* \"#utility.yul\":6019:6150   */\n      tag_130\n      jump\t// in\n    tag_204:\n        /* \"#utility.yul\":6011:6150   */\n      swap1\n      pop\n        /* \"#utility.yul\":5738:6157   */\n      swap2\n      swap1\n      pop\n      jump\t// out\n        /* \"#utility.yul\":6163:6342   */\n    tag_131:\n        /* \"#utility.yul\":6303:6334   */\n      0x496e73756666696369656e7420636f6e74726163742062616c616e6365000000\n        /* \"#utility.yul\":6299:6300   */\n      0x00\n        /* \"#utility.yul\":6291:6297   */\n      dup3\n        /* \"#utility.yul\":6287:6301   */\n      add\n        /* \"#utility.yul\":6280:6335   */\n      mstore\n        /* \"#utility.yul\":6163:6342   */\n      pop\n      jump\t// out\n        /* \"#utility.yul\":6348:6714   */\n    tag_132:\n        /* \"#utility.yul\":6490:6493   */\n      0x00\n        /* \"#utility.yul\":6511:6578   */\n      tag_207\n        /* \"#utility.yul\":6575:6577   */\n      0x1d\n        /* \"#utility.yul\":6570:6573   */\n      dup4\n        /* \"#utility.yul\":6511:6578   */\n      tag_110\n      jump\t// in\n    tag_207:\n        /* \"#utility.yul\":6504:6578   */\n      swap2\n      pop\n        /* \"#utility.yul\":6587:6680   */\n      tag_208\n        /* \"#utility.yul\":6676:6679   */\n      dup3\n        /* \"#utility.yul\":6587:6680   */\n      tag_131\n      jump\t// in\n    tag_208:\n        /* \"#utility.yul\":6705:6707   */\n      0x20\n        /* \"#utility.yul\":6700:6703   */\n      dup3\n        /* \"#utility.yul\":6696:6708   */\n      add\n        /* \"#utility.yul\":6689:6708   */\n      swap1\n      pop\n        /* \"#utility.yul\":6348:6714   */\n      swap2\n      swap1\n      pop\n      jump\t// out\n        /* \"#utility.yul\":6720:7139   */\n    tag_69:\n        /* \"#utility.yul\":6886:6890   */\n      0x00\n        /* \"#utility.yul\":6924:6926   */\n      0x20\n        /* \"#utility.yul\":6913:6922   */\n      dup3\n        /* \"#utility.yul\":6909:6927   */\n      add\n        /* \"#utility.yul\":6901:6927   */\n      swap1\n      pop\n        /* \"#utility.yul\":6973:6982   */\n      dup2\n        /* \"#utility.yul\":6967:6971   */\n      dup2\n        /* \"#utility.yul\":6963:6983   */\n      sub\n        /* \"#utility.yul\":6959:6960   */\n      0x00\n        /* \"#utility.yul\":6948:6957   */\n      dup4\n        /* \"#utility.yul\":6944:6961   */\n      add\n        /* \"#utility.yul\":6937:6984   */\n      mstore\n        /* \"#utility.yul\":7001:7132   */\n      tag_210\n        /* \"#utility.yul\":7127:7131   */\n      dup2\n        /* \"#utility.yul\":7001:7132   */\n      tag_132\n      jump\t// in\n    tag_210:\n        /* \"#utility.yul\":6993:7132   */\n      swap1\n      pop\n        /* \"#utility.yul\":6720:7139   */\n      swap2\n      swap1\n      pop\n      jump\t// out\n        /* \"#utility.yul\":7145:7292   */\n    tag_133:\n        /* \"#utility.yul\":7246:7257   */\n      0x00\n        /* \"#utility.yul\":7283:7286   */\n      dup2\n        /* \"#utility.yul\":7268:7286   */\n      swap1\n      pop\n        /* \"#utility.yul\":7145:7292   */\n      swap3\n      swap2\n      pop\n      pop\n      jump\t// out\n        /* \"#utility.yul\":7298:7412   */\n    tag_134:\n      pop\n      jump\t// out\n        /* \"#utility.yul\":7418:7816   */\n    tag_135:\n        /* \"#utility.yul\":7577:7580   */\n      0x00\n        /* \"#utility.yul\":7598:7681   */\n      tag_214\n        /* \"#utility.yul\":7679:7680   */\n      0x00\n        /* \"#utility.yul\":7674:7677   */\n      dup4\n        /* \"#utility.yul\":7598:7681   */\n      tag_133\n      jump\t// in\n    tag_214:\n        /* \"#utility.yul\":7591:7681   */\n      swap2\n      pop\n        /* \"#utility.yul\":7690:7783   */\n      tag_215\n        /* \"#utility.yul\":7779:7782   */\n      dup3\n        /* \"#utility.yul\":7690:7783   */\n      tag_134\n      jump\t// in\n    tag_215:\n        /* \"#utility.yul\":7808:7809   */\n      0x00\n        /* \"#utility.yul\":7803:7806   */\n      dup3\n        /* \"#utility.yul\":7799:7810   */\n      add\n        /* \"#utility.yul\":7792:7810   */\n      swap1\n      pop\n        /* \"#utility.yul\":7418:7816   */\n      swap2\n      swap1\n      pop\n      jump\t// out\n        /* \"#utility.yul\":7822:8201   */\n    tag_71:\n        /* \"#utility.yul\":8006:8009   */\n      0x00\n        /* \"#utility.yul\":8028:8175   */\n      tag_217\n        /* \"#utility.yul\":8171:8174   */\n      dup3\n        /* \"#utility.yul\":8028:8175   */\n      tag_135\n      jump\t// in\n    tag_217:\n        /* \"#utility.yul\":8021:8175   */\n      swap2\n      pop\n        /* \"#utility.yul\":8192:8195   */\n      dup2\n        /* \"#utility.yul\":8185:8195   */\n      swap1\n      pop\n        /* \"#utility.yul\":7822:8201   */\n      swap2\n      swap1\n      pop\n      jump\t// out\n        /* \"#utility.yul\":8207:8374   */\n    tag_136:\n        /* \"#utility.yul\":8347:8366   */\n      0x5769746864726177616c206661696c6564000000000000000000000000000000\n        /* \"#utility.yul\":8343:8344   */\n      0x00\n        /* \"#utility.yul\":8335:8341   */\n      dup3\n        /* \"#utility.yul\":8331:8345   */\n      add\n        /* \"#utility.yul\":8324:8367   */\n      mstore\n        /* \"#utility.yul\":8207:8374   */\n      pop\n      jump\t// out\n        /* \"#utility.yul\":8380:8746   */\n    tag_137:\n        /* \"#utility.yul\":8522:8525   */\n      0x00\n        /* \"#utility.yul\":8543:8610   */\n      tag_220\n        /* \"#utility.yul\":8607:8609   */\n      0x11\n        /* \"#utility.yul\":8602:8605   */\n      dup4\n        /* \"#utility.yul\":8543:8610   */\n      tag_110\n      jump\t// in\n    tag_220:\n        /* \"#utility.yul\":8536:8610   */\n      swap2\n      pop\n        /* \"#utility.yul\":8619:8712   */\n      tag_221\n        /* \"#utility.yul\":8708:8711   */\n      dup3\n        /* \"#utility.yul\":8619:8712   */\n      tag_136\n      jump\t// in\n    tag_221:\n        /* \"#utility.yul\":8737:8739   */\n      0x20\n        /* \"#utility.yul\":8732:8735   */\n      dup3\n        /* \"#utility.yul\":8728:8740   */\n      add\n        /* \"#utility.yul\":8721:8740   */\n      swap1\n      pop\n        /* \"#utility.yul\":8380:8746   */\n      swap2\n      swap1\n      pop\n      jump\t// out\n        /* \"#utility.yul\":8752:9171   */\n    tag_77:\n        /* \"#utility.yul\":8918:8922   */\n      0x00\n        /* \"#utility.yul\":8956:8958   */\n      0x20\n        /* \"#utility.yul\":8945:8954   */\n      dup3\n        /* \"#utility.yul\":8941:8959   */\n      add\n        /* \"#utility.yul\":8933:8959   */\n      swap1\n      pop\n        /* \"#utility.yul\":9005:9014   */\n      dup2\n        /* \"#utility.yul\":8999:9003   */\n      dup2\n        /* \"#utility.yul\":8995:9015   */\n      sub\n        /* \"#utility.yul\":8991:8992   */\n      0x00\n        /* \"#utility.yul\":8980:8989   */\n      dup4\n        /* \"#utility.yul\":8976:8993   */\n      add\n        /* \"#utility.yul\":8969:9016   */\n      mstore\n        /* \"#utility.yul\":9033:9164   */\n      tag_223\n        /* \"#utility.yul\":9159:9163   */\n      dup2\n        /* \"#utility.yul\":9033:9164   */\n      tag_137\n      jump\t// in\n    tag_223:\n        /* \"#utility.yul\":9025:9164   */\n      swap1\n      pop\n        /* \"#utility.yul\":8752:9171   */\n      swap2\n      swap1\n      pop\n      jump\t// out\n        /* \"#utility.yul\":9177:9347   */\n    tag_138:\n        /* \"#utility.yul\":9317:9339   */\n      0x4d7573742073656e6420736f6d65204574686572000000000000000000000000\n        /* \"#utility.yul\":9313:9314   */\n      0x00\n        /* \"#utility.yul\":9305:9311   */\n      dup3\n        /* \"#utility.yul\":9301:9315   */\n      add\n        /* \"#utility.yul\":9294:9340   */\n      mstore\n        /* \"#utility.yul\":9177:9347   */\n      pop\n      jump\t// out\n        /* \"#utility.yul\":9353:9719   */\n    tag_139:\n        /* \"#utility.yul\":9495:9498   */\n      0x00\n        /* \"#utility.yul\":9516:9583   */\n      tag_226\n        /* \"#utility.yul\":9580:9582   */\n      0x14\n        /* \"#utility.yul\":9575:9578   */\n      dup4\n        /* \"#utility.yul\":9516:9583   */\n      tag_110\n      jump\t// in\n    tag_226:\n        /* \"#utility.yul\":9509:9583   */\n      swap2\n      pop\n        /* \"#utility.yul\":9592:9685   */\n      tag_227\n        /* \"#utility.yul\":9681:9684   */\n      dup3\n        /* \"#utility.yul\":9592:9685   */\n      tag_138\n      jump\t// in\n    tag_227:\n        /* \"#utility.yul\":9710:9712   */\n      0x20\n        /* \"#utility.yul\":9705:9708   */\n      dup3\n        /* \"#utility.yul\":9701:9713   */\n      add\n        /* \"#utility.yul\":9694:9713   */\n      swap1\n      pop\n        /* \"#utility.yul\":9353:9719   */\n      swap2\n      swap1\n      pop\n      jump\t// out\n        /* \"#utility.yul\":9725:10144   */\n    tag_100:\n        /* \"#utility.yul\":9891:9895   */\n      0x00\n        /* \"#utility.yul\":9929:9931   */\n      0x20\n        /* \"#utility.yul\":9918:9927   */\n      dup3\n        /* \"#utility.yul\":9914:9932   */\n      add\n        /* \"#utility.yul\":9906:9932   */\n      swap1\n      pop\n        /* \"#utility.yul\":9978:9987   */\n      dup2\n        /* \"#utility.yul\":9972:9976   */\n      dup2\n        /* \"#utility.yul\":9968:9988   */\n      sub\n        /* \"#utility.yul\":9964:9965   */\n      0x00\n        /* \"#utility.yul\":9953:9962   */\n      dup4\n        /* \"#utility.yul\":9949:9966   */\n      add\n        /* \"#utility.yul\":9942:9989   */\n      mstore\n        /* \"#utility.yul\":10006:10137   */\n      tag_229\n        /* \"#utility.yul\":10132:10136   */\n      dup2\n        /* \"#utility.yul\":10006:10137   */\n      tag_139\n      jump\t// in\n    tag_229:\n        /* \"#utility.yul\":9998:10137   */\n      swap1\n      pop\n        /* \"#utility.yul\":9725:10144   */\n      swap2\n      swap1\n      pop\n      jump\t// out\n        /* \"#utility.yul\":10150:10298   */\n    tag_140:\n        /* \"#utility.yul\":10248:10254   */\n      dup3\n        /* \"#utility.yul\":10243:10246   */\n      dup2\n        /* \"#utility.yul\":10238:10241   */\n      dup4\n        /* \"#utility.yul\":10225:10255   */\n      calldatacopy\n        /* \"#utility.yul\":10289:10290   */\n      0x00\n        /* \"#utility.yul\":10280:10286   */\n      dup4\n        /* \"#utility.yul\":10275:10278   */\n      dup4\n        /* \"#utility.yul\":10271:10287   */\n      add\n        /* \"#utility.yul\":10264:10291   */\n      mstore\n        /* \"#utility.yul\":10150:10298   */\n      pop\n      pop\n      pop\n      jump\t// out\n        /* \"#utility.yul\":10328:10645   */\n    tag_141:\n        /* \"#utility.yul\":10426:10429   */\n      0x00\n        /* \"#utility.yul\":10447:10518   */\n      tag_232\n        /* \"#utility.yul\":10511:10517   */\n      dup4\n        /* \"#utility.yul\":10506:10509   */\n      dup6\n        /* \"#utility.yul\":10447:10518   */\n      tag_110\n      jump\t// in\n    tag_232:\n        /* \"#utility.yul\":10440:10518   */\n      swap4\n      pop\n        /* \"#utility.yul\":10528:10584   */\n      tag_233\n        /* \"#utility.yul\":10577:10583   */\n      dup4\n        /* \"#utility.yul\":10572:10575   */\n      dup6\n        /* \"#utility.yul\":10565:10570   */\n      dup5\n        /* \"#utility.yul\":10528:10584   */\n      tag_140\n      jump\t// in\n    tag_233:\n        /* \"#utility.yul\":10609:10638   */\n      tag_234\n        /* \"#utility.yul\":10631:10637   */\n      dup4\n        /* \"#utility.yul\":10609:10638   */\n      tag_112\n      jump\t// in\n    tag_234:\n        /* \"#utility.yul\":10604:10607   */\n      dup5\n        /* \"#utility.yul\":10600:10639   */\n      add\n        /* \"#utility.yul\":10593:10639   */\n      swap1\n      pop\n        /* \"#utility.yul\":10328:10645   */\n      swap4\n      swap3\n      pop\n      pop\n      pop\n      jump\t// out\n        /* \"#utility.yul\":10651:11094   */\n    tag_102:\n        /* \"#utility.yul\":10802:10806   */\n      0x00\n        /* \"#utility.yul\":10840:10842   */\n      0x40\n        /* \"#utility.yul\":10829:10838   */\n      dup3\n        /* \"#utility.yul\":10825:10843   */\n      add\n        /* \"#utility.yul\":10817:10843   */\n      swap1\n      pop\n        /* \"#utility.yul\":10853:10924   */\n      tag_236\n        /* \"#utility.yul\":10921:10922   */\n      0x00\n        /* \"#utility.yul\":10910:10919   */\n      dup4\n        /* \"#utility.yul\":10906:10923   */\n      add\n        /* \"#utility.yul\":10897:10903   */\n      dup7\n        /* \"#utility.yul\":10853:10924   */\n      tag_123\n      jump\t// in\n    tag_236:\n        /* \"#utility.yul\":10971:10980   */\n      dup2\n        /* \"#utility.yul\":10965:10969   */\n      dup2\n        /* \"#utility.yul\":10961:10981   */\n      sub\n        /* \"#utility.yul\":10956:10958   */\n      0x20\n        /* \"#utility.yul\":10945:10954   */\n      dup4\n        /* \"#utility.yul\":10941:10959   */\n      add\n        /* \"#utility.yul\":10934:10982   */\n      mstore\n        /* \"#utility.yul\":10999:11087   */\n      tag_237\n        /* \"#utility.yul\":11082:11086   */\n      dup2\n        /* \"#utility.yul\":11073:11079   */\n      dup5\n        /* \"#utility.yul\":11065:11071   */\n      dup7\n        /* \"#utility.yul\":10999:11087   */\n      tag_141\n      jump\t// in\n    tag_237:\n        /* \"#utility.yul\":10991:11087   */\n      swap1\n      pop\n        /* \"#utility.yul\":10651:11094   */\n      swap5\n      swap4\n      pop\n      pop\n      pop\n      pop\n      jump\t// out\n\n    auxdata: 0xa2646970667358221220f0ad8243ca6f5acd629b873bcc7bcd987ed6858ba87b0bf43686f2307a46f61d64736f6c634300081e0033\n}\n",
				"bytecode": {
					"linkReferences": {},
					"object": "608060405234801561000f575f5ffd5b506040516114233803806114238339818101604052810190610031919061030f565b5f73ffffffffffffffffffffffffffffffffffffffff168573ffffffffffffffffffffffffffffffffffffffff160361009f576040517f08c379a000000000000000000000000000000000000000000000000000000000815260040161009690610450565b60405180910390fd5b8460045f6101000a81548173ffffffffffffffffffffffffffffffffffffffff021916908373ffffffffffffffffffffffffffffffffffffffff1602179055503360055f6101000a81548173ffffffffffffffffffffffffffffffffffffffff021916908373ffffffffffffffffffffffffffffffffffffffff160217905550835f908161012d919061067e565b50826001908161013d919061067e565b50816002908161014d919061067e565b50806003908161015d919061067e565b50505050505061074d565b5f604051905090565b5f5ffd5b5f5ffd5b5f73ffffffffffffffffffffffffffffffffffffffff82169050919050565b5f6101a282610179565b9050919050565b6101b281610198565b81146101bc575f5ffd5b50565b5f815190506101cd816101a9565b92915050565b5f5ffd5b5f5ffd5b5f601f19601f8301169050919050565b7f4e487b71000000000000000000000000000000000000000000000000000000005f52604160045260245ffd5b610221826101db565b810181811067ffffffffffffffff821117156102405761023f6101eb565b5b80604052505050565b5f610252610168565b905061025e8282610218565b919050565b5f67ffffffffffffffff82111561027d5761027c6101eb565b5b610286826101db565b9050602081019050919050565b8281835e5f83830152505050565b5f6102b36102ae84610263565b610249565b9050828152602081018484840111156102cf576102ce6101d7565b5b6102da848285610293565b509392505050565b5f82601f8301126102f6576102f56101d3565b5b81516103068482602086016102a1565b91505092915050565b5f5f5f5f5f60a0868803121561032857610327610171565b5b5f610335888289016101bf565b955050602086015167ffffffffffffffff81111561035657610355610175565b5b610362888289016102e2565b945050604086015167ffffffffffffffff81111561038357610382610175565b5b61038f888289016102e2565b935050606086015167ffffffffffffffff8111156103b0576103af610175565b5b6103bc888289016102e2565b925050608086015167ffffffffffffffff8111156103dd576103dc610175565b5b6103e9888289016102e2565b9150509295509295909350565b5f82825260208201905092915050565b7f5661756c7420616464726573732063616e6e6f74206265207a65726f000000005f82015250565b5f61043a601c836103f6565b915061044582610406565b602082019050919050565b5f6020820190508181035f8301526104678161042e565b9050919050565b5f81519050919050565b7f4e487b71000000000000000000000000000000000000000000000000000000005f52602260045260245ffd5b5f60028204905060018216806104bc57607f821691505b6020821081036104cf576104ce610478565b5b50919050565b5f819050815f5260205f209050919050565b5f6020601f8301049050919050565b5f82821b905092915050565b5f600883026105317fffffffffffffffffffffffffffffffffffffffffffffffffffffffffffffffff826104f6565b61053b86836104f6565b95508019841693508086168417925050509392505050565b5f819050919050565b5f819050919050565b5f61057f61057a61057584610553565b61055c565b610553565b9050919050565b5f819050919050565b61059883610565565b6105ac6105a482610586565b848454610502565b825550505050565b5f5f905090565b6105c36105b4565b6105ce81848461058f565b505050565b5b818110156105f1576105e65f826105bb565b6001810190506105d4565b5050565b601f82111561063657610607816104d5565b610610846104e7565b8101602085101561061f578190505b61063361062b856104e7565b8301826105d3565b50505b505050565b5f82821c905092915050565b5f6106565f198460080261063b565b1980831691505092915050565b5f61066e8383610647565b9150826002028217905092915050565b6106878261046e565b67ffffffffffffffff8111156106a05761069f6101eb565b5b6106aa82546104a5565b6106b58282856105f5565b5f60209050601f8311600181146106e6575f84156106d4578287015190505b6106de8582610663565b865550610745565b601f1984166106f4866104d5565b5f5b8281101561071b578489015182556001820191506020850194506020810190506106f6565b868310156107385784890151610734601f891682610647565b8355505b6001600288020188555050505b505050505050565b610cc98061075a5f395ff3fe608060405260043610610089575f3560e01c806373dedacb1161005857806373dedacb1461013a5780637e79e8ba14610164578063893d20e81461018e578063a26e1186146101b8578063c802f1b4146101d457610090565b806317d7de7c146100945780632e1a7d4d146100be57806365cacaa4146100e65780636f9fb98a1461011057610090565b3661009057005b5f5ffd5b34801561009f575f5ffd5b506100a86101fe565b6040516100b59190610839565b60405180910390f35b3480156100c9575f5ffd5b506100e460048036038101906100df9190610894565b61028d565b005b3480156100f1575f5ffd5b506100fa61049b565b60405161010791906108fe565b60405180910390f35b34801561011b575f5ffd5b506101246104c3565b6040516101319190610926565b60405180910390f35b348015610145575f5ffd5b5061014e6104ca565b60405161015b9190610839565b60405180910390f35b34801561016f575f5ffd5b5061017861055a565b6040516101859190610839565b60405180910390f35b348015610199575f5ffd5b506101a26105ea565b6040516101af91906108fe565b60405180910390f35b6101d260048036038101906101cd91906109a0565b610612565b005b3480156101df575f5ffd5b506101e8610739565b6040516101f59190610839565b60405180910390f35b60605f805461020c90610a18565b80601f016020809104026020016040519081016040528092919081815260200182805461023890610a18565b80156102835780601f1061025a57610100808354040283529160200191610283565b820191905f5260205f20905b81548152906001019060200180831161026657829003601f168201915b5050505050905090565b60055f9054906101000a900473ffffffffffffffffffffffffffffffffffffffff1673ffffffffffffffffffffffffffffffffffffffff163373ffffffffffffffffffffffffffffffffffffffff161461031c576040517f08c379a000000000000000000000000000000000000000000000000000000000815260040161031390610a92565b60405180910390fd5b4781111561035f576040517f08c379a000000000000000000000000000000000000000000000000000000000815260040161035690610afa565b60405180910390fd5b5f60045f9054906101000a900473ffffffffffffffffffffffffffffffffffffffff1673ffffffffffffffffffffffffffffffffffffffff16826040516103a590610b45565b5f6040518083038185875af1925050503d805f81146103df576040519150601f19603f3d011682016040523d82523d5f602084013e6103e4565b606091505b5050905080610428576040517f08c379a000000000000000000000000000000000000000000000000000000000815260040161041f90610ba3565b60405180910390fd5b60045f9054906101000a900473ffffffffffffffffffffffffffffffffffffffff1673ffffffffffffffffffffffffffffffffffffffff167fc320bd2d56e1e01eafd93921a1e17a1fb2aa1185eb83b5ac6d561aaf023ca32e8360405161048f9190610926565b60405180910390a25050565b5f60045f9054906101000a900473ffffffffffffffffffffffffffffffffffffffff16905090565b5f47905090565b6060600280546104d990610a18565b80601f016020809104026020016040519081016040528092919081815260200182805461050590610a18565b80156105505780601f1061052757610100808354040283529160200191610550565b820191905f5260205f20905b81548152906001019060200180831161053357829003601f168201915b5050505050905090565b60606003805461056990610a18565b80601f016020809104026020016040519081016040528092919081815260200182805461059590610a18565b80156105e05780601f106105b7576101008083540402835291602001916105e0565b820191905f5260205f20905b8154815290600101906020018083116105c357829003601f168201915b5050505050905090565b5f60055f9054906101000a900473ffffffffffffffffffffffffffffffffffffffff16905090565b60055f9054906101000a900473ffffffffffffffffffffffffffffffffffffffff1673ffffffffffffffffffffffffffffffffffffffff163373ffffffffffffffffffffffffffffffffffffffff16146106a1576040517f08c379a000000000000000000000000000000000000000000000000000000000815260040161069890610a92565b60405180910390fd5b5f34116106e3576040517f08c379a00000000000000000000000000000000000000000000000000000000081526004016106da90610c0b565b60405180910390fd5b3373ffffffffffffffffffffffffffffffffffffffff167fdc559e34789c6351866bb164dc3bd177bc43842ff9fe42d8f1cef434ec71b96534848460405161072d93929190610c63565b60405180910390a25050565b60606001805461074890610a18565b80601f016020809104026020016040519081016040528092919081815260200182805461077490610a18565b80156107bf5780601f10610796576101008083540402835291602001916107bf565b820191905f5260205f20905b8154815290600101906020018083116107a257829003601f168201915b5050505050905090565b5f81519050919050565b5f82825260208201905092915050565b8281835e5f83830152505050565b5f601f19601f8301169050919050565b5f61080b826107c9565b61081581856107d3565b93506108258185602086016107e3565b61082e816107f1565b840191505092915050565b5f6020820190508181035f8301526108518184610801565b905092915050565b5f5ffd5b5f5ffd5b5f819050919050565b61087381610861565b811461087d575f5ffd5b50565b5f8135905061088e8161086a565b92915050565b5f602082840312156108a9576108a8610859565b5b5f6108b684828501610880565b91505092915050565b5f73ffffffffffffffffffffffffffffffffffffffff82169050919050565b5f6108e8826108bf565b9050919050565b6108f8816108de565b82525050565b5f6020820190506109115f8301846108ef565b92915050565b61092081610861565b82525050565b5f6020820190506109395f830184610917565b92915050565b5f5ffd5b5f5ffd5b5f5ffd5b5f5f83601f8401126109605761095f61093f565b5b8235905067ffffffffffffffff81111561097d5761097c610943565b5b60208301915083600182028301111561099957610998610947565b5b9250929050565b5f5f602083850312156109b6576109b5610859565b5b5f83013567ffffffffffffffff8111156109d3576109d261085d565b5b6109df8582860161094b565b92509250509250929050565b7f4e487b71000000000000000000000000000000000000000000000000000000005f52602260045260245ffd5b5f6002820490506001821680610a2f57607f821691505b602082108103610a4257610a416109eb565b5b50919050565b7f43616c6c6572206973206e6f7420746865206f776e65720000000000000000005f82015250565b5f610a7c6017836107d3565b9150610a8782610a48565b602082019050919050565b5f6020820190508181035f830152610aa981610a70565b9050919050565b7f496e73756666696369656e7420636f6e74726163742062616c616e63650000005f82015250565b5f610ae4601d836107d3565b9150610aef82610ab0565b602082019050919050565b5f6020820190508181035f830152610b1181610ad8565b9050919050565b5f81905092915050565b50565b5f610b305f83610b18565b9150610b3b82610b22565b5f82019050919050565b5f610b4f82610b25565b9150819050919050565b7f5769746864726177616c206661696c65640000000000000000000000000000005f82015250565b5f610b8d6011836107d3565b9150610b9882610b59565b602082019050919050565b5f6020820190508181035f830152610bba81610b81565b9050919050565b7f4d7573742073656e6420736f6d652045746865720000000000000000000000005f82015250565b5f610bf56014836107d3565b9150610c0082610bc1565b602082019050919050565b5f6020820190508181035f830152610c2281610be9565b9050919050565b828183375f83830152505050565b5f610c4283856107d3565b9350610c4f838584610c29565b610c58836107f1565b840190509392505050565b5f604082019050610c765f830186610917565b8181036020830152610c89818486610c37565b905094935050505056fea2646970667358221220f0ad8243ca6f5acd629b873bcc7bcd987ed6858ba87b0bf43686f2307a46f61d64736f6c634300081e0033",
					"opcodes": "PUSH1 0x80 PUSH1 0x40 MSTORE CALLVALUE DUP1 ISZERO PUSH2 0xF JUMPI PUSH0 PUSH0 REVERT JUMPDEST POP PUSH1 0x40 MLOAD PUSH2 0x1423 CODESIZE SUB DUP1 PUSH2 0x1423 DUP4 CODECOPY DUP2 DUP2 ADD PUSH1 0x40 MSTORE DUP2 ADD SWAP1 PUSH2 0x31 SWAP2 SWAP1 PUSH2 0x30F JUMP JUMPDEST PUSH0 PUSH20 0xFFFFFFFFFFFFFFFFFFFFFFFFFFFFFFFFFFFFFFFF AND DUP6 PUSH20 0xFFFFFFFFFFFFFFFFFFFFFFFFFFFFFFFFFFFFFFFF AND SUB PUSH2 0x9F JUMPI PUSH1 0x40 MLOAD PUSH32 0x8C379A000000000000000000000000000000000000000000000000000000000 DUP2 MSTORE PUSH1 0x4 ADD PUSH2 0x96 SWAP1 PUSH2 0x450 JUMP JUMPDEST PUSH1 0x40 MLOAD DUP1 SWAP2 SUB SWAP1 REVERT JUMPDEST DUP5 PUSH1 0x4 PUSH0 PUSH2 0x100 EXP DUP2 SLOAD DUP2 PUSH20 0xFFFFFFFFFFFFFFFFFFFFFFFFFFFFFFFFFFFFFFFF MUL NOT AND SWAP1 DUP4 PUSH20 0xFFFFFFFFFFFFFFFFFFFFFFFFFFFFFFFFFFFFFFFF AND MUL OR SWAP1 SSTORE POP CALLER PUSH1 0x5 PUSH0 PUSH2 0x100 EXP DUP2 SLOAD DUP2 PUSH20 0xFFFFFFFFFFFFFFFFFFFFFFFFFFFFFFFFFFFFFFFF MUL NOT AND SWAP1 DUP4 PUSH20 0xFFFFFFFFFFFFFFFFFFFFFFFFFFFFFFFFFFFFFFFF AND MUL OR SWAP1 SSTORE POP DUP4 PUSH0 SWAP1 DUP2 PUSH2 0x12D SWAP2 SWAP1 PUSH2 0x67E JUMP JUMPDEST POP DUP3 PUSH1 0x1 SWAP1 DUP2 PUSH2 0x13D SWAP2 SWAP1 PUSH2 0x67E JUMP JUMPDEST POP DUP2 PUSH1 0x2 SWAP1 DUP2 PUSH2 0x14D SWAP2 SWAP1 PUSH2 0x67E JUMP JUMPDEST POP DUP1 PUSH1 0x3 SWAP1 DUP2 PUSH2 0x15D SWAP2 SWAP1 PUSH2 0x67E JUMP JUMPDEST POP POP POP POP POP POP PUSH2 0x74D JUMP JUMPDEST PUSH0 PUSH1 0x40 MLOAD SWAP1 POP SWAP1 JUMP JUMPDEST PUSH0 PUSH0 REVERT JUMPDEST PUSH0 PUSH0 REVERT JUMPDEST PUSH0 PUSH20 0xFFFFFFFFFFFFFFFFFFFFFFFFFFFFFFFFFFFFFFFF DUP3 AND SWAP1 POP SWAP2 SWAP1 POP JUMP JUMPDEST PUSH0 PUSH2 0x1A2 DUP3 PUSH2 0x179 JUMP JUMPDEST SWAP1 POP SWAP2 SWAP1 POP JUMP JUMPDEST PUSH2 0x1B2 DUP2 PUSH2 0x198 JUMP JUMPDEST DUP2 EQ PUSH2 0x1BC JUMPI PUSH0 PUSH0 REVERT JUMPDEST POP JUMP JUMPDEST PUSH0 DUP2 MLOAD SWAP1 POP PUSH2 0x1CD DUP2 PUSH2 0x1A9 JUMP JUMPDEST SWAP3 SWAP2 POP POP JUMP JUMPDEST PUSH0 PUSH0 REVERT JUMPDEST PUSH0 PUSH0 REVERT JUMPDEST PUSH0 PUSH1 0x1F NOT PUSH1 0x1F DUP4 ADD AND SWAP1 POP SWAP2 SWAP1 POP JUMP JUMPDEST PUSH32 0x4E487B7100000000000000000000000000000000000000000000000000000000 PUSH0 MSTORE PUSH1 0x41 PUSH1 0x4 MSTORE PUSH1 0x24 PUSH0 REVERT JUMPDEST PUSH2 0x221 DUP3 PUSH2 0x1DB JUMP JUMPDEST DUP2 ADD DUP2 DUP2 LT PUSH8 0xFFFFFFFFFFFFFFFF DUP3 GT OR ISZERO PUSH2 0x240 JUMPI PUSH2 0x23F PUSH2 0x1EB JUMP JUMPDEST JUMPDEST DUP1 PUSH1 0x40 MSTORE POP POP POP JUMP JUMPDEST PUSH0 PUSH2 0x252 PUSH2 0x168 JUMP JUMPDEST SWAP1 POP PUSH2 0x25E DUP3 DUP3 PUSH2 0x218 JUMP JUMPDEST SWAP2 SWAP1 POP JUMP JUMPDEST PUSH0 PUSH8 0xFFFFFFFFFFFFFFFF DUP3 GT ISZERO PUSH2 0x27D JUMPI PUSH2 0x27C PUSH2 0x1EB JUMP JUMPDEST JUMPDEST PUSH2 0x286 DUP3 PUSH2 0x1DB JUMP JUMPDEST SWAP1 POP PUSH1 0x20 DUP2 ADD SWAP1 POP SWAP2 SWAP1 POP JUMP JUMPDEST DUP3 DUP2 DUP4 MCOPY PUSH0 DUP4 DUP4 ADD MSTORE POP POP POP JUMP JUMPDEST PUSH0 PUSH2 0x2B3 PUSH2 0x2AE DUP5 PUSH2 0x263 JUMP JUMPDEST PUSH2 0x249 JUMP JUMPDEST SWAP1 POP DUP3 DUP2 MSTORE PUSH1 0x20 DUP2 ADD DUP5 DUP5 DUP5 ADD GT ISZERO PUSH2 0x2CF JUMPI PUSH2 0x2CE PUSH2 0x1D7 JUMP JUMPDEST JUMPDEST PUSH2 0x2DA DUP5 DUP3 DUP6 PUSH2 0x293 JUMP JUMPDEST POP SWAP4 SWAP3 POP POP POP JUMP JUMPDEST PUSH0 DUP3 PUSH1 0x1F DUP4 ADD SLT PUSH2 0x2F6 JUMPI PUSH2 0x2F5 PUSH2 0x1D3 JUMP JUMPDEST JUMPDEST DUP2 MLOAD PUSH2 0x306 DUP5 DUP3 PUSH1 0x20 DUP7 ADD PUSH2 0x2A1 JUMP JUMPDEST SWAP2 POP POP SWAP3 SWAP2 POP POP JUMP JUMPDEST PUSH0 PUSH0 PUSH0 PUSH0 PUSH0 PUSH1 0xA0 DUP7 DUP9 SUB SLT ISZERO PUSH2 0x328 JUMPI PUSH2 0x327 PUSH2 0x171 JUMP JUMPDEST JUMPDEST PUSH0 PUSH2 0x335 DUP9 DUP3 DUP10 ADD PUSH2 0x1BF JUMP JUMPDEST SWAP6 POP POP PUSH1 0x20 DUP7 ADD MLOAD PUSH8 0xFFFFFFFFFFFFFFFF DUP2 GT ISZERO PUSH2 0x356 JUMPI PUSH2 0x355 PUSH2 0x175 JUMP JUMPDEST JUMPDEST PUSH2 0x362 DUP9 DUP3 DUP10 ADD PUSH2 0x2E2 JUMP JUMPDEST SWAP5 POP POP PUSH1 0x40 DUP7 ADD MLOAD PUSH8 0xFFFFFFFFFFFFFFFF DUP2 GT ISZERO PUSH2 0x383 JUMPI PUSH2 0x382 PUSH2 0x175 JUMP JUMPDEST JUMPDEST PUSH2 0x38F DUP9 DUP3 DUP10 ADD PUSH2 0x2E2 JUMP JUMPDEST SWAP4 POP POP PUSH1 0x60 DUP7 ADD MLOAD PUSH8 0xFFFFFFFFFFFFFFFF DUP2 GT ISZERO PUSH2 0x3B0 JUMPI PUSH2 0x3AF PUSH2 0x175 JUMP JUMPDEST JUMPDEST PUSH2 0x3BC DUP9 DUP3 DUP10 ADD PUSH2 0x2E2 JUMP JUMPDEST SWAP3 POP POP PUSH1 0x80 DUP7 ADD MLOAD PUSH8 0xFFFFFFFFFFFFFFFF DUP2 GT ISZERO PUSH2 0x3DD JUMPI PUSH2 0x3DC PUSH2 0x175 JUMP JUMPDEST JUMPDEST PUSH2 0x3E9 DUP9 DUP3 DUP10 ADD PUSH2 0x2E2 JUMP JUMPDEST SWAP2 POP POP SWAP3 SWAP6 POP SWAP3 SWAP6 SWAP1 SWAP4 POP JUMP JUMPDEST PUSH0 DUP3 DUP3 MSTORE PUSH1 0x20 DUP3 ADD SWAP1 POP SWAP3 SWAP2 POP POP JUMP JUMPDEST PUSH32 0x5661756C7420616464726573732063616E6E6F74206265207A65726F00000000 PUSH0 DUP3 ADD MSTORE POP JUMP JUMPDEST PUSH0 PUSH2 0x43A PUSH1 0x1C DUP4 PUSH2 0x3F6 JUMP JUMPDEST SWAP2 POP PUSH2 0x445 DUP3 PUSH2 0x406 JUMP JUMPDEST PUSH1 0x20 DUP3 ADD SWAP1 POP SWAP2 SWAP1 POP JUMP JUMPDEST PUSH0 PUSH1 0x20 DUP3 ADD SWAP1 POP DUP2 DUP2 SUB PUSH0 DUP4 ADD MSTORE PUSH2 0x467 DUP2 PUSH2 0x42E JUMP JUMPDEST SWAP1 POP SWAP2 SWAP1 POP JUMP JUMPDEST PUSH0 DUP2 MLOAD SWAP1 POP SWAP2 SWAP1 POP JUMP JUMPDEST PUSH32 0x4E487B7100000000000000000000000000000000000000000000000000000000 PUSH0 MSTORE PUSH1 0x22 PUSH1 0x4 MSTORE PUSH1 0x24 PUSH0 REVERT JUMPDEST PUSH0 PUSH1 0x2 DUP3 DIV SWAP1 POP PUSH1 0x1 DUP3 AND DUP1 PUSH2 0x4BC JUMPI PUSH1 0x7F DUP3 AND SWAP2 POP JUMPDEST PUSH1 0x20 DUP3 LT DUP2 SUB PUSH2 0x4CF JUMPI PUSH2 0x4CE PUSH2 0x478 JUMP JUMPDEST JUMPDEST POP SWAP2 SWAP1 POP JUMP JUMPDEST PUSH0 DUP2 SWAP1 POP DUP2 PUSH0 MSTORE PUSH1 0x20 PUSH0 KECCAK256 SWAP1 POP SWAP2 SWAP1 POP JUMP JUMPDEST PUSH0 PUSH1 0x20 PUSH1 0x1F DUP4 ADD DIV SWAP1 POP SWAP2 SWAP1 POP JUMP JUMPDEST PUSH0 DUP3 DUP3 SHL SWAP1 POP SWAP3 SWAP2 POP POP JUMP JUMPDEST PUSH0 PUSH1 0x8 DUP4 MUL PUSH2 0x531 PUSH32 0xFFFFFFFFFFFFFFFFFFFFFFFFFFFFFFFFFFFFFFFFFFFFFFFFFFFFFFFFFFFFFFFF DUP3 PUSH2 0x4F6 JUMP JUMPDEST PUSH2 0x53B DUP7 DUP4 PUSH2 0x4F6 JUMP JUMPDEST SWAP6 POP DUP1 NOT DUP5 AND SWAP4 POP DUP1 DUP7 AND DUP5 OR SWAP3 POP POP POP SWAP4 SWAP3 POP POP POP JUMP JUMPDEST PUSH0 DUP2 SWAP1 POP SWAP2 SWAP1 POP JUMP JUMPDEST PUSH0 DUP2 SWAP1 POP SWAP2 SWAP1 POP JUMP JUMPDEST PUSH0 PUSH2 0x57F PUSH2 0x57A PUSH2 0x575 DUP5 PUSH2 0x553 JUMP JUMPDEST PUSH2 0x55C JUMP JUMPDEST PUSH2 0x553 JUMP JUMPDEST SWAP1 POP SWAP2 SWAP1 POP JUMP JUMPDEST PUSH0 DUP2 SWAP1 POP SWAP2 SWAP1 POP JUMP JUMPDEST PUSH2 0x598 DUP4 PUSH2 0x565 JUMP JUMPDEST PUSH2 0x5AC PUSH2 0x5A4 DUP3 PUSH2 0x586 JUMP JUMPDEST DUP5 DUP5 SLOAD PUSH2 0x502 JUMP JUMPDEST DUP3 SSTORE POP POP POP POP JUMP JUMPDEST PUSH0 PUSH0 SWAP1 POP SWAP1 JUMP JUMPDEST PUSH2 0x5C3 PUSH2 0x5B4 JUMP JUMPDEST PUSH2 0x5CE DUP2 DUP5 DUP5 PUSH2 0x58F JUMP JUMPDEST POP POP POP JUMP JUMPDEST JUMPDEST DUP2 DUP2 LT ISZERO PUSH2 0x5F1 JUMPI PUSH2 0x5E6 PUSH0 DUP3 PUSH2 0x5BB JUMP JUMPDEST PUSH1 0x1 DUP2 ADD SWAP1 POP PUSH2 0x5D4 JUMP JUMPDEST POP POP JUMP JUMPDEST PUSH1 0x1F DUP3 GT ISZERO PUSH2 0x636 JUMPI PUSH2 0x607 DUP2 PUSH2 0x4D5 JUMP JUMPDEST PUSH2 0x610 DUP5 PUSH2 0x4E7 JUMP JUMPDEST DUP2 ADD PUSH1 0x20 DUP6 LT ISZERO PUSH2 0x61F JUMPI DUP2 SWAP1 POP JUMPDEST PUSH2 0x633 PUSH2 0x62B DUP6 PUSH2 0x4E7 JUMP JUMPDEST DUP4 ADD DUP3 PUSH2 0x5D3 JUMP JUMPDEST POP POP JUMPDEST POP POP POP JUMP JUMPDEST PUSH0 DUP3 DUP3 SHR SWAP1 POP SWAP3 SWAP2 POP POP JUMP JUMPDEST PUSH0 PUSH2 0x656 PUSH0 NOT DUP5 PUSH1 0x8 MUL PUSH2 0x63B JUMP JUMPDEST NOT DUP1 DUP4 AND SWAP2 POP POP SWAP3 SWAP2 POP POP JUMP JUMPDEST PUSH0 PUSH2 0x66E DUP4 DUP4 PUSH2 0x647 JUMP JUMPDEST SWAP2 POP DUP3 PUSH1 0x2 MUL DUP3 OR SWAP1 POP SWAP3 SWAP2 POP POP JUMP JUMPDEST PUSH2 0x687 DUP3 PUSH2 0x46E JUMP JUMPDEST PUSH8 0xFFFFFFFFFFFFFFFF DUP2 GT ISZERO PUSH2 0x6A0 JUMPI PUSH2 0x69F PUSH2 0x1EB JUMP JUMPDEST JUMPDEST PUSH2 0x6AA DUP3 SLOAD PUSH2 0x4A5 JUMP JUMPDEST PUSH2 0x6B5 DUP3 DUP3 DUP6 PUSH2 0x5F5 JUMP JUMPDEST PUSH0 PUSH1 0x20 SWAP1 POP PUSH1 0x1F DUP4 GT PUSH1 0x1 DUP2 EQ PUSH2 0x6E6 JUMPI PUSH0 DUP5 ISZERO PUSH2 0x6D4 JUMPI DUP3 DUP8 ADD MLOAD SWAP1 POP JUMPDEST PUSH2 0x6DE DUP6 DUP3 PUSH2 0x663 JUMP JUMPDEST DUP7 SSTORE POP PUSH2 0x745 JUMP JUMPDEST PUSH1 0x1F NOT DUP5 AND PUSH2 0x6F4 DUP7 PUSH2 0x4D5 JUMP JUMPDEST PUSH0 JUMPDEST DUP3 DUP2 LT ISZERO PUSH2 0x71B JUMPI DUP5 DUP10 ADD MLOAD DUP3 SSTORE PUSH1 0x1 DUP3 ADD SWAP2 POP PUSH1 0x20 DUP6 ADD SWAP5 POP PUSH1 0x20 DUP2 ADD SWAP1 POP PUSH2 0x6F6 JUMP JUMPDEST DUP7 DUP4 LT ISZERO PUSH2 0x738 JUMPI DUP5 DUP10 ADD MLOAD PUSH2 0x734 PUSH1 0x1F DUP10 AND DUP3 PUSH2 0x647 JUMP JUMPDEST DUP4 SSTORE POP JUMPDEST PUSH1 0x1 PUSH1 0x2 DUP9 MUL ADD DUP9 SSTORE POP POP POP JUMPDEST POP POP POP POP POP POP JUMP JUMPDEST PUSH2 0xCC9 DUP1 PUSH2 0x75A PUSH0 CODECOPY PUSH0 RETURN INVALID PUSH1 0x80 PUSH1 0x40 MSTORE PUSH1 0x4 CALLDATASIZE LT PUSH2 0x89 JUMPI PUSH0 CALLDATALOAD PUSH1 0xE0 SHR DUP1 PUSH4 0x73DEDACB GT PUSH2 0x58 JUMPI DUP1 PUSH4 0x73DEDACB EQ PUSH2 0x13A JUMPI DUP1 PUSH4 0x7E79E8BA EQ PUSH2 0x164 JUMPI DUP1 PUSH4 0x893D20E8 EQ PUSH2 0x18E JUMPI DUP1 PUSH4 0xA26E1186 EQ PUSH2 0x1B8 JUMPI DUP1 PUSH4 0xC802F1B4 EQ PUSH2 0x1D4 JUMPI PUSH2 0x90 JUMP JUMPDEST DUP1 PUSH4 0x17D7DE7C EQ PUSH2 0x94 JUMPI DUP1 PUSH4 0x2E1A7D4D EQ PUSH2 0xBE JUMPI DUP1 PUSH4 0x65CACAA4 EQ PUSH2 0xE6 JUMPI DUP1 PUSH4 0x6F9FB98A EQ PUSH2 0x110 JUMPI PUSH2 0x90 JUMP JUMPDEST CALLDATASIZE PUSH2 0x90 JUMPI STOP JUMPDEST PUSH0 PUSH0 REVERT JUMPDEST CALLVALUE DUP1 ISZERO PUSH2 0x9F JUMPI PUSH0 PUSH0 REVERT JUMPDEST POP PUSH2 0xA8 PUSH2 0x1FE JUMP JUMPDEST PUSH1 0x40 MLOAD PUSH2 0xB5 SWAP2 SWAP1 PUSH2 0x839 JUMP JUMPDEST PUSH1 0x40 MLOAD DUP1 SWAP2 SUB SWAP1 RETURN JUMPDEST CALLVALUE DUP1 ISZERO PUSH2 0xC9 JUMPI PUSH0 PUSH0 REVERT JUMPDEST POP PUSH2 0xE4 PUSH1 0x4 DUP1 CALLDATASIZE SUB DUP2 ADD SWAP1 PUSH2 0xDF SWAP2 SWAP1 PUSH2 0x894 JUMP JUMPDEST PUSH2 0x28D JUMP JUMPDEST STOP JUMPDEST CALLVALUE DUP1 ISZERO PUSH2 0xF1 JUMPI PUSH0 PUSH0 REVERT JUMPDEST POP PUSH2 0xFA PUSH2 0x49B JUMP JUMPDEST PUSH1 0x40 MLOAD PUSH2 0x107 SWAP2 SWAP1 PUSH2 0x8FE JUMP JUMPDEST PUSH1 0x40 MLOAD DUP1 SWAP2 SUB SWAP1 RETURN JUMPDEST CALLVALUE DUP1 ISZERO PUSH2 0x11B JUMPI PUSH0 PUSH0 REVERT JUMPDEST POP PUSH2 0x124 PUSH2 0x4C3 JUMP JUMPDEST PUSH1 0x40 MLOAD PUSH2 0x131 SWAP2 SWAP1 PUSH2 0x926 JUMP JUMPDEST PUSH1 0x40 MLOAD DUP1 SWAP2 SUB SWAP1 RETURN JUMPDEST CALLVALUE DUP1 ISZERO PUSH2 0x145 JUMPI PUSH0 PUSH0 REVERT JUMPDEST POP PUSH2 0x14E PUSH2 0x4CA JUMP JUMPDEST PUSH1 0x40 MLOAD PUSH2 0x15B SWAP2 SWAP1 PUSH2 0x839 JUMP JUMPDEST PUSH1 0x40 MLOAD DUP1 SWAP2 SUB SWAP1 RETURN JUMPDEST CALLVALUE DUP1 ISZERO PUSH2 0x16F JUMPI PUSH0 PUSH0 REVERT JUMPDEST POP PUSH2 0x178 PUSH2 0x55A JUMP JUMPDEST PUSH1 0x40 MLOAD PUSH2 0x185 SWAP2 SWAP1 PUSH2 0x839 JUMP JUMPDEST PUSH1 0x40 MLOAD DUP1 SWAP2 SUB SWAP1 RETURN JUMPDEST CALLVALUE DUP1 ISZERO PUSH2 0x199 JUMPI PUSH0 PUSH0 REVERT JUMPDEST POP PUSH2 0x1A2 PUSH2 0x5EA JUMP JUMPDEST PUSH1 0x40 MLOAD PUSH2 0x1AF SWAP2 SWAP1 PUSH2 0x8FE JUMP JUMPDEST PUSH1 0x40 MLOAD DUP1 SWAP2 SUB SWAP1 RETURN JUMPDEST PUSH2 0x1D2 PUSH1 0x4 DUP1 CALLDATASIZE SUB DUP2 ADD SWAP1 PUSH2 0x1CD SWAP2 SWAP1 PUSH2 0x9A0 JUMP JUMPDEST PUSH2 0x612 JUMP JUMPDEST STOP JUMPDEST CALLVALUE DUP1 ISZERO PUSH2 0x1DF JUMPI PUSH0 PUSH0 REVERT JUMPDEST POP PUSH2 0x1E8 PUSH2 0x739 JUMP JUMPDEST PUSH1 0x40 MLOAD PUSH2 0x1F5 SWAP2 SWAP1 PUSH2 0x839 JUMP JUMPDEST PUSH1 0x40 MLOAD DUP1 SWAP2 SUB SWAP1 RETURN JUMPDEST PUSH1 0x60 PUSH0 DUP1 SLOAD PUSH2 0x20C SWAP1 PUSH2 0xA18 JUMP JUMPDEST DUP1 PUSH1 0x1F ADD PUSH1 0x20 DUP1 SWAP2 DIV MUL PUSH1 0x20 ADD PUSH1 0x40 MLOAD SWAP1 DUP2 ADD PUSH1 0x40 MSTORE DUP1 SWAP3 SWAP2 SWAP1 DUP2 DUP2 MSTORE PUSH1 0x20 ADD DUP3 DUP1 SLOAD PUSH2 0x238 SWAP1 PUSH2 0xA18 JUMP JUMPDEST DUP1 ISZERO PUSH2 0x283 JUMPI DUP1 PUSH1 0x1F LT PUSH2 0x25A JUMPI PUSH2 0x100 DUP1 DUP4 SLOAD DIV MUL DUP4 MSTORE SWAP2 PUSH1 0x20 ADD SWAP2 PUSH2 0x283 JUMP JUMPDEST DUP3 ADD SWAP2 SWAP1 PUSH0 MSTORE PUSH1 0x20 PUSH0 KECCAK256 SWAP1 JUMPDEST DUP2 SLOAD DUP2 MSTORE SWAP1 PUSH1 0x1 ADD SWAP1 PUSH1 0x20 ADD DUP1 DUP4 GT PUSH2 0x266 JUMPI DUP3 SWAP1 SUB PUSH1 0x1F AND DUP3 ADD SWAP2 JUMPDEST POP POP POP POP POP SWAP1 POP SWAP1 JUMP JUMPDEST PUSH1 0x5 PUSH0 SWAP1 SLOAD SWAP1 PUSH2 0x100 EXP SWAP1 DIV PUSH20 0xFFFFFFFFFFFFFFFFFFFFFFFFFFFFFFFFFFFFFFFF AND PUSH20 0xFFFFFFFFFFFFFFFFFFFFFFFFFFFFFFFFFFFFFFFF AND CALLER PUSH20 0xFFFFFFFFFFFFFFFFFFFFFFFFFFFFFFFFFFFFFFFF AND EQ PUSH2 0x31C JUMPI PUSH1 0x40 MLOAD PUSH32 0x8C379A000000000000000000000000000000000000000000000000000000000 DUP2 MSTORE PUSH1 0x4 ADD PUSH2 0x313 SWAP1 PUSH2 0xA92 JUMP JUMPDEST PUSH1 0x40 MLOAD DUP1 SWAP2 SUB SWAP1 REVERT JUMPDEST SELFBALANCE DUP2 GT ISZERO PUSH2 0x35F JUMPI PUSH1 0x40 MLOAD PUSH32 0x8C379A000000000000000000000000000000000000000000000000000000000 DUP2 MSTORE PUSH1 0x4 ADD PUSH2 0x356 SWAP1 PUSH2 0xAFA JUMP JUMPDEST PUSH1 0x40 MLOAD DUP1 SWAP2 SUB SWAP1 REVERT JUMPDEST PUSH0 PUSH1 0x4 PUSH0 SWAP1 SLOAD SWAP1 PUSH2 0x100 EXP SWAP1 DIV PUSH20 0xFFFFFFFFFFFFFFFFFFFFFFFFFFFFFFFFFFFFFFFF AND PUSH20 0xFFFFFFFFFFFFFFFFFFFFFFFFFFFFFFFFFFFFFFFF AND DUP3 PUSH1 0x40 MLOAD PUSH2 0x3A5 SWAP1 PUSH2 0xB45 JUMP JUMPDEST PUSH0 PUSH1 0x40 MLOAD DUP1 DUP4 SUB DUP2 DUP6 DUP8 GAS CALL SWAP3 POP POP POP RETURNDATASIZE DUP1 PUSH0 DUP2 EQ PUSH2 0x3DF JUMPI PUSH1 0x40 MLOAD SWAP2 POP PUSH1 0x1F NOT PUSH1 0x3F RETURNDATASIZE ADD AND DUP3 ADD PUSH1 0x40 MSTORE RETURNDATASIZE DUP3 MSTORE RETURNDATASIZE PUSH0 PUSH1 0x20 DUP5 ADD RETURNDATACOPY PUSH2 0x3E4 JUMP JUMPDEST PUSH1 0x60 SWAP2 POP JUMPDEST POP POP SWAP1 POP DUP1 PUSH2 0x428 JUMPI PUSH1 0x40 MLOAD PUSH32 0x8C379A000000000000000000000000000000000000000000000000000000000 DUP2 MSTORE PUSH1 0x4 ADD PUSH2 0x41F SWAP1 PUSH2 0xBA3 JUMP JUMPDEST PUSH1 0x40 MLOAD DUP1 SWAP2 SUB SWAP1 REVERT JUMPDEST PUSH1 0x4 PUSH0 SWAP1 SLOAD SWAP1 PUSH2 0x100 EXP SWAP1 DIV PUSH20 0xFFFFFFFFFFFFFFFFFFFFFFFFFFFFFFFFFFFFFFFF AND PUSH20 0xFFFFFFFFFFFFFFFFFFFFFFFFFFFFFFFFFFFFFFFF AND PUSH32 0xC320BD2D56E1E01EAFD93921A1E17A1FB2AA1185EB83B5AC6D561AAF023CA32E DUP4 PUSH1 0x40 MLOAD PUSH2 0x48F SWAP2 SWAP1 PUSH2 0x926 JUMP JUMPDEST PUSH1 0x40 MLOAD DUP1 SWAP2 SUB SWAP1 LOG2 POP POP JUMP JUMPDEST PUSH0 PUSH1 0x4 PUSH0 SWAP1 SLOAD SWAP1 PUSH2 0x100 EXP SWAP1 DIV PUSH20 0xFFFFFFFFFFFFFFFFFFFFFFFFFFFFFFFFFFFFFFFF AND SWAP1 POP SWAP1 JUMP JUMPDEST PUSH0 SELFBALANCE SWAP1 POP SWAP1 JUMP JUMPDEST PUSH1 0x60 PUSH1 0x2 DUP1 SLOAD PUSH2 0x4D9 SWAP1 PUSH2 0xA18 JUMP JUMPDEST DUP1 PUSH1 0x1F ADD PUSH1 0x20 DUP1 SWAP2 DIV MUL PUSH1 0x20 ADD PUSH1 0x40 MLOAD SWAP1 DUP2 ADD PUSH1 0x40 MSTORE DUP1 SWAP3 SWAP2 SWAP1 DUP2 DUP2 MSTORE PUSH1 0x20 ADD DUP3 DUP1 SLOAD PUSH2 0x505 SWAP1 PUSH2 0xA18 JUMP JUMPDEST DUP1 ISZERO PUSH2 0x550 JUMPI DUP1 PUSH1 0x1F LT PUSH2 0x527 JUMPI PUSH2 0x100 DUP1 DUP4 SLOAD DIV MUL DUP4 MSTORE SWAP2 PUSH1 0x20 ADD SWAP2 PUSH2 0x550 JUMP JUMPDEST DUP3 ADD SWAP2 SWAP1 PUSH0 MSTORE PUSH1 0x20 PUSH0 KECCAK256 SWAP1 JUMPDEST DUP2 SLOAD DUP2 MSTORE SWAP1 PUSH1 0x1 ADD SWAP1 PUSH1 0x20 ADD DUP1 DUP4 GT PUSH2 0x533 JUMPI DUP3 SWAP1 SUB PUSH1 0x1F AND DUP3 ADD SWAP2 JUMPDEST POP POP POP POP POP SWAP1 POP SWAP1 JUMP JUMPDEST PUSH1 0x60 PUSH1 0x3 DUP1 SLOAD PUSH2 0x569 SWAP1 PUSH2 0xA18 JUMP JUMPDEST DUP1 PUSH1 0x1F ADD PUSH1 0x20 DUP1 SWAP2 DIV MUL PUSH1 0x20 ADD PUSH1 0x40 MLOAD SWAP1 DUP2 ADD PUSH1 0x40 MSTORE DUP1 SWAP3 SWAP2 SWAP1 DUP2 DUP2 MSTORE PUSH1 0x20 ADD DUP3 DUP1 SLOAD PUSH2 0x595 SWAP1 PUSH2 0xA18 JUMP JUMPDEST DUP1 ISZERO PUSH2 0x5E0 JUMPI DUP1 PUSH1 0x1F LT PUSH2 0x5B7 JUMPI PUSH2 0x100 DUP1 DUP4 SLOAD DIV MUL DUP4 MSTORE SWAP2 PUSH1 0x20 ADD SWAP2 PUSH2 0x5E0 JUMP JUMPDEST DUP3 ADD SWAP2 SWAP1 PUSH0 MSTORE PUSH1 0x20 PUSH0 KECCAK256 SWAP1 JUMPDEST DUP2 SLOAD DUP2 MSTORE SWAP1 PUSH1 0x1 ADD SWAP1 PUSH1 0x20 ADD DUP1 DUP4 GT PUSH2 0x5C3 JUMPI DUP3 SWAP1 SUB PUSH1 0x1F AND DUP3 ADD SWAP2 JUMPDEST POP POP POP POP POP SWAP1 POP SWAP1 JUMP JUMPDEST PUSH0 PUSH1 0x5 PUSH0 SWAP1 SLOAD SWAP1 PUSH2 0x100 EXP SWAP1 DIV PUSH20 0xFFFFFFFFFFFFFFFFFFFFFFFFFFFFFFFFFFFFFFFF AND SWAP1 POP SWAP1 JUMP JUMPDEST PUSH1 0x5 PUSH0 SWAP1 SLOAD SWAP1 PUSH2 0x100 EXP SWAP1 DIV PUSH20 0xFFFFFFFFFFFFFFFFFFFFFFFFFFFFFFFFFFFFFFFF AND PUSH20 0xFFFFFFFFFFFFFFFFFFFFFFFFFFFFFFFFFFFFFFFF AND CALLER PUSH20 0xFFFFFFFFFFFFFFFFFFFFFFFFFFFFFFFFFFFFFFFF AND EQ PUSH2 0x6A1 JUMPI PUSH1 0x40 MLOAD PUSH32 0x8C379A000000000000000000000000000000000000000000000000000000000 DUP2 MSTORE PUSH1 0x4 ADD PUSH2 0x698 SWAP1 PUSH2 0xA92 JUMP JUMPDEST PUSH1 0x40 MLOAD DUP1 SWAP2 SUB SWAP1 REVERT JUMPDEST PUSH0 CALLVALUE GT PUSH2 0x6E3 JUMPI PUSH1 0x40 MLOAD PUSH32 0x8C379A000000000000000000000000000000000000000000000000000000000 DUP2 MSTORE PUSH1 0x4 ADD PUSH2 0x6DA SWAP1 PUSH2 0xC0B JUMP JUMPDEST PUSH1 0x40 MLOAD DUP1 SWAP2 SUB SWAP1 REVERT JUMPDEST CALLER PUSH20 0xFFFFFFFFFFFFFFFFFFFFFFFFFFFFFFFFFFFFFFFF AND PUSH32 0xDC559E34789C6351866BB164DC3BD177BC43842FF9FE42D8F1CEF434EC71B965 CALLVALUE DUP5 DUP5 PUSH1 0x40 MLOAD PUSH2 0x72D SWAP4 SWAP3 SWAP2 SWAP1 PUSH2 0xC63 JUMP JUMPDEST PUSH1 0x40 MLOAD DUP1 SWAP2 SUB SWAP1 LOG2 POP POP JUMP JUMPDEST PUSH1 0x60 PUSH1 0x1 DUP1 SLOAD PUSH2 0x748 SWAP1 PUSH2 0xA18 JUMP JUMPDEST DUP1 PUSH1 0x1F ADD PUSH1 0x20 DUP1 SWAP2 DIV MUL PUSH1 0x20 ADD PUSH1 0x40 MLOAD SWAP1 DUP2 ADD PUSH1 0x40 MSTORE DUP1 SWAP3 SWAP2 SWAP1 DUP2 DUP2 MSTORE PUSH1 0x20 ADD DUP3 DUP1 SLOAD PUSH2 0x774 SWAP1 PUSH2 0xA18 JUMP JUMPDEST DUP1 ISZERO PUSH2 0x7BF JUMPI DUP1 PUSH1 0x1F LT PUSH2 0x796 JUMPI PUSH2 0x100 DUP1 DUP4 SLOAD DIV MUL DUP4 MSTORE SWAP2 PUSH1 0x20 ADD SWAP2 PUSH2 0x7BF JUMP JUMPDEST DUP3 ADD SWAP2 SWAP1 PUSH0 MSTORE PUSH1 0x20 PUSH0 KECCAK256 SWAP1 JUMPDEST DUP2 SLOAD DUP2 MSTORE SWAP1 PUSH1 0x1 ADD SWAP1 PUSH1 0x20 ADD DUP1 DUP4 GT PUSH2 0x7A2 JUMPI DUP3 SWAP1 SUB PUSH1 0x1F AND DUP3 ADD SWAP2 JUMPDEST POP POP POP POP POP SWAP1 POP SWAP1 JUMP JUMPDEST PUSH0 DUP2 MLOAD SWAP1 POP SWAP2 SWAP1 POP JUMP JUMPDEST PUSH0 DUP3 DUP3 MSTORE PUSH1 0x20 DUP3 ADD SWAP1 POP SWAP3 SWAP2 POP POP JUMP JUMPDEST DUP3 DUP2 DUP4 MCOPY PUSH0 DUP4 DUP4 ADD MSTORE POP POP POP JUMP JUMPDEST PUSH0 PUSH1 0x1F NOT PUSH1 0x1F DUP4 ADD AND SWAP1 POP SWAP2 SWAP1 POP JUMP JUMPDEST PUSH0 PUSH2 0x80B DUP3 PUSH2 0x7C9 JUMP JUMPDEST PUSH2 0x815 DUP2 DUP6 PUSH2 0x7D3 JUMP JUMPDEST SWAP4 POP PUSH2 0x825 DUP2 DUP6 PUSH1 0x20 DUP7 ADD PUSH2 0x7E3 JUMP JUMPDEST PUSH2 0x82E DUP2 PUSH2 0x7F1 JUMP JUMPDEST DUP5 ADD SWAP2 POP POP SWAP3 SWAP2 POP POP JUMP JUMPDEST PUSH0 PUSH1 0x20 DUP3 ADD SWAP1 POP DUP2 DUP2 SUB PUSH0 DUP4 ADD MSTORE PUSH2 0x851 DUP2 DUP5 PUSH2 0x801 JUMP JUMPDEST SWAP1 POP SWAP3 SWAP2 POP POP JUMP JUMPDEST PUSH0 PUSH0 REVERT JUMPDEST PUSH0 PUSH0 REVERT JUMPDEST PUSH0 DUP2 SWAP1 POP SWAP2 SWAP1 POP JUMP JUMPDEST PUSH2 0x873 DUP2 PUSH2 0x861 JUMP JUMPDEST DUP2 EQ PUSH2 0x87D JUMPI PUSH0 PUSH0 REVERT JUMPDEST POP JUMP JUMPDEST PUSH0 DUP2 CALLDATALOAD SWAP1 POP PUSH2 0x88E DUP2 PUSH2 0x86A JUMP JUMPDEST SWAP3 SWAP2 POP POP JUMP JUMPDEST PUSH0 PUSH1 0x20 DUP3 DUP5 SUB SLT ISZERO PUSH2 0x8A9 JUMPI PUSH2 0x8A8 PUSH2 0x859 JUMP JUMPDEST JUMPDEST PUSH0 PUSH2 0x8B6 DUP5 DUP3 DUP6 ADD PUSH2 0x880 JUMP JUMPDEST SWAP2 POP POP SWAP3 SWAP2 POP POP JUMP JUMPDEST PUSH0 PUSH20 0xFFFFFFFFFFFFFFFFFFFFFFFFFFFFFFFFFFFFFFFF DUP3 AND SWAP1 POP SWAP2 SWAP1 POP JUMP JUMPDEST PUSH0 PUSH2 0x8E8 DUP3 PUSH2 0x8BF JUMP JUMPDEST SWAP1 POP SWAP2 SWAP1 POP JUMP JUMPDEST PUSH2 0x8F8 DUP2 PUSH2 0x8DE JUMP JUMPDEST DUP3 MSTORE POP POP JUMP JUMPDEST PUSH0 PUSH1 0x20 DUP3 ADD SWAP1 POP PUSH2 0x911 PUSH0 DUP4 ADD DUP5 PUSH2 0x8EF JUMP JUMPDEST SWAP3 SWAP2 POP POP JUMP JUMPDEST PUSH2 0x920 DUP2 PUSH2 0x861 JUMP JUMPDEST DUP3 MSTORE POP POP JUMP JUMPDEST PUSH0 PUSH1 0x20 DUP3 ADD SWAP1 POP PUSH2 0x939 PUSH0 DUP4 ADD DUP5 PUSH2 0x917 JUMP JUMPDEST SWAP3 SWAP2 POP POP JUMP JUMPDEST PUSH0 PUSH0 REVERT JUMPDEST PUSH0 PUSH0 REVERT JUMPDEST PUSH0 PUSH0 REVERT JUMPDEST PUSH0 PUSH0 DUP4 PUSH1 0x1F DUP5 ADD SLT PUSH2 0x960 JUMPI PUSH2 0x95F PUSH2 0x93F JUMP JUMPDEST JUMPDEST DUP3 CALLDATALOAD SWAP1 POP PUSH8 0xFFFFFFFFFFFFFFFF DUP2 GT ISZERO PUSH2 0x97D JUMPI PUSH2 0x97C PUSH2 0x943 JUMP JUMPDEST JUMPDEST PUSH1 0x20 DUP4 ADD SWAP2 POP DUP4 PUSH1 0x1 DUP3 MUL DUP4 ADD GT ISZERO PUSH2 0x999 JUMPI PUSH2 0x998 PUSH2 0x947 JUMP JUMPDEST JUMPDEST SWAP3 POP SWAP3 SWAP1 POP JUMP JUMPDEST PUSH0 PUSH0 PUSH1 0x20 DUP4 DUP6 SUB SLT ISZERO PUSH2 0x9B6 JUMPI PUSH2 0x9B5 PUSH2 0x859 JUMP JUMPDEST JUMPDEST PUSH0 DUP4 ADD CALLDATALOAD PUSH8 0xFFFFFFFFFFFFFFFF DUP2 GT ISZERO PUSH2 0x9D3 JUMPI PUSH2 0x9D2 PUSH2 0x85D JUMP JUMPDEST JUMPDEST PUSH2 0x9DF DUP6 DUP3 DUP7 ADD PUSH2 0x94B JUMP JUMPDEST SWAP3 POP SWAP3 POP POP SWAP3 POP SWAP3 SWAP1 POP JUMP JUMPDEST PUSH32 0x4E487B7100000000000000000000000000000000000000000000000000000000 PUSH0 MSTORE PUSH1 0x22 PUSH1 0x4 MSTORE PUSH1 0x24 PUSH0 REVERT JUMPDEST PUSH0 PUSH1 0x2 DUP3 DIV SWAP1 POP PUSH1 0x1 DUP3 AND DUP1 PUSH2 0xA2F JUMPI PUSH1 0x7F DUP3 AND SWAP2 POP JUMPDEST PUSH1 0x20 DUP3 LT DUP2 SUB PUSH2 0xA42 JUMPI PUSH2 0xA41 PUSH2 0x9EB JUMP JUMPDEST JUMPDEST POP SWAP2 SWAP1 POP JUMP JUMPDEST PUSH32 0x43616C6C6572206973206E6F7420746865206F776E6572000000000000000000 PUSH0 DUP3 ADD MSTORE POP JUMP JUMPDEST PUSH0 PUSH2 0xA7C PUSH1 0x17 DUP4 PUSH2 0x7D3 JUMP JUMPDEST SWAP2 POP PUSH2 0xA87 DUP3 PUSH2 0xA48 JUMP JUMPDEST PUSH1 0x20 DUP3 ADD SWAP1 POP SWAP2 SWAP1 POP JUMP JUMPDEST PUSH0 PUSH1 0x20 DUP3 ADD SWAP1 POP DUP2 DUP2 SUB PUSH0 DUP4 ADD MSTORE PUSH2 0xAA9 DUP2 PUSH2 0xA70 JUMP JUMPDEST SWAP1 POP SWAP2 SWAP1 POP JUMP JUMPDEST PUSH32 0x496E73756666696369656E7420636F6E74726163742062616C616E6365000000 PUSH0 DUP3 ADD MSTORE POP JUMP JUMPDEST PUSH0 PUSH2 0xAE4 PUSH1 0x1D DUP4 PUSH2 0x7D3 JUMP JUMPDEST SWAP2 POP PUSH2 0xAEF DUP3 PUSH2 0xAB0 JUMP JUMPDEST PUSH1 0x20 DUP3 ADD SWAP1 POP SWAP2 SWAP1 POP JUMP JUMPDEST PUSH0 PUSH1 0x20 DUP3 ADD SWAP1 POP DUP2 DUP2 SUB PUSH0 DUP4 ADD MSTORE PUSH2 0xB11 DUP2 PUSH2 0xAD8 JUMP JUMPDEST SWAP1 POP SWAP2 SWAP1 POP JUMP JUMPDEST PUSH0 DUP2 SWAP1 POP SWAP3 SWAP2 POP POP JUMP JUMPDEST POP JUMP JUMPDEST PUSH0 PUSH2 0xB30 PUSH0 DUP4 PUSH2 0xB18 JUMP JUMPDEST SWAP2 POP PUSH2 0xB3B DUP3 PUSH2 0xB22 JUMP JUMPDEST PUSH0 DUP3 ADD SWAP1 POP SWAP2 SWAP1 POP JUMP JUMPDEST PUSH0 PUSH2 0xB4F DUP3 PUSH2 0xB25 JUMP JUMPDEST SWAP2 POP DUP2 SWAP1 POP SWAP2 SWAP1 POP JUMP JUMPDEST PUSH32 0x5769746864726177616C206661696C6564000000000000000000000000000000 PUSH0 DUP3 ADD MSTORE POP JUMP JUMPDEST PUSH0 PUSH2 0xB8D PUSH1 0x11 DUP4 PUSH2 0x7D3 JUMP JUMPDEST SWAP2 POP PUSH2 0xB98 DUP3 PUSH2 0xB59 JUMP JUMPDEST PUSH1 0x20 DUP3 ADD SWAP1 POP SWAP2 SWAP1 POP JUMP JUMPDEST PUSH0 PUSH1 0x20 DUP3 ADD SWAP1 POP DUP2 DUP2 SUB PUSH0 DUP4 ADD MSTORE PUSH2 0xBBA DUP2 PUSH2 0xB81 JUMP JUMPDEST SWAP1 POP SWAP2 SWAP1 POP JUMP JUMPDEST PUSH32 0x4D7573742073656E6420736F6D65204574686572000000000000000000000000 PUSH0 DUP3 ADD MSTORE POP JUMP JUMPDEST PUSH0 PUSH2 0xBF5 PUSH1 0x14 DUP4 PUSH2 0x7D3 JUMP JUMPDEST SWAP2 POP PUSH2 0xC00 DUP3 PUSH2 0xBC1 JUMP JUMPDEST PUSH1 0x20 DUP3 ADD SWAP1 POP SWAP2 SWAP1 POP JUMP JUMPDEST PUSH0 PUSH1 0x20 DUP3 ADD SWAP1 POP DUP2 DUP2 SUB PUSH0 DUP4 ADD MSTORE PUSH2 0xC22 DUP2 PUSH2 0xBE9 JUMP JUMPDEST SWAP1 POP SWAP2 SWAP1 POP JUMP JUMPDEST DUP3 DUP2 DUP4 CALLDATACOPY PUSH0 DUP4 DUP4 ADD MSTORE POP POP POP JUMP JUMPDEST PUSH0 PUSH2 0xC42 DUP4 DUP6 PUSH2 0x7D3 JUMP JUMPDEST SWAP4 POP PUSH2 0xC4F DUP4 DUP6 DUP5 PUSH2 0xC29 JUMP JUMPDEST PUSH2 0xC58 DUP4 PUSH2 0x7F1 JUMP JUMPDEST DUP5 ADD SWAP1 POP SWAP4 SWAP3 POP POP POP JUMP JUMPDEST PUSH0 PUSH1 0x40 DUP3 ADD SWAP1 POP PUSH2 0xC76 PUSH0 DUP4 ADD DUP7 PUSH2 0x917 JUMP JUMPDEST DUP2 DUP2 SUB PUSH1 0x20 DUP4 ADD MSTORE PUSH2 0xC89 DUP2 DUP5 DUP7 PUSH2 0xC37 JUMP JUMPDEST SWAP1 POP SWAP5 SWAP4 POP POP POP POP JUMP INVALID LOG2 PUSH5 0x6970667358 0x22 SLT KECCAK256 CREATE 0xAD DUP3 NUMBER 0xCA PUSH16 0x5ACD629B873BCC7BCD987ED6858BA87B SIGNEXTEND DELEGATECALL CALLDATASIZE DUP7 CALLCODE ADDRESS PUSH27 0x46F61D64736F6C634300081E003300000000000000000000000000 "
				},
				"gasEstimates": {
					"creation": {
						"codeDepositCost": "654600",
						"executionCost": "infinite",
						"totalCost": "infinite"
					},
					"external": {
						"deposit(string)": "infinite",
						"getCNPJ()": "infinite",
						"getCPF()": "infinite",
						"getContractBalance()": "401",
						"getEmail()": "infinite",
						"getName()": "infinite",
						"getOwner()": "2559",
						"getVaultAddress()": "2560",
						"withdraw(uint256)": "infinite"
					}
				},
				"methodIdentifiers": {
					"deposit(string)": "a26e1186",
					"getCNPJ()": "c802f1b4",
					"getCPF()": "73dedacb",
					"getContractBalance()": "6f9fb98a",
					"getEmail()": "7e79e8ba",
					"getName()": "17d7de7c",
					"getOwner()": "893d20e8",
					"getVaultAddress()": "65cacaa4",
					"withdraw(uint256)": "2e1a7d4d"
				}
			},
			"storageLayout": {
				"storage": [
					{
						"astId": 3,
						"contract": "contracts/Cooperative.sol:Cooperative",
						"label": "_name",
						"offset": 0,
						"slot": "0",
						"type": "t_string_storage"
					},
					{
						"astId": 5,
						"contract": "contracts/Cooperative.sol:Cooperative",
						"label": "_cnpj",
						"offset": 0,
						"slot": "1",
						"type": "t_string_storage"
					},
					{
						"astId": 7,
						"contract": "contracts/Cooperative.sol:Cooperative",
						"label": "_cpf",
						"offset": 0,
						"slot": "2",
						"type": "t_string_storage"
					},
					{
						"astId": 9,
						"contract": "contracts/Cooperative.sol:Cooperative",
						"label": "_email",
						"offset": 0,
						"slot": "3",
						"type": "t_string_storage"
					},
					{
						"astId": 11,
						"contract": "contracts/Cooperative.sol:Cooperative",
						"label": "_vaultAddress",
						"offset": 0,
						"slot": "4",
						"type": "t_address"
					},
					{
						"astId": 13,
						"contract": "contracts/Cooperative.sol:Cooperative",
						"label": "_owner",
						"offset": 0,
						"slot": "5",
						"type": "t_address"
					}
				],
				"types": {
					"t_address": {
						"encoding": "inplace",
						"label": "address",
						"numberOfBytes": "20"
					},
					"t_string_storage": {
						"encoding": "bytes",
						"label": "string",
						"numberOfBytes": "32"
					}
				}
			},
			"userdoc": {
				"kind": "user",
				"methods": {},
				"version": 1
			}
		}
	}
}