{
	"data": {
		"bytecode": {
			"linkReferences": {},
			"object": "6080604052348015600e575f5ffd5b50613c1b8061001c5f395ff3fe608060405234801561000f575f5ffd5b506004361061009c575f3560e01c8063636c78f311610064578063636c78f31461014457806385bbd652146101605780638731de121461016a578063b57adcfd1461019a578063b6a0aa09146101ca5761009c565b80630264a101146100a057806318d3ce96146100d05780632db49af5146100ee5780633b8eb15c1461010a578063534860cc14610126575b5f5ffd5b6100ba60048036038101906100b59190610889565b6101e6565b6040516100c791906108f3565b60405180910390f35b6100d861026f565b6040516100e591906109c3565b60405180910390f35b61010860048036038101906101039190610b5d565b6102f9565b005b610124600480360381019061011f9190610bb7565b61034f565b005b61012e610368565b60405161013b9190610c0d565b60405180910390f35b61015e60048036038101906101599190610cd6565b610373565b005b6101686104f6565b005b610184600480360381019061017f9190610e0a565b610581565b6040516101919190610c0d565b60405180910390f35b6101b460048036038101906101af9190610e0a565b6105ca565b6040516101c191906109c3565b60405180910390f35b6101e460048036038101906101df9190610e0a565b610692565b005b5f5f80549050821061022d576040517f08c379a000000000000000000000000000000000000000000000000000000000815260040161022490610e8f565b60405180910390fd5b5f82815481106102405761023f610ead565b5b905f5260205f20015f9054906101000a900473ffffffffffffffffffffffffffffffffffffffff169050919050565b60605f8054806020026020016040519081016040528092919081815260200182805480156102ef57602002820191905f5260205f20905b815f9054906101000a900473ffffffffffffffffffffffffffffffffffffffff1673ffffffffffffffffffffffffffffffffffffffff16815260200190600101908083116102a6575b5050505050905090565b8060015f8473ffffffffffffffffffffffffffffffffffffffff1673ffffffffffffffffffffffffffffffffffffffff1681526020019081526020015f20908051906020019061034a929190610796565b505050565b805f9080519060200190610364929190610796565b5050565b5f5f80549050905090565b5f8989898989898989896040516103899061081d565b61039b99989796959493929190610f2a565b604051809103905ff0801580156103b4573d5f5f3e3d5ffd5b5090505f81908060018154018082558091505060019003905f5260205f20015f9091909190916101000a81548173ffffffffffffffffffffffffffffffffffffffff021916908373ffffffffffffffffffffffffffffffffffffffff16021790555060015f3373ffffffffffffffffffffffffffffffffffffffff1673ffffffffffffffffffffffffffffffffffffffff1681526020019081526020015f2081908060018154018082558091505060019003905f5260205f20015f9091909190916101000a81548173ffffffffffffffffffffffffffffffffffffffff021916908373ffffffffffffffffffffffffffffffffffffffff1602179055507f2d49c67975aadd2d389580b368cfff5b49965b0bd5da33c144922ce01e7a4d7b81336040516104e2929190610fd1565b60405180910390a150505050505050505050565b5f5f805490501161053c576040517f08c379a000000000000000000000000000000000000000000000000000000000815260040161053390611042565b60405180910390fd5b5f80548061054d5761054c611060565b5b600190038181905f5260205f20015f6101000a81549073ffffffffffffffffffffffffffffffffffffffff02191690559055565b5f60015f8373ffffffffffffffffffffffffffffffffffffffff1673ffffffffffffffffffffffffffffffffffffffff1681526020019081526020015f20805490509050919050565b606060015f8373ffffffffffffffffffffffffffffffffffffffff1673ffffffffffffffffffffffffffffffffffffffff1681526020019081526020015f2080548060200260200160405190810160405280929190818152602001828054801561068657602002820191905f5260205f20905b815f9054906101000a900473ffffffffffffffffffffffffffffffffffffffff1673ffffffffffffffffffffffffffffffffffffffff168152602001906001019080831161063d575b50505050509050919050565b5f60015f8373ffffffffffffffffffffffffffffffffffffffff1673ffffffffffffffffffffffffffffffffffffffff1681526020019081526020015f208054905011610714576040517f08c379a000000000000000000000000000000000000000000000000000000000815260040161070b90611042565b60405180910390fd5b60015f8273ffffffffffffffffffffffffffffffffffffffff1673ffffffffffffffffffffffffffffffffffffffff1681526020019081526020015f2080548061076157610760611060565b5b600190038181905f5260205f20015f6101000a81549073ffffffffffffffffffffffffffffffffffffffff0219169055905550565b828054828255905f5260205f2090810192821561080c579160200282015b8281111561080b578251825f6101000a81548173ffffffffffffffffffffffffffffffffffffffff021916908373ffffffffffffffffffffffffffffffffffffffff160217905550916020019190600101906107b4565b5b509050610819919061082a565b5090565b612b588061108e83390190565b5b80821115610841575f815f90555060010161082b565b5090565b5f604051905090565b5f5ffd5b5f5ffd5b5f819050919050565b61086881610856565b8114610872575f5ffd5b50565b5f813590506108838161085f565b92915050565b5f6020828403121561089e5761089d61084e565b5b5f6108ab84828501610875565b91505092915050565b5f73ffffffffffffffffffffffffffffffffffffffff82169050919050565b5f6108dd826108b4565b9050919050565b6108ed816108d3565b82525050565b5f6020820190506109065f8301846108e4565b92915050565b5f81519050919050565b5f82825260208201905092915050565b5f819050602082019050919050565b61093e816108d3565b82525050565b5f61094f8383610935565b60208301905092915050565b5f602082019050919050565b5f6109718261090c565b61097b8185610916565b935061098683610926565b805f5b838110156109b657815161099d8882610944565b97506109a88361095b565b925050600181019050610989565b5085935050505092915050565b5f6020820190508181035f8301526109db8184610967565b905092915050565b6109ec816108d3565b81146109f6575f5ffd5b50565b5f81359050610a07816109e3565b92915050565b5f5ffd5b5f601f19601f8301169050919050565b7f4e487b71000000000000000000000000000000000000000000000000000000005f52604160045260245ffd5b610a5782610a11565b810181811067ffffffffffffffff82111715610a7657610a75610a21565b5b80604052505050565b5f610a88610845565b9050610a948282610a4e565b919050565b5f67ffffffffffffffff821115610ab357610ab2610a21565b5b602082029050602081019050919050565b5f5ffd5b5f610ada610ad584610a99565b610a7f565b90508083825260208201905060208402830185811115610afd57610afc610ac4565b5b835b81811015610b265780610b1288826109f9565b845260208401935050602081019050610aff565b5050509392505050565b5f82601f830112610b4457610b43610a0d565b5b8135610b54848260208601610ac8565b91505092915050565b5f5f60408385031215610b7357610b7261084e565b5b5f610b80858286016109f9565b925050602083013567ffffffffffffffff811115610ba157610ba0610852565b5b610bad85828601610b30565b9150509250929050565b5f60208284031215610bcc57610bcb61084e565b5b5f82013567ffffffffffffffff811115610be957610be8610852565b5b610bf584828501610b30565b91505092915050565b610c0781610856565b82525050565b5f602082019050610c205f830184610bfe565b92915050565b5f5ffd5b5f67ffffffffffffffff821115610c4457610c43610a21565b5b610c4d82610a11565b9050602081019050919050565b828183375f83830152505050565b5f610c7a610c7584610c2a565b610a7f565b905082815260208101848484011115610c9657610c95610c26565b5b610ca1848285610c5a565b509392505050565b5f82601f830112610cbd57610cbc610a0d565b5b8135610ccd848260208601610c68565b91505092915050565b5f5f5f5f5f5f5f5f5f6101208a8c031215610cf457610cf361084e565b5b5f8a013567ffffffffffffffff811115610d1157610d10610852565b5b610d1d8c828d01610ca9565b99505060208a013567ffffffffffffffff811115610d3e57610d3d610852565b5b610d4a8c828d01610ca9565b9850506040610d5b8c828d016109f9565b9750506060610d6c8c828d016109f9565b9650506080610d7d8c828d016109f9565b95505060a0610d8e8c828d016109f9565b94505060c08a013567ffffffffffffffff811115610daf57610dae610852565b5b610dbb8c828d01610ca9565b93505060e0610dcc8c828d01610875565b9250506101008a013567ffffffffffffffff811115610dee57610ded610852565b5b610dfa8c828d01610ca9565b9150509295985092959850929598565b5f60208284031215610e1f57610e1e61084e565b5b5f610e2c848285016109f9565b91505092915050565b5f82825260208201905092915050565b7f496e76616c696420696e646578000000000000000000000000000000000000005f82015250565b5f610e79600d83610e35565b9150610e8482610e45565b602082019050919050565b5f6020820190508181035f830152610ea681610e6d565b9050919050565b7f4e487b71000000000000000000000000000000000000000000000000000000005f52603260045260245ffd5b5f81519050919050565b8281835e5f83830152505050565b5f610efc82610eda565b610f068185610e35565b9350610f16818560208601610ee4565b610f1f81610a11565b840191505092915050565b5f610120820190508181035f830152610f43818c610ef2565b90508181036020830152610f57818b610ef2565b9050610f66604083018a6108e4565b610f7360608301896108e4565b610f8060808301886108e4565b610f8d60a08301876108e4565b81810360c0830152610f9f8186610ef2565b9050610fae60e0830185610bfe565b818103610100830152610fc18184610ef2565b90509a9950505050505050505050565b5f604082019050610fe45f8301856108e4565b610ff160208301846108e4565b9392505050565b7f4e6f20636f6e74726163747320746f2072656d6f7665000000000000000000005f82015250565b5f61102c601683610e35565b915061103782610ff8565b602082019050919050565b5f6020820190508181035f83015261105981611020565b9050919050565b7f4e487b71000000000000000000000000000000000000000000000000000000005f52603160045260245ffdfe608060405234801561000f575f5ffd5b50604051612b58380380612b58833981810160405281019061003191906105f4565b885f908161003f919061092f565b50876001908161004f919061092f565b508460025f6101000a81548173ffffffffffffffffffffffffffffffffffffffff021916908373ffffffffffffffffffffffffffffffffffffffff1602179055508360035f6101000a81548173ffffffffffffffffffffffffffffffffffffffff021916908373ffffffffffffffffffffffffffffffffffffffff16021790555080600490816100df919061092f565b506040518060c001604052808873ffffffffffffffffffffffffffffffffffffffff1681526020018773ffffffffffffffffffffffffffffffffffffffff1681526020018481526020018381526020015f6005811115610142576101416109fe565b5b81526020015f151581525060065f820151815f015f6101000a81548173ffffffffffffffffffffffffffffffffffffffff021916908373ffffffffffffffffffffffffffffffffffffffff1602179055506020820151816001015f6101000a81548173ffffffffffffffffffffffffffffffffffffffff021916908373ffffffffffffffffffffffffffffffffffffffff16021790555060408201518160020190816101ee919061092f565b50606082015181600301556080820151816004015f6101000a81548160ff02191690836005811115610223576102226109fe565b5b021790555060a08201518160040160016101000a81548160ff02191690831515021790555090505060405180604001604052806001151581526020015f151581525060055f8973ffffffffffffffffffffffffffffffffffffffff1673ffffffffffffffffffffffffffffffffffffffff1681526020019081526020015f205f820151815f015f6101000a81548160ff0219169083151502179055506020820151815f0160016101000a81548160ff02191690831515021790555090505060405180604001604052805f151581526020015f151581525060055f8873ffffffffffffffffffffffffffffffffffffffff1673ffffffffffffffffffffffffffffffffffffffff1681526020019081526020015f205f820151815f015f6101000a81548160ff0219169083151502179055506020820151815f0160016101000a81548160ff02191690831515021790555090505060405180604001604052805f151581526020016001151581525060055f8673ffffffffffffffffffffffffffffffffffffffff1673ffffffffffffffffffffffffffffffffffffffff1681526020019081526020015f205f820151815f015f6101000a81548160ff0219169083151502179055506020820151815f0160016101000a81548160ff021916908315150217905550905050505050505050505050610a2b565b5f604051905090565b5f5ffd5b5f5ffd5b5f5ffd5b5f5ffd5b5f601f19601f8301169050919050565b7f4e487b71000000000000000000000000000000000000000000000000000000005f52604160045260245ffd5b61047982610433565b810181811067ffffffffffffffff8211171561049857610497610443565b5b80604052505050565b5f6104aa61041a565b90506104b68282610470565b919050565b5f67ffffffffffffffff8211156104d5576104d4610443565b5b6104de82610433565b9050602081019050919050565b8281835e5f83830152505050565b5f61050b610506846104bb565b6104a1565b9050828152602081018484840111156105275761052661042f565b5b6105328482856104eb565b509392505050565b5f82601f83011261054e5761054d61042b565b5b815161055e8482602086016104f9565b91505092915050565b5f73ffffffffffffffffffffffffffffffffffffffff82169050919050565b5f61059082610567565b9050919050565b6105a081610586565b81146105aa575f5ffd5b50565b5f815190506105bb81610597565b92915050565b5f819050919050565b6105d3816105c1565b81146105dd575f5ffd5b50565b5f815190506105ee816105ca565b92915050565b5f5f5f5f5f5f5f5f5f6101208a8c03121561061257610611610423565b5b5f8a015167ffffffffffffffff81111561062f5761062e610427565b5b61063b8c828d0161053a565b99505060208a015167ffffffffffffffff81111561065c5761065b610427565b5b6106688c828d0161053a565b98505060406106798c828d016105ad565b975050606061068a8c828d016105ad565b965050608061069b8c828d016105ad565b95505060a06106ac8c828d016105ad565b94505060c08a015167ffffffffffffffff8111156106cd576106cc610427565b5b6106d98c828d0161053a565b93505060e06106ea8c828d016105e0565b9250506101008a015167ffffffffffffffff81111561070c5761070b610427565b5b6107188c828d0161053a565b9150509295985092959850929598565b5f81519050919050565b7f4e487b71000000000000000000000000000000000000000000000000000000005f52602260045260245ffd5b5f600282049050600182168061077657607f821691505b60208210810361078957610788610732565b5b50919050565b5f819050815f5260205f209050919050565b5f6020601f8301049050919050565b5f82821b905092915050565b5f600883026107eb7fffffffffffffffffffffffffffffffffffffffffffffffffffffffffffffffff826107b0565b6107f586836107b0565b95508019841693508086168417925050509392505050565b5f819050919050565b5f61083061082b610826846105c1565b61080d565b6105c1565b9050919050565b5f819050919050565b61084983610816565b61085d61085582610837565b8484546107bc565b825550505050565b5f5f905090565b610874610865565b61087f818484610840565b505050565b5b818110156108a2576108975f8261086c565b600181019050610885565b5050565b601f8211156108e7576108b88161078f565b6108c1846107a1565b810160208510156108d0578190505b6108e46108dc856107a1565b830182610884565b50505b505050565b5f82821c905092915050565b5f6109075f19846008026108ec565b1980831691505092915050565b5f61091f83836108f8565b9150826002028217905092915050565b61093882610728565b67ffffffffffffffff81111561095157610950610443565b5b61095b825461075f565b6109668282856108a6565b5f60209050601f831160018114610997575f8415610985578287015190505b61098f8582610914565b8655506109f6565b601f1984166109a58661078f565b5f5b828110156109cc578489015182556001820191506020850194506020810190506109a7565b868310156109e957848901516109e5601f8916826108f8565b8355505b6001600288020188555050505b505050505050565b7f4e487b71000000000000000000000000000000000000000000000000000000005f52602160045260245ffd5b61212080610a385f395ff3fe6080604052600436106100f1575f3560e01c80635319a4a911610089578063b58aad4811610058578063b58aad4814610268578063d598d4c914610292578063db6003d1146102c1578063ebd20751146102d7576100f1565b80635319a4a914610208578063619d267114610212578063789b57711461022857806379fd022e1461023e576100f1565b80632b68bb2d116100c55780632b68bb2d146101755780633bfb6e311461018b5780634d0d40d3146101b55780634f235207146101cb576100f1565b8062dad7d4146100f55780630552f9ff1461011f5780630d73f010146101355780630d7ebbd91461014b575b5f5ffd5b348015610100575f5ffd5b50610109610301565b60405161011691906117f5565b60405180910390f35b34801561012a575f5ffd5b5061013361038d565b005b348015610140575f5ffd5b506101496104f1565b005b348015610156575f5ffd5b5061015f610656565b60405161016c91906117f5565b60405180910390f35b348015610180575f5ffd5b5061018961096e565b005b348015610196575f5ffd5b5061019f610bee565b6040516101ac9190611854565b60405180910390f35b3480156101c0575f5ffd5b506101c9610c13565b005b3480156101d6575f5ffd5b506101f160048036038101906101ec919061189b565b610d6e565b6040516101ff9291906118e0565b60405180910390f35b610210610da6565b005b34801561021d575f5ffd5b50610226610fec565b005b348015610233575f5ffd5b5061023c611195565b005b348015610249575f5ffd5b506102526113de565b60405161025f9190611854565b60405180910390f35b348015610273575f5ffd5b5061027c611403565b60405161028991906117f5565b60405180910390f35b34801561029d575f5ffd5b506102a661148f565b6040516102b896959493929190611992565b60405180910390f35b3480156102cc575f5ffd5b506102d5611595565b005b3480156102e2575f5ffd5b506102eb6116fa565b6040516102f891906117f5565b60405180910390f35b6001805461030e90611a25565b80601f016020809104026020016040519081016040528092919081815260200182805461033a90611a25565b80156103855780601f1061035c57610100808354040283529160200191610385565b820191905f5260205f20905b81548152906001019060200180831161036857829003601f168201915b505050505081565b60065f015f9054906101000a900473ffffffffffffffffffffffffffffffffffffffff1673ffffffffffffffffffffffffffffffffffffffff163373ffffffffffffffffffffffffffffffffffffffff161461041e576040517f08c379a000000000000000000000000000000000000000000000000000000000815260040161041590611ac5565b60405180910390fd5b600260058111156104325761043161191f565b5b60066004015f9054906101000a900460ff1660058111156104565761045561191f565b5b14610496576040517f08c379a000000000000000000000000000000000000000000000000000000000815260040161048d90611b2d565b60405180910390fd5b600360066004015f6101000a81548160ff021916908360058111156104be576104bd61191f565b5b02179055507fd225998a3aa0b234d551108e0d6afefebf021f56d181a3b7490ea3181e0872a860405160405180910390a1565b60066001015f9054906101000a900473ffffffffffffffffffffffffffffffffffffffff1673ffffffffffffffffffffffffffffffffffffffff163373ffffffffffffffffffffffffffffffffffffffff1614610583576040517f08c379a000000000000000000000000000000000000000000000000000000000815260040161057a90611bbb565b60405180910390fd5b600260058111156105975761059661191f565b5b60066004015f9054906101000a900460ff1660058111156105bb576105ba61191f565b5b146105fb576040517f08c379a00000000000000000000000000000000000000000000000000000000081526004016105f290611b2d565b60405180910390fd5b600460066004015f6101000a81548160ff021916908360058111156106235761062261191f565b5b02179055507f8d1c5e2deb19def1e62f3eca5e5f840fac11deb08c66f215def592ea2c5b794c60405160405180910390a1565b60605f600581111561066b5761066a61191f565b5b60066004015f9054906101000a900460ff16600581111561068f5761068e61191f565b5b036106d1576040518060400160405280600781526020017f4372656174656400000000000000000000000000000000000000000000000000815250905061096b565b600160058111156106e5576106e461191f565b5b60066004015f9054906101000a900460ff1660058111156107095761070861191f565b5b0361074b576040518060400160405280600881526020017f4163636570746564000000000000000000000000000000000000000000000000815250905061096b565b6002600581111561075f5761075e61191f565b5b60066004015f9054906101000a900460ff1660058111156107835761078261191f565b5b036107c5576040518060400160405280600b81526020017f496e2050726f6772657373000000000000000000000000000000000000000000815250905061096b565b600360058111156107d9576107d861191f565b5b60066004015f9054906101000a900460ff1660058111156107fd576107fc61191f565b5b0361083f576040518060400160405280600681526020017f5061757365640000000000000000000000000000000000000000000000000000815250905061096b565b600460058111156108535761085261191f565b5b60066004015f9054906101000a900460ff1660058111156108775761087661191f565b5b036108b9576040518060400160405280600981526020017f436f6d706c657465640000000000000000000000000000000000000000000000815250905061096b565b6005808111156108cc576108cb61191f565b5b60066004015f9054906101000a900460ff1660058111156108f0576108ef61191f565b5b03610932576040518060400160405280600881526020017f43616e63656c6564000000000000000000000000000000000000000000000000815250905061096b565b6040518060400160405280600781526020017f556e6b6e6f776e0000000000000000000000000000000000000000000000000081525090505b90565b60065f015f9054906101000a900473ffffffffffffffffffffffffffffffffffffffff1673ffffffffffffffffffffffffffffffffffffffff163373ffffffffffffffffffffffffffffffffffffffff161480610a1a575060066001015f9054906101000a900473ffffffffffffffffffffffffffffffffffffffff1673ffffffffffffffffffffffffffffffffffffffff163373ffffffffffffffffffffffffffffffffffffffff16145b610a59576040517f08c379a0000000000000000000000000000000000000000000000000000000008152600401610a5090611c49565b60405180910390fd5b60046005811115610a6d57610a6c61191f565b5b60066004015f9054906101000a900460ff166005811115610a9157610a9061191f565b5b03610ad1576040517f08c379a0000000000000000000000000000000000000000000000000000000008152600401610ac890611cb1565b60405180910390fd5b5f6005811115610ae457610ae361191f565b5b60066004015f9054906101000a900460ff166005811115610b0857610b0761191f565b5b1480610b49575060016005811115610b2357610b2261191f565b5b60066004015f9054906101000a900460ff166005811115610b4757610b4661191f565b5b145b610b88576040517f08c379a0000000000000000000000000000000000000000000000000000000008152600401610b7f90611d19565b60405180910390fd5b600560066004015f6101000a81548160ff02191690836005811115610bb057610baf61191f565b5b02179055507fb4c92cd357fec6bf95b165499ff19fe07c668a89794a0d12ba96ea321fa34b1333604051610be49190611854565b60405180910390a1565b60035f9054906101000a900473ffffffffffffffffffffffffffffffffffffffff1681565b60055f3373ffffffffffffffffffffffffffffffffffffffff1673ffffffffffffffffffffffffffffffffffffffff1681526020019081526020015f205f0160019054906101000a900460ff16610c9f576040517f08c379a0000000000000000000000000000000000000000000000000000000008152600401610c9690611da7565b60405180910390fd5b60046005811115610cb357610cb261191f565b5b60066004015f9054906101000a900460ff166005811115610cd757610cd661191f565b5b14610d17576040517f08c379a0000000000000000000000000000000000000000000000000000000008152600401610d0e90611e0f565b60405180910390fd5b6001600660040160016101000a81548160ff0219169083151502179055507fca5f1de7612ed6a3d87c2abd381483f6475703026f9eacd73eb253aef380c32833604051610d649190611854565b60405180910390a1565b6005602052805f5260405f205f91509050805f015f9054906101000a900460ff1690805f0160019054906101000a900460ff16905082565b60065f015f9054906101000a900473ffffffffffffffffffffffffffffffffffffffff1673ffffffffffffffffffffffffffffffffffffffff163373ffffffffffffffffffffffffffffffffffffffff1614610e37576040517f08c379a0000000000000000000000000000000000000000000000000000000008152600401610e2e90611ac5565b60405180910390fd5b60046005811115610e4b57610e4a61191f565b5b60066004015f9054906101000a900460ff166005811115610e6f57610e6e61191f565b5b14610eaf576040517f08c379a0000000000000000000000000000000000000000000000000000000008152600401610ea690611e0f565b60405180910390fd5b600660040160019054906101000a900460ff16610f01576040517f08c379a0000000000000000000000000000000000000000000000000000000008152600401610ef890611e77565b60405180910390fd5b600660030154341015610f49576040517f08c379a0000000000000000000000000000000000000000000000000000000008152600401610f4090611edf565b60405180910390fd5b60066001015f9054906101000a900473ffffffffffffffffffffffffffffffffffffffff1673ffffffffffffffffffffffffffffffffffffffff166108fc3490811502906040515f60405180830381858888f19350505050158015610fb0573d5f5f3e3d5ffd5b507f8dfe705393653a2ea59081f717d7096d435eeaa5049f45e1cbdd32f34e513d563334604051610fe2929190611efd565b60405180910390a1565b60066001015f9054906101000a900473ffffffffffffffffffffffffffffffffffffffff1673ffffffffffffffffffffffffffffffffffffffff163373ffffffffffffffffffffffffffffffffffffffff161480611093575060055f3373ffffffffffffffffffffffffffffffffffffffff1673ffffffffffffffffffffffffffffffffffffffff1681526020019081526020015f205f0160019054906101000a900460ff165b6110d2576040517f08c379a00000000000000000000000000000000000000000000000000000000081526004016110c990611f94565b60405180910390fd5b600160055f3373ffffffffffffffffffffffffffffffffffffffff1673ffffffffffffffffffffffffffffffffffffffff1681526020019081526020015f205f015f6101000a81548160ff0219169083151502179055505f600581111561113c5761113b61191f565b5b60066004015f9054906101000a900460ff1660058111156111605761115f61191f565b5b0361119357600160066004015f6101000a81548160ff0219169083600581111561118d5761118c61191f565b5b02179055505b565b60065f015f9054906101000a900473ffffffffffffffffffffffffffffffffffffffff1673ffffffffffffffffffffffffffffffffffffffff163373ffffffffffffffffffffffffffffffffffffffff1614611226576040517f08c379a000000000000000000000000000000000000000000000000000000000815260040161121d90611ac5565b60405180910390fd5b60055f60065f015f9054906101000a900473ffffffffffffffffffffffffffffffffffffffff1673ffffffffffffffffffffffffffffffffffffffff1673ffffffffffffffffffffffffffffffffffffffff1681526020019081526020015f205f015f9054906101000a900460ff166112d4576040517f08c379a00000000000000000000000000000000000000000000000000000000081526004016112cb90611ffc565b60405180910390fd5b60055f60066001015f9054906101000a900473ffffffffffffffffffffffffffffffffffffffff1673ffffffffffffffffffffffffffffffffffffffff1673ffffffffffffffffffffffffffffffffffffffff1681526020019081526020015f205f015f9054906101000a900460ff16611383576040517f08c379a000000000000000000000000000000000000000000000000000000000815260040161137a90612064565b60405180910390fd5b600260066004015f6101000a81548160ff021916908360058111156113ab576113aa61191f565b5b02179055507fdd9c7e294fb30c37897300371d45dd4d1e62f12bfb780ddc599238e2c2c5ce9d60405160405180910390a1565b60025f9054906101000a900473ffffffffffffffffffffffffffffffffffffffff1681565b6004805461141090611a25565b80601f016020809104026020016040519081016040528092919081815260200182805461143c90611a25565b80156114875780601f1061145e57610100808354040283529160200191611487565b820191905f5260205f20905b81548152906001019060200180831161146a57829003601f168201915b505050505081565b6006805f015f9054906101000a900473ffffffffffffffffffffffffffffffffffffffff1690806001015f9054906101000a900473ffffffffffffffffffffffffffffffffffffffff16908060020180546114e990611a25565b80601f016020809104026020016040519081016040528092919081815260200182805461151590611a25565b80156115605780601f1061153757610100808354040283529160200191611560565b820191905f5260205f20905b81548152906001019060200180831161154357829003601f168201915b505050505090806003015490806004015f9054906101000a900460ff16908060040160019054906101000a900460ff16905086565b60066001015f9054906101000a900473ffffffffffffffffffffffffffffffffffffffff1673ffffffffffffffffffffffffffffffffffffffff163373ffffffffffffffffffffffffffffffffffffffff1614611627576040517f08c379a000000000000000000000000000000000000000000000000000000000815260040161161e90611bbb565b60405180910390fd5b6003600581111561163b5761163a61191f565b5b60066004015f9054906101000a900460ff16600581111561165f5761165e61191f565b5b1461169f576040517f08c379a0000000000000000000000000000000000000000000000000000000008152600401611696906120cc565b60405180910390fd5b600260066004015f6101000a81548160ff021916908360058111156116c7576116c661191f565b5b02179055507fd004ffebdefd0660efafede3ed196ac0e1cf03085749e1acd37dd0e5145d592260405160405180910390a1565b5f805461170690611a25565b80601f016020809104026020016040519081016040528092919081815260200182805461173290611a25565b801561177d5780601f106117545761010080835404028352916020019161177d565b820191905f5260205f20905b81548152906001019060200180831161176057829003601f168201915b505050505081565b5f81519050919050565b5f82825260208201905092915050565b8281835e5f83830152505050565b5f601f19601f8301169050919050565b5f6117c782611785565b6117d1818561178f565b93506117e181856020860161179f565b6117ea816117ad565b840191505092915050565b5f6020820190508181035f83015261180d81846117bd565b905092915050565b5f73ffffffffffffffffffffffffffffffffffffffff82169050919050565b5f61183e82611815565b9050919050565b61184e81611834565b82525050565b5f6020820190506118675f830184611845565b92915050565b5f5ffd5b61187a81611834565b8114611884575f5ffd5b50565b5f8135905061189581611871565b92915050565b5f602082840312156118b0576118af61186d565b5b5f6118bd84828501611887565b91505092915050565b5f8115159050919050565b6118da816118c6565b82525050565b5f6040820190506118f35f8301856118d1565b61190060208301846118d1565b9392505050565b5f819050919050565b61191981611907565b82525050565b7f4e487b71000000000000000000000000000000000000000000000000000000005f52602160045260245ffd5b6006811061195d5761195c61191f565b5b50565b5f81905061196d8261194c565b919050565b5f61197c82611960565b9050919050565b61198c81611972565b82525050565b5f60c0820190506119a55f830189611845565b6119b26020830188611845565b81810360408301526119c481876117bd565b90506119d36060830186611910565b6119e06080830185611983565b6119ed60a08301846118d1565b979650505050505050565b7f4e487b71000000000000000000000000000000000000000000000000000000005f52602260045260245ffd5b5f6002820490506001821680611a3c57607f821691505b602082108103611a4f57611a4e6119f8565b5b50919050565b7f4f6e6c7920636c69656e742063616e20706572666f726d2074686973206163745f8201527f696f6e0000000000000000000000000000000000000000000000000000000000602082015250565b5f611aaf60238361178f565b9150611aba82611a55565b604082019050919050565b5f6020820190508181035f830152611adc81611aa3565b9050919050565b7f53657276696365206e6f7420696e2070726f67726573730000000000000000005f82015250565b5f611b1760178361178f565b9150611b2282611ae3565b602082019050919050565b5f6020820190508181035f830152611b4481611b0b565b9050919050565b7f4f6e6c792070726f76696465722063616e20706572666f726d207468697320615f8201527f6374696f6e000000000000000000000000000000000000000000000000000000602082015250565b5f611ba560258361178f565b9150611bb082611b4b565b604082019050919050565b5f6020820190508181035f830152611bd281611b99565b9050919050565b7f4f6e6c7920696e766f6c76656420706172746965732063616e20706572666f725f8201527f6d207468697320616374696f6e00000000000000000000000000000000000000602082015250565b5f611c33602d8361178f565b9150611c3e82611bd9565b604082019050919050565b5f6020820190508181035f830152611c6081611c27565b9050919050565b7f43616e6e6f742063616e63656c20616674657220636f6d706c6574696f6e00005f82015250565b5f611c9b601e8361178f565b9150611ca682611c67565b602082019050919050565b5f6020820190508181035f830152611cc881611c8f565b9050919050565b7f43616e6e6f742063616e63656c207768696c6520696e2070726f6772657373005f82015250565b5f611d03601f8361178f565b9150611d0e82611ccf565b602082019050919050565b5f6020820190508181035f830152611d3081611cf7565b9050919050565b7f4f6e6c79206c61777965722063616e20706572666f726d2074686973206163745f8201527f696f6e0000000000000000000000000000000000000000000000000000000000602082015250565b5f611d9160238361178f565b9150611d9c82611d37565b604082019050919050565b5f6020820190508181035f830152611dbe81611d85565b9050919050565b7f53657276696365206e6f7420636f6d706c6574656400000000000000000000005f82015250565b5f611df960158361178f565b9150611e0482611dc5565b602082019050919050565b5f6020820190508181035f830152611e2681611ded565b9050919050565b7f436f6e7472616374206e6f74206c6567616c6c79207265636f676e697a6564005f82015250565b5f611e61601f8361178f565b9150611e6c82611e2d565b602082019050919050565b5f6020820190508181035f830152611e8e81611e55565b9050919050565b7f496e73756666696369656e74207061796d656e740000000000000000000000005f82015250565b5f611ec960148361178f565b9150611ed482611e95565b602082019050919050565b5f6020820190508181035f830152611ef681611ebd565b9050919050565b5f604082019050611f105f830185611845565b611f1d6020830184611910565b9392505050565b7f4f6e6c792070726f7669646572206f72206c61777965722063616e20616363655f8201527f7074000000000000000000000000000000000000000000000000000000000000602082015250565b5f611f7e60228361178f565b9150611f8982611f24565b604082019050919050565b5f6020820190508181035f830152611fab81611f72565b9050919050565b7f436c69656e7420686173206e6f742061636365707465640000000000000000005f82015250565b5f611fe660178361178f565b9150611ff182611fb2565b602082019050919050565b5f6020820190508181035f83015261201381611fda565b9050919050565b7f50726f766964657220686173206e6f74206163636570746564000000000000005f82015250565b5f61204e60198361178f565b91506120598261201a565b602082019050919050565b5f6020820190508181035f83015261207b81612042565b9050919050565b7f53657276696365206e6f742070617573656400000000000000000000000000005f82015250565b5f6120b660128361178f565b91506120c182612082565b602082019050919050565b5f6020820190508181035f8301526120e3816120aa565b905091905056fea2646970667358221220f6239e74b5187f500c62aa429423dbabe422f4219aabf6e2319ebe4496c2fa8264736f6c634300081e0033a2646970667358221220672d016a19df0715fd832fad8d1c7e8b863bd60c7ffcc35bc2bced73d5634e9964736f6c634300081e0033",
			"opcodes": "PUSH1 0x80 PUSH1 0x40 MSTORE CALLVALUE DUP1 ISZERO PUSH1 0xE JUMPI PUSH0 PUSH0 REVERT JUMPDEST POP PUSH2 0x3C1B DUP1 PUSH2 0x1C PUSH0 CODECOPY PUSH0 RETURN INVALID PUSH1 0x80 PUSH1 0x40 MSTORE CALLVALUE DUP1 ISZERO PUSH2 0xF JUMPI PUSH0 PUSH0 REVERT JUMPDEST POP PUSH1 0x4 CALLDATASIZE LT PUSH2 0x9C JUMPI PUSH0 CALLDATALOAD PUSH1 0xE0 SHR DUP1 PUSH4 0x636C78F3 GT PUSH2 0x64 JUMPI DUP1 PUSH4 0x636C78F3 EQ PUSH2 0x144 JUMPI DUP1 PUSH4 0x85BBD652 EQ PUSH2 0x160 JUMPI DUP1 PUSH4 0x8731DE12 EQ PUSH2 0x16A JUMPI DUP1 PUSH4 0xB57ADCFD EQ PUSH2 0x19A JUMPI DUP1 PUSH4 0xB6A0AA09 EQ PUSH2 0x1CA JUMPI PUSH2 0x9C JUMP JUMPDEST DUP1 PUSH4 0x264A101 EQ PUSH2 0xA0 JUMPI DUP1 PUSH4 0x18D3CE96 EQ PUSH2 0xD0 JUMPI DUP1 PUSH4 0x2DB49AF5 EQ PUSH2 0xEE JUMPI DUP1 PUSH4 0x3B8EB15C EQ PUSH2 0x10A JUMPI DUP1 PUSH4 0x534860CC EQ PUSH2 0x126 JUMPI JUMPDEST PUSH0 PUSH0 REVERT JUMPDEST PUSH2 0xBA PUSH1 0x4 DUP1 CALLDATASIZE SUB DUP2 ADD SWAP1 PUSH2 0xB5 SWAP2 SWAP1 PUSH2 0x889 JUMP JUMPDEST PUSH2 0x1E6 JUMP JUMPDEST PUSH1 0x40 MLOAD PUSH2 0xC7 SWAP2 SWAP1 PUSH2 0x8F3 JUMP JUMPDEST PUSH1 0x40 MLOAD DUP1 SWAP2 SUB SWAP1 RETURN JUMPDEST PUSH2 0xD8 PUSH2 0x26F JUMP JUMPDEST PUSH1 0x40 MLOAD PUSH2 0xE5 SWAP2 SWAP1 PUSH2 0x9C3 JUMP JUMPDEST PUSH1 0x40 MLOAD DUP1 SWAP2 SUB SWAP1 RETURN JUMPDEST PUSH2 0x108 PUSH1 0x4 DUP1 CALLDATASIZE SUB DUP2 ADD SWAP1 PUSH2 0x103 SWAP2 SWAP1 PUSH2 0xB5D JUMP JUMPDEST PUSH2 0x2F9 JUMP JUMPDEST STOP JUMPDEST PUSH2 0x124 PUSH1 0x4 DUP1 CALLDATASIZE SUB DUP2 ADD SWAP1 PUSH2 0x11F SWAP2 SWAP1 PUSH2 0xBB7 JUMP JUMPDEST PUSH2 0x34F JUMP JUMPDEST STOP JUMPDEST PUSH2 0x12E PUSH2 0x368 JUMP JUMPDEST PUSH1 0x40 MLOAD PUSH2 0x13B SWAP2 SWAP1 PUSH2 0xC0D JUMP JUMPDEST PUSH1 0x40 MLOAD DUP1 SWAP2 SUB SWAP1 RETURN JUMPDEST PUSH2 0x15E PUSH1 0x4 DUP1 CALLDATASIZE SUB DUP2 ADD SWAP1 PUSH2 0x159 SWAP2 SWAP1 PUSH2 0xCD6 JUMP JUMPDEST PUSH2 0x373 JUMP JUMPDEST STOP JUMPDEST PUSH2 0x168 PUSH2 0x4F6 JUMP JUMPDEST STOP JUMPDEST PUSH2 0x184 PUSH1 0x4 DUP1 CALLDATASIZE SUB DUP2 ADD SWAP1 PUSH2 0x17F SWAP2 SWAP1 PUSH2 0xE0A JUMP JUMPDEST PUSH2 0x581 JUMP JUMPDEST PUSH1 0x40 MLOAD PUSH2 0x191 SWAP2 SWAP1 PUSH2 0xC0D JUMP JUMPDEST PUSH1 0x40 MLOAD DUP1 SWAP2 SUB SWAP1 RETURN JUMPDEST PUSH2 0x1B4 PUSH1 0x4 DUP1 CALLDATASIZE SUB DUP2 ADD SWAP1 PUSH2 0x1AF SWAP2 SWAP1 PUSH2 0xE0A JUMP JUMPDEST PUSH2 0x5CA JUMP JUMPDEST PUSH1 0x40 MLOAD PUSH2 0x1C1 SWAP2 SWAP1 PUSH2 0x9C3 JUMP JUMPDEST PUSH1 0x40 MLOAD DUP1 SWAP2 SUB SWAP1 RETURN JUMPDEST PUSH2 0x1E4 PUSH1 0x4 DUP1 CALLDATASIZE SUB DUP2 ADD SWAP1 PUSH2 0x1DF SWAP2 SWAP1 PUSH2 0xE0A JUMP JUMPDEST PUSH2 0x692 JUMP JUMPDEST STOP JUMPDEST PUSH0 PUSH0 DUP1 SLOAD SWAP1 POP DUP3 LT PUSH2 0x22D JUMPI PUSH1 0x40 MLOAD PUSH32 0x8C379A000000000000000000000000000000000000000000000000000000000 DUP2 MSTORE PUSH1 0x4 ADD PUSH2 0x224 SWAP1 PUSH2 0xE8F JUMP JUMPDEST PUSH1 0x40 MLOAD DUP1 SWAP2 SUB SWAP1 REVERT JUMPDEST PUSH0 DUP3 DUP2 SLOAD DUP2 LT PUSH2 0x240 JUMPI PUSH2 0x23F PUSH2 0xEAD JUMP JUMPDEST JUMPDEST SWAP1 PUSH0 MSTORE PUSH1 0x20 PUSH0 KECCAK256 ADD PUSH0 SWAP1 SLOAD SWAP1 PUSH2 0x100 EXP SWAP1 DIV PUSH20 0xFFFFFFFFFFFFFFFFFFFFFFFFFFFFFFFFFFFFFFFF AND SWAP1 POP SWAP2 SWAP1 POP JUMP JUMPDEST PUSH1 0x60 PUSH0 DUP1 SLOAD DUP1 PUSH1 0x20 MUL PUSH1 0x20 ADD PUSH1 0x40 MLOAD SWAP1 DUP2 ADD PUSH1 0x40 MSTORE DUP1 SWAP3 SWAP2 SWAP1 DUP2 DUP2 MSTORE PUSH1 0x20 ADD DUP3 DUP1 SLOAD DUP1 ISZERO PUSH2 0x2EF JUMPI PUSH1 0x20 MUL DUP3 ADD SWAP2 SWAP1 PUSH0 MSTORE PUSH1 0x20 PUSH0 KECCAK256 SWAP1 JUMPDEST DUP2 PUSH0 SWAP1 SLOAD SWAP1 PUSH2 0x100 EXP SWAP1 DIV PUSH20 0xFFFFFFFFFFFFFFFFFFFFFFFFFFFFFFFFFFFFFFFF AND PUSH20 0xFFFFFFFFFFFFFFFFFFFFFFFFFFFFFFFFFFFFFFFF AND DUP2 MSTORE PUSH1 0x20 ADD SWAP1 PUSH1 0x1 ADD SWAP1 DUP1 DUP4 GT PUSH2 0x2A6 JUMPI JUMPDEST POP POP POP POP POP SWAP1 POP SWAP1 JUMP JUMPDEST DUP1 PUSH1 0x1 PUSH0 DUP5 PUSH20 0xFFFFFFFFFFFFFFFFFFFFFFFFFFFFFFFFFFFFFFFF AND PUSH20 0xFFFFFFFFFFFFFFFFFFFFFFFFFFFFFFFFFFFFFFFF AND DUP2 MSTORE PUSH1 0x20 ADD SWAP1 DUP2 MSTORE PUSH1 0x20 ADD PUSH0 KECCAK256 SWAP1 DUP1 MLOAD SWAP1 PUSH1 0x20 ADD SWAP1 PUSH2 0x34A SWAP3 SWAP2 SWAP1 PUSH2 0x796 JUMP JUMPDEST POP POP POP JUMP JUMPDEST DUP1 PUSH0 SWAP1 DUP1 MLOAD SWAP1 PUSH1 0x20 ADD SWAP1 PUSH2 0x364 SWAP3 SWAP2 SWAP1 PUSH2 0x796 JUMP JUMPDEST POP POP JUMP JUMPDEST PUSH0 PUSH0 DUP1 SLOAD SWAP1 POP SWAP1 POP SWAP1 JUMP JUMPDEST PUSH0 DUP10 DUP10 DUP10 DUP10 DUP10 DUP10 DUP10 DUP10 DUP10 PUSH1 0x40 MLOAD PUSH2 0x389 SWAP1 PUSH2 0x81D JUMP JUMPDEST PUSH2 0x39B SWAP10 SWAP9 SWAP8 SWAP7 SWAP6 SWAP5 SWAP4 SWAP3 SWAP2 SWAP1 PUSH2 0xF2A JUMP JUMPDEST PUSH1 0x40 MLOAD DUP1 SWAP2 SUB SWAP1 PUSH0 CREATE DUP1 ISZERO DUP1 ISZERO PUSH2 0x3B4 JUMPI RETURNDATASIZE PUSH0 PUSH0 RETURNDATACOPY RETURNDATASIZE PUSH0 REVERT JUMPDEST POP SWAP1 POP PUSH0 DUP2 SWAP1 DUP1 PUSH1 0x1 DUP2 SLOAD ADD DUP1 DUP3 SSTORE DUP1 SWAP2 POP POP PUSH1 0x1 SWAP1 SUB SWAP1 PUSH0 MSTORE PUSH1 0x20 PUSH0 KECCAK256 ADD PUSH0 SWAP1 SWAP2 SWAP1 SWAP2 SWAP1 SWAP2 PUSH2 0x100 EXP DUP2 SLOAD DUP2 PUSH20 0xFFFFFFFFFFFFFFFFFFFFFFFFFFFFFFFFFFFFFFFF MUL NOT AND SWAP1 DUP4 PUSH20 0xFFFFFFFFFFFFFFFFFFFFFFFFFFFFFFFFFFFFFFFF AND MUL OR SWAP1 SSTORE POP PUSH1 0x1 PUSH0 CALLER PUSH20 0xFFFFFFFFFFFFFFFFFFFFFFFFFFFFFFFFFFFFFFFF AND PUSH20 0xFFFFFFFFFFFFFFFFFFFFFFFFFFFFFFFFFFFFFFFF AND DUP2 MSTORE PUSH1 0x20 ADD SWAP1 DUP2 MSTORE PUSH1 0x20 ADD PUSH0 KECCAK256 DUP2 SWAP1 DUP1 PUSH1 0x1 DUP2 SLOAD ADD DUP1 DUP3 SSTORE DUP1 SWAP2 POP POP PUSH1 0x1 SWAP1 SUB SWAP1 PUSH0 MSTORE PUSH1 0x20 PUSH0 KECCAK256 ADD PUSH0 SWAP1 SWAP2 SWAP1 SWAP2 SWAP1 SWAP2 PUSH2 0x100 EXP DUP2 SLOAD DUP2 PUSH20 0xFFFFFFFFFFFFFFFFFFFFFFFFFFFFFFFFFFFFFFFF MUL NOT AND SWAP1 DUP4 PUSH20 0xFFFFFFFFFFFFFFFFFFFFFFFFFFFFFFFFFFFFFFFF AND MUL OR SWAP1 SSTORE POP PUSH32 0x2D49C67975AADD2D389580B368CFFF5B49965B0BD5DA33C144922CE01E7A4D7B DUP2 CALLER PUSH1 0x40 MLOAD PUSH2 0x4E2 SWAP3 SWAP2 SWAP1 PUSH2 0xFD1 JUMP JUMPDEST PUSH1 0x40 MLOAD DUP1 SWAP2 SUB SWAP1 LOG1 POP POP POP POP POP POP POP POP POP POP JUMP JUMPDEST PUSH0 PUSH0 DUP1 SLOAD SWAP1 POP GT PUSH2 0x53C JUMPI PUSH1 0x40 MLOAD PUSH32 0x8C379A000000000000000000000000000000000000000000000000000000000 DUP2 MSTORE PUSH1 0x4 ADD PUSH2 0x533 SWAP1 PUSH2 0x1042 JUMP JUMPDEST PUSH1 0x40 MLOAD DUP1 SWAP2 SUB SWAP1 REVERT JUMPDEST PUSH0 DUP1 SLOAD DUP1 PUSH2 0x54D JUMPI PUSH2 0x54C PUSH2 0x1060 JUMP JUMPDEST JUMPDEST PUSH1 0x1 SWAP1 SUB DUP2 DUP2 SWAP1 PUSH0 MSTORE PUSH1 0x20 PUSH0 KECCAK256 ADD PUSH0 PUSH2 0x100 EXP DUP2 SLOAD SWAP1 PUSH20 0xFFFFFFFFFFFFFFFFFFFFFFFFFFFFFFFFFFFFFFFF MUL NOT AND SWAP1 SSTORE SWAP1 SSTORE JUMP JUMPDEST PUSH0 PUSH1 0x1 PUSH0 DUP4 PUSH20 0xFFFFFFFFFFFFFFFFFFFFFFFFFFFFFFFFFFFFFFFF AND PUSH20 0xFFFFFFFFFFFFFFFFFFFFFFFFFFFFFFFFFFFFFFFF AND DUP2 MSTORE PUSH1 0x20 ADD SWAP1 DUP2 MSTORE PUSH1 0x20 ADD PUSH0 KECCAK256 DUP1 SLOAD SWAP1 POP SWAP1 POP SWAP2 SWAP1 POP JUMP JUMPDEST PUSH1 0x60 PUSH1 0x1 PUSH0 DUP4 PUSH20 0xFFFFFFFFFFFFFFFFFFFFFFFFFFFFFFFFFFFFFFFF AND PUSH20 0xFFFFFFFFFFFFFFFFFFFFFFFFFFFFFFFFFFFFFFFF AND DUP2 MSTORE PUSH1 0x20 ADD SWAP1 DUP2 MSTORE PUSH1 0x20 ADD PUSH0 KECCAK256 DUP1 SLOAD DUP1 PUSH1 0x20 MUL PUSH1 0x20 ADD PUSH1 0x40 MLOAD SWAP1 DUP2 ADD PUSH1 0x40 MSTORE DUP1 SWAP3 SWAP2 SWAP1 DUP2 DUP2 MSTORE PUSH1 0x20 ADD DUP3 DUP1 SLOAD DUP1 ISZERO PUSH2 0x686 JUMPI PUSH1 0x20 MUL DUP3 ADD SWAP2 SWAP1 PUSH0 MSTORE PUSH1 0x20 PUSH0 KECCAK256 SWAP1 JUMPDEST DUP2 PUSH0 SWAP1 SLOAD SWAP1 PUSH2 0x100 EXP SWAP1 DIV PUSH20 0xFFFFFFFFFFFFFFFFFFFFFFFFFFFFFFFFFFFFFFFF AND PUSH20 0xFFFFFFFFFFFFFFFFFFFFFFFFFFFFFFFFFFFFFFFF AND DUP2 MSTORE PUSH1 0x20 ADD SWAP1 PUSH1 0x1 ADD SWAP1 DUP1 DUP4 GT PUSH2 0x63D JUMPI JUMPDEST POP POP POP POP POP SWAP1 POP SWAP2 SWAP1 POP JUMP JUMPDEST PUSH0 PUSH1 0x1 PUSH0 DUP4 PUSH20 0xFFFFFFFFFFFFFFFFFFFFFFFFFFFFFFFFFFFFFFFF AND PUSH20 0xFFFFFFFFFFFFFFFFFFFFFFFFFFFFFFFFFFFFFFFF AND DUP2 MSTORE PUSH1 0x20 ADD SWAP1 DUP2 MSTORE PUSH1 0x20 ADD PUSH0 KECCAK256 DUP1 SLOAD SWAP1 POP GT PUSH2 0x714 JUMPI PUSH1 0x40 MLOAD PUSH32 0x8C379A000000000000000000000000000000000000000000000000000000000 DUP2 MSTORE PUSH1 0x4 ADD PUSH2 0x70B SWAP1 PUSH2 0x1042 JUMP JUMPDEST PUSH1 0x40 MLOAD DUP1 SWAP2 SUB SWAP1 REVERT JUMPDEST PUSH1 0x1 PUSH0 DUP3 PUSH20 0xFFFFFFFFFFFFFFFFFFFFFFFFFFFFFFFFFFFFFFFF AND PUSH20 0xFFFFFFFFFFFFFFFFFFFFFFFFFFFFFFFFFFFFFFFF AND DUP2 MSTORE PUSH1 0x20 ADD SWAP1 DUP2 MSTORE PUSH1 0x20 ADD PUSH0 KECCAK256 DUP1 SLOAD DUP1 PUSH2 0x761 JUMPI PUSH2 0x760 PUSH2 0x1060 JUMP JUMPDEST JUMPDEST PUSH1 0x1 SWAP1 SUB DUP2 DUP2 SWAP1 PUSH0 MSTORE PUSH1 0x20 PUSH0 KECCAK256 ADD PUSH0 PUSH2 0x100 EXP DUP2 SLOAD SWAP1 PUSH20 0xFFFFFFFFFFFFFFFFFFFFFFFFFFFFFFFFFFFFFFFF MUL NOT AND SWAP1 SSTORE SWAP1 SSTORE POP JUMP JUMPDEST DUP3 DUP1 SLOAD DUP3 DUP3 SSTORE SWAP1 PUSH0 MSTORE PUSH1 0x20 PUSH0 KECCAK256 SWAP1 DUP2 ADD SWAP3 DUP3 ISZERO PUSH2 0x80C JUMPI SWAP2 PUSH1 0x20 MUL DUP3 ADD JUMPDEST DUP3 DUP2 GT ISZERO PUSH2 0x80B JUMPI DUP3 MLOAD DUP3 PUSH0 PUSH2 0x100 EXP DUP2 SLOAD DUP2 PUSH20 0xFFFFFFFFFFFFFFFFFFFFFFFFFFFFFFFFFFFFFFFF MUL NOT AND SWAP1 DUP4 PUSH20 0xFFFFFFFFFFFFFFFFFFFFFFFFFFFFFFFFFFFFFFFF AND MUL OR SWAP1 SSTORE POP SWAP2 PUSH1 0x20 ADD SWAP2 SWAP1 PUSH1 0x1 ADD SWAP1 PUSH2 0x7B4 JUMP JUMPDEST JUMPDEST POP SWAP1 POP PUSH2 0x819 SWAP2 SWAP1 PUSH2 0x82A JUMP JUMPDEST POP SWAP1 JUMP JUMPDEST PUSH2 0x2B58 DUP1 PUSH2 0x108E DUP4 CODECOPY ADD SWAP1 JUMP JUMPDEST JUMPDEST DUP1 DUP3 GT ISZERO PUSH2 0x841 JUMPI PUSH0 DUP2 PUSH0 SWAP1 SSTORE POP PUSH1 0x1 ADD PUSH2 0x82B JUMP JUMPDEST POP SWAP1 JUMP JUMPDEST PUSH0 PUSH1 0x40 MLOAD SWAP1 POP SWAP1 JUMP JUMPDEST PUSH0 PUSH0 REVERT JUMPDEST PUSH0 PUSH0 REVERT JUMPDEST PUSH0 DUP2 SWAP1 POP SWAP2 SWAP1 POP JUMP JUMPDEST PUSH2 0x868 DUP2 PUSH2 0x856 JUMP JUMPDEST DUP2 EQ PUSH2 0x872 JUMPI PUSH0 PUSH0 REVERT JUMPDEST POP JUMP JUMPDEST PUSH0 DUP2 CALLDATALOAD SWAP1 POP PUSH2 0x883 DUP2 PUSH2 0x85F JUMP JUMPDEST SWAP3 SWAP2 POP POP JUMP JUMPDEST PUSH0 PUSH1 0x20 DUP3 DUP5 SUB SLT ISZERO PUSH2 0x89E JUMPI PUSH2 0x89D PUSH2 0x84E JUMP JUMPDEST JUMPDEST PUSH0 PUSH2 0x8AB DUP5 DUP3 DUP6 ADD PUSH2 0x875 JUMP JUMPDEST SWAP2 POP POP SWAP3 SWAP2 POP POP JUMP JUMPDEST PUSH0 PUSH20 0xFFFFFFFFFFFFFFFFFFFFFFFFFFFFFFFFFFFFFFFF DUP3 AND SWAP1 POP SWAP2 SWAP1 POP JUMP JUMPDEST PUSH0 PUSH2 0x8DD DUP3 PUSH2 0x8B4 JUMP JUMPDEST SWAP1 POP SWAP2 SWAP1 POP JUMP JUMPDEST PUSH2 0x8ED DUP2 PUSH2 0x8D3 JUMP JUMPDEST DUP3 MSTORE POP POP JUMP JUMPDEST PUSH0 PUSH1 0x20 DUP3 ADD SWAP1 POP PUSH2 0x906 PUSH0 DUP4 ADD DUP5 PUSH2 0x8E4 JUMP JUMPDEST SWAP3 SWAP2 POP POP JUMP JUMPDEST PUSH0 DUP2 MLOAD SWAP1 POP SWAP2 SWAP1 POP JUMP JUMPDEST PUSH0 DUP3 DUP3 MSTORE PUSH1 0x20 DUP3 ADD SWAP1 POP SWAP3 SWAP2 POP POP JUMP JUMPDEST PUSH0 DUP2 SWAP1 POP PUSH1 0x20 DUP3 ADD SWAP1 POP SWAP2 SWAP1 POP JUMP JUMPDEST PUSH2 0x93E DUP2 PUSH2 0x8D3 JUMP JUMPDEST DUP3 MSTORE POP POP JUMP JUMPDEST PUSH0 PUSH2 0x94F DUP4 DUP4 PUSH2 0x935 JUMP JUMPDEST PUSH1 0x20 DUP4 ADD SWAP1 POP SWAP3 SWAP2 POP POP JUMP JUMPDEST PUSH0 PUSH1 0x20 DUP3 ADD SWAP1 POP SWAP2 SWAP1 POP JUMP JUMPDEST PUSH0 PUSH2 0x971 DUP3 PUSH2 0x90C JUMP JUMPDEST PUSH2 0x97B DUP2 DUP6 PUSH2 0x916 JUMP JUMPDEST SWAP4 POP PUSH2 0x986 DUP4 PUSH2 0x926 JUMP JUMPDEST DUP1 PUSH0 JUMPDEST DUP4 DUP2 LT ISZERO PUSH2 0x9B6 JUMPI DUP2 MLOAD PUSH2 0x99D DUP9 DUP3 PUSH2 0x944 JUMP JUMPDEST SWAP8 POP PUSH2 0x9A8 DUP4 PUSH2 0x95B JUMP JUMPDEST SWAP3 POP POP PUSH1 0x1 DUP2 ADD SWAP1 POP PUSH2 0x989 JUMP JUMPDEST POP DUP6 SWAP4 POP POP POP POP SWAP3 SWAP2 POP POP JUMP JUMPDEST PUSH0 PUSH1 0x20 DUP3 ADD SWAP1 POP DUP2 DUP2 SUB PUSH0 DUP4 ADD MSTORE PUSH2 0x9DB DUP2 DUP5 PUSH2 0x967 JUMP JUMPDEST SWAP1 POP SWAP3 SWAP2 POP POP JUMP JUMPDEST PUSH2 0x9EC DUP2 PUSH2 0x8D3 JUMP JUMPDEST DUP2 EQ PUSH2 0x9F6 JUMPI PUSH0 PUSH0 REVERT JUMPDEST POP JUMP JUMPDEST PUSH0 DUP2 CALLDATALOAD SWAP1 POP PUSH2 0xA07 DUP2 PUSH2 0x9E3 JUMP JUMPDEST SWAP3 SWAP2 POP POP JUMP JUMPDEST PUSH0 PUSH0 REVERT JUMPDEST PUSH0 PUSH1 0x1F NOT PUSH1 0x1F DUP4 ADD AND SWAP1 POP SWAP2 SWAP1 POP JUMP JUMPDEST PUSH32 0x4E487B7100000000000000000000000000000000000000000000000000000000 PUSH0 MSTORE PUSH1 0x41 PUSH1 0x4 MSTORE PUSH1 0x24 PUSH0 REVERT JUMPDEST PUSH2 0xA57 DUP3 PUSH2 0xA11 JUMP JUMPDEST DUP2 ADD DUP2 DUP2 LT PUSH8 0xFFFFFFFFFFFFFFFF DUP3 GT OR ISZERO PUSH2 0xA76 JUMPI PUSH2 0xA75 PUSH2 0xA21 JUMP JUMPDEST JUMPDEST DUP1 PUSH1 0x40 MSTORE POP POP POP JUMP JUMPDEST PUSH0 PUSH2 0xA88 PUSH2 0x845 JUMP JUMPDEST SWAP1 POP PUSH2 0xA94 DUP3 DUP3 PUSH2 0xA4E JUMP JUMPDEST SWAP2 SWAP1 POP JUMP JUMPDEST PUSH0 PUSH8 0xFFFFFFFFFFFFFFFF DUP3 GT ISZERO PUSH2 0xAB3 JUMPI PUSH2 0xAB2 PUSH2 0xA21 JUMP JUMPDEST JUMPDEST PUSH1 0x20 DUP3 MUL SWAP1 POP PUSH1 0x20 DUP2 ADD SWAP1 POP SWAP2 SWAP1 POP JUMP JUMPDEST PUSH0 PUSH0 REVERT JUMPDEST PUSH0 PUSH2 0xADA PUSH2 0xAD5 DUP5 PUSH2 0xA99 JUMP JUMPDEST PUSH2 0xA7F JUMP JUMPDEST SWAP1 POP DUP1 DUP4 DUP3 MSTORE PUSH1 0x20 DUP3 ADD SWAP1 POP PUSH1 0x20 DUP5 MUL DUP4 ADD DUP6 DUP2 GT ISZERO PUSH2 0xAFD JUMPI PUSH2 0xAFC PUSH2 0xAC4 JUMP JUMPDEST JUMPDEST DUP4 JUMPDEST DUP2 DUP2 LT ISZERO PUSH2 0xB26 JUMPI DUP1 PUSH2 0xB12 DUP9 DUP3 PUSH2 0x9F9 JUMP JUMPDEST DUP5 MSTORE PUSH1 0x20 DUP5 ADD SWAP4 POP POP PUSH1 0x20 DUP2 ADD SWAP1 POP PUSH2 0xAFF JUMP JUMPDEST POP POP POP SWAP4 SWAP3 POP POP POP JUMP JUMPDEST PUSH0 DUP3 PUSH1 0x1F DUP4 ADD SLT PUSH2 0xB44 JUMPI PUSH2 0xB43 PUSH2 0xA0D JUMP JUMPDEST JUMPDEST DUP2 CALLDATALOAD PUSH2 0xB54 DUP5 DUP3 PUSH1 0x20 DUP7 ADD PUSH2 0xAC8 JUMP JUMPDEST SWAP2 POP POP SWAP3 SWAP2 POP POP JUMP JUMPDEST PUSH0 PUSH0 PUSH1 0x40 DUP4 DUP6 SUB SLT ISZERO PUSH2 0xB73 JUMPI PUSH2 0xB72 PUSH2 0x84E JUMP JUMPDEST JUMPDEST PUSH0 PUSH2 0xB80 DUP6 DUP3 DUP7 ADD PUSH2 0x9F9 JUMP JUMPDEST SWAP3 POP POP PUSH1 0x20 DUP4 ADD CALLDATALOAD PUSH8 0xFFFFFFFFFFFFFFFF DUP2 GT ISZERO PUSH2 0xBA1 JUMPI PUSH2 0xBA0 PUSH2 0x852 JUMP JUMPDEST JUMPDEST PUSH2 0xBAD DUP6 DUP3 DUP7 ADD PUSH2 0xB30 JUMP JUMPDEST SWAP2 POP POP SWAP3 POP SWAP3 SWAP1 POP JUMP JUMPDEST PUSH0 PUSH1 0x20 DUP3 DUP5 SUB SLT ISZERO PUSH2 0xBCC JUMPI PUSH2 0xBCB PUSH2 0x84E JUMP JUMPDEST JUMPDEST PUSH0 DUP3 ADD CALLDATALOAD PUSH8 0xFFFFFFFFFFFFFFFF DUP2 GT ISZERO PUSH2 0xBE9 JUMPI PUSH2 0xBE8 PUSH2 0x852 JUMP JUMPDEST JUMPDEST PUSH2 0xBF5 DUP5 DUP3 DUP6 ADD PUSH2 0xB30 JUMP JUMPDEST SWAP2 POP POP SWAP3 SWAP2 POP POP JUMP JUMPDEST PUSH2 0xC07 DUP2 PUSH2 0x856 JUMP JUMPDEST DUP3 MSTORE POP POP JUMP JUMPDEST PUSH0 PUSH1 0x20 DUP3 ADD SWAP1 POP PUSH2 0xC20 PUSH0 DUP4 ADD DUP5 PUSH2 0xBFE JUMP JUMPDEST SWAP3 SWAP2 POP POP JUMP JUMPDEST PUSH0 PUSH0 REVERT JUMPDEST PUSH0 PUSH8 0xFFFFFFFFFFFFFFFF DUP3 GT ISZERO PUSH2 0xC44 JUMPI PUSH2 0xC43 PUSH2 0xA21 JUMP JUMPDEST JUMPDEST PUSH2 0xC4D DUP3 PUSH2 0xA11 JUMP JUMPDEST SWAP1 POP PUSH1 0x20 DUP2 ADD SWAP1 POP SWAP2 SWAP1 POP JUMP JUMPDEST DUP3 DUP2 DUP4 CALLDATACOPY PUSH0 DUP4 DUP4 ADD MSTORE POP POP POP JUMP JUMPDEST PUSH0 PUSH2 0xC7A PUSH2 0xC75 DUP5 PUSH2 0xC2A JUMP JUMPDEST PUSH2 0xA7F JUMP JUMPDEST SWAP1 POP DUP3 DUP2 MSTORE PUSH1 0x20 DUP2 ADD DUP5 DUP5 DUP5 ADD GT ISZERO PUSH2 0xC96 JUMPI PUSH2 0xC95 PUSH2 0xC26 JUMP JUMPDEST JUMPDEST PUSH2 0xCA1 DUP5 DUP3 DUP6 PUSH2 0xC5A JUMP JUMPDEST POP SWAP4 SWAP3 POP POP POP JUMP JUMPDEST PUSH0 DUP3 PUSH1 0x1F DUP4 ADD SLT PUSH2 0xCBD JUMPI PUSH2 0xCBC PUSH2 0xA0D JUMP JUMPDEST JUMPDEST DUP2 CALLDATALOAD PUSH2 0xCCD DUP5 DUP3 PUSH1 0x20 DUP7 ADD PUSH2 0xC68 JUMP JUMPDEST SWAP2 POP POP SWAP3 SWAP2 POP POP JUMP JUMPDEST PUSH0 PUSH0 PUSH0 PUSH0 PUSH0 PUSH0 PUSH0 PUSH0 PUSH0 PUSH2 0x120 DUP11 DUP13 SUB SLT ISZERO PUSH2 0xCF4 JUMPI PUSH2 0xCF3 PUSH2 0x84E JUMP JUMPDEST JUMPDEST PUSH0 DUP11 ADD CALLDATALOAD PUSH8 0xFFFFFFFFFFFFFFFF DUP2 GT ISZERO PUSH2 0xD11 JUMPI PUSH2 0xD10 PUSH2 0x852 JUMP JUMPDEST JUMPDEST PUSH2 0xD1D DUP13 DUP3 DUP14 ADD PUSH2 0xCA9 JUMP JUMPDEST SWAP10 POP POP PUSH1 0x20 DUP11 ADD CALLDATALOAD PUSH8 0xFFFFFFFFFFFFFFFF DUP2 GT ISZERO PUSH2 0xD3E JUMPI PUSH2 0xD3D PUSH2 0x852 JUMP JUMPDEST JUMPDEST PUSH2 0xD4A DUP13 DUP3 DUP14 ADD PUSH2 0xCA9 JUMP JUMPDEST SWAP9 POP POP PUSH1 0x40 PUSH2 0xD5B DUP13 DUP3 DUP14 ADD PUSH2 0x9F9 JUMP JUMPDEST SWAP8 POP POP PUSH1 0x60 PUSH2 0xD6C DUP13 DUP3 DUP14 ADD PUSH2 0x9F9 JUMP JUMPDEST SWAP7 POP POP PUSH1 0x80 PUSH2 0xD7D DUP13 DUP3 DUP14 ADD PUSH2 0x9F9 JUMP JUMPDEST SWAP6 POP POP PUSH1 0xA0 PUSH2 0xD8E DUP13 DUP3 DUP14 ADD PUSH2 0x9F9 JUMP JUMPDEST SWAP5 POP POP PUSH1 0xC0 DUP11 ADD CALLDATALOAD PUSH8 0xFFFFFFFFFFFFFFFF DUP2 GT ISZERO PUSH2 0xDAF JUMPI PUSH2 0xDAE PUSH2 0x852 JUMP JUMPDEST JUMPDEST PUSH2 0xDBB DUP13 DUP3 DUP14 ADD PUSH2 0xCA9 JUMP JUMPDEST SWAP4 POP POP PUSH1 0xE0 PUSH2 0xDCC DUP13 DUP3 DUP14 ADD PUSH2 0x875 JUMP JUMPDEST SWAP3 POP POP PUSH2 0x100 DUP11 ADD CALLDATALOAD PUSH8 0xFFFFFFFFFFFFFFFF DUP2 GT ISZERO PUSH2 0xDEE JUMPI PUSH2 0xDED PUSH2 0x852 JUMP JUMPDEST JUMPDEST PUSH2 0xDFA DUP13 DUP3 DUP14 ADD PUSH2 0xCA9 JUMP JUMPDEST SWAP2 POP POP SWAP3 SWAP6 SWAP9 POP SWAP3 SWAP6 SWAP9 POP SWAP3 SWAP6 SWAP9 JUMP JUMPDEST PUSH0 PUSH1 0x20 DUP3 DUP5 SUB SLT ISZERO PUSH2 0xE1F JUMPI PUSH2 0xE1E PUSH2 0x84E JUMP JUMPDEST JUMPDEST PUSH0 PUSH2 0xE2C DUP5 DUP3 DUP6 ADD PUSH2 0x9F9 JUMP JUMPDEST SWAP2 POP POP SWAP3 SWAP2 POP POP JUMP JUMPDEST PUSH0 DUP3 DUP3 MSTORE PUSH1 0x20 DUP3 ADD SWAP1 POP SWAP3 SWAP2 POP POP JUMP JUMPDEST PUSH32 0x496E76616C696420696E64657800000000000000000000000000000000000000 PUSH0 DUP3 ADD MSTORE POP JUMP JUMPDEST PUSH0 PUSH2 0xE79 PUSH1 0xD DUP4 PUSH2 0xE35 JUMP JUMPDEST SWAP2 POP PUSH2 0xE84 DUP3 PUSH2 0xE45 JUMP JUMPDEST PUSH1 0x20 DUP3 ADD SWAP1 POP SWAP2 SWAP1 POP JUMP JUMPDEST PUSH0 PUSH1 0x20 DUP3 ADD SWAP1 POP DUP2 DUP2 SUB PUSH0 DUP4 ADD MSTORE PUSH2 0xEA6 DUP2 PUSH2 0xE6D JUMP JUMPDEST SWAP1 POP SWAP2 SWAP1 POP JUMP JUMPDEST PUSH32 0x4E487B7100000000000000000000000000000000000000000000000000000000 PUSH0 MSTORE PUSH1 0x32 PUSH1 0x4 MSTORE PUSH1 0x24 PUSH0 REVERT JUMPDEST PUSH0 DUP2 MLOAD SWAP1 POP SWAP2 SWAP1 POP JUMP JUMPDEST DUP3 DUP2 DUP4 MCOPY PUSH0 DUP4 DUP4 ADD MSTORE POP POP POP JUMP JUMPDEST PUSH0 PUSH2 0xEFC DUP3 PUSH2 0xEDA JUMP JUMPDEST PUSH2 0xF06 DUP2 DUP6 PUSH2 0xE35 JUMP JUMPDEST SWAP4 POP PUSH2 0xF16 DUP2 DUP6 PUSH1 0x20 DUP7 ADD PUSH2 0xEE4 JUMP JUMPDEST PUSH2 0xF1F DUP2 PUSH2 0xA11 JUMP JUMPDEST DUP5 ADD SWAP2 POP POP SWAP3 SWAP2 POP POP JUMP JUMPDEST PUSH0 PUSH2 0x120 DUP3 ADD SWAP1 POP DUP2 DUP2 SUB PUSH0 DUP4 ADD MSTORE PUSH2 0xF43 DUP2 DUP13 PUSH2 0xEF2 JUMP JUMPDEST SWAP1 POP DUP2 DUP2 SUB PUSH1 0x20 DUP4 ADD MSTORE PUSH2 0xF57 DUP2 DUP12 PUSH2 0xEF2 JUMP JUMPDEST SWAP1 POP PUSH2 0xF66 PUSH1 0x40 DUP4 ADD DUP11 PUSH2 0x8E4 JUMP JUMPDEST PUSH2 0xF73 PUSH1 0x60 DUP4 ADD DUP10 PUSH2 0x8E4 JUMP JUMPDEST PUSH2 0xF80 PUSH1 0x80 DUP4 ADD DUP9 PUSH2 0x8E4 JUMP JUMPDEST PUSH2 0xF8D PUSH1 0xA0 DUP4 ADD DUP8 PUSH2 0x8E4 JUMP JUMPDEST DUP2 DUP2 SUB PUSH1 0xC0 DUP4 ADD MSTORE PUSH2 0xF9F DUP2 DUP7 PUSH2 0xEF2 JUMP JUMPDEST SWAP1 POP PUSH2 0xFAE PUSH1 0xE0 DUP4 ADD DUP6 PUSH2 0xBFE JUMP JUMPDEST DUP2 DUP2 SUB PUSH2 0x100 DUP4 ADD MSTORE PUSH2 0xFC1 DUP2 DUP5 PUSH2 0xEF2 JUMP JUMPDEST SWAP1 POP SWAP11 SWAP10 POP POP POP POP POP POP POP POP POP POP JUMP JUMPDEST PUSH0 PUSH1 0x40 DUP3 ADD SWAP1 POP PUSH2 0xFE4 PUSH0 DUP4 ADD DUP6 PUSH2 0x8E4 JUMP JUMPDEST PUSH2 0xFF1 PUSH1 0x20 DUP4 ADD DUP5 PUSH2 0x8E4 JUMP JUMPDEST SWAP4 SWAP3 POP POP POP JUMP JUMPDEST PUSH32 0x4E6F20636F6E74726163747320746F2072656D6F766500000000000000000000 PUSH0 DUP3 ADD MSTORE POP JUMP JUMPDEST PUSH0 PUSH2 0x102C PUSH1 0x16 DUP4 PUSH2 0xE35 JUMP JUMPDEST SWAP2 POP PUSH2 0x1037 DUP3 PUSH2 0xFF8 JUMP JUMPDEST PUSH1 0x20 DUP3 ADD SWAP1 POP SWAP2 SWAP1 POP JUMP JUMPDEST PUSH0 PUSH1 0x20 DUP3 ADD SWAP1 POP DUP2 DUP2 SUB PUSH0 DUP4 ADD MSTORE PUSH2 0x1059 DUP2 PUSH2 0x1020 JUMP JUMPDEST SWAP1 POP SWAP2 SWAP1 POP JUMP JUMPDEST PUSH32 0x4E487B7100000000000000000000000000000000000000000000000000000000 PUSH0 MSTORE PUSH1 0x31 PUSH1 0x4 MSTORE PUSH1 0x24 PUSH0 REVERT INVALID PUSH1 0x80 PUSH1 0x40 MSTORE CALLVALUE DUP1 ISZERO PUSH2 0xF JUMPI PUSH0 PUSH0 REVERT JUMPDEST POP PUSH1 0x40 MLOAD PUSH2 0x2B58 CODESIZE SUB DUP1 PUSH2 0x2B58 DUP4 CODECOPY DUP2 DUP2 ADD PUSH1 0x40 MSTORE DUP2 ADD SWAP1 PUSH2 0x31 SWAP2 SWAP1 PUSH2 0x5F4 JUMP JUMPDEST DUP9 PUSH0 SWAP1 DUP2 PUSH2 0x3F SWAP2 SWAP1 PUSH2 0x92F JUMP JUMPDEST POP DUP8 PUSH1 0x1 SWAP1 DUP2 PUSH2 0x4F SWAP2 SWAP1 PUSH2 0x92F JUMP JUMPDEST POP DUP5 PUSH1 0x2 PUSH0 PUSH2 0x100 EXP DUP2 SLOAD DUP2 PUSH20 0xFFFFFFFFFFFFFFFFFFFFFFFFFFFFFFFFFFFFFFFF MUL NOT AND SWAP1 DUP4 PUSH20 0xFFFFFFFFFFFFFFFFFFFFFFFFFFFFFFFFFFFFFFFF AND MUL OR SWAP1 SSTORE POP DUP4 PUSH1 0x3 PUSH0 PUSH2 0x100 EXP DUP2 SLOAD DUP2 PUSH20 0xFFFFFFFFFFFFFFFFFFFFFFFFFFFFFFFFFFFFFFFF MUL NOT AND SWAP1 DUP4 PUSH20 0xFFFFFFFFFFFFFFFFFFFFFFFFFFFFFFFFFFFFFFFF AND MUL OR SWAP1 SSTORE POP DUP1 PUSH1 0x4 SWAP1 DUP2 PUSH2 0xDF SWAP2 SWAP1 PUSH2 0x92F JUMP JUMPDEST POP PUSH1 0x40 MLOAD DUP1 PUSH1 0xC0 ADD PUSH1 0x40 MSTORE DUP1 DUP9 PUSH20 0xFFFFFFFFFFFFFFFFFFFFFFFFFFFFFFFFFFFFFFFF AND DUP2 MSTORE PUSH1 0x20 ADD DUP8 PUSH20 0xFFFFFFFFFFFFFFFFFFFFFFFFFFFFFFFFFFFFFFFF AND DUP2 MSTORE PUSH1 0x20 ADD DUP5 DUP2 MSTORE PUSH1 0x20 ADD DUP4 DUP2 MSTORE PUSH1 0x20 ADD PUSH0 PUSH1 0x5 DUP2 GT ISZERO PUSH2 0x142 JUMPI PUSH2 0x141 PUSH2 0x9FE JUMP JUMPDEST JUMPDEST DUP2 MSTORE PUSH1 0x20 ADD PUSH0 ISZERO ISZERO DUP2 MSTORE POP PUSH1 0x6 PUSH0 DUP3 ADD MLOAD DUP2 PUSH0 ADD PUSH0 PUSH2 0x100 EXP DUP2 SLOAD DUP2 PUSH20 0xFFFFFFFFFFFFFFFFFFFFFFFFFFFFFFFFFFFFFFFF MUL NOT AND SWAP1 DUP4 PUSH20 0xFFFFFFFFFFFFFFFFFFFFFFFFFFFFFFFFFFFFFFFF AND MUL OR SWAP1 SSTORE POP PUSH1 0x20 DUP3 ADD MLOAD DUP2 PUSH1 0x1 ADD PUSH0 PUSH2 0x100 EXP DUP2 SLOAD DUP2 PUSH20 0xFFFFFFFFFFFFFFFFFFFFFFFFFFFFFFFFFFFFFFFF MUL NOT AND SWAP1 DUP4 PUSH20 0xFFFFFFFFFFFFFFFFFFFFFFFFFFFFFFFFFFFFFFFF AND MUL OR SWAP1 SSTORE POP PUSH1 0x40 DUP3 ADD MLOAD DUP2 PUSH1 0x2 ADD SWAP1 DUP2 PUSH2 0x1EE SWAP2 SWAP1 PUSH2 0x92F JUMP JUMPDEST POP PUSH1 0x60 DUP3 ADD MLOAD DUP2 PUSH1 0x3 ADD SSTORE PUSH1 0x80 DUP3 ADD MLOAD DUP2 PUSH1 0x4 ADD PUSH0 PUSH2 0x100 EXP DUP2 SLOAD DUP2 PUSH1 0xFF MUL NOT AND SWAP1 DUP4 PUSH1 0x5 DUP2 GT ISZERO PUSH2 0x223 JUMPI PUSH2 0x222 PUSH2 0x9FE JUMP JUMPDEST JUMPDEST MUL OR SWAP1 SSTORE POP PUSH1 0xA0 DUP3 ADD MLOAD DUP2 PUSH1 0x4 ADD PUSH1 0x1 PUSH2 0x100 EXP DUP2 SLOAD DUP2 PUSH1 0xFF MUL NOT AND SWAP1 DUP4 ISZERO ISZERO MUL OR SWAP1 SSTORE POP SWAP1 POP POP PUSH1 0x40 MLOAD DUP1 PUSH1 0x40 ADD PUSH1 0x40 MSTORE DUP1 PUSH1 0x1 ISZERO ISZERO DUP2 MSTORE PUSH1 0x20 ADD PUSH0 ISZERO ISZERO DUP2 MSTORE POP PUSH1 0x5 PUSH0 DUP10 PUSH20 0xFFFFFFFFFFFFFFFFFFFFFFFFFFFFFFFFFFFFFFFF AND PUSH20 0xFFFFFFFFFFFFFFFFFFFFFFFFFFFFFFFFFFFFFFFF AND DUP2 MSTORE PUSH1 0x20 ADD SWAP1 DUP2 MSTORE PUSH1 0x20 ADD PUSH0 KECCAK256 PUSH0 DUP3 ADD MLOAD DUP2 PUSH0 ADD PUSH0 PUSH2 0x100 EXP DUP2 SLOAD DUP2 PUSH1 0xFF MUL NOT AND SWAP1 DUP4 ISZERO ISZERO MUL OR SWAP1 SSTORE POP PUSH1 0x20 DUP3 ADD MLOAD DUP2 PUSH0 ADD PUSH1 0x1 PUSH2 0x100 EXP DUP2 SLOAD DUP2 PUSH1 0xFF MUL NOT AND SWAP1 DUP4 ISZERO ISZERO MUL OR SWAP1 SSTORE POP SWAP1 POP POP PUSH1 0x40 MLOAD DUP1 PUSH1 0x40 ADD PUSH1 0x40 MSTORE DUP1 PUSH0 ISZERO ISZERO DUP2 MSTORE PUSH1 0x20 ADD PUSH0 ISZERO ISZERO DUP2 MSTORE POP PUSH1 0x5 PUSH0 DUP9 PUSH20 0xFFFFFFFFFFFFFFFFFFFFFFFFFFFFFFFFFFFFFFFF AND PUSH20 0xFFFFFFFFFFFFFFFFFFFFFFFFFFFFFFFFFFFFFFFF AND DUP2 MSTORE PUSH1 0x20 ADD SWAP1 DUP2 MSTORE PUSH1 0x20 ADD PUSH0 KECCAK256 PUSH0 DUP3 ADD MLOAD DUP2 PUSH0 ADD PUSH0 PUSH2 0x100 EXP DUP2 SLOAD DUP2 PUSH1 0xFF MUL NOT AND SWAP1 DUP4 ISZERO ISZERO MUL OR SWAP1 SSTORE POP PUSH1 0x20 DUP3 ADD MLOAD DUP2 PUSH0 ADD PUSH1 0x1 PUSH2 0x100 EXP DUP2 SLOAD DUP2 PUSH1 0xFF MUL NOT AND SWAP1 DUP4 ISZERO ISZERO MUL OR SWAP1 SSTORE POP SWAP1 POP POP PUSH1 0x40 MLOAD DUP1 PUSH1 0x40 ADD PUSH1 0x40 MSTORE DUP1 PUSH0 ISZERO ISZERO DUP2 MSTORE PUSH1 0x20 ADD PUSH1 0x1 ISZERO ISZERO DUP2 MSTORE POP PUSH1 0x5 PUSH0 DUP7 PUSH20 0xFFFFFFFFFFFFFFFFFFFFFFFFFFFFFFFFFFFFFFFF AND PUSH20 0xFFFFFFFFFFFFFFFFFFFFFFFFFFFFFFFFFFFFFFFF AND DUP2 MSTORE PUSH1 0x20 ADD SWAP1 DUP2 MSTORE PUSH1 0x20 ADD PUSH0 KECCAK256 PUSH0 DUP3 ADD MLOAD DUP2 PUSH0 ADD PUSH0 PUSH2 0x100 EXP DUP2 SLOAD DUP2 PUSH1 0xFF MUL NOT AND SWAP1 DUP4 ISZERO ISZERO MUL OR SWAP1 SSTORE POP PUSH1 0x20 DUP3 ADD MLOAD DUP2 PUSH0 ADD PUSH1 0x1 PUSH2 0x100 EXP DUP2 SLOAD DUP2 PUSH1 0xFF MUL NOT AND SWAP1 DUP4 ISZERO ISZERO MUL OR SWAP1 SSTORE POP SWAP1 POP POP POP POP POP POP POP POP POP POP POP PUSH2 0xA2B JUMP JUMPDEST PUSH0 PUSH1 0x40 MLOAD SWAP1 POP SWAP1 JUMP JUMPDEST PUSH0 PUSH0 REVERT JUMPDEST PUSH0 PUSH0 REVERT JUMPDEST PUSH0 PUSH0 REVERT JUMPDEST PUSH0 PUSH0 REVERT JUMPDEST PUSH0 PUSH1 0x1F NOT PUSH1 0x1F DUP4 ADD AND SWAP1 POP SWAP2 SWAP1 POP JUMP JUMPDEST PUSH32 0x4E487B7100000000000000000000000000000000000000000000000000000000 PUSH0 MSTORE PUSH1 0x41 PUSH1 0x4 MSTORE PUSH1 0x24 PUSH0 REVERT JUMPDEST PUSH2 0x479 DUP3 PUSH2 0x433 JUMP JUMPDEST DUP2 ADD DUP2 DUP2 LT PUSH8 0xFFFFFFFFFFFFFFFF DUP3 GT OR ISZERO PUSH2 0x498 JUMPI PUSH2 0x497 PUSH2 0x443 JUMP JUMPDEST JUMPDEST DUP1 PUSH1 0x40 MSTORE POP POP POP JUMP JUMPDEST PUSH0 PUSH2 0x4AA PUSH2 0x41A JUMP JUMPDEST SWAP1 POP PUSH2 0x4B6 DUP3 DUP3 PUSH2 0x470 JUMP JUMPDEST SWAP2 SWAP1 POP JUMP JUMPDEST PUSH0 PUSH8 0xFFFFFFFFFFFFFFFF DUP3 GT ISZERO PUSH2 0x4D5 JUMPI PUSH2 0x4D4 PUSH2 0x443 JUMP JUMPDEST JUMPDEST PUSH2 0x4DE DUP3 PUSH2 0x433 JUMP JUMPDEST SWAP1 POP PUSH1 0x20 DUP2 ADD SWAP1 POP SWAP2 SWAP1 POP JUMP JUMPDEST DUP3 DUP2 DUP4 MCOPY PUSH0 DUP4 DUP4 ADD MSTORE POP POP POP JUMP JUMPDEST PUSH0 PUSH2 0x50B PUSH2 0x506 DUP5 PUSH2 0x4BB JUMP JUMPDEST PUSH2 0x4A1 JUMP JUMPDEST SWAP1 POP DUP3 DUP2 MSTORE PUSH1 0x20 DUP2 ADD DUP5 DUP5 DUP5 ADD GT ISZERO PUSH2 0x527 JUMPI PUSH2 0x526 PUSH2 0x42F JUMP JUMPDEST JUMPDEST PUSH2 0x532 DUP5 DUP3 DUP6 PUSH2 0x4EB JUMP JUMPDEST POP SWAP4 SWAP3 POP POP POP JUMP JUMPDEST PUSH0 DUP3 PUSH1 0x1F DUP4 ADD SLT PUSH2 0x54E JUMPI PUSH2 0x54D PUSH2 0x42B JUMP JUMPDEST JUMPDEST DUP2 MLOAD PUSH2 0x55E DUP5 DUP3 PUSH1 0x20 DUP7 ADD PUSH2 0x4F9 JUMP JUMPDEST SWAP2 POP POP SWAP3 SWAP2 POP POP JUMP JUMPDEST PUSH0 PUSH20 0xFFFFFFFFFFFFFFFFFFFFFFFFFFFFFFFFFFFFFFFF DUP3 AND SWAP1 POP SWAP2 SWAP1 POP JUMP JUMPDEST PUSH0 PUSH2 0x590 DUP3 PUSH2 0x567 JUMP JUMPDEST SWAP1 POP SWAP2 SWAP1 POP JUMP JUMPDEST PUSH2 0x5A0 DUP2 PUSH2 0x586 JUMP JUMPDEST DUP2 EQ PUSH2 0x5AA JUMPI PUSH0 PUSH0 REVERT JUMPDEST POP JUMP JUMPDEST PUSH0 DUP2 MLOAD SWAP1 POP PUSH2 0x5BB DUP2 PUSH2 0x597 JUMP JUMPDEST SWAP3 SWAP2 POP POP JUMP JUMPDEST PUSH0 DUP2 SWAP1 POP SWAP2 SWAP1 POP JUMP JUMPDEST PUSH2 0x5D3 DUP2 PUSH2 0x5C1 JUMP JUMPDEST DUP2 EQ PUSH2 0x5DD JUMPI PUSH0 PUSH0 REVERT JUMPDEST POP JUMP JUMPDEST PUSH0 DUP2 MLOAD SWAP1 POP PUSH2 0x5EE DUP2 PUSH2 0x5CA JUMP JUMPDEST SWAP3 SWAP2 POP POP JUMP JUMPDEST PUSH0 PUSH0 PUSH0 PUSH0 PUSH0 PUSH0 PUSH0 PUSH0 PUSH0 PUSH2 0x120 DUP11 DUP13 SUB SLT ISZERO PUSH2 0x612 JUMPI PUSH2 0x611 PUSH2 0x423 JUMP JUMPDEST JUMPDEST PUSH0 DUP11 ADD MLOAD PUSH8 0xFFFFFFFFFFFFFFFF DUP2 GT ISZERO PUSH2 0x62F JUMPI PUSH2 0x62E PUSH2 0x427 JUMP JUMPDEST JUMPDEST PUSH2 0x63B DUP13 DUP3 DUP14 ADD PUSH2 0x53A JUMP JUMPDEST SWAP10 POP POP PUSH1 0x20 DUP11 ADD MLOAD PUSH8 0xFFFFFFFFFFFFFFFF DUP2 GT ISZERO PUSH2 0x65C JUMPI PUSH2 0x65B PUSH2 0x427 JUMP JUMPDEST JUMPDEST PUSH2 0x668 DUP13 DUP3 DUP14 ADD PUSH2 0x53A JUMP JUMPDEST SWAP9 POP POP PUSH1 0x40 PUSH2 0x679 DUP13 DUP3 DUP14 ADD PUSH2 0x5AD JUMP JUMPDEST SWAP8 POP POP PUSH1 0x60 PUSH2 0x68A DUP13 DUP3 DUP14 ADD PUSH2 0x5AD JUMP JUMPDEST SWAP7 POP POP PUSH1 0x80 PUSH2 0x69B DUP13 DUP3 DUP14 ADD PUSH2 0x5AD JUMP JUMPDEST SWAP6 POP POP PUSH1 0xA0 PUSH2 0x6AC DUP13 DUP3 DUP14 ADD PUSH2 0x5AD JUMP JUMPDEST SWAP5 POP POP PUSH1 0xC0 DUP11 ADD MLOAD PUSH8 0xFFFFFFFFFFFFFFFF DUP2 GT ISZERO PUSH2 0x6CD JUMPI PUSH2 0x6CC PUSH2 0x427 JUMP JUMPDEST JUMPDEST PUSH2 0x6D9 DUP13 DUP3 DUP14 ADD PUSH2 0x53A JUMP JUMPDEST SWAP4 POP POP PUSH1 0xE0 PUSH2 0x6EA DUP13 DUP3 DUP14 ADD PUSH2 0x5E0 JUMP JUMPDEST SWAP3 POP POP PUSH2 0x100 DUP11 ADD MLOAD PUSH8 0xFFFFFFFFFFFFFFFF DUP2 GT ISZERO PUSH2 0x70C JUMPI PUSH2 0x70B PUSH2 0x427 JUMP JUMPDEST JUMPDEST PUSH2 0x718 DUP13 DUP3 DUP14 ADD PUSH2 0x53A JUMP JUMPDEST SWAP2 POP POP SWAP3 SWAP6 SWAP9 POP SWAP3 SWAP6 SWAP9 POP SWAP3 SWAP6 SWAP9 JUMP JUMPDEST PUSH0 DUP2 MLOAD SWAP1 POP SWAP2 SWAP1 POP JUMP JUMPDEST PUSH32 0x4E487B7100000000000000000000000000000000000000000000000000000000 PUSH0 MSTORE PUSH1 0x22 PUSH1 0x4 MSTORE PUSH1 0x24 PUSH0 REVERT JUMPDEST PUSH0 PUSH1 0x2 DUP3 DIV SWAP1 POP PUSH1 0x1 DUP3 AND DUP1 PUSH2 0x776 JUMPI PUSH1 0x7F DUP3 AND SWAP2 POP JUMPDEST PUSH1 0x20 DUP3 LT DUP2 SUB PUSH2 0x789 JUMPI PUSH2 0x788 PUSH2 0x732 JUMP JUMPDEST JUMPDEST POP SWAP2 SWAP1 POP JUMP JUMPDEST PUSH0 DUP2 SWAP1 POP DUP2 PUSH0 MSTORE PUSH1 0x20 PUSH0 KECCAK256 SWAP1 POP SWAP2 SWAP1 POP JUMP JUMPDEST PUSH0 PUSH1 0x20 PUSH1 0x1F DUP4 ADD DIV SWAP1 POP SWAP2 SWAP1 POP JUMP JUMPDEST PUSH0 DUP3 DUP3 SHL SWAP1 POP SWAP3 SWAP2 POP POP JUMP JUMPDEST PUSH0 PUSH1 0x8 DUP4 MUL PUSH2 0x7EB PUSH32 0xFFFFFFFFFFFFFFFFFFFFFFFFFFFFFFFFFFFFFFFFFFFFFFFFFFFFFFFFFFFFFFFF DUP3 PUSH2 0x7B0 JUMP JUMPDEST PUSH2 0x7F5 DUP7 DUP4 PUSH2 0x7B0 JUMP JUMPDEST SWAP6 POP DUP1 NOT DUP5 AND SWAP4 POP DUP1 DUP7 AND DUP5 OR SWAP3 POP POP POP SWAP4 SWAP3 POP POP POP JUMP JUMPDEST PUSH0 DUP2 SWAP1 POP SWAP2 SWAP1 POP JUMP JUMPDEST PUSH0 PUSH2 0x830 PUSH2 0x82B PUSH2 0x826 DUP5 PUSH2 0x5C1 JUMP JUMPDEST PUSH2 0x80D JUMP JUMPDEST PUSH2 0x5C1 JUMP JUMPDEST SWAP1 POP SWAP2 SWAP1 POP JUMP JUMPDEST PUSH0 DUP2 SWAP1 POP SWAP2 SWAP1 POP JUMP JUMPDEST PUSH2 0x849 DUP4 PUSH2 0x816 JUMP JUMPDEST PUSH2 0x85D PUSH2 0x855 DUP3 PUSH2 0x837 JUMP JUMPDEST DUP5 DUP5 SLOAD PUSH2 0x7BC JUMP JUMPDEST DUP3 SSTORE POP POP POP POP JUMP JUMPDEST PUSH0 PUSH0 SWAP1 POP SWAP1 JUMP JUMPDEST PUSH2 0x874 PUSH2 0x865 JUMP JUMPDEST PUSH2 0x87F DUP2 DUP5 DUP5 PUSH2 0x840 JUMP JUMPDEST POP POP POP JUMP JUMPDEST JUMPDEST DUP2 DUP2 LT ISZERO PUSH2 0x8A2 JUMPI PUSH2 0x897 PUSH0 DUP3 PUSH2 0x86C JUMP JUMPDEST PUSH1 0x1 DUP2 ADD SWAP1 POP PUSH2 0x885 JUMP JUMPDEST POP POP JUMP JUMPDEST PUSH1 0x1F DUP3 GT ISZERO PUSH2 0x8E7 JUMPI PUSH2 0x8B8 DUP2 PUSH2 0x78F JUMP JUMPDEST PUSH2 0x8C1 DUP5 PUSH2 0x7A1 JUMP JUMPDEST DUP2 ADD PUSH1 0x20 DUP6 LT ISZERO PUSH2 0x8D0 JUMPI DUP2 SWAP1 POP JUMPDEST PUSH2 0x8E4 PUSH2 0x8DC DUP6 PUSH2 0x7A1 JUMP JUMPDEST DUP4 ADD DUP3 PUSH2 0x884 JUMP JUMPDEST POP POP JUMPDEST POP POP POP JUMP JUMPDEST PUSH0 DUP3 DUP3 SHR SWAP1 POP SWAP3 SWAP2 POP POP JUMP JUMPDEST PUSH0 PUSH2 0x907 PUSH0 NOT DUP5 PUSH1 0x8 MUL PUSH2 0x8EC JUMP JUMPDEST NOT DUP1 DUP4 AND SWAP2 POP POP SWAP3 SWAP2 POP POP JUMP JUMPDEST PUSH0 PUSH2 0x91F DUP4 DUP4 PUSH2 0x8F8 JUMP JUMPDEST SWAP2 POP DUP3 PUSH1 0x2 MUL DUP3 OR SWAP1 POP SWAP3 SWAP2 POP POP JUMP JUMPDEST PUSH2 0x938 DUP3 PUSH2 0x728 JUMP JUMPDEST PUSH8 0xFFFFFFFFFFFFFFFF DUP2 GT ISZERO PUSH2 0x951 JUMPI PUSH2 0x950 PUSH2 0x443 JUMP JUMPDEST JUMPDEST PUSH2 0x95B DUP3 SLOAD PUSH2 0x75F JUMP JUMPDEST PUSH2 0x966 DUP3 DUP3 DUP6 PUSH2 0x8A6 JUMP JUMPDEST PUSH0 PUSH1 0x20 SWAP1 POP PUSH1 0x1F DUP4 GT PUSH1 0x1 DUP2 EQ PUSH2 0x997 JUMPI PUSH0 DUP5 ISZERO PUSH2 0x985 JUMPI DUP3 DUP8 ADD MLOAD SWAP1 POP JUMPDEST PUSH2 0x98F DUP6 DUP3 PUSH2 0x914 JUMP JUMPDEST DUP7 SSTORE POP PUSH2 0x9F6 JUMP JUMPDEST PUSH1 0x1F NOT DUP5 AND PUSH2 0x9A5 DUP7 PUSH2 0x78F JUMP JUMPDEST PUSH0 JUMPDEST DUP3 DUP2 LT ISZERO PUSH2 0x9CC JUMPI DUP5 DUP10 ADD MLOAD DUP3 SSTORE PUSH1 0x1 DUP3 ADD SWAP2 POP PUSH1 0x20 DUP6 ADD SWAP5 POP PUSH1 0x20 DUP2 ADD SWAP1 POP PUSH2 0x9A7 JUMP JUMPDEST DUP7 DUP4 LT ISZERO PUSH2 0x9E9 JUMPI DUP5 DUP10 ADD MLOAD PUSH2 0x9E5 PUSH1 0x1F DUP10 AND DUP3 PUSH2 0x8F8 JUMP JUMPDEST DUP4 SSTORE POP JUMPDEST PUSH1 0x1 PUSH1 0x2 DUP9 MUL ADD DUP9 SSTORE POP POP POP JUMPDEST POP POP POP POP POP POP JUMP JUMPDEST PUSH32 0x4E487B7100000000000000000000000000000000000000000000000000000000 PUSH0 MSTORE PUSH1 0x21 PUSH1 0x4 MSTORE PUSH1 0x24 PUSH0 REVERT JUMPDEST PUSH2 0x2120 DUP1 PUSH2 0xA38 PUSH0 CODECOPY PUSH0 RETURN INVALID PUSH1 0x80 PUSH1 0x40 MSTORE PUSH1 0x4 CALLDATASIZE LT PUSH2 0xF1 JUMPI PUSH0 CALLDATALOAD PUSH1 0xE0 SHR DUP1 PUSH4 0x5319A4A9 GT PUSH2 0x89 JUMPI DUP1 PUSH4 0xB58AAD48 GT PUSH2 0x58 JUMPI DUP1 PUSH4 0xB58AAD48 EQ PUSH2 0x268 JUMPI DUP1 PUSH4 0xD598D4C9 EQ PUSH2 0x292 JUMPI DUP1 PUSH4 0xDB6003D1 EQ PUSH2 0x2C1 JUMPI DUP1 PUSH4 0xEBD20751 EQ PUSH2 0x2D7 JUMPI PUSH2 0xF1 JUMP JUMPDEST DUP1 PUSH4 0x5319A4A9 EQ PUSH2 0x208 JUMPI DUP1 PUSH4 0x619D2671 EQ PUSH2 0x212 JUMPI DUP1 PUSH4 0x789B5771 EQ PUSH2 0x228 JUMPI DUP1 PUSH4 0x79FD022E EQ PUSH2 0x23E JUMPI PUSH2 0xF1 JUMP JUMPDEST DUP1 PUSH4 0x2B68BB2D GT PUSH2 0xC5 JUMPI DUP1 PUSH4 0x2B68BB2D EQ PUSH2 0x175 JUMPI DUP1 PUSH4 0x3BFB6E31 EQ PUSH2 0x18B JUMPI DUP1 PUSH4 0x4D0D40D3 EQ PUSH2 0x1B5 JUMPI DUP1 PUSH4 0x4F235207 EQ PUSH2 0x1CB JUMPI PUSH2 0xF1 JUMP JUMPDEST DUP1 PUSH3 0xDAD7D4 EQ PUSH2 0xF5 JUMPI DUP1 PUSH4 0x552F9FF EQ PUSH2 0x11F JUMPI DUP1 PUSH4 0xD73F010 EQ PUSH2 0x135 JUMPI DUP1 PUSH4 0xD7EBBD9 EQ PUSH2 0x14B JUMPI JUMPDEST PUSH0 PUSH0 REVERT JUMPDEST CALLVALUE DUP1 ISZERO PUSH2 0x100 JUMPI PUSH0 PUSH0 REVERT JUMPDEST POP PUSH2 0x109 PUSH2 0x301 JUMP JUMPDEST PUSH1 0x40 MLOAD PUSH2 0x116 SWAP2 SWAP1 PUSH2 0x17F5 JUMP JUMPDEST PUSH1 0x40 MLOAD DUP1 SWAP2 SUB SWAP1 RETURN JUMPDEST CALLVALUE DUP1 ISZERO PUSH2 0x12A JUMPI PUSH0 PUSH0 REVERT JUMPDEST POP PUSH2 0x133 PUSH2 0x38D JUMP JUMPDEST STOP JUMPDEST CALLVALUE DUP1 ISZERO PUSH2 0x140 JUMPI PUSH0 PUSH0 REVERT JUMPDEST POP PUSH2 0x149 PUSH2 0x4F1 JUMP JUMPDEST STOP JUMPDEST CALLVALUE DUP1 ISZERO PUSH2 0x156 JUMPI PUSH0 PUSH0 REVERT JUMPDEST POP PUSH2 0x15F PUSH2 0x656 JUMP JUMPDEST PUSH1 0x40 MLOAD PUSH2 0x16C SWAP2 SWAP1 PUSH2 0x17F5 JUMP JUMPDEST PUSH1 0x40 MLOAD DUP1 SWAP2 SUB SWAP1 RETURN JUMPDEST CALLVALUE DUP1 ISZERO PUSH2 0x180 JUMPI PUSH0 PUSH0 REVERT JUMPDEST POP PUSH2 0x189 PUSH2 0x96E JUMP JUMPDEST STOP JUMPDEST CALLVALUE DUP1 ISZERO PUSH2 0x196 JUMPI PUSH0 PUSH0 REVERT JUMPDEST POP PUSH2 0x19F PUSH2 0xBEE JUMP JUMPDEST PUSH1 0x40 MLOAD PUSH2 0x1AC SWAP2 SWAP1 PUSH2 0x1854 JUMP JUMPDEST PUSH1 0x40 MLOAD DUP1 SWAP2 SUB SWAP1 RETURN JUMPDEST CALLVALUE DUP1 ISZERO PUSH2 0x1C0 JUMPI PUSH0 PUSH0 REVERT JUMPDEST POP PUSH2 0x1C9 PUSH2 0xC13 JUMP JUMPDEST STOP JUMPDEST CALLVALUE DUP1 ISZERO PUSH2 0x1D6 JUMPI PUSH0 PUSH0 REVERT JUMPDEST POP PUSH2 0x1F1 PUSH1 0x4 DUP1 CALLDATASIZE SUB DUP2 ADD SWAP1 PUSH2 0x1EC SWAP2 SWAP1 PUSH2 0x189B JUMP JUMPDEST PUSH2 0xD6E JUMP JUMPDEST PUSH1 0x40 MLOAD PUSH2 0x1FF SWAP3 SWAP2 SWAP1 PUSH2 0x18E0 JUMP JUMPDEST PUSH1 0x40 MLOAD DUP1 SWAP2 SUB SWAP1 RETURN JUMPDEST PUSH2 0x210 PUSH2 0xDA6 JUMP JUMPDEST STOP JUMPDEST CALLVALUE DUP1 ISZERO PUSH2 0x21D JUMPI PUSH0 PUSH0 REVERT JUMPDEST POP PUSH2 0x226 PUSH2 0xFEC JUMP JUMPDEST STOP JUMPDEST CALLVALUE DUP1 ISZERO PUSH2 0x233 JUMPI PUSH0 PUSH0 REVERT JUMPDEST POP PUSH2 0x23C PUSH2 0x1195 JUMP JUMPDEST STOP JUMPDEST CALLVALUE DUP1 ISZERO PUSH2 0x249 JUMPI PUSH0 PUSH0 REVERT JUMPDEST POP PUSH2 0x252 PUSH2 0x13DE JUMP JUMPDEST PUSH1 0x40 MLOAD PUSH2 0x25F SWAP2 SWAP1 PUSH2 0x1854 JUMP JUMPDEST PUSH1 0x40 MLOAD DUP1 SWAP2 SUB SWAP1 RETURN JUMPDEST CALLVALUE DUP1 ISZERO PUSH2 0x273 JUMPI PUSH0 PUSH0 REVERT JUMPDEST POP PUSH2 0x27C PUSH2 0x1403 JUMP JUMPDEST PUSH1 0x40 MLOAD PUSH2 0x289 SWAP2 SWAP1 PUSH2 0x17F5 JUMP JUMPDEST PUSH1 0x40 MLOAD DUP1 SWAP2 SUB SWAP1 RETURN JUMPDEST CALLVALUE DUP1 ISZERO PUSH2 0x29D JUMPI PUSH0 PUSH0 REVERT JUMPDEST POP PUSH2 0x2A6 PUSH2 0x148F JUMP JUMPDEST PUSH1 0x40 MLOAD PUSH2 0x2B8 SWAP7 SWAP6 SWAP5 SWAP4 SWAP3 SWAP2 SWAP1 PUSH2 0x1992 JUMP JUMPDEST PUSH1 0x40 MLOAD DUP1 SWAP2 SUB SWAP1 RETURN JUMPDEST CALLVALUE DUP1 ISZERO PUSH2 0x2CC JUMPI PUSH0 PUSH0 REVERT JUMPDEST POP PUSH2 0x2D5 PUSH2 0x1595 JUMP JUMPDEST STOP JUMPDEST CALLVALUE DUP1 ISZERO PUSH2 0x2E2 JUMPI PUSH0 PUSH0 REVERT JUMPDEST POP PUSH2 0x2EB PUSH2 0x16FA JUMP JUMPDEST PUSH1 0x40 MLOAD PUSH2 0x2F8 SWAP2 SWAP1 PUSH2 0x17F5 JUMP JUMPDEST PUSH1 0x40 MLOAD DUP1 SWAP2 SUB SWAP1 RETURN JUMPDEST PUSH1 0x1 DUP1 SLOAD PUSH2 0x30E SWAP1 PUSH2 0x1A25 JUMP JUMPDEST DUP1 PUSH1 0x1F ADD PUSH1 0x20 DUP1 SWAP2 DIV MUL PUSH1 0x20 ADD PUSH1 0x40 MLOAD SWAP1 DUP2 ADD PUSH1 0x40 MSTORE DUP1 SWAP3 SWAP2 SWAP1 DUP2 DUP2 MSTORE PUSH1 0x20 ADD DUP3 DUP1 SLOAD PUSH2 0x33A SWAP1 PUSH2 0x1A25 JUMP JUMPDEST DUP1 ISZERO PUSH2 0x385 JUMPI DUP1 PUSH1 0x1F LT PUSH2 0x35C JUMPI PUSH2 0x100 DUP1 DUP4 SLOAD DIV MUL DUP4 MSTORE SWAP2 PUSH1 0x20 ADD SWAP2 PUSH2 0x385 JUMP JUMPDEST DUP3 ADD SWAP2 SWAP1 PUSH0 MSTORE PUSH1 0x20 PUSH0 KECCAK256 SWAP1 JUMPDEST DUP2 SLOAD DUP2 MSTORE SWAP1 PUSH1 0x1 ADD SWAP1 PUSH1 0x20 ADD DUP1 DUP4 GT PUSH2 0x368 JUMPI DUP3 SWAP1 SUB PUSH1 0x1F AND DUP3 ADD SWAP2 JUMPDEST POP POP POP POP POP DUP2 JUMP JUMPDEST PUSH1 0x6 PUSH0 ADD PUSH0 SWAP1 SLOAD SWAP1 PUSH2 0x100 EXP SWAP1 DIV PUSH20 0xFFFFFFFFFFFFFFFFFFFFFFFFFFFFFFFFFFFFFFFF AND PUSH20 0xFFFFFFFFFFFFFFFFFFFFFFFFFFFFFFFFFFFFFFFF AND CALLER PUSH20 0xFFFFFFFFFFFFFFFFFFFFFFFFFFFFFFFFFFFFFFFF AND EQ PUSH2 0x41E JUMPI PUSH1 0x40 MLOAD PUSH32 0x8C379A000000000000000000000000000000000000000000000000000000000 DUP2 MSTORE PUSH1 0x4 ADD PUSH2 0x415 SWAP1 PUSH2 0x1AC5 JUMP JUMPDEST PUSH1 0x40 MLOAD DUP1 SWAP2 SUB SWAP1 REVERT JUMPDEST PUSH1 0x2 PUSH1 0x5 DUP2 GT ISZERO PUSH2 0x432 JUMPI PUSH2 0x431 PUSH2 0x191F JUMP JUMPDEST JUMPDEST PUSH1 0x6 PUSH1 0x4 ADD PUSH0 SWAP1 SLOAD SWAP1 PUSH2 0x100 EXP SWAP1 DIV PUSH1 0xFF AND PUSH1 0x5 DUP2 GT ISZERO PUSH2 0x456 JUMPI PUSH2 0x455 PUSH2 0x191F JUMP JUMPDEST JUMPDEST EQ PUSH2 0x496 JUMPI PUSH1 0x40 MLOAD PUSH32 0x8C379A000000000000000000000000000000000000000000000000000000000 DUP2 MSTORE PUSH1 0x4 ADD PUSH2 0x48D SWAP1 PUSH2 0x1B2D JUMP JUMPDEST PUSH1 0x40 MLOAD DUP1 SWAP2 SUB SWAP1 REVERT JUMPDEST PUSH1 0x3 PUSH1 0x6 PUSH1 0x4 ADD PUSH0 PUSH2 0x100 EXP DUP2 SLOAD DUP2 PUSH1 0xFF MUL NOT AND SWAP1 DUP4 PUSH1 0x5 DUP2 GT ISZERO PUSH2 0x4BE JUMPI PUSH2 0x4BD PUSH2 0x191F JUMP JUMPDEST JUMPDEST MUL OR SWAP1 SSTORE POP PUSH32 0xD225998A3AA0B234D551108E0D6AFEFEBF021F56D181A3B7490EA3181E0872A8 PUSH1 0x40 MLOAD PUSH1 0x40 MLOAD DUP1 SWAP2 SUB SWAP1 LOG1 JUMP JUMPDEST PUSH1 0x6 PUSH1 0x1 ADD PUSH0 SWAP1 SLOAD SWAP1 PUSH2 0x100 EXP SWAP1 DIV PUSH20 0xFFFFFFFFFFFFFFFFFFFFFFFFFFFFFFFFFFFFFFFF AND PUSH20 0xFFFFFFFFFFFFFFFFFFFFFFFFFFFFFFFFFFFFFFFF AND CALLER PUSH20 0xFFFFFFFFFFFFFFFFFFFFFFFFFFFFFFFFFFFFFFFF AND EQ PUSH2 0x583 JUMPI PUSH1 0x40 MLOAD PUSH32 0x8C379A000000000000000000000000000000000000000000000000000000000 DUP2 MSTORE PUSH1 0x4 ADD PUSH2 0x57A SWAP1 PUSH2 0x1BBB JUMP JUMPDEST PUSH1 0x40 MLOAD DUP1 SWAP2 SUB SWAP1 REVERT JUMPDEST PUSH1 0x2 PUSH1 0x5 DUP2 GT ISZERO PUSH2 0x597 JUMPI PUSH2 0x596 PUSH2 0x191F JUMP JUMPDEST JUMPDEST PUSH1 0x6 PUSH1 0x4 ADD PUSH0 SWAP1 SLOAD SWAP1 PUSH2 0x100 EXP SWAP1 DIV PUSH1 0xFF AND PUSH1 0x5 DUP2 GT ISZERO PUSH2 0x5BB JUMPI PUSH2 0x5BA PUSH2 0x191F JUMP JUMPDEST JUMPDEST EQ PUSH2 0x5FB JUMPI PUSH1 0x40 MLOAD PUSH32 0x8C379A000000000000000000000000000000000000000000000000000000000 DUP2 MSTORE PUSH1 0x4 ADD PUSH2 0x5F2 SWAP1 PUSH2 0x1B2D JUMP JUMPDEST PUSH1 0x40 MLOAD DUP1 SWAP2 SUB SWAP1 REVERT JUMPDEST PUSH1 0x4 PUSH1 0x6 PUSH1 0x4 ADD PUSH0 PUSH2 0x100 EXP DUP2 SLOAD DUP2 PUSH1 0xFF MUL NOT AND SWAP1 DUP4 PUSH1 0x5 DUP2 GT ISZERO PUSH2 0x623 JUMPI PUSH2 0x622 PUSH2 0x191F JUMP JUMPDEST JUMPDEST MUL OR SWAP1 SSTORE POP PUSH32 0x8D1C5E2DEB19DEF1E62F3ECA5E5F840FAC11DEB08C66F215DEF592EA2C5B794C PUSH1 0x40 MLOAD PUSH1 0x40 MLOAD DUP1 SWAP2 SUB SWAP1 LOG1 JUMP JUMPDEST PUSH1 0x60 PUSH0 PUSH1 0x5 DUP2 GT ISZERO PUSH2 0x66B JUMPI PUSH2 0x66A PUSH2 0x191F JUMP JUMPDEST JUMPDEST PUSH1 0x6 PUSH1 0x4 ADD PUSH0 SWAP1 SLOAD SWAP1 PUSH2 0x100 EXP SWAP1 DIV PUSH1 0xFF AND PUSH1 0x5 DUP2 GT ISZERO PUSH2 0x68F JUMPI PUSH2 0x68E PUSH2 0x191F JUMP JUMPDEST JUMPDEST SUB PUSH2 0x6D1 JUMPI PUSH1 0x40 MLOAD DUP1 PUSH1 0x40 ADD PUSH1 0x40 MSTORE DUP1 PUSH1 0x7 DUP2 MSTORE PUSH1 0x20 ADD PUSH32 0x4372656174656400000000000000000000000000000000000000000000000000 DUP2 MSTORE POP SWAP1 POP PUSH2 0x96B JUMP JUMPDEST PUSH1 0x1 PUSH1 0x5 DUP2 GT ISZERO PUSH2 0x6E5 JUMPI PUSH2 0x6E4 PUSH2 0x191F JUMP JUMPDEST JUMPDEST PUSH1 0x6 PUSH1 0x4 ADD PUSH0 SWAP1 SLOAD SWAP1 PUSH2 0x100 EXP SWAP1 DIV PUSH1 0xFF AND PUSH1 0x5 DUP2 GT ISZERO PUSH2 0x709 JUMPI PUSH2 0x708 PUSH2 0x191F JUMP JUMPDEST JUMPDEST SUB PUSH2 0x74B JUMPI PUSH1 0x40 MLOAD DUP1 PUSH1 0x40 ADD PUSH1 0x40 MSTORE DUP1 PUSH1 0x8 DUP2 MSTORE PUSH1 0x20 ADD PUSH32 0x4163636570746564000000000000000000000000000000000000000000000000 DUP2 MSTORE POP SWAP1 POP PUSH2 0x96B JUMP JUMPDEST PUSH1 0x2 PUSH1 0x5 DUP2 GT ISZERO PUSH2 0x75F JUMPI PUSH2 0x75E PUSH2 0x191F JUMP JUMPDEST JUMPDEST PUSH1 0x6 PUSH1 0x4 ADD PUSH0 SWAP1 SLOAD SWAP1 PUSH2 0x100 EXP SWAP1 DIV PUSH1 0xFF AND PUSH1 0x5 DUP2 GT ISZERO PUSH2 0x783 JUMPI PUSH2 0x782 PUSH2 0x191F JUMP JUMPDEST JUMPDEST SUB PUSH2 0x7C5 JUMPI PUSH1 0x40 MLOAD DUP1 PUSH1 0x40 ADD PUSH1 0x40 MSTORE DUP1 PUSH1 0xB DUP2 MSTORE PUSH1 0x20 ADD PUSH32 0x496E2050726F6772657373000000000000000000000000000000000000000000 DUP2 MSTORE POP SWAP1 POP PUSH2 0x96B JUMP JUMPDEST PUSH1 0x3 PUSH1 0x5 DUP2 GT ISZERO PUSH2 0x7D9 JUMPI PUSH2 0x7D8 PUSH2 0x191F JUMP JUMPDEST JUMPDEST PUSH1 0x6 PUSH1 0x4 ADD PUSH0 SWAP1 SLOAD SWAP1 PUSH2 0x100 EXP SWAP1 DIV PUSH1 0xFF AND PUSH1 0x5 DUP2 GT ISZERO PUSH2 0x7FD JUMPI PUSH2 0x7FC PUSH2 0x191F JUMP JUMPDEST JUMPDEST SUB PUSH2 0x83F JUMPI PUSH1 0x40 MLOAD DUP1 PUSH1 0x40 ADD PUSH1 0x40 MSTORE DUP1 PUSH1 0x6 DUP2 MSTORE PUSH1 0x20 ADD PUSH32 0x5061757365640000000000000000000000000000000000000000000000000000 DUP2 MSTORE POP SWAP1 POP PUSH2 0x96B JUMP JUMPDEST PUSH1 0x4 PUSH1 0x5 DUP2 GT ISZERO PUSH2 0x853 JUMPI PUSH2 0x852 PUSH2 0x191F JUMP JUMPDEST JUMPDEST PUSH1 0x6 PUSH1 0x4 ADD PUSH0 SWAP1 SLOAD SWAP1 PUSH2 0x100 EXP SWAP1 DIV PUSH1 0xFF AND PUSH1 0x5 DUP2 GT ISZERO PUSH2 0x877 JUMPI PUSH2 0x876 PUSH2 0x191F JUMP JUMPDEST JUMPDEST SUB PUSH2 0x8B9 JUMPI PUSH1 0x40 MLOAD DUP1 PUSH1 0x40 ADD PUSH1 0x40 MSTORE DUP1 PUSH1 0x9 DUP2 MSTORE PUSH1 0x20 ADD PUSH32 0x436F6D706C657465640000000000000000000000000000000000000000000000 DUP2 MSTORE POP SWAP1 POP PUSH2 0x96B JUMP JUMPDEST PUSH1 0x5 DUP1 DUP2 GT ISZERO PUSH2 0x8CC JUMPI PUSH2 0x8CB PUSH2 0x191F JUMP JUMPDEST JUMPDEST PUSH1 0x6 PUSH1 0x4 ADD PUSH0 SWAP1 SLOAD SWAP1 PUSH2 0x100 EXP SWAP1 DIV PUSH1 0xFF AND PUSH1 0x5 DUP2 GT ISZERO PUSH2 0x8F0 JUMPI PUSH2 0x8EF PUSH2 0x191F JUMP JUMPDEST JUMPDEST SUB PUSH2 0x932 JUMPI PUSH1 0x40 MLOAD DUP1 PUSH1 0x40 ADD PUSH1 0x40 MSTORE DUP1 PUSH1 0x8 DUP2 MSTORE PUSH1 0x20 ADD PUSH32 0x43616E63656C6564000000000000000000000000000000000000000000000000 DUP2 MSTORE POP SWAP1 POP PUSH2 0x96B JUMP JUMPDEST PUSH1 0x40 MLOAD DUP1 PUSH1 0x40 ADD PUSH1 0x40 MSTORE DUP1 PUSH1 0x7 DUP2 MSTORE PUSH1 0x20 ADD PUSH32 0x556E6B6E6F776E00000000000000000000000000000000000000000000000000 DUP2 MSTORE POP SWAP1 POP JUMPDEST SWAP1 JUMP JUMPDEST PUSH1 0x6 PUSH0 ADD PUSH0 SWAP1 SLOAD SWAP1 PUSH2 0x100 EXP SWAP1 DIV PUSH20 0xFFFFFFFFFFFFFFFFFFFFFFFFFFFFFFFFFFFFFFFF AND PUSH20 0xFFFFFFFFFFFFFFFFFFFFFFFFFFFFFFFFFFFFFFFF AND CALLER PUSH20 0xFFFFFFFFFFFFFFFFFFFFFFFFFFFFFFFFFFFFFFFF AND EQ DUP1 PUSH2 0xA1A JUMPI POP PUSH1 0x6 PUSH1 0x1 ADD PUSH0 SWAP1 SLOAD SWAP1 PUSH2 0x100 EXP SWAP1 DIV PUSH20 0xFFFFFFFFFFFFFFFFFFFFFFFFFFFFFFFFFFFFFFFF AND PUSH20 0xFFFFFFFFFFFFFFFFFFFFFFFFFFFFFFFFFFFFFFFF AND CALLER PUSH20 0xFFFFFFFFFFFFFFFFFFFFFFFFFFFFFFFFFFFFFFFF AND EQ JUMPDEST PUSH2 0xA59 JUMPI PUSH1 0x40 MLOAD PUSH32 0x8C379A000000000000000000000000000000000000000000000000000000000 DUP2 MSTORE PUSH1 0x4 ADD PUSH2 0xA50 SWAP1 PUSH2 0x1C49 JUMP JUMPDEST PUSH1 0x40 MLOAD DUP1 SWAP2 SUB SWAP1 REVERT JUMPDEST PUSH1 0x4 PUSH1 0x5 DUP2 GT ISZERO PUSH2 0xA6D JUMPI PUSH2 0xA6C PUSH2 0x191F JUMP JUMPDEST JUMPDEST PUSH1 0x6 PUSH1 0x4 ADD PUSH0 SWAP1 SLOAD SWAP1 PUSH2 0x100 EXP SWAP1 DIV PUSH1 0xFF AND PUSH1 0x5 DUP2 GT ISZERO PUSH2 0xA91 JUMPI PUSH2 0xA90 PUSH2 0x191F JUMP JUMPDEST JUMPDEST SUB PUSH2 0xAD1 JUMPI PUSH1 0x40 MLOAD PUSH32 0x8C379A000000000000000000000000000000000000000000000000000000000 DUP2 MSTORE PUSH1 0x4 ADD PUSH2 0xAC8 SWAP1 PUSH2 0x1CB1 JUMP JUMPDEST PUSH1 0x40 MLOAD DUP1 SWAP2 SUB SWAP1 REVERT JUMPDEST PUSH0 PUSH1 0x5 DUP2 GT ISZERO PUSH2 0xAE4 JUMPI PUSH2 0xAE3 PUSH2 0x191F JUMP JUMPDEST JUMPDEST PUSH1 0x6 PUSH1 0x4 ADD PUSH0 SWAP1 SLOAD SWAP1 PUSH2 0x100 EXP SWAP1 DIV PUSH1 0xFF AND PUSH1 0x5 DUP2 GT ISZERO PUSH2 0xB08 JUMPI PUSH2 0xB07 PUSH2 0x191F JUMP JUMPDEST JUMPDEST EQ DUP1 PUSH2 0xB49 JUMPI POP PUSH1 0x1 PUSH1 0x5 DUP2 GT ISZERO PUSH2 0xB23 JUMPI PUSH2 0xB22 PUSH2 0x191F JUMP JUMPDEST JUMPDEST PUSH1 0x6 PUSH1 0x4 ADD PUSH0 SWAP1 SLOAD SWAP1 PUSH2 0x100 EXP SWAP1 DIV PUSH1 0xFF AND PUSH1 0x5 DUP2 GT ISZERO PUSH2 0xB47 JUMPI PUSH2 0xB46 PUSH2 0x191F JUMP JUMPDEST JUMPDEST EQ JUMPDEST PUSH2 0xB88 JUMPI PUSH1 0x40 MLOAD PUSH32 0x8C379A000000000000000000000000000000000000000000000000000000000 DUP2 MSTORE PUSH1 0x4 ADD PUSH2 0xB7F SWAP1 PUSH2 0x1D19 JUMP JUMPDEST PUSH1 0x40 MLOAD DUP1 SWAP2 SUB SWAP1 REVERT JUMPDEST PUSH1 0x5 PUSH1 0x6 PUSH1 0x4 ADD PUSH0 PUSH2 0x100 EXP DUP2 SLOAD DUP2 PUSH1 0xFF MUL NOT AND SWAP1 DUP4 PUSH1 0x5 DUP2 GT ISZERO PUSH2 0xBB0 JUMPI PUSH2 0xBAF PUSH2 0x191F JUMP JUMPDEST JUMPDEST MUL OR SWAP1 SSTORE POP PUSH32 0xB4C92CD357FEC6BF95B165499FF19FE07C668A89794A0D12BA96EA321FA34B13 CALLER PUSH1 0x40 MLOAD PUSH2 0xBE4 SWAP2 SWAP1 PUSH2 0x1854 JUMP JUMPDEST PUSH1 0x40 MLOAD DUP1 SWAP2 SUB SWAP1 LOG1 JUMP JUMPDEST PUSH1 0x3 PUSH0 SWAP1 SLOAD SWAP1 PUSH2 0x100 EXP SWAP1 DIV PUSH20 0xFFFFFFFFFFFFFFFFFFFFFFFFFFFFFFFFFFFFFFFF AND DUP2 JUMP JUMPDEST PUSH1 0x5 PUSH0 CALLER PUSH20 0xFFFFFFFFFFFFFFFFFFFFFFFFFFFFFFFFFFFFFFFF AND PUSH20 0xFFFFFFFFFFFFFFFFFFFFFFFFFFFFFFFFFFFFFFFF AND DUP2 MSTORE PUSH1 0x20 ADD SWAP1 DUP2 MSTORE PUSH1 0x20 ADD PUSH0 KECCAK256 PUSH0 ADD PUSH1 0x1 SWAP1 SLOAD SWAP1 PUSH2 0x100 EXP SWAP1 DIV PUSH1 0xFF AND PUSH2 0xC9F JUMPI PUSH1 0x40 MLOAD PUSH32 0x8C379A000000000000000000000000000000000000000000000000000000000 DUP2 MSTORE PUSH1 0x4 ADD PUSH2 0xC96 SWAP1 PUSH2 0x1DA7 JUMP JUMPDEST PUSH1 0x40 MLOAD DUP1 SWAP2 SUB SWAP1 REVERT JUMPDEST PUSH1 0x4 PUSH1 0x5 DUP2 GT ISZERO PUSH2 0xCB3 JUMPI PUSH2 0xCB2 PUSH2 0x191F JUMP JUMPDEST JUMPDEST PUSH1 0x6 PUSH1 0x4 ADD PUSH0 SWAP1 SLOAD SWAP1 PUSH2 0x100 EXP SWAP1 DIV PUSH1 0xFF AND PUSH1 0x5 DUP2 GT ISZERO PUSH2 0xCD7 JUMPI PUSH2 0xCD6 PUSH2 0x191F JUMP JUMPDEST JUMPDEST EQ PUSH2 0xD17 JUMPI PUSH1 0x40 MLOAD PUSH32 0x8C379A000000000000000000000000000000000000000000000000000000000 DUP2 MSTORE PUSH1 0x4 ADD PUSH2 0xD0E SWAP1 PUSH2 0x1E0F JUMP JUMPDEST PUSH1 0x40 MLOAD DUP1 SWAP2 SUB SWAP1 REVERT JUMPDEST PUSH1 0x1 PUSH1 0x6 PUSH1 0x4 ADD PUSH1 0x1 PUSH2 0x100 EXP DUP2 SLOAD DUP2 PUSH1 0xFF MUL NOT AND SWAP1 DUP4 ISZERO ISZERO MUL OR SWAP1 SSTORE POP PUSH32 0xCA5F1DE7612ED6A3D87C2ABD381483F6475703026F9EACD73EB253AEF380C328 CALLER PUSH1 0x40 MLOAD PUSH2 0xD64 SWAP2 SWAP1 PUSH2 0x1854 JUMP JUMPDEST PUSH1 0x40 MLOAD DUP1 SWAP2 SUB SWAP1 LOG1 JUMP JUMPDEST PUSH1 0x5 PUSH1 0x20 MSTORE DUP1 PUSH0 MSTORE PUSH1 0x40 PUSH0 KECCAK256 PUSH0 SWAP2 POP SWAP1 POP DUP1 PUSH0 ADD PUSH0 SWAP1 SLOAD SWAP1 PUSH2 0x100 EXP SWAP1 DIV PUSH1 0xFF AND SWAP1 DUP1 PUSH0 ADD PUSH1 0x1 SWAP1 SLOAD SWAP1 PUSH2 0x100 EXP SWAP1 DIV PUSH1 0xFF AND SWAP1 POP DUP3 JUMP JUMPDEST PUSH1 0x6 PUSH0 ADD PUSH0 SWAP1 SLOAD SWAP1 PUSH2 0x100 EXP SWAP1 DIV PUSH20 0xFFFFFFFFFFFFFFFFFFFFFFFFFFFFFFFFFFFFFFFF AND PUSH20 0xFFFFFFFFFFFFFFFFFFFFFFFFFFFFFFFFFFFFFFFF AND CALLER PUSH20 0xFFFFFFFFFFFFFFFFFFFFFFFFFFFFFFFFFFFFFFFF AND EQ PUSH2 0xE37 JUMPI PUSH1 0x40 MLOAD PUSH32 0x8C379A000000000000000000000000000000000000000000000000000000000 DUP2 MSTORE PUSH1 0x4 ADD PUSH2 0xE2E SWAP1 PUSH2 0x1AC5 JUMP JUMPDEST PUSH1 0x40 MLOAD DUP1 SWAP2 SUB SWAP1 REVERT JUMPDEST PUSH1 0x4 PUSH1 0x5 DUP2 GT ISZERO PUSH2 0xE4B JUMPI PUSH2 0xE4A PUSH2 0x191F JUMP JUMPDEST JUMPDEST PUSH1 0x6 PUSH1 0x4 ADD PUSH0 SWAP1 SLOAD SWAP1 PUSH2 0x100 EXP SWAP1 DIV PUSH1 0xFF AND PUSH1 0x5 DUP2 GT ISZERO PUSH2 0xE6F JUMPI PUSH2 0xE6E PUSH2 0x191F JUMP JUMPDEST JUMPDEST EQ PUSH2 0xEAF JUMPI PUSH1 0x40 MLOAD PUSH32 0x8C379A000000000000000000000000000000000000000000000000000000000 DUP2 MSTORE PUSH1 0x4 ADD PUSH2 0xEA6 SWAP1 PUSH2 0x1E0F JUMP JUMPDEST PUSH1 0x40 MLOAD DUP1 SWAP2 SUB SWAP1 REVERT JUMPDEST PUSH1 0x6 PUSH1 0x4 ADD PUSH1 0x1 SWAP1 SLOAD SWAP1 PUSH2 0x100 EXP SWAP1 DIV PUSH1 0xFF AND PUSH2 0xF01 JUMPI PUSH1 0x40 MLOAD PUSH32 0x8C379A000000000000000000000000000000000000000000000000000000000 DUP2 MSTORE PUSH1 0x4 ADD PUSH2 0xEF8 SWAP1 PUSH2 0x1E77 JUMP JUMPDEST PUSH1 0x40 MLOAD DUP1 SWAP2 SUB SWAP1 REVERT JUMPDEST PUSH1 0x6 PUSH1 0x3 ADD SLOAD CALLVALUE LT ISZERO PUSH2 0xF49 JUMPI PUSH1 0x40 MLOAD PUSH32 0x8C379A000000000000000000000000000000000000000000000000000000000 DUP2 MSTORE PUSH1 0x4 ADD PUSH2 0xF40 SWAP1 PUSH2 0x1EDF JUMP JUMPDEST PUSH1 0x40 MLOAD DUP1 SWAP2 SUB SWAP1 REVERT JUMPDEST PUSH1 0x6 PUSH1 0x1 ADD PUSH0 SWAP1 SLOAD SWAP1 PUSH2 0x100 EXP SWAP1 DIV PUSH20 0xFFFFFFFFFFFFFFFFFFFFFFFFFFFFFFFFFFFFFFFF AND PUSH20 0xFFFFFFFFFFFFFFFFFFFFFFFFFFFFFFFFFFFFFFFF AND PUSH2 0x8FC CALLVALUE SWAP1 DUP2 ISZERO MUL SWAP1 PUSH1 0x40 MLOAD PUSH0 PUSH1 0x40 MLOAD DUP1 DUP4 SUB DUP2 DUP6 DUP9 DUP9 CALL SWAP4 POP POP POP POP ISZERO DUP1 ISZERO PUSH2 0xFB0 JUMPI RETURNDATASIZE PUSH0 PUSH0 RETURNDATACOPY RETURNDATASIZE PUSH0 REVERT JUMPDEST POP PUSH32 0x8DFE705393653A2EA59081F717D7096D435EEAA5049F45E1CBDD32F34E513D56 CALLER CALLVALUE PUSH1 0x40 MLOAD PUSH2 0xFE2 SWAP3 SWAP2 SWAP1 PUSH2 0x1EFD JUMP JUMPDEST PUSH1 0x40 MLOAD DUP1 SWAP2 SUB SWAP1 LOG1 JUMP JUMPDEST PUSH1 0x6 PUSH1 0x1 ADD PUSH0 SWAP1 SLOAD SWAP1 PUSH2 0x100 EXP SWAP1 DIV PUSH20 0xFFFFFFFFFFFFFFFFFFFFFFFFFFFFFFFFFFFFFFFF AND PUSH20 0xFFFFFFFFFFFFFFFFFFFFFFFFFFFFFFFFFFFFFFFF AND CALLER PUSH20 0xFFFFFFFFFFFFFFFFFFFFFFFFFFFFFFFFFFFFFFFF AND EQ DUP1 PUSH2 0x1093 JUMPI POP PUSH1 0x5 PUSH0 CALLER PUSH20 0xFFFFFFFFFFFFFFFFFFFFFFFFFFFFFFFFFFFFFFFF AND PUSH20 0xFFFFFFFFFFFFFFFFFFFFFFFFFFFFFFFFFFFFFFFF AND DUP2 MSTORE PUSH1 0x20 ADD SWAP1 DUP2 MSTORE PUSH1 0x20 ADD PUSH0 KECCAK256 PUSH0 ADD PUSH1 0x1 SWAP1 SLOAD SWAP1 PUSH2 0x100 EXP SWAP1 DIV PUSH1 0xFF AND JUMPDEST PUSH2 0x10D2 JUMPI PUSH1 0x40 MLOAD PUSH32 0x8C379A000000000000000000000000000000000000000000000000000000000 DUP2 MSTORE PUSH1 0x4 ADD PUSH2 0x10C9 SWAP1 PUSH2 0x1F94 JUMP JUMPDEST PUSH1 0x40 MLOAD DUP1 SWAP2 SUB SWAP1 REVERT JUMPDEST PUSH1 0x1 PUSH1 0x5 PUSH0 CALLER PUSH20 0xFFFFFFFFFFFFFFFFFFFFFFFFFFFFFFFFFFFFFFFF AND PUSH20 0xFFFFFFFFFFFFFFFFFFFFFFFFFFFFFFFFFFFFFFFF AND DUP2 MSTORE PUSH1 0x20 ADD SWAP1 DUP2 MSTORE PUSH1 0x20 ADD PUSH0 KECCAK256 PUSH0 ADD PUSH0 PUSH2 0x100 EXP DUP2 SLOAD DUP2 PUSH1 0xFF MUL NOT AND SWAP1 DUP4 ISZERO ISZERO MUL OR SWAP1 SSTORE POP PUSH0 PUSH1 0x5 DUP2 GT ISZERO PUSH2 0x113C JUMPI PUSH2 0x113B PUSH2 0x191F JUMP JUMPDEST JUMPDEST PUSH1 0x6 PUSH1 0x4 ADD PUSH0 SWAP1 SLOAD SWAP1 PUSH2 0x100 EXP SWAP1 DIV PUSH1 0xFF AND PUSH1 0x5 DUP2 GT ISZERO PUSH2 0x1160 JUMPI PUSH2 0x115F PUSH2 0x191F JUMP JUMPDEST JUMPDEST SUB PUSH2 0x1193 JUMPI PUSH1 0x1 PUSH1 0x6 PUSH1 0x4 ADD PUSH0 PUSH2 0x100 EXP DUP2 SLOAD DUP2 PUSH1 0xFF MUL NOT AND SWAP1 DUP4 PUSH1 0x5 DUP2 GT ISZERO PUSH2 0x118D JUMPI PUSH2 0x118C PUSH2 0x191F JUMP JUMPDEST JUMPDEST MUL OR SWAP1 SSTORE POP JUMPDEST JUMP JUMPDEST PUSH1 0x6 PUSH0 ADD PUSH0 SWAP1 SLOAD SWAP1 PUSH2 0x100 EXP SWAP1 DIV PUSH20 0xFFFFFFFFFFFFFFFFFFFFFFFFFFFFFFFFFFFFFFFF AND PUSH20 0xFFFFFFFFFFFFFFFFFFFFFFFFFFFFFFFFFFFFFFFF AND CALLER PUSH20 0xFFFFFFFFFFFFFFFFFFFFFFFFFFFFFFFFFFFFFFFF AND EQ PUSH2 0x1226 JUMPI PUSH1 0x40 MLOAD PUSH32 0x8C379A000000000000000000000000000000000000000000000000000000000 DUP2 MSTORE PUSH1 0x4 ADD PUSH2 0x121D SWAP1 PUSH2 0x1AC5 JUMP JUMPDEST PUSH1 0x40 MLOAD DUP1 SWAP2 SUB SWAP1 REVERT JUMPDEST PUSH1 0x5 PUSH0 PUSH1 0x6 PUSH0 ADD PUSH0 SWAP1 SLOAD SWAP1 PUSH2 0x100 EXP SWAP1 DIV PUSH20 0xFFFFFFFFFFFFFFFFFFFFFFFFFFFFFFFFFFFFFFFF AND PUSH20 0xFFFFFFFFFFFFFFFFFFFFFFFFFFFFFFFFFFFFFFFF AND PUSH20 0xFFFFFFFFFFFFFFFFFFFFFFFFFFFFFFFFFFFFFFFF AND DUP2 MSTORE PUSH1 0x20 ADD SWAP1 DUP2 MSTORE PUSH1 0x20 ADD PUSH0 KECCAK256 PUSH0 ADD PUSH0 SWAP1 SLOAD SWAP1 PUSH2 0x100 EXP SWAP1 DIV PUSH1 0xFF AND PUSH2 0x12D4 JUMPI PUSH1 0x40 MLOAD PUSH32 0x8C379A000000000000000000000000000000000000000000000000000000000 DUP2 MSTORE PUSH1 0x4 ADD PUSH2 0x12CB SWAP1 PUSH2 0x1FFC JUMP JUMPDEST PUSH1 0x40 MLOAD DUP1 SWAP2 SUB SWAP1 REVERT JUMPDEST PUSH1 0x5 PUSH0 PUSH1 0x6 PUSH1 0x1 ADD PUSH0 SWAP1 SLOAD SWAP1 PUSH2 0x100 EXP SWAP1 DIV PUSH20 0xFFFFFFFFFFFFFFFFFFFFFFFFFFFFFFFFFFFFFFFF AND PUSH20 0xFFFFFFFFFFFFFFFFFFFFFFFFFFFFFFFFFFFFFFFF AND PUSH20 0xFFFFFFFFFFFFFFFFFFFFFFFFFFFFFFFFFFFFFFFF AND DUP2 MSTORE PUSH1 0x20 ADD SWAP1 DUP2 MSTORE PUSH1 0x20 ADD PUSH0 KECCAK256 PUSH0 ADD PUSH0 SWAP1 SLOAD SWAP1 PUSH2 0x100 EXP SWAP1 DIV PUSH1 0xFF AND PUSH2 0x1383 JUMPI PUSH1 0x40 MLOAD PUSH32 0x8C379A000000000000000000000000000000000000000000000000000000000 DUP2 MSTORE PUSH1 0x4 ADD PUSH2 0x137A SWAP1 PUSH2 0x2064 JUMP JUMPDEST PUSH1 0x40 MLOAD DUP1 SWAP2 SUB SWAP1 REVERT JUMPDEST PUSH1 0x2 PUSH1 0x6 PUSH1 0x4 ADD PUSH0 PUSH2 0x100 EXP DUP2 SLOAD DUP2 PUSH1 0xFF MUL NOT AND SWAP1 DUP4 PUSH1 0x5 DUP2 GT ISZERO PUSH2 0x13AB JUMPI PUSH2 0x13AA PUSH2 0x191F JUMP JUMPDEST JUMPDEST MUL OR SWAP1 SSTORE POP PUSH32 0xDD9C7E294FB30C37897300371D45DD4D1E62F12BFB780DDC599238E2C2C5CE9D PUSH1 0x40 MLOAD PUSH1 0x40 MLOAD DUP1 SWAP2 SUB SWAP1 LOG1 JUMP JUMPDEST PUSH1 0x2 PUSH0 SWAP1 SLOAD SWAP1 PUSH2 0x100 EXP SWAP1 DIV PUSH20 0xFFFFFFFFFFFFFFFFFFFFFFFFFFFFFFFFFFFFFFFF AND DUP2 JUMP JUMPDEST PUSH1 0x4 DUP1 SLOAD PUSH2 0x1410 SWAP1 PUSH2 0x1A25 JUMP JUMPDEST DUP1 PUSH1 0x1F ADD PUSH1 0x20 DUP1 SWAP2 DIV MUL PUSH1 0x20 ADD PUSH1 0x40 MLOAD SWAP1 DUP2 ADD PUSH1 0x40 MSTORE DUP1 SWAP3 SWAP2 SWAP1 DUP2 DUP2 MSTORE PUSH1 0x20 ADD DUP3 DUP1 SLOAD PUSH2 0x143C SWAP1 PUSH2 0x1A25 JUMP JUMPDEST DUP1 ISZERO PUSH2 0x1487 JUMPI DUP1 PUSH1 0x1F LT PUSH2 0x145E JUMPI PUSH2 0x100 DUP1 DUP4 SLOAD DIV MUL DUP4 MSTORE SWAP2 PUSH1 0x20 ADD SWAP2 PUSH2 0x1487 JUMP JUMPDEST DUP3 ADD SWAP2 SWAP1 PUSH0 MSTORE PUSH1 0x20 PUSH0 KECCAK256 SWAP1 JUMPDEST DUP2 SLOAD DUP2 MSTORE SWAP1 PUSH1 0x1 ADD SWAP1 PUSH1 0x20 ADD DUP1 DUP4 GT PUSH2 0x146A JUMPI DUP3 SWAP1 SUB PUSH1 0x1F AND DUP3 ADD SWAP2 JUMPDEST POP POP POP POP POP DUP2 JUMP JUMPDEST PUSH1 0x6 DUP1 PUSH0 ADD PUSH0 SWAP1 SLOAD SWAP1 PUSH2 0x100 EXP SWAP1 DIV PUSH20 0xFFFFFFFFFFFFFFFFFFFFFFFFFFFFFFFFFFFFFFFF AND SWAP1 DUP1 PUSH1 0x1 ADD PUSH0 SWAP1 SLOAD SWAP1 PUSH2 0x100 EXP SWAP1 DIV PUSH20 0xFFFFFFFFFFFFFFFFFFFFFFFFFFFFFFFFFFFFFFFF AND SWAP1 DUP1 PUSH1 0x2 ADD DUP1 SLOAD PUSH2 0x14E9 SWAP1 PUSH2 0x1A25 JUMP JUMPDEST DUP1 PUSH1 0x1F ADD PUSH1 0x20 DUP1 SWAP2 DIV MUL PUSH1 0x20 ADD PUSH1 0x40 MLOAD SWAP1 DUP2 ADD PUSH1 0x40 MSTORE DUP1 SWAP3 SWAP2 SWAP1 DUP2 DUP2 MSTORE PUSH1 0x20 ADD DUP3 DUP1 SLOAD PUSH2 0x1515 SWAP1 PUSH2 0x1A25 JUMP JUMPDEST DUP1 ISZERO PUSH2 0x1560 JUMPI DUP1 PUSH1 0x1F LT PUSH2 0x1537 JUMPI PUSH2 0x100 DUP1 DUP4 SLOAD DIV MUL DUP4 MSTORE SWAP2 PUSH1 0x20 ADD SWAP2 PUSH2 0x1560 JUMP JUMPDEST DUP3 ADD SWAP2 SWAP1 PUSH0 MSTORE PUSH1 0x20 PUSH0 KECCAK256 SWAP1 JUMPDEST DUP2 SLOAD DUP2 MSTORE SWAP1 PUSH1 0x1 ADD SWAP1 PUSH1 0x20 ADD DUP1 DUP4 GT PUSH2 0x1543 JUMPI DUP3 SWAP1 SUB PUSH1 0x1F AND DUP3 ADD SWAP2 JUMPDEST POP POP POP POP POP SWAP1 DUP1 PUSH1 0x3 ADD SLOAD SWAP1 DUP1 PUSH1 0x4 ADD PUSH0 SWAP1 SLOAD SWAP1 PUSH2 0x100 EXP SWAP1 DIV PUSH1 0xFF AND SWAP1 DUP1 PUSH1 0x4 ADD PUSH1 0x1 SWAP1 SLOAD SWAP1 PUSH2 0x100 EXP SWAP1 DIV PUSH1 0xFF AND SWAP1 POP DUP7 JUMP JUMPDEST PUSH1 0x6 PUSH1 0x1 ADD PUSH0 SWAP1 SLOAD SWAP1 PUSH2 0x100 EXP SWAP1 DIV PUSH20 0xFFFFFFFFFFFFFFFFFFFFFFFFFFFFFFFFFFFFFFFF AND PUSH20 0xFFFFFFFFFFFFFFFFFFFFFFFFFFFFFFFFFFFFFFFF AND CALLER PUSH20 0xFFFFFFFFFFFFFFFFFFFFFFFFFFFFFFFFFFFFFFFF AND EQ PUSH2 0x1627 JUMPI PUSH1 0x40 MLOAD PUSH32 0x8C379A000000000000000000000000000000000000000000000000000000000 DUP2 MSTORE PUSH1 0x4 ADD PUSH2 0x161E SWAP1 PUSH2 0x1BBB JUMP JUMPDEST PUSH1 0x40 MLOAD DUP1 SWAP2 SUB SWAP1 REVERT JUMPDEST PUSH1 0x3 PUSH1 0x5 DUP2 GT ISZERO PUSH2 0x163B JUMPI PUSH2 0x163A PUSH2 0x191F JUMP JUMPDEST JUMPDEST PUSH1 0x6 PUSH1 0x4 ADD PUSH0 SWAP1 SLOAD SWAP1 PUSH2 0x100 EXP SWAP1 DIV PUSH1 0xFF AND PUSH1 0x5 DUP2 GT ISZERO PUSH2 0x165F JUMPI PUSH2 0x165E PUSH2 0x191F JUMP JUMPDEST JUMPDEST EQ PUSH2 0x169F JUMPI PUSH1 0x40 MLOAD PUSH32 0x8C379A000000000000000000000000000000000000000000000000000000000 DUP2 MSTORE PUSH1 0x4 ADD PUSH2 0x1696 SWAP1 PUSH2 0x20CC JUMP JUMPDEST PUSH1 0x40 MLOAD DUP1 SWAP2 SUB SWAP1 REVERT JUMPDEST PUSH1 0x2 PUSH1 0x6 PUSH1 0x4 ADD PUSH0 PUSH2 0x100 EXP DUP2 SLOAD DUP2 PUSH1 0xFF MUL NOT AND SWAP1 DUP4 PUSH1 0x5 DUP2 GT ISZERO PUSH2 0x16C7 JUMPI PUSH2 0x16C6 PUSH2 0x191F JUMP JUMPDEST JUMPDEST MUL OR SWAP1 SSTORE POP PUSH32 0xD004FFEBDEFD0660EFAFEDE3ED196AC0E1CF03085749E1ACD37DD0E5145D5922 PUSH1 0x40 MLOAD PUSH1 0x40 MLOAD DUP1 SWAP2 SUB SWAP1 LOG1 JUMP JUMPDEST PUSH0 DUP1 SLOAD PUSH2 0x1706 SWAP1 PUSH2 0x1A25 JUMP JUMPDEST DUP1 PUSH1 0x1F ADD PUSH1 0x20 DUP1 SWAP2 DIV MUL PUSH1 0x20 ADD PUSH1 0x40 MLOAD SWAP1 DUP2 ADD PUSH1 0x40 MSTORE DUP1 SWAP3 SWAP2 SWAP1 DUP2 DUP2 MSTORE PUSH1 0x20 ADD DUP3 DUP1 SLOAD PUSH2 0x1732 SWAP1 PUSH2 0x1A25 JUMP JUMPDEST DUP1 ISZERO PUSH2 0x177D JUMPI DUP1 PUSH1 0x1F LT PUSH2 0x1754 JUMPI PUSH2 0x100 DUP1 DUP4 SLOAD DIV MUL DUP4 MSTORE SWAP2 PUSH1 0x20 ADD SWAP2 PUSH2 0x177D JUMP JUMPDEST DUP3 ADD SWAP2 SWAP1 PUSH0 MSTORE PUSH1 0x20 PUSH0 KECCAK256 SWAP1 JUMPDEST DUP2 SLOAD DUP2 MSTORE SWAP1 PUSH1 0x1 ADD SWAP1 PUSH1 0x20 ADD DUP1 DUP4 GT PUSH2 0x1760 JUMPI DUP3 SWAP1 SUB PUSH1 0x1F AND DUP3 ADD SWAP2 JUMPDEST POP POP POP POP POP DUP2 JUMP JUMPDEST PUSH0 DUP2 MLOAD SWAP1 POP SWAP2 SWAP1 POP JUMP JUMPDEST PUSH0 DUP3 DUP3 MSTORE PUSH1 0x20 DUP3 ADD SWAP1 POP SWAP3 SWAP2 POP POP JUMP JUMPDEST DUP3 DUP2 DUP4 MCOPY PUSH0 DUP4 DUP4 ADD MSTORE POP POP POP JUMP JUMPDEST PUSH0 PUSH1 0x1F NOT PUSH1 0x1F DUP4 ADD AND SWAP1 POP SWAP2 SWAP1 POP JUMP JUMPDEST PUSH0 PUSH2 0x17C7 DUP3 PUSH2 0x1785 JUMP JUMPDEST PUSH2 0x17D1 DUP2 DUP6 PUSH2 0x178F JUMP JUMPDEST SWAP4 POP PUSH2 0x17E1 DUP2 DUP6 PUSH1 0x20 DUP7 ADD PUSH2 0x179F JUMP JUMPDEST PUSH2 0x17EA DUP2 PUSH2 0x17AD JUMP JUMPDEST DUP5 ADD SWAP2 POP POP SWAP3 SWAP2 POP POP JUMP JUMPDEST PUSH0 PUSH1 0x20 DUP3 ADD SWAP1 POP DUP2 DUP2 SUB PUSH0 DUP4 ADD MSTORE PUSH2 0x180D DUP2 DUP5 PUSH2 0x17BD JUMP JUMPDEST SWAP1 POP SWAP3 SWAP2 POP POP JUMP JUMPDEST PUSH0 PUSH20 0xFFFFFFFFFFFFFFFFFFFFFFFFFFFFFFFFFFFFFFFF DUP3 AND SWAP1 POP SWAP2 SWAP1 POP JUMP JUMPDEST PUSH0 PUSH2 0x183E DUP3 PUSH2 0x1815 JUMP JUMPDEST SWAP1 POP SWAP2 SWAP1 POP JUMP JUMPDEST PUSH2 0x184E DUP2 PUSH2 0x1834 JUMP JUMPDEST DUP3 MSTORE POP POP JUMP JUMPDEST PUSH0 PUSH1 0x20 DUP3 ADD SWAP1 POP PUSH2 0x1867 PUSH0 DUP4 ADD DUP5 PUSH2 0x1845 JUMP JUMPDEST SWAP3 SWAP2 POP POP JUMP JUMPDEST PUSH0 PUSH0 REVERT JUMPDEST PUSH2 0x187A DUP2 PUSH2 0x1834 JUMP JUMPDEST DUP2 EQ PUSH2 0x1884 JUMPI PUSH0 PUSH0 REVERT JUMPDEST POP JUMP JUMPDEST PUSH0 DUP2 CALLDATALOAD SWAP1 POP PUSH2 0x1895 DUP2 PUSH2 0x1871 JUMP JUMPDEST SWAP3 SWAP2 POP POP JUMP JUMPDEST PUSH0 PUSH1 0x20 DUP3 DUP5 SUB SLT ISZERO PUSH2 0x18B0 JUMPI PUSH2 0x18AF PUSH2 0x186D JUMP JUMPDEST JUMPDEST PUSH0 PUSH2 0x18BD DUP5 DUP3 DUP6 ADD PUSH2 0x1887 JUMP JUMPDEST SWAP2 POP POP SWAP3 SWAP2 POP POP JUMP JUMPDEST PUSH0 DUP2 ISZERO ISZERO SWAP1 POP SWAP2 SWAP1 POP JUMP JUMPDEST PUSH2 0x18DA DUP2 PUSH2 0x18C6 JUMP JUMPDEST DUP3 MSTORE POP POP JUMP JUMPDEST PUSH0 PUSH1 0x40 DUP3 ADD SWAP1 POP PUSH2 0x18F3 PUSH0 DUP4 ADD DUP6 PUSH2 0x18D1 JUMP JUMPDEST PUSH2 0x1900 PUSH1 0x20 DUP4 ADD DUP5 PUSH2 0x18D1 JUMP JUMPDEST SWAP4 SWAP3 POP POP POP JUMP JUMPDEST PUSH0 DUP2 SWAP1 POP SWAP2 SWAP1 POP JUMP JUMPDEST PUSH2 0x1919 DUP2 PUSH2 0x1907 JUMP JUMPDEST DUP3 MSTORE POP POP JUMP JUMPDEST PUSH32 0x4E487B7100000000000000000000000000000000000000000000000000000000 PUSH0 MSTORE PUSH1 0x21 PUSH1 0x4 MSTORE PUSH1 0x24 PUSH0 REVERT JUMPDEST PUSH1 0x6 DUP2 LT PUSH2 0x195D JUMPI PUSH2 0x195C PUSH2 0x191F JUMP JUMPDEST JUMPDEST POP JUMP JUMPDEST PUSH0 DUP2 SWAP1 POP PUSH2 0x196D DUP3 PUSH2 0x194C JUMP JUMPDEST SWAP2 SWAP1 POP JUMP JUMPDEST PUSH0 PUSH2 0x197C DUP3 PUSH2 0x1960 JUMP JUMPDEST SWAP1 POP SWAP2 SWAP1 POP JUMP JUMPDEST PUSH2 0x198C DUP2 PUSH2 0x1972 JUMP JUMPDEST DUP3 MSTORE POP POP JUMP JUMPDEST PUSH0 PUSH1 0xC0 DUP3 ADD SWAP1 POP PUSH2 0x19A5 PUSH0 DUP4 ADD DUP10 PUSH2 0x1845 JUMP JUMPDEST PUSH2 0x19B2 PUSH1 0x20 DUP4 ADD DUP9 PUSH2 0x1845 JUMP JUMPDEST DUP2 DUP2 SUB PUSH1 0x40 DUP4 ADD MSTORE PUSH2 0x19C4 DUP2 DUP8 PUSH2 0x17BD JUMP JUMPDEST SWAP1 POP PUSH2 0x19D3 PUSH1 0x60 DUP4 ADD DUP7 PUSH2 0x1910 JUMP JUMPDEST PUSH2 0x19E0 PUSH1 0x80 DUP4 ADD DUP6 PUSH2 0x1983 JUMP JUMPDEST PUSH2 0x19ED PUSH1 0xA0 DUP4 ADD DUP5 PUSH2 0x18D1 JUMP JUMPDEST SWAP8 SWAP7 POP POP POP POP POP POP POP JUMP JUMPDEST PUSH32 0x4E487B7100000000000000000000000000000000000000000000000000000000 PUSH0 MSTORE PUSH1 0x22 PUSH1 0x4 MSTORE PUSH1 0x24 PUSH0 REVERT JUMPDEST PUSH0 PUSH1 0x2 DUP3 DIV SWAP1 POP PUSH1 0x1 DUP3 AND DUP1 PUSH2 0x1A3C JUMPI PUSH1 0x7F DUP3 AND SWAP2 POP JUMPDEST PUSH1 0x20 DUP3 LT DUP2 SUB PUSH2 0x1A4F JUMPI PUSH2 0x1A4E PUSH2 0x19F8 JUMP JUMPDEST JUMPDEST POP SWAP2 SWAP1 POP JUMP JUMPDEST PUSH32 0x4F6E6C7920636C69656E742063616E20706572666F726D207468697320616374 PUSH0 DUP3 ADD MSTORE PUSH32 0x696F6E0000000000000000000000000000000000000000000000000000000000 PUSH1 0x20 DUP3 ADD MSTORE POP JUMP JUMPDEST PUSH0 PUSH2 0x1AAF PUSH1 0x23 DUP4 PUSH2 0x178F JUMP JUMPDEST SWAP2 POP PUSH2 0x1ABA DUP3 PUSH2 0x1A55 JUMP JUMPDEST PUSH1 0x40 DUP3 ADD SWAP1 POP SWAP2 SWAP1 POP JUMP JUMPDEST PUSH0 PUSH1 0x20 DUP3 ADD SWAP1 POP DUP2 DUP2 SUB PUSH0 DUP4 ADD MSTORE PUSH2 0x1ADC DUP2 PUSH2 0x1AA3 JUMP JUMPDEST SWAP1 POP SWAP2 SWAP1 POP JUMP JUMPDEST PUSH32 0x53657276696365206E6F7420696E2070726F6772657373000000000000000000 PUSH0 DUP3 ADD MSTORE POP JUMP JUMPDEST PUSH0 PUSH2 0x1B17 PUSH1 0x17 DUP4 PUSH2 0x178F JUMP JUMPDEST SWAP2 POP PUSH2 0x1B22 DUP3 PUSH2 0x1AE3 JUMP JUMPDEST PUSH1 0x20 DUP3 ADD SWAP1 POP SWAP2 SWAP1 POP JUMP JUMPDEST PUSH0 PUSH1 0x20 DUP3 ADD SWAP1 POP DUP2 DUP2 SUB PUSH0 DUP4 ADD MSTORE PUSH2 0x1B44 DUP2 PUSH2 0x1B0B JUMP JUMPDEST SWAP1 POP SWAP2 SWAP1 POP JUMP JUMPDEST PUSH32 0x4F6E6C792070726F76696465722063616E20706572666F726D20746869732061 PUSH0 DUP3 ADD MSTORE PUSH32 0x6374696F6E000000000000000000000000000000000000000000000000000000 PUSH1 0x20 DUP3 ADD MSTORE POP JUMP JUMPDEST PUSH0 PUSH2 0x1BA5 PUSH1 0x25 DUP4 PUSH2 0x178F JUMP JUMPDEST SWAP2 POP PUSH2 0x1BB0 DUP3 PUSH2 0x1B4B JUMP JUMPDEST PUSH1 0x40 DUP3 ADD SWAP1 POP SWAP2 SWAP1 POP JUMP JUMPDEST PUSH0 PUSH1 0x20 DUP3 ADD SWAP1 POP DUP2 DUP2 SUB PUSH0 DUP4 ADD MSTORE PUSH2 0x1BD2 DUP2 PUSH2 0x1B99 JUMP JUMPDEST SWAP1 POP SWAP2 SWAP1 POP JUMP JUMPDEST PUSH32 0x4F6E6C7920696E766F6C76656420706172746965732063616E20706572666F72 PUSH0 DUP3 ADD MSTORE PUSH32 0x6D207468697320616374696F6E00000000000000000000000000000000000000 PUSH1 0x20 DUP3 ADD MSTORE POP JUMP JUMPDEST PUSH0 PUSH2 0x1C33 PUSH1 0x2D DUP4 PUSH2 0x178F JUMP JUMPDEST SWAP2 POP PUSH2 0x1C3E DUP3 PUSH2 0x1BD9 JUMP JUMPDEST PUSH1 0x40 DUP3 ADD SWAP1 POP SWAP2 SWAP1 POP JUMP JUMPDEST PUSH0 PUSH1 0x20 DUP3 ADD SWAP1 POP DUP2 DUP2 SUB PUSH0 DUP4 ADD MSTORE PUSH2 0x1C60 DUP2 PUSH2 0x1C27 JUMP JUMPDEST SWAP1 POP SWAP2 SWAP1 POP JUMP JUMPDEST PUSH32 0x43616E6E6F742063616E63656C20616674657220636F6D706C6574696F6E0000 PUSH0 DUP3 ADD MSTORE POP JUMP JUMPDEST PUSH0 PUSH2 0x1C9B PUSH1 0x1E DUP4 PUSH2 0x178F JUMP JUMPDEST SWAP2 POP PUSH2 0x1CA6 DUP3 PUSH2 0x1C67 JUMP JUMPDEST PUSH1 0x20 DUP3 ADD SWAP1 POP SWAP2 SWAP1 POP JUMP JUMPDEST PUSH0 PUSH1 0x20 DUP3 ADD SWAP1 POP DUP2 DUP2 SUB PUSH0 DUP4 ADD MSTORE PUSH2 0x1CC8 DUP2 PUSH2 0x1C8F JUMP JUMPDEST SWAP1 POP SWAP2 SWAP1 POP JUMP JUMPDEST PUSH32 0x43616E6E6F742063616E63656C207768696C6520696E2070726F677265737300 PUSH0 DUP3 ADD MSTORE POP JUMP JUMPDEST PUSH0 PUSH2 0x1D03 PUSH1 0x1F DUP4 PUSH2 0x178F JUMP JUMPDEST SWAP2 POP PUSH2 0x1D0E DUP3 PUSH2 0x1CCF JUMP JUMPDEST PUSH1 0x20 DUP3 ADD SWAP1 POP SWAP2 SWAP1 POP JUMP JUMPDEST PUSH0 PUSH1 0x20 DUP3 ADD SWAP1 POP DUP2 DUP2 SUB PUSH0 DUP4 ADD MSTORE PUSH2 0x1D30 DUP2 PUSH2 0x1CF7 JUMP JUMPDEST SWAP1 POP SWAP2 SWAP1 POP JUMP JUMPDEST PUSH32 0x4F6E6C79206C61777965722063616E20706572666F726D207468697320616374 PUSH0 DUP3 ADD MSTORE PUSH32 0x696F6E0000000000000000000000000000000000000000000000000000000000 PUSH1 0x20 DUP3 ADD MSTORE POP JUMP JUMPDEST PUSH0 PUSH2 0x1D91 PUSH1 0x23 DUP4 PUSH2 0x178F JUMP JUMPDEST SWAP2 POP PUSH2 0x1D9C DUP3 PUSH2 0x1D37 JUMP JUMPDEST PUSH1 0x40 DUP3 ADD SWAP1 POP SWAP2 SWAP1 POP JUMP JUMPDEST PUSH0 PUSH1 0x20 DUP3 ADD SWAP1 POP DUP2 DUP2 SUB PUSH0 DUP4 ADD MSTORE PUSH2 0x1DBE DUP2 PUSH2 0x1D85 JUMP JUMPDEST SWAP1 POP SWAP2 SWAP1 POP JUMP JUMPDEST PUSH32 0x53657276696365206E6F7420636F6D706C657465640000000000000000000000 PUSH0 DUP3 ADD MSTORE POP JUMP JUMPDEST PUSH0 PUSH2 0x1DF9 PUSH1 0x15 DUP4 PUSH2 0x178F JUMP JUMPDEST SWAP2 POP PUSH2 0x1E04 DUP3 PUSH2 0x1DC5 JUMP JUMPDEST PUSH1 0x20 DUP3 ADD SWAP1 POP SWAP2 SWAP1 POP JUMP JUMPDEST PUSH0 PUSH1 0x20 DUP3 ADD SWAP1 POP DUP2 DUP2 SUB PUSH0 DUP4 ADD MSTORE PUSH2 0x1E26 DUP2 PUSH2 0x1DED JUMP JUMPDEST SWAP1 POP SWAP2 SWAP1 POP JUMP JUMPDEST PUSH32 0x436F6E7472616374206E6F74206C6567616C6C79207265636F676E697A656400 PUSH0 DUP3 ADD MSTORE POP JUMP JUMPDEST PUSH0 PUSH2 0x1E61 PUSH1 0x1F DUP4 PUSH2 0x178F JUMP JUMPDEST SWAP2 POP PUSH2 0x1E6C DUP3 PUSH2 0x1E2D JUMP JUMPDEST PUSH1 0x20 DUP3 ADD SWAP1 POP SWAP2 SWAP1 POP JUMP JUMPDEST PUSH0 PUSH1 0x20 DUP3 ADD SWAP1 POP DUP2 DUP2 SUB PUSH0 DUP4 ADD MSTORE PUSH2 0x1E8E DUP2 PUSH2 0x1E55 JUMP JUMPDEST SWAP1 POP SWAP2 SWAP1 POP JUMP JUMPDEST PUSH32 0x496E73756666696369656E74207061796D656E74000000000000000000000000 PUSH0 DUP3 ADD MSTORE POP JUMP JUMPDEST PUSH0 PUSH2 0x1EC9 PUSH1 0x14 DUP4 PUSH2 0x178F JUMP JUMPDEST SWAP2 POP PUSH2 0x1ED4 DUP3 PUSH2 0x1E95 JUMP JUMPDEST PUSH1 0x20 DUP3 ADD SWAP1 POP SWAP2 SWAP1 POP JUMP JUMPDEST PUSH0 PUSH1 0x20 DUP3 ADD SWAP1 POP DUP2 DUP2 SUB PUSH0 DUP4 ADD MSTORE PUSH2 0x1EF6 DUP2 PUSH2 0x1EBD JUMP JUMPDEST SWAP1 POP SWAP2 SWAP1 POP JUMP JUMPDEST PUSH0 PUSH1 0x40 DUP3 ADD SWAP1 POP PUSH2 0x1F10 PUSH0 DUP4 ADD DUP6 PUSH2 0x1845 JUMP JUMPDEST PUSH2 0x1F1D PUSH1 0x20 DUP4 ADD DUP5 PUSH2 0x1910 JUMP JUMPDEST SWAP4 SWAP3 POP POP POP JUMP JUMPDEST PUSH32 0x4F6E6C792070726F7669646572206F72206C61777965722063616E2061636365 PUSH0 DUP3 ADD MSTORE PUSH32 0x7074000000000000000000000000000000000000000000000000000000000000 PUSH1 0x20 DUP3 ADD MSTORE POP JUMP JUMPDEST PUSH0 PUSH2 0x1F7E PUSH1 0x22 DUP4 PUSH2 0x178F JUMP JUMPDEST SWAP2 POP PUSH2 0x1F89 DUP3 PUSH2 0x1F24 JUMP JUMPDEST PUSH1 0x40 DUP3 ADD SWAP1 POP SWAP2 SWAP1 POP JUMP JUMPDEST PUSH0 PUSH1 0x20 DUP3 ADD SWAP1 POP DUP2 DUP2 SUB PUSH0 DUP4 ADD MSTORE PUSH2 0x1FAB DUP2 PUSH2 0x1F72 JUMP JUMPDEST SWAP1 POP SWAP2 SWAP1 POP JUMP JUMPDEST PUSH32 0x436C69656E7420686173206E6F74206163636570746564000000000000000000 PUSH0 DUP3 ADD MSTORE POP JUMP JUMPDEST PUSH0 PUSH2 0x1FE6 PUSH1 0x17 DUP4 PUSH2 0x178F JUMP JUMPDEST SWAP2 POP PUSH2 0x1FF1 DUP3 PUSH2 0x1FB2 JUMP JUMPDEST PUSH1 0x20 DUP3 ADD SWAP1 POP SWAP2 SWAP1 POP JUMP JUMPDEST PUSH0 PUSH1 0x20 DUP3 ADD SWAP1 POP DUP2 DUP2 SUB PUSH0 DUP4 ADD MSTORE PUSH2 0x2013 DUP2 PUSH2 0x1FDA JUMP JUMPDEST SWAP1 POP SWAP2 SWAP1 POP JUMP JUMPDEST PUSH32 0x50726F766964657220686173206E6F7420616363657074656400000000000000 PUSH0 DUP3 ADD MSTORE POP JUMP JUMPDEST PUSH0 PUSH2 0x204E PUSH1 0x19 DUP4 PUSH2 0x178F JUMP JUMPDEST SWAP2 POP PUSH2 0x2059 DUP3 PUSH2 0x201A JUMP JUMPDEST PUSH1 0x20 DUP3 ADD SWAP1 POP SWAP2 SWAP1 POP JUMP JUMPDEST PUSH0 PUSH1 0x20 DUP3 ADD SWAP1 POP DUP2 DUP2 SUB PUSH0 DUP4 ADD MSTORE PUSH2 0x207B DUP2 PUSH2 0x2042 JUMP JUMPDEST SWAP1 POP SWAP2 SWAP1 POP JUMP JUMPDEST PUSH32 0x53657276696365206E6F74207061757365640000000000000000000000000000 PUSH0 DUP3 ADD MSTORE POP JUMP JUMPDEST PUSH0 PUSH2 0x20B6 PUSH1 0x12 DUP4 PUSH2 0x178F JUMP JUMPDEST SWAP2 POP PUSH2 0x20C1 DUP3 PUSH2 0x2082 JUMP JUMPDEST PUSH1 0x20 DUP3 ADD SWAP1 POP SWAP2 SWAP1 POP JUMP JUMPDEST PUSH0 PUSH1 0x20 DUP3 ADD SWAP1 POP DUP2 DUP2 SUB PUSH0 DUP4 ADD MSTORE PUSH2 0x20E3 DUP2 PUSH2 0x20AA JUMP JUMPDEST SWAP1 POP SWAP2 SWAP1 POP JUMP INVALID LOG2 PUSH5 0x6970667358 0x22 SLT KECCAK256 0xF6 0x23 SWAP15 PUSH21 0xB5187F500C62AA429423DBABE422F4219AABF6E231 SWAP15 0xBE PREVRANDAO SWAP7 0xC2 STATICCALL DUP3 PUSH5 0x736F6C6343 STOP ADDMOD 0x1E STOP CALLER LOG2 PUSH5 0x6970667358 0x22 SLT KECCAK256 PUSH8 0x2D016A19DF0715FD DUP4 0x2F 0xAD DUP14 SHR PUSH31 0x8B863BD60C7FFCC35BC2BCED73D5634E9964736F6C634300081E0033000000 "
		},
		"gasEstimates": {
			"creation": {
				"codeDepositCost": "3077400",
				"executionCost": "3386",
				"totalCost": "3080786"
			},
			"external": {
				"createContract(string,string,address,address,address,address,string,uint256,string)": "infinite",
				"getAllContracts()": "infinite",
				"getContractByIndex(uint256)": "7084",
				"getContractsByCreator(address)": "infinite",
				"getTotalContracts()": "2528",
				"getTotalContractsByCreator(address)": "2881",
				"removeLastContractByCreator(address)": "51374",
				"removeLastCreatedContract()": "50824",
				"resetContractsByCreator(address,address[])": "infinite",
				"resetCreatedContracts(address[])": "infinite"
			}
		},
		"methodIdentifiers": {
			"createContract(string,string,address,address,address,address,string,uint256,string)": "636c78f3",
			"getAllContracts()": "18d3ce96",
			"getContractByIndex(uint256)": "0264a101",
			"getContractsByCreator(address)": "b57adcfd",
			"getTotalContracts()": "534860cc",
			"getTotalContractsByCreator(address)": "8731de12",
			"removeLastContractByCreator(address)": "b6a0aa09",
			"removeLastCreatedContract()": "85bbd652",
			"resetContractsByCreator(address,address[])": "2db49af5",
			"resetCreatedContracts(address[])": "3b8eb15c"
		}
	},
	"abi": [
		{
			"anonymous": false,
			"inputs": [
				{
					"indexed": false,
					"internalType": "address",
					"name": "contractAddress",
					"type": "address"
				},
				{
					"indexed": false,
					"internalType": "address",
					"name": "creator",
					"type": "address"
				}
			],
			"name": "ContractCreated",
			"type": "event"
		},
		{
			"inputs": [
				{
					"internalType": "string",
					"name": "clientName",
					"type": "string"
				},
				{
					"internalType": "string",
					"name": "providerName",
					"type": "string"
				},
				{
					"internalType": "address",
					"name": "client",
					"type": "address"
				},
				{
					"internalType": "address",
					"name": "provider",
					"type": "address"
				},
				{
					"internalType": "address",
					"name": "intermediary",
					"type": "address"
				},
				{
					"internalType": "address",
					"name": "lawyer",
					"type": "address"
				},
				{
					"internalType": "string",
					"name": "description",
					"type": "string"
				},
				{
					"internalType": "uint256",
					"name": "value",
					"type": "uint256"
				},
				{
					"internalType": "string",
					"name": "ipfsTermsLink",
					"type": "string"
				}
			],
			"name": "createContract",
			"outputs": [],
			"stateMutability": "nonpayable",
			"type": "function"
		},
		{
			"inputs": [],
			"name": "getAllContracts",
			"outputs": [
				{
					"internalType": "address[]",
					"name": "",
					"type": "address[]"
				}
			],
			"stateMutability": "view",
			"type": "function"
		},
		{
			"inputs": [
				{
					"internalType": "uint256",
					"name": "index",
					"type": "uint256"
				}
			],
			"name": "getContractByIndex",
			"outputs": [
				{
					"internalType": "address",
					"name": "",
					"type": "address"
				}
			],
			"stateMutability": "view",
			"type": "function"
		},
		{
			"inputs": [
				{
					"internalType": "address",
					"name": "creator",
					"type": "address"
				}
			],
			"name": "getContractsByCreator",
			"outputs": [
				{
					"internalType": "address[]",
					"name": "",
					"type": "address[]"
				}
			],
			"stateMutability": "view",
			"type": "function"
		},
		{
			"inputs": [],
			"name": "getTotalContracts",
			"outputs": [
				{
					"internalType": "uint256",
					"name": "",
					"type": "uint256"
				}
			],
			"stateMutability": "view",
			"type": "function"
		},
		{
			"inputs": [
				{
					"internalType": "address",
					"name": "creator",
					"type": "address"
				}
			],
			"name": "getTotalContractsByCreator",
			"outputs": [
				{
					"internalType": "uint256",
					"name": "",
					"type": "uint256"
				}
			],
			"stateMutability": "view",
			"type": "function"
		},
		{
			"inputs": [
				{
					"internalType": "address",
					"name": "creator",
					"type": "address"
				}
			],
			"name": "removeLastContractByCreator",
			"outputs": [],
			"stateMutability": "nonpayable",
			"type": "function"
		},
		{
			"inputs": [],
			"name": "removeLastCreatedContract",
			"outputs": [],
			"stateMutability": "nonpayable",
			"type": "function"
		},
		{
			"inputs": [
				{
					"internalType": "address",
					"name": "creator",
					"type": "address"
				},
				{
					"internalType": "address[]",
					"name": "newContracts",
					"type": "address[]"
				}
			],
			"name": "resetContractsByCreator",
			"outputs": [],
			"stateMutability": "nonpayable",
			"type": "function"
		},
		{
			"inputs": [
				{
					"internalType": "address[]",
					"name": "newContracts",
					"type": "address[]"
				}
			],
			"name": "resetCreatedContracts",
			"outputs": [],
			"stateMutability": "nonpayable",
			"type": "function"
		}
	]
}