{
	"data": {
		"bytecode": {
			"linkReferences": {},
			"object": "6080604052348015600e575f5ffd5b506001805f3373ffffffffffffffffffffffffffffffffffffffff1673ffffffffffffffffffffffffffffffffffffffff1681526020019081526020015f205f6101000a81548160ff021916908315150217905550611118806100705f395ff3fe608060405234801561000f575f5ffd5b5060043610610055575f3560e01c80630b1e7f83146100595780633eb2b5ad1461008b57806352374f7a146100a7578063a7c81a01146100c3578063c836292b146100df575b5f5ffd5b610073600480360381019061006e91906106eb565b61010f565b604051610082939291906107d4565b60405180910390f35b6100a560048036038101906100a0919061083a565b6101e8565b005b6100c160048036038101906100bc9190610a73565b6102c8565b005b6100dd60048036038101906100d89190610ae9565b610495565b005b6100f960048036038101906100f4919061083a565b6105b8565b6040516101069190610b5d565b60405180910390f35b5f818154811061011d575f80fd5b905f5260205f2090600402015f91509050805f015f9054906101000a900473ffffffffffffffffffffffffffffffffffffffff169080600101549080600201805461016790610ba3565b80601f016020809104026020016040519081016040528092919081815260200182805461019390610ba3565b80156101de5780601f106101b5576101008083540402835291602001916101de565b820191905f5260205f20905b8154815290600101906020018083116101c157829003601f168201915b5050505050905083565b60015f3373ffffffffffffffffffffffffffffffffffffffff1673ffffffffffffffffffffffffffffffffffffffff1681526020019081526020015f205f9054906101000a900460ff16610271576040517f08c379a000000000000000000000000000000000000000000000000000000000815260040161026890610c1d565b60405180910390fd5b6001805f8373ffffffffffffffffffffffffffffffffffffffff1673ffffffffffffffffffffffffffffffffffffffff1681526020019081526020015f205f6101000a81548160ff02191690831515021790555050565b60015f3373ffffffffffffffffffffffffffffffffffffffff1673ffffffffffffffffffffffffffffffffffffffff1681526020019081526020015f205f9054906101000a900460ff16610351576040517f08c379a000000000000000000000000000000000000000000000000000000000815260040161034890610c1d565b60405180910390fd5b5f60405180608001604052803373ffffffffffffffffffffffffffffffffffffffff16815260200142815260200184815260200183815250908060018154018082558091505060019003905f5260205f2090600402015f909190919091505f820151815f015f6101000a81548173ffffffffffffffffffffffffffffffffffffffff021916908373ffffffffffffffffffffffffffffffffffffffff1602179055506020820151816001015560408201518160020190816104129190610ddb565b50606082015181600301908051906020019061042f9291906105d5565b50505060015f805490506104439190610ed7565b3373ffffffffffffffffffffffffffffffffffffffff167f12a6d6e360de92ee96444e397580fa39ca65f27c25bd78a4bad6278011334fac846040516104899190610f0a565b60405180910390a35050565b813373ffffffffffffffffffffffffffffffffffffffff165f82815481106104c0576104bf610f2a565b5b905f5260205f2090600402015f015f9054906101000a900473ffffffffffffffffffffffffffffffffffffffff1673ffffffffffffffffffffffffffffffffffffffff1614610544576040517f08c379a000000000000000000000000000000000000000000000000000000000815260040161053b90610fa1565b60405180910390fd5b815f848154811061055857610557610f2a565b5b905f5260205f209060040201600301908051906020019061057a9291906105d5565b50827f1ec4c1ffa8337f540f543c894b49ff569d0f0e1f6f0401b1d853712087c9d4c5836040516105ab91906110c2565b60405180910390a2505050565b6001602052805f5260405f205f915054906101000a900460ff1681565b828054828255905f5260205f2090810192821561061b579160200282015b8281111561061a57825182908161060a9190610ddb565b50916020019190600101906105f3565b5b509050610628919061062c565b5090565b5b8082111561064b575f8181610642919061064f565b5060010161062d565b5090565b50805461065b90610ba3565b5f825580601f1061066c5750610689565b601f0160209004905f5260205f2090810190610688919061068c565b5b50565b5b808211156106a3575f815f90555060010161068d565b5090565b5f604051905090565b5f5ffd5b5f5ffd5b5f819050919050565b6106ca816106b8565b81146106d4575f5ffd5b50565b5f813590506106e5816106c1565b92915050565b5f60208284031215610700576106ff6106b0565b5b5f61070d848285016106d7565b91505092915050565b5f73ffffffffffffffffffffffffffffffffffffffff82169050919050565b5f61073f82610716565b9050919050565b61074f81610735565b82525050565b61075e816106b8565b82525050565b5f81519050919050565b5f82825260208201905092915050565b8281835e5f83830152505050565b5f601f19601f8301169050919050565b5f6107a682610764565b6107b0818561076e565b93506107c081856020860161077e565b6107c98161078c565b840191505092915050565b5f6060820190506107e75f830186610746565b6107f46020830185610755565b8181036040830152610806818461079c565b9050949350505050565b61081981610735565b8114610823575f5ffd5b50565b5f8135905061083481610810565b92915050565b5f6020828403121561084f5761084e6106b0565b5b5f61085c84828501610826565b91505092915050565b5f5ffd5b5f5ffd5b7f4e487b71000000000000000000000000000000000000000000000000000000005f52604160045260245ffd5b6108a38261078c565b810181811067ffffffffffffffff821117156108c2576108c161086d565b5b80604052505050565b5f6108d46106a7565b90506108e0828261089a565b919050565b5f67ffffffffffffffff8211156108ff576108fe61086d565b5b6109088261078c565b9050602081019050919050565b828183375f83830152505050565b5f610935610930846108e5565b6108cb565b90508281526020810184848401111561095157610950610869565b5b61095c848285610915565b509392505050565b5f82601f83011261097857610977610865565b5b8135610988848260208601610923565b91505092915050565b5f67ffffffffffffffff8211156109ab576109aa61086d565b5b602082029050602081019050919050565b5f5ffd5b5f6109d26109cd84610991565b6108cb565b905080838252602082019050602084028301858111156109f5576109f46109bc565b5b835b81811015610a3c57803567ffffffffffffffff811115610a1a57610a19610865565b5b808601610a278982610964565b855260208501945050506020810190506109f7565b5050509392505050565b5f82601f830112610a5a57610a59610865565b5b8135610a6a8482602086016109c0565b91505092915050565b5f5f60408385031215610a8957610a886106b0565b5b5f83013567ffffffffffffffff811115610aa657610aa56106b4565b5b610ab285828601610964565b925050602083013567ffffffffffffffff811115610ad357610ad26106b4565b5b610adf85828601610a46565b9150509250929050565b5f5f60408385031215610aff57610afe6106b0565b5b5f610b0c858286016106d7565b925050602083013567ffffffffffffffff811115610b2d57610b2c6106b4565b5b610b3985828601610a46565b9150509250929050565b5f8115159050919050565b610b5781610b43565b82525050565b5f602082019050610b705f830184610b4e565b92915050565b7f4e487b71000000000000000000000000000000000000000000000000000000005f52602260045260245ffd5b5f6002820490506001821680610bba57607f821691505b602082108103610bcd57610bcc610b76565b5b50919050565b7f4e6f742061207465616d206d656d6265720000000000000000000000000000005f82015250565b5f610c0760118361076e565b9150610c1282610bd3565b602082019050919050565b5f6020820190508181035f830152610c3481610bfb565b9050919050565b5f819050815f5260205f209050919050565b5f6020601f8301049050919050565b5f82821b905092915050565b5f60088302610c977fffffffffffffffffffffffffffffffffffffffffffffffffffffffffffffffff82610c5c565b610ca18683610c5c565b95508019841693508086168417925050509392505050565b5f819050919050565b5f610cdc610cd7610cd2846106b8565b610cb9565b6106b8565b9050919050565b5f819050919050565b610cf583610cc2565b610d09610d0182610ce3565b848454610c68565b825550505050565b5f5f905090565b610d20610d11565b610d2b818484610cec565b505050565b5b81811015610d4e57610d435f82610d18565b600181019050610d31565b5050565b601f821115610d9357610d6481610c3b565b610d6d84610c4d565b81016020851015610d7c578190505b610d90610d8885610c4d565b830182610d30565b50505b505050565b5f82821c905092915050565b5f610db35f1984600802610d98565b1980831691505092915050565b5f610dcb8383610da4565b9150826002028217905092915050565b610de482610764565b67ffffffffffffffff811115610dfd57610dfc61086d565b5b610e078254610ba3565b610e12828285610d52565b5f60209050601f831160018114610e43575f8415610e31578287015190505b610e3b8582610dc0565b865550610ea2565b601f198416610e5186610c3b565b5f5b82811015610e7857848901518255600182019150602085019450602081019050610e53565b86831015610e955784890151610e91601f891682610da4565b8355505b6001600288020188555050505b505050505050565b7f4e487b71000000000000000000000000000000000000000000000000000000005f52601160045260245ffd5b5f610ee1826106b8565b9150610eec836106b8565b9250828203905081811115610f0457610f03610eaa565b5b92915050565b5f6020820190508181035f830152610f22818461079c565b905092915050565b7f4e487b71000000000000000000000000000000000000000000000000000000005f52603260045260245ffd5b7f4e6f742074686520617574686f720000000000000000000000000000000000005f82015250565b5f610f8b600e8361076e565b9150610f9682610f57565b602082019050919050565b5f6020820190508181035f830152610fb881610f7f565b9050919050565b5f81519050919050565b5f82825260208201905092915050565b5f819050602082019050919050565b5f82825260208201905092915050565b5f61100282610764565b61100c8185610fe8565b935061101c81856020860161077e565b6110258161078c565b840191505092915050565b5f61103b8383610ff8565b905092915050565b5f602082019050919050565b5f61105982610fbf565b6110638185610fc9565b93508360208202850161107585610fd9565b805f5b858110156110b057848403895281516110918582611030565b945061109c83611043565b925060208a01995050600181019050611078565b50829750879550505050505092915050565b5f6020820190508181035f8301526110da818461104f565b90509291505056fea26469706673582212204b59bf6f812ba1ee33974139ff62d49dfadc8e182e4a4de16212d2c9e27f143164736f6c634300081e0033",
			"opcodes": "PUSH1 0x80 PUSH1 0x40 MSTORE CALLVALUE DUP1 ISZERO PUSH1 0xE JUMPI PUSH0 PUSH0 REVERT JUMPDEST POP PUSH1 0x1 DUP1 PUSH0 CALLER PUSH20 0xFFFFFFFFFFFFFFFFFFFFFFFFFFFFFFFFFFFFFFFF AND PUSH20 0xFFFFFFFFFFFFFFFFFFFFFFFFFFFFFFFFFFFFFFFF AND DUP2 MSTORE PUSH1 0x20 ADD SWAP1 DUP2 MSTORE PUSH1 0x20 ADD PUSH0 KECCAK256 PUSH0 PUSH2 0x100 EXP DUP2 SLOAD DUP2 PUSH1 0xFF MUL NOT AND SWAP1 DUP4 ISZERO ISZERO MUL OR SWAP1 SSTORE POP PUSH2 0x1118 DUP1 PUSH2 0x70 PUSH0 CODECOPY PUSH0 RETURN INVALID PUSH1 0x80 PUSH1 0x40 MSTORE CALLVALUE DUP1 ISZERO PUSH2 0xF JUMPI PUSH0 PUSH0 REVERT JUMPDEST POP PUSH1 0x4 CALLDATASIZE LT PUSH2 0x55 JUMPI PUSH0 CALLDATALOAD PUSH1 0xE0 SHR DUP1 PUSH4 0xB1E7F83 EQ PUSH2 0x59 JUMPI DUP1 PUSH4 0x3EB2B5AD EQ PUSH2 0x8B JUMPI DUP1 PUSH4 0x52374F7A EQ PUSH2 0xA7 JUMPI DUP1 PUSH4 0xA7C81A01 EQ PUSH2 0xC3 JUMPI DUP1 PUSH4 0xC836292B EQ PUSH2 0xDF JUMPI JUMPDEST PUSH0 PUSH0 REVERT JUMPDEST PUSH2 0x73 PUSH1 0x4 DUP1 CALLDATASIZE SUB DUP2 ADD SWAP1 PUSH2 0x6E SWAP2 SWAP1 PUSH2 0x6EB JUMP JUMPDEST PUSH2 0x10F JUMP JUMPDEST PUSH1 0x40 MLOAD PUSH2 0x82 SWAP4 SWAP3 SWAP2 SWAP1 PUSH2 0x7D4 JUMP JUMPDEST PUSH1 0x40 MLOAD DUP1 SWAP2 SUB SWAP1 RETURN JUMPDEST PUSH2 0xA5 PUSH1 0x4 DUP1 CALLDATASIZE SUB DUP2 ADD SWAP1 PUSH2 0xA0 SWAP2 SWAP1 PUSH2 0x83A JUMP JUMPDEST PUSH2 0x1E8 JUMP JUMPDEST STOP JUMPDEST PUSH2 0xC1 PUSH1 0x4 DUP1 CALLDATASIZE SUB DUP2 ADD SWAP1 PUSH2 0xBC SWAP2 SWAP1 PUSH2 0xA73 JUMP JUMPDEST PUSH2 0x2C8 JUMP JUMPDEST STOP JUMPDEST PUSH2 0xDD PUSH1 0x4 DUP1 CALLDATASIZE SUB DUP2 ADD SWAP1 PUSH2 0xD8 SWAP2 SWAP1 PUSH2 0xAE9 JUMP JUMPDEST PUSH2 0x495 JUMP JUMPDEST STOP JUMPDEST PUSH2 0xF9 PUSH1 0x4 DUP1 CALLDATASIZE SUB DUP2 ADD SWAP1 PUSH2 0xF4 SWAP2 SWAP1 PUSH2 0x83A JUMP JUMPDEST PUSH2 0x5B8 JUMP JUMPDEST PUSH1 0x40 MLOAD PUSH2 0x106 SWAP2 SWAP1 PUSH2 0xB5D JUMP JUMPDEST PUSH1 0x40 MLOAD DUP1 SWAP2 SUB SWAP1 RETURN JUMPDEST PUSH0 DUP2 DUP2 SLOAD DUP2 LT PUSH2 0x11D JUMPI PUSH0 DUP1 REVERT JUMPDEST SWAP1 PUSH0 MSTORE PUSH1 0x20 PUSH0 KECCAK256 SWAP1 PUSH1 0x4 MUL ADD PUSH0 SWAP2 POP SWAP1 POP DUP1 PUSH0 ADD PUSH0 SWAP1 SLOAD SWAP1 PUSH2 0x100 EXP SWAP1 DIV PUSH20 0xFFFFFFFFFFFFFFFFFFFFFFFFFFFFFFFFFFFFFFFF AND SWAP1 DUP1 PUSH1 0x1 ADD SLOAD SWAP1 DUP1 PUSH1 0x2 ADD DUP1 SLOAD PUSH2 0x167 SWAP1 PUSH2 0xBA3 JUMP JUMPDEST DUP1 PUSH1 0x1F ADD PUSH1 0x20 DUP1 SWAP2 DIV MUL PUSH1 0x20 ADD PUSH1 0x40 MLOAD SWAP1 DUP2 ADD PUSH1 0x40 MSTORE DUP1 SWAP3 SWAP2 SWAP1 DUP2 DUP2 MSTORE PUSH1 0x20 ADD DUP3 DUP1 SLOAD PUSH2 0x193 SWAP1 PUSH2 0xBA3 JUMP JUMPDEST DUP1 ISZERO PUSH2 0x1DE JUMPI DUP1 PUSH1 0x1F LT PUSH2 0x1B5 JUMPI PUSH2 0x100 DUP1 DUP4 SLOAD DIV MUL DUP4 MSTORE SWAP2 PUSH1 0x20 ADD SWAP2 PUSH2 0x1DE JUMP JUMPDEST DUP3 ADD SWAP2 SWAP1 PUSH0 MSTORE PUSH1 0x20 PUSH0 KECCAK256 SWAP1 JUMPDEST DUP2 SLOAD DUP2 MSTORE SWAP1 PUSH1 0x1 ADD SWAP1 PUSH1 0x20 ADD DUP1 DUP4 GT PUSH2 0x1C1 JUMPI DUP3 SWAP1 SUB PUSH1 0x1F AND DUP3 ADD SWAP2 JUMPDEST POP POP POP POP POP SWAP1 POP DUP4 JUMP JUMPDEST PUSH1 0x1 PUSH0 CALLER PUSH20 0xFFFFFFFFFFFFFFFFFFFFFFFFFFFFFFFFFFFFFFFF AND PUSH20 0xFFFFFFFFFFFFFFFFFFFFFFFFFFFFFFFFFFFFFFFF AND DUP2 MSTORE PUSH1 0x20 ADD SWAP1 DUP2 MSTORE PUSH1 0x20 ADD PUSH0 KECCAK256 PUSH0 SWAP1 SLOAD SWAP1 PUSH2 0x100 EXP SWAP1 DIV PUSH1 0xFF AND PUSH2 0x271 JUMPI PUSH1 0x40 MLOAD PUSH32 0x8C379A000000000000000000000000000000000000000000000000000000000 DUP2 MSTORE PUSH1 0x4 ADD PUSH2 0x268 SWAP1 PUSH2 0xC1D JUMP JUMPDEST PUSH1 0x40 MLOAD DUP1 SWAP2 SUB SWAP1 REVERT JUMPDEST PUSH1 0x1 DUP1 PUSH0 DUP4 PUSH20 0xFFFFFFFFFFFFFFFFFFFFFFFFFFFFFFFFFFFFFFFF AND PUSH20 0xFFFFFFFFFFFFFFFFFFFFFFFFFFFFFFFFFFFFFFFF AND DUP2 MSTORE PUSH1 0x20 ADD SWAP1 DUP2 MSTORE PUSH1 0x20 ADD PUSH0 KECCAK256 PUSH0 PUSH2 0x100 EXP DUP2 SLOAD DUP2 PUSH1 0xFF MUL NOT AND SWAP1 DUP4 ISZERO ISZERO MUL OR SWAP1 SSTORE POP POP JUMP JUMPDEST PUSH1 0x1 PUSH0 CALLER PUSH20 0xFFFFFFFFFFFFFFFFFFFFFFFFFFFFFFFFFFFFFFFF AND PUSH20 0xFFFFFFFFFFFFFFFFFFFFFFFFFFFFFFFFFFFFFFFF AND DUP2 MSTORE PUSH1 0x20 ADD SWAP1 DUP2 MSTORE PUSH1 0x20 ADD PUSH0 KECCAK256 PUSH0 SWAP1 SLOAD SWAP1 PUSH2 0x100 EXP SWAP1 DIV PUSH1 0xFF AND PUSH2 0x351 JUMPI PUSH1 0x40 MLOAD PUSH32 0x8C379A000000000000000000000000000000000000000000000000000000000 DUP2 MSTORE PUSH1 0x4 ADD PUSH2 0x348 SWAP1 PUSH2 0xC1D JUMP JUMPDEST PUSH1 0x40 MLOAD DUP1 SWAP2 SUB SWAP1 REVERT JUMPDEST PUSH0 PUSH1 0x40 MLOAD DUP1 PUSH1 0x80 ADD PUSH1 0x40 MSTORE DUP1 CALLER PUSH20 0xFFFFFFFFFFFFFFFFFFFFFFFFFFFFFFFFFFFFFFFF AND DUP2 MSTORE PUSH1 0x20 ADD TIMESTAMP DUP2 MSTORE PUSH1 0x20 ADD DUP5 DUP2 MSTORE PUSH1 0x20 ADD DUP4 DUP2 MSTORE POP SWAP1 DUP1 PUSH1 0x1 DUP2 SLOAD ADD DUP1 DUP3 SSTORE DUP1 SWAP2 POP POP PUSH1 0x1 SWAP1 SUB SWAP1 PUSH0 MSTORE PUSH1 0x20 PUSH0 KECCAK256 SWAP1 PUSH1 0x4 MUL ADD PUSH0 SWAP1 SWAP2 SWAP1 SWAP2 SWAP1 SWAP2 POP PUSH0 DUP3 ADD MLOAD DUP2 PUSH0 ADD PUSH0 PUSH2 0x100 EXP DUP2 SLOAD DUP2 PUSH20 0xFFFFFFFFFFFFFFFFFFFFFFFFFFFFFFFFFFFFFFFF MUL NOT AND SWAP1 DUP4 PUSH20 0xFFFFFFFFFFFFFFFFFFFFFFFFFFFFFFFFFFFFFFFF AND MUL OR SWAP1 SSTORE POP PUSH1 0x20 DUP3 ADD MLOAD DUP2 PUSH1 0x1 ADD SSTORE PUSH1 0x40 DUP3 ADD MLOAD DUP2 PUSH1 0x2 ADD SWAP1 DUP2 PUSH2 0x412 SWAP2 SWAP1 PUSH2 0xDDB JUMP JUMPDEST POP PUSH1 0x60 DUP3 ADD MLOAD DUP2 PUSH1 0x3 ADD SWAP1 DUP1 MLOAD SWAP1 PUSH1 0x20 ADD SWAP1 PUSH2 0x42F SWAP3 SWAP2 SWAP1 PUSH2 0x5D5 JUMP JUMPDEST POP POP POP PUSH1 0x1 PUSH0 DUP1 SLOAD SWAP1 POP PUSH2 0x443 SWAP2 SWAP1 PUSH2 0xED7 JUMP JUMPDEST CALLER PUSH20 0xFFFFFFFFFFFFFFFFFFFFFFFFFFFFFFFFFFFFFFFF AND PUSH32 0x12A6D6E360DE92EE96444E397580FA39CA65F27C25BD78A4BAD6278011334FAC DUP5 PUSH1 0x40 MLOAD PUSH2 0x489 SWAP2 SWAP1 PUSH2 0xF0A JUMP JUMPDEST PUSH1 0x40 MLOAD DUP1 SWAP2 SUB SWAP1 LOG3 POP POP JUMP JUMPDEST DUP2 CALLER PUSH20 0xFFFFFFFFFFFFFFFFFFFFFFFFFFFFFFFFFFFFFFFF AND PUSH0 DUP3 DUP2 SLOAD DUP2 LT PUSH2 0x4C0 JUMPI PUSH2 0x4BF PUSH2 0xF2A JUMP JUMPDEST JUMPDEST SWAP1 PUSH0 MSTORE PUSH1 0x20 PUSH0 KECCAK256 SWAP1 PUSH1 0x4 MUL ADD PUSH0 ADD PUSH0 SWAP1 SLOAD SWAP1 PUSH2 0x100 EXP SWAP1 DIV PUSH20 0xFFFFFFFFFFFFFFFFFFFFFFFFFFFFFFFFFFFFFFFF AND PUSH20 0xFFFFFFFFFFFFFFFFFFFFFFFFFFFFFFFFFFFFFFFF AND EQ PUSH2 0x544 JUMPI PUSH1 0x40 MLOAD PUSH32 0x8C379A000000000000000000000000000000000000000000000000000000000 DUP2 MSTORE PUSH1 0x4 ADD PUSH2 0x53B SWAP1 PUSH2 0xFA1 JUMP JUMPDEST PUSH1 0x40 MLOAD DUP1 SWAP2 SUB SWAP1 REVERT JUMPDEST DUP2 PUSH0 DUP5 DUP2 SLOAD DUP2 LT PUSH2 0x558 JUMPI PUSH2 0x557 PUSH2 0xF2A JUMP JUMPDEST JUMPDEST SWAP1 PUSH0 MSTORE PUSH1 0x20 PUSH0 KECCAK256 SWAP1 PUSH1 0x4 MUL ADD PUSH1 0x3 ADD SWAP1 DUP1 MLOAD SWAP1 PUSH1 0x20 ADD SWAP1 PUSH2 0x57A SWAP3 SWAP2 SWAP1 PUSH2 0x5D5 JUMP JUMPDEST POP DUP3 PUSH32 0x1EC4C1FFA8337F540F543C894B49FF569D0F0E1F6F0401B1D853712087C9D4C5 DUP4 PUSH1 0x40 MLOAD PUSH2 0x5AB SWAP2 SWAP1 PUSH2 0x10C2 JUMP JUMPDEST PUSH1 0x40 MLOAD DUP1 SWAP2 SUB SWAP1 LOG2 POP POP POP JUMP JUMPDEST PUSH1 0x1 PUSH1 0x20 MSTORE DUP1 PUSH0 MSTORE PUSH1 0x40 PUSH0 KECCAK256 PUSH0 SWAP2 POP SLOAD SWAP1 PUSH2 0x100 EXP SWAP1 DIV PUSH1 0xFF AND DUP2 JUMP JUMPDEST DUP3 DUP1 SLOAD DUP3 DUP3 SSTORE SWAP1 PUSH0 MSTORE PUSH1 0x20 PUSH0 KECCAK256 SWAP1 DUP2 ADD SWAP3 DUP3 ISZERO PUSH2 0x61B JUMPI SWAP2 PUSH1 0x20 MUL DUP3 ADD JUMPDEST DUP3 DUP2 GT ISZERO PUSH2 0x61A JUMPI DUP3 MLOAD DUP3 SWAP1 DUP2 PUSH2 0x60A SWAP2 SWAP1 PUSH2 0xDDB JUMP JUMPDEST POP SWAP2 PUSH1 0x20 ADD SWAP2 SWAP1 PUSH1 0x1 ADD SWAP1 PUSH2 0x5F3 JUMP JUMPDEST JUMPDEST POP SWAP1 POP PUSH2 0x628 SWAP2 SWAP1 PUSH2 0x62C JUMP JUMPDEST POP SWAP1 JUMP JUMPDEST JUMPDEST DUP1 DUP3 GT ISZERO PUSH2 0x64B JUMPI PUSH0 DUP2 DUP2 PUSH2 0x642 SWAP2 SWAP1 PUSH2 0x64F JUMP JUMPDEST POP PUSH1 0x1 ADD PUSH2 0x62D JUMP JUMPDEST POP SWAP1 JUMP JUMPDEST POP DUP1 SLOAD PUSH2 0x65B SWAP1 PUSH2 0xBA3 JUMP JUMPDEST PUSH0 DUP3 SSTORE DUP1 PUSH1 0x1F LT PUSH2 0x66C JUMPI POP PUSH2 0x689 JUMP JUMPDEST PUSH1 0x1F ADD PUSH1 0x20 SWAP1 DIV SWAP1 PUSH0 MSTORE PUSH1 0x20 PUSH0 KECCAK256 SWAP1 DUP2 ADD SWAP1 PUSH2 0x688 SWAP2 SWAP1 PUSH2 0x68C JUMP JUMPDEST JUMPDEST POP JUMP JUMPDEST JUMPDEST DUP1 DUP3 GT ISZERO PUSH2 0x6A3 JUMPI PUSH0 DUP2 PUSH0 SWAP1 SSTORE POP PUSH1 0x1 ADD PUSH2 0x68D JUMP JUMPDEST POP SWAP1 JUMP JUMPDEST PUSH0 PUSH1 0x40 MLOAD SWAP1 POP SWAP1 JUMP JUMPDEST PUSH0 PUSH0 REVERT JUMPDEST PUSH0 PUSH0 REVERT JUMPDEST PUSH0 DUP2 SWAP1 POP SWAP2 SWAP1 POP JUMP JUMPDEST PUSH2 0x6CA DUP2 PUSH2 0x6B8 JUMP JUMPDEST DUP2 EQ PUSH2 0x6D4 JUMPI PUSH0 PUSH0 REVERT JUMPDEST POP JUMP JUMPDEST PUSH0 DUP2 CALLDATALOAD SWAP1 POP PUSH2 0x6E5 DUP2 PUSH2 0x6C1 JUMP JUMPDEST SWAP3 SWAP2 POP POP JUMP JUMPDEST PUSH0 PUSH1 0x20 DUP3 DUP5 SUB SLT ISZERO PUSH2 0x700 JUMPI PUSH2 0x6FF PUSH2 0x6B0 JUMP JUMPDEST JUMPDEST PUSH0 PUSH2 0x70D DUP5 DUP3 DUP6 ADD PUSH2 0x6D7 JUMP JUMPDEST SWAP2 POP POP SWAP3 SWAP2 POP POP JUMP JUMPDEST PUSH0 PUSH20 0xFFFFFFFFFFFFFFFFFFFFFFFFFFFFFFFFFFFFFFFF DUP3 AND SWAP1 POP SWAP2 SWAP1 POP JUMP JUMPDEST PUSH0 PUSH2 0x73F DUP3 PUSH2 0x716 JUMP JUMPDEST SWAP1 POP SWAP2 SWAP1 POP JUMP JUMPDEST PUSH2 0x74F DUP2 PUSH2 0x735 JUMP JUMPDEST DUP3 MSTORE POP POP JUMP JUMPDEST PUSH2 0x75E DUP2 PUSH2 0x6B8 JUMP JUMPDEST DUP3 MSTORE POP POP JUMP JUMPDEST PUSH0 DUP2 MLOAD SWAP1 POP SWAP2 SWAP1 POP JUMP JUMPDEST PUSH0 DUP3 DUP3 MSTORE PUSH1 0x20 DUP3 ADD SWAP1 POP SWAP3 SWAP2 POP POP JUMP JUMPDEST DUP3 DUP2 DUP4 MCOPY PUSH0 DUP4 DUP4 ADD MSTORE POP POP POP JUMP JUMPDEST PUSH0 PUSH1 0x1F NOT PUSH1 0x1F DUP4 ADD AND SWAP1 POP SWAP2 SWAP1 POP JUMP JUMPDEST PUSH0 PUSH2 0x7A6 DUP3 PUSH2 0x764 JUMP JUMPDEST PUSH2 0x7B0 DUP2 DUP6 PUSH2 0x76E JUMP JUMPDEST SWAP4 POP PUSH2 0x7C0 DUP2 DUP6 PUSH1 0x20 DUP7 ADD PUSH2 0x77E JUMP JUMPDEST PUSH2 0x7C9 DUP2 PUSH2 0x78C JUMP JUMPDEST DUP5 ADD SWAP2 POP POP SWAP3 SWAP2 POP POP JUMP JUMPDEST PUSH0 PUSH1 0x60 DUP3 ADD SWAP1 POP PUSH2 0x7E7 PUSH0 DUP4 ADD DUP7 PUSH2 0x746 JUMP JUMPDEST PUSH2 0x7F4 PUSH1 0x20 DUP4 ADD DUP6 PUSH2 0x755 JUMP JUMPDEST DUP2 DUP2 SUB PUSH1 0x40 DUP4 ADD MSTORE PUSH2 0x806 DUP2 DUP5 PUSH2 0x79C JUMP JUMPDEST SWAP1 POP SWAP5 SWAP4 POP POP POP POP JUMP JUMPDEST PUSH2 0x819 DUP2 PUSH2 0x735 JUMP JUMPDEST DUP2 EQ PUSH2 0x823 JUMPI PUSH0 PUSH0 REVERT JUMPDEST POP JUMP JUMPDEST PUSH0 DUP2 CALLDATALOAD SWAP1 POP PUSH2 0x834 DUP2 PUSH2 0x810 JUMP JUMPDEST SWAP3 SWAP2 POP POP JUMP JUMPDEST PUSH0 PUSH1 0x20 DUP3 DUP5 SUB SLT ISZERO PUSH2 0x84F JUMPI PUSH2 0x84E PUSH2 0x6B0 JUMP JUMPDEST JUMPDEST PUSH0 PUSH2 0x85C DUP5 DUP3 DUP6 ADD PUSH2 0x826 JUMP JUMPDEST SWAP2 POP POP SWAP3 SWAP2 POP POP JUMP JUMPDEST PUSH0 PUSH0 REVERT JUMPDEST PUSH0 PUSH0 REVERT JUMPDEST PUSH32 0x4E487B7100000000000000000000000000000000000000000000000000000000 PUSH0 MSTORE PUSH1 0x41 PUSH1 0x4 MSTORE PUSH1 0x24 PUSH0 REVERT JUMPDEST PUSH2 0x8A3 DUP3 PUSH2 0x78C JUMP JUMPDEST DUP2 ADD DUP2 DUP2 LT PUSH8 0xFFFFFFFFFFFFFFFF DUP3 GT OR ISZERO PUSH2 0x8C2 JUMPI PUSH2 0x8C1 PUSH2 0x86D JUMP JUMPDEST JUMPDEST DUP1 PUSH1 0x40 MSTORE POP POP POP JUMP JUMPDEST PUSH0 PUSH2 0x8D4 PUSH2 0x6A7 JUMP JUMPDEST SWAP1 POP PUSH2 0x8E0 DUP3 DUP3 PUSH2 0x89A JUMP JUMPDEST SWAP2 SWAP1 POP JUMP JUMPDEST PUSH0 PUSH8 0xFFFFFFFFFFFFFFFF DUP3 GT ISZERO PUSH2 0x8FF JUMPI PUSH2 0x8FE PUSH2 0x86D JUMP JUMPDEST JUMPDEST PUSH2 0x908 DUP3 PUSH2 0x78C JUMP JUMPDEST SWAP1 POP PUSH1 0x20 DUP2 ADD SWAP1 POP SWAP2 SWAP1 POP JUMP JUMPDEST DUP3 DUP2 DUP4 CALLDATACOPY PUSH0 DUP4 DUP4 ADD MSTORE POP POP POP JUMP JUMPDEST PUSH0 PUSH2 0x935 PUSH2 0x930 DUP5 PUSH2 0x8E5 JUMP JUMPDEST PUSH2 0x8CB JUMP JUMPDEST SWAP1 POP DUP3 DUP2 MSTORE PUSH1 0x20 DUP2 ADD DUP5 DUP5 DUP5 ADD GT ISZERO PUSH2 0x951 JUMPI PUSH2 0x950 PUSH2 0x869 JUMP JUMPDEST JUMPDEST PUSH2 0x95C DUP5 DUP3 DUP6 PUSH2 0x915 JUMP JUMPDEST POP SWAP4 SWAP3 POP POP POP JUMP JUMPDEST PUSH0 DUP3 PUSH1 0x1F DUP4 ADD SLT PUSH2 0x978 JUMPI PUSH2 0x977 PUSH2 0x865 JUMP JUMPDEST JUMPDEST DUP2 CALLDATALOAD PUSH2 0x988 DUP5 DUP3 PUSH1 0x20 DUP7 ADD PUSH2 0x923 JUMP JUMPDEST SWAP2 POP POP SWAP3 SWAP2 POP POP JUMP JUMPDEST PUSH0 PUSH8 0xFFFFFFFFFFFFFFFF DUP3 GT ISZERO PUSH2 0x9AB JUMPI PUSH2 0x9AA PUSH2 0x86D JUMP JUMPDEST JUMPDEST PUSH1 0x20 DUP3 MUL SWAP1 POP PUSH1 0x20 DUP2 ADD SWAP1 POP SWAP2 SWAP1 POP JUMP JUMPDEST PUSH0 PUSH0 REVERT JUMPDEST PUSH0 PUSH2 0x9D2 PUSH2 0x9CD DUP5 PUSH2 0x991 JUMP JUMPDEST PUSH2 0x8CB JUMP JUMPDEST SWAP1 POP DUP1 DUP4 DUP3 MSTORE PUSH1 0x20 DUP3 ADD SWAP1 POP PUSH1 0x20 DUP5 MUL DUP4 ADD DUP6 DUP2 GT ISZERO PUSH2 0x9F5 JUMPI PUSH2 0x9F4 PUSH2 0x9BC JUMP JUMPDEST JUMPDEST DUP4 JUMPDEST DUP2 DUP2 LT ISZERO PUSH2 0xA3C JUMPI DUP1 CALLDATALOAD PUSH8 0xFFFFFFFFFFFFFFFF DUP2 GT ISZERO PUSH2 0xA1A JUMPI PUSH2 0xA19 PUSH2 0x865 JUMP JUMPDEST JUMPDEST DUP1 DUP7 ADD PUSH2 0xA27 DUP10 DUP3 PUSH2 0x964 JUMP JUMPDEST DUP6 MSTORE PUSH1 0x20 DUP6 ADD SWAP5 POP POP POP PUSH1 0x20 DUP2 ADD SWAP1 POP PUSH2 0x9F7 JUMP JUMPDEST POP POP POP SWAP4 SWAP3 POP POP POP JUMP JUMPDEST PUSH0 DUP3 PUSH1 0x1F DUP4 ADD SLT PUSH2 0xA5A JUMPI PUSH2 0xA59 PUSH2 0x865 JUMP JUMPDEST JUMPDEST DUP2 CALLDATALOAD PUSH2 0xA6A DUP5 DUP3 PUSH1 0x20 DUP7 ADD PUSH2 0x9C0 JUMP JUMPDEST SWAP2 POP POP SWAP3 SWAP2 POP POP JUMP JUMPDEST PUSH0 PUSH0 PUSH1 0x40 DUP4 DUP6 SUB SLT ISZERO PUSH2 0xA89 JUMPI PUSH2 0xA88 PUSH2 0x6B0 JUMP JUMPDEST JUMPDEST PUSH0 DUP4 ADD CALLDATALOAD PUSH8 0xFFFFFFFFFFFFFFFF DUP2 GT ISZERO PUSH2 0xAA6 JUMPI PUSH2 0xAA5 PUSH2 0x6B4 JUMP JUMPDEST JUMPDEST PUSH2 0xAB2 DUP6 DUP3 DUP7 ADD PUSH2 0x964 JUMP JUMPDEST SWAP3 POP POP PUSH1 0x20 DUP4 ADD CALLDATALOAD PUSH8 0xFFFFFFFFFFFFFFFF DUP2 GT ISZERO PUSH2 0xAD3 JUMPI PUSH2 0xAD2 PUSH2 0x6B4 JUMP JUMPDEST JUMPDEST PUSH2 0xADF DUP6 DUP3 DUP7 ADD PUSH2 0xA46 JUMP JUMPDEST SWAP2 POP POP SWAP3 POP SWAP3 SWAP1 POP JUMP JUMPDEST PUSH0 PUSH0 PUSH1 0x40 DUP4 DUP6 SUB SLT ISZERO PUSH2 0xAFF JUMPI PUSH2 0xAFE PUSH2 0x6B0 JUMP JUMPDEST JUMPDEST PUSH0 PUSH2 0xB0C DUP6 DUP3 DUP7 ADD PUSH2 0x6D7 JUMP JUMPDEST SWAP3 POP POP PUSH1 0x20 DUP4 ADD CALLDATALOAD PUSH8 0xFFFFFFFFFFFFFFFF DUP2 GT ISZERO PUSH2 0xB2D JUMPI PUSH2 0xB2C PUSH2 0x6B4 JUMP JUMPDEST JUMPDEST PUSH2 0xB39 DUP6 DUP3 DUP7 ADD PUSH2 0xA46 JUMP JUMPDEST SWAP2 POP POP SWAP3 POP SWAP3 SWAP1 POP JUMP JUMPDEST PUSH0 DUP2 ISZERO ISZERO SWAP1 POP SWAP2 SWAP1 POP JUMP JUMPDEST PUSH2 0xB57 DUP2 PUSH2 0xB43 JUMP JUMPDEST DUP3 MSTORE POP POP JUMP JUMPDEST PUSH0 PUSH1 0x20 DUP3 ADD SWAP1 POP PUSH2 0xB70 PUSH0 DUP4 ADD DUP5 PUSH2 0xB4E JUMP JUMPDEST SWAP3 SWAP2 POP POP JUMP JUMPDEST PUSH32 0x4E487B7100000000000000000000000000000000000000000000000000000000 PUSH0 MSTORE PUSH1 0x22 PUSH1 0x4 MSTORE PUSH1 0x24 PUSH0 REVERT JUMPDEST PUSH0 PUSH1 0x2 DUP3 DIV SWAP1 POP PUSH1 0x1 DUP3 AND DUP1 PUSH2 0xBBA JUMPI PUSH1 0x7F DUP3 AND SWAP2 POP JUMPDEST PUSH1 0x20 DUP3 LT DUP2 SUB PUSH2 0xBCD JUMPI PUSH2 0xBCC PUSH2 0xB76 JUMP JUMPDEST JUMPDEST POP SWAP2 SWAP1 POP JUMP JUMPDEST PUSH32 0x4E6F742061207465616D206D656D626572000000000000000000000000000000 PUSH0 DUP3 ADD MSTORE POP JUMP JUMPDEST PUSH0 PUSH2 0xC07 PUSH1 0x11 DUP4 PUSH2 0x76E JUMP JUMPDEST SWAP2 POP PUSH2 0xC12 DUP3 PUSH2 0xBD3 JUMP JUMPDEST PUSH1 0x20 DUP3 ADD SWAP1 POP SWAP2 SWAP1 POP JUMP JUMPDEST PUSH0 PUSH1 0x20 DUP3 ADD SWAP1 POP DUP2 DUP2 SUB PUSH0 DUP4 ADD MSTORE PUSH2 0xC34 DUP2 PUSH2 0xBFB JUMP JUMPDEST SWAP1 POP SWAP2 SWAP1 POP JUMP JUMPDEST PUSH0 DUP2 SWAP1 POP DUP2 PUSH0 MSTORE PUSH1 0x20 PUSH0 KECCAK256 SWAP1 POP SWAP2 SWAP1 POP JUMP JUMPDEST PUSH0 PUSH1 0x20 PUSH1 0x1F DUP4 ADD DIV SWAP1 POP SWAP2 SWAP1 POP JUMP JUMPDEST PUSH0 DUP3 DUP3 SHL SWAP1 POP SWAP3 SWAP2 POP POP JUMP JUMPDEST PUSH0 PUSH1 0x8 DUP4 MUL PUSH2 0xC97 PUSH32 0xFFFFFFFFFFFFFFFFFFFFFFFFFFFFFFFFFFFFFFFFFFFFFFFFFFFFFFFFFFFFFFFF DUP3 PUSH2 0xC5C JUMP JUMPDEST PUSH2 0xCA1 DUP7 DUP4 PUSH2 0xC5C JUMP JUMPDEST SWAP6 POP DUP1 NOT DUP5 AND SWAP4 POP DUP1 DUP7 AND DUP5 OR SWAP3 POP POP POP SWAP4 SWAP3 POP POP POP JUMP JUMPDEST PUSH0 DUP2 SWAP1 POP SWAP2 SWAP1 POP JUMP JUMPDEST PUSH0 PUSH2 0xCDC PUSH2 0xCD7 PUSH2 0xCD2 DUP5 PUSH2 0x6B8 JUMP JUMPDEST PUSH2 0xCB9 JUMP JUMPDEST PUSH2 0x6B8 JUMP JUMPDEST SWAP1 POP SWAP2 SWAP1 POP JUMP JUMPDEST PUSH0 DUP2 SWAP1 POP SWAP2 SWAP1 POP JUMP JUMPDEST PUSH2 0xCF5 DUP4 PUSH2 0xCC2 JUMP JUMPDEST PUSH2 0xD09 PUSH2 0xD01 DUP3 PUSH2 0xCE3 JUMP JUMPDEST DUP5 DUP5 SLOAD PUSH2 0xC68 JUMP JUMPDEST DUP3 SSTORE POP POP POP POP JUMP JUMPDEST PUSH0 PUSH0 SWAP1 POP SWAP1 JUMP JUMPDEST PUSH2 0xD20 PUSH2 0xD11 JUMP JUMPDEST PUSH2 0xD2B DUP2 DUP5 DUP5 PUSH2 0xCEC JUMP JUMPDEST POP POP POP JUMP JUMPDEST JUMPDEST DUP2 DUP2 LT ISZERO PUSH2 0xD4E JUMPI PUSH2 0xD43 PUSH0 DUP3 PUSH2 0xD18 JUMP JUMPDEST PUSH1 0x1 DUP2 ADD SWAP1 POP PUSH2 0xD31 JUMP JUMPDEST POP POP JUMP JUMPDEST PUSH1 0x1F DUP3 GT ISZERO PUSH2 0xD93 JUMPI PUSH2 0xD64 DUP2 PUSH2 0xC3B JUMP JUMPDEST PUSH2 0xD6D DUP5 PUSH2 0xC4D JUMP JUMPDEST DUP2 ADD PUSH1 0x20 DUP6 LT ISZERO PUSH2 0xD7C JUMPI DUP2 SWAP1 POP JUMPDEST PUSH2 0xD90 PUSH2 0xD88 DUP6 PUSH2 0xC4D JUMP JUMPDEST DUP4 ADD DUP3 PUSH2 0xD30 JUMP JUMPDEST POP POP JUMPDEST POP POP POP JUMP JUMPDEST PUSH0 DUP3 DUP3 SHR SWAP1 POP SWAP3 SWAP2 POP POP JUMP JUMPDEST PUSH0 PUSH2 0xDB3 PUSH0 NOT DUP5 PUSH1 0x8 MUL PUSH2 0xD98 JUMP JUMPDEST NOT DUP1 DUP4 AND SWAP2 POP POP SWAP3 SWAP2 POP POP JUMP JUMPDEST PUSH0 PUSH2 0xDCB DUP4 DUP4 PUSH2 0xDA4 JUMP JUMPDEST SWAP2 POP DUP3 PUSH1 0x2 MUL DUP3 OR SWAP1 POP SWAP3 SWAP2 POP POP JUMP JUMPDEST PUSH2 0xDE4 DUP3 PUSH2 0x764 JUMP JUMPDEST PUSH8 0xFFFFFFFFFFFFFFFF DUP2 GT ISZERO PUSH2 0xDFD JUMPI PUSH2 0xDFC PUSH2 0x86D JUMP JUMPDEST JUMPDEST PUSH2 0xE07 DUP3 SLOAD PUSH2 0xBA3 JUMP JUMPDEST PUSH2 0xE12 DUP3 DUP3 DUP6 PUSH2 0xD52 JUMP JUMPDEST PUSH0 PUSH1 0x20 SWAP1 POP PUSH1 0x1F DUP4 GT PUSH1 0x1 DUP2 EQ PUSH2 0xE43 JUMPI PUSH0 DUP5 ISZERO PUSH2 0xE31 JUMPI DUP3 DUP8 ADD MLOAD SWAP1 POP JUMPDEST PUSH2 0xE3B DUP6 DUP3 PUSH2 0xDC0 JUMP JUMPDEST DUP7 SSTORE POP PUSH2 0xEA2 JUMP JUMPDEST PUSH1 0x1F NOT DUP5 AND PUSH2 0xE51 DUP7 PUSH2 0xC3B JUMP JUMPDEST PUSH0 JUMPDEST DUP3 DUP2 LT ISZERO PUSH2 0xE78 JUMPI DUP5 DUP10 ADD MLOAD DUP3 SSTORE PUSH1 0x1 DUP3 ADD SWAP2 POP PUSH1 0x20 DUP6 ADD SWAP5 POP PUSH1 0x20 DUP2 ADD SWAP1 POP PUSH2 0xE53 JUMP JUMPDEST DUP7 DUP4 LT ISZERO PUSH2 0xE95 JUMPI DUP5 DUP10 ADD MLOAD PUSH2 0xE91 PUSH1 0x1F DUP10 AND DUP3 PUSH2 0xDA4 JUMP JUMPDEST DUP4 SSTORE POP JUMPDEST PUSH1 0x1 PUSH1 0x2 DUP9 MUL ADD DUP9 SSTORE POP POP POP JUMPDEST POP POP POP POP POP POP JUMP JUMPDEST PUSH32 0x4E487B7100000000000000000000000000000000000000000000000000000000 PUSH0 MSTORE PUSH1 0x11 PUSH1 0x4 MSTORE PUSH1 0x24 PUSH0 REVERT JUMPDEST PUSH0 PUSH2 0xEE1 DUP3 PUSH2 0x6B8 JUMP JUMPDEST SWAP2 POP PUSH2 0xEEC DUP4 PUSH2 0x6B8 JUMP JUMPDEST SWAP3 POP DUP3 DUP3 SUB SWAP1 POP DUP2 DUP2 GT ISZERO PUSH2 0xF04 JUMPI PUSH2 0xF03 PUSH2 0xEAA JUMP JUMPDEST JUMPDEST SWAP3 SWAP2 POP POP JUMP JUMPDEST PUSH0 PUSH1 0x20 DUP3 ADD SWAP1 POP DUP2 DUP2 SUB PUSH0 DUP4 ADD MSTORE PUSH2 0xF22 DUP2 DUP5 PUSH2 0x79C JUMP JUMPDEST SWAP1 POP SWAP3 SWAP2 POP POP JUMP JUMPDEST PUSH32 0x4E487B7100000000000000000000000000000000000000000000000000000000 PUSH0 MSTORE PUSH1 0x32 PUSH1 0x4 MSTORE PUSH1 0x24 PUSH0 REVERT JUMPDEST PUSH32 0x4E6F742074686520617574686F72000000000000000000000000000000000000 PUSH0 DUP3 ADD MSTORE POP JUMP JUMPDEST PUSH0 PUSH2 0xF8B PUSH1 0xE DUP4 PUSH2 0x76E JUMP JUMPDEST SWAP2 POP PUSH2 0xF96 DUP3 PUSH2 0xF57 JUMP JUMPDEST PUSH1 0x20 DUP3 ADD SWAP1 POP SWAP2 SWAP1 POP JUMP JUMPDEST PUSH0 PUSH1 0x20 DUP3 ADD SWAP1 POP DUP2 DUP2 SUB PUSH0 DUP4 ADD MSTORE PUSH2 0xFB8 DUP2 PUSH2 0xF7F JUMP JUMPDEST SWAP1 POP SWAP2 SWAP1 POP JUMP JUMPDEST PUSH0 DUP2 MLOAD SWAP1 POP SWAP2 SWAP1 POP JUMP JUMPDEST PUSH0 DUP3 DUP3 MSTORE PUSH1 0x20 DUP3 ADD SWAP1 POP SWAP3 SWAP2 POP POP JUMP JUMPDEST PUSH0 DUP2 SWAP1 POP PUSH1 0x20 DUP3 ADD SWAP1 POP SWAP2 SWAP1 POP JUMP JUMPDEST PUSH0 DUP3 DUP3 MSTORE PUSH1 0x20 DUP3 ADD SWAP1 POP SWAP3 SWAP2 POP POP JUMP JUMPDEST PUSH0 PUSH2 0x1002 DUP3 PUSH2 0x764 JUMP JUMPDEST PUSH2 0x100C DUP2 DUP6 PUSH2 0xFE8 JUMP JUMPDEST SWAP4 POP PUSH2 0x101C DUP2 DUP6 PUSH1 0x20 DUP7 ADD PUSH2 0x77E JUMP JUMPDEST PUSH2 0x1025 DUP2 PUSH2 0x78C JUMP JUMPDEST DUP5 ADD SWAP2 POP POP SWAP3 SWAP2 POP POP JUMP JUMPDEST PUSH0 PUSH2 0x103B DUP4 DUP4 PUSH2 0xFF8 JUMP JUMPDEST SWAP1 POP SWAP3 SWAP2 POP POP JUMP JUMPDEST PUSH0 PUSH1 0x20 DUP3 ADD SWAP1 POP SWAP2 SWAP1 POP JUMP JUMPDEST PUSH0 PUSH2 0x1059 DUP3 PUSH2 0xFBF JUMP JUMPDEST PUSH2 0x1063 DUP2 DUP6 PUSH2 0xFC9 JUMP JUMPDEST SWAP4 POP DUP4 PUSH1 0x20 DUP3 MUL DUP6 ADD PUSH2 0x1075 DUP6 PUSH2 0xFD9 JUMP JUMPDEST DUP1 PUSH0 JUMPDEST DUP6 DUP2 LT ISZERO PUSH2 0x10B0 JUMPI DUP5 DUP5 SUB DUP10 MSTORE DUP2 MLOAD PUSH2 0x1091 DUP6 DUP3 PUSH2 0x1030 JUMP JUMPDEST SWAP5 POP PUSH2 0x109C DUP4 PUSH2 0x1043 JUMP JUMPDEST SWAP3 POP PUSH1 0x20 DUP11 ADD SWAP10 POP POP PUSH1 0x1 DUP2 ADD SWAP1 POP PUSH2 0x1078 JUMP JUMPDEST POP DUP3 SWAP8 POP DUP8 SWAP6 POP POP POP POP POP POP SWAP3 SWAP2 POP POP JUMP JUMPDEST PUSH0 PUSH1 0x20 DUP3 ADD SWAP1 POP DUP2 DUP2 SUB PUSH0 DUP4 ADD MSTORE PUSH2 0x10DA DUP2 DUP5 PUSH2 0x104F JUMP JUMPDEST SWAP1 POP SWAP3 SWAP2 POP POP JUMP INVALID LOG2 PUSH5 0x6970667358 0x22 SLT KECCAK256 0x4B MSIZE 0xBF PUSH16 0x812BA1EE33974139FF62D49DFADC8E18 0x2E BLOBBASEFEE 0x4D RJUMPI 0x6212 0xD2 0xC9 0xE2 PUSH32 0x143164736F6C634300081E003300000000000000000000000000000000000000 "
		},
		"gasEstimates": {
			"creation": {
				"codeDepositCost": "875200",
				"executionCost": "25260",
				"totalCost": "900460"
			},
			"external": {
				"addTeamMember(address)": "27042",
				"createPost(string,string[])": "infinite",
				"posts(uint256)": "infinite",
				"teamMembers(address)": "2899",
				"updateTags(uint256,string[])": "infinite"
			}
		},
		"methodIdentifiers": {
			"addTeamMember(address)": "3eb2b5ad",
			"createPost(string,string[])": "52374f7a",
			"posts(uint256)": "0b1e7f83",
			"teamMembers(address)": "c836292b",
			"updateTags(uint256,string[])": "a7c81a01"
		}
	},
	"abi": [
		{
			"inputs": [],
			"stateMutability": "nonpayable",
			"type": "constructor"
		},
		{
			"anonymous": false,
			"inputs": [
				{
					"indexed": true,
					"internalType": "address",
					"name": "author",
					"type": "address"
				},
				{
					"indexed": true,
					"internalType": "uint256",
					"name": "postId",
					"type": "uint256"
				},
				{
					"indexed": false,
					"internalType": "string",
					"name": "ipfsHash",
					"type": "string"
				}
			],
			"name": "PostCreated",
			"type": "event"
		},
		{
			"anonymous": false,
			"inputs": [
				{
					"indexed": true,
					"internalType": "uint256",
					"name": "postId",
					"type": "uint256"
				},
				{
					"indexed": false,
					"internalType": "string[]",
					"name": "newTags",
					"type": "string[]"
				}
			],
			"name": "TagsUpdated",
			"type": "event"
		},
		{
			"inputs": [
				{
					"internalType": "address",
					"name": "member",
					"type": "address"
				}
			],
			"name": "addTeamMember",
			"outputs": [],
			"stateMutability": "nonpayable",
			"type": "function"
		},
		{
			"inputs": [
				{
					"internalType": "string",
					"name": "ipfsHash",
					"type": "string"
				},
				{
					"internalType": "string[]",
					"name": "tags",
					"type": "string[]"
				}
			],
			"name": "createPost",
			"outputs": [],
			"stateMutability": "nonpayable",
			"type": "function"
		},
		{
			"inputs": [
				{
					"internalType": "uint256",
					"name": "",
					"type": "uint256"
				}
			],
			"name": "posts",
			"outputs": [
				{
					"internalType": "address",
					"name": "author",
					"type": "address"
				},
				{
					"internalType": "uint256",
					"name": "timestamp",
					"type": "uint256"
				},
				{
					"internalType": "string",
					"name": "ipfsHash",
					"type": "string"
				}
			],
			"stateMutability": "view",
			"type": "function"
		},
		{
			"inputs": [
				{
					"internalType": "address",
					"name": "",
					"type": "address"
				}
			],
			"name": "teamMembers",
			"outputs": [
				{
					"internalType": "bool",
					"name": "",
					"type": "bool"
				}
			],
			"stateMutability": "view",
			"type": "function"
		},
		{
			"inputs": [
				{
					"internalType": "uint256",
					"name": "postId",
					"type": "uint256"
				},
				{
					"internalType": "string[]",
					"name": "newTags",
					"type": "string[]"
				}
			],
			"name": "updateTags",
			"outputs": [],
			"stateMutability": "nonpayable",
			"type": "function"
		}
	]
}